:020000040200F8
:1000000088A20022B1E30102ADE1010233610002E6
:10001000BFE30102BFE30102BFE30102BFE301024C
:10002000000000000000000000000000BFE301022B
:10003000BFE30102000000006B600002DD38020235
:10004000D9C9010263C8010219CB01026DCB0102BB
:10005000C7C0010221C101029FDB0102114D020252
:100060003F4D02026D4D02029B4D0202C94D02023C
:10007000F14D0202194E02020000000000000000D3
:100080000000000000000000000000000000000070
:100090000000000000000000000000000000000060
:1000A0000000000000000000000000000000000050
:1000B0000000000000000000000000000000000040
:1000C0000000000000000000000000000000000030
:1000D0000000000000000000000000000000000020
:1000E0000000000000000000000000000000000010
:1000F0000000000000000000000000000000000000
:1001000000000000000000000000000000000000EF
:1001100000000000000000000000000000000000DF
:1001200000000000000000000000000000000000CF
:1001300000000000000000000000000000000000BF
:1001400000000000000000000000000000000000AF
:10015000000000000000000000000000000000009F
:10016000000000000000000000000000000000008F
:10017000000000000000000000000000000000007F
:10018000000000000000000000000000000000006F
:10019000000000000000000000000000000000005F
:1001A000000000000000000000000000000000004F
:1001B000000000000000000000000000000000003F
:1001C000FFFFFFFFFFFFFFFFFFFFFFFFFFFFFFFF3F
:1001D000FFFFFFFFFFFFFFFFFFFFFFFFFFFFFFFF2F
:1001E000FFFFFFFFFFFFFFFFFFFFFFFFFFFFFFFF1F
:1001F000FFFFFFFFFFFFFFFFFFFFFFFFFFFFFFFF0F
:1002000010B5054C237833B9044B13B1044800E012
:1002100000BF0123237010BDE01800220000000081
:10022000BCC0020208B5034B1BB10349034800E000
:1002300000BF08BD00000000E4180022BCC002029C
:1002400080B500AF0A4803F0FDF901214FF4817039
:1002500010F030FB4FF4FA7005F08CF800214FF4E9
:10026000817010F027FB4FF4FA7005F083F8ECE78B
:100270003066020280B400AF034B1B681846BD46CF
:100280005DF8047B704700BFFC18002280B582B087
:1002900000AF1B4B1B68002B02D0194B1B68984703
:1002A00005F0CCFE7860174B1B680133154A1360CC
:1002B00004F03AFE38603B689B6D5A1E3B689A65B5
:1002C0003B689B6D002B12D13B685A6D3B689A6569
:1002D0003B6893F8383043F00803DAB23B6883F8A0
:1002E0003820786805F0AEFE04F0FCFA02E0786889
:1002F00005F0A8FE05F014FD00BF0837BD4680BD1F
:1003000000190022FC18002280B485B000AF78608C
:100310007B68002B03DA4FF0FF33FB6027E07B683C
:10032000164A82FB03129211DB17D31A4FF47A722A
:1003300002FB03F3FB607A68104B83FB02139911F5
:10034000D317CB1A4FF47A7101FB03F3D31A4FF48E
:100350007A7202FB03F303F2E733084A82FB0312CB
:100360009211DB17D31A1A46FB681344FB60FB6833
:1003700018461437BD465DF8047B7047D34D6210B4
:1003800080B400AF00231846BD465DF8047B70477B
:1003900080B400AF00231846BD465DF8047B70476B
:1003A00080B400AF00231846BD465DF8047B70475B
:1003B00080B400AF00231846BD465DF8047B70474B
:1003C00080B582B000AF094B7B6005E07B681B689D
:1003D00098477B6804337B607B68054A9342F5D37A
:1003E00000BF00BF0837BD4680BD00BF04660202E3
:1003F0000C66020280B582B000AF094B7B6005E05D
:100400007B681B6898477B6804337B607B68054A80
:100410009342F5D300BF00BF0837BD4680BD00BF83
:100420000C6602022C66020280B500AF00F036F8BE
:100430000023184680BD80B582B000AF7860FFF71A
:10044000D9FF1AF0FCFA00BF0837BD4680BDFFFF98
:1004500080B584B002AF142301930A2300934FF4B4
:100460000063002209490A4804F022FE78607B6894
:10047000002B04D1D6220749074803F0FDF978681C
:1004800004F05EFD00BF0837BD4680BD37040002A2
:10049000446602025C6602024C66020280B500AF4E
:1004A00005F0CCFD23F024FA02F06EFB05F078FD98
:1004B00004F0D6F9FFF7CCFF05F08CFD00F0B6F89C
:1004C00004F0F2F90023184680BD80B483B000AF79
:1004D000786039607B681B683A685A607B681A6884
:1004E0003B681A607B683A681A603B687A685A60B1
:1004F00000BF0C37BD465DF8047B704780B483B005
:1005000000AF78607B681B687A6852685A607B68C5
:100510005B687A6812681A607B687A685A607B68E0
:100520005A687B681A6000BF0C37BD465DF8047BD3
:100530007047FFFF80B582B000AF78607B681833EA
:1005400019460348FFF7C1FF00BF0837BD4680BD0D
:100550000000002280B584B000AF0023FB600D4B8B
:10056000BB60BB681B68BA689A420ED0BB681B6848
:10057000183BFB6005F062FD7860FB681833184695
:10058000FFF7BCFF786805F05DFDFB681846103783
:10059000BD4680BD0000002280B584B000AFFFF7EB
:1005A000D9FFF860FB68002B1FD0FB68D3F88C30B4
:1005B000BB60F86803F0EAFF78607B68012B02D12A
:1005C000F86803F00BFFBB68002B02D0BB68F8682B
:1005D00098477B68002BE2D1FB68DB6A184603F082
:1005E0002BF9F86803F094FFD9E700BF00BF10377C
:1005F000BD4680BD80B584B000AF78600023FB604D
:100600000CE0094AFB6852F82330BB60BB68002B42
:1006100001D0BB689847FB680133FB60FB68032B84
:10062000EFD9FFF7B9FFE9E7981A002280B588B043
:1006300004AF0023FB6028E03846FB68174A0C2112
:1006400002F07AFFFB68942202FB03F3144A981825
:10065000FB681B02134A13443946202203921F22CF
:1006600002924FF480720192009300230E4A04F02C
:1006700023FCFB68942202FB03F3094A1344184647
:1006800004F05EFCFB680133FB60FB68002BD3D0F9
:1006900000BF00BF1037BD4680BD00BF70660202BC
:1006A0000419002298190022F505000280B483B0D5
:1006B00000AF78607B687A685A607B685A687B68AC
:1006C0001A6000BF0C37BD465DF8047B704780B4EC
:1006D00083B000AF786039607B681B683A685A6005
:1006E0007B681A683B681A607B683A681A603B68E6
:1006F0007A685A6000BF0C37BD465DF8047B7047CE
:1007000080B483B000AF786039607B685B683A681A
:100710001A607B685A683B685A607B683A685A601E
:100720003B687A681A6000BF0C37BD465DF8047BF1
:10073000704780B483B000AF78607B681B687A68CC
:1007400052685A607B685B687A6812681A607B68D6
:100750007A685A607B685A687B681A6000BF0C37F9
:10076000BD465DF8047B704780B483B000AF78600D
:100770007B681B687A689A420CBF01230023DBB2B6
:1007800018460C37BD465DF8047B704780B582B0D3
:1007900000AF78607B6818331846FFF787FF0023A7
:1007A00018460837BD4680BD80B588B000AFF860F8
:1007B000B9603B601346FB71BB6893F8383003F0B7
:1007C0000403002B09D13968B86804F0A9FEB861A8
:1007D000BB69002B01D0BB693FE0FB79002B02D045
:1007E000012B07D031E0BB6818331946F868FFF7D2
:1007F00087FF31E0FB681B68FB6117E0FB69183B72
:100800007B61BB6893F839207B6993F839309A4251
:1008100009D27B6903F11802BB68183319461046E8
:10082000FFF76EFF06E0FB691B68FB61FA69FB6876
:100830009A42E3D1FA69FB689A420CD1BB6818333B
:100840001946F868FFF75CFF05E0B622054906483F
:1008500003F012F800E000BF002318462037BD4621
:1008600080BD00BFBC6B02027866020280B584B016
:1008700000AF78607B681B68183BFB60FB68002258
:100880005A63F86804F0BAFE002318461037BD46D4
:1008900080BD80B584B000AF786010E005F0CEFB7D
:1008A000F8607B681B68183BBB60BB686FF0FE029A
:1008B0005A63B86804F0A2FEF86805F0C3FB7868D4
:1008C000FFF752FF0346002BE8D0002318461037ED
:1008D000BD4680BD80B584B000AFF860B9607A6075
:1008E000FB70FB68002B05D140F23F1217491848F6
:1008F00002F0C2FF7B68B3F5803F05D34FF4A072CE
:100900001249144802F0B8FFFB78002B08D0FB789E
:10091000012B05D040F241120C490F4802F0ACFF08
:10092000FB68BA680221184603F0F6FCFB6818461B
:10093000FFF72CFF7B689AB2FB681A84FB68FA7891
:100940005A73002318461037BD4680BD806B0202E3
:100950007C6602028C660202A066020280B586B046
:1009600000AFF860B9601346FB71BB68B3F5803F18
:1009700005D34FF4CE721F491F4802F07DFFFB796B
:10098000002B08D0FB79012B05D040F29D121949AC
:100990001A4802F071FF05F051FB786101F05AFE30
:1009A0000346002B09D01349154802F04BFE40F2D4
:1009B0009F121049134802F05FFF786905F042FB6F
:1009C000F968022003F038FD38613B69002B01D142
:1009D0003B690BE03B691846FFF7D8FEBB689AB24B
:1009E0003B691A843B69FA795A733B691846183790
:1009F000BD4680BD8C6B02028C660202A0660202BC
:100A0000546702027866020280B584B000AF786055
:100A10007B68002B05D140F2C9122049204802F022
:100A20002BFF7B68184603F0CFFD0346022B05D051
:100A30004FF4E57219491B4802F01EFF7B68184607
:100A400003F0A4FD0346002B05D040F2CB1213495E
:100A5000154802F011FF05F0F1FAF86001F0FAFD17
:100A60000346002B09D00D49104802F0EBFD40F27F
:100A7000CD120A490E4802F0FFFEF86805F0E2FACE
:100A80007B6818331846FFF704FF7B68184603F0AD
:100A90003FFD002318461037BD4680BD9C6B020207
:100AA0007C660202DC6602027C6702025467020274
:100AB0007866020280B58CB000AFF860B9607A60E9
:100AC000FB68002B05D140F2FD126649664802F032
:100AD000D3FEFB68184603F077FD0346022B05D0D2
:100AE0004FF4FF725F49614802F0C6FE604B1B681D
:100AF000002B04D05E4B1B68FA6810469847FB68D1
:100B00001B8C002B51D1BB68002B4ED001F0B6FDE1
:100B1000F86205F093FAB86204F09EF80346002BE1
:100B200009D05049534802F08DFD40F203224D494F
:100B3000514802F0A1FEFB6A012B09D149494F48F7
:100B400002F080FD40F2032246494B4802F094FE39
:100B500005F074FA786204F0E7F90346002B09D136
:100B60004049474802F06EFD40F203223D494248A9
:100B700002F082FE05F062FA386201F06BFD034676
:100B8000002B09D037493F4802F05CFD40F20322B8
:100B90003449394802F070FE386A05F053FA786A31
:100BA00005F050FAB86A05F04DFA05F047FAF86119
:100BB000FB681B8C002B09D0FB681B8C013B9AB295
:100BC000FB681A84F86905F03DFA3DE0BB68002B2C
:100BD00005D1F86905F036FA6FF073033EE004F0D2
:100BE000A3F9B861BB696FF003025A63FB6803F1B4
:100BF0001800FB685A7B7B68B969FFF7D5FD7861FF
:100C00007B69002B04D0F86905F01CFA7B6925E0AC
:100C1000BB68002B0CDDBB695C3307F108020021C7
:100C2000184604F0E7FFBB695C33184604F082FE07
:100C3000F86905F007FA03F055FEBB695B6B002B02
:100C400002D0BB695B6B09E00F4B1B68002B04D023
:100C50000D4B1B68FA68104698470023184630373A
:100C6000BD4680BDAC6B02027C660202DC660202FD
:100C7000F01B0022B867020278660202E4670202F3
:100C80000C68020254670202F41B002280B582B095
:100C900000AF78603960022239687868FFF70AFF90
:100CA000034618460837BD4680BDFFFF80B584B0B7
:100CB00000AF78607B68002B05D140F28B2227497A
:100CC000274802F0D9FD7B68184603F07DFC0346F7
:100CD000022B05D04FF423722049224802F0CCFDAC
:100CE000214B1B68002B04D01F4B1B687A681046F1
:100CF00098470023FB6005F0A1F9B8607B681833C2
:100D00001846FFF731FD0346002B07D17B681833E7
:100D10001846FFF7ABFD0123FB6012E07B681B8CDC
:100D20004FF6FF72934206D07B681B8C01339AB258
:100D30007B681A8405E0B86805F084F96FF01B033E
:100D400008E0B86805F07EF9FB68012B01D103F0DB
:100D5000C9FD002318461037BD4680BDD06B020286
:100D60007C660202DC660202F81B002280B584B0B9
:100D700000AF78607B6818331846FFF7F5FC034630
:100D8000002B0AD17B689B69183BFB60FB6893F8DA
:100D900039207B6883F8212003E07B68FF2283F8F9
:100DA00021207B6893F8213018461037BD4680BD5E
:100DB00080B487B000AF786000237B610023FB60C4
:100DC0007B6893F83A30FB747B681B6C7B6117E09F
:100DD0007B69283BFB60FB6893F82130FB72FB6862
:100DE00093F82030FA7A934228BF1346FB72FA7CBC
:100DF000FB7A9A4201D9FB7AFB747B691B687B61A1
:100E00007B6840337A699A42E2D1FB7C18461C37F2
:100E1000BD465DF8047B704780B588B000AFF860D0
:100E20000B467A60FB726FF0FE03FB610023BB612F
:100E300007F10B031A460221F86804F0ABFAF861D7
:100E400045E0FB689B6CBB61BB69002B3CD0B8697B
:100E500003F0BAFB0346032B36D1FF23FB74BB69B7
:100E60007B61FB6818331846FFF763FC7B6903F16D
:100E700018007B695A7B7B68F968FFF795FCF8617D
:100E8000FB69002B23D17869FFF770FF7B695B6AF0
:100E90001846FFF78DFF0346FB747B695B6A93F886
:100EA0003920FB7C9A420BD07B695B6AFB6007F1BF
:100EB00013031A460221F86804F06CFAF86106E0A0
:100EC0006FF0FE03FB6102E06FF0FE03FB61FB6964
:100ED000002B06D1FB6893F8383003F00403002B95
:100EE000AFD100BF2037BD4680BDFFFF80B584B0C5
:100EF00000AFF860B9601346FB71FB68002B05D1A9
:100F000040F271321449154802F0B6FCFB68BA6829
:100F10000321184603F000FAFB681846FFF736FC79
:100F2000FB6800225A62FB68FF2283F82120FB68DD
:100F3000002283F82220FB68FF2283F82020FB6830
:100F400028331846FFF7B2FBFB6801225A730023CF
:100F500018461037BD4680BDE06B020244680202AD
:100F600080B586B000AF7860396000237B613B6854
:100F700018331846FFF7DDFB7B685B6A002B0AD04D
:100F80007B685B6A93F839203B6893F839309A4262
:100F900001D101237B617B6818331846FFF7E4FB1E
:100FA0000346002B0AD17B689B69183B3B613B6978
:100FB00093F839207B6883F8212003E07B68FF22C7
:100FC00083F821207B69002B14D07B685B6A18466C
:100FD000FFF7EEFE0346FB737B685B6A93F83930DC
:100FE000FA7B9A4206D07B685B6AF97B022218463C
:100FF000FFF712FF00BF1837BD4680BD80B584B033
:1010000000AF78600B46FB7005F018F8F86001F04F
:1010100021FB0346002B09D01B491C4802F012FBA0
:1010200040F23B4218491A4802F026FCF86805F0E5
:1010300009F87968032003F0FFF9B860BB68002B5A
:1010400001D1BB681BE0BB681846FFF79FFBBB687C
:1010500000225A62BB68FF2283F82120BB6800226D
:1010600083F82220BB68FF2283F82020BB68283346
:101070001846FFF71BFBBB6801225A73BB68184672
:101080001037BD4680BD00BFF06B020254670202FC
:101090007866020280B584B000AF78607B68002B70
:1010A00005D140F26A422749274802F0E5FB7B68F8
:1010B000184603F089FA0346032B05D040F26B4231
:1010C0002049224802F0D8FB7B68184603F05EFAFC
:1010D0000346002B05D040F26C421A491C4802F02E
:1010E000CBFB04F0ABFFF86001F0B4FA0346002B31
:1010F00009D01449174802F0A5FA40F26E4211498E
:10110000154802F0B9FBF86804F09CFF04F096FF64
:101110000346BB607B6818331846FFF7BAFB7B6851
:1011200028331846FFF705FBBB68184604F08AFF12
:101130007B68184603F0ECF9002318461037BD46CB
:1011400080BD00BF006C02024468020258680202BF
:10115000D0680202546702027866020280B58EB03F
:1011600000AFF860B9607A6001F088FAF86204F0C4
:1011700065FFB86203F070FD0346002B09D09A4961
:101180009A4802F05FFA40F29F429749984802F06D
:1011900073FBFB6A012B09D19349964802F052FA7E
:1011A00040F29F429049924802F066FB04F046FFED
:1011B000786203F0B9FE0346002B09D18A498E48B4
:1011C00002F040FA40F29F428749894802F054FBFE
:1011D00004F034FF386201F03DFA0346002B09D0D9
:1011E0008149864802F02EFA40F29F427E498048AB
:1011F00002F042FB386A04F025FF786A04F022FF0F
:10120000B86A04F01FFFFB68002B05D140F2A24230
:1012100075497B4802F030FBFB68184603F0D4F9AF
:101220000346032B05D040F2A3426F49754802F0F4
:1012300023FB03F079FEF86104F000FF7863724B42
:101240001B68002B04D0704B1B68FA681046984747
:10125000FB6900225A63FB685B6AFA699A4213D100
:10126000FB6893F82230FF2B08D0FB6893F82230FC
:101270000133DAB2FB6883F82220F2E0786B04F0E5
:10128000E1FE6FF01B03F9E0FB685B6A002B2BD1DA
:10129000FB68FA695A62FB68FF2283F82120FB6829
:1012A000012283F82220FB6893F82030FF2B11D015
:1012B000FB6893F82020FB685B6A93F839309A4208
:1012C00008D2FB68586AFB6893F820307A681946A0
:1012D000FFF7A2FDFB6903F14002FB6828331946C2
:1012E0001046FFF7F4F9BCE0BB68002B09D1FB699D
:1012F0006FF073025A63786B04F0A4FE6FF073030F
:10130000BCE0FB6993F83930FB76FB6803F1180009
:10131000FB685A7B7B68F969FFF746FA78617B695D
:10132000002B04D0786B04F08DFE7B69A6E0FA6890
:10133000FB699A64FB6893F82130FA7E9A4213D2D3
:10134000FB68FA7E83F82120FB6893F82120FB6874
:101350005B6A93F839309A4206D2FB685B6AF97E81
:1013600002221846FFF758FDBB68002B0CDDFB6915
:101370005C3307F108020021184604F03BFCFB69CE
:101380005C33184604F0D6FA786B04F05BFE03F089
:10139000A9FA04F053FE7863FB695B6B002B60D005
:1013A00000233B63FB685B6A002B0AD0FB685B6A27
:1013B00093F83920FB6993F839309A4201D101231F
:1013C0003B63FB6818331846FFF7CEF90346002B42
:1013D0001CD1FB689B69183B3B613B6993F8392042
:1013E000FB6883F8212015E0106C0202B867020246
:1013F00078660202E46702020C6802025467020285
:101400004468020258680202F01B0022FB68FF22B7
:1014100083F821203B6B002B14D0FB685B6A1846D5
:10142000FFF7C6FC0346FB76FB685B6A93F839302E
:10143000FA7E9A4206D0FB685B6AF97E0222184661
:10144000FFF7EAFC786B04F0FDFDFB6900229A646B
:10145000FB695B6B7B617B69002BB8BF5B425B42C6
:101460000CE0786B04F0EEFD064B1B68002B04D0FB
:10147000044B1B68FA681046984700231846383713
:10148000BD4680BDF41B002280B582B000AF7860FD
:101490003960022239687868FFF760FE0346184613
:1014A0000837BD4680BDFFFF80B58AB000AF7860C9
:1014B0007B68002B05D140F299526F496F4802F0CA
:1014C000DBF97B68184603F07FF80346032B05D051
:1014D00040F29A5268496A4802F0CEF900237B62D2
:1014E00004F0ACFD386203F01FFD0346002B09D168
:1014F0006149644802F0A6F840F29F525E49624892
:1015000002F0BAF904F09AFDF86101F0A3F803467D
:10151000002B09D058495D4802F094F840F29F52E0
:101520005549594802F0A8F9F86904F08BFD386A6A
:1015300004F088FD03F0F8FCB86104F07FFD7861E9
:10154000534B1B68002B04D0514B1B687A68104624
:1015500098477B685B6ABA699A4209D0BB696FF0A9
:10156000FE025A63786904F06DFD6FF0FE037FE0C0
:101570007B6893F82230013BDAB27B6883F8222043
:101580007B6893F82230002B69D17B68283318469A
:10159000FFF7CFF87B6893F82030FF2B07D1BB69AA
:1015A00093F839207B6893F821309A420FD1FF23BA
:1015B000FB72B869FFF7FCFB0346FB7207F10B03F4
:1015C0001A460221B86903F0E5FE01237B627B68BD
:1015D00018331846FFF7C8F80346002B38D17B684C
:1015E0009B69183B3B613B6918331846FFF7A1F82C
:1015F0007B683A695A627B68012283F822203B6942
:1016000003F140027B68283319461046FFF75FF864
:101610003B6900229A64386903F0F0FF7B68183355
:101620001846FFF7A1F80346002B0AD17B689B6997
:10163000183BFB60FB6893F839207B6883F8212016
:1016400003E07B68FF2283F8212001237B6206E010
:101650007B6800225A627B68FF2283F82120786928
:1016600004F0F0FC7B6A012B01D103F03BF900236D
:1016700018462837BD4680BD206C0202446802022D
:10168000586802020C68020278660202546702027D
:10169000F81B002280B584B000AFF860B960134633
:1016A000FB71FB68002B05D140F2516212491348CF
:1016B00002F0E2F8FB79002B08D0FB79012B05D072
:1016C00040F252620C490E4802F0D6F8FB68BA6844
:1016D0000421184602F020FEFB68FA795A73FB6871
:1016E0001846FFF753F8FB6800221A6200231846D9
:1016F0001037BD4680BD00BF346C02021069020283
:10170000A066020280B588B000AF7860396000231F
:101710003B617B68002B05D140F20272514952486F
:1017200002F0AAF87B68184602F04EFF0346042B2D
:1017300005D040F203724B494C4802F09DF83B68DB
:10174000002B02D16FF0FE0388E000237B6104F0E0
:1017500075FCF8607B681A6A3B681A437B681A62FA
:10176000434B1B68002B04D0414B1B687A68104622
:1017700098477B6818331846FEF7F6FF0346002BA0
:1017800063D17B689B69FB6150E0FB69183BBB60E0
:101790006FF0FE03BB61BB6893F8503003F00103A8
:1017A000002B0BD0BB68DA6C7B681B6A1A40BB68E5
:1017B000DB6C9A4220D10023BB611DE0BB6893F82B
:1017C000503003F00203002B10D0BB68DA6C7B684A
:1017D0001B6A1340002B0FD0BB68DA6C7B681B6A56
:1017E0001A40BB68DA640023BB6105E0F86804F0C6
:1017F00029FC6FF0150331E0FB691B68FB61BB69D5
:10180000002B13D1BB6893F8503003F00403002B76
:1018100004D0BB68DB6C3A6913433B61B86803F0E2
:10182000EDFEBB6800225A6301237B617B6818339D
:10183000FA699A42A9D13B69002B06D07B681A6AE3
:101840003B69DB431A407B681A62F86804F0FAFBD4
:101850007B69012B01D103F045F80023184620379E
:10186000BD4680BD446C0202106902022469020276
:10187000F81B002280B584B000AFF860B9607A60D0
:101880003B60FB68002B05D140F67E021B491C48DB
:1018900001F0F2FF3B7E002B08D03B7E012B05D0F0
:1018A00040F67F021549174801F0E6FFFB68BA6869
:1018B0000521184602F030FDFB683A7E5A73FB683A
:1018C0001846FEF763FFFB687A681A623B689AB2B3
:1018D000FB689A84FB680022DA84FB6800221A8580
:1018E000FB6800225A85FB682C331846FEF7DEFEA3
:1018F000002318461037BD4680BD00BF546C02025D
:10190000DC690202A066020280B58CB000AFF8600C
:10191000B9607A603B60FB68002B05D140F6561237
:101920009049914801F0A8FFFB68184602F04CFE70
:101930000346052B05D040F657128A498B4801F023
:101940009BFF7B68002B4ED000F098FE786204F07D
:1019500075FB386203F080F90346002B09D08149FA
:10196000834801F06FFE40F65A127E49814801F02B
:1019700083FF7B6A012B09D17A497F4801F062FE1F
:1019800040F65A1277497B4801F076FF04F056FB87
:10199000F86103F0C9FA0346002B09D17149774871
:1019A00001F050FE40F65A126E49724801F064FF91
:1019B00004F044FBB86100F04DFE0346002B09D053
:1019C00068496F4801F03EFE40F65A126549694881
:1019D00001F052FFB86904F035FBF86904F032FBFE
:1019E000386A04F02FFB0023BB6203F09DFA786194
:1019F000644B1B68002B04D0624B1B68FA681046CE
:101A0000984704F01BFBF862FB68DA8CFB689B8C40
:101A10009A425BD17B68002B58D1F86A04F012FB24
:101A20006FF01B039AE07B696FF003025A637B68D7
:101A3000002B05D1F86A04F005FB6FF01B038DE065
:101A4000FB6803F12C00FB685A7B3B687969FEF761
:101A5000ABFE38613B69002B04D0F86A04F0F2FA5F
:101A60003B697BE07B68002B0EDDFEF703FCB86270
:101A70007B695C333A1D0021184604F0BBF87B6992
:101A80005C33184603F056FFF86A04F0DBFA02F004
:101A900029FF7B695B6B002B02D07B695B6B5DE090
:101AA00004F0CCFAF8627B68002B0FDDFEF7E2FB56
:101AB0000246BB6AD31ABB627B681A46BB6AD31A5A
:101AC0007B607B68002B01DA00237B60FB68DA8C8B
:101AD000FB689B8C9A42A6D0FB681A6AFB681B8D38
:101AE0009B001344BA681A60FB681B8D01339AB2DD
:101AF000FB681A85FB681A8DFB689B8C9A4202D39F
:101B0000FB6800221A85FB68DB8C4FF6FF7293425C
:101B10000ED0FB68DB8C01339AB2FB68DA84FB6879
:101B200018331846FEF720FE0346002B12D105E0BD
:101B3000F86A04F087FA6FF01B030FE0FB681833B4
:101B40001846FEF793FEF86A04F07CFA02F0CAFE2B
:101B5000002303E0F86A04F075FA002318463037D2
:101B6000BD4680BD606C0202DC690202EC690202C3
:101B7000B867020278660202E46702020C68020299
:101B800054670202F81B002280B584B000AFF860F1
:101B9000B9607A6002237A68B968F868FFF7B4FE22
:101BA000034618461037BD4680BD80B582B000AFF1
:101BB00078603960002239687868FFF7E5FF0346EE
:101BC00018460837BD4680BD80B58CB000AFF860C0
:101BD000B9607A603B60FB68002B05D140F67A2241
:101BE0009549964801F048FEFB68184602F0ECFC67
:101BF0000346052B05D040F67B228F49904801F023
:101C00003BFE7B68002B4ED000F038FD786204F07C
:101C100015FA386203F020F80346002B09D08649F4
:101C2000884801F00FFD40F67E228349864801F086
:101C300023FE7B6A012B09D17F49844801F002FD14
:101C400040F67E227C49804801F016FE04F0F6F949
:101C5000F86103F069F90346002B09D176497C4805
:101C600001F0F0FC40F67E227349774801F004FE53
:101C700004F0E4F9B86100F0EDFC0346002B09D054
:101C80006D49744801F0DEFC40F67E226A496E48D8
:101C900001F0F2FDB86904F0D5F9F86904F0D2F961
:101CA000386A04F0CFF90023BB6203F03DF9786194
:101CB000694B1B68002B04D0674B1B68FA68104601
:101CC000984704F0BBF9F862FB68DB8C002B5FD10E
:101CD0007B68002B5CD1F86A04F0B4F96FF07303F1
:101CE000A6E07B696FF003025A637B68002B09D181
:101CF000F86A04F0A7F97B696FF073025A636FF01A
:101D0000730395E0FB6803F11800FB685A7B3B689E
:101D10007969FEF749FD38613B69002B04D0F86A08
:101D200004F090F93B6983E07B68002B0EDDFEF741
:101D3000A1FAB8627B695C333A1D0021184603F0B2
:101D400059FF7B695C33184603F0F4FDF86A04F030
:101D500079F902F0C7FD7B695B6B002B02D07B69D0
:101D60005B6B65E004F06AF9F8627B68002B0FDDBD
:101D7000FEF780FA0246BB6AD31ABB627B681A463A
:101D8000BB6AD31A7B607B68002B01DA00237B607F
:101D9000FB68DB8C002BA4D0FB681A6AFB685B8DA8
:101DA0009B0013441A68BB681A60FB685B8D0133A3
:101DB0009AB2FB685A85FB685A8DFB689B8C9A42E5
:101DC00002D3FB6800225A85FB68DB8C002B05D010
:101DD000FB68DB8C013B9AB2FB68DA84FB682C332E
:101DE0001846FEF7C1FC0346002B14D1FB682C33C8
:101DF0001846FEF73BFDF86A04F024F9174B1B6800
:101E0000002B04D0154B1B68FA681046984702F067
:101E100069FD00230CE0F86A04F014F90F4B1B680D
:101E2000002B04D00D4B1B68FA681046984700231E
:101E300018463037BD4680BD746C0202DC69020270
:101E4000EC690202B867020278660202E4670202E5
:101E50000C68020254670202F01B0022F41B0022ED
:101E600080B584B000AFF860B9607A6002237A6808
:101E7000B968F868FFF7A8FE034618461037BD4654
:101E800080BDFFFF90B587B000AFF860B9607A60A1
:101E90003B60FB68002B05D140F67F323549364860
:101EA00001F0EAFC97F82C30002B09D097F82C3081
:101EB000012B05D04FF438622E49304801F0DCFC8C
:101EC000FB68BA680621184602F026FAFB6897F804
:101ED0002C205A73FB681846FEF758FCFB687A689A
:101EE0001A623B68073323F007043B689AB2FB6829
:101EF0009A8404F10803BA6AB2FBF3F39AB2FB685E
:101F0000DA84FB68DB8C002B02D16FF015032DE027
:101F1000FB680022DA62FB6800221A63FB68002279
:101F20005A6300237B6112E0FB681A6A04F108031C
:101F3000796901FB03F313443B61FB685A6B3B690E
:101F40001A60FB683A695A637B6901337B61FB68FD
:101F5000DB8C1A467B699342E6DBFB6800221A851C
:101F6000FB6838331846FEF7A1FB002318461C37E0
:101F7000BD4690BD806C02029C6A0202A06602020D
:101F800080B58EB000AFF860B9607A603B60FB68E6
:101F9000002B05D140F694429D499E4801F06CFC0F
:101FA000FB68184602F010FB0346062B05D040F6EE
:101FB00095429749984801F05FFCBB68002B05D11A
:101FC00040F696429249954801F056FC7B68002BFA
:101FD00005D140F697428E49914801F04DFC3B6C8B
:101FE000002B4ED000F04AFBF86204F027F8B862EC
:101FF00002F032FE0346002B09D08549894801F0E2
:1020000021FB40F69A428249874801F035FCFB6A81
:10201000012B09D17E49854801F014FB40F69A4214
:102020007B49814801F028FC04F008F8786202F04E
:102030007BFF0346002B09D175497D4801F002FB67
:1020400040F69A427249784801F016FC03F0F6FF18
:10205000386200F0FFFA0346002B09D06C4975483E
:1020600001F0F0FA40F69A4269496F4801F004FC29
:10207000386A03F0E7FF786A03F0E4FFB86A03F018
:10208000E1FFFB689B8C1A467B68934202D96FF094
:10209000FE03E3E000233B6302F046FFF861664B7A
:1020A0001B68002B04D0644B1B68FA6810469847E5
:1020B00003F0C4FF7863FB685B6BBB61BB69002BFB
:1020C0005CD13B6C002B59D1786B03F0BBFF6FF0F8
:1020D0001B03C3E0FB696FF003025A633B6C002BE8
:1020E00005D1786B03F0AEFF6FF01B03B6E0FB6821
:1020F00003F13800FB685A7B7B6CF969FEF754FBEF
:1021000078617B69002B04D0786B03F09BFF7B69BF
:10211000A4E03B6C002B0FDDFEF7ACF83863FB69E5
:102120005C3307F140020021184603F063FDFB69B0
:102130005C33184603F0FEFB786B03F083FF02F07C
:10214000D1FBFB695B6B002B02D0FB695B6B85E00D
:1021500003F074FF78633B6C002B0FDDFEF78AF809
:1021600002463B6BD31A3B633B6C1A463B6BD31A5C
:102170003B643B6C002B01DA00233B64FB685B6B28
:10218000BB61BB69002BA5D0BB691A68FB685A63A9
:10219000786B03F057FFBB6900221A607A68BB694D
:1021A0005A60BB6908337A68B968184600F05AFB70
:1021B00003F044FF7863FB681B6B002B03D0FB68C4
:1021C0001B6BBA691A60FB68BA691A63FB68DB6A41
:1021D000002B02D1FB68BA69DA62FB681B8D4FF6EF
:1021E000FF7293420ED0FB681B8D01339AB2FB68DD
:1021F0001A85FB6818331846FEF7B6FA0346002B1B
:1022000028D11BE0786B03F01DFF6FF01B0325E066
:102210008C6C02029C6A0202AC6A0202606B0202CF
:10222000746B0202B867020278660202E467020277
:102230000C68020254670202F81B0022FB68183384
:102240001846FEF713FB786B03F0FCFE02F04AFB26
:10225000002303E0786B03F0F5FE002318463837BF
:10226000BD4680BD80B586B002AFF860B9607A60C7
:102270003B60022301933B68009300237A68B968AE
:10228000F868FFF77DFE034618461037BD4680BD4F
:1022900080B584B000AFF860B9607A6000237A68D6
:1022A000B968F868FFF7DEFF034618461037BD46E9
:1022B00080BDFFFF80B58EB000AFF860B9607A6076
:1022C0003B60FB68002B05D140F62362A049A14882
:1022D00001F0D2FAFB68184602F076F90346062BA5
:1022E00005D040F624629A499B4801F0C5FABB68C4
:1022F000002B05D140F625629549984801F0BCFABB
:102300007B68002B05D140F626629149944801F084
:10231000B3FA3B6C002B4ED000F0B0F9B86203F07A
:102320008DFE786202F098FC0346002B09D08849A4
:102330008C4801F087F940F6296285498A4801F006
:102340009BFABB6A012B09D18149884801F07AF9CF
:1023500040F629627E49844801F08EFA03F06EFE51
:10236000386202F0E1FD0346002B09D1784980482C
:1023700001F068F940F6296275497B4801F07CFA62
:1023800003F05CFEF86100F065F90346002B09D00C
:102390006F49784801F056F940F629626C49724855
:1023A00001F06AFAF86903F04DFE386A03F04AFE5C
:1023B000786A03F047FE00233B6302F0B5FDB86185
:1023C0006D4B1B68002B04D06B4B1B68FA681046E2
:1023D000984703F033FE7863FB681B8D002B60D1B8
:1023E0003B6C002B5DD1786B03F02CFE6FF0730318
:1023F000D3E0BB696FF003025A633B6C002B09D139
:10240000786B03F01FFEBB696FF073025A636FF0C5
:102410007303C2E0FB6803F11800FB685A7B7B6C16
:10242000B969FEF7C1F938613B69002B04D0786BBC
:1024300003F008FE3B69B0E03B6C002B0FDDFDF7BD
:1024400019FF3863BB695C3307F14002002118466D
:1024500003F0D0FBBB695C33184603F06BFA786B72
:1024600003F0F0FD02F03EFABB695B6B002B02D07B
:10247000BB695B6B91E003F0E1FD78633B6C002B83
:102480000FDDFDF7F7FE02463B6BD31A3B633B6C57
:102490001A463B6BD31A3B643B6C002B01DA0023DA
:1024A0003B64FB681B8D002BA3D0FB68DB6A7B6160
:1024B0007B691A68FB68DA62FB681B6B7A699A426F
:1024C00002D1FB6800221A63FB681B8D002B05D02C
:1024D000FB681B8D013B9AB2FB681A85786B03F091
:1024E000B1FD7B695B68FB62FA6A7B689A4201D93D
:1024F0007B68FB627B690833FA6A1946B86800F0AA
:10250000B1F903F09BFD7863FB685A6B7B691A6035
:10251000FB687A695A63FB6838331846FEF724F97A
:102520000346002B2CD1FB6838331846FEF79EF982
:10253000786B03F087FD114B1B68002B04D00F4B09
:102540001B68FA681046984702F0CCF9FB6A24E051
:10255000A06C02029C6A0202AC6A0202606B020278
:10256000746B0202B867020278660202E467020234
:102570000C68020254670202F01B0022F41B0022C6
:10258000786B03F05FFD074B1B68002B04D0054BF5
:102590001B68FA6810469847FB6A18463837BD46EC
:1025A00080BD00BFF41B002280B586B002AFF8608A
:1025B000B9607A603B60022301933B68009300237B
:1025C0007A68B968F868FFF775FE03461846103751
:1025D000BD4680BD80B582B000AF03F02FFD7860AE
:1025E0000A4B1B78DBB20133DAB2084B1A70084B86
:1025F0001B68002B02D0064B1B689847786803F0D5
:1026000021FD00BF0837BD4680BD00BFB01A0022C3
:10261000A81A002280B582B000AF03F00FFD7860E9
:102620000A4B1B68002B02D0084B1B689847084BCD
:102630001B78DBB2013BDAB2054B1A70786803F005
:1026400001FD00BF0837BD4680BD00BFAC1A0022A7
:10265000B01A002280B582B000AF03F0EFFC7860C2
:10266000054B1B78FB70786803F0ECFCFB78184690
:102670000837BD4680BD00BFB01A002280B400AF4D
:1026800000231846BD465DF8047B704780B485B0D2
:1026900000AF78607B68002B02DA7B685B427B606E
:1026A0000023FB600FE00D4AFB6852F833307A6874
:1026B0009A4205D1094AFB68DB0013445B6806E0D7
:1026C000FB680133FB60FB680E2BECD9044B18460A
:1026D0001437BD465DF8047B704700BF0800002238
:1026E0009C6E020280B582B000AF00237B60FFF7D2
:1026F000B1FF0346002B02D0084B1B680AE002F032
:1027000013FC78607B68002B02D1044B1B6801E04E
:102710007B685B6B18460837BD4680BDB41A002243
:1027200080B584B000AF78600023FB60FFF792FFB4
:102730000346002B03D00A4A7B6813600CE002F0CA
:10274000F3FBF860FB68002B03D1054A7B6813603C
:1027500002E0FB687A685A631037BD4680BD00BF4F
:10276000B41A002280B582B000AF00237B60FFF76F
:1027700071FF0346002B01D0074B09E002F0D4FBA8
:1027800078607B68002B02D07B68343300E0024B1A
:1027900018460837BD4680BDB41A002280B48BB0FD
:1027A00000AFF860B9607A6000237B62FB683B622F
:1027B00000237B610023FB61BB68FB767B68032BF6
:1027C00044D9FB6803F00303002B3FD1FB68FB6196
:1027D00000237B6208E007F114027B6A1344FA7E4F
:1027E0001A707B6A01337B627B6A032BF3D916E094
:1027F000FB691A1DFA617A691A60FB691A1DFA6190
:102800007A691A60FB691A1DFA617A691A60FB69B4
:102810001A1DFA617A691A607B68103B7B607B68DD
:102820000F2BE5D807E0FB691A1DFA617A691A6077
:102830007B68043B7B607B68032BF4D8FB693B62BD
:1028400004E03B6A5A1C3A62FA7E1A707B685A1E90
:102850007A60002BF5D1FB6818462C37BD465DF831
:10286000047B704780B48BB000AFF860B9607A60C9
:10287000FB687B62BB683B620023FB610023BB619A
:102880007B687B617B690F2B4DD93A6A7B6A134366
:1028900003F00303002B46D17B6AFB613B6ABB61FB
:1028A00022E0BA69131DBB61FB69191DF961126849
:1028B0001A60BA69131DBB61FB69191DF9611268C1
:1028C0001A60BA69131DBB61FB69191DF9611268B1
:1028D0001A60BA69131DBB61FB69191DF9611268A1
:1028E0001A607B69103B7B617B690F2BD9D80AE0AA
:1028F000BA69131DBB61FB69191DF96112681A6081
:102900007B69043B7B617B69032BF1D8FB697B62AC
:10291000BB693B6207E03A6A531C3B627B6A591C05
:10292000796212781A707B695A1E7A61002BF2D193
:10293000FB6818462C37BD465DF8047B704780B4B1
:1029400087B000AFF860B9607A60FB687B61BB68F4
:102950003B613A697B699A4226D23A697B681344A3
:102960007A699A4220D27A697B6813447B613A691A
:102970007B6813443B6109E03B69013B3B617B6938
:10298000013B7B613B691A787B691A707B685A1E30
:102990007A60002BF0D10CE03A69531C3B617B69F3
:1029A000591C796112781A707B685A1E7A60002B64
:1029B000F2D1FB6818461C37BD465DF8047B7047B2
:1029C00080B489B000AFF860B9607A600023FB6121
:1029D0000023BB6100237B61FB68FB61BB68BB61BB
:1029E00012E0FB691B781A46BB691B78D31A7B611E
:1029F0007B69002B0CD1FB690133FB61BB6901339F
:102A0000BB617B68013B7B607B68002BE9D100E008
:102A100000BF7B6918462437BD465DF8047B7047CC
:102A200080B487B000AFF860B9607A607B68002B33
:102A300021D0FB687B61BB683B613A69531C3B61F9
:102A40007B69591C796112781A701B78002B0CD1A4
:102A500004E07B695A1C7A6100221A707B68013B92
:102A60007B607B68002BF4D105E07B68013B7B60D9
:102A70007B68002BE1D1FB6818461C37BD465DF82A
:102A8000047B704780B487B000AFF860B9607A60AB
:102A90000023FB7515E0FB681A78BB68591CB96008
:102AA0001B78D31ADBB2FB7597F91730002B0BD1CB
:102AB000FB685A1CFA601B78002B05D07B68013B31
:102AC0007B607B68002BE6D197F9173018461C37DE
:102AD000BD465DF8047B704780B483B000AF78607A
:102AE000396005E07B6801337B603B6801333B6004
:102AF0007B681B78002B05D07B681A783B681B78B5
:102B00009A42EFD07B681B781A463B681B78D31A31
:102B100018460C37BD465DF8047B704780B485B01D
:102B200000AF78600023FB607B68FB6002E0FB681D
:102B30000133FB60FB681B78002BF8D1FA687B68D7
:102B4000D31A18461437BD465DF8047B704780B52C
:102B500084B000AF78607868FFF7E0FF0346013388
:102B6000FB60F86800F010FEB860BB68002B01D174
:102B7000002305E0FA687968B868FFF773FEBB6860
:102B800018461037BD4680BD80B582B002AF0B48F5
:102B900000F058FD0A4800F055FD0A4B01930A4B1E
:102BA0000093022300220521084800F04BFD08484D
:102BB00000F048FD00BFBD4680BD00BFA46E02020C
:102BC000B06E0202F86E0202046F0202D46E0202BC
:102BD000106F020280B485B000AF786039607B6806
:102BE0001B683A68B3FBF2F101FB02F29B1AFB602F
:102BF0007B681A683B68B2FBF3F27B681A60FB687B
:102C000018461437BD465DF8047B704780B485B024
:102C100000AF78600023FB600EE0FA6813469B006B
:102C200013445B0018467B681B68591C7A68116066
:102C30001B780344303BFB607B681B681B78303B90
:102C4000092BEAD9FB6818461437BD465DF8047BAA
:102C50007047FFFF80B592B000AFF860B9607A604E
:102C60003B60002387F83B30002387F84730002380
:102C70003B6107F1140300221A605A609A60DA601F
:102C80001A615A619A61BB6D7B6300233B63002329
:102C90003B640023FB637B6DFB63FB6D03F0400330
:102CA000002B01D0944B00E0944B3B63FB6D03F091
:102CB0001003002B03D0FB6D23F00103FB65FB6DBC
:102CC00003F00103002B01D0302300E0202387F81C
:102CD0003B30002387F84730FB6D03F00203002BE5
:102CE00046D03B6D6C2B15D03B6D6C2B1CDC3B6DCB
:102CF0004C2B0FD03B6D682B16D17B681BB2002B81
:102D00001CDA2D2387F847307B689BB25B429BB26D
:102D10007B6013E07B68002B12DA2D2387F84730A5
:102D20007B685B427B600BE07B68002B0ADA2D231B
:102D300087F847307B685B427B6003E000BF02E0BE
:102D400000BF00E000BF97F847302D2B10D0FB6D7F
:102D500003F00403002B03D02B2387F8473007E050
:102D6000FB6D03F00803002B02D0202387F84730C7
:102D7000FB6D03F02003002B0FD03B68022B02D029
:102D80003B68102B03D1FB6B023BFB6305E03B6808
:102D9000082B02D1FB6B013BFB6300233B647B6888
:102DA000002B1BD13B6C5A1C3A6407F148021344B8
:102DB000302203F8382C14E03B1D39681846FFF721
:102DC00009FF03461A463B6B1A443B6C591C396495
:102DD000127807F148010B4403F8382C7B68002B6C
:102DE000EAD13A6CBB6D9A4201DD3B6CBB65FA6B74
:102DF000BB6DD31AFB63FB6D03F01103002B19D1DC
:102E000097F84730002B10D0FB6B002B0DDDFB6BD0
:102E1000013BFB6309E0FA68BB689A4202D2FB6897
:102E200020221A70FB680133FB60FB6B5A1EFA63A9
:102E3000002BF0DC97F84730002B0DD0FA68BB6808
:102E40009A4203D2FB6897F847201A70FB6B013B4C
:102E5000FB63FB680133FB60FB6D03F02003002B79
:102E600043D03B68022B14D1FA68BB689A4202D265
:102E7000FB6830221A70FB680133FB60FA68BB689C
:102E80009A4202D2FB6862221A70FB680133FB602F
:102E90002BE03B68082B0AD1FA68BB689A4202D241
:102EA000FB6830221A70FB680133FB601DE03B6851
:102EB000102B1AD1FA68BB689A4202D2FB68302202
:102EC0001A70FB680133FB60FA68BB689A4209D24A
:102ED000FB6D03F04003002B01D0582200E0782264
:102EE000FB681A70FB680133FB60FB6D03F0100395
:102EF000002B20D10FE000BFAC6F0202C06F0202B6
:102F0000FA68BB689A4203D2FB6897F83B201A70B4
:102F1000FB680133FB60FB6B5A1EFA63002BEFDC8E
:102F200009E0FA68BB689A4202D2FB6830221A7044
:102F3000FB680133FB60BB6D5A1EBA653A6C9A425E
:102F4000EFDB0DE0FA68BB689A4206D207F1100287
:102F50003B6C13441A78FB681A70FB680133FB6002
:102F60003B6C5A1E3A64002B0DDD7B6B002BE9D1C4
:102F700009E0FA68BB689A4202D2FB6820221A7004
:102F8000FB680133FB60FB6B5A1EFA63002BF0DC1D
:102F9000FB6818464837BD4680BD00BF80B592B07B
:102FA00004AFF860B9607A603B6000237B63002364
:102FB0003B630023FB620023BB6200237B62002390
:102FC000FB7400233B620023FB770023BB770023C5
:102FD0007B770023BB6100237B61FB68BB62FA68DF
:102FE000BB6813447B627A6AFB689A4280F08782EE
:102FF0004FF0FF337B627A6AFB68D31ABB607EE2D4
:103000007B681B78252B0BD0BA6A7B6A9A4203D265
:103010007B681A78BB6A1A70BB6A0133BB626BE2C9
:103020000023BB777B6801337B607B681B782D2B8B
:1030300004D1BB7F43F01003BB77F3E77B681B78B9
:103040002B2B04D1BB7F43F00403BB77EAE77B68FB
:103050001B78202B04D1BB7F43F00803BB77E1E74B
:103060007B681B78232B04D1BB7F43F02003BB7705
:10307000D8E77B681B78302B04D1BB7F43F001037A
:10308000BB77CFE700BF4FF0FF33BB617B681B7896
:10309000303B092B05D83B1D1846FFF7B7FDB8613B
:1030A00015E07B681B782A2B11D17B6801337B608C
:1030B0003B681A1D3A601B68BB61BB69002B06DACE
:1030C000BB695B42BB61BB7F43F01003BB774FF032
:1030D000FF337B617B681B782E2B1ED17B6801330D
:1030E0007B607B681B78303B092B05D83B1D18465D
:1030F000FFF78CFD78610BE07B681B782A2B07D1EA
:103100007B6801337B603B681A1D3A601B687B61FA
:103110007B69002B01DA00237B6100237B777B68CE
:103120001B78682B03D07B681B786C2B05D17B68E0
:103130001B787B777B6801337B600A23FB777B6896
:103140001B78253B532B00F2888101A252F823F013
:10315000213400025B3400025B3400025B34000265
:103160005B3400025B3400025B3400025B3400021B
:103170005B3400025B3400025B3400025B3400020B
:103180005B3400025B3400025B3400025B340002FB
:103190005B3400025B3400025B3400025B340002EB
:1031A0005B3400025B3400025B3400025B340002DB
:1031B0005B3400025B3400025B3400025B340002CB
:1031C0005B3400025B3400025B3400025B340002BB
:1031D0005B3400025B3400025B3400025B340002AB
:1031E0005B3400025B3400025B3400025B3400029B
:1031F0005B3400025B3400025B3400025B3400028B
:103200005B3400025B3400025B3400025B3400027A
:103210005B3400025B3400025B3400024334000282
:103220005B3400025B3400025B3400025B3400025A
:103230005B3400025B3400025B3400025B3400024A
:103240005B34000237340002A13200025134000224
:103250005B3400025B3400025B3400025B3400022A
:10326000513400025B3400025B3400025B34000224
:103270005B3400025B3400023D340002D5330002AF
:103280005B3400025B3400020F3300025B34000247
:10329000973400025B3400025B3400024B340002BE
:1032A000BB7F03F01003002B10D109E0BA6A7B6AE0
:1032B0009A4202D2BB6A20221A70BB6A0133BB62F7
:1032C000BB69013BBB61BB69002BEFDC3B681A1D8E
:1032D0003A601B68FB74BA6A7B6A9A4202D2BB6A84
:1032E000FA7C1A70BB6A0133BB6209E0BA6A7B6A76
:1032F0009A4202D2BB6A20221A70BB6A0133BB62B7
:10330000BB69013BBB61BB69002BEFDCF4E03B68B0
:103310001A1D3A601B683B623B6A002B01D1854B4A
:103320003B620023FB6202E0FB6A0133FB62FA6A44
:10333000BB699A4205D0FB6A3A6A13441B78002B9A
:10334000F2D17B69002B05DDFA6A7B699A4201DDC7
:103350007B69FB62BB7F03F01003002B10D109E0F7
:10336000BA6A7B6A9A4202D2BB6A20221A70BB6A8E
:103370000133BB62BB695A1EBA61FA6A9A42EFDB3B
:1033800000233B6310E0BA6A7B6A9A4203D23B6A2D
:103390001A78BB6A1A70BB6A0133BB623B6A01339D
:1033A0003B623B6B01333B633A6BFB6A9A42EADB5D
:1033B00009E0BA6A7B6A9A4202D2BB6A20221A707A
:1033C000BB6A0133BB62BB695A1EBA61FA6A9A4290
:1033D000EFDB91E0BB69B3F1FF3F0CD10823BB6188
:1033E000BB690233BB61BB7F43F02003BB77BB7F6C
:1033F00043F00103BB773B681A1D3A601B6819460E
:103400007B7FBA7F03927A690292BA690192009334
:1034100010230A46796AB86AFFF71CFCB8626BE0B1
:10342000BA6A7B6A9A4202D2BB6A25221A70BB6AC8
:103430000133BB6260E00223FB772DE00823FB77BA
:103440002AE0BB7F43F04003BB771023FB7723E0E8
:10345000BB7F43F00203BB771DE0BA6A7B6A9A42E6
:1034600002D2BB6A25221A70BB6A0133BB627B6839
:103470001B78002B0BD0BA6A7B6A9A4203D27B6816
:103480001A78BB6A1A70BB6A0133BB6234E07B688E
:10349000013B7B6030E000BF7B7F6C2B05D13B683C
:1034A0001A1D3A601B687B6316E07B7F682B0ED188
:1034B0003B681A1D3A601B689BB27B63BB7F03F0BD
:1034C0000203002B08D07B6B1BB27B6304E03B68DC
:1034D0001A1D3A601B687B63F97F7B7FBA7F03927A
:1034E0007A690292BA69019200930B467A6B796A03
:1034F000B86AFFF7AFFBB8627B6801337B607B681B
:103500001B78002B7FF47CADBB68002B0BD0BA6A14
:103510007B6A9A4203D2BB6A00221A7003E07B6A7C
:10352000013B00221A70BA6AFB68D31A1846383772
:10353000BD4680BD3C6F02020CB480B584B000AFC4
:10354000786039600023FB6007F11C03BB60BB6837
:10355000BA6939687868FFF721FDF860FB6818469A
:103560001037BD46BDE8804002B0704780B584B0DA
:1035700000AFF860B9607A607B68BA684FF0FF31DD
:10358000F868FFF70BFD034618461037BD4680BDAF
:103590000EB480B585B000AF78600023FB6007F102
:1035A0002003BB60BA68F9697868FFF7DFFFF8604D
:1035B000FB6818461437BD46BDE8804003B070472D
:1035C00080B400AF034B1B681846BD465DF8047B12
:1035D000704700BFB81A002280B584B000AF786091
:1035E000124B1B68FB6078680DF0D0FFB860BA68BA
:1035F000FB689A4201D1002313E0BB68002B0FD077
:103600000A4B1B68002B04D0084B1B6818460EF0B1
:1036100073F84321B8680DF0C7FF044ABB68136014
:10362000FB6818461037BD4680BD00BFB81A00229F
:1036300080B483B000AF786000BF0C37BD465DF842
:10364000047B70470FB480B582B000AF00237B606D
:1036500007F114033B603B683A697F211048FFF78C
:103660009DFC03467B607B687F2B01D97F237B60B9
:103670000C4B1B68002B03D10948FFF7D9FF06E06C
:10368000084B18687B68064A00210EF0C7F87B6873
:1036900018460837BD46BDE8804004B0704700BFFB
:1036A000681B0022B81A002280B500AF012203492E
:1036B0000348FDF71BFC00BF80BD00BF446F020242
:1036C000C41A002280B500AF01F02EFC0346002B87
:1036D00006D04FF0FF310448FDF7D6FE034600E068
:1036E0000023184680BD00BFC41A002280B582B0F6
:1036F00000AF78607B68002B05D040F24962084932
:10370000084800F0B9F801F00FFC0346002B02D086
:103710000548FDF7C9FE00BF0837BD4680BD00BFA4
:10372000E86F02024C6F0202C41A002280B584B016
:1037300000AF786039607B68073323F00703FB60D4
:103740003B6823F00703BB60BA68FB689A4205D860
:1037500040F2AA620849094800F08EF8BA68FB688E
:10376000D31A7A680649074800F0CAF8FFF79CFFA9
:1037700000BF1037BD4680BDD46F02025C6F0202ED
:10378000446F0202F41A002280B584B000AF786062
:10379000FFF798FFF86079680A4800F0C5FCB86048
:1037A000F868FFF7A3FF084B1B68002B04D0064BFB
:1037B0001B687968B8689847BB6818461037BD46DB
:1037C00080BD00BFF41A0022BC1A002280B584B06C
:1037D00000AF78603960FFF775FFF8603A68796884
:1037E000054800F0F0FCB860F868FFF77FFFBB68A1
:1037F00018461037BD4680BDF41A002280B584B04B
:1038000000AF786039607B683A6802FB03F31846C2
:10381000FFF7BAFFF860FB68002B08D07B683A68B6
:1038200002FB03F31A460021F868FEF7B7FFFB68B6
:1038300018461037BD4680BD80B584B000AF7860B3
:103840000C4B1B68002B03D00A4B1B687868984709
:103850007B68002B09D0FFF735FFF860786800F02F
:10386000A7FCF868FFF742FF00E000BF1037BD4635
:1038700080BD00BFC01A002280B586B000AFF860DE
:10388000B9607A600023FB750C4B1B68002B0BD1D1
:103890007B68BA68F9680A48FFF7D4FE00BFFB7D71
:1038A000DBB2002BFBD005E0044B1B687A68B968DB
:1038B000F868984700BF1837BD4680BD641B0022DA
:1038C000746F020280B483B000AF78607B681B69BC
:1038D0007A6852695A617B685B697A6812691A6111
:1038E0007B689B687A68D268DA607B68DB687A6894
:1038F00092689A6000BF0C37BD465DF8047B704744
:1039000080B586B000AFF860B9607A603B60FB6854
:10391000002B04D1562248494848FFF7ADFFFB6809
:10392000BA680721184600F0F7FCFB687A689A61CC
:103930003B6823F00702FB68DA61FB68DB69A3F1EF
:103940003002FB681A62FB68DA69FB681B6AD21AEC
:10395000FB685A62FB6830337B617B69384A1A60C6
:103960007B69FA685A607B6900229A607B69002251
:10397000DA607B697A691A617B697A695A61FB68E6
:103980007A69DA627B687B617B692D4A1A607B69A0
:10399000FA685A607B6900229A607B690022DA60CB
:1039A0007B697A691A617B697A695A61FB681B6A6B
:1039B00018337A691A447B699A607B699A687B69D3
:1039C000DA60FB687A699A62FB68DB6A1A697B696C
:1039D0001A61FB68DA6A7B695A61FB68DB6A1B69FA
:1039E0007A695A61FB68DB6A7A691A617B699B684C
:1039F0007B617B69134A1A607B69FA685A607B694C
:103A00007A689A607B697A68DA607B6900225A6119
:103A10007B695A697B691A61FB6803F148000123DD
:103A20000122B968FCF756FFFB680022DA66002322
:103A300018461837BD4680BD4C710202F86F02026D
:103A4000A01EA01EA11EA01E80B586B000AF78608B
:103A500039607B68002B04D1C12279497948FFF78E
:103A60000BFF7B68184600F0AFFD0346072B04D020
:103A7000C22273497448FFF7FFFE3B68073323F007
:103A800007033B603B680F2B01D810233B607B682A
:103A90001B6A3A689A4280F0CE8000237B617B6883
:103AA000DB6E002B0FD17B6848334FF0FF31184697
:103AB000FDF7ECF8F860FB68002B04D0F868FEF71F
:103AC0002FFE0023B8E07B68DB6A1B693B610DE0D9
:103AD0003B699B681A463B69D31A183B7B617A693C
:103AE0003B689A4202D23B691B693B617B68DB6A97
:103AF0003A699A4203D07A693B689A42E8D37A6974
:103B00003B689A42C0F08E803B6828337A699A42BB
:103B100053D33B6818333A691344BB60BB684B4AC4
:103B20001A60BB687A685A60BB683A69DA603B69B8
:103B30009A68BB689A603B699B68BA68DA603B69BF
:103B4000BA689A603B691B693A6952695A613B6974
:103B50005B693A6912691A613B6900221A613B6923
:103B600000225A617B68DB6A1A69BB681A617B684C
:103B7000DA6ABB685A617B68DB6A1B69BA685A619A
:103B80007B68DB6ABA681A617B681A6A3B68D31A79
:103B9000A3F118027B681A627B68DA697B681B6A8A
:103BA000D21A7B685B6A9A422DD97B68DA697B6896
:103BB0001B6AD21A7B685A6225E07B681A6A7B69A5
:103BC000D21A7B681A627B68DA697B681B6AD21A30
:103BD0007B685B6A9A4206D97B68DA697B681B6AF4
:103BE000D21A7B685A623B691B693A6952695A6109
:103BF0003B695B693A6912691A613B6900221A6183
:103C00003B6900225A613B69114A1A607B68DB6E8E
:103C1000002B04D17B6848331846FDF747F83B6911
:103C2000183309E07B68DB6E002B04D17B684833D6
:103C30001846FDF73BF8002318461837BD4680BDEF
:103C40005C7102028070020214700202A01EA01EAB
:103C5000A11EA01E80B58CB000AFF860B9607A607C
:103C6000FB68002B05D140F2711282498248FFF7B0
:103C700003FEFB68184600F0A7FC0346072B05D09F
:103C80004FF4B9727B497D48FFF7F6FD7B68002B46
:103C900004D1B86800F068F900235FE17B6807335E
:103CA00023F007037B607B680F2B01D810237B6018
:103CB000BB68002B05D17968F868FFF7C5FE03469D
:103CC0004CE1BB68183BFB62FB6A9B681A46FB6AC7
:103CD000D31A183BBB627A68BB6A9A4240F2AE8044
:103CE000FB68DB6E002B0FD1FB6848334FF0FF31D0
:103CF0001846FCF7CBFF78627B6A002B04D0786A09
:103D0000FEF70EFD002329E1FB6A9B68BB61BA69DF
:103D1000FB6A9A4205D84FF4CE7256495848FFF7CD
:103D2000ABFDBB691B6803F00103002B66D1BB69C7
:103D30009B681A46BB69D31A183B7B61BB69002B91
:103D400005D14FF4D2724B494E48FFF795FD7A6981
:103D5000BB6A1A447B6810339A424FD9FB681A6ACF
:103D6000B96A7B68CB1A1A44FB681A62FB68DA6985
:103D7000FB681B6AD21AFB685B6A9A4206D9FB6829
:103D8000DA69FB681B6AD21AFB685A62B869FFF7E6
:103D900099FDBA687B681344BB61BB693A4A1A60F3
:103DA000BB69FA685A60BB69FA6ADA60FB6A9A68AA
:103DB000BB699A60FB6A9B68BA69DA60FB6ABA6998
:103DC0009A60FB68DB6A1A69BB691A61FB68DA6A88
:103DD000BB695A61FB68DB6A1B69BA695A61FB6897
:103DE000DB6ABA691A61FB68DB6E002B04D1FB68E1
:103DF00048331846FCF75AFFBB68AFE0FB68DB6E40
:103E0000002B04D1FB6848331846FCF74FFF796854
:103E1000F868FFF719FE38613B69002B0CD07A680F
:103E2000BB6A934228BF13461A46B9683869FEF741
:103E300019FDB86800F098F83B698FE07B6828337B
:103E4000BA6A9A4201D8BB6888E0FB68DB6E002B37
:103E50001CD1FB6848334FF0FF311846FCF716FFC2
:103E600078627B6A002B11D0786AFEF759FC002338
:103E700074E000BF707102020C7002021470020242
:103E800090700202A8700202A01EA01E7B68183368
:103E9000FA6A13443B623B6A324A1A603B6AFA6828
:103EA0005A603B6AFA6ADA60FB6A9A683B6A9A600F
:103EB000FB6A9B683A6ADA60FB6A3A6A9A603B6A14
:103EC0009B681B6803F00103002B1FD13B6A9B68B2
:103ED000FB61FB681A6AFB69F96989685B1A13441C
:103EE00003F11802FB681A62FB699B683A6ADA60A0
:103EF000FB699A683B6A9A60FB691B69FA695269B7
:103F00005A61FB695B69FA6912691A61FB68DB6ACD
:103F10001A693B6A1A61FB68DA6A3B6A5A61FB6894
:103F2000DB6A1B693A6A5A61FB68DB6A3A6A1A61A2
:103F3000FB681A6A3B6A9B6819463B6ACB1A1344B2
:103F4000A3F11802FB681A62FB68DB6E002B04D138
:103F5000FB6848331846FCF7A9FEBB6818463037A3
:103F6000BD4680BDA01EA01E80B588B000AF7860A1
:103F70007B68002B00F0C5800123BB6100237B61BF
:103F80007B68183BFB61FB691B68604A934207D161
:103F9000FB699B681B6823F001035D4A934218D0BC
:103FA000FB691B68594A934205D040F26B2259497C
:103FB0005948FFF761FCFB699B681B6823F001030C
:103FC000534A934205D040F26D2252495348FFF7BD
:103FD00053FCFB695B683B613B69002B05D140F2F8
:103FE00073224C494E48FFF747FC3B69184600F0E6
:103FF000EBFA0346072B05D04FF41D72454949489B
:10400000FFF73AFC3B69DB6E002B0ED13B6948336E
:104010004FF0FF311846FCF739FEF860FB68002BC3
:1040200003D0F868FEF77CFB6CE0FB69384A1A6045
:104030003B691A6AFB699B681946FB69CB1A1344F2
:10404000A3F118023B691A62FB69DB681B6803F085
:104050000103002B14D13B691B6A03F118023B6971
:104060001A62FB69DB68FA6992689A60FB699B686F
:10407000FA69D268DA60FB69DB68FB610023BB6127
:10408000FB699B681B6803F00103002B1AD13B6995
:104090001B6A03F118023B691A62FB699B687B612A
:1040A0007B699B68FA69DA607B699A68FB699A6048
:1040B0007B691B697A6952695A617B695B697A69B4
:1040C00012691A61BB69002B11D03B69DB6A1B695D
:1040D000BB60FB69BA681A61BB685A69FB695A61BF
:1040E000BB685B69FA691A61BB68FA695A613B6926
:1040F000DB6E002B06D13B6948331846FCF7D6FD32
:1041000000E000BF2037BD4680BD00BFA11EA01E3D
:10411000A01EA01E84710202B8700202F470020296
:104120000C7002021470020280B588B000AF786093
:10413000396039687868FFF787FCF861FB69002B04
:104140002DD1072000F0C4F878617B69002B05D1E0
:1041500040F2153214491548FFF78EFB7B695B6806
:10416000BB6115E0BB69103B3B613B69FB607A6852
:10417000FB689A4208D03968F868FFF765FCF86177
:10418000FB69002B0AD100E000BFBB691B68BB6163
:104190007B690433BA699A42E4D100E000BFFB694D
:1041A00018462037BD4680BD947102023471020268
:1041B00080B582B000AF78607868FFF7D5FE00BFA9
:1041C0000837BD4680BD80B588B000AFF860B960E3
:1041D0007A60BB68002B05D17968F868FFF7A4FF07
:1041E00003463DE07B68002B04D1B868FFF7E0FF91
:1041F000002335E0BB68183BBB61BB695B687A682C
:10420000B9681846FFF726FDF861FB69002B26D137
:104210007B68002B23D07968F868FFF785FFF86189
:10422000FB69002B1BD0BB68002B18D0BB699B68B7
:104230001A46BB69D31A183B7B617A687B699A423C
:1042400005D97A69B968F869FEF70CFB04E07A6869
:10425000B968F869FEF706FBB868FFF7A9FFFB69C4
:1042600018462037BD4680BD80B483B000AF78606B
:1042700039607B681B683A685A607B681A683B68DB
:104280001A607B683A681A603B687A685A6000BFB7
:104290000C37BD465DF8047B704780B483B000AF37
:1042A00078607B681B687A6852685A607B685B68D4
:1042B0007A6812681A607B687A685A607B685A6804
:1042C0007B681A6000BF0C37BD465DF8047B704701
:1042D00080B485B000AF0346FB710023FB600FE0A4
:1042E0000C4AFB681B0113441B78FA799A4204D1EB
:1042F000FB681B01074A134406E0FB680133FB60BF
:10430000FB680B2BECDD002318461437BD465DF827
:10431000047B70478000002280B588B000AFF86051
:104320000B467A60FB720023FB61FB7A1846FFF7AD
:10433000CFFFB861BB69002B05D14FF4B772234999
:104340002348FFF799FA00F043FCBB695B68FB6107
:104350000FE0FB69103B3B613A69FB689A4205D16B
:1043600040F27D1219491B48FFF786FAFB691B686A
:10437000FB61BB690433FA699A42EAD100F040FC60
:10438000FB7A63F07F03DAB2FB681A73FB680C22D6
:1043900079681846FEF744FB0F4B1B68002B03D0CF
:1043A0000D4B1B68F868984701F048FE7861BB69BF
:1043B0001A1DFB68103319461046FFF755FF786940
:1043C00001F040FE00BF2037BD4680BD38720202BA
:1043D000A4710202BC710202E81B002280B584B005
:1043E00000AF78607B68002B05D140F2AD120F4919
:1043F0000F48FFF741FA0F4B1B68002B03D00D4B02
:104400001B68786898477B6800221A7301F016FED3
:10441000F8607B6810331846FFF73FFFF86801F03B
:1044200011FE00BF1037BD4680BD00BF48720202BA
:10443000CC710202EC1B002280B586B000AF0346AF
:104440003960FB7101F0FAFD7861FEF703F903466C
:10445000002B09D029492A48FFF7F4F840F2D1127D
:1044600026492848FFF708FA786901F0EBFDFB7947
:104470001846FFF72DFF38613B69002B05D140F24C
:10448000D5121E492048FFF7F7F93B69DB6818464B
:10449000FFF77AF9F860FB68002B01D1002329E0CF
:1044A0003B69DB681A460021F868FEF777F9FB687C
:1044B000FA791A73FB6800225A73FB680C22396878
:1044C0001846FEF7ADFA114B1B68002B03D00F4BBB
:1044D0001B68F868984701F0B1FDB8603B691A1D88
:1044E000FB68103319461046FFF7BEFEB86801F0AE
:1044F000A9FDFB6818461837BD4680BD5C720202F4
:10450000E071020208720202A4710202E81B00229A
:1045100080B584B000AF78607B68002B05D140F295
:10452000122216491648FFF7A7F97B681B7B5BB27E
:10453000002B05DA40F2132210491248FFF79CF9CC
:10454000114B1B68002B03D00F4B1B6878689847F2
:104550007B6800221A7301F071FDF8607B681033EC
:104560001846FFF79AFEF86801F06CFD7868FFF7CF
:1045700063F900BF1037BD4680BD00BF70720202F4
:10458000CC7102020C720202EC1B002280B582B0D8
:1045900000AF78607B68002B05D140F235220849D6
:1045A0000848FFF769F97B681B7B5BB2002B01DAD7
:1045B000012300E0002318460837BD4680BD00BF38
:1045C00084720202CC71020280B582B000AF7860C2
:1045D0007B68002B05D14FF4127206490648FFF79D
:1045E0004BF97B681B7B03F07F03DBB2184608376F
:1045F000BD4680BDA0720202CC71020280B586B0B9
:1046000000AF78600B46FB7000233B6100237B61A9
:104610000023FB60FB781846FFF75AFEF8607B68C2
:10462000002B02D0FB68002B01D1002335E001F004
:1046300005FDB860FEF70EF80346002B09D01949B6
:104640001948FEF7FFFF40F2662216491748FFF7A8
:1046500013F9B86801F0F6FC00F0BAFAFB685B6881
:104660007B6112E07B69103B3B613B690C227968FE
:104670001846FEF707FA0346002B03D100F0C0FAF4
:104680003B690AE07B691B687B61FB6804337A69DC
:104690009A42E7D100F0B4FA002318461837BD4615
:1046A00080BD00BFB4720202E07102020872020211
:1046B00080B483B000AF78607B687A685A607B68AA
:1046C0005A687B681A6000BF0C37BD465DF8047BF2
:1046D000704780B483B000AF786039607B681B6836
:1046E0003A685A607B681A683B681A607B683A6867
:1046F0001A603B687A685A6000BF0C37BD465DF8A7
:10470000047B704780B483B000AF786039607B6809
:104710005B683A681A607B685A683B685A607B68D5
:104720003A685A603B687A681A6000BF0C37BD4629
:104730005DF8047B704780B483B000AF78607B681D
:104740001B687A6852685A607B685B687A6812688E
:104750001A607B687A685A607B685A687B681A605E
:1047600000BF0C37BD465DF8047B704780B483B052
:1047700000AF78607B681B687A689A420CBF01239F
:104780000023DBB218460C37BD465DF8047B70474A
:1047900080B584B000AF78607B68002B04D16222C2
:1047A0001C491D48FFF768F87B68DB6A1B78232BE0
:1047B00011D17B681B6A1A467B68DB6A9A420AD968
:1047C0007B681B6A1A467B68DB6A19467B681B6B31
:1047D0000B449A420BD97B6819461048FEF732FF0A
:1047E00001F02CFCF860FB68002BFCD10DE07B682D
:1047F0001B6A1A467B68DB6A20339A4205D87B68BD
:1048000019460748FEF71EFFFFE700BF1037BD46F9
:1048100080BD00BF2C730202C4720202D872020271
:10482000F472020280B584B000AF78600A4B1B6856
:10483000184601F020FF0346013BFB60074AFB6876
:1048400052F83330183BBB607B68FA681A60BB686B
:1048500018461037BD4680BDFC1C0022FC1B002200
:1048600080B582B000AF0D4B00221A8000237B6020
:1048700009E07B68DB000A4A13441846FFF718FF7B
:104880007B6801337B607B681F2BF2DD054B0022C8
:104890001A6000BF0837BD4680BD00BF001D002262
:1048A000FC1B0022FC1C002280B582B000AF3B46FE
:1048B0001846FFF7B7FF7860094A7B68136078688D
:1048C00000F04EF97B68032283F838207B682033A0
:1048D000184601F005FC00BF0837BD4680BD00BF8B
:1048E000041D002280B586B000AF01F0A7FBF86080
:1048F0005F4BB3F90030002B40F0B2805D4B1B687A
:10490000002B00F0AD8000233B613B1D1846FFF7F4
:1049100089FF7861584B1B6893F8383003F0070320
:10492000032B21D1544B1B6893F839301A467B680E
:104930009A4203D2504B1B687B6115E04E4B1B68BB
:1049400093F839301A467B689A420BD14A4B1B6860
:1049500093F8383003F00803002B03D1464B1B6853
:104960007B6101E001233B61434B1B687A699A42FA
:1049700061D07B68DAB2414B1A703F4B1B68BB6059
:104980003D4A7B6913603E4B1B68002B04D03C4BB7
:104990001B687969B86898473B69002B02D0B868F2
:1049A00000F074F8BB6893F8383003F00803002B6C
:1049B00008D0BB6893F8383023F00803DAB2BB683C
:1049C00083F83820786900F0CBF87B6993F83830A9
:1049D0005BB223F007035BB243F003035BB2DAB2CE
:1049E0007B6983F838207869FFF7D2FE254B1B7866
:1049F000DBB2002B14D1244B1B68002B03D0224BBD
:104A00001B68B8689847BB6820331A467B69203317
:104A10001946104601F019FBF86801F013FB23E07A
:104A2000BB68203318467B69203319467B69BA6816
:104A300001F00BFB14E0104B1B68184600F090F8D7
:104A40000D4B1B6893F838305BB223F007035BB261
:104A500043F003035AB2084B1B68D2B283F83820E4
:104A6000F86801F0EFFA00BF1837BD4680BD00BFFF
:104A7000001D0022FC1C0022041D0022081D002233
:104A80000C1D0022B01A0022101D002280B584B037
:104A900000AF78607B68002B05D14FF4B7722B49CB
:104AA0002B48FEF7E9FE01F0C9FAF860294B1B68B4
:104AB0007A689A420ED17B6893F838305BB223F063
:104AC00007035BB243F003035BB2DAB27B6883F89F
:104AD000382034E07B6893F838305BB223F007036A
:104AE0005BB243F002035BB2DAB27B6883F8382032
:104AF0007B6893F8383003F00803002B0CD07B68F8
:104B000093F83930DB00144A1A447B68183319468D
:104B10001046FFF7F7FD0BE07B6893F83930DB00B8
:104B20000D4A1A447B68183319461046FFF7D1FD29
:104B30007B68DA6B094B1B681343084A1360F868FB
:104B400001F080FA00BF1037BD4680BD44730202F9
:104B5000C4720202041D0022FC1B0022FC1C002265
:104B600080B584B000AF78607B68002B05D14FF42E
:104B7000D17213491348FEF77FFE01F05FFAF86027
:104B80007B6818331846FFF7D6FD7B6893F83930F9
:104B9000DB000D4A13441846FFF7E8FD0346002BDF
:104BA00007D07B68DB6BDA43084B1B681340074A6E
:104BB0001360F86801F046FA00BF1037BD4680BDAB
:104BC00060730202C4720202FC1B0022FC1C002261
:104BD00080B582B000AF01F031FA7860074BB3F9CD
:104BE00000309BB201339BB21AB2044B1A80786832
:104BF00001F028FA00BF0837BD4680BD001D002225
:104C000080B582B000AF01F019FA7860104BB3F9AB
:104C100000309BB2013B9BB21AB20D4B1A800C4B79
:104C2000B3F90030002B0CDC094B00221A807868A5
:104C300001F008FA074B1B68002B05D0FFF752FE66
:104C400002E0786801F0FEF900BF0837BD4680BD7C
:104C5000001D0022041D002280B400AF044BB3F9F4
:104C600000309BB21846BD465DF8047B704700BF1C
:104C7000001D002280B483B000AF78607B687A6842
:104C80005A607B685A687B681A6000BF0C37BD4663
:104C90005DF8047B704780B483B000AF78607B68B8
:104CA0001B687A6852685A607B685B687A68126829
:104CB0001A607B687A685A607B685A687B681A60F9
:104CC00000BF0C37BD465DF8047B704780B582B0ED
:104CD00000AF00F029F9786001F0B0F93860786829
:104CE000FFF73EFF7B685C33184600F0DBFD7B6816
:104CF000012283F838207868FBF71CFC386801F043
:104D0000A1F9FFF7EFFD00BF0837BD4680BDFFFFEB
:104D100080B584B000AF78607B68FB60FB68002BD7
:104D200004D18B2219491A48FEF7A6FDFB6893F8B7
:104D3000383003F00403002B04D18C2213491548AA
:104D4000FEF79AFDF868FFF73FFC0346012B04D0FD
:104D50008D220E491048FEF78FFD01F06FF9B86003
:104D6000FB686FF073025A63FB6818331846FFF74D
:104D700092FFF868FFF78AFEB86801F063F9FFF761
:104D8000B1FD00BF1037BD4680BD00BFDC7502021B
:104D90007C73020290730202D473020280B586B063
:104DA00002AFF860B9607A603B60FB681833184660
:104DB000FFF760FFFB687A685A62FB683A689A629C
:104DC000FB68BA69DA62FB68FA691A63FB68D86A39
:104DD000FB681B6B1A462321FDF7E0FCFB68586A51
:104DE000FB68996AFB68DA6AFB681B6B043B1A4430
:104DF0002C4B01F0C9F90246FB681A6297F8203083
:104E00001F2B04D9C62228492848FEF735FDFB6828
:104E100097F8202083F83A20FB6897F8202083F841
:104E20003920FB680022DA63FB6840331846FFF73D
:104E300021FFFB6800229A64FB680022DA64FB68A9
:104E4000002283F85020FB687A6A5A65FB687A6A08
:104E50009A65FB6800225A63FB68002283F83820B9
:104E6000FB680022C3F88C20FB680022C3F8902066
:104E7000FB6803F15C00F9680023019300230093B1
:104E8000FB680B4A00F0D0FC0A4B1B68002B03D0D8
:104E9000084B1B68F8689847002318461037BD4632
:104EA00080BD00BFCD4C0002EC75020218740202F6
:104EB000114D00021C1D002280B588B004AFF860BF
:104EC000B9607A603B60FB68002B05D14FF4A57296
:104ED00012491348FEF7D0FCBB69002B05D140F204
:104EE0004B120E490F48FEF7C7FCBA680121F8685B
:104EF000FFF712FA7B6A039397F820300293FB695D
:104F00000193BB6900933B687A68B968F868FFF75A
:104F100045FF034618461037BD4680BDFC750202AA
:104F20007C7302023C74020280B400AF034B1B6826
:104F30001846BD465DF8047B704700BF041D002283
:104F400080B582B000AF78607B68002B05D140F25D
:104F50007D121C491C48FEF78FFC7B6893F83830A3
:104F600003F00703002B05D04FF4BF721549174813
:104F7000FEF782FC7868FFF727FB0346012B05D07C
:104F800040F27F120F491248FEF776FC7B6893F8D7
:104F900039301A46012393401A467B68DA637B68EE
:104FA000042283F83820786800F028FBFFF7BCFF64
:104FB0000346002B01D0FFF795FC00231846083765
:104FC000BD4680BD0C7602027C730202547402025C
:104FD000D473020280B584B000AF78607B68002B88
:104FE00005D14FF4D4722E492E48FEF745FC78685F
:104FF000FFF7EAFA0346012B05D040F2A91228492F
:105000002948FEF739FC7868FFF7C0FA0346002B01
:1050100005D14FF4D57222492448FEF72DFC7B6858
:1050200093F8383003F00703012B01D1002332E05D
:105030007B6893F8383003F00703002B02D07868C0
:10504000FFF78EFD00F0FAFFF8607B685C331846CE
:1050500000F028FC7B68012283F838207B689B6C79
:10506000002B11D07B689B6C1846FFF7ADFA034606
:10507000032B09D17B689B6CBB607968B868FBF730
:105080006FFF7B6800229A647868FBF753FAF86830
:1050900000F0D8FF002318461037BD4680BD00BF82
:1050A000207602027C730202D47302028C74020224
:1050B00080B58AB004AFF860B9607A603B60F96887
:1050C0000120FFF7B9F978617B69002B01D100233A
:1050D0001BE03868FEF758FB38613B69002B04D1B0
:1050E0007869FFF715FA00230FE07B6A039397F8BE
:1050F000203002933B6801933B6900937B68BA6858
:10510000F9687869FFF74AFE7B6918461837BD468B
:1051100080BDFFFF80B584B000AF78607B68002B56
:1051200005D140F219222E492E48FEF7A5FB7868DA
:10513000FFF74AFA0346012B05D040F21A2228490C
:105140002948FEF799FB7868FFF720FA0346002B01
:1051500005D040F21B2222492448FEF78DFB7B68D4
:1051600093F8383003F00703012B01D1002332E01C
:105170007B6893F8383003F00703002B02D078687F
:10518000FFF7EEFC00F05AFFF8607B685C331846CE
:1051900000F088FB7B68012283F838207B689B6CD9
:1051A000002B11D07B689B6C1846FFF70DFA034665
:1051B000032B09D17B689B6CBB607968B868FBF7EF
:1051C000CFFE7B6800229A647868FBF7B3F9F86831
:1051D00000F038FF002318461037BD4680BD00BFE1
:1051E000347602027C730202D4730202BC7402029F
:1051F00080B58AB000AF78607B68002B02D16FF079
:10520000150396E0FFF790FE78627B6A002B05D1CC
:1052100040F2722249494A48FEF72EFB786AFFF7AE
:10522000D3F90346012B05D040F273224349454888
:10523000FEF722FBFDF722FA386200F0FFFEF8616C
:10524000FFF70AFD0346002B09D03C493E48FEF714
:10525000F9F940F2762239493C48FEF70DFB3B6AEA
:10526000012B09D135493A48FEF7ECF940F2762294
:1052700032493648FEF700FB00F0E0FEB861FFF768
:1052800053FE0346002B09D12C493248FEF7DAF9C8
:1052900040F2762229492D48FEF7EEFA00F0CEFEC4
:1052A0007861FDF7D7F90346002B09D023492A4836
:1052B000FEF7C8F940F2762220492448FEF7DCFACE
:1052C000786900F0BFFEB86900F0BCFEF86900F034
:1052D000B9FE00F0B3FE38617B6A00225A630021F8
:1052E000786A00F01DF9F860FB68002B1DD17B6A1D
:1052F0005C333A1D0021184600F07CFC7B6A5C336D
:10530000184600F017FB386900F09CFE7B6A6FF0CE
:1053100003025A63FFF7E6FA7B6A5B6B13F1740FC3
:1053200006D17B6A00225A6302E0386900F08AFEE7
:10533000FB6818462837BD4680BD00BF487602028C
:105340007C730202D4730202F87402022475020212
:1053500028750202507502028875020280B582B07B
:1053600000AF78607868FFF743FF034618460837B8
:10537000BD4680BD80B584B000AF78607868FAF72C
:10538000C3FFF860F868FFF733FF0346184610378D
:10539000BD4680BD80B586B000AFF860B9607A6068
:1053A000FB68002B05D14FF4547237493748FEF79C
:1053B00063FAF868FFF708F90346012B05D040F2BD
:1053C000513231493248FEF757FABB68022B09D0F7
:1053D000BB68022B52DCBB68002B34D0BB68012BAE
:1053E00036D04BE000F02AFE3861FB6893F8383085
:1053F00003F00703022B14D1F868FFF7B1FB7B68B9
:105400001A78FB6883F83920FB6893F839301A461C
:10541000012393401A46FB68DA63F868FFF736FB0E
:105420000DE07B681A78FB6883F83920FB6893F8F5
:1054300039301A46012393401A46FB68DA6338690B
:1054400000F000FE1BE0F868FFF77AFD034617E066
:105450006FF015037B61F868FFF798F80346012B9E
:1054600004D1F868FFF7B6FD786103E0F868FFF74C
:1054700051FE7861FFF736FA7B6901E000BF002337
:1054800018461837BD4680BD587602027C7302026A
:10549000D473020280B584B000AF7860396007230E
:1054A000FB737B68002B05D140F2B33219491A48CF
:1054B000FEF7E2F93B68022B0FD03B68022B0FDCB2
:1054C0003B68002B03D03B68012B03D008E004238A
:1054D000FB730CE00623FB7309E00723FB7306E074
:1054E0004FF470720B490D48FEF7C6F900BF7B6898
:1054F00093F838305BB223F007035AB297F90F30B4
:1055000013435BB2DAB27B6883F8382000BF1037F0
:10551000BD4680BD6C7602027C73020224750202D5
:1055200080B584B000AF786039607B68002B05D10E
:105530004FF477722C492D48FEF79EF97868FFF7F3
:1055400043F80346012B05D040F2DD3226492848B6
:10555000FEF792F9FFF7E8FC02467B68934205D01C
:1055600040F2DE3220492348FEF786F97B6893F843
:10557000383003F00703FB60FB68022B05D0FB68A3
:10558000032B02D06FF0FE0329E000F057FDB86056
:10559000FB68032B0BD1FFF7C7FC02467B689342E5
:1055A00005D040F2EE3210491248FEF765F97868EE
:1055B000FFF7D6FA39687868FFF76CFF7B685C33D1
:1055C000184600F0CBFAB86800F03CFD0A4B1B68A7
:1055D000002B03D0084B1B687868984700231846B7
:1055E0001037BD4680BD00BF887602027C73020280
:1055F000D4730202C0750202141D002280B584B06B
:1056000000AF78607B68002B05D140F21B421D493A
:105610001D48FEF731F97868FEF7D6FF0346012BE7
:1056200005D040F21C4217491848FEF725F97B685F
:1056300093F8383003F00403002B02D16FF0FE031F
:105640001BE000F0FBFCF8607B6818331846FFF79E
:1056500022FB7B685C33184600F080FAF86800F0A3
:10566000F1FC7868FFF712FA094B1B68002B03D096
:10567000074B1B6878689847002318461037BD46CB
:1056800080BD00BFA47602027C730202D4730202C2
:10569000181D002280B483B000AF78607B687A6800
:1056A0005A607B685A687B681A6000BF0C37BD4639
:1056B0005DF8047B704780B483B000AF78603960D8
:1056C0007B681B683A685A607B681A683B681A6096
:1056D0007B683A681A603B687A685A6000BF0C378A
:1056E000BD465DF8047B704780B483B000AF78603E
:1056F0007B681B687A6852685A607B685B687A6866
:1057000012681A607B687A685A607B685A687B689E
:105710001A6000BF0C37BD465DF8047B704780B44B
:1057200083B000AF78607B681B687A689A420CBFD0
:1057300001230023DBB218460C37BD465DF8047B1D
:10574000704780B586B000AFF860B9607A603B60A2
:10575000FB6897F820205A73FB685B7B23F00103FA
:10576000DAB2FB685A73FB68BA681A62FB687A6837
:105770005A62FB680022DA62FB683A689A62002388
:105780007B610AE07B690333DB00FA681344184647
:10579000FFF780FF7B6901337B617B69002BF1DDC3
:1057A00000BF00BF1837BD4680BD80B584B000AFD4
:1057B0007860396000F042FCF8607868FFF7AFFF6E
:1057C0000346002B0CD17B681B68183BBB60BB6891
:1057D000DA6A3B681A60F86800F034FC002304E0E1
:1057E000F86800F02FFC6FF0FE0318461037BD4636
:1057F00080BD80B584B000AF78600023FB600AE014
:10580000FB680333DB007A6813441846FFF76CFF2C
:10581000FB680133FB60FB68002BF1DD00BF00BFBC
:105820001037BD4680BDFFFF80B586B002AFF8607F
:10583000B9607A603B60FB68002B05D14FF48A7237
:1058400014491548FEF718F87B68002B05D140F283
:10585000151210491148FEF70FF8BB696FF00042AE
:10586000934205D34FF48B720A490D48FEF704F8B2
:10587000FB68BA680A211846FEF74EFD3B7F00938D
:10588000BB693A687968F868FFF75BFF00BF1037BB
:10589000BD4680BDC8770202B8760202CC7602020D
:1058A000E076020280B584B000AF78607B68002BA0
:1058B00005D140F22B121B491B48FDF7DDFF7B6829
:1058C0001846FEF781FE03460A2B05D04FF4967268
:1058D00014491648FDF7D0FF7B681846FEF756FEC0
:1058E0000346002B05D140F22D120E491048FDF75A
:1058F000C3FF00F0A3FBF8607868FFF77AFF7B68CE
:105900005B7B23F00103DAB27B685A73F86800F01E
:1059100099FB7B681846FEF761FD00231846103797
:10592000BD4680BDD8770202B8760202F876020240
:105930003477020280B58AB000AF78607B68002BB4
:1059400005D14FF4D3727C497C48FDF795FF7B6805
:105950001846FEF739FE03460A2B05D040F2A7127F
:1059600075497748FDF788FF0023FB6100F066FB6F
:1059700078617868FFF73DFF7B685B7B23F001036C
:10598000DAB27B685A736F4B1B68002B04D06D4BE7
:105990001B687A6810469847FAF76CFC02467B68E9
:1059A0009B6A1A447B68DA627B685B7B03F00403C2
:1059B000002B02D0644B3B6201E0644B3B623B6ACC
:1059C000BB6000237B6255E07B6A9B0007F12802E5
:1059D000134453F8203C1B683B617B6ADB0018339F
:1059E0005B423A691344FB60FB68DA6A7B68DB6AF6
:1059F0009A4209D0FB68DA6A7B68DB6AD31A6FF0D7
:105A0000004293421FD300E000BF7B6A9B0007F176
:105A10002802134453F8203C1A687B6A9B0007F164
:105A200028010B4443F8202C7B6A9B0007F12802D5
:105A3000134453F8202C7B6ADB00396A0B445B6803
:105A40009A42C1D100E000BF7B6A002B0FD07B6A75
:105A50009B0007F12802134453F8202C7B6A013382
:105A600008329B0007F128010B4443F8202C7B6A85
:105A700001337B627B6A002BD6D0354B1B68013328
:105A8000334A1360324B1B68BB61BA687B681833BA
:105A900019461046FFF70FFE02237B621DE0BB692B
:105AA00003F00303002B1CD17B6AC3F101039B00AD
:105AB00007F12802134453F8200C7B6AC3F1010359
:105AC0000333DB007A6813441946FFF7F4FDBB6922
:105AD0009B08BB617B6A01337B627B6A012BDED949
:105AE00000E000BF7B685B7B43F00103DAB27B68B8
:105AF0005A737B685B7B03F00403002B0FD0154BBC
:105B00001B78012B0BD1144B93F8383003F00403AE
:105B1000002B04D01048FFF771FD0123FB61786969
:105B200000F090FAFB69002B01D0FEF7DBFE0023AA
:105B300018462837BD4680BDE8770202B8760202D3
:105B4000F8760202F41B0022281D0022201D0022EC
:105B5000D01F002240010022301D002280B584B0F9
:105B600000AF786000F06AFAF8607B68002B05D11E
:105B700040F221221B491C48FDF77EFE7B68184637
:105B8000FEF722FD03460A2B05D040F222221549DA
:105B90001648FDF771FE7B685B7B03F00103002B69
:105BA00005D1F86800F04EFA6FF0FE0316E0104BD6
:105BB0001B68002B04D00E4B1B687A681046984770
:105BC0007868FFF716FE7B685B7B23F00103DAB28F
:105BD0007B685A73F86800F035FA002318461037CE
:105BE000BD4680BDF8770202B8760202F87602025E
:105BF000F81B002280B586B000AFF860B9607A600B
:105C0000FB68002B05D140F2452241494148FDF790
:105C100033FEFB681846FEF7D7FC03460A2B05D077
:105C200040F246223A493C48FDF726FE00F006FACB
:105C30007861BB68092B62D801A252F823F000BF3B
:105C4000735C0002695C0002955C0002A55C0002C6
:105C5000B55C0002D15C0002DB5C0002E55C000286
:105C6000ED5C0002F75C0002FB689A6A7B681A60D0
:105C700046E07B681B686FF00042934205D34FF407
:105C8000147223492548FDF7F7FD7B681A68FB6805
:105C90009A6235E0FB685B7B23F00203DAB2FB68B3
:105CA0005A732DE0FB685B7B43F00203DAB2FB68BA
:105CB0005A7325E0FB685B7B03F00103002B03D0E4
:105CC0007B6801221A601BE07B6800221A6017E0E3
:105CD000FB68DA6A7B681A6012E0FB681A6A7B6804
:105CE0001A600DE07A68FB681A6209E0FB685A6A7C
:105CF0007B681A6004E0FB687A685A6200E000BFC3
:105D0000786900F09FF9002318461837BD4680BD1A
:105D100008780202B8760202F87602029877020248
:105D200080B586B000AF3B1D1846FFF7B3FCFAF70D
:105D3000A1FA786100F082F938615FE0374B1B68A7
:105D4000183BFB60FB68DB6A7A69D31A6FF000428C
:105D500093425AD2324B1B68002B03D0304B1B6846
:105D6000F8689847F868FFF744FDFB685B7B03F031
:105D70000203002B06D1FB685B7B23F00103DAB240
:105D8000FB685A73FB6803F118023B1D1146184665
:105D9000FFF791FCFB681B6AFA68526A1046984745
:105DA000FAF768FA78611F4B1B68002B03D01D4B74
:105DB0001B68F86898473B1D1846FFF7B0FC034680
:105DC000002B00D01AE0FB6818331846FFF78CFC54
:105DD000FB685B7B03F00203002B0FD0FB685B7B4F
:105DE00003F00103002B09D0FB685B7B23F0010368
:105DF000DAB2FB685A73F868FFF79CFD0748FFF7B3
:105E00008EFC0346002B99D000E000BF386900F0FB
:105E100019F900BF1837BD4680BD00BF201D002204
:105E2000C81F0022CC1F002280B586B000AF3B1DEA
:105E30001846FFF72FFC00F001F978616BE03D4B4D
:105E40001B68183B3B61FAF715FAF8603B69DB6A9F
:105E5000FA68D31A6FF00042934263D2364B1B6844
:105E6000002B03D0344B1B68386998473869FFF71B
:105E7000C0FC3B695B7B03F00203002B06D13B694E
:105E80005B7B23F00103DAB23B695A733B6903F190
:105E900018023B1D11461846FFF70DFC274B002248
:105EA0001A70786900F0CEF83B691B6A3A69526A49
:105EB00010469847224B1B68002B03D0204B1B68D1
:105EC0003869984700F0BAF878611C4B01221A70C3
:105ED0003B1D1846FFF723FC0346002B00D01AE0B9
:105EE0003B6918331846FFF7FFFB3B695B7B03F008
:105EF0000203002B0FD03B695B7B03F00103002BF7
:105F000009D03B695B7B23F00103DAB23B695A732A
:105F10003869FFF70FFD0748FFF701FC0346002B28
:105F20008DD000E000BF786900F08CF800BF183712
:105F3000BD4680BD281D0022C81F0022400100224E
:105F4000CC1F002280B584B000AF786007F1080351
:105F500019461248FFF729FC0346002B09D0FEF72B
:105F6000E3FF034602211846FFF7DAFAFEF7BAFC10
:105F700011E0FAF77FF9F860BA68FB68D31A6FF09E
:105F80000042934207D2BA68FB68D31ABB60BB6871
:105F90001846FFF7E3F9FFF747FFD7E7281D002270
:105FA00080B582B000AF00237B6009E07B68DB0036
:105FB000074A13441846FFF76DFB7B6801337B608B
:105FC0007B68002BF2D000BF00BF0837BD4680BD04
:105FD000201D002280B586B004AF00237B6009E05D
:105FE0007B68DB00104A13441846FFF753FB7B68BD
:105FF00001337B607B68002BF2D00A2303930423D8
:1060000002934FF400730193084B00930023084A56
:1060100008490948FEF750FF0748FEF791FF00BF07
:106020000837BD4680BD00BF281D0022C81D0022C4
:10603000455F0002C0770202301D0022EFF310809E
:1060400072B6704780F310887047484A1368012B76
:1060500004D04FF001031360454A1060454A1160B7
:1060600045484FF0805101607047EFF3108272B6DF
:106070003E48016879B34FF0000101603C48016877
:1060800091B1EFF309811EF0100F08BF21ED108BC5
:1060900021E9F00F4FF000041EF0100F08BF01249B
:1060A00041F8044D0068016000B500F0D5FA5DF8D4
:1060B00004EB30490968096808C9B1E8F00F002B02
:1060C00018BFB1EC108B81F309884EF0100E002B35
:1060D00018BF2EF0100E82F310884EF0040E704799
:1060E00024490860EFF3148222F0040282F314883A
:1060F0001F494FF0000008601C494FF00100086084
:106100001E481F49D0F8002041EA020101601A48E8
:106110004FF0805101601B480068006800BF80F3A9
:10612000088861B662B6BFF34F8FBFF36F8F7047B9
:1061300000BFEFF308801EF0040F01D0EFF30980D9
:1061400020E9F00F40F804ED40F804ED1EF0040FD4
:1061500002D080F3098801E080F3088800B500F0E0
:10616000B9F95DF804EB4EF0040E7047DC1F002215
:10617000D41F0022D81F002204ED00E020ED00E033
:106180000000FFFF08ED00E080B489B000AFF860C8
:10619000B9607A603B607B680433BB61BB6923F004
:1061A0000703BB61BB69443BBB61BB697B610023E7
:1061B000FB6108E0FB699B007A691344154A1A6089
:1061C000FB690133FB61FB69102BF3D9BA687B696A
:1061D0005A627B6900229A627B690022DA627B69DB
:1061E00000221A637B6900225A633A687B699A63CA
:1061F000FA687B69DA637B694FF080721A647B69A5
:1062000000221A60BB6918462437BD465DF8047B3E
:10621000704700BFEFBEADDE80B500AF2548FDF78B
:1062200011FA254B1B889BB219462448FDF70AFA40
:10623000214B1B889BB203F00103002B02D02048A6
:10624000FDF700FA1C4B1B889BB203F00203002BE6
:1062500002D01C48FDF7F6F9174B1B889BB203F0E0
:106260000403002B02D01848FDF7ECF9124B1B88F1
:106270009BB203F00803002B02D01448FDF7E2F9AB
:106280000D4B1B889BB203F48073002B02D0104887
:10629000FDF7D8F9084B1B889BB203F40073002B61
:1062A00002D00C48FDF7CEF90B48FDF7CBF900BF43
:1062B00080BD00BF1C7802022AED00E02C780202AB
:1062C00044780202507802025C780202647802028A
:1062D0006C780202787802028478020280B500AFFE
:1062E0002648FDF7AFF9264B1B78DBB21946254847
:1062F000FDF7A8F9224B1B78DBB203F00103002B5A
:1063000002D02148FDF79EF91D4B1B78DBB203F04C
:106310000203002B02D01D48FDF794F9184B1B789F
:10632000DBB203F00403002B02D01948FDF78AF911
:10633000134B1B78DBB203F00803002B02D0154887
:10634000FDF780F90E4B1B78DBB203F01003002B36
:1063500002D01148FDF776F9094B1B78DBB25BB22E
:10636000002B06DA0D4B1B6819460D48FDF76AF93C
:1063700002E00C48FDF766F900BF80BD8878020294
:1063800029ED00E094780202AC780202B8780202AB
:10639000C4780202D4780202E078020238ED00E00C
:1063A000E87802028478020280B500AF2148FDF748
:1063B00049F9214B1B78DBB219462048FDF742F919
:1063C0001D4B1B78DBB203F00103002B02D01C48ED
:1063D000FDF738F9184B1B78DBB203F00203002BF2
:1063E00002D01848FDF72EF9134B1B78DBB203F0EF
:1063F0000803002B02D01448FDF724F90E4B1B783C
:10640000DBB203F01003002B02D01048FDF71AF99D
:10641000094B1B78DBB25BB2002B06DA0C4B1B6816
:1064200019460C48FDF70EF902E00B48FDF70AF992
:1064300000BF80BDF878020228ED00E00C7902026E
:1064400024790202307902023C7902024879020280
:1064500034ED00E0547902028478020280B500AF86
:10646000164B1B6803F00203002B02D01448FDF703
:10647000E9F8124B1B6803F08043002B14D0114B3A
:106480001B78DBB2002B01D0FFF728FF0E4B1B78E7
:10649000DBB2002B01D0FFF787FF0C4B1B889BB2B0
:1064A000002B01D0FFF7B8FE044B1B68002B02DA6B
:1064B0000748FDF7C7F800BF80BD00BF2CED00E026
:1064C0006479020229ED00E028ED00E02AED00E009
:1064D0007C79020280B586B000AF78607B68283393
:1064E0007B617B6804333B61474B1B68002B07D003
:1064F000454B1B6878699847F860FB68002B7ED095
:106500003B691B6C19464148FDF79CF83B695B6A87
:1065100019463F48FDF796F83B699B6A19463D4886
:10652000FDF790F83B69DB6A19463B48FDF78AF8AE
:106530003B691B6B19463948FDF784F83B695B687A
:1065400019463748FDF77EF83B699B681946354880
:10655000FDF778F83B69DB6819463348FDF772F8B8
:106560003B691B6919463148FDF76CF83B695B696B
:1065700019462F48FDF766F83B699B6919462D4877
:10658000FDF760F83B69DB6919462B48FDF75AF8BF
:106590003B691B6A19462948FDF754F83B695B6B58
:1065A00019462748FDF74EF83B699B6B194625486D
:1065B000FDF748F83B69DB6B19462348FDF742F8C5
:1065C0007B681B6803F00403002B09D0FEF7ACFCCA
:1065D000034619461D48FDF735F800F07FFD02E03F
:1065E0001B48FDF72FF87B681B6803F01003002B96
:1065F00002D11848FDF726F8FFF730FFFEE700BF8D
:106600001837BD4680BD00BFE01F00228C79020212
:106610009C790202AC790202BC790202CC790202B6
:10662000DC790202EC790202FC7902020C7A0202A5
:106630001C7A02022C7A02023C7A02024C7A020292
:106640005C7A02026C7A02027C7A02028C7A020282
:10665000AC7A0202C87A020280B582B000AFFEF7BF
:1066600063FC0346DB6A7B607B6883F30B8800BFB7
:106670000837BD4680BD80B483B000AF78607B68CA
:1066800093FAA3F3B3FA83F37A68002A01D14FF0A7
:10669000FF33013318460C37BD465DF8047B704765
:1066A00080B500AFFCF75EF80346184680BD80B4A5
:1066B00085B000AF786039607B68FB6005E03B68BF
:1066C000013B3B60FB680133FB603B68002B03D060
:1066D000FB681B78002BF2D1FA687B68D31A184646
:1066E0001437BD465DF8047B7047FFFF80B483B06C
:1066F00000AF78607B6803F00303002B1CD17A683D
:10670000114B83FB02135911D317CB1A642101FBE0
:1067100003F3D31A002B0DD17A680B4B83FB0213C2
:10672000D911D317CB1A4FF4C87101FB03F3D31A55
:10673000002B01D1012300E0002318460C37BD4691
:106740005DF8047B704700BF1F85EB5180B582B0B8
:1067500000AF786039600748FCF774FF0648FCF723
:1067600071FF0648FCF76EFF6FF0570318460837B5
:10677000BD4680BD5C7B02026C7B0202887B02020C
:1067800080B400AF00231846BD465DF8047B704717
:1067900080B586B000AF786039607B68002B02D08E
:1067A0003B68002B04D10E20FBF7BAFF0023BAE0B0
:1067B000242200213868FBF7F1FF7B68D3E9000150
:1067C0005B4A4FF000031FF06FFC13463B613A69D0
:1067D000584B83FB021313445911D317C91A0B46A4
:1067E0001B015B1A9B00D11A3B6819603B69514A37
:1067F00082FB03121A445211DB17D31A3B613A6928
:106800004C4B83FB021313445911D317C91A0B467F
:106810001B015B1A9B00D11A3B6859603B69454AD2
:1068200082FB03121A445211DB17D21A3B689A609A
:106830007B68D3E900013E4A4FF000031FF034FCAF
:1068400002460B4613463B613B691A1D3A4B83FBDC
:10685000021313449910D317C91A0B46DB005B1AB5
:10686000D11A3B68996140F2B2737B617869FFF796
:106870003DFF0346002B02D04FF4B77301E040F216
:106880006D13FB603A69FB689A4207DB3A69FB6863
:10689000D31A3B617B6901337B61E7E700BF7B690A
:1068A000A3F26C723B685A613B683A69DA613B68F3
:1068B0000122DA607869FFF719FF0346002B0BD03D
:1068C0003B693A2B08DD3B693B2B02D13B68022236
:1068D000DA603B69013B3B610B237B6102E07B6932
:1068E000013B7B617B69002B07D0144A7B6932F93D
:1068F00013301A463B699342F1DB3B687A691A61AF
:106900003B68DA680D497B6931F9133019463B69F8
:106910005B1A1A443B68DA60FFF732FF03461A46F7
:106920003B681A623B6818461837BD4680BD00BFF9
:10693000805101008988888893244992EC7A020268
:1069400080B584B000AF786007F10803194640F2C3
:106950000160FFF7FBFE0346002B07D00E20FBF77C
:10696000DFFE4FF0FF324FF0FF3309E07B68002B72
:1069700004D0D7E902237968C1E90023D7E90223CB
:10698000104619461037BD4680BDFFFF2DE9B04FB8
:10699000BAB000AFC7F8CC00D7F8CC30002B09D183
:1069A0000E20FBF7BDFE4FF0FF324FF0FF33C7E97B
:1069B0002C23B0E2D7F8CC305B69DA171C461546B9
:1069C000B4F1460845F1FF39C7E93689D7F8CC302C
:1069D0001B683C2B22DDD7F8CC305868D7F8CC3078
:1069E0001A68744B83FB021313445911D317CB1A43
:1069F000C218D7F8CC305A60D7F8CC3019686D4B34
:106A000083FB01230B445A11CB17D21A13461B01E7
:106A10009B1A9B00CA1AD7F8CC301A60D7F8CC3032
:106A20005B683B2B22DDD7F8CC309868D7F8CC30A8
:106A30005A68604B83FB021313445911D317CB1AC6
:106A4000C218D7F8CC309A60D7F8CC305968594B77
:106A500083FB01230B445A11CB17D21A13461B0197
:106A60009B1A9B00CA1AD7F8CC305A60D7F8CC30A2
:106A70009B68172B20DDD7F8CC30D868D7F8CC30FE
:106A800099684D4B83FB01239A10CB17D31AC21878
:106A9000D7F8CC30DA60D7F8CC309968464B83FB16
:106AA00001239A10CB17D21A13465B001344DB0064
:106AB000CA1AD7F8CC309A60D7F8CC301B690B2BA8
:106AC0005CDDD7F8CC305869D7F8CC3019693A4B2F
:106AD00083FB01235A10CB17D31AC218D7F8CC3036
:106AE0005A61D7F8CC301969334B83FB01235A1014
:106AF000CB17D21A13465B0013449B00CA1AD7F86F
:106B0000CC301A613AE0D7F8CC301B69012B11D197
:106B1000D7F8CC305B6903F26C731846FFF7E6FDDB
:106B20000346002B06D0D7F8CC30DB685A1ED7F8C6
:106B3000CC30DA60D7F8CC30D968D7F8CC301A69C5
:106B40001E4B33F91230CA1AD7F8CC30DA60D7F8B6
:106B5000CC301B695A1CD7F8CC301A61D7F8CC302E
:106B60001B690B2B0ADDD7F8CC2000231361D7F863
:106B7000CC305B695A1CD7F8CC305A61D7F8CC308E
:106B8000D968D7F8CC301B695A1C0C4B33F912303A
:106B90009942B8DCD7F8CC305B69452B10DC162065
:106BA000FBF7BEFD4FF0FF324FF0FF33C7E92C2358
:106BB000B1E100BF89888888ABAAAA2AEC7A0202D0
:106BC000D7E9360102460B4652EACF0312EB000A20
:106BD00043EB010B52465B4652EACF0392469B467B
:106BE0001AEB0003BB644BEB0103FB64D7E91245CE
:106BF00022462B4652EA8F0321468918C7F8A01077
:106C0000294643EB0101C7F8A410D7E93623511CEC
:106C1000C7F8981043F10003C7F89C30D7E9262342
:106C2000002B06DAD11C396443F100037B64D7E9F9
:106C3000102352EAAF03D7E9284521468918B963E2
:106C4000294643EB0101F963D7E90E23C7E938234D
:106C5000D7E93623832A73F100036DDBD7E93623A6
:106C6000B2F18301396343F1FF337B63D7E90C232E
:106C7000C7E93623D7E936014FF064024FF000032D
:106C80001FF012FA02460B46C7E93623D7E936232E
:106C90001046194650EAAF0102460B469418BC62F2
:106CA0005B41FB62D7E90A231418C7F890404B41B7
:106CB000C7F89430D7E9240103460133C7F8883078
:106CC0000B4643F10003C7F88C30D7E93823D7E9E6
:106CD00022452146511A3962294663EB01037B6242
:106CE000D7E90823C7E93823D7E9362302F003039D
:106CF000BB610023FB61D7E90623C7E93623D7E947
:106D00003623D11E0B430AD1D7E93623511E3961F0
:106D100043F1FF337B61D7E90423C7E93623D7E981
:106D20003801D7E93623841ABC6061EB0303FB60AA
:106D3000D7E90223C7E93823D7F8CC301A697A4B50
:106D400033F912301A46D7F8CC30DB6813445C1E96
:106D5000D7F8CC305B6903F26C731846FFF7C6FCBA
:106D60000246D7F8CC301B69012BCCBF012300238E
:106D7000DBB21340E218D7F8CC30DA61D7F8CC3068
:106D8000DB69DA17C7F88030C7F88420D7E93823E1
:106D9000D7E92045214651183960294643EB0101C6
:106DA0007960D7E90023C7E938234FF007024FF095
:106DB0000003C7E93423D7E93823111DB96743F12C
:106DC0000003FB67D7E93423D7E91E011FF06CF9F4
:106DD000D7F8CC309A614FF018024FF00003C7E9A2
:106DE0003423D7F8E420D7F8D03003FB02F1D7F8EA
:106DF000D420D7F8E03002FB03F31944D7F8E020A1
:106E0000D7F8D030A2FB0323C7F8AC301346C7F83D
:106E1000A830D7F8AC30CB18C7F8AC30D7E92A2364
:106E2000C7E93823C7E938234FF03C024FF000038D
:106E3000C7E93423D7F8CC309B68DA173B677A6709
:106E4000D7E93823D7E91C4521468918B966294670
:106E500043EB0101F966D7F8D030D7E91A452A4645
:106E600002FB03F2D7F8D430214601FB03F31A44A6
:106E7000D7F8D0302146A3FB0113C7F8C4300B4626
:106E8000C7F8C030D7F8C430D318C7F8C430D7F823
:106E9000CC305B68DA173B667A66D7E93045234623
:106EA000D7E9180102469B18BB650B462A4642EB00
:106EB0000303FB65D7F8D030D7E916452A4602FB15
:106EC00003F2D7F8D430214601FB03F31344D7F87B
:106ED000D0202146A2FB0112C7F8BC200A46C7F801
:106EE000B820D7F8BC201344C7F8BC30D7F8CC3052
:106EF0001B68DA173B657A65D7E92E452346D7E943
:106F0000140102469B18C7F8B0300B462A4642EBE4
:106F10000303C7F8B430D7E92C2310461946E837E5
:106F2000BD46BDE8B08F00BFEC7A020280B483B0EA
:106F300000AF78607B681B687A689A420CBF0123B7
:106F40000023DBB218460C37BD465DF8047B704762
:106F500080B485B000AF78600023FB607B68BB60C5
:106F600005E0BB681B68BB60FB680133FB60BB6866
:106F70001B687A689A42F4D1FB6818461437BD46FC
:106F80005DF8047B7047FFFF80B500AF0248FCF757
:106F900059FB0023184680BDD87B020280B500AFA4
:106FA000FBF7F2FD0023184680BDFFFF80B582B0DD
:106FB00000AF786002E00648FCF744FB7B685A1E8D
:106FC0007A60002BF7D100BF00BF0837BD4680BDF7
:106FD000E07B020280B586B000AFF8607A603B606B
:106FE0000B46FB72FB7A1846FDF772F978617B69F4
:106FF00004333B61FB683A691A60FB68FA7A1A72DB
:10700000FB687A685A60FB683A68DA60FB680022BD
:107010001A6100BF1837BD4680BD80B58AB000AF89
:107020007860396000237B623B6800221A613B680C
:10703000DB68002B03D03B681B7A002B01D10023B7
:1070400047E03B681B687B617B68002B04D17B6950
:107050003B6201237B6201E07B683B62FEF7EEFF4F
:1070600038617B6A002B0FD13B6A103BFB60FB68E9
:107070001B7B23F080033A68127A934204D038696C
:10708000FEF7E0FF002324E00023BB613B685B6860
:10709000FB613B6A1B683B623A6A7B699A4202D198
:1070A00000233B620EE0BB690133BB61FB691A1D23
:1070B000FA613A6A1A603B68DB68BA699A4200D0A2
:1070C000E7E700BF3869FEF7BDFF3B68BA691A61A0
:1070D0003B6A18462837BD4680BDFFFF2DE9F041C9
:1070E000BEB002AF0023C7F8EC30844BC7F8E030E5
:1070F0000A23C7F8DC3007F1940207F1B400082333
:107100000121FFF767FF0C23C7F8D8307C4BD7F875
:10711000DC20D7F8DC107B48FCF794FAD7F8E03095
:10712000D7F8D820D7F8D8107748FCF78BFAD7F8DB
:10713000DC301846FFF73AFF7448FCF783FAD7F8BB
:10714000D800FFF733FF7248FCF77CFA07F1B4036D
:107150001946D7F8EC00FFF760FFC7F8EC000023F2
:10716000C7F8E830B8E0D7F8E8309B0007F1F00244
:10717000134453F85C3C103BC7F8D430FEF75EFF75
:10718000C7F8D000D7F8D4301B7B23F0800397F8E2
:10719000BC20934204D0D7F8D000FEF753FF96E00E
:1071A0003B469422D7F8D4101846FBF75BFBD7F880
:1071B000D000FEF747FFD7F8D430C7F8CC30D7F867
:1071C000CC105448FCF73EFAD7F8CC20D7F8CC3096
:1071D00093F83930009313460C22D7F8D8104E4854
:1071E000FCF730FAD7F8CC3093F8383003F00703C7
:1071F00087F8CB3097F8CB30022B03D14748FCF708
:1072000021FA20E097F8CB3003F00403002B03D0E1
:107210004348FCF717FA16E097F8CB30002B03D160
:107220004048FCF70FFA0EE097F8CB30012B03D162
:107230003D48FCF707FA06E097F8CB30032B02D164
:107240003A48FCF7FFF9D7F8CC30DB6AC7F8E430EE
:1072500004E0D7F8E4300133C7F8E430D7F8E4307D
:107260001B78232BF5D0D7F8CC301A6BD7F8CC305D
:10727000DB6A1946D7F8CC301B6ACB1AD518D7F879
:10728000CC301E6BD7F8CC301A6BD7F8CC30DB6A19
:107290001946D7F8E430CB1A1344642203FB02F2F8
:1072A000D7F8CC301B6BB2FBF3F8D7F8CC309C6D21
:1072B000D7F8CC305B6B1846FBF7E8F9034601932F
:1072C00000944346324629461948FCF7BBF9D7F8E3
:1072D000E8300133C7F8E830D7F8C430D7F8E820F1
:1072E0009A42FFF640AFD7F8EC30002B7FF42EAF78
:1072F00000231846F037BD46BDE8F081E47B02026A
:10730000EC7B0202F87B0202007C0202487C020253
:107310004C7C02028C7C0202907C02029C7C020269
:10732000A87C0202B47C0202C07C0202CC7C020275
:10733000D87C020280B584B000AF78607B681B689F
:10734000FB6013E0FB68183BBB60BB681A460C216E
:107350000B48FCF777F9FB681B687A689A4202D001
:107360000848FCF76FF9FB681B68FB60FA687B68EC
:107370009A42E7D100BF00BF1037BD4680BD00BFB5
:10738000007D0202087D0202B0B596B002AF002374
:10739000FB64414B7B643A4607F12000082302213D
:1073A000FFF718FE0C233B647B6C3A6C396C3B484E
:1073B000FCF748F9386CFFF7F9FD3948FCF742F95A
:1073C00007F120031946F86CFFF727FEF864002345
:1073D000BB6454E0BB6C9B0007F15002134453F8AC
:1073E000503C103BFB63FEF729FEB863FB6B1B7B35
:1073F00023F0800397F82820934203D0B86BFEF760
:1074000021FE39E0B86BFEF71DFEFB6B7B637B6BE7
:1074100018331846FFF78AFD0346002B1AD17C6B00
:107420007B6B1B8C1D467B6B18331846FFF790FD5A
:1074300003460193009523460C22396C1948FCF74A
:1074400001F97B6B18331846FFF774FF1648FCF7F9
:10745000F9F811E07C6B7B6B1B8C1D467B6B183342
:107460001846FFF775FD03460193009523460C224D
:10747000396C0E48FCF7E6F8BB6C0133BB643B6B20
:10748000BA6C9A42A6DBFB6C002B99D100231846FC
:107490005037BD46B0BD00BF0C7D0202187D020210
:1074A000347D02024C7D02025C7D0202607D02029C
:1074B000B0B596B002AF0023FB643C4B7B643A4608
:1074C00007F1200008230421FFF784FD0C233B640F
:1074D0007B6C3A6C396C3648FCF7B4F8386CFFF7C3
:1074E00065FD3448FCF7AEF807F120031946F86C47
:1074F000FFF793FDF8640023BB644BE0BB6C9B007B
:1075000007F15002134453F8503C103BFB63FEF765
:1075100095FDB863FB6B1B7B23F0800397F8282055
:10752000934203D0B86BFEF78DFD30E0B86BFEF7E9
:1075300089FDFB6B7B637B6B18331846FFF7F6FC0A
:107540000346002B19D17D6B7B6B1C6A7B6B183358
:107550001846FFF7FDFC0346019300942B460C22CE
:10756000396C1548FCF76EF87B6B18331846FFF73B
:10757000E1FE1248FCF766F809E07A6B7B6B1B6A48
:10758000009313460C22396C0D48FCF75BF8BB6C7A
:107590000133BB643B6BBA6C9A42AFDBFB6C002BD4
:1075A000A2D1002318465037BD46B0BD707D0202FF
:1075B000787D02029C7D0202BC7D02025C7D02029B
:1075C000D47D0202F0B59DB006AF00237B654F4B22
:1075D000FB6407F1080207F1280008230321FFF7E5
:1075E000F9FC0C23BB64FB6CBA6CB96C4848FCF723
:1075F00029F8B86CFFF7DAFC4648FCF723F807F1E6
:1076000028031946786DFFF708FD786500233B6570
:107610006EE03B6D9B0007F15802134453F8503C59
:10762000103B7B64FEF70AFD38647B6C1B7B23F008
:10763000800397F83020934203D0386CFEF702FDA8
:1076400053E0386CFEF7FEFC7B6CFB63FB6B18337E
:107650001846FFF76BFC0346002B27D1FC6BFB6B36
:107660005B6A1D46FB6B93F822301E46FB6B93F85A
:1076700021307B60FB6B18331846FFF769FC03462B
:1076800004937B680393029601950C230093234691
:107690000C22B96C2048FBF7D5FFFB6B183318465A
:1076A000FFF748FE1D48FBF7CDFF1EE0FC6BFB6BB0
:1076B0005B6A1D46FB6B93F822301E46FB6B93F80A
:1076C00021307B60FB6B18331846FFF741FC034603
:1076D00004937B680393029601950C230093234641
:1076E0000C22B96C0E48FBF7ADFF3B6D01333B65D7
:1076F000BB6B3A6D9A428CDB7B6D002B7FF47FAFC6
:10770000002318465C37BD46F0BD00BFE87D02028D
:10771000F07D0202207E0202487E02025C7D0202AF
:10772000687E0202F0B599B004AF0023FB64454BBC
:107730007B643A4607F1200008230521FFF74AFC45
:107740000C233B647B6C3A6C396C3F48FBF77AFF47
:10775000386CFFF72BFC3D48FBF774FF07F1200363
:107760001946F86CFFF759FCF8640023BB645CE031
:10777000BB6C9B0007F15002134453F8503C103B84
:10778000FB63FEF75BFCB863FB6B1B7B23F08003A2
:1077900097F82820934203D0B86BFEF753FC41E0E2
:1077A000B86BFEF74FFCFB6B7B637B6B18331846A3
:1077B000FFF7BCFB0346002B1ED17C6B7B6BDB8C85
:1077C0001D467B6B9B8C1E467B6B18331846FFF760
:1077D000BFFB034602930196009523460C22396CA9
:1077E0001B48FBF72FFF7B6B18331846FFF7A2FDF2
:1077F0001848FBF727FF15E07C6B7B6BDB8C1D4685
:107800007B6B9B8C1E467B6B18331846FFF7A0FBE7
:10781000034602930196009523460C22396C0E48CC
:10782000FBF710FFBB6C0133BB643B6BBA6C9A4235
:107830009EDBFB6C002B91D1002318465437BD46CC
:10784000F0BD00BF887E0202907E0202B47E02027A
:10785000D07E02025C7D0202E87E0202B0B596B0E4
:1078600002AF0023FB64414B7B643A4607F12000E2
:1078700008230621FFF7AEFB0C233B647B6C3A6CBC
:10788000396C3B48FBF7DEFE386CFFF78FFB39485D
:10789000FBF7D8FE07F120031946F86CFFF7BDFB94
:1078A000F8640023BB6454E0BB6C9B0007F15002FA
:1078B000134453F8503C103BFB63FEF7BFFBB86327
:1078C000FB6B1B7B23F0800397F82820934203D0A7
:1078D000B86BFEF7B7FB39E0B86BFEF7B3FBFB6B99
:1078E0007B637B6B18331846FFF720FB0346002BA6
:1078F0001AD17C6B7B6B1B8D1D467B6B1833184636
:10790000FFF726FB03460193009523460C22396CB2
:107910001948FBF797FE7B6B18331846FFF70AFDF3
:107920001648FBF78FFE11E07C6B7B6B1B8D1D46B1
:107930007B6B18331846FFF70BFB0346019300954A
:1079400023460C22396C0E48FBF77CFEBB6C0133DE
:10795000BB643B6BBA6C9A42A6DBFB6C002B99D1E3
:10796000002318465037BD46B0BD00BF007F02025D
:107970000C7F02022C7F0202447F02025C7D020225
:10798000587F020280B598B004AF0023FB642E4BF1
:107990007B643A4607F1200008230721FFF71AFB12
:1079A0000C233B647B6C3A6C396C2848FBF74AFE2D
:1079B000386CFFF7FBFA2648FBF744FE07F120037B
:1079C0001946F86CFFF729FBF8640023BB642FE02D
:1079D000BB6C9B0007F15002134453F8503C103B22
:1079E000FB63FEF72BFBB863FB6B1B7B23F0800371
:1079F00097F82820934203D0B86BFEF723FB14E0DE
:107A0000B86BFEF71FFBFB6B7B63786B7B6BDB69F3
:107A10007A6B526A796B096A02910192009303466C
:107A20000C22396C0B48FBF70DFEBB6C0133BB64B9
:107A30003B6BBA6C9A42CBDBFB6C002BBED10023B4
:107A400018465037BD4680BD6C7F0202747F02022B
:107A5000A87F0202D47F020290B59BB004AF00233E
:107A60007B65474B7B643A4607F1200008230821D9
:107A7000FFF7B0FA0C233B647B6C3A6C396C4148DD
:107A8000FBF7E0FD386CFFF791FA3F48FBF7DAFDB2
:107A900007F120031946786DFFF7BFFA78650023D8
:107AA0003B6560E03B6D9B0007F15802134453F8BF
:107AB000583C103BFB63FEF7C1FAB863FB6B1B7BC2
:107AC00023F0800397F82820934203D0B86BFEF789
:107AD000B9FA45E0B86BFEF7B5FAFB6B7B630023A0
:107AE000FB647B6B1B6BBB6405E0FB6C0133FB64CD
:107AF000BB6C1B68BB647B6B3033BA6C9A42F4D1AD
:107B0000FB6C002B1ADD7C6B7B6B1B6A7A6B926AB9
:107B1000796BC96AF86C0390029101920093234635
:107B20000C22396C1948FBF78DFD7B6B30331846FE
:107B3000FFF700FC1648FBF785FD11E07C6B7B6BC3
:107B40001B6A7A6B926A796BC96AF86C039002912E
:107B50000192009323460C22396C0E48FBF772FD0C
:107B60003B6D01333B653B6B3A6D9A429ADB7B6D13
:107B7000002B8DD1002318465C37BD4690BD00BF59
:107B8000F07F0202F87F020220800202448002029B
:107B90005C7D02026080020280B596B002AF0023D5
:107BA000FB643D4B7B643A4607F1200008230A2121
:107BB000FFF710FA0C233B647B6C3A6C396C374846
:107BC000FBF740FD386CFFF7F1F93548FBF73AFD5C
:107BD00007F120031946F86CFFF71FFAF864002339
:107BE000BB6446E0BB6C9B0007F15002134453F8A2
:107BF000503C103BFB63FEF721FAB863FB6B1B7B29
:107C000023F0800397F82820934203D0B86BFEF747
:107C100019FA2BE0B86BFEF715FAFB6B7B63796BF7
:107C20007B6B9B6A7A6BD26A019200930B460C22A3
:107C3000396C1C48FBF706FD7B6B5B7B03F0010393
:107C4000002B03D01848FBF7FDFC02E01748FBF7B8
:107C5000F9FC7B6B5B7B03F00203002B03D0144821
:107C6000FBF7F0FC02E01348FBF7ECFCBB6C0133C4
:107C7000BB643B6BBA6C9A42B4DBFB6C002BA7D1A4
:107C8000F8F7F8FA034619460B48FBF7DBFC00232C
:107C900018465037BD4680BD7C80020284800202B7
:107CA000B8800202E8800202008102021081020212
:107CB000208102022C8102023881020280B598B034
:107CC00002AF00237B65374BBB643A1D07F12400EC
:107CD00008230921FFF77EF90C237B64BB6C7A6CC7
:107CE000796C3148FBF7AEFC786CFFF75FF92F48F1
:107CF000FBF7A8FC07F124031946786DFFF78DF90F
:107D000078650023FB6440E0FB6C9B0007F15802A0
:107D1000134453F8543C103B3B64FEF78FF9F8636F
:107D20003B6C1B7B23F0800397F82C20934203D0FD
:107D3000F86BFEF787F925E0F86BFEF783F93B6CEB
:107D4000BB631B4B3B65BB6B1B7E1E2B0ED8BB6BFB
:107D50001B7E1A46174B53F82230002B06D0BB6B04
:107D60001B7E1A46134B53F822303B65BA6BBB6B34
:107D70009B7F01933B6D009313460C22796C0E4858
:107D8000FBF760FCFB6C0133FB647B6BFA6C9A4283
:107D9000BADB7B6D002BADD1002318465837BD46AA
:107DA00080BD00BF0083020208830202308302020A
:107DB00054830202BC8402025C83020280B582B05A
:107DC00000AF786039607B68022B4AD12D4A396850
:107DD000786800F084FD03460A2B1BDC002B42DD93
:107DE000013B092B3FD801A252F823F01D7E00026F
:107DF000297E0002357E00022F7E00023B7E0002BB
:107E0000417E0002477E00024D7E0002537E00024A
:107E1000237E0002B3F5807F1ED024E0FFF75EF9D9
:107E20001DE0FFF7B9FE1AE0FFF7AEFA17E0FFF723
:107E30003FFB14E0FFF7C6FB11E0FFF773FC0EE019
:107E4000FFF70CFD0BE0FFF79DFD08E0FFF704FED8
:107E500005E0FFF733FF02E00AF034F900BF00232A
:107E60000CE000BF00E000BF0748FBF7EBFB074852
:107E7000FBF7E8FB034800F05FFD002318460837D6
:107E8000BD4680BD440100223084020248840202C3
:107E900080B584B000AF786039600F48FBF7D2FB43
:107EA0000E4B1B68FB600AE0FB681968FB685B68A7
:107EB0001A460B48FBF7C6FBFB681033FB60094B07
:107EC0001B68FA689A42EFD30748FBF7BBFB002315
:107ED00018461037BD4680BD38850202E41F0022D7
:107EE00054850202E81F00226085020280B582B03C
:107EF00000AF78603960FFF7F1F8002318460837C3
:107F0000BD4680BD80B582B000AF78603960FFF7B4
:107F100039FD002318460837BD4680BD80B588B0BE
:107F200000AFF860B9607A60FB68FB610023BB6159
:107F300000237B6194E0FB6900221A70FB69013326
:107F4000FB61BB690133BB61FB691B78202B03D04C
:107F5000FB691B78092B03D1BA69BB689A42EAD343
:107F60007B69092B19D94648FBF76CFB00233B6161
:107F70000BE03B699B007A6813441B681946414833
:107F8000FBF760FB3B6901333B613A697B699A42CD
:107F9000EFD33D48FBF756FB6DE0BA69BB689A42E8
:107FA00064D2FB691B78222B3AD1FB690133FB6158
:107FB000BB690133BB617B699B007A681344FA6932
:107FC0001A607B6901337B6114E0FB691B785C2BD1
:107FD0000AD1FB6901331B78222B05D1FB690133E0
:107FE000FB61BB690133BB61FB690133FB61BB69A9
:107FF0000133BB61FB691B78222B03D0BA69BB68D4
:108000009A42E2D3BA69BB689A4231D2FB69002234
:108010001A70FB690133FB61BB690133BB611FE06F
:108020007B699B007A681344FA691A607B690133A3
:108030007B6105E0FB690133FB61BB690133BB6117
:10804000FB691B78202B07D0FB691B78092B03D019
:10805000BA69BB689A42EDD3BA69BB689A4209D241
:10806000BA69BB689A42FFF46FAF04E000BF02E058
:1080700000BF00E000BF7B6918462037BD4680BDC9
:1080800064850202848502026085020280B584B0A4
:1080900000AF786039600023BB60134B1B68FB6046
:1080A00017E0FB681B683A68796818461DF058FCB1
:1080B0000346002B0AD1FB681A683B6813441B78FF
:1080C000002B03D1FB68DB68BB6007E0FB68103363
:1080D000FB60064B1B68FA689A42E2D3BB681846FD
:1080E0001037BD4680BD00BFE41F0022E81F0022FC
:1080F00080B592B000AFF860B9607A6000237B640D
:10810000FB68002B05D14FF489722B492B48FBF7F4
:10811000B3FB7B68002B09D140F213122649284893
:10812000FBF7AAFB02E07B6C01337B647A6CBB68D3
:108130009A420BD2FA687B6C13441B78202B05D033
:10814000FA687B6C13441B78092BECD17B6C002BF9
:1081500002D16FF0FE032AE07B6C1946F868FFF746
:1081600095FF38643B6C002B02D16FF0FE031EE0DC
:1081700007F11403282200211846FAF70FFB07F134
:1081800014031A46B968F868FFF7C8FEF863FB6B7A
:10819000002B02D16FF0FE0309E007F114023B6CE3
:1081A0001146F86B984702467B681A600023184610
:1081B0004837BD4680BD00BF348602028885020272
:1081C0008C85020280B584B000AF786039600023EE
:1081D000BB6005E07B6801337B603B68013B3B6033
:1081E0003B68002B07D07B681B78202BF2D07B6884
:1081F0001B78092BEED03B68002B01D100232CE02B
:1082000007F108031A4639687868FFF771FF0346DB
:10821000002B01D1BB6820E03B681946786800F06C
:10822000FDFB0346002B01D1002316E07B68FB60B9
:1082300002E0FB680133FB60FB681B78202B03D056
:10824000FB681B78002BF4D1FB6800221A70796858
:108250000448FBF7F7F94FF0FF3318461037BD46D7
:1082600080BD00BF9485020280B485B000AF786005
:1082700039607B68FB6005E0FB680133FB603B68AD
:1082800001333B60FB681B78002B09D03B681B78EF
:10829000002B05D0FB681A783B681B789A42EBD01C
:1082A000FA687B68D31A18461437BD465DF8047B1C
:1082B0007047FFFF90B5A3B000AF78600023C7F808
:1082C000843000233B677B68002B00F056814FF41D
:1082D0008070FBF759FAF866FB6E002B00F04F81B7
:1082E0007B681B782F2B1BD04FF48071F86E0BF03E
:1082F000D3FEF86EFAF712FC0346013BFA6E134404
:108300001B782F2B0FD0F86E1DF0FCFA03461A468F
:10831000FB6E13449C491A460B461B88138002E0EF
:10832000FB6E00221A700023FB677B68C7F8803061
:10833000D7F880301B782F2B03D1D7F8803001334A
:10834000FB67D7F880301B78002B05D0D7F880303A
:108350000133C7F88030EBE700BFFB6F002B01D182
:108360007B68FB67FB6F002B33D0FB6FBB66FB6E3C
:10837000C7F8803004E0D7F880300133C7F8803088
:10838000D7F880301B78002BF5D17B68FB6709E0BC
:10839000FA6F531CFB67D7F88030591CC7F8801060
:1083A00012781A70FA6FBB6E9A42F1D1D7F880300A
:1083B00000221A70F86E0BF027FDC7F88400D7F87A
:1083C0008430002B03D1F86EFBF736FAD8E0BB6E91
:1083D000FB67FB6F1B78002B0FD1D7F884000BF0E5
:1083E00059FD38673B6F002B00F0BE803B6F0433B4
:1083F00019466648FBF726F9EFE70023BB67002321
:108400007B67D7F884000BF045FD38673B6F002B86
:108410002ED03B6F1C1DF86FFAF780FB03461A46FF
:108420002146F86F1DF09CFA0346002BE9D1BB6F83
:108430000133BB677B6F002B0BD13B6F04331846B6
:10844000FAF76CFB78673B6F04331946F86E1DF042
:10845000FBF93B6F0433F96E1846FFF705FF03463F
:108460007B667A6E7B6F9A42CBD27B6E7B67C8E766
:1084700000BF7B6F002B78D0BB6F012B21DDD7F8BD
:1084800084000BF05FFDD7F884000BF003FD386724
:108490003B6F002B14D03B6F1C1DF86FFAF73EFBAF
:1084A00003461A462146F86F1DF05AFA0346002B80
:1084B000E9D13B6F043319463448FBF7C3F8E2E7D0
:1084C00000BFFA6F7B68D31A7B667A6FF96EF86F1C
:1084D000FAF7C8F97A6E7B6F13447A681344002266
:1084E0001A70BB6F012B40D107F1080358220021FD
:1084F00018461DF013F807F10803194678680BF0C9
:108500001EFC0346002B30D1FB6803F47043B3F527
:10851000804F0CD178681DF0F5F903461A467B6848
:10852000134419491A460B461B8813801DE0FB684B
:1085300003F47043B3F5204F17D178680BF064FC57
:1085400038663B6E002B10D0386E0BF021FD78683A
:108550001DF0D8F903461A467B6813440A491A46A7
:108560000B461B88138000E000BFD7F884000BF097
:108570000FFDF86EFBF760F902E000BF00E000BFFE
:108580008C37BD4690BD00BFAC850202B0850202AB
:1085900080B588B000AF78600023FB610023BB6129
:1085A0007B681B78002B04D100210020FFF770FCB2
:1085B00056E07868FAF7B2FA02467B6813443B61EA
:1085C0000CE03B691B78202B05D13B690133184631
:1085D000FFF770FE06E03B69013B3B613A697B684F
:1085E0009A42EED1204B1B687B612AE07B691B68B5
:1085F000FB6078681DF086F903461A46F9687868CA
:108600001DF0AEF90346002B18D1FB69002B06D1F3
:10861000FB68BB61B8691DF075F90346FB61F96839
:10862000B869FFF721FEB860BA68FB699A4201DABF
:10863000BB68FB61F9680D48FBF704F87B691033F0
:108640007B610B4B1B687A699A42CFD3BB69002BC5
:1086500005D0FB691A46B9697868FAF7E1F900BFF5
:108660002037BD4680BD00BFE41F0022B085020256
:10867000E81F002280B586B000AF786000233B6120
:10868000202178681CF09CFFB860BB68002B04D0E8
:10869000BA687B68D31AFB6004E078681DF032F991
:1086A0000346FB60124B1B687B6117E07B691B680C
:1086B000FA68796818461DF053F90346002B0AD171
:1086C0007B691A68FB6813441B78002B03D17B6914
:1086D0009B683B6107E07B6910337B61054B1B683E
:1086E0007A699A42E2D33B6918461837BD4680BD85
:1086F000E41F0022E81F002280B485B000AF78603C
:1087000039600023FB607B68BB6017E0BB681B78A7
:10871000202B10D1BB6801331B78002B0BD0BB681A
:1087200001331B78202B06D0BB685A1C3B681A60AB
:10873000FB680133FB60BB680133BB60BB681B781F
:10874000002BE3D1FB6818461437BD465DF8047B67
:108750007047FFFF80B588B000AF786039603B6834
:10876000FB610023BB6100237B6178681DF0CAF8C0
:1087700003463B613B68FB612AE0FB695B683A6941
:10878000796818461DF0ECF80346002B1DD17B6973
:10879000002B07D1FB695B68BB61B8691DF0B2F8BB
:1087A00003467B61FB695B681946B869FFF75CFDAE
:1087B000F860FA687B699A4201DAFB687B61FB69C1
:1087C0005B6819460C48FAF73DFFFB690C33FB6107
:1087D000FB691B68002BD0D10848FAF733FFBB694F
:1087E000002B05D07B691A46B96978681DF0F4F84A
:1087F00000BF2037BD4680BDB08502026085020201
:1088000080B584B000AF78607B68FB600AE0FB68ED
:108810005968FB689B681A460848FAF713FFFB681B
:108820000C33FB60FB681B68002BF0D10448FAF79F
:1088300009FF00BF1037BD4680BD00BF548502024E
:108840006085020280B586B000AF78600023FB60CF
:1088500000237B6107F10C0319467868FFF74CFF92
:1088600038613B69002B04D07868FFF703FF78611B
:1088700018E078681DF046F8034619467868FFF757
:1088800005FC0346002B0DD178681DF03BF803462C
:10889000013B7A6813441B78202B03D17868FFF7DB
:1088A000E9FE78617B69002B14D07B691B68002B83
:1088B00010D03B69002B03D03B69012B04D00AE0A8
:1088C0007869FFF79DFF06E0FB6879691846FFF7B6
:1088D00041FF00E000BF00BF1837BD4680BD80B536
:1088E00086B000AFF860B9607A607B687B61002376
:1088F0003B6112E07B695A68BB6804331B68194608
:1089000010461CF0C3FE0346002B03D17B691B6895
:108910003B610CE07B690C337B61FB68012B06DD5E
:108920007B69002B03D07B691B68002BE2D13B697C
:1089300018461837BD4680BD80B584B000AF78605A
:108940007B68FB600AE0FB685968FB689B681A4615
:108950000848FAF777FEFB680C33FB60FB68002BD6
:1089600003D0FB681B68002BEDD100BF1037BD465C
:1089700080BD00BFB485020280B586B000AFF8604C
:10898000B9607A6000237B6107F113030122194665
:10899000F8680BF004F90346012B01D0002338E0FE
:1089A000FB7C0A2BF0D0FB7C0D2BEDD07B695A1C95
:1089B0007A611A46BB681344FA7C1A7024E007F106
:1089C000130301221946F8680BF0E9F80346012B5E
:1089D00014D1FB7C0A2B02D0FB7C0D2B05D17B69CB
:1089E000BA68134400221A7012E07B695A1C7A613B
:1089F0001A46BB681344FA7C1A7005E07B69BA68B2
:108A0000134400221A7003E07A697B689A42D6DB2D
:108A10007B6918461837BD4680BDFFFF80B58EB014
:108A200002AF786039604FF0FF33BB6200237B6296
:108A30003B68002B05D16FF0FE03A2E07B6A013397
:108A40007B627B6A7A6813441B78202B09D07B6A8F
:108A50007A6813441B78092B03D07A6A3B689A42E0
:108A6000ECDB7B6A2033BB61BB691846FAF78CFEEE
:108A700078617B69002B02D16FF00B0381E07B6A88
:108A80001A4679687869F9F7EDFE7B6A7A691344CA
:108A900000221A703D4978691DF042F90346002B07
:108AA00006D13B4978691DF03BF90346002B18D0ED
:108AB0000022002178690BF01BF8B862BB6A002B1A
:108AC0000FDABB69013B19467B6800937B6A314A28
:108AD0007869FAF731FD0022002178690BF008F877
:108AE000B8627869FAF7A8FEBB6A002B45DB8020E4
:108AF000FAF74AFE38613B69002B05D1B86A0BF0E2
:108B000027F86FF00B033CE080223969B86AFFF761
:108B100033FFF860FB68002B23DD002387F8233048
:108B20000023FB6110E0FB693A6913441B7887F866
:108B3000233097F82330202B03D097F82330092BCC
:108B400006D1FB690133FB61FA69FB689A42EADBF3
:108B500097F82330232B04D0FB6819463869FFF7B8
:108B600031FBFB68002BCFDCB86A0AF0F1FF3869F3
:108B7000FAF762FE0023FB6202E04FF0FF33FB6274
:108B8000FB6A18463037BD4680BD00BF44860202EE
:108B9000488602024C86020280B582B000AF78603F
:108BA00039607B68012B03D1074809F09DFF05E080
:108BB0003B6804331B68184609F096FF00231846EB
:108BC0000837BD4680BD00BFEC01002280B582B0F1
:108BD00000AF786039607B68032B06D00A48FAF74B
:108BE00031FD0A48FAF72EFD09E03B6804331A68A4
:108BF0003B6808331B68194610460AF0FDF900234C
:108C000018460837BD4680BD5886020270860202AB
:108C100090B589B002AF786039607B68032B06D0CD
:108C20004448FAF70FFD4448FAF70CFD7CE00023B6
:108C30007B613B68043319683B6808331B681A463C
:108C40003E48FAF7FFFC3B6808331B6800224FF4EC
:108C5000001118460AF04CFFF860FB68002B38DB67
:108C6000F8680AF075FF4FF48070FAF78DFD7861AF
:108C70007B69002B05D13248FAF7E4FC6FF00B0357
:108C800053E03B6804331C683B6804331B68184698
:108C9000F9F744FF034623443B6106E03B691B7838
:108CA0002F2B09D03B69013B3B613B6804331B68B8
:108CB0003A699A42F2D100E000BF3B6808331A6873
:108CC0003B69009313461F4AFF217869FAF734FC89
:108CD00017E03B6808331B680022002118460AF0A1
:108CE00007FFF860FB68002B08DBF8680AF030FF2C
:108CF0003B6808331B6818460BF00BF83B689B6811
:108D00007B613B6804331B68796918460AF0E9FF08
:108D10007B69002B08D03B6808331B687A699A424C
:108D200002D07869FAF788FD002318461C37BD4643
:108D300090BD00BF88860202A0860202D886020289
:108D4000E4860202F486020280B584B000AF786047
:108D500039607B68012B07D10F48FAF773FC0F4885
:108D6000FAF770FC002312E00123FB600AE0FB68C5
:108D70009B003A6813441B68184609F07DFFFB68A6
:108D80000133FB60FA687B689A42F0DB00231846E7
:108D90001037BD4680BD00BFFC8602021487020268
:108DA00080B586B000AF78600B46FB701346BB7091
:108DB00000237B6100233B617B68002B77D04FF45D
:108DC0008070FAF7E1FCF860FB68002B71D07868DE
:108DD0000BF01AF878617B69002B0AD1FB78002B25
:108DE00003D179683548FAF72DFCF868FAF724FDC5
:108DF00060E078690BF04EF838613B69002B39D0A0
:108E00003B69043319462E48F9F766FE0346002BEA
:108E1000EFD03B69043319462A48F9F75DFE034653
:108E2000002BE6D03B6904337A682749F868FAF7E3
:108E3000AFFB3B691B78042B15D0F8680AF069FF7B
:108E40000346002B07D0FB78002BD2D1F9681B48D2
:108E5000FAF7F8FBCDE7BB78002BCAD0F9681B48BE
:108E6000FAF7F0FBC5E7BA78FB781946F868FFF720
:108E700097FFBEE700BF78690BF08AF8F868FAF749
:108E8000DBFC78680AF0AAFF0346002B07D0FB78CA
:108E9000002B0FD179680948FAF7D4FB0AE0BB78B8
:108EA000002B07D079680A48FAF7CCFB02E000BF34
:108EB00000E000BF1837BD4680BD00BF2C8702020E
:108EC0004087020244870202F486020248870202B7
:108ED0005887020280B59CB000AF786039600023EB
:108EE00087F86730002387F86630002387F86530FD
:108EF0007B68012B07D16148FAF7A4FB6048FAF7B9
:108F0000A1FB0023B6E03B6804331B681B782D2BC4
:108F10003ED10023BB662DE03B6804331A68BB6E6C
:108F200013441B78762B11D0762B13DC722B09D0CF
:108F3000722B0FDC2D2B19D0662B0BD1012387F858
:108F4000673014E0012387F8663010E0012387F8CA
:108F500065300CE03B6804331A68BB6E13441B7821
:108F600019464848FAF76EFB002383E000BFBB6E4A
:108F70000133BB663B6804331A68BB6E13441B782D
:108F8000002BC9D17B68013B7B603B6804333B60AD
:108F90000123FB6669E0FB6E9B003A6813441B6883
:108FA00007F10802114618460AF0C9FE0346002BD5
:108FB0004BD1FB6803F48043002B1AD097F866303E
:108FC000002B09D1FB6E9B003A6813441B681946BD
:108FD0002D48FAF737FB45E0FB6E9B003A681344D7
:108FE0001B6897F8652097F867101846FFF7D8FEBA
:108FF00038E0FB6803F40043002B33D0FB6E9B008A
:109000003A6813441B6818460AF083FE0346002B97
:109010000DD097F86730002B24D1FB6E9B003A6887
:1090200013441B6819461948FAF70CFB1AE097F825
:109030006530002B16D0FB6E9B003A6813441B680A
:1090400019461348FAF7FEFA0CE097F86730002B40
:1090500008D1FB6E9B003A6813441B6819460D4803
:10906000FAF7F0FAFB6E0133FB66FA6E7B689A4200
:1090700091DB002318467037BD4680BD7087020221
:1090800090870202B0870202C88702022C87020280
:1090900048870202EC87020280B582B000AF786098
:1090A00039607B68012B04D10E490F48FAF7CAFAE0
:1090B00012E07B68022B0FD13B6804331B68184613
:1090C0000AF094FF0346002B06D03B6804331B686C
:1090D00019460648FAF7B6FA002318460837BD467F
:1090E00080BD00BFEC0100221C8802022088020221
:1090F00080B582B000AF7860396004490448FAF75F
:10910000A1FA002318460837BD4680BDEC010022B5
:109110001C88020280B582B000AF786039607B683D
:10912000012B06D10948FAF78DFA0948FAF78AFAAD
:1091300006E03B6804331B68002118460AF018FE5D
:10914000002318460837BD4680BD00BF388802029C
:109150005C88020280B584B000AF7860396000237B
:10916000FB601C4BBB607B68022B08D13B6804335F
:109170001B681946B8680AF025FBF8601DE07B689B
:10918000042B15D13B6804331B68134918461CF0A7
:109190007DFA0346002B10D13B689B68BB603B689F
:1091A0000C331B681946B8680AF00CFBF86004E041
:1091B0000A48FAF747FA002307E0FB68002B03D0C0
:1091C000F9680748FAF73EFA002318461037BD46FB
:1091D00080BD00BF94880202988802029C88020227
:1091E000BC88020280B58CB002AF786039607B68C1
:1091F000012B23D14348FAF725FA4348FAF722FA1C
:10920000424B7B6214E07B6A002B0ED07B6A5B686A
:10921000002B0AD07B6A9B6819687B6A1B681A4618
:109220007B6A5B683A48FAF70DFA7B6A10337B6217
:109230007B6A384A9342E6D300235EE07B68042BC6
:1092400032D13B685B683B623B689B683B613B6833
:10925000DB68FB600023FB613B69FA68396A2E48D2
:10926000FAF7F0F92D49F8681CF010FA0346002BC4
:1092700004D13B685B68FB6100233B62FB690093A0
:109280000023FA683969386A0AF0FAF80346002BB5
:1092900004D12348FAF7D6F900232EE02148FAF743
:1092A000D1F94FF0FF3328E07B68032B20D13B68D6
:1092B0005B68BB613B689B687B61BA6979691A48E6
:1092C000FAF7C0F90023009300237A69B9690020F6
:1092D0000AF0D6F80346002B04D11148FAF7B2F988
:1092E00000230AE00F48FAF7ADF94FF0FF3304E02E
:1092F0000E48FAF7A7F94FF0FF3318462837BD4656
:1093000080BD00BFD4880202F4880202F825002242
:109310001489020238260022288902024C8902029E
:10932000508902025C890202688902028089020275
:1093300080B584B000AF786039603B685B68FB60E3
:109340007B68022B05D00F48FAF77CF94FF0FF330A
:1093500013E0F9680C48FAF775F9F8680AF0C2F9F1
:109360000346002B05DA0948FAF76CF94FF0FF3392
:1093700003E00748FAF766F9002318461037BD46A0
:1093800080BD00BFB0890202D08902025C8902025E
:109390005089020280B582B000AF786039607B6886
:1093A000022B03D013480AF0BFFA1DE03B680433D8
:1093B0001B68114918461CF069F90346002B09D0B7
:1093C0003B6804331B680D4918461CF05FF90346DF
:1093D000002B03D10A48FAF735F905E03B6804335E
:1093E0001B6818460AF0A0FA002318460837BD4645
:1093F00080BD00BFE0890202E4890202EC8902021A
:10940000F089020290B585B000AF786039607B6862
:10941000022B07D13B6804331B6819461B48FAF737
:1094200011F92DE07B68032B27D13B6808331B68BB
:10943000002240F20A2118460AF05AFBF860FB6845
:10944000002B12DB3B6804331C683B6804331B6849
:1094500018461CF057FA03461A462146F8680AF0E7
:10946000C6FBF8680AF074FB0AE03B6808331B6827
:1094700019460748FAF7E6F802E00648FAF7E2F874
:10948000002318461437BD4690BD00BF1C88020259
:10949000FC890202148A020280B58AB000AF7860AB
:1094A00039600023FB7200237B6200233B620023B0
:1094B0003B610023FB610023BB6100237B617B6870
:1094C000012B05DC5B48FAF7BDF84FF0FF33ADE048
:1094D0007B68022B05D10A23BB613B685B687B621A
:1094E0002BE03B6804331B6853491846F9F7F4FA3C
:1094F0000346002B1BD13B6808331B681B782B2BC2
:1095000008D03B6808331B6818461BF0E1FE034691
:10951000BB6108E03B6808331B68013318461BF049
:10952000D7FE03467B613B68DB687B6205E0414810
:10953000FAF788F84FF0FF3378E00021786A0AF0F4
:10954000D7FAF860FB68002B11DA3C48FAF77AF892
:109550004FF0FF336AE03B6A002B02D13B6A0133D4
:109560003B62FB7A0A2B02D13B6A01333B6207F173
:109570000B0301221946F8680AF011FB0346002B81
:10958000E9DC396A2E48FAF75DF87B69002B12D0C6
:109590003A6A7B699A4205D33A6A7B69D31A0133E6
:1095A000BB6108E02748FAF74DF8F8680AF0D0FAEE
:1095B0004FF0FF333AE0BA693B6A9A4208D9214832
:1095C000FAF740F8F8680AF0C3FA4FF0FF332DE0DD
:1095D000B9691D48FAF736F83A6ABB69D31A3B6194
:1095E00000220021F8680AF02AFB0EE0FA693B69C4
:1095F0009A4204D3FB7A19461448FAF723F8FB7A07
:109600000A2B02D1FB690133FB6107F10B03012235
:109610001946F8680AF0C3FA0346002BE6DC0C484A
:10962000FAF710F8F8680AF093FA0023184628377A
:10963000BD4680BD388A0202608A0202648A020244
:10964000788A0202948A0202D08A0202F08A020216
:10965000F48A020280B483B000AF78607B68002B8C
:1096600003D07B681B78002B01D100231FE07B68AF
:109670001B782B2B03D07B681B782D2B12D17B689A
:1096800001337B600EE07B681B7801330B4A134487
:109690001B7803F00403002B01D1002307E07B6853
:1096A00001337B607B681B78002BECD101231846CB
:1096B0000C37BD465DF8047B704700BFB4BF0202A3
:1096C00098B500AF1F4B1B6893F8253003F00203D9
:1096D000DBB2002B04D11C4B00221A701A4B2FE076
:1096E0001A4B1B68002B07D0184B1B6880221946A9
:1096F00015481CF071F906E0134B154A92E8030077
:109700001860043319701048F9F708FA03460E4A36
:109710009C180D48F9F702FA0346C3F18003194675
:1097200020460AF0B9FC08481CF0ECF803461A463B
:10973000054B134407491A460B461B881380024BFE
:10974000184698BDEC1F0022F41F0022F01F0022D3
:10975000EC8C0202F48C020280B582B000AF78601B
:109760000C4B1B68002B04D190220B490B48FAF7D5
:1097700083F8084B1A687B6803F00103D9B292F8AA
:10978000253061F3410382F8253000BF0837BD461C
:1097900080BD00BFEC1F0022808D0202F88C020207
:1097A00080B582B000AF0023FB701E4B1B68002BFE
:1097B00004D1A4221C491D48FAF75EF8194B1B6816
:1097C000D3F810327B607B68002B1BD14FF0FF3346
:1097D00023E0144B1B684FF0FF311846F7F756FA99
:1097E000104B1B68D3F810327A689A420AD00D4B9E
:1097F0001B68D3F810327B607B68002B02D14FF0DE
:10980000FF330AE0FA1C01234FF0FF31786807F0BC
:10981000C1FF0346012BDCD1FB7818460837BD4653
:1098200080BD00BFEC1F0022988D0202F88C02025E
:1098300080B582B000AF78603960094B1B68002B9F
:1098400004D1C32207490848FAF716F8044B1B68ED
:109850001846F7F72BFA002318460837BD4680BD97
:10986000EC1F0022A88D0202F88C020280B584B0A1
:1098700000AF78600023FB602D4B1B68002B04D1E8
:10988000D6222C492C48F9F7F7FF786807F07EFEBE
:10989000F860FB68002B04D179682848F9F7D2FEFC
:1098A00042E0234B1B68D3F81032FA689A423AD050
:1098B00040F24311F86807F077FE0346002B33D1DE
:1098C0001B4B1B68D3F81032002B0ED0184B1B68B3
:1098D000D3F81032184607F00FFF154B1B68D3F86A
:1098E00010320021184608F011F8114B1B6803F5DF
:1098F000DD73512200211846F8F750FF0C4B1B680E
:109900000022A3F80C220A4A1268B3F80C32A2F81B
:109910000E32074B1B68FA68C3F810220849F86832
:1099200007F0F4FF00E000BF1037BD4680BD00BF68
:10993000EC1F0022B88D0202F88C02020C8D02028C
:109940003198000280B582B000AF78600A48F9F71C
:1099500079FE7868FEF71CFE7868FEF773FFFFF764
:10996000AFFE03467A6819460448F9F76BFE00BF5C
:109970000837BD4680BD00BF2C8D0202308D02022B
:1099800080B582B000AF78600848F9F75BFEFFF75A
:1099900097FE01467B6803F5DD731A460448F9F724
:1099A00051FE002318460837BD4680BD388D02029F
:1099B000308D020280B584B000AF78607B68B3F868
:1099C0000C32002B00F09D807B681B8D042B51D93D
:1099D0007B6803F5B5707B6803F5DD73502219468B
:1099E0001BF07AFC0346002B00F08B800023FB6009
:1099F00019E0FA6813469B0013441B0128337A6868
:109A00001344981CFB685A1C13469B0013441B010B
:109A100028337A681344023350221946F8F722FF9C
:109A2000FB680133FB60FB68032BE2DDFA68134639
:109A30009B0013441B0128337A68134402335022DD
:109A400000211846F8F7AAFEFA6813469B00134453
:109A50001B0128337A681344981C7B6803F5DD7179
:109A60007B68B3F80C321A46F8F7FCFE7B680522D7
:109A70001A8546E07B681B8D002B14D07B681B8DFC
:109A80005A1E13469B0013441B0128337A68134463
:109A9000981C7B6803F5DD73502219461BF01CFCF3
:109AA0000346002B2DD07B681A8D7B68DA847B6897
:109AB0001B8D1A4613469B0013441B0128337A68FA
:109AC00013440233502200211846F8F767FE7B68E2
:109AD0001B8D1A4613469B0013441B0128337A68DA
:109AE0001344981C7B6803F5DD717B68B3F80C3276
:109AF0001A46F8F7B7FE7B681B8D01339AB27B6874
:109B00001A857B681A8D7B68DA8400BF1037BD46E2
:109B100080BDFFFF80B588B000AF7860934B1A68B6
:109B200092F8253043F0010382F825308F4B1B68F3
:109B3000D3F81032002B09D1F9F742FD38613B69A7
:109B4000002B03D03B691846FFF790FEFFF7B8FDE6
:109B500003461846F9F776FDFFF722FEF860FB682A
:109B6000002BC0F2AC82FB681B2B05D17F4B1B681E
:109B7000012283F82420ADE27C4B1B6893F824304B
:109B8000012B0ED1FB685B2B05D1784B1B680222A1
:109B900083F824209EE2754B1B68002283F8242062
:109BA000D6E0724B1B6893F82430022B40F0D08033
:109BB0006E4B1B68002283F82420FB68412B3DD1AB
:109BC0006A4B1B68DB8C002B33D0684B1B68DA8C2C
:109BD000013A92B2DA84654B1B6803F5DD70634B82
:109BE0001A68624B1B68DB8C19460B469B000B44C2
:109BF0001B0128331344023350221946F8F732FE72
:109C00005A4B1B6803F5DD7318461BF07BFE0246BA
:109C1000564B1B6892B2A3F80C22544A1268B3F850
:109C20000C32A2F80E32514B1B681846FFF7A8FE03
:109C300050E24E4B1B680022DA844BE2FB68422B59
:109C40004CD14A4B1B68DB8C1A46484B1B681B8D5A
:109C5000013B9A4206DA454B1B68DA8C013292B21C
:109C6000DA840DE0414B1B681B8D002B00F029822C
:109C70003E4B1B681A8D3D4B1B68013A92B2DA8449
:109C80003A4B1B6803F5DD70384B1A68374B1B687D
:109C9000DB8C19460B469B000B441B0128331344F5
:109CA000023350221946F8F7DDFD304B1B6803F5EF
:109CB000DD7318461BF026FE02462C4B1B6892B241
:109CC000A3F80C22294A1268B3F80C32A2F80E321B
:109CD000264B1B681846FFF753FEFBE1FB68442B3D
:109CE00012D1224B1B68B3F80E32002B00F0EB812F
:109CF0001F48F9F7A7FC1D4B1B68B3F80E22013A69
:109D000092B2A3F80E22DEE1FB68432B20D1174B61
:109D10001B68B3F80E22154B1B68B3F80C329A423D
:109D200080F0D381114B1B68104A1268B2F80E22E2
:109D3000134493F8BA3119460E48F9F783FC0B4BDC
:109D40001B68B3F80E22013292B2A3F80E22BCE1D6
:109D5000FB68002B00F0BB81FB68FF2B00F0B78194
:109D6000FB68092B31D10023FB610BE0EC1F0022C3
:109D7000408D0202448D0202AC48F9F763FCFB6996
:109D80000133FB61AA4B1B68B3F80E321A46FB691C
:109D90009342F1DBA64B1B6803F5DD731846FFF712
:109DA000D1FDA34B1B6803F5DD7318461BF0AAFD1C
:109DB00002469F4B1B6892B2A3F80C229C4A126881
:109DC000B3F80C32A2F80E3284E1FB687F2B02D08C
:109DD000FB68082B7DD1964B1B68B3F80E32002B25
:109DE00000F07781924B1B68B3F80C22013A92B2D3
:109DF000A3F80C228E4B1B68B3F80E22013A92B2E4
:109E0000A3F80E228A4B1B68B3F80C22884B1B6800
:109E1000B3F80E329A424ED9854B1A68844B1B68B0
:109E2000B3F80E3203F5DC731344981C804B1A68A8
:109E30007F4B1B68B3F80E32013303F5DC73134418
:109E4000991C7B4B1B68B3F80C321A46784B1B6885
:109E5000B3F80E32D31A1A46F8F771FD744B1B682B
:109E6000734A1268B2F80C221344002283F8BA2114
:109E70006F4B1A686E4B1B68B3F80E3203F5DC7338
:109E80001344023319466B48F9F7DCFB684B1B6837
:109E9000B3F80E32BB6105E06448F9F7D3FBBB6948
:109EA0000133BB61624B1B68B3F80C321A46BB69C5
:109EB0009342F1DD0EE16048F9F7C4FB5C4B1B688F
:109EC0005B4A1268B2F80C221344002283F8BA21CC
:109ED00000E1FB680D2B02D0FB680A2B37D1544BF5
:109EE0001B681846FFF766FD514B1B6893F8253039
:109EF00003F00103DBB2002B02D05048F9F7A2FBBC
:109F00004B4B1B6803F5DD72494B1B68B3F80C32F1
:109F100019461046FEF756F9FFF7D2FB03461846DE
:109F2000F9F790FB424B1B6803F5DD7351220021CA
:109F30001846F8F733FC3E4B1B680022A3F80C22AE
:109F40003B4A1268B3F80C32A2F80E32C2E0384B2A
:109F50001B68B3F80C324F2B04D9354B1B68002219
:109F6000A3F80C22324B1B68B3F80E22304B1B684F
:109F7000B3F80C329A4265D22D4B1A682C4B1B68F1
:109F8000B3F80E32013303F5DC731344981C284BED
:109F90001A68274B1B68B3F80E3203F5DC731344C1
:109FA000991C234B1B68B3F80C321A46204B1B68D4
:109FB000B3F80E32D31A1A46F8F7C1FC1C4B1B68D3
:109FC0001B4A1268B2F80E221146FA68D2B20B444C
:109FD00083F8BA21164B1B6893F8253003F0010370
:109FE000DBB2002B0DD0124B1A68114B1B68B3F873
:109FF0000E3203F5DC731344023319461048F9F7A7
:10A0000021FB0B4B1B68B3F80E327B6105E0074860
:10A01000F9F718FB7B6901337B61054B1B68B3F8CB
:10A020000C321A467B699342F1DB24E0408D020238
:10A03000EC1F0022488D0202508D02022C8D02027C
:10A04000548D0202244B1B68234A1268B2F80C227A
:10A050001146FA68D2B20B4483F8BA211E4B1B6832
:10A0600093F8253003F00103DBB2002B03D0F9682D
:10A070001A48F9F7E7FA0023FB60174B1B68B3F89F
:10A080000C22013292B2A3F80C22134B1B68B3F8D6
:10A090000E22013292B2A3F80E220F4B1B68B3F8C6
:10A0A0000C324F2B7FF658AD0B4B1B680022A3F8E8
:10A0B0000C22094B1B680022A3F80E224CE500BFBE
:10A0C0004AE500BF48E500BF46E500BF44E500BFE4
:10A0D00042E500BF40E500BFEC1F0022448D0202B4
:10A0E00080B483B000AF78603960064A7B68136043
:10A0F000054A3B68136000BF0C37BD465DF8047B22
:10A10000704700BFE41F0022E81F002280B584B022
:10A1100002AF00237B601D491D48FFF7E1FF4FF4AC
:10A1200005710120F9F76AFB03461A4A1360194BBF
:10A130001B68002B05D11848F9F784FA4FF0FF335C
:10A1400020E00A230193142300934FF4805300224C
:10A1500012491348FAF7ACFF38600E4B1B681846DB
:10A16000002300220F49F6F7B5FB0120FFF7F4FAB0
:10A170003B68002B05D07B68002B02D13868FAF7CA
:10A18000DFFE002318460837BD4680BD0066020288
:10A19000A0640202EC1F0022588D0202159B0002EF
:10A1A000708D0202788D020280B584B000AF7860B5
:10A1B00039607B68002B04D1CA2218491848F9F786
:10A1C0005BFB3B6800221A60786807F04FF9F86083
:10A1D000FB68002B01D100231CE07B681B687A68B8
:10A1E0005268C2F35E021A443B681A607B68DB68FF
:10A1F0007A685268C2F35E029B1A1A46FB68934261
:10A2000001D2FB6806E07B68DB687A685268C2F3BB
:10A210005E029B1A18461037BD4680BDAC8F020205
:10A22000CC8D020280B584B000AF78600B467B8095
:10A230007B68002B04D1E42227492848F9F71CFB4E
:10A24000786807F013F9F860FB68002B01D1002350
:10A250003EE07B88FA689A4201D2FB687B807B688B
:10A26000DB687A685268C2F35E029A1A7B889A4267
:10A270000FDD7B685B68C3F35E031A467B8813447B
:10A2800023F000417A68536861F35F0353607B8871
:10A290001EE07B68DB689AB27B685B68C3F35E0391
:10A2A0009BB2D31A7B807B681B79C3F30003DBB2BC
:10A2B000DB43DBB203F00103D9B27A68137961F3AF
:10A2C000000313717A6853686FF35F0353607B88F0
:10A2D00018461037BD4680BDC88F0202CC8D0202E1
:10A2E00090B585B000AF78600B467B807B68002B13
:10A2F00005D14FF482722F492F48F9F7BDFA7B68D8
:10A30000DB689CB2786807F0B1F803469BB2E31AA9
:10A31000FB81FA897B889A420DD2FB897B80274892
:10A32000F9F790F97B68DB6819462548F9F78AF94F
:10A330002448F9F787F97B68DB687A689268C2F38A
:10A340005E029A1A7B889A420FDD7B689B68C3F392
:10A350005E031A467B88134423F000417A689368B1
:10A3600061F35F0393607B881FE07B681B7AC3F314
:10A370000003DBB2DB43DBB203F00103D9B27A683E
:10A38000137A61F3000313727A887B68DB6879685B
:10A390008968C1F35E015B1AD31A23F000417A6821
:10A3A000936861F35F0393607B8818461437BD465A
:10A3B00090BD00BFE48F0202CC8D0202DC8D020250
:10A3C000F08D0202188E020280B588B000AFF860EE
:10A3D000B9607A603B60FB68002B05D140F2351212
:10A3E0001F492048F9F748FAFB68BB61BB69002B9D
:10A3F00005D14FF49C721A491B48F9F73DFA7B6866
:10A40000FB613B687B611CE0BB695B6CDB68B86926
:10A41000984738613B69B3F1FF3F16D03B69DAB228
:10A42000FB691A70FB690133FB613B68013B3B60D0
:10A43000BB699B8B03F04003002B02D03B690A2BC6
:10A4400005D03B68002BDFD102E000BF00E000BF79
:10A450007A693B68D31A18462037BD4680BD00BFD5
:10A4600004900202208E0202308E020280B588B073
:10A4700000AFF860B9607A603B60FB68002B05D1E3
:10A480004FF4B1721D491E48F9F7F6F9FB68BB613C
:10A49000BB69002B05D140F2651218491948F9F73C
:10A4A000EBF97B68FB613B687B611DE0BB699B8BC3
:10A4B00003F04003002B09D0FB691B780A2B05D160
:10A4C000BB695B6C9B680D21B8699847BB695B6C85
:10A4D0009B68FA6912781146B8699847FB6901339D
:10A4E000FB613B68013B3B603B68002BDED17A6936
:10A4F0003B68D31A18462037BD4680BD149002022F
:10A50000208E0202308E020280B588B000AFF86063
:10A51000B9607A603B60FB68002B05D140F28F1276
:10A5200030493148F9F7A8F93B68002B01D10023E5
:10A5300053E0FB68FB61FB69002B02D07B68002BBA
:10A5400005D14FF4CA7227492848F9F795F9FB69F4
:10A550005B6DBB61FB689B8B03F48053002B2ED09B
:10A56000FB69DB6CC3F38F239BB21A463B689342B3
:10A5700011D91F48F9F766F8F968FB69DB6CC3F37A
:10A580008F239BB23A681B48F9F75CF81A48F9F731
:10A5900059F8002321E0BB69184606F067FF78618F
:10A5A0007A693B689A420AD23B689AB2BB699A833D
:10A5B000BB6910334FF0FF31184606F04DFCFBF736
:10A5C0003DFD3861BB693A687968184606F05EFE61
:10A5D00078613869FBF736FD7B6918462037BD4640
:10A5E00080BD00BF24900202208E0202448E02022F
:10A5F000DC8D0202708E0202188E020290B589B0C4
:10A6000000AFF860B9607A603B600023FB61FB68D3
:10A61000002B05D14FF4E6722A492B48F9F72CF9A3
:10A620003B68002B01D1002347E0FB68BB61BB699D
:10A63000002B02D07B68002B05D14FF4E872214932
:10A640002248F9F719F9BB699B6DFB61FB69002B87
:10A6500005D14FF4E9721B491D48F9F70DF9FAF7D6
:10A6600063FC0346002B05D0BB699B8B03F04003C2
:10A67000002B07D03B687A68B968F868FFF7F6FEE8
:10A6800003461AE0FB695B69012B01D1002314E04A
:10A69000FB6901225A61BB695B6C1C694FF4804302
:10A6A0003A687968B869A0477861FB6918334FF058
:10A6B000FF31184606F0D0FB7B6918462437BD46AB
:10A6C00090BD00BF34900202208E0202448E02022E
:10A6D000E48E020290B589B000AFF860B9607A608C
:10A6E0003B600023BB613B687B610023FB613B68EF
:10A6F000002B01D100236EE0FB68002B05D140F256
:10A70000FF1237493748F9F7B7F8FB683B613B69F7
:10A71000002B02D07B68002B05D140F2012230498A
:10A720003148F9F7A9F83B699B6DBB61BB69002B08
:10A7300005D14FF401722A492C48F9F79DF8FAF730
:10A74000F3FB0346002B05D03B699B8B03F04003D2
:10A75000002B07D03B687A68B968F868FFF786FE77
:10A76000034638E0BB695B69012B01D1002332E06D
:10A77000BB6901225A6127E0B8697A68FB69134412
:10A780003A68194606F0E4FC0246BB691A613B6967
:10A790005B6C1C697A68FB69D118BB691A694FF454
:10A7A00080433869A047BB691B69FA691344FB61A0
:10A7B000BB691B693A68D31A3B60BB6918334FF019
:10A7C000FF31184606F048FB3B68002BD4D1BB692B
:10A7D00000225A617B6918462437BD4690BD00BFF0
:10A7E00054900202208E0202448E0202E48E020283
:10A7F00090B58BB000AFF860B9607A603B60FB68E1
:10A80000002B05D14FF40F722A492B48F9F734F881
:10A810003B68002B01D1002348E0FB687B627B6A28
:10A82000002B02D07B68002B05D14FF41072214918
:10A830002248F9F721F87B6A9B6D3B62FBF7FEFB30
:10A84000F8613B6A5B69002B25D13B6A01225A61A2
:10A850003B6A3A687968184606F07AFCB861F8698C
:10A86000FBF7F0FB00237B613B6A07F11402114602
:10A870001846FFF799FC03461A463B6A1A617B6A41
:10A880005B6C1C6979693B6A1A694FF40043786A0A
:10A89000A047BB690AE03B6A3A687968184606F047
:10A8A00057FCB861F869FBF7CDFBBB6918462C373C
:10A8B000BD4690BD74900202208E0202448E0202B8
:10A8C00080B586B000AF78600B467B8000237B614B
:10A8D0007B68002B05D140F276226A496A48F8F776
:10A8E000CBFF7B683B613B69B3F85030002B1DD137
:10A8F0007B88B3F5004F0DD16448F8F7A3FE7B6861
:10A9000019466348F8F79EFE6248F8F79BFE6FF021
:10A910001503B2E07B68604A9A637B689B8B43F4C3
:10A9200080439AB27B689A830023A6E03B69B3F820
:10A9300050303F2B03D83B694022A3F850207B883E
:10A94000B3F5804F62D13B695B6C5B684FF480422A
:10A95000202138699847F860FB68012B21D13B69B9
:10A96000B3F8503024331846F8F70EFF78617B694E
:10A97000002B05D14FF4277242494848F8F77CFF75
:10A9800078697B6903F124013B69B3F850301A46BA
:10A9900006F094FB3B697A699A657B68404A9A6342
:10A9A00020E02420F8F7F0FE78617B69002B05D1C8
:10A9B00040F2AD2233493948F8F75EFF3B697A69C6
:10A9C0009A657B68374A9A633B695B6C5B684FF4B6
:10A9D00080420321386998477B691022002118467C
:10A9E000F7F7DCFE7B6900225A617B6900221A615D
:10A9F0007B691833184606F00DFA7B689B8B43F48D
:10AA000080439AB27B689A83002336E03B69B3F8AF
:10AA1000503024331846F8F7B7FE78617B69002B75
:10AA200005D14FF4327217491C48F8F725FF7B69AE
:10AA300000225A617B6900221A6178697B6903F1FF
:10AA400024013B69B3F850301A4606F037FB3B69E6
:10AA50007A699A657B68144A9A637B689A8B134B70
:10AA600013439AB27B689A833B695B6C5B684FF4D3
:10AA70000042032138699847002318461837BD461D
:10AA800080BD00BF90900202208E0202F88E02026A
:10AA90000C8F0202188E02026DA40002E48E0202E4
:10AAA000D5A60002FDA50002F1A700020080FFFF6D
:10AAB00080B584B000AF78600B467B800023FB60DC
:10AAC0007B68002B05D140F2EB2246494648F8F757
:10AAD000D3FE7B68BB60BB68DA6C444B1340002B31
:10AAE0001DD17B88B3F5005F0DD14148F8F7AAFD71
:10AAF0007B6819463F48F8F7A5FD3F48F8F7A2FDE7
:10AB00006FF015036AE07B683C4A5A637B689B8B55
:10AB100043F480539AB27B689A8300235EE0BB685B
:10AB2000DB6CC3F38F239BB23F2B05D8BA68D36C81
:10AB3000402161F39923D364BB68DB6CC3F38F239B
:10AB40009BB220331846F8F71FFEF860FB68002B15
:10AB500005D140F2063223492948F8F78DFEF868FE
:10AB6000FB6803F11E01BB68DB6CC3F38F239BB250
:10AB70001A4606F0A3FABB68FA685A657B68214A50
:10AB80005A637B88B3F5005F10D17B689B8B43F4DD
:10AB900000539AB27B689A83BB685B6C5B684FF426
:10ABA00000520321B8689847002317E0FB68002291
:10ABB0009A83FB681033184606F02CF97B689B8B50
:10ABC00043F480539AB27B689A83BB685B6C5B6882
:10ABD0004FF480520321B868984700231846103775
:10ABE000BD4680BDA4900202208E020200FCFF033D
:10ABF000F88E0202408F0202188E0202C9A30002E0
:10AC0000748F020209A5000280B584B000AF78609D
:10AC10000B467B807B68002B05D140F23132244902
:10AC20002448F8F729FE7B68FB607B6800225A63A2
:10AC3000FB685B6D002B01D1002335E07B88B3F509
:10AC4000005F0FD17B689B8B23F400539AB27B6823
:10AC50009A83FB685B6C5B684FF400520721F868CD
:10AC600098470EE07B689B8B23F480539AB27B68F5
:10AC70009A83FB685B6C5B684FF480520721F8682D
:10AC80009847FB685B6DBB60BB68002B05D14FF438
:10AC9000537207490848F8F7EFFDB868F8F7CCFD9C
:10ACA000FB6800225A65002318461037BD4680BD58
:10ACB000B8900202208E0202748F020280B584B026
:10ACC00000AF78600B467B807B68002B05D140F29B
:10ACD0005F322A492A48F8F7CFFD7B68FB607B6822
:10ACE00000229A63FB689B6D002B01D1002341E099
:10ACF000FB689B6DBB60BB68002B05D140F26932DD
:10AD00001E492048F8F7B8FD7B88B3F5004F0FD1F6
:10AD10007B689B8BC3F30E039AB27B689A83FB68B4
:10AD20005B6C5B684FF400420721F868984713E0BA
:10AD3000BB681833184606F063F97B689B8B23F4D5
:10AD400080439AB27B689A83FB685B6C5B684FF4C4
:10AD500080420721F8689847B868F8F76DFDFB68EE
:10AD600000229A65FB685C33082200211846F7F739
:10AD700015FD002318461037BD4680BDD090020255
:10AD8000208E0202E48E020280B584B000AF7860AB
:10AD90000023FB607B68002B05D14FF464721549DA
:10ADA0001548F8F769FD7B68BB60BB685B6C1B6985
:10ADB000002B05D140F292320E491048F8F75CFDA5
:10ADC000BB6800225A65BB6800229A65BB685B6C51
:10ADD0001B68002B08D0BB685B6C1B68BA684832E4
:10ADE0001146B8689847F860FB6818461037BD46AA
:10ADF00080BD00BFE8900202208E0202888F02020E
:10AE000080B584B000AF78600B467B807B68002BF8
:10AE100005D140F2A93233493348F8F72DFD7B685C
:10AE2000FB607B689B8B03F47043002B01D00023F5
:10AE300053E07B8803F48053002B07D07B689B8B07
:10AE400043F480539AB27B689A8306E07B689B8BBD
:10AE500043F400539AB27B689A83B7F90230002B0F
:10AE600007DA7B689A8B214B13439AB27B689A83EB
:10AE700006E07B689B8B43F480439AB27B689A839D
:10AE80007B8803F04003002B05D17B689B8B03F08C
:10AE90004003002B06D07B689B8B43F040039AB2A3
:10AEA0007B689A83FB685B6D002B08D17B689B8B6A
:10AEB00003F440539BB219467868FFF7F9FDFB682D
:10AEC0009B6D002B08D17B689A8B094B13409BB27A
:10AED00019467868FFF7F4FC002318461037BD4682
:10AEE00080BD00BFF8900202208E02020080FFFFAA
:10AEF00000C0FFFF80B584B000AF78607B68002B96
:10AF000005D140F2DE321C491C48F8F7B5FC7B68DD
:10AF1000FB607B689B7F012B02D96FF0FE0326E06C
:10AF20007B689B8B03F440539BB219467868FFF70C
:10AF30006BFE7B689A8B124B13409BB21946786864
:10AF4000FFF7BCFEFB6800221A62FB6800225A620F
:10AF5000FB685B6C5B6800220421F86898477B689B
:10AF60005B8B23F010039AB27B685A830023184648
:10AF70001037BD4680BD00BF08910202208E02023C
:10AF800000C0FFFF80B588B000AFF860B9607A609C
:10AF90000023FB61FB68002B05D14FF48C62404914
:10AFA0004048F8F769FCFB68BB61BB68013B082BB4
:10AFB00063D801A252F823F0EDAF0002DDAF00022A
:10AFC000FDAF00027BB0000255B000027BB0000272
:10AFD0007BB000027BB000026BB00002FB685B8BB1
:10AFE00043F020039AB2FB685A8354E0FB685B8B02
:10AFF00023F020039AB2FB685A834CE07B68002B55
:10B0000044D07B687B617B695B68C3F38F239AB212
:10B01000BB69DB6CC3F38F239BB29A4206D17B6979
:10B020001A89BB69B3F850309A4206D0BB699B7F3E
:10B03000002B02D06FF00F032EE0BB697A69483312
:10B0400007CA83E80700BB695B6C1B687968B8694D
:10B0500098471BE07B68002B1AD0BB695C33082241
:10B0600079681846F7F7FEFB12E07B68002B11D0D9
:10B070007B6840F243121A800CE0BB695B6C5B6832
:10B080007A68B968B8699847F86104E000BF02E0DF
:10B0900000BF00E000BFFB6918462037BD4680BDF9
:10B0A00018910202208E020280B586B000AFF860CF
:10B0B000B9607A603B60FB68002B05D140F2B35267
:10B0C00018491948F8F7D8FBFB687B617B690022B7
:10B0D0001A767B6900221A627B6900225A627B69B8
:10B0E000124A9A627B69124ADA627B69114A1A63D0
:10B0F0007B6900225A637B6900229A637B690E4A4E
:10B10000DA637B693A681A647B689BB21A46B9684D
:10B11000786906F0DAF938613B6918461837BD4698
:10B1200080BD00BF2C910202308E020289AD000268
:10B1300001AE0002F5AE000285AF000290B58BB003
:10B1400000AF786039607B68002B05D14FF4BB629B
:10B1500082498348F8F790FB3B68DBB2013B032B45
:10B1600000F2F18001A252F823F000BF7DB100028D
:10B170002DB200027DB10002A9B200020023BB6122
:10B180007B685B6D7B617B69002B05D140F2E452EB
:10B1900072497448F8F770FB3B681B12BB61BB69CE
:10B1A000002B0CD0FAF74AFF38617B69BA6992B27A
:10B1B00011461846FFF794F83869FAF743FF7B69A0
:10B1C000184606F053F9B861BB69002B00F0BD804A
:10B1D0007B689B8B03F48053002B11D07B699B8B86
:10B1E000002B0DD07B699B8B1A46BB69934207D31A
:10B1F0007B6900229A837B691033184605F000FFB3
:10B200007B681B6A002B05D07B681B6A7A68B9696A
:10B21000104698477B68DB6D002B00F098807B68B8
:10B22000DB6D7A68126E1046984790E000233B620F
:10B230007B689B6DFB61FB69002B05D140F20D62C1
:10B2400046494948F8F718FBFB69184606F00EF91D
:10B2500038623B6A002B19D17B685B6A002B05D0F2
:10B260007B685B6A7A680021104698477B689B8BF5
:10B2700003F48043002B05D0FB691833184605F012
:10B28000BFFE67E0FB6900225A6163E07B685B6C8C
:10B290001C69FB6903F124017B689B8B03F4404329
:10B2A0003A6A7868A04755E07B689B6D7B627B6A51
:10B2B000002B05D140F2376228492B48F8F7DCFA19
:10B2C0007B6A00225A617B685B6A002B05D07B6831
:10B2D0005B6A7A680021104698477B689B8B03F471
:10B2E0008043002B05D07B6A1833184605F088FE92
:10B2F00030E07A6A7B6A1B699BB219461046FEF7FA
:10B3000091FF7B6A184606F0B1F80346002B20D067
:10B310007B6A01225A610023FB607B6A07F10C0201
:10B3200011461846FEF740FF03461A467B6A1A612B
:10B330007B685B6C1C69F9687B6A1A694FF400438F
:10B340007868A04705E000BF04E000BF02E000BF4E
:10B3500000E000BF00BF2C37BD4690BD4491020203
:10B36000308E0202748F0202E48E020280B483B037
:10B3700000AF786039607B681B683A685A607B6808
:10B380001A683B681A607B683A681A603B687A689A
:10B390005A6000BF0C37BD465DF8047B704780B42F
:10B3A00083B000AF78607B681B687A6852685A6027
:10B3B0007B685B687A6812681A607B687A685A6092
:10B3C0007B685A687B681A6000BF0C37BD465DF821
:10B3D000047B704780B592B000AFF860B9607A60C6
:10B3E0000023BB630D237B61FB685B681B04BB61AF
:10B3F0000123FB62FB681B687A6807F11401184699
:10B4000002F056FC78647B6C002B01D07B6C06E06C
:10B41000BB68002B02D0FA69BB681A60002318468B
:10B420004837BD4680BDFFFF80B58AB000AFF860E9
:10B43000B9607A60BB681846F4F766FF03467B6222
:10B4400000233B62F4F716FFF861F4F713FF02469E
:10B45000FB69D31A1A467B6A9342B4BF01230023C7
:10B46000DBB2BB6107F1140305221946F868FFF748
:10B47000B1FF38623B6A002B0BD01A48F8F7E2F8AC
:10B48000396A1948F8F7DEF81848F8F7DBF83B6A2C
:10B4900023E07B68002B05D07B681A687B691A4320
:10B4A0007B681A60BB69002B0BD00E48F8F7CAF80E
:10B4B0000F48F8F7C7F80D48F8F7C4F86FF07303B2
:10B4C0000BE07B6903F48073002BBED07B695B0AC1
:10B4D00003F00F03072BB8D03B6A18462837BD4648
:10B4E00080BD00BF5891020268910202849102025D
:10B4F0008C91020290B5B5B002AFF860B9607A6085
:10B500003B60FB681B68C7F8BC30D7F8BC0002F092
:10B5100057FB07F11403142200211846F7F73EF9F0
:10B5200007F18C03302200211846F7F737F907F1AD
:10B530005C03302200211846F7F730F907F12803A1
:10B54000342200211846F7F729F907F18C03BB6173
:10B5500007F128037B61BB68C7F89030FB68B3F83C
:10B560004E3003F00203002B04D1D7F890305B0279
:10B57000C7F890305123C7F8A4304FF40073BB6272
:10B580003B68FB623B68012B1AD9FB681B681B6B8D
:10B5900003F00803002B03D097F8D830002B08D114
:10B5A00007F15C03FB610C23FB6500233B668223F0
:10B5B0007B671223C7F8C4301923C7F8C03007E0EF
:10B5C0000023FB611123C7F8C4301823C7F8C0302B
:10B5D000FB681B681B6B03F00803002B0BD1FB6897
:10B5E000B3F84E301BB2002B05DA002242F2107184
:10B5F000F868FFF719FF97F8D830002B11D1D7F86A
:10B60000C430C7F88C30BB6B43F00203BB63FB68EC
:10B61000B3F84E30C3F30E039AB2FB68A3F84E2082
:10B6200010E0D7F8C030C7F88C30BB6B43F0010393
:10B63000BB63FB68B3F84E20234B13439AB2FB68FD
:10B64000A3F84E2007F12803F968184602F03EFEE1
:10B650007B683B6307F114031946D7F8BC0002F07E
:10B66000D8FAD7F8BC0002F0BAFAD7F8AC30002B01
:10B6700005D17B6B002B02D1FB6F002B1ED0134832
:10B68000F7F7E0FF1248F7F7DDFF1248F7F7DAFFA8
:10B690000E48F7F7D7FFD7F8AC10786BFC6FBB6B91
:10B6A000BA6801920093234602460B48F7F7CAFF97
:10B6B0000848F7F7C7FF6FF0FE0300E000231846C5
:10B6C000CC37BD4690BD00BF0080FFFF58910202FD
:10B6D000A491020284910202C091020280B483B05C
:10B6E00000AF7860002318460C37BD465DF8047B38
:10B6F000704780B483B000AF78600B467B80002336
:10B7000018460C37BD465DF8047B704780B483B0A3
:10B7100000AF7860002318460C37BD465DF8047B07
:10B720007047FFFF2DE9B04388B000AFF860B96003
:10B730007A60FB681B6CFB61BB6841F26822934234
:10B7400027D0BB6841F26822934245DCBB6840F2D7
:10B750000522934215D0BB6840F2052293423BDCA0
:10B76000BB68214A93421CD0BB6840F2012293423D
:10B7700032D1FB696033102219467868F7F772F806
:10B780002BE0FB695033102219467868F7F76AF806
:10B7900023E0FB696833042219467868F7F762F8FA
:10B7A0001BE0FB699B6E002298469146FB69D3E93A
:10B7B000182302FB09F008FB03F10144A8FB024532
:10B7C0004B191D46C7E9044507F110030822194625
:10B7D0007868F7F747F800E000BF002318462037E5
:10B7E000BD46BDE8B08300BF7212088080B58EB040
:10B7F00002AFF860B9607A603B600023FB6200230F
:10B80000BB620023FB613B687B627B683B62FB6839
:10B810001B6CBB61BB6950337B61FB68002B05D19E
:10B820006FF01500F6F77CFF002344E07B69DB68CE
:10B830004FF0FF311846F5F729FA26E0BB691B6F78
:10B840007A6A934228BF1346FB61BB6918687B691B
:10B850005A68BB6813441A46BB6AD1180023009388
:10B86000FB693A6AFFF746FEF862FB6A002B10D1CB
:10B87000BA6AFB691344BB62FB695B023A6A134410
:10B880003B627A6AFB69D31A7B627B6A002BD5D153
:10B8900000E000BF7B69DB681846F5F707FAFB6A32
:10B8A000002B05D06FF00400F6F73AFF002302E00A
:10B8B0003A687B6AD31A18463037BD4680BD80B5DA
:10B8C0008EB002AFF860B9607A603B600023FB6223
:10B8D0000023BB620023FB613B687B627B683B62A9
:10B8E000FB681B6CBB61BB6950337B61FB68002B41
:10B8F00005D16FF01500F6F713FF002344E07B69D4
:10B90000DB684FF0FF311846F5F7C0F926E0BB6958
:10B910001B6F7A6A934228BF1346FB61BB691868A4
:10B920007B695A68BB6813441A46BB6AD118012365
:10B930000093FB693A6AFFF7DDFDF862FB6A002BB2
:10B9400010D1BA6AFB691344BB62FB695B023A6AB5
:10B9500013443B627A6AFB69D31A7B627B6A002BD1
:10B96000D5D100E000BF7B69DB681846F5F79EF98A
:10B97000FB6A002B05D06FF00400F6F7D1FE002320
:10B9800002E03A687B6AD31A18463037BD4680BD5C
:10B9900080B590B000AF78607B68B3F84E3003F0AC
:10B9A0000203002B01D000232CE07B681B681846A3
:10B9B00002F006F91023FB604FF400733B61412352
:10B9C0007B627B681B6807F10C010522184602F0B8
:10B9D0006FF9F8637B681B68184602F000F9FB6B8F
:10B9E000002B0ED00948F7F72DFE3B69FA6B19467C
:10B9F0000748F7F727FE0748F7F724FE6FF0FE0326
:10BA000000E0002318464037BD4680BD5891020231
:10BA1000D89102028491020280B588B002AFF8602A
:10BA2000B9607A603B600023FB75F868FFF7B0FFF0
:10BA30000346FB75FB7D002B01D0FB7D0DE0012053
:10BA4000F9F798FC002300933B687A68B968F868B6
:10BA5000FFF750FD0346FB75FB7D18461837BD46C2
:10BA600080BDFFFF2DE9B0438EB002AF78600023A8
:10BA7000BB6200237B6278210120F7F7BFFE78626A
:10BA80007B6A002B0BD19748F7F7DCFD9648F7F758
:10BA9000D9FD9648F7F7D6FD4FF0FF331DE17B68DF
:10BAA0001B681B6C7A681268D26B02FB03F35A0A9C
:10BAB0007B681B689B6B79680968496B01FB03F322
:10BAC0005B0A9A4228BF1A467B6A1A677B6A002281
:10BAD0005A657B6A00229A657B681B681A4607F1E3
:10BAE0000800002300931346814A0F21F7F724FD35
:10BAF00007F10803002201211846F4F72FFF024640
:10BB00007B6ADA657B6A012283F824207B6A794AA2
:10BB10005A637B6A784A9A637B6A784ADA637B6AFB
:10BB2000774A1A647B6A774A5A647B6A764A9A64CF
:10BB30007B6A7A681A607B6A4FF400729A667B6847
:10BB40001A6C7B6ADA667B68DB6B5B0000229846C6
:10BB500091467B6AC3E918897B6A7A6ADA647B6AF0
:10BB600003F10C007B681B680322194605F0ADFC4D
:10BB70007B6A043319466548FFF7F8FB002387F812
:10BB80002F30A2E078210120F7F738FE78627B6A37
:10BB9000002B09D15348F7F755FD5348F7F752FDED
:10BBA0005248F7F74FFD95E07B681B681B6C7A687D
:10BBB0001268D26B02FB03F35A0A7B681B689B6B0B
:10BBC00079680968496B01FB03F35B0A9A4228BF55
:10BBD0001A467B6A1A677B6A503397F82F201946FA
:10BBE000786800F0BDFF034687F8233097F82330CC
:10BBF000002B5FD17B681B681A4697F82F3007F13E
:10BC0000180000931346424A0921F7F795FC7B6818
:10BC10001B681A4697F82F30013307F1080000938C
:10BC20001346334A0F21F7F787FC07F10803002278
:10BC300001211846F4F792FE02467B6ADA657B6AB8
:10BC4000012283F824207B6A2A4A5A637B6A2A4AA3
:10BC50009A637B6A294ADA637B6A294A1A647B6A97
:10BC6000284A5A647B6A284A9A647B6A7A681A600E
:10BC70007B6A4FF400729A667B681A6C7B6ADA669C
:10BC80007B6A9B6D00221C4615467B6AC3E91845FA
:10BC90007B6A7A6ADA647B6A0C3307F11801032243
:10BCA000184605F012FC7B6A043319461748FFF763
:10BCB0005DFB05E0786AF7F7BFFD00237B6209E0D2
:10BCC00097F82F30013387F82F3097F92F30002B5A
:10BCD000BFF658AF00F0CEFFBB6A18463037BD46FE
:10BCE000BDE8B083589102020492020284910202DC
:10BCF00020920202DDB60002F3B600020DB7000288
:10BD0000EDB70002BFB8000225B70002D40100223F
:10BD10002C9202022DE9B04390B002AF786000236C
:10BD20007B630023FB627868FFF732FE78637B6BEE
:10BD3000002B01D07B6B81E10120F9F71BFB4FF455
:10BD40000070F7F721FDB862BB6A002B0BD1A64843
:10BD5000F7F778FCA548F7F775FCA548F7F772FCEC
:10BD60006FF00B036AE1002300930123BA6A0021FC
:10BD70007868FFF7BFFB034687F8273097F827302E
:10BD8000002B40F04B8178210120F7F737FDF86256
:10BD9000FB6A002B0BD19448F7F754FC9548F7F752
:10BDA00051FC9348F7F74EFC4FF0FF3346E17B68B8
:10BDB0001B681B6C7A681268D26B02FB03F35A0A89
:10BDC0007B681B689B6B79680968496B01FB03F30F
:10BDD0005B0A9A4228BF1A46FB6A1A67FB6A00226E
:10BDE0005A65FB6A00229A657B681B681A4607F150
:10BDF0000C000023009313467F4A0F21F7F79CFBAA
:10BE000007F10C03002201211846F4F7A7FD0246B2
:10BE1000FB6ADA65FB6A012283F82420FB6A774A11
:10BE20005A63FB6A764A9A63FB6A764ADA63FB6A6C
:10BE3000754A1A64FB6A754A5A64FB6A744A9A64C2
:10BE4000FB6A7A681A60FB6A4FF400729A667B6834
:10BE50001A6CFB6ADA667B68DB6B5B000022984633
:10BE60009146FB6AC3E91889FB6AFA6ADA64FB6ADD
:10BE700003F10C007B681B680322194605F025FBC3
:10BE8000FB6A043319466348FFF770FA002387F80A
:10BE90003330A2E078210120F7F7B0FCF862FB6AAA
:10BEA000002B09D15048F7F7CDFB5248F7F7CAFBF2
:10BEB0004F48F7F7C7FBBDE07B681B681B6C7A68CF
:10BEC0001268D26B02FB03F35A0A7B681B689B6BF8
:10BED00079680968496B01FB03F35B0A9A4228BF42
:10BEE0001A46FB6A1A67FB6A503397F83320B96A1F
:10BEF000184607F01DFA034687F8273097F82730D1
:10BF0000002B5FD17B681B681A4697F8333007F126
:10BF10001C0000931346404A0921F7F70DFB7B688C
:10BF20001B681A4697F83330013307F10C00009371
:10BF30001346314A0F21F7F7FFFA07F10C030022ED
:10BF400001211846F4F70AFD0246FB6ADA65FB6A2E
:10BF5000012283F82420FB6A284A5A63FB6A284A94
:10BF60009A63FB6A274ADA63FB6A274A1A64FB6A08
:10BF7000264A5A64FB6A264A9A64FB6A7A681A60FF
:10BF8000FB6A4FF400729A667B681A6CFB6ADA6689
:10BF9000FB6A9B6D00221C461546FB6AC3E91845E7
:10BFA000FB6AFA6ADA64FB6A0C3307F11C010322AC
:10BFB000184605F08AFAFB6A043319461548FFF75C
:10BFC000D5F905E0F86AF7F737FC0023FB6231E0AA
:10BFD00097F83330013387F8333097F833300F2B2D
:10BFE0007FF658AF26E000BF589102023492020259
:10BFF000849102020492020220920202DDB6000243
:10C00000F3B600020DB70002EDB70002BFB80002A0
:10C0100025B70002D40100222C9202020A48F7F749
:10C0200011FB0A48F7F70EFB0948F7F70BFB6FF017
:10C03000FE037B63B86AF7F7FFFB7B6B1846383764
:10C04000BD46BDE8B08300BF589102026092020273
:10C050008491020280B584B000AF78600023FB6059
:10C06000786800F053FD0346002B05D07868FFF791
:10C07000F9FC0346FB6004E07868FFF74BFE0346DB
:10C08000FB60FB6818461037BD4680BD80B586B0A2
:10C0900000AF78601D4B1B687B617B691B683B614F
:10C0A0002AE07B69043BFB60FB681B687A689A4264
:10C0B0001DD1FB680C33184607F00EF9B860BB6859
:10C0C000002B02D0B86807F00DFBFB68DB6D18464B
:10C0D000F4F79AFCFB680C33184605F021FAFB686C
:10C0E00004331846FFF75BF9F868F7F7A5FB3B69DF
:10C0F0007B613B691B683B617B69044A9342D0D1F9
:10C1000000BF00BF1837BD4680BD00BFD40100226C
:10C1100090B585B000AF3C4684E80F003B46102246
:10C1200007F120011846F6F74BFC03461846143772
:10C13000BD4690BD80B582B000AF78607B68002BB3
:10C1400004D1252205490648F7F796FB7B685B6C0E
:10C15000013B18460837BD4680BD00BFE496020289
:10C160008092020280B483B000AF78607B681B7954
:10C17000EE2B05D17B689B68012B03D1012303E0E3
:10C1800000BF00E000BF002318460C37BD465DF835
:10C19000047B7047B0B588B000AFF860C7E90023F2
:10C1A00000233B610023BB6100237B61FB68002B04
:10C1B0006ED0FB68B3F8FE319BB24AF6552293422B
:10C1C00066D10023FB6113E0FB691B0103F5DC73FF
:10C1D000FA68134406331846FFF7C4FF78617B6999
:10C1E000012B02D1FB69BB6109E0FB690133FB61F3
:10C1F000FB69032BE8DD7B69012B4BD100BF0023DA
:10C20000FB6116E0FA68FB691B01134403F5E17357
:10C210001B78EE2B0AD0FA68FB691B01134403F567
:10C22000E1731B78002B01D002237B61FB69013392
:10C23000FB61FB69032BE5DD7B69012B2CD1FA68DF
:10C24000BB691C331B011344D3F80A303B613B68C4
:10C25000013B3A699A421FD03B69B3F1FF3F1BD0C3
:10C260001048F7F7EFF9D7E90023541E43F1FF35E3
:10C2700022462B46012B03D34FF0FF324FF0000331
:10C2800039690948F7F7DEF90848F7F7DBF904E000
:10C2900000BF02E000BF00E000BF7B691846203706
:10C2A000BD46B0BD90920202A0920202DC92020250
:10C2B00080B584B000AF786039603B68002B01D155
:10C2C000002327E03B681B6D3A68526D02FB03F3C5
:10C2D000FB60FB68002B01D100231BE0F868F7F737
:10C2E00053FAB860BB68002B01D1002312E0396813
:10C2F0008A6CCB6C1146FB685B0ABA687868FFF7FA
:10C300008BFB0346002B04D0B868F7F795FA00239F
:10C3100000E0BB6818461037BD4680BD80B584B0CC
:10C3200000AF786039604FF40070F7F72DFAF860CD
:10C33000FB68002B01D1002310E00123FA68396863
:10C340007868FFF769FB0346002B04D0F868F7F71D
:10C3500073FA002302E0FB68BB60BB681846103725
:10C36000BD4680BDFFFFFFFF2DE9B04F8AB002AF91
:10C3700078613961FA60BB60BB68002B01D1002392
:10C38000E5E039697869FFF7C9FF0246FB681A6082
:10C39000FB681B68002B01D10023D8E0FB681968FB
:10C3A0000A684B686E486F498B4208BF824212D0C0
:10C3B0006D48F7F747F9FB6819680A684B6866A18A
:10C3C000D1E90001CDE900016848F7F73BF9684879
:10C3D000F7F738F9B2E0FB681B68DB685B2B0ED817
:10C3E0006148F7F72FF9FB681B68DB685C22194688
:10C3F0006048F7F727F95E48F7F724F99EE0FB68F5
:10C4000019688A69CB69396900208A4683465B4589
:10C4100008BF524515D05448F7F714F9FB6819685E
:10C420008A69CB693969002039607860D7E90001F1
:10C43000CDE900015048F7F705F94D48F7F702F943
:10C440007CE07869FFF776FEF861FB6819688A6A14
:10C45000CB6AF969002088468146904579EB030351
:10C460000FD24148F7F7EEF8FB6819688A6ACB6A81
:10C47000F96900914148F7F7E5F83D48F7F7E2F828
:10C480005CE0FB6819680A6B4B6BF96900200C468D
:10C490000546944275EB03030FD23348F7F7D2F801
:10C4A000FB6819680A6B4B6BF96900913448F7F720
:10C4B000C9F82F48F7F7C6F840E0FB681B68186B0F
:10C4C000596BFB681C68A26AE36A904271EB030334
:10C4D00015D22548F7F7B6F8FB681B68186B596B3F
:10C4E000FB681C68A26AE36ACDE9002302460B469A
:10C4F0002348F7F7A7F81E48F7F7A4F81EE0FB68F3
:10C500001B685B6D802B09D01748F7F79BF81D4817
:10C51000F7F798F81648F7F795F80FE0FB681B68EF
:10C5200019467869FFF7C4FE0246BB681A60BB680B
:10C530001B68002B01D0012309E000BFFB681B68CA
:10C540001846F7F779F9FB6800221A6000231846AD
:10C550002037BD46BDE8B08F454649205041525472
:10C560004546492050415254E4920202F49202029C
:10C57000DC92020230930202689302028C93020260
:10C58000B8930202E49302022DE9B04F8AB004AFDF
:10C590007860396007F1080300221A605A609A60D7
:10C5A000DA607C686D4607F108030FCB85E80F0061
:10C5B0002368184663681946A3681A46E468234648
:10C5C000FFF7A6FD0346002B15D079680A6A4B6A6F
:10C5D000396800208A46834692457BEB03030AD3E1
:10C5E00079688A6ACB6A3968002088468146904516
:10C5F00079EB030301D2002300E00123184618372A
:10C60000BD46BDE8B08FFFFF2DE9B04F8AB004AF43
:10C61000F860B9607A6000237B61FB68002B00F052
:10C620006681BB68002B00F06281FB689869D9695C
:10C63000BC68226A636A994208BF90421ED0AF4824
:10C64000F7F700F8AE48F6F7FDFFAE48F6F7FAFF49
:10C65000AA48F6F7F7FFFB689869D969BC68226AAF
:10C66000636ACDE9002302460B46A748F6F7EAFFC6
:10C67000A448F6F7E7FF7B6901337B61FB68186A22
:10C68000596ABC68A269E369994208BF90421ED00A
:10C690009A48F6F7D7FF9D48F6F7D4FF9948F6F782
:10C6A000D1FF9648F6F7CEFFFB68186A596ABC6856
:10C6B000A269E369CDE9002302460B469248F6F7EA
:10C6C000C1FF9048F6F7BEFF7B6901337B61FB68D1
:10C6D000986AD96ABC68A26AE36A994208BF904224
:10C6E0001ED08648F6F7AEFF8948F6F7ABFF8548BF
:10C6F000F6F7A8FF8148F6F7A5FFFB68986AD96AA4
:10C70000BC68A26AE36ACDE9002302460B467E4874
:10C71000F6F798FF7B48F6F795FF7B6901337B615D
:10C72000FB68186B596BBC68226B636B994208BF3E
:10C7300090421ED07148F6F785FF7648F6F782FFE3
:10C740007048F6F77FFF6D48F6F77CFFFB68186BC3
:10C75000596BBC68226B636BCDE9002302460B4624
:10C760006948F6F76FFF6748F6F76CFF7B6901339E
:10C770007B61FC68BB686D463833186859689A68F5
:10C78000DB680FC5A36B1846E36B1946236C1A468A
:10C79000646C2346FFF7BCFC0346002B0BD05748C4
:10C7A000F6F750FF5C48F6F74DFF5648F6F74AFF9C
:10C7B0007B6901337B61FB681A6DBB681B6D9A4214
:10C7C00010D04E48F6F73EFFFB68196DBB681B6D35
:10C7D0001A465248F6F736FF4A48F6F733FF7B69A8
:10C7E00001337B61FB685A6DBB685B6D9A4210D068
:10C7F0004248F6F727FFFB68596DBB685B6D1A4628
:10C800004748F6F71FFF3F48F6F71CFF7B690133E7
:10C810007B61FB689A6DBB689B6D9A4210D037486C
:10C82000F6F710FFFB68996DBB689B6D1A463D4893
:10C83000F6F708FF3348F6F705FF7B6901337B61A4
:10C84000F9680A6A4B6A796800208A4683465B4524
:10C8500008BF524519D02948F6F7F4FE3248F6F7DA
:10C86000F1FE2848F6F7EEFE2448F6F7EBFEF968ED
:10C870000A6A4B6A796800912348F6F7E3FE21487B
:10C88000F6F7E0FE7B6901337B61B9688A69CB69A1
:10C8900079680020884681464B4508BF424519D03B
:10C8A0001648F6F7CFFE2148F6F7CCFE1548F6F706
:10C8B000C9FE1248F6F7C6FEB9688A69CB6979687D
:10C8C00000911148F6F7BEFE0E48F6F7BBFE7B69F5
:10C8D00001337B617B69002B0BD00848F6F7B2FE71
:10C8E0001348F6F7AFFE0748F6F7ACFE01E000BFCD
:10C8F00000E000BF1837BD46BDE8B08F909202023D
:10C900000C940202DC92020240940202549402024D
:10C9100090940202B4940202D8940202F4940202A7
:10C920002895020264950202A8950202F09502027F
:10C9300028960202B0B590B000AFF860B9607A6096
:10C940000023BB630023FB6300237B6300233B6264
:10C950000023FB610023BB6100237B61F868FFF7C4
:10C96000E9FB034601333B630023FB627B68002B3A
:10C9700001D10023B7E0F868FFF7DCFBB8625C4B3D
:10C980001B68002B37D14FF40070F6F7FDFE78627C
:10C990007B6A002B00F0898001237A6A0021F86805
:10C9A000FFF73AF8F862FB6A002B0AD05148F6F715
:10C9B00049FEF96A5048F6F745FE5048F6F742FE40
:10C9C0007AE03B6B00221C46154622462B46786ACD
:10C9D000FFF7E0FB7863786AF6F72EFF7B6B002B9E
:10C9E00065D07B6B012B01D1454B00E0454B1946CF
:10C9F0004548F6F727FE07F1180307F12002012149
:10CA0000F868FFF7B1FCB863BB6B002B51D0396AF3
:10CA10000A6A4B6A114607F1140307F11C02F86811
:10CA2000FFF7A2FCF863FB6B002B0CD1304B1B68AB
:10CA3000002B08D007F1140307F11C02B96AF8684B
:10CA4000FFF792FCF863BB6B002B02D1FB6B002B52
:10CA500031D03B6AF969BA6A1846FFF7D5FDBB6B5E
:10CA6000002B0FD03A6ABB681A60BA697B681A60FB
:10CA7000FB691846F6F7E0FE7B691846F6F7DCFE20
:10CA8000012330E0FB6B002B13D0FA69BB681A60FE
:10CA90007A697B681A603B6A1846F6F7CDFEBB6977
:10CAA0001846F6F7C9FE01231DE000BF04E000BFF1
:10CAB00002E000BF00E000BF3B6A1846F6F7BCFE8C
:10CAC000FB691846F6F7B8FEBB691846F6F7B4FEE0
:10CAD0007B691846F6F7B0FEBB6800221A607B68D7
:10CAE00000221A60002318464037BD46B0BD00BF83
:10CAF000782000229092020254960202DC920202F6
:10CB0000609602026C9602027496020280B582B0B0
:10CB100000AF7860104A11497868FFF70BFF0346B1
:10CB2000002B07D00D4B1B68002B03D00A4B1B6852
:10CB3000002B0BD1094B1B681846F6F77DFE064B00
:10CB40001B681846F6F778FE002300E0012318461C
:10CB50000837BD4680BD00BF802000227C20002217
:10CB600090B589B002AFF860B9607A603A4B1A6844
:10CB70007B68DB01D418F868FFF7DCFA0346194636
:10CB80002046FFF701FD0346002B02D14FF0FF3393
:10CB90005DE0314B1A687B68DB01D1180A6A4B6A89
:10CBA000BB685A602C4B1A687B68DB01D1188A6A13
:10CBB000CB6A1046284B1A687B68DB01D1180A6AD9
:10CBC0004B6A1346C31A5A1CBB689A60224B1A68F8
:10CBD0007B68DB011344186A596A1F4B1A687B682B
:10CBE000DB01D418A26AE36ACDE9002302460B46B2
:10CBF00079681A48F6F726FDBB689B68DB0A002BAC
:10CC000008D1BB689B685B08154A19461548F6F7BA
:10CC100019FD1BE0BB689B68DB0A7B617B699B0A93
:10CC2000002B0AD1BB689B685B08C3F309020E4B5B
:10CC300079690E48F6F706FD08E07B69990A7B6979
:10CC4000C3F309020A4B0948F6F7FCFC0023184617
:10CC50001C37BD4690BD00BF802000228C9602028A
:10CC6000C8960202CC960202D4960202D89602021C
:10CC7000E096020280B500AF054B1B681846F6F738
:10CC8000DBFD044B1B681846F6F7D6FD00BF80BDE0
:10CC9000802000227C20002280B48BB000AFF8609E
:10CCA000B9607A607B683B623B6A1F2B05DC01221E
:10CCB0003B6A02FA03F3013B01E04FF0FF33FB61F3
:10CCC000BB685B09C3F10303BB61BB6803F01F03CF
:10CCD0007B61BB699B00FA6813441A687B6922FA7E
:10CCE00003F37B623A6A7B691344202B16DDBA6931
:10CCF0006FF0404313449B00FA6813441A687B6941
:10CD0000C3F12003594203F01F0301F01F0158BF74
:10CD10004B4202FA03F37A6A13437B627A6AFB6935
:10CD2000134018462C37BD465DF8047B7047FFFF63
:10CD300080B586B000AF78607B6854337B617B68D8
:10CD400018333B6102227E213869FFF7A5FF0346B5
:10CD5000DAB27B691A707B691B78002B0ED17D4893
:10CD6000F6F770FC7B691B7819467B48F6F76AFC7E
:10CD70007A48F6F767FC6FF0FE03E6E008227021C0
:10CD80003869FFF789FF0346DAB27B695A700822D7
:10CD900068213869FFF780FF0346DAB27B699A7031
:10CDA000082260213869FFF777FF0346DAB27B6912
:10CDB000DA700C2254213869FFF76EFF03469AB2ED
:10CDC0007B699A80042250213869FFF765FF03468A
:10CDD000DAB27B699A7101224F213869FFF75CFF53
:10CDE0000346DAB27B69DA7101224E213869FFF716
:10CDF00053FF0346DAB27B691A7201224D2138696A
:10CE0000FFF74AFF0346DAB27B695A7201224C21CE
:10CE10003869FFF741FF0346DAB27B699A720C2248
:10CE20003E213869FFF738FF02467B69DA6003224A
:10CE30002F213869FFF730FF0346DAB27B69DA72D7
:10CE400003221A213869FFF727FF0346DAB27B690C
:10CE50001A74042216213869FFF71EFF0346DAB25E
:10CE60007B695A74012215213869FFF715FF0346C3
:10CE7000DAB27B699A74072201213869FFF70CFF47
:10CE80000346DAB27B69DA747B699B791A4601231F
:10CE900093401A467B681A647B699B789BB21A465A
:10CEA000920013441A4691001A460B4613449B0005
:10CEB0009AB27B681A867B695B7803F00703284A7D
:10CEC00052F823307A695278D21002F00F022549C5
:10CED0008A5C02FB03F30933234AA2FB0323DA082B
:10CEE0007B685A637B69DB7803F007031F4A52F8BB
:10CEF00023307A69D278D21002F00F021C498A5C82
:10CF000003FB02F27B689A637B695B7C082B1BD96D
:10CF100005222A213869FFF7BFFEF8600522252186
:10CF20003869FFF7B9FEB860FB680133BA680132AF
:10CF300003FB02F27B689A647B689A6C7B695B7C7A
:10CF4000093B9A407B689A64002318461837BD460F
:10CF500080BD00BF509702026097020288970202CC
:10CF60002097020240970202CDCCCCCCF096020270
:10CF70001097020280B5A2B000AF786039603B68BC
:10CF800000221A607B68183304227A211846FFF7C2
:10CF900083FE0346032B01D800235BE04FF40070AF
:10CFA000F6F7F2FBC7F88400D7F88430002B0BD1DA
:10CFB0002A48F6F747FB2A48F6F744FB2948F6F7D4
:10CFC00041FB6FF00B0345E007F1700314220021D1
:10CFD0001846F5F7E3FB07F140033022002118461D
:10CFE000F5F7DCFB07F10C03342200211846F5F7B6
:10CFF000D5FB07F140037B6707F10C033B67082370
:10D000003B6400237B645123BB654FF40073FB60DA
:10D0100001233B610223FB61D7F884307B61124B13
:10D02000FB6200233B637B681B6807F170021146BB
:10D03000184600F0EEFD3B6E002B01D03B6E09E080
:10D04000BB69002B01D0BB6904E03B68D7F88420A2
:10D050001A60002318468837BD4680BD50970202EB
:10D06000909702028897020200A3E1112DE9B043D4
:10D0700086B000AF786039604FF000004FF00001DB
:10D08000C7E904017968002902D0396800290BD169
:10D090004A48F6F7D7FA4A48F6F7D4FA4948F6F775
:10D0A000D1FA4FF0FF3383E079680968F960F968D5
:10D0B000096B01F4C06100290CD07968B1F84E10F9
:10D0C00041F0100188B27968A1F84E0079683E48B5
:10D0D00088661EE0F968096B01F4E07100290CD044
:10D0E0007968B1F84E1041F0080188B27968A1F86A
:10D0F0004E007968354888660BE07968B1F84E10C3
:10D1000041F0010188B27968A1F84E0079682F4892
:10D1100088663968F931097808463968FA3109783A
:10D12000090208433968FB31097809040843396862
:10D13000FC3109780906014308467968C1F8A8005E
:10D140003968D4310968002088468146C7E90489D6
:10D150003869796848647968096C00200C4605468E
:10D16000796904FB01F0396905FB01F10144386973
:10D17000A0FB042319440B46C7E90423C7E9042391
:10D18000D7E9042352EA9F23C7E904233A697B685D
:10D19000DA630F48F6F756FA7B68D96B7B685B6CED
:10D1A0001A460C48F6F74EFA0648F6F74BFA0023F3
:10D1B00018461837BD46BDE8B08300BF509702023D
:10D1C000B89702028897020200C2EB0B00751903A0
:10D1D000E0970202F097020280B590B000AF78604D
:10D1E000084611461A460346FB700B46BB701346B1
:10D1F0007B707B681B68FB6307F10803302200210A
:10D20000184618F08BF90623BB60BB781B0443F06B
:10D2100040727B781B021A43FB781343FB600223A6
:10D220003B6207F1080303221946F86B00F040FD4A
:10D23000B863BB6B002B01D0BB6B00E0002318462A
:10D240004037BD4680BD80B586B000AFF860B9609C
:10D250007A607B68002B01D10023FAE007F110030C
:10D260001946F868FFF786FE78617B69002B02D1CA
:10D270003B69002B03D16FF0FE037B61E4E0BB68E8
:10D28000A0331A783B69A0331B789A4240F0D080D3
:10D29000BB68B5331A783B69B5331B789A4240F0C6
:10D2A000C780BB68C0331A783B69C0331B789A4289
:10D2B00040F0BE80BB68C2331A783B69C2331B782A
:10D2C0009A4240F0B580BB68C4331A783B69C433D6
:10D2D0001B789A4240F0AC80BB68D9331A783B691E
:10D2E000D9331B789A4240F0A380BB68DD331A78AB
:10D2F0003B69DD331B789A4240F09A80BB68DF338C
:10D300001A783B69DF331B789A4240F09180BB6802
:10D31000E0331A783B69E0331B789A4240F088800A
:10D32000BB68E5331A783B69E5331B789A427FD1B5
:10D33000BB68E6331A783B69E6331B789A4277D1AB
:10D34000BB68E7331A783B69E7331B789A426FD1A1
:10D35000BB68E8331A783B69E8331B789A4267D197
:10D36000BB68D4331A783B69D4331B789A425FD1B7
:10D37000BB68D5331A783B69D5331B789A4257D1AD
:10D38000BB68D6331A783B69D6331B789A424FD1A3
:10D39000BB68D7331A783B69D7331B789A4247D199
:10D3A000BB68C8331A783B69C8331B789A423FD1AF
:10D3B000BB68C9331A783B69C9331B789A4237D1A5
:10D3C000BB68CA331A783B69CA331B789A422FD19B
:10D3D000BB68CB331A783B69CB331B789A4227D191
:10D3E000BB68EC331A783B69EC331B789A421FD147
:10D3F000BB68ED331A783B69ED331B789A4217D13D
:10D40000BB68EE331A783B69EE331B789A420FD132
:10D41000BB68EF331A783B69EF331B789A4207D128
:10D42000BB68FD331A783B69FD331B789A4201D003
:10D43000012300E000237B617B69002B03D06FF0A8
:10D44000FE037B6100E000BF3B691846F6F7F4F984
:10D450007B6918461837BD4680BDFFFFB0B590B058
:10D4600000AF78603960704B07F114041D460FCD92
:10D470000FC495E8030084E803006C4A07F1080331
:10D4800007CA83E807007B681B683B630023FB62D5
:10D490000023BB6300237B637B68183304227A215B
:10D4A0001846FFF7F9FB0346032B01D80023B6E02B
:10D4B0007B68B3F84E3003F00803002B01D0022341
:10D4C0007B630023FB637EE0FB6BDB0007F1400224
:10D4D000134453F82C3C022B05D13B6B1B6B03F020
:10D4E0000203002B67D0FB6BDB0007F14002134403
:10D4F00053F82C3C012B05D13B6B1B6B03F0010354
:10D50000002B58D0FB6B9B0007F14002134453F8EB
:10D51000383CFB62FB6A002B01D100237B63FB6B71
:10D52000DB0007F14002134453F82C3CDBB2B72276
:10D5300001217868FFF750FEB863BB6B002B3CD12C
:10D54000F96A386B00F09FFEFA6A39687868FFF76D
:10D550007AFEB863BB6B002B3AD0FB6BDB0007F1A4
:10D560004002134453F82C3C022B1AD0022B26D82D
:10D57000002B02D0012B0AD021E02D48F6F762F8EB
:10D580002C48F6F75FF82C48F6F75CF818E02848C6
:10D59000F6F758F82948F6F755F82748F6F752F8FD
:10D5A0000EE02348F6F74EF82548F6F74BF82248E8
:10D5B000F6F748F804E000BF02E000BF00E000BF5B
:10D5C000FB6B0133FB63FB6B022B7FF67DAF00E04F
:10D5D00000BFBB6B002B10D17B6B002B0DD0FB6B06
:10D5E000DB0007F14002134453F8283CDBB2B722BA
:10D5F00001217868FFF7F0FDB863BB6B002B0DD1FC
:10D600007B68B3F84E3003F00903002B06D00123EA
:10D61000B92201217868FFF7DFFDB863BB6B1846BC
:10D620004037BD46B0BD00BF8C980202A4980202EC
:10D630005097020220980202889702024498020240
:10D640006898020280B592B000AFF860B9607A6065
:10D6500000233B6407F11003302200211846F5F740
:10D660009DF801233B61FB681B6B03F00803002B53
:10D6700001D1BB6800E000237B617423BB6264239B
:10D680007B6425E007F1100303221946F86800F0D7
:10D690000FFB38643B6C002B1ED1BB68002B1DD0E8
:10D6A000FB681B6B03F00803002B05D0BB6903F07C
:10D6B0000103002B03D114E0BB69002B10DB6FF0DA
:10D6C00073033B640A20F7F755FE7B6C013B7B64D8
:10D6D0007B6C002BD6D104E000BF02E000BF00E06D
:10D6E00000BF7B68002B08D0FB681B6B03F00803AE
:10D6F000002B02D1BA697B681A603B6C1846483728
:10D70000BD4680BD80B590B000AF7860396007F14C
:10D710000C03302200211846F5F740F80323FB6084
:10D720003B681B043B6101237B6207F10C0303226E
:10D730001946786800F0BCFAF863FB6B002B01D047
:10D74000FB6B00E0002318464037BD4680BDFFFF5D
:10D7500080B584B000AF78600223B92201217868D7
:10D76000FFF73AFDF860FB68002B01D0FB6810E082
:10D770007B681B680921184600F096FD7B681B68D2
:10D780000649184600F04AFD786801F03BF8F86059
:10D79000FB6818461037BD4680BD00BF00C2EB0BCA
:10D7A00080B584B000AF78600023FB607B68B3F87D
:10D7B0004E3003F01003002B04D07868FFF7C8FF49
:10D7C000F86023E07B68B3F84E3003F00803002BC9
:10D7D0000ED07B681B680821184600F065FD7B6849
:10D7E0001A687B689B6E1946104600F017FD0DE025
:10D7F0007B681B680121184600F056FD7B681A689B
:10D800007B689B6E1946104600F008FDFB681846C1
:10D810001037BD4680BDFFFF80B58AB000AF78608D
:10D8200039600023FB600023BB6000233B62786803
:10D8300000F066FA3B6843F0804307F10C0219469A
:10D840007868FFF7FFFE78627B6A002B40F0FC806F
:10D850007B681B6B03F00803002B08D0012178685C
:10D8600000F095FC78627B6A002B40F0DC807B68DE
:10D870001B6B03F00803002B07D007F110031946B8
:10D88000786800F0CFFA786206E007F110031946D5
:10D89000786800F09AFA78627B6A002B40F0D680B4
:10D8A000AC20F5F771FF38623B6A002B0CD16A4857
:10D8B000F5F7C8FE6948F5F7C5FE6948F5F7C2FEF9
:10D8C0006FF00B037B62C2E0AC220021386AF4F7F0
:10D8D00065FF3B6A0022A3F84C203B6A7A681A6015
:10D8E0003B6A01225A603B6A083307F1100110229B
:10D8F0001846F4F7B7FF7B681B6B03F00803002B97
:10D900000ED13B6A5B6819467868FFF7FBFE7862C8
:10D910007B6A002B40F089800221786800F0A2FC2D
:10D920003B6A18331946386A00F03AFB78627B6A22
:10D93000002B7CD1386AFFF7FBF978627B6A002BF9
:10D9400077D17B681B6B03F00803002B06D1386A84
:10D9500000F00EFC78627B6A002B6CD107F10803A3
:10D960001946386AFFF706FB78627B6A002B64D1A0
:10D97000BB681946386AFFF779FB78627B6A002B2F
:10D980005DD13B6AB3F84E3003F00203002B0DD19A
:10D99000FB6803F08043002B08D03B6AB3F84E309D
:10D9A00043F002039AB23B6AA3F84E20BB681946C3
:10D9B000386AFFF753FD78627B6A002B09D026484E
:10D9C000F5F740FE2748F5F73DFE2548F5F73AFE06
:10D9D00024E0386AFFF7E4FE78627B6A002B09D006
:10D9E0001D48F5F72FFE2048F5F72CFE1C48F5F7EB
:10D9F00029FE13E03B6AD3F8A830002B05D00123A1
:10DA000021220121386AFFF7E7FB7B683A6ADA6076
:10DA1000BB681846F5F710FF002319E0BB681846ED
:10DA2000F5F70AFF0CE000BF0AE000BF08E000BF06
:10DA300006E000BF04E000BF02E000BF00E000BF5E
:10DA4000386AF5F7F9FE02E000BF00E000BF7B6A2C
:10DA500018462837BD4680BD50970202B098020292
:10DA600088970202C4980202E098020280B584B04E
:10DA700000AF786039607B681B6B03F00803002BF4
:10DA800009D03B461A460021786800F074F9F86026
:10DA9000FB68002B37D13B681946786800F0BCFC66
:10DAA000B860BB68002B03D16FF0FE03FB602DE074
:10DAB000B9687868FFF7B0FEF860FB68002B24D1E6
:10DAC000786800F08CF87B68DB681846FEF7C2FACD
:10DAD000F860FB68002B04D1786800F071F800232F
:10DAE0001EE000BF786800F06BF87B68DB681846C2
:10DAF000FEF7CCFA7B68DB681846F5F79DFE7B687D
:10DB00000022DA6002E000BF00E000BF0648F5F73F
:10DB100099FD0648F5F796FD0548F5F793FDFB6876
:10DB200018461037BD4680BD50970202F898020291
:10DB30008897020280B485B000AF78602023FB6034
:10DB40007B68002B01D1002332E07A681B4B134025
:10DB5000002B05D17B681B047B60FB68103BFB60DE
:10DB60007B6803F07F43002B05D17B681B027B6041
:10DB7000FB68083BFB607B6803F07043002B05D11A
:10DB80007B681B017B60FB68043BFB607B6803F0E8
:10DB90004043002B05D17B689B007B60FB68023B08
:10DBA000FB607B68002B02DBFB68013BFB60FB68D2
:10DBB00018461437BD465DF8047B70470000FFFF30
:10DBC00080B582B000AF78607B684C334FF0FF3196
:10DBD0001846F3F759FC00BF0837BD4680BD80B535
:10DBE00082B000AF78607B684C331846F3F75CFC7A
:10DBF00000BF0837BD4680BD80B582B000AF7860F9
:10DC00007B687C331846F3F751F800BF0837BD46F0
:10DC100080BD80B582B000AF786039603B685B68DA
:10DC2000DA69013ADA613B685B6800221A623B6894
:10DC30005B683A68DA623B681B68002B1DD03B6862
:10DC40005B683A6812689A623B681B680022DA6077
:10DC50003B681B683A68DA613B689B68002B0CD014
:10DC60003B681B683A6892689A613B689B6800222F
:10DC70001A623B689B683A68DA627B681B691B68BA
:10DC80003968786898477B687C334FF0FF311846D5
:10DC9000F2F7FCFF3B685B681B6A002B04D03B6813
:10DCA0005B68DB69002BB9DC00BF0837BD4680BD6F
:10DCB00080B58AB000AFF860B9607A6007F11403EC
:10DCC000142200211846F4F769FDBB6808331022BE
:10DCD00000211846F4F762FDBB687A68DA61BB6818
:10DCE000BB61BB6800229A6207F114031946F86809
:10DCF000FFF78FFFBB681B6A18462837BD4680BDFB
:10DD000080B590B000AF78607B681B6B03F00803B0
:10DD1000002B06D10121786800F06FFA0120F7F797
:10DD200029FB07F10C03302200211846F4F736FDD9
:10DD30000023FB6000233B6160237B6207F10C033F
:10DD4000002219467868FFF7B3FFF8630120F7F760
:10DD500011FB7B681B6B03F00803002B06D100212D
:10DD6000786800F04AFA0120F7F704FBFB6B1846CD
:10DD70004037BD4680BD80B592B000AFF860B96055
:10DD80007A6007F11403302200211846F4F706FDEB
:10DD90003A237B61BB68002B02D04FF0804300E048
:10DDA0000023BB614FF48073FB6207F11403002270
:10DDB0001946F868FFF77CFF78643A6A7B681A6056
:10DDC0007B6C18464837BD4680BD80B590B000AF2B
:10DDD0007860396007F10C03302200211846F4F70F
:10DDE000DDFC0223FB6000233B6133237B6207F1F0
:10DDF0000C03032219467868FFF75AFFF863FB6BA0
:10DE0000002B01D0FB6B08E007F10C030833102254
:10DE100019463868F4F726FD002318464037BD46FA
:10DE200080BDFFFF80B5A4B000AF786039600023EB
:10DE3000C7F888307B681B6B03F00803002B30D1D8
:10DE40007B68DB68002B02D16FF0FE039EE007F1D8
:10DE50004003302200211846F4F7A0FC0A233B645B
:10DE60007B68DB685B681B047B640323BB6507F18D
:10DE70004003032219467868FFF71AFFC7F88400A9
:10DE8000D7F88430002B02D0D7F884307EE007F139
:10DE900040030833102219463868F4F7E3FC0023E6
:10DEA00074E01020F5F770FCC7F88800D7F88830C8
:10DEB000002B0BD13748F5F7C5FB3748F5F7C2FB08
:10DEC0003648F5F7BFFB6FF00B035FE007F1700317
:10DED000142200211846F4F761FC07F140033022B8
:10DEE00000211846F4F75AFC07F10C0334220021F4
:10DEF0001846F4F753FC07F140037B6707F10C0366
:10DF00003B670A233B6400237B645123BB651023DA
:10DF1000FB6001233B610223FB61D7F888307B6102
:10DF20000023FB6240233B6307F1700319467868C6
:10DF3000FFF76FFE3B6E002B02D1BB69002B06D0B2
:10DF4000D7F88800F5F778FC6FF0FE031EE0002399
:10DF5000C7F88C3011E0D7F88C309B00D7F88820B8
:10DF60001A44D7F88C309B0039680B4412681A6049
:10DF7000D7F88C300133C7F88C30D7F88C30032BAE
:10DF8000E9DDD7F88800F5F757FC002318469037ED
:10DF9000BD4680BD10990202209902023899020202
:10DFA00080B5A4B000AF786039600023C7F888302E
:10DFB0007B681B681B6B03F00803002B29D107F15A
:10DFC0004003302200211846F4F7E8FB09233B64A4
:10DFD0007B685B681B047B640323BB657B681B68F1
:10DFE00007F1400103221846FFF762FEC7F88400DC
:10DFF000D7F88430002B02D0D7F8843080E007F1C6
:10E0000040030833102219463868F4F72BFC00232C
:10E0100076E01020F5F7B8FBC7F88800D7F888300D
:10E02000002B0BD13848F5F70DFB3848F5F70AFB04
:10E030003748F5F707FB6FF00B0361E007F170035A
:10E04000142200211846F4F7A9FB07F140033022FF
:10E0500000211846F4F7A2FB07F10C03342200213B
:10E060001846F4F79BFB07F140037B6707F10C03AD
:10E070003B6709233B6400237B645123BB6510236A
:10E08000FB6001233B610223FB61D7F888307B6191
:10E090000023FB6240233B637B681B6807F170022F
:10E0A00011461846FFF7B5FD3B6E002B02D1BB6948
:10E0B000002B06D0D7F88800F5F7BEFB6FF0FE0303
:10E0C0001EE00023C7F88C3011E0D7F88C309B009D
:10E0D000D7F888201A44D7F88C309B0039680B4455
:10E0E00012681A60D7F88C300133C7F88C30D7F833
:10E0F0008C30032BE9DDD7F88800F5F79DFB002372
:10E1000018469037BD4680BD109902022099020240
:10E110003899020280B590B000AF7860396007F19D
:10E120000C03302200211846F4F738FB0723FB606C
:10E130003B68002B06D03B685B681B043B610123F6
:10E140007B6203E000233B6100237B6207F10C0349
:10E15000032219467868FFF7ABFDF863FB6B002BD1
:10E1600001D0FB6B00E0002318464037BD4680BD60
:10E1700080B582B000AF78607B681B68796818460C
:10E18000FFF7C8FF034618460837BD4680BD80B577
:10E1900090B000AF7860396007F10C0330220021A5
:10E1A0001846F4F7FBFA3B23FB6040237B623B6895
:10E1B0003B6107F10C03002219467868FFF778FDF0
:10E1C000F863FB6B002B02D13A687B689A64FB6BA7
:10E1D00018464037BD4680BD80B584B000AF78603A
:10E1E0007B681C33FB607B681B695B68F968786837
:10E1F000984700BF1037BD4680BD80B582B000AFE4
:10E20000786039603B68DAB27B6883F823207868ED
:10E21000FFF7E2FF00BF0837BD4680BD80B582B082
:10E2200000AF786039607B685B693A689A4208D2CF
:10E230000948F5F707FA0948F5F704FA0848F5F729
:10E2400001FA7B683A68DA617868FFF7C5FF00BFBA
:10E250000837BD4680BD00BF4099020250990202B6
:10E260003899020280B582B000AF786039603B68AF
:10E27000DAB27B6883F822207868FFF7ADFF00BF31
:10E280000837BD4680BD80B582B000AF7860396088
:10E290003B68DAB27B6883F825207868FFF79CFF3B
:10E2A00000BF0837BD4680BD80B582B000AF786042
:10E2B00039603B68DAB27B6883F826207868FFF71C
:10E2C0008BFF00BF0837BD4680BDFFFF80B487B01D
:10E2D00000AF786039603B68B3F84C30022B06D150
:10E2E0007B68464A1A627B6800225A6280E03B687B
:10E2F000B3F84C30012B01D1642300E00A237B6189
:10E300007B681B6903F00103002B06D03B6893F880
:10E3100064301A467B6993407B613B685B6B7A692A
:10E3200003FB02F27B681A623B681B8E1A467B690C
:10E3300003FB02F27B685A623B68B3F84C30012B56
:10E3400038D17B681B6A2E4AA2FB03239B09FB6022
:10E350007B685B6A4FF47A7203FB02F23B681B68CE
:10E36000DB692749A1FB03139B09B2FBF3F3FA68AE
:10E370001344FB607B681B6903F00103002B02D090
:10E38000204B3B6101E0204B3B61FA683B699A42BC
:10E3900006D83B68B3F84E3003F00203002B09D0D7
:10E3A0003B694FF47A7203FB02F27B681A627B6866
:10E3B00000225A623B681B681B6B03F00803002BAA
:10E3C00016D07B681B6903F00103002B08D07B6823
:10E3D0001B6A0E4A93420BD87B68084A1A6207E010
:10E3E0007B681B6A0A4A934202D87B68094A1A6210
:10E3F0001C37BD465DF8047B704700BF00CA9A3BDE
:10E40000D34D6210E0930400A0860100FFC99A3B3F
:10E41000FFE0F50500E1F50580B584B000AF786058
:10E4200039607B68DB6A3A6813403B603B6818469A
:10E43000F8F721F9F860FB68002B12D0FB68013B6C
:10E44000FB600322FB6802FA03F31A463B681340A1
:10E450003B60FB689AB27B681A847868FFF7BCFE61
:10E460000AE00848F5F7EEF80748F5F7EBF8074833
:10E47000F5F7E8F800233B603B6818461037BD46C7
:10E4800080BD00BF409902026099020238990202E1
:10E4900080B584B000AF78607B68DB6A1846FFF710
:10E4A00049FB0346013BFB60FB689AB27B681A8418
:10E4B0007B681B6B03F00803002B08D07B680122EC
:10E4C00083F823207B68022283F8222007E07B6800
:10E4D000002283F823207B68012283F822207B68B6
:10E4E000012283F824207B68002283F825207868A5
:10E4F000FFF772FE0A20F6F73DFF7B685A697B68DA
:10E50000DA617B68022283F824207868FFF764FED2
:10E510000A20F6F72FFF00BF1037BD4680BD80B53B
:10E5200082B000AF78607B680022DA617B680022ED
:10E530001A847B681B6B03F00803002B07D17B68F0
:10E54000012283F822207B68002283F823207B6845
:10E55000002283F824207B68002283F82520786835
:10E56000FFF73AFE00BF0837BD4680BD80B584B0D6
:10E5700000AF786007F10C037A6819460948F3F791
:10E580006FFC0346002B07D1FB68DB68002B01D131
:10E59000012303E0002301E06FF0730318461037F6
:10E5A000BD4680BD5C25002280B582B000AF78609A
:10E5B0007B6819460348F3F7F8FA00BF0837BD46F1
:10E5C00080BD00BF1825002280B586B000AF7860FE
:10E5D00007F110034FF0FF3219465748F3F740FC9C
:10E5E0000346002BF4D13B69DB68002B78D13B69F3
:10E5F0001846FFF7E5FA3B691846FFF749FF3B6904
:10E600001846FFF77DFB3A693B69DB6A19461046FD
:10E6100000F0F6FD3B6907F10C020021184601F0FD
:10E620008FF878617B69002B11D13B69FA6811463C
:10E63000184601F0ADFF0346002B03D03B69184696
:10E64000FFF76DFF3B691846FFF7C9FA72E03B69B7
:10E6500007F10C020021184600F06DFD78617B691E
:10E66000002B16D13B69FA681146184600F0C8FF26
:10E670000346002B03D03B691846FFF750FF3B6968
:10E680001846FFF7ACFA3B6919462C48F3F78DFAA8
:10E6900050E03B6907F10C0200211846FEF7D2FF5B
:10E6A00078617B69002B16D13B69FA6811461846E0
:10E6B000FFF7DCF90346002B03D03B691846FFF750
:10E6C0002EFF3B691846FFF78AFA3B6919461B483B
:10E6D000F3F76BFA2EE03B691846FFF780FA77E70D
:10E6E0003B691846FFF76CFA3B69DB6893F86C30BE
:10E6F000002B09D01248F4F7A5FF1248F4F7A2FF47
:10E700001148F4F79FFF0CE03B69DB681846FDF702
:10E71000BDFC3B69DB681846F5F78EF83B690022C3
:10E72000DA603B691846FFF75AFA3B691946034815
:10E73000F3F73BFA4CE700BF182500225C250022C6
:10E7400040990202889902023899020280B582B08B
:10E7500000AF7860B02200217868F4F71FF87B687A
:10E760000B221349184617F037F97B684FF6FF72F2
:10E770005A637B6801229A637B684FF40072DA6304
:10E780007B684FF480521A647B684C33002209493D
:10E790001846F2F7ABFB7B6803F17C0000230022F4
:10E7A0000549F2F797F800BF0837BD4680BD00BFA6
:10E7B000A8990202AC990202B899020280B582B00F
:10E7C00000AFB020F4F7E0FF78607B68002B0AD13F
:10E7D0000948F4F737FF0948F4F734FF0848F4F71D
:10E7E00031FF002303E07868FFF7B0FF7B6818462D
:10E7F0000837BD4680BD00BF10990202C0990202D1
:10E800003899020280B584B000AF78607B681B68DD
:10E81000BB60BB681B691B69002B01D1002310E0A2
:10E820007B68B3F84C30002B02D11523FB6001E06C
:10E830001323FB60BB681B691B69F968B8689847BC
:10E84000034618461037BD4680BDFFFF80B586B031
:10E8500004AF0023009304231E4A1F491F48F3F707
:10E8600009F878607B68002B05D040F2FB221C4938
:10E870001C48F5F701F80023009304231A4A1B49AA
:10E880001B48F2F7F7FF78607B68002B05D04FF448
:10E89000407213491348F4F7EFFF14230393162330
:10E8A00002934FF480630193124B00930023124AAA
:10E8B00012491348F6F700FB78607B68002B02D101
:10E8C0000F48F6F73DFB01F00BFF00231846083711
:10E8D000BD4680BD4C250022D49902021825002295
:10E8E0000C9A0202DC99020290250022EC990202A5
:10E8F0005C25002218210022C9E50002FC990202D1
:10E900008420002280B48BB000AFF860B9607A60D8
:10E910007B683B623B6A1F2B05DC01223B6A02FAE3
:10E9200003F3013B01E04FF0FF33FB61BB685B0980
:10E93000C3F10303BB61BB6803F01F037B61BB69C9
:10E940009B00FA6813441A687B6922FA03F37B621E
:10E950003A6A7B691344202B16DDBA696FF0404395
:10E9600013449B00FA6813441A687B69C3F12003BF
:10E97000594203F01F0301F01F0158BF4B4202FA36
:10E9800003F37A6A13437B627A6AFB691340184681
:10E990002C37BD465DF8047B7047FFFF80B584B01F
:10E9A00000AF78607B685433FB607B681833BB60D2
:10E9B00002227E21B868FFF7A5FF0346DAB2FB68A2
:10E9C0001A70FB681B78002B03D0012B00F0DE804F
:10E9D0008AE108227021B868FFF794FF0346DAB293
:10E9E000FB685A7008226821B868FFF78BFF03465E
:10E9F000DAB2FB689A7008226021B868FFF782FFDC
:10EA00000346DAB2FB68DA700C225421B868FFF7CB
:10EA100079FF03469AB2FB689A8004225021B868B5
:10EA2000FFF770FF0346DAB2FB689A7101224F21AB
:10EA3000B868FFF767FF0346DAB2FB68DA710122B4
:10EA40004E21B868FFF75EFF0346DAB2FB681A7220
:10EA500001224D21B868FFF755FF0346DAB2FB6883
:10EA60005A7201224C21B868FFF74CFF0346DAB214
:10EA7000FB689A720C223E21B868FFF743FF0246FA
:10EA8000FB68DA6003222F21B868FFF73BFF0346DB
:10EA9000DAB2FB68DA7203221A21B868FFF732FF94
:10EAA0000346DAB2FB681A7404221621B868FFF72D
:10EAB00029FF0346DAB2FB685A7401221521B868AF
:10EAC000FFF720FF0346DAB2FB689A7407220121A0
:10EAD000B868FFF717FF0346DAB2FB68DA74FB6821
:10EAE0009B791A46012393401A467B681A64FB6897
:10EAF000DB685A1CFB68DB7A02339A407B68DA6376
:10EB00007B68DB6B7A68126C03FB02F27B68DA636A
:10EB10007B68DB6B9A0A7B68DA63FB689B789BB245
:10EB20001A46920013441A4691001A460B461344A3
:10EB30009B009AB27B681A86FB685B7803F0070338
:10EB4000794A52F82330FA685278D21002F00F0254
:10EB500076498A5C02FB03F30933754AA2FB03235F
:10EB6000DA087B685A63FB68DB7803F00703714AB5
:10EB700052F82330FA68D278D21002F00F026E49B0
:10EB80008A5C03FB02F27B689A63BCE07B68B3F8A3
:10EB90004E3043F002039AB27B68A3F84E2008225D
:10EBA0007021B868FFF7AEFE0346DAB2FB685A7010
:10EBB00008226821B868FFF7A5FE0346DAB2FB68B1
:10EBC0009A7008226021B868FFF79CFE0346DAB20B
:10EBD000FB68DA700C225421B868FFF793FE0346F5
:10EBE0009AB2FB689A8004225021B868FFF78AFE27
:10EBF0000346DAB2FB689A7101224F21B868FFF729
:10EC000081FE0346DAB2FB68DA7101224E21B86850
:10EC1000FFF778FE0346DAB2FB681A7201224D2133
:10EC2000B868FFF76FFE0346DAB2FB685A7201223A
:10EC30004C21B868FFF766FE0346DAB2FB689A72A9
:10EC400016223021B868FFF75DFE0246FB68DA60E5
:10EC500003221A21B868FFF755FE0346DAB2FB68B3
:10EC60001A7404221621B868FFF74CFE0346DAB284
:10EC7000FB685A7401221521B868FFF743FE03466A
:10EC8000DAB2FB689A7407220121B868FFF73AFEEE
:10EC90000346DAB2FB68DA747B684FF400721A64D8
:10ECA000FB68DB6801335A027B68DA637B68DB6BE5
:10ECB0005A007B685A647B6800221A867B680022AF
:10ECC0005A63FB68DB7803F007031A4A52F82330D3
:10ECD000FA68D278D21002F00F0217498A5C03FB5F
:10ECE00002F27B689A630EE01448F4F7ABFCFB6811
:10ECF0001B7819461248F4F7A5FC1248F4F7A2FC59
:10ED00006FF0FE030CE01048F4F79CFC7B68DB6BB3
:10ED100019460E48F4F796FC0A48F4F793FC0023D2
:10ED200018461037BD4680BD509A0202709A020202
:10ED3000CDCCCCCC209A0202409A0202809A0202E8
:10ED4000909A0202B89A0202C09A0202D09A020273
:10ED500080B588B000AF78607B685033FB617B681A
:10ED6000DB6ABB617B689B6A7B6107F10C03042251
:10ED700038211846FFF7C6FD0346DAB2FB691A7060
:10ED800007F10C03042230211846FFF7BBFD0346B0
:10ED9000DAB2FB695A70002318462037BD4680BDA1
:10EDA00080B5A4B000AF78607B681B68C7F8883076
:10EDB0004020F4F7E9FCC7F88400D7F88430002B32
:10EDC0000BD16B48F4F73EFC6A48F4F73BFC6A4809
:10EDD000F4F738FC6FF00B03C6E07B68B3F84C30F7
:10EDE000012B40F0A7807B6893F85030002B00F097
:10EDF000A38007F14003302200211846F3F7CEFC30
:10EE000006233B645D4B7B641123BB6507F10C0358
:10EE1000342200211846F3F7C1FC07F10C0379688E
:10EE20001846FFF753FA4023FB6001233B6102239E
:10EE3000FB61D7F884307B6107F170031422002155
:10EE40001846F3F7ABFC07F140037B6707F10C03AF
:10EE50003B6707F170031946D7F88800FEF7D9FE23
:10EE60003B6E002B6FD1BB69002B6CD1D7F884307F
:10EE70000D331B7803F00203002B02D07B68404A5D
:10EE80009A6607F14003302200211846F3F786FC0A
:10EE900006233B643B4B7B641123BB6507F10C03EA
:10EEA000342200211846F3F779FC07F10C03796846
:10EEB0001846FFF70BFA4023FB6001233B61022356
:10EEC000FB61D7F884307B6107F1700314220021C5
:10EED0001846F3F763FC07F140037B6707F10C0367
:10EEE0003B6707F170031946D7F88800FEF791FEDB
:10EEF0003B6E002B29D1BB69002B26D1D7F884307B
:10EF000010331B7803F00F03012B09D01E48F4F7D0
:10EF100099FB1E48F4F796FB1748F4F793FB0CE0B7
:10EF20007B68B3F84E3043F001039AB27B68A3F8D4
:10EF30004E2002E000BF00E000BFD7F88400F4F7E5
:10EF40007BFC002310E000BF00E000BF3B6E002B05
:10EF500002D03B6EC7F88C30BB69002B02D0BB6976
:10EF6000C7F88C30D7F88C3018469037BD4680BD36
:10EF7000809A0202E89A0202B89A0202F1FFFF00A8
:10EF800080F0FA02F1FFFF80C09A0202009B0202A9
:10EF900080B590B000AF7860396007F10C03302283
:10EFA0000021184616F0BAFA3723FB603B68002BA5
:10EFB00006D03B685B681B043B6101237B6203E076
:10EFC00000233B6131237B6207F10C0300221946C9
:10EFD0007868FEF76DFEF863FB6B002B01D0FB6BCE
:10EFE0000EE07B681B6B03F00803002B07D17B69E5
:10EFF00003F02003002B02D16FF0FE0300E000239A
:10F0000018464037BD4680BD80B58CB000AFF86073
:10F01000B9607A603B606FF0FE03BB620023FB6265
:10F0200049E007F11403142200211846F3F7B6FB58
:10F03000B968F868FFF7ACFFB862BB6A002B0CD068
:10F04000FB681B6B03F00803002B30D07B689B68C8
:10F0500003F00403002B2AD035E007F11403142237
:10F0600000211846F3F79AFB7B6808331022002131
:10F070001846F3F793FB7B68BB6107F1140319464D
:10F08000F868FEF7C6FD7B681B6ABB627B681B6A7B
:10F09000002B15D0FB681B6B03F00803002B07D077
:10F0A0007B689B6803F00403002B0BD100E000BFDA
:10F0B000FB6A0133FB62FA6A3B689A42B1DD02E007
:10F0C00000BF00E000BFBB6A18463037BD4680BDB8
:10F0D00080B590B000AF7860396007F10C03302242
:10F0E00000211846F3F75AFB0623FB6001237B62DD
:10F0F0003B68002B03D03B68022B03D005E00023C4
:10F100003B6105E002233B6102E06FF0FE030EE08D
:10F110007B68186807F10C0203237968FFF774FF16
:10F12000F863FB6B002B01D0FB6B00E0002318465B
:10F130004037BD4680BD80B592B000AFF860B96081
:10F140007A6000233B6407F1100330220021184647
:10F15000F3F724FB29233B61FB681B6B03F00803D7
:10F16000002B04D0BB6803F080437B6101E0BB68E7
:10F170007B617423BB624FF47A737B6425E007F1F3
:10F18000100203230021F868FFF73EFF38643B6C50
:10F19000002B1ED1BB68002B1DD0FB681B6B03F03E
:10F1A0000803002B05D0BB6903F00103002B03D13A
:10F1B00014E0BB69002B10DB6FF073033B640A2083
:10F1C000F6F7D8F87B6C013B7B647B6C002BD6D1C7
:10F1D00004E000BF02E000BF00E000BF7B68002B3E
:10F1E00008D0FB681B6B03F00803002B02D1BA693F
:10F1F0007B681A603B6C18464837BD4680BDFFFFF0
:10F2000080B590B000AF786039600823BB603A6881
:10F21000184B1340002B02D04FF4D57300E0AA2303
:10F22000FB6040F2F7133B6207F108030022194626
:10F230007868FEF73DFDB863BB6B002B01D0BB6B5C
:10F2400014E07B681B6B03F00803002B03D07B6981
:10F2500087F83F3002E03B6987F83F3097F83F304E
:10F26000AA2B02D06FF0FE0300E0002318464037BF
:10F27000BD4680BD0080FF0080B590B000AF7860D3
:10F28000396007F10C03302200211846F3F786FAA3
:10F290000323FB6000233B6136237B6207F10C03F1
:10F2A000032219467868FEF703FDF863FB6B002B19
:10F2B00001D0FB6B04E07B691A0C3B681A600023E9
:10F2C00018464037BD4680BD80B5A2B000AF78601B
:10F2D00039607B681B6879681846FFF759FEC7F8E4
:10F2E0008400D7F88430002B02D0D7F8843071E046
:10F2F00007F17003142200211846F3F74FFA07F1C3
:10F300004003302200211846F3F748FA07F10C03B6
:10F31000342200211846F3F741FA07F140037B67D6
:10F3200007F10C033B6733233B6400237B645123C9
:10F33000BB650823FB6001233B610223FB613B6843
:10F340007B6107F10C0379681846FEF7BFFF7B6805
:10F350001B6807F1700211461846FEF75AFC3B6E17
:10F36000002B01D03B6E35E0BB69002B01D0BB699F
:10F3700030E03B681B681A063B681B681B0203F4FD
:10F380007F031A433B681B681B0A03F47F431A433D
:10F390003B681B681B0E1A433B681A603B680433CA
:10F3A0001B681A063B6804331B681B0203F47F03C7
:10F3B0001A433B6804331B681B0A03F47F4342EA89
:10F3C00003013B6804331B681A0E3B6804330A438D
:10F3D0001A60002318468837BD4680BD80B58AB0C4
:10F3E00000AF786039607868FEF78AFC3968786821
:10F3F000FFF706FF78627B6A002B03D13B6843F07E
:10F4000080433B60002239687868FFF794FE786299
:10F410007B6A002B40F0E6807B681B6B03F00803DF
:10F42000002B07D007F10C0319467868FEF7FAFCA9
:10F43000786206E007F10C0319467868FEF7C5FC10
:10F4400078627B6A002B40F0CF80AC20F4F79CF907
:10F45000F861FB69002B0CD16648F4F7F3F86648B5
:10F46000F4F7F0F86548F4F7EDF86FF00B037B6202
:10F47000BBE0AC220021F869F3F790F9FB690122A7
:10F48000A3F84C20FB697A681A60FB69083307F11E
:10F490000C0110221846F3F7E5F97B681B6B03F0AB
:10F4A0000803002B0ED1FB69043319467868FFF777
:10F4B000E3FE78627B6A002B40F08180022178684D
:10F4C000FEF7D0FEFB6918331946F869FEF768FDB0
:10F4D00078627B6A002B74D1F869FFF75FFA786273
:10F4E0007B6A002B6FD17B681B6B03F00803002B3A
:10F4F00006D1F869FEF73CFE78627B6A002B64D186
:10F50000FB6928331946F869FFF7DEFE78627B6AEB
:10F51000002B5CD1F869FFF71BFC7B681B6B03F0C9
:10F520000803002B07D001217868FEF730FE7862CF
:10F530007B6A002B4DD1F869FFF732FC78627B6A59
:10F54000002B48D14FF0FF333B62FB69B3F84E30DC
:10F5500003F00103002B08D0FB699B6E3A6A9A42C4
:10F560000BD9FB699B6E3B6207E0FB699B6B3A6AB8
:10F570009A4202D9FB699B6B3B62396A7868FEF755
:10F580004DFE7B681B6B03F00103002B12D0FB695F
:10F5900093F8513003F00403002B0BD00221F869DB
:10F5A000FFF796FD78627B6A002B16D102217868FE
:10F5B000FEF769FE7B68FA69DA60002316E000BF97
:10F5C0000CE000BF0AE000BF08E000BF06E000BF9B
:10F5D00004E000BF02E000BF00E000BFF869F4F7FC
:10F5E0002BF902E000BF00E000BF7B6A1846283715
:10F5F000BD4680BD809A0202289B0202B89A020290
:10F6000080B584B000AF786039606FF01503FB609F
:10F610007B681B6B03F00803002B0CD07868FEF7A7
:10F620006FFB3B461A4600217868FEF7A4FBF860A2
:10F63000FB68002B49D13B6803F08003002B0CD002
:10F640002648F3F7FFFF2648F3F7FCFF2548F3F7BA
:10F65000F9FF3B6823F080033B603B6819467868FC
:10F66000FEF7DAFEB860BB68002B03D16FF0FE0333
:10F67000FB602DE0B9687868FFF7B0FEF860FB68C2
:10F68000002B24D17868FEF7AAFA7B68DB6818465D
:10F69000FCF7E0FCF860FB68002B04D17868FEF70B
:10F6A0008FFA002315E000BF7868FEF789FA7B68BF
:10F6B000DB681846FCF7EAFC7B68DB681846F4F761
:10F6C000BBF87B680022DA6002E000BF00E000BF08
:10F6D000FB6818461037BD4680BD00BFC09A0202C5
:10F6E0003C9B0202B89A020280B483B000AF7860FB
:10F6F00039607B681B683A685A607B681A683B68A7
:10F700001A607B683A681A603B687A685A6000BF82
:10F710000C37BD465DF8047B704780B483B000AF02
:10F7200078607B681B687A689A420CBF01230023CB
:10F73000DBB218460C37BD465DF8047B7047FFFF0F
:10F7400080B592B000AFF860B9607A6000233B6486
:10F75000FB68002B04D144222B492C48F4F78CF889
:10F7600007F11003302200211846F3F717F805239C
:10F770003B61BB687B6140F27513BB6264237B64B1
:10F7800023E007F1100300221946F868FEF790FA0B
:10F7900038643B6C002B1CD1BB68002B1BD0FB6872
:10F7A0001B6B03F00803002B03D0FB69002B03DA6B
:10F7B00014E0BB69002B10DB6FF073033B640A207D
:10F7C000F5F7D8FD7B6C013B7B647B6C002BD8D1BB
:10F7D00004E000BF02E000BF00E000BF7B68002B38
:10F7E0000DD0FB681B6BDB0803F0010302339B00A9
:10F7F00007F14802134453F8382C7B681A603B6CBD
:10F8000018464837BD4680BD809E0202CC9B02024E
:10F8100080B592B000AFF860B9607A603B60FB6879
:10F82000002B04D17D224A494A48F4F725F87B6829
:10F83000072B04D97E2246494748F4F71DF83B6D53
:10F84000002B04D17F2242494448F4F715F83A6866
:10F85000434B1340002B02D06FF0FE0373E007F11F
:10F860001403302200211846F2F798FF34237B61FD
:10F87000BB68002B02D04FF0004300E00023BB61C7
:10F88000BA697B681B071343BB61BB6997F85420B7
:10F89000002A02D04FF0006200E000221343BB6157
:10F8A000BA693B685B021343BB61BB693A6D12786E
:10F8B0001343BB614FF4C473FB62FB681B6807F121
:10F8C000140100221846FEF7F3F978647B6C002BD4
:10F8D00001D07B6C37E0FB681B681B6B03F00803EF
:10F8E000002B17D1FB6903F40063002B02D06FF0EB
:10F8F000040328E0FB6903F40073002B02D06FF0CF
:10F90000FE0320E0FB6903F48073002B02D06FF04C
:10F91000FE0318E0BB68002B03D097F85430002B8F
:10F9200010D0FB681B681B6B03F00803002B05D08D
:10F93000FB691B0ADAB23B6D1A7003E0FB69DAB2AD
:10F940003B6D1A70002318464837BD4680BD00BF86
:10F95000989E0202DC9B0202EC9B0202089C0202BF
:10F960000000FEFF80B588B002AFF860B9607A6031
:10F970000023FB74FB681868FB681B7A1A46002397
:10F98000019307F113030093BB680021FFF740FFC9
:10F9900078617B68002B02D07B687A691A60FB7CF7
:10F9A00018461837BD4680BD80B586B002AFF860F6
:10F9B000B9601346FB71FB681868FB681B7A1A462E
:10F9C00000230193FB1D0093BB680121FFF720FF7B
:10F9D000034618461037BD4680BDFFFF80B586B090
:10F9E00000AF78607B686D33042200211846F2F77F
:10F9F000D5FE7B68D3F8803007F10C020021184651
:10FA0000FFF7B0FF0346FB75FB68002B40F09180C9
:10FA1000FB7D03F00F033B613B69032B0CDD4C487E
:10FA2000F3F710FE39694B48F3F70CFE4A48F3F739
:10FA300009FE6FF0FE0386E0FB7D1B09DAB27B68EE
:10FA400083F86D207B68D3F8803007F10C02082121
:10FA50001846FFF787FF0346FB75FB68002B6AD14A
:10FA6000FB7D03F00203002B06D07A6892F86F301A
:10FA700043F0020382F86F30FB7D03F04003002B5C
:10FA800006D07A6892F86F3043F0400382F86F3006
:10FA900097F91730002B06DA7A6892F86F3043F046
:10FAA000800382F86F3097F91730002B06DA7A68F6
:10FAB00092F8703043F0010382F870303B69002BFC
:10FAC00019DD7B68D3F8803007F10C02122118464B
:10FAD000FFF748FF0346FB75FB68002B2DD1FB7D2C
:10FAE00003F00103002B06D07A6892F8703043F0DF
:10FAF000040382F870303B69012B20DD7B68D3F86A
:10FB0000803007F10C0213211846FFF72BFF034644
:10FB1000FB75FB68002B14D1FB7D03F00103002B68
:10FB20000DD07A6892F8703043F0080382F8703094
:10FB300008E000BF06E000BF04E000BF02E000BF35
:10FB400000E000BFFB6818461837BD4680BD00BF07
:10FB5000809C0202909C0202B89C020280B485B094
:10FB600000AFF860B9607A607B68032B03D9BB688B
:10FB70001B78002B02D06FF0FE0325E0BB68013339
:10FB80001B781AB2BB6802331B781B021BB21343EB
:10FB90001BB29AB2FB68A3F87820BB6803331B78CA
:10FBA000DB08DBB203F00F030A4AD35C1946BB68DB
:10FBB00003331B7803F00703074A52F8233003FB93
:10FBC00001F2FB68DA67002318461437BD465DF87A
:10FBD000047B70479C9B0202AC9B020280B487B0FE
:10FBE00000AFF860B9607A60FB681B6893F86D300D
:10FBF0007B617B69002B01D11C2300E02A233B6140
:10FC00007A683B699A4203D3BB681B78012B02D008
:10FC10006FF0FE0324E0BB680C331B781A46BB6808
:10FC20000D331B781B0213431A46FB681A617B696C
:10FC3000002B10D0BB681C331B781A46BB681D33E1
:10FC40001B781B021A4313469B0013445B001A46A1
:10FC5000FB689A6103E0FB684FF47A729A610023B3
:10FC600018461C37BD465DF8047B704790B58DB0D3
:10FC700000AF786000237B627B681B683B623B6A55
:10FC8000D3F88030FB61FB69002B05D140F21222D2
:10FC90009D499E48F3F7F0FD0023BB621FE07B689F
:10FCA0001B7A1B021A46BB6A1344093307F10C0284
:10FCB0001946F869FFF756FE0346FB74FB68002BF4
:10FCC00001D0FB681BE1FA7CBB6ADB0002FA03F39C
:10FCD0001A467B6A13437B62BB6A0133BB62BB6A11
:10FCE000022BDCD97B681C33FB627B6A5A1C7A626C
:10FCF00007F10C021946F869FFF734FE0346FB765C
:10FD0000FB68002B40F0EF807B6A5A1C7A6207F197
:10FD10000C021946F869FFF725FE0346BB76FB681F
:10FD2000002B40F0E280FB7EFF2B00F0DF80BB7EEB
:10FD3000FF2B00F0DB80FB7E002B00F0D280BB7E2F
:10FD40000C331846F3F720FD78617B69002B02D154
:10FD50006FF00B03D3E07B6903F10C027B699A60BF
:10FD60000023BB6214E07A6ABB6AD1187B699A6887
:10FD7000BB6AD41807F10C031A46F869FFF7F2FDC5
:10FD800003462370FB68002B07D1BB6A0133BB62BB
:10FD9000BB7EBA6A9A42E6D300E000BFFB68002B44
:10FDA00003D07869F3F748FDA0E0FB7E222B6BD0EF
:10FDB000222B00F38180152B00F08D80202B7BD12E
:10FDC000BB7E032B5CD97B681B7A002B29D07B6917
:10FDD0009B681B789AB27B685A817B685B891AB2F0
:10FDE0007B699B6801331B781B021BB213431BB258
:10FDF0009AB27B685A817B699B6802331B789AB2FE
:10FE00007B689A817B689B891AB27B699B68033304
:10FE10001B781B021BB213431BB29AB27B689A81F8
:10FE20002EE07B699B681B789AB23B6AA3F874202A
:10FE30003B6AB3F874301AB27B699B6801331B7854
:10FE40001B021BB213431BB29AB23B6AA3F8742085
:10FE50007B699B6802331B789AB23B6AA3F87620D1
:10FE60003B6AB3F876301AB27B699B6803331B7820
:10FE70001B021BB213431BB29AB23B6AA3F8762053
:10FE80007869F3F7D9FC27E07B681B7A002B09D04F
:10FE90007B699B68BA7E19467868FFF79FFE034628
:10FEA000FB6019E07B699B68BA7E1946386AFFF7E8
:10FEB00055FE0346FB600FE07B6900221A607B69F8
:10FEC000FA7E1A717B69BA7E5A71FB6A7A691A6086
:10FED0007B69FB6200E000BFBB7E7A6A13447B62F1
:10FEE00003E700BF01E700BF00E000BF7B681B7AAB
:10FEF000002B03D0FB69DA69FB6A1A60FB681846BD
:10FF00003437BD4690BD00BFAC9E0202C09C0202C9
:10FF100080B586B000AF78607B681B683B617B680A
:10FF2000DB697B6107E07B69FB607B691B687B6148
:10FF3000F868F3F781FC7B69002B0AD03B69D3F8A2
:10FF40008030DB697A699A42EDD17B681B7A002B9D
:10FF5000E9D07B680022DA6100BF1837BD4680BD5A
:10FF600080B586B000AF78607B681B68D3F88030BE
:10FF70003B617B681B7A1B02194607F10C031A468A
:10FF80003869FFF7EFFC0346FB75FB68002B1AD1BD
:10FF9000FB7D03F00F03FB75FB7D0F2B0FD17B68FF
:10FFA0001B7A1B020133194607F10C031A46386904
:10FFB000FFF7D8FC0346FB75FB68002B05D17B6877
:10FFC000FA7D5A7202E000BF00E000BFFB681846ED
:10FFD0001837BD4680BDFFFF80B584B000AF7860A4
:10FFE00039603B68072B05D940F2B9222D492E48CC
:10FFF000F3F742FC2420F3F7C7FBB860BB68002B83
:020000040201F7
:100000000CD12A48F3F71EFB2948F3F71BFB2948BC
:10001000F3F718FB6FF00B03FB603EE02422002196
:10002000B868F2F7BBFBBB687A681A603B68DAB263
:10003000BB681A72B868FFF793FFF860FB68002B83
:100040001CD1B868FFF712FEF860FB68002B17D1CF
:10005000BB689B89002B09D17B68B3F87420BB680F
:100060005A817B68B3F87620BB689A817B683A68CE
:100070002032B96843F8221000230FE000BF00E0EF
:1000800000BFB868FFF744FFB868F3F7D5FB7B689B
:100090003A682032002143F82210FB6818461037D6
:1000A000BD4680BDBC9E0202D49C0202809C02021E
:1000B000F49C0202B89C020280B584B000AF786064
:1000C0007B681B681B6B03F02003002B01D100230E
:1000D00036E07B6893F8703003F00803DBB2002B46
:1000E00001D100232CE07B68D3F8803007F10802AF
:1000F00013211846FFF736FC0346FB73BB68002B41
:1001000001D0BB681CE0FB7B43F00203FB737B6800
:10011000D3F88030FA7B13211846FFF745FC0346DD
:10012000BB60BB68002B01D0BB6809E07B68B3F8FB
:100130004E3043F001039AB27B68A3F84E200023AF
:1001400018461037BD4680BD80B584B000AF7860DA
:100150007B681B681B6B03F00103002B01D100239C
:100160003BE07B6893F86F3003F04003DBB2002B79
:1001700009D07B6893F8703003F00103DBB2002BE9
:1001800001D1002329E07B68D3F8803007F1080211
:1001900007211846FFF7E6FB0346FB73BB68002BFD
:1001A00001D0BB6819E0FB7B43F00203FB737B6863
:1001B000D3F88030FA7B07211846FFF7F5FB03469A
:1001C000BB60BB68002B01D0BB6806E07B681B6886
:1001D00002211846FEF757F8002318461037BD468F
:1001E00080BDFFFF80B586B000AF78600C20F3F7CC
:1001F000CBFA38613B69002B0BD11F48F3F722FA89
:100200001E48F3F71FFA1E48F3F71CFA6FF00B03B2
:100210002EE03B697A681A603B6904331946194835
:10022000FFF762FA1848FFF778FA0346002B1DD152
:10023000154B1B687B6114E07B69043BFB60FB682A
:100240001B68DB681946786800F012FA0346002B39
:1002500004D0FB681B685B68786898477B691B68FB
:100260007B617B69084A9342E6D100E000BF00232E
:1002700018461837BD4680BD809C0202149D0202BC
:10028000B89C0202DC010022E401002280B588B0A3
:1002900000AF786039600023FB6107F10C031A4658
:1002A00039687868FFF74CFAF861FB69002B40F079
:1002B0004E817B681B6B03F00803002B0AD07B6820
:1002C0009B6C19467868FDF762FFF861FB69002BAB
:1002D00040F03F81FB681B0F03F007037B61AC20FC
:1002E000F3F752FA38613B69002B0CD1A248F3F7BF
:1002F000A9F9A248F3F7A6F9A148F3F7A3F96FF01B
:100300000B03FB6128E1AC2200213869F2F746FAC1
:100310003B690222A3F84C207B69DAB23B6983F87F
:100320006C203B697A681A607B683A69DA6024203D
:10033000F3F72AFA02463B69C3F880203B69D3F8F9
:100340008030002B0CD18C48F3F77CF98D48F3F703
:1003500079F98B48F3F776F96FF00B03FB61ECE06A
:100360003B69D3F88030242200211846F2F716FAB0
:100370003B69D3F880303A691A603B69D3F8803022
:1003800000221A727B681B6B03F00803002B0ED14E
:100390003B69043319467868FEF76EFFF861FB6924
:1003A000002B40F09E8002217868FDF75BFF7B68A0
:1003B0001B6B03F00803002B07D13869FDF7D8FE4B
:1003C000F861FB69002B40F08E803869FFF706FB6F
:1003D000F861FB69002B40F088803B69D3F88030DE
:1003E0001846FFF743FCF861FB69002B7FD13869A1
:1003F000FFF762FEF861FB69002B7AD13B69B3F825
:100400004E3003F00103002B0BD03B691B689B6946
:100410005D4A934228BF134619467868FDF7FEFEF1
:1004200005E03B69DB6F19467868FDF7F7FE386930
:10043000FFF78AFEF861FB69002B5CD10123BB61E9
:100440000BE0BB6919463869FFF7C6FDF861FB6927
:10045000002B0FD1BB690133BB617A69BB699A423A
:10046000EFDA3869FFF7BEFEF861FB69002B03D1B4
:1004700000237CE000BF00E000BF7B68DB68002B4E
:100480003BD00123BB6123E07B68DB68BA69203283
:1004900053F82230002B18D07B68DB68BA69203211
:1004A00053F822301846FFF733FD7B68DB68BA69E2
:1004B000203253F822301846F3F7BEF97B68DB6828
:1004C000BA692032002143F82210BB690133BB61B5
:1004D0007B68DB6893F86C301A46BB699342D3DDC6
:1004E0000BE000BF0AE000BF08E000BF06E000BF6D
:1004F00004E000BF02E000BF00E000BF7B68DB68F3
:10050000002B19D07B68DB68D3F88030002B13D028
:100510007B68DB68D3F880301846FFF7F9FC7B680E
:10052000DB68D3F880301846F3F786F97B68DB6820
:100530000022C3F8802000E000BF7B68DB68002B4E
:1005400009D07B68DB681846F3F776F904E000BF52
:1005500002E000BF00E000BF0748F3F773F8F96955
:100560000A48F3F76FF80648F3F76CF8FB6918468A
:100570002037BD4680BD00BF809C02022C9D020238
:10058000B89C0202409D020280F0FA025C9D0202C9
:1005900080B584B000AF786039607B68002B05D1EE
:1005A00040F2C6322A492B48F3F766F93B6803F05C
:1005B0007F03002B0CD02848F3F744F82748F3F7C3
:1005C00041F82748F3F73EF83B6823F07F033B6090
:1005D0003B6803F08003002B0CD01F48F3F732F880
:1005E0002048F3F72FF81E48F3F72CF83B6823F068
:1005F00080033B6039687868FDF70EFFB860BB6820
:10060000002B03D16FF0FE03FB6012E0B96878683D
:10061000FFF73CFEF860FB68002B01D1002312E0DD
:1006200000BF7B68DB681846F3F706F97B68002299
:10063000DA600D48F3F706F80C48F3F703F80848BA
:10064000F3F700F8FB6818461037BD4680BD00BFC1
:10065000D89E0202CC9B0202849D0202949D02025B
:10066000B89C0202C09D0202809C0202EC9D020224
:1006700080B485B000AF786039600123FB733B68BC
:100680005B884FF6FF7293421DD03B685A887B68A7
:10069000B3F874309A4216D000231BE03B689B8865
:1006A0004FF6FF7293420BD03B689A88F97B7B68C8
:1006B000203153F821309B899A4201D1012309E06E
:1006C000FB7B0133FB737B6893F86C30FA7B9A42B7
:1006D000E4D9002318461437BD465DF8047B704703
:1006E00080B400AF00BFBD465DF8047B7047FFFFDC
:1006F00080B586B000AFF860B9607A603B60FB6897
:100700007B617B69002B04D116220F490F48F3F758
:10071000B3F87B683B613B69002B02D03B68082B38
:1007200001D000230CE07B695B6C9B683A6912681E
:100730001146F86898470346DAB23B691A713B687C
:1007400018461837BD4680BD9CA10202E49E0202F5
:1007500080B586B000AFF860B9607A603B60FB6836
:100760007B617B69002B04D126220E490E48F3F7EA
:1007700083F87B683B613B69002B02D03B68082B08
:1007800001D0002309E07B695B6C5B683A69116802
:100790003A691279F86898473B6818461837BD4699
:1007A00080BD00BFA8A10202E49E020280B586B00F
:1007B00000AFF860B9607A60FB687B617B69002BF1
:1007C00004D137220C490D48F3F756F87B683B619A
:1007D0003B69002B02D16FF0FE0309E07B695B6C83
:1007E0001B683A6911683A691279F86898470023DA
:1007F00018461837BD4680BDB4A10202E49E02022D
:1008000080B584B000AFF860B9607A60154B1922EA
:100810001A76144B00221A62124B00225A62114BB4
:1008200000229A620F4B0022DA620E4B00221A63FA
:100830000C4B0D4A5A630B4B0C4A9A63094B0C4AFA
:10084000DA63084ABB685364064A7B681364032270
:10085000F968044800F039FE002318461037BD46F9
:1008600080BD00BFA0250022F10601025107010250
:10087000AD07010280B582B000AF78600B46FB7017
:10088000094B5B6C002B04D18A2208490848F2F717
:10089000F3FF054B5B6C1B68FA7879680248984750
:1008A00000BF0837BD4680BDA0250022C4A10202BA
:1008B000F49E020280B582B000AF78600B46FB70F8
:1008C000094B5B6C002B04D1902208490848F2F7D1
:1008D000D3FF054B5B6C5B68FA78796802489847F0
:1008E00000BF0837BD4680BDA0250022D0A102026E
:1008F000F49E020280B582B000AF7860094B5B6C59
:10090000002B04D1962208490848F2F7B5FF054BA1
:100910005B6C9B687968034898470346184608371C
:10092000BD4680BDA0250022E0A10202F49E020285
:1009300080B582B000AF78600D4B5B6C002B04D1AA
:100940009D220C490C48F2F797FF094B5B6C9B69A1
:10095000002B02D16FF0570305E0054B5B6C9B69E0
:1009600078689847034618460837BD4680BD00BFE3
:10097000A0250022ECA10202F49E020280B582B002
:1009800000AF78607868FFF7D3FF03461846083752
:10099000BD4680BD80B500AF1148F2F753FE114847
:1009A000F2F750FE1048F2F74DFE1048F2F74AFEFB
:1009B0000F48F2F747FE0F48F2F744FE0E48F2F7F1
:1009C00041FE0E48F2F73EFE0D48F2F73BFE0D48A1
:1009D000F2F738FE0C48FFF7ABFF00BF80BD00BF49
:1009E0000C9F0202209F0202549F0202A89F020253
:1009F000D89F020208A0020230A0020274A00202E4
:100A0000A4A00202C4A00202D0A0020280B584B059
:100A100000AF786039607B68022B02DCFFF7BAFF19
:100A20001BE03B6808331B681846FFF7A7FFF86018
:100A3000FB68002B09DA3B6808331B681946084835
:100A4000F2F700FEFFF7A6FF07E03B6808331B68DC
:100A5000FA6819460348F2F7F5FD1037BD4680BD28
:100A6000D4A00202F0A0020280B584B000AF78608A
:100A700039607B68032B02DCFFF78CFF6DE03B687D
:100A800008331B681846F8F7E5FD0346002B13D121
:100A90003B6808331B681846FFF770FFF860FB6877
:100AA000002B10DA3B6808331B6819462C48F2F714
:100AB000C9FDFFF76FFF50E03B6808331B6818461D
:100AC00014F006FCF8603B680C331B681946254897
:100AD000F2F702F80346002B02D10023BB6036E098
:100AE0003B680C331B6819461F48F1F7F5FF0346B6
:100AF000002B02D10123BB6029E03B680C331B684B
:100B000019461A48F1F7E8FF0346002B02D10223E9
:100B1000BB601CE03B680C331B6819461448F1F7B6
:100B2000DBFF0346002B02D10323BB600FE03B68D1
:100B30000C331B6819460F48F1F7CEFF0346002B14
:100B400002D10423BB6002E0FFF724FF05E0BB688D
:100B5000DBB21946F868FFF78DFE1037BD4680BD41
:100B6000D4A00202FCA0020204A102020CA1020213
:100B70001CA102022CA1020280B584B000AF7860F3
:100B800039607B68022B02DCFFF704FF34E03B682E
:100B900008331B681846F8F75DFD0346002B13D198
:100BA0003B6808331B681846FFF7E8FEF860FB68EF
:100BB000002B10DA3B6808331B6819461048F2F71F
:100BC00041FDFFF7E7FE17E03B6808331B68184656
:100BD00014F07EFBF860F868FFF78CFE0346FB72AA
:100BE000FB7A012B04D1F9680648F2F72BFD03E0EC
:100BF000F9680548F2F726FD1037BD4680BD00BFF5
:100C0000D4A0020238A1020248A1020280B584B039
:100C100000AF786039607B68032B02DCFFF7BAFE17
:100C200059E03B6808331B681846F8F713FD034684
:100C3000002B13D13B6808331B681846FFF79EFE54
:100C4000F860FB68002B10DA3B6808331B68194614
:100C50002248F2F7F7FCFFF79DFE3CE03B680833C3
:100C60001B68184614F034FBF8603B680C331B68B3
:100C700019461B48F1F730FF0346002B09D03B68AB
:100C80000C331B6819461748F1F726FF0346002B63
:100C900002D10123FB7219E03B680C331B68194633
:100CA0001148F1F719FF0346002B09D03B680C33BC
:100CB0001B6819460D48F1F70FFF0346002B02D1C0
:100CC0000023FB7202E0FFF765FE04E0FB7A1946A1
:100CD000F868FFF7EFFD1037BD4680BDD4A00202D3
:100CE00058A1020260A1020264A1020268A10202EC
:100CF00080B582B000AF786039607B68022B02DC7F
:100D0000FFF748FE3EE03B6804331B6819461F4866
:100D1000F1F7E2FE0346002B04D139687868FFF74B
:100D200075FE2FE03B6804331B6819461848F1F73D
:100D3000D3FE0346002B04D139687868FFF794FE90
:100D400020E03B6804331B6819461248F1F7C4FEE3
:100D50000346002B04D139687868FFF70DFF11E0D6
:100D60003B6804331B6819460B48F1F7B5FE034690
:100D7000002B04D139687868FFF748FF02E0FFF7DD
:100D800009FE00BF0837BD4680BD00BF6CA102024E
:100D900070A1020278A1020280A1020280B483B095
:100DA00000AF78607B687A685A607B685A687B68B5
:100DB0001A6000BF0C37BD465DF8047B704780B4F5
:100DC00083B000AF786039607B685B683A681A600E
:100DD0007B685A683B685A607B683A685A603B682F
:100DE0007A681A6000BF0C37BD465DF8047B704717
:100DF00080B483B000AF78607B681B687A689A42E1
:100E00000CBF01230023DBB218460C37BD465DF84A
:100E1000047B704780B584B000AF78607B68002B9E
:100E200004D11A220A490B48F2F726FDF5F706F914
:100E3000F8607B6800221A607B6804331846FFF76D
:100E4000ADFFF868F5F7FEF800BF1037BD4680BD6E
:100E5000F8A20202F8A1020280B58AB000AF786061
:100E600039607B68002B04D139225D495D48F2F777
:100E700003FD3B68002B4AD0F1F700FCF861F5F761
:100E8000DDF8B861F3F7E8FE0346002B08D05449BB
:100E90005548F2F7D7FB3C2251495448F2F7ECFC95
:100EA000FB69012B08D14E495148F2F7CBFB3C229C
:100EB0004B494E48F2F7E0FCF5F7C0F87861F4F7DB
:100EC00033F80346002B08D145494A48F2F7BAFBEC
:100ED0003C2243494548F2F7CFFCF5F7AFF83861BB
:100EE000F1F7B8FB0346002B08D03D494248F2F722
:100EF000A9FB3C223A493D48F2F7BEFC3869F5F7B8
:100F0000A1F87869F5F79EF8B869F5F79BF8002322
:100F10007B62F4F709F8F860F5F790F838627B68BF
:100F20001B68012B50D07B6804331846FFF760FF25
:100F30000346002B04D1452229493048F2F79CFC96
:100F40003B68002B03D16FF073037B623FE0FB68CB
:100F500000225A630221F868F4F7E2FA7B681A1D4E
:100F6000FB68183319461046FFF729FFF5F766F8B6
:100F7000B860F1F76FFB0346002B08D018491E48F4
:100F8000F2F760FB582216491848F2F775FCB8686A
:100F9000F5F758F83B68002B0BDDFB685C333A46ED
:100FA00000211846F4F726FEFB685C331846F4F778
:100FB000C1FC386AF5F746F8F3F794FCFB685B6B05
:100FC0007B62F5F73BF838627B6800221A60386A6A
:100FD000F5F738F87B6A18462837BD4680BD00BF54
:100FE0000CA30202F8A1020210A202023CA2020219
:100FF00040A2020268A20202A0A20202C8A2020249
:1010000080B584B000AF78607B68002B04D181226A
:1010100015491648F2F730FC7B681B68012B1ED07F
:10102000F5F70CF8F8607B6801221A607B680433DE
:101030001846FFF7DDFE0346002B0CD17B685B688A
:10104000183BBB60B868F4F7D9FAF868F4F7FAFF10
:10105000F3F748FC04E0F868F4F7F4FF00E000BFA1
:101060001037BD4680BD00BF20A30202F8A10202D6
:1010700080B483B000AF78607B685B68C3F35E02C6
:101080007B689B68C3F35E039A420FD17B681B7930
:10109000C3F30003DAB27B681B7AC3F30003DBB24D
:1010A0009A4201D1002302E0012300E00223184606
:1010B0000C37BD465DF8047B7047FFFF80B584B0F8
:1010C00000AFF860B9607A60FB68002B04D1292278
:1010D0001C491D48F2F7D0FB7B68002B04DC2A2258
:1010E00018491A48F2F7C8FBFA6853686FF35F03B0
:1010F0005360FB685B68C3F35E0303F00103D9B27E
:10110000FA68137961F300031371FA6893686FF357
:101110005F039360FB689B68C3F35E0303F0010306
:10112000D9B2FA68137A61F300031372FB68BA68E4
:101130001A607B6823F00702FB68DA6000BF103793
:10114000BD4680BD50A3020234A3020244A30202A2
:1011500090B587B000AFF860B9607A60FB68002B8B
:1011600004D1452247494848F2F786FBFB68DB6813
:101170001C46F86800F07AF90346E31A7B617B6944
:10118000002B01D1002378E07A697B689A4201D272
:101190007B697B60FB68DB68FA689268C2F35E0279
:1011A0009B1A1A467B6893421BD2FB681B68FA683D
:1011B0009268C2F35E0213447A68B9681846F1F780
:1011C00051FBFB689B68C3F35E031A467B681344BC
:1011D00023F00041FA68936861F35F0393607B68D2
:1011E0004BE0FB681B68FA689268C2F35E029818CD
:1011F000FB68DB68FA689268C2F35E029B1A1A46C3
:10120000B968F1F72FFBFB681868FB68DB68FA68C0
:101210009268C2F35E029B1A1A46BB689918FB6873
:10122000DB68FA689268C2F35E029B1A1A467B6812
:101230009B1A1A46F1F716FBFB681B7AC3F30003EF
:10124000DBB2DB43DBB203F00103D9B2FA68137AF5
:1012500061F300031372FB68DB68FA689268C2F3FB
:101260005E029B1A1A467B689B1A23F00041FA68BB
:10127000936861F35F0393607B6818461C37BD4633
:1012800090BD00BF64A3020234A3020280B586B001
:1012900000AFF860B9607A60FB68002B04D1B72218
:1012A00044494548F2F7E8FAF86800F0DFF8786159
:1012B0007B69002B01D1002378E07A697B689A4230
:1012C00001D27B697B60FB68DB68FA685268C2F315
:1012D0005E029B1A1A467B6893421BD2FB681B680E
:1012E000FA685268C2F35E0213447A681946B86815
:1012F000F1F7B8FAFB685B68C3F35E031A467B68D4
:10130000134423F00041FA68536861F35F035360AC
:101310007B684BE0FB681B68FA685268C2F35E02A8
:101320009918FB68DB68FA685268C2F35E029B1A80
:101330001A46B868F1F796FAFB68DB68FA685268F3
:10134000C2F35E029B1A1A46BB689818FB681968BC
:10135000FB68DB68FA685268C2F35E029B1A1A46A1
:101360007B689B1A1A46F1F77DFAFB681B79C3F379
:101370000003DBB2DB43DBB203F00103D9B2FA684E
:10138000137961F300031371FB68DB68FA68526834
:10139000C2F35E029B1A1A467B689B1A23F0004137
:1013A000FA68536861F35F0353607B681846183727
:1013B000BD4680BD78A3020234A3020290B583B07B
:1013C00000AF78600B46FB707B68002B05D14FF4B3
:1013D000897224492448F2F74FFA7B68DB681C467F
:1013E000786800F043F803469C4201D1002334E0C2
:1013F0007B681B687A689268C2F35E021344FA78CD
:101400001A707B689B68C3F35E031A467B68DB68CF
:10141000013B9A4214D17B681B7AC3F30003DBB211
:10142000DB43DBB203F00103D9B27A68137A61F3CC
:10143000000313727A6893686FF35F0393600BE0A5
:101440007B689B68C3F35E035A1C22F000427968F4
:101450008B6862F35F038B60012318460C37BD462F
:1014600090BD00BF8CA3020234A3020280B584B0F9
:1014700000AF78607868FFF7FBFD0346002B02D0D1
:10148000012B02D004E000231BE07B68DB6818E03E
:101490007B689B68C3F35E03FB607B685B68C3F398
:1014A0005E03BB60FA68BB689A4203D9FA68BB68FE
:1014B000D31A06E07B68DB681946FA68BB68D31A62
:1014C0000B4418461037BD4680BD80B584B000AFD0
:1014D000F860B9601346FB80FB68002B02D16FF007
:1014E000FE0318E0B86800F051F80346002B02D064
:1014F0006FF0FE030FE0FB68BA6809211846F2F7A7
:101500000BFFFB68FA885A83FB6800229A77FB6816
:1015100000229A83002318461037BD4680BDFFFF86
:1015200080B582B000AF78607B68002B04D15F2269
:1015300012491348F2F7A0F97B681846F3F744F80C
:101540000346092B04D060220C490E48F2F794F9A7
:101550007B681846F3F71AF80346002B04D1612282
:1015600006490948F2F788F97B681846F2F736FF12
:10157000002318460837BD4680BD00BFB8A402024C
:10158000A4A30202B4A30202F0A3020280B582B0B7
:1015900000AF786009217868F3F730F80346184601
:1015A0000837BD4680BDFFFF80B584B000AF7860CE
:1015B0000B467B800023FB607B68002B04D1D92283
:1015C00046494748F2F758F97B681846F2F7FCFF9E
:1015D0000346092B04D0DA2240494248F2F74CF97D
:1015E0007B685B8B03F01003002B20D17B689B6A28
:1015F000002B15D07B689B6A78689847F860FB6879
:10160000002B0DD03848F2F71DF87B68FA681946B0
:101610003648F2F717F83648F2F714F8FB6859E045
:101620007B685B8B43F010039AB27B685A837B68BC
:101630005B8B03F00803002B08D07B689B8B03F0C7
:101640000803002B02D06FF00F0343E07B689B8BF5
:1016500003F00803002B0AD07B689A8B7B885340E9
:101660009BB21A4640F60F731340002B13D07B68D1
:10167000DB6A002B07D07B68DB6A7A8811467868C2
:101680009847F86007E07B8823F0F0031B051B0DEB
:101690009AB27B689A83FB68002B03D0FB6813F136
:1016A000580F16D17B689B8B43F008039AB27B6876
:1016B0009A837B689B7F0133DAB27B689A777B6879
:1016C0009B7F002B05D14FF4867204490948F2F73D
:1016D000D3F8FB6818461037BD4680BDD0A402027F
:1016E000A4A30202B4A302024CA4020264A4020254
:1016F0009CA40202A4A4020280B584B000AF78606A
:101700000023FB607B68002B05D140F21F121E49AD
:101710001E48F2F7B1F87B681846F2F755FF03460A
:10172000092B05D04FF4907217491948F2F7A4F825
:101730007B689B7F002B02D16FF0FE031FE07B686C
:101740009B7F013BDAB27B689A777B689B7F002B9B
:1017500001D0002313E07B681B6B002B04D07B6857
:101760001B6B78689847F860FB68002B03D0FB6818
:1017700013F1580F02D17B6800229A83FB68184648
:101780001037BD4680BD00BFE0A40202A4A3020240
:10179000B4A3020290B585B000AFF860B9607A607A
:1017A0003B60FB68002B05D140F24D1218491948E7
:1017B000F2F762F8FB681846F2F706FF0346092BBA
:1017C00005D04FF4A77212491348F2F755F8FB6899
:1017D0009B7F002B05D16FF0FE00F0F7A1FF0023E7
:1017E00011E0FB685B6B002B08D0FB685C6B3B680F
:1017F0007A68B968F868A047034604E06FF05700BC
:10180000F0F78EFF002318461437BD4690BD00BF89
:10181000F0A40202A4A30202B4A3020290B585B010
:1018200000AFF860B9607A603B60FB68002B05D1BF
:101830004FF4BC7218491948F2F71EF8FB681846B5
:10184000F2F7C2FE0346092B05D040F27912124985
:101850001348F2F711F8FB689B7F002B05D16FF05E
:10186000FE00F0F75DFF002311E0FB689B6B002B8F
:1018700008D0FB689C6B3B687A68B968F868A04739
:10188000034604E06FF05700F0F74AFF00231846C4
:101890001437BD4690BD00BF00A50202A4A30202FA
:1018A000B4A3020280B584B000AFF860B9607A607A
:1018B000FB68002B05D14FF4CE7211491148F1F7A6
:1018C000DBFFFB681846F2F77FFE0346092B05D0C5
:1018D00040F29D120A490C48F1F7CEFFFB68DB6B22
:1018E000002B07D0FB68DB6B7A68B968F86898470B
:1018F000034601E06FF0570318461037BD4680BD20
:1019000010A50202A4A30202B4A3020280B582B011
:1019100000AF786039607B68002B05D14FF4DC7232
:101920000C490D48F1F7A8FF7B681846F2F74CFE0A
:101930000346092B05D040F2B91206490748F1F7D2
:101940009BFF7B683A681A62002318460837BD4639
:1019500080BD00BF24A50202A4A30202B4A3020218
:1019600080B582B002AF1F4B1B68002B04D01E480D
:10197000F1F768FE002331E000F0ACFC10220021FA
:101980001A48F0F70BFF402200211948F0F706FF34
:10199000082200211748F0F701FF012216491748D5
:1019A000EFF7A4FA012216491648EFF79FFA4FF411
:1019B000807200211448F0F7F1FE134B2F221A70A9
:1019C00009F026F8002300930023104A1049002054
:1019D00001F056FD034B01221A6000231846BD4654
:1019E00080BD00BFA026002240A50202E8250022FB
:1019F000F82500229826002254A50202382600224B
:101A00005CA5020268260022EC01002264A5020205
:101A10006CA5020280B582B000AF6FF00F037B604F
:101A200005E04FF0FF310A48EFF72EFD78607B6844
:101A300013F1100FF5D07B68002B04D07D220549EF
:101A40000548F1F719FF00BF0837BD4680BD00BF4C
:101A500038260022ACA6020274A5020280B582B02C
:101A600000AF6FF00F037B6005E04FF0FF310A48D5
:101A7000EFF70AFD78607B6813F1100FF5D07B68F3
:101A8000002B04D08C2205490548F1F7F5FE00BF74
:101A90000837BD4680BD00BF68260022B8A60202F6
:101AA00074A5020280B500AF0248EFF7FDFC00BF4D
:101AB00080BD00BF3826002280B500AF0248EFF796
:101AC000F3FC00BF80BD00BF6826002280B586B051
:101AD00000AF786039600023FB607B681A683B6860
:101AE0009A4201D93B6836E03B680F2B02DD4FF08C
:101AF000FF3330E03B68043323F003037B617B69F1
:101B0000102B01DD10237B617B685A687B699B0089
:101B100019461046F1F75AFEF860FB68002B02D117
:101B20004FF0FF3317E07B681B683B6108E03B69BF
:101B30009B00FA68134400221A603B6901333B6141
:101B40003A697B699A42F2DB7B68FA685A607A6983
:101B50007B681A603B6818461837BD4680BD80B563
:101B600084B000AF786039603B68FB600CE07B6854
:101B70005A68FB689B0013441B68002B01D1FB686B
:101B80001CE0FB680133FB607B681B681A46FB683E
:101B90009342ECDB7B681B68FB60FA683B689A4207
:101BA00001DA3B68FB60F9687868FFF78FFF03464E
:101BB000002B02DA4FF0FF3300E0FB6818461037C5
:101BC000BD4680BD80B584B000AF78603960002329
:101BD000FB6039687868FFF7C2FFB860BB68002B0C
:101BE00002DA4FF0FF331CE018210120F1F706FE66
:101BF000F860FB68002B02D14FF0FF3311E0FB6867
