:020000040200F8
:10000000C002052295C90102C5E60002CB0200022A
:100010007D6100027D6100027D6100027D61000260
:100020000000000000000000000000007D610002F0
:100030007D6100020000000003020002BFEB01022C
:10004000A9E80302ADE903025DE9030223E8030224
:100050007B0E0302C9E00202A5740302D9E6030283
:10006000A5E5030207EC030253ED03028FDE020253
:10007000A574030200000000000000000000000062
:100080000000000000000000000000000000000070
:100090000000000000000000000000000000000060
:1000A0000000000000000000000000000000000050
:1000B0000000000000000000000000000000000040
:1000C0000000000000000000000000000000000030
:1000D0000000000000000000000000000000000020
:1000E0000000000000000000000000000000000010
:1000F0000000000000000000000000000000000000
:1001000000000000000000000000000000000000EF
:1001100000000000000000000000000000000000DF
:1001200000000000000000000000000000000000CF
:1001300000000000000000000000000000000000BF
:1001400000000000000000000000000000000000AF
:10015000000000000000000000000000000000009F
:10016000000000000000000000000000000000008F
:10017000000000000000000000000000000000007F
:10018000000000000000000000000000000000006F
:10019000000000000000000000000000000000005F
:1001A000000000000000000000000000000000004F
:1001B000000000000000000000000000000000003F
:1001C000DFF80CD000F0F8FC00480047DB1000021C
:1001D000C0E20422EFF3108072B6704780F31088FB
:1001E0007047484A1368012B04D04FF00103136095
:1001F000454A1060454A116045484FF08051016002
:100200007047EFF3108272B63E48016879B34FF041
:10021000000101603C48016891B1EFF309811EF0D3
:10022000100F08BF21ED108B21E9F00F4FF00004F3
:100230001EF0100F08BF012441F8044D0068016052
:1002400000B51FF0F6F85DF804EB3049096809685D
:1002500008C9B1E8F00F002B18BFB1EC108B81F387
:1002600009884EF0100E002B18BF2EF0100E82F3EE
:1002700010884EF0040E704724490860EFF3148292
:1002800022F0040282F314881F494FF00000086036
:100290001C494FF0010008601E481F49D0F800209B
:1002A00041EA020101601A484FF0805101601B4889
:1002B0000068006800BF80F3088861B662B6BFF3CB
:1002C0004F8FBFF36F8F704700BFEFF308801EF0B2
:1002D000040F01D0EFF3098020E9F00F40F804ED9E
:1002E00040F804ED1EF0040F02D080F3098801E00D
:1002F00080F3088800B539F0E7F95DF804EB4EF0BB
:10030000040E704764480222A0460222AC46022234
:1003100004ED00E020ED00E00000FFFF08ED00E04C
:100320002DE9F05F0546002092469B46884606462A
:10033000814640241BE0284641464746224600F0BD
:10034000F9F953465A46C01A914110D3114618463E
:10035000224600F0E0F92D1A67EB01084F462246CD
:100360000120002100F0D7F917EB00094E41201EB3
:10037000A4F10104DFDC484631462A464346BDE885
:10038000F09F2DE9F0410024061B254671F100067F
:1003900005DA01240027D0EB070067EB0101161EE8
:1003A00073F1000605DA0027D2EB0702012567EB9F
:1003B0000303FFF7B5FF86460E4617469C46AC4240
:1003C00004D00025D0EB050E65EB010624B100201A
:1003D000D2EB000760EB030C704631463A466346A9
:1003E000BDE8F081004870474C08040210B504468F
:1003F000FFF7F8FF0068005D00F0010010BDA0F1FC
:100400006101192900D820387047A0F1410119294C
:1004100000D82030704740EA01039B0703D009E071
:1004200008C9121F08C0042AFAD203E011F8013BE0
:1004300000F8013B521EF9D27047D2B201E000F839
:10044000012B491EFBD270470022F6E710B5134678
:100450000A4604461946FFF7F0FF204610BD30B5A6
:1004600005462A460B4612F8010B13F8014B08B15A
:10047000A042F8D01CB1002802D06D1CF1E728463C
:1004800030BD10B5044604E00B7800F8013B03B121
:10049000491C521EF8D2204610BDCAB2401E10F8A8
:1004A000011F8A4202D00029F9D100207047421C66
:1004B00010F8011B0029FBD1801A704710B50022EB
:1004C00000E0521C835C8C5CA34201D1002BF8D16C
:1004D000D8B2E1B2401A10BDCBB203E00178994224
:1004E00003D0401C521EF9D20020704730B504469C
:1004F0000020034600E05B1C934203D2E05CCD5C2D
:10050000401BF8D030BD034611F8012B00F8012B39
:10051000002AF9D11846704730B505460020034639
:1005200000E05B1C934205D2EC5CC85C201A01D150
:10053000002CF6D130BD0022CBB20178994200D117
:100540000246401C0029F8D1104670470FB400B590
:100550008DB010A909900B9000914FF0FF300A90D8
:1005600000200C9005480690054807906A4609A8A7
:100570000F9900F003F90DB05DF814FB9907000224
:10058000B70700022DE9FF5F1D464FF0FF3BD5E99D
:10059000014691465F464FF00008A9697F1C01980B
:1005A0008847296A824688470028F6D1BAF1FF3F7A
:1005B0000CD024F4C064002E19DD600614D5BAF105
:1005C0002B0F09D0BAF12D0F0ED103E0584604B01D
:1005D000BDE8F09F44F48064A9697F1C01988847B6
:1005E000761E8246002E02DDBAF1300F03D0B9F13B
:1005F000000F26D032E0A969761E44F400747F1CF7
:10060000019888478246002E05DDBAF1780F06D0A2
:10061000BAF1580F03D0B9F1000F10D01EE0B9F1B4
:10062000000F02D0B9F1100F18D1A969761E24F479
:1006300000747F1C019888478246102002E0082041
:1006400000E00A20814609E008FB0908A969761E36
:1006500044F400747F1C019888478246002E05DD13
:100660004946504600F076F80028EDDAE96901982D
:100670008847A00502D46FF00100A8E7E00725D164
:10068000600613D5600502D5C8F1000000E04046C1
:1006900029680A1D2A600968220501D5087015E03D
:1006A000220701D5088011E008600FE02868011DCD
:1006B00029600068210502D580F8008006E0210746
:1006C00002D5A0F8008001E0C0F8008038467EE73F
:1006D00070B506463FF0D2FB046805460A220021A9
:1006E000304600F079F82C6070BD30B50B460146FD
:1006F00000202022012409E021FA02F59D4205D3C1
:1007000003FA02F5491B04FA02F52844151EA2F16A
:100710000102F1DC30BD202A04DB203A00FA02F1AC
:10072000002070479140C2F1200320FA03F31943DF
:1007300090407047202A04DB203A21FA02F0002181
:10074000704721FA02F3D040C2F1200291400843E1
:10075000194670473A2800D2303820F02002412A4A
:1007600001D3A2F13700884201D34FF0FF30704728
:10077000026811441378016018467047D16004493B
:1007800051610449116200211161114600F038BA2B
:1007900071070002ED030002426842B1016811F8DE
:1007A000013B23B1521EC0E90012184670470121D7
:1007B000C160881E704742685AB1C368016843B976
:1007C00083688B4205D0491E521CC0E900120020EC
:1007D00070474FF0FF3070472DE9F04791460F46C4
:1007E00080460446002614F8015B2DB1FFF7FAFDA0
:1007F0000068405DC007F6D12B2D02D02D2D18D0FA
:10080000641E4A463946204600F090FB27B13968FD
:10081000A14201D1C7F8008071054FF002040BD549
:100820004042002803DD3FF029FB0460A007BDE83B
:10083000F08746F48066E4E70028F8DA3FF01EFB14
:1008400004606FF00040F2E72DE9FE4F804681EA38
:100850000300C00F0C46009021F0004123F000453A
:10086000B8EB0200A94105D24046214690461C46FD
:100870000B46024623F00040104347D0270DC7F334
:100880000A00C3F30A510290401A019040286BDA23
:10089000C3F3130040F4801B0098924620B100235C
:1008A000D2EB030A63EB0B0B01985946C0F14002EF
:1008B0005046FFF730FF06460D4650465946019A0E
:1008C00000F08CF910EB08006141002487EA115216
:1008D00084EAE7731A4340D0009A62B3019A012A6E
:1008E0004FEA075215DC001B61EB02014FF000429A
:1008F00002EA0752CDE90042001C41F58011324660
:100900002B4600F071FB03B0BDE8F08F4046214656
:10091000F9E7001B61EB0201001C41F58013001890
:100920005B412018A2F5001747EB030140EAD570A0
:10093000B6196D4111E06D084FEA360645EAC075FB
:100940004FEA0752001B61EB0201001C41F58011C8
:1009500049084FEA30000019514132462B4603B096
:10096000BDE8F04F00F031BB0098012240000023A9
:10097000D0EB020263EBE073009821464FEAE0748B
:10098000B8EB000061EB0401E9E783F000435BE7AB
:1009900081F0004158E72DE9FE4F81EA030404F09D
:1009A000004421F0004100944FF0000B23F000437D
:1009B00050EA01045ED052EA03045BD0C3F30A5448
:1009C000C1F30A552C44A4F2F3340194A0FB025461
:1009D000C1F3130141F48011C3F3130343F48013F3
:1009E00001FB024400FB034E840A970A44EA815447
:1009F00047EA8357A4FB076802958D0A05FB078524
:100A00004FEA932C04FB0C542705029D4FEA06582D
:100A100047EA1637B5EB08056EEB070C870E920E0A
:100A200047EA811742EA8312A7FB0201B6EB0B01EA
:100A300064EB00042B0D43EA0C335E1844EB1C50AE
:100A4000DA465146E7FB0201C5F313044FEA0B33C4
:100A500043EA14534FEA0432019C43EA0603A4F12B
:100A60000C040294009CCDE900B400F0BDFA03B080
:100A7000BDE8F08F00200146F9E72DE9F04D81EA4D
:100A8000030404F0004B21F0004514464FF0000A27
:100A900023F0004150EA050220D054EA01021DD0A3
:100AA000C5F30A570246C5F31303C1F31300C1F39C
:100AB0000A5640F4801543F48013A7EB0608101B78
:100AC000D64608F2FD3873EB050002D308F10108A1
:100AD00001E092185B41B8F1000F03DA00200146F3
:100AE000BDE8F08D00204FF48011064684460EE0EC
:100AF000171B73EB050705D3121B63EB05030643B6
:100B00004CEA010C49084FEA300092185B4150EA68
:100B10000107EDD152EA030012D082EA040083EA11
:100B20000501084305D0101BAB4106D2012200236A
:100B300006E000224FF0004302E06FF00102531084
:100B40001AEB06004CEB085110EB0A0041EB0B01CD
:100B5000BDE8F04D00F039BAC1F30A52C1F31301F8
:100B600040F2FF3341F480119A4202DA002001463C
:100B7000704740F233439A42A2F2334202DC5242BF
:100B8000FFF7D8BDFFF7C7BD30B5041E71F10004F3
:100B900004DB4FF00044404264EB0101141E73F18A
:100BA000000405DB1C464FF00043524263EB040394
:100BB000994208BF904230BD064C074D06E0E06800
:100BC00040F0010394E8070098471034AC42F6D394
:100BD000FFF7FAFAE098050220990502202A06DBC1
:100BE000CB17203A41FA02F043EAE07306E041FAFB
:100BF00002F3D040C2F120029140084319467047E9
:100C00002DE9F34F8BB04FF0000801F10C000C46BA
:100C10004FF0010B46460DF1080A0190626901216F
:100C200001989047051E2DD0252D2CD0216A88478C
:100C3000C0B16269012101989047216A8847002864
:100C4000F7D1411E62690198904700E0761CA169C6
:100C50000B988847216A88470028F7D1E1690B98EB
:100C60008847DBE7A1690B9888470746A84201D16E
:100C7000761CD3E7E1690B9888477F1C02D1B8F155
:100C8000000F6FD046E1002762693D463946019862
:100C900090472A2804D162690121019890470125D3
:100CA000DFF884926269012101989047A0F1300138
:100CB0000A290AD24F45E5DC07EB870100EB410723
:100CC000303FDFD445F01005ECE7E90601D46FF0C2
:100CD00000476C280AD04C2814D0682815D06A2800
:100CE0000DD074281CD07A281AD01DE06269012129
:100CF000019890476C2802D045F0040514E045F0B7
:100D000002050DE045F020050AE062690121019825
:100D10009047682802D045F0080505E045F40065D5
:100D20006269012101989047C4E9015765283DD0C7
:100D300019DC58287AD00CDC452837D004DC25286B
:100D400026D0412831D131E046282FD047282CD158
:100D50002CE05B2877D0612828D063287CD06428D9
:100D600023D15AE0D0E06F2848D008DC66281DD097
:100D700067281BD0692821D06E2816D127E070285B
:100D800045D0732868D0752847D078280DD14DE01C
:100D9000A1690B988847054625283FF469AFE169AA
:100DA0000B9888476D1C3FF46AAFB3E023466A4650
:100DB0006FF001000B99AFF300809EE045F040001A
:100DC0006060A80723464FF0000236D43EE0E807F3
:100DD0007FF447AF2068011D21600068290501D517
:100DE00006701BE7290701D5068017E7A90703D579
:100DF000F117C0E9006111E706600FE745F0400018
:100E00006060A80723464FF0080216D41EE040F6A3
:100E10000E0125EA0100606016E045F040006060C8
:100E2000A80723464FF00A0207D40FE045F0400020
:100E30006060A80708D5234610226FF001000B99C7
:100E4000AFF3008059E007E0234610226FF0010065
:100E50000B99FFF797FB50E04FF000094F464B46C8
:100E6000632802D05B2806D040E0E80601D40120C8
:100E7000A06001273AE062690121019890475E284D
:100E800005D14FF0010962694946019890472169EF
:100E900039B900210A46534643F82120491C082944
:100EA000FADBB0B3216969B9C11700EBD162531104
:100EB0000AEB830122F01F02821A01200B68904086
:100EC00003430B6062690121019890475D28E8D1D6
:100ED000B9F1000F09D00020514651F82020D2432B
:100EE00041F82020401C0828F7DB02AB224600977F
:100EF0006FF001000B99AFF3008000280CDA401C62
:100F000008D1BBF1000F05D04FF0FF300DB0BDE8A8
:100F1000F08FFFE74046F9E7E90701D108F1010842
:100F200006444FF0000B79E6CCCCCC0C2DE9F05FF9
:100F300082460078002715468B460AF10104B9461F
:100F4000302801D09DB113E014F8010B0127782857
:100F500003D0582801D045B10AE00DB1102D07D1BA
:100F60000027102514F8010B02E0082500E00A25EF
:100F70000026B0460EE005FB080005FB06F1012740
:100F800001EB10461FFA80F8B6F5803F00D3B94652
:100F900014F8010B2946FFF7DDFB0028EBDABBF163
:100FA000000F05D00FB1641E00E05446CBF800409E
:100FB000B9F1000F06D03EF061FF02210160C81EAA
:100FC000BDE8F09F48EA0640FAE710B5141E73F139
:100FD000000408DA401C41F1000192185B411A43F9
:100FE00001D120F0010010BD2DE9F04D92469B4645
:100FF00011B1B1FA81F202E0B0FA80F220329046EB
:10100000FFF789FB04460F4640EA0A0041EA0B015C
:1010100053465A46084313D0114653EA010019D0EB
:10102000C8F140025046FFF785FB05460E46504684
:1010300059464246FFF76FFB084305D0012004E004
:1010400020463946BDE8F08D0020054346EAE076AB
:101050002C4337430A986305E40AA0EB08000022FA
:10106000FD0A44EA47540A3002D500200146E9E768
:10107000010510196941DDE9084500196941BDE81C
:10108000F04DA2E770B58C1810F8015B15F007035E
:1010900001D110F8013B2A1106D110F8012B03E011
:1010A00010F8016B01F8016B5B1EF9D12B0705D419
:1010B0000023521E0DD401F8013BFAE710F8013B62
:1010C000CB1A921C03E013F8015B01F8015B521E7E
:1010D000F9D5A142D8D3002070BD80B53DF01CF9F0
:1010E000002080BD70B54FF23070C2F20020006861
:1010F00000284FD046F64C6446F64065C2F2012403
:10110000C2F2012546F6007620782978C2F201263F
:10111000002818BF4FF4A070002918BFA821414330
:101120003068FFF791F947F67040C2F2012000687D
:1011300010B1682000F0CCFE01F0CCF801F00EF800
:1011400041F6C010C2F201200068022802D17020CE
:1011500001F07EF8207829780122002818BF4FF48A
:10116000A070002918BFA9225043316860224008AE
:101170000A5400F07DFF22782B7800200021002AFD
:1011800018BF4FF4A072002B18BFA823BDE8704011
:101190001FF093BD70BD000010B546F64C600121F4
:1011A000C2F201204FF00A0E017046F64060C2F212
:1011B0000120017049F2E830C2F201204FF0FF3106
:1011C00040F8081B0FF005C049F2E4300021C2F2DC
:1011D0000120016001F0F2F849F298444BF23331FA
:1011E000C2F20124206806F069FD49F24441C2F2CE
:1011F00001210A68014647F66040C2F20020914290
:10120000016001DD216801604FF4803006F056FD79
:1012100044F62451C2F20221086010BDB0B582B07C
:101220004FF230710446C2F2002100680968E1B152
:1012300001281DD0D0B944F2C450C2F20020016888
:101240006068884243D144F2AC30C2F200200068AA
:10125000002840F09A8044F62450C2F2022001682F
:101260004FF4802006F044FD49E0F0B1002593E002
:1012700044F2C450C2F2002001686068884206D07F
:1012800044F2E451C2F20021096888423ED144F29E
:10129000AC300025C2F20020006800287CD149F261
:1012A0008C30C2F20120056076E044F2E0506168C3
:1012B000C2F200200025006881426DD100F0E8F9FB
:1012C0004BF69020C2F202200560012564E044F252
:1012D000E451C2F200210968884231D144F2AC30B5
:1012E000C2F20020006800284FD144F62450C2F218
:1012F000022001684FF4802006F0FAFC404249F2D7
:101300008C31C2F20121086001253FE044F2D8513E
:10131000C2F200210968884206D044F2DC51C2F2D0
:1013200000210968884256D144F2AC300025C2F24F
:101330000020006880BB49F29030C2F20120B2E781
:1013400044F2D851C2F20021096888420FD144F218
:10135000AC30C2F200200068B8B944F62450C2F2A2
:10136000022001684FF4802006F0C2FC87E044F2BE
:10137000DC51C2F200210968884247D144F2AC3006
:10138000C2F20020006800286FD0002542F60460F9
:10139000C2F20120006810B1284602B0B0BD217A27
:1013A00042F21050C2F2002025F0D4F80028F3D009
:1013B00041F6C01045F25652C2F20120C5F2555214
:1013C0000168013151FB02F202EBD27202EB4202E0
:1013D000891A01604AE744F2EC51C2F2002109681F
:1013E000884207D044F2E851C2F2002109688842DD
:1013F0007FF43CAF49F6F4104FF48031C2F2012083
:10140000016047F21430C2F20120E2E744F2EC51ED
:10141000C2F20021096888420FD149F6F4104FF654
:10142000FA21C2F20120016047F2143040F21E514D
:10143000C2F20120C0F2010115E044F2E851C2F20B
:101440000021096888421FD149F6F41040F21E516C
:10145000C2F20120C0F20101016047F21430C2F271
:1014600001204FF6FA2101604EE744F62450C2F203
:10147000022001684FF4802006F03AFC404249F215
:101480009031C2F201213EE744F2E051C2F2002164
:10149000096888420ED14EF6E0400021C2F20020D9
:1014A000012501604BF69020C2F20220056000F099
:1014B0002DF96BE744F2D451C2F200210968884249
:1014C0000CD14EF6E040C2F20020016800295FEA2C
:1014D0001F9101603BD001F004F915E744F2C851B7
:1014E000C2F200210968884219D144F2AC30C2F23C
:1014F0000020016800295FEA1F92026046F64460FE
:10150000002944F23C41C2F20120C2F202216FF0F4
:101510000042026008680CBF59A155A187E044F25F
:10152000CC51C2F20021096888423BD147F6704095
:1015300044F23C42C2F20120C2F2022201680029B8
:101540005FEA1F910160106870D044A16FE049F21A
:10155000983049F63851C2F20120C2F201210068E8
:10156000086049F2A03049F63C51C2F20120C2F2B3
:1015700001210068086049F2943049F63451C2F202
:101580000120C2F201210068086049F2883049F662
:101590003051C2F20120C2F201210068086001F05E
:1015A00088F8B1E644F2D051C2F2002109688842BD
:1015B00019D149F2E4304EF6E445C2F20120C2F2FC
:1015C000002521A222A300681421009028460DF0D6
:1015D0004CF844F23C40C2F202200068C0F8E050EF
:1015E00000F038F990E644F2C051C2F200210968D7
:1015F00088427FF4CAAE4FF00A0E49F2E830C2F2D8
:1016000001204FF0FF3140F8081B0FF005C044F2F5
:101610003C4149F2E430C2F20221C2F20120002230
:101620000968026003A0C1F8E0006DE60EA1C0F8F1
:10163000E01069E6416C6C204D61726B7320436C65
:101640006561726564000000257320256400000058
:101650004D61726B65642053706F740047726964EA
:10166000204F46460000000047726964204F4E003C
:10167000466F6C6C6F77204D6F6465204F46460057
:10168000466F6C6C6F77204D6F6465204F4E000085
:10169000F0B581B046F20464C2F202242078012839
:1016A0000DD101F0BDF84FF230700021C2F20020E0
:1016B000016040F21400C2F200201BF063FB47F609
:1016C000D02640F21005C2F20126C2F20025012107
:1016D000217030682A6840F20C0447F2CC678242DD
:1016E000C2F20024C2F2012703D138682168814286
:1016F00005D0FFF751FD306828603868206000F0A1
:10170000F7FE01B0BDE8F04000F0B4BF10B501F045
:1017100087F84FF230700024C2F20020046040F2DB
:101720001400C2F200201BF02DFB46F20460C2F24E
:101730000220047010BD80B54FF23070C2F200205C
:10174000006850B344F2AC304FF27441C2F2002052
:10175000C2F2002100680A68002802F10100086056
:1017600001D000F0A9FA47F21430C2F2012000685B
:10177000B0F5803F01D000F01AF949F2903049F2FB
:101780008C31C2F20120C2F20121006809680843CD
:1017900003D0BDE8804000F09AB880BD2DE9F0414B
:1017A00049F2943549F29834C2F20125C2F201247B
:1017B00049F2883849F2A0362868C2F20128216827
:1017C000C2F2012600EBD070D8F8002044F624576E
:1017D00001EB6000206046F64C6002EBD271C2F271
:1017E0000120C2F202273268007802EB6101316009
:1017F000002818BF4FF0A070396806F079FA46F655
:1018000040612860C2F201210A78002A18BF4FF413
:1018100028023968104606F06BFA29682368376891
:10182000C8F8000001EBD172A3EB62022260114400
:1018300049F29C32C2F2012200EBD073116049F2EE
:10184000A431C2F20121A7EB63033360184408609E
:10185000BDE8F081F0B549F2943049F29831C2F216
:101860000120C2F2012149F2E43C46F2676E0068B1
:10187000C2F2012C0968C6F2666E00EBD07049F224
:10188000E83249F28835C2F2012201EB6007DCF848
:1018900000104B1CC2F2012553FB0EF002EBC104F9
:1018A0002D6842F83170861049F2A03106EBD070F5
:1018B000C2F2012105EBD57200EB8000096801EB53
:1018C00062016160A3EB4000CCF80000F0BD70B590
:1018D00049F2903049F28C31C2F20120C2F201216A
:1018E0000268096851EA02000CD044F2AC300023CF
:1018F000C2F20020036046F64460C2F201206FF09D
:101900000043036049F2943049F2983EC2F201204C
:10191000C2F2012E49F2A03C066849F24840DEF8C6
:101920000030C2F20120194406EBD673C2F2012C3A
:10193000006801EB6304CEF80010DCF8005084422C
:101940002A44CCF8002006DC49F29C40C2F2012077
:101950000068844203DA5910411ACEF8001049F2A7
:10196000883049F24C45C2F20120C2F201250368D9
:101970002C6803EBD37002EB6005A54206DC49F24C
:10198000A044C2F201242468A54203DA4010221ABE
:10199000CCF80020881949F29C31C2F2012108607C
:1019A00049F2A430C2F20120D118016070BDB0B577
:1019B00047F6604449F6F411C2F20024C2F2012154
:1019C0002068096806F094F9014620604FF48030E1
:1019D00006F074F949F2984144F62455C2F2012107
:1019E0002268C2F20225096828608A4206DB49F2B1
:1019F0004440C2F2012001688A4205DD4FF4803084
:101A0000216006F05BF92860BDE8B040FFF7C6BE74
:101A10002DE9F04F83B049F2A0360546C2F2012607
:101A2000436849F2A4303268C2F2012093425FEA6F
:101A3000AF970468B800A342EB68C8BF0820934280
:101A40005FEAAF92A3424FEA8202C8BF0822024275
:101A500040F0A28049F298398A46C2F201292B68E7
:101A6000D9F800108B4202DA40F0010008E049F298
:101A70009C37C2F201273F68BB42C8BF40F002005A
:101A8000AF688F4202DA42F0010208E049F29C346A
:101A9000C2F201242468A742C8BF42F002020242F7
:101AA0007AD147F66047581AC2F20027396806F023
:101AB0001FF946F640680014C2F20128CAF8000077
:101AC00098F80040002C18BFA82468683168401AB4
:101AD000396806F00DF9A4EB2040CAF80400A868A4
:101AE000D9F80010401A396806F002F998F8004059
:101AF0000014CAF80800002C18BFA824E868316850
:101B0000401A396806F0F4F898F800B0A4EB204CBD
:101B100046F64C60BBF1000FC2F2012018BF4FF037
:101B2000A80BDAF80410DAF8008059455FEABF9292
:101B300000294FEA820248BF0822B8F1FF3FCAF8E5
:101B40000CC00ADD037842F00207B8F5A07F52EA24
:101B50003782002B52EA178501E042F00105DC458F
:101B60005FEABF92DAF808E0BCF1000F4FEA8202A8
:101B700048BF0822BEF1FF3F0ADD037842F00204AD
:101B8000BEF5A07F52EA3482002B52EA148601E0AF
:101B900042F001062E4203D0002003B0BDE8F08FD2
:101BA0000078ABF1010201924FF0FF320290002861
:101BB00018BF40F23F120F46009200BF56EA0500E0
:101BC00078D0002D56EA0580020707D442070FD4CB
:101BD000820755D4C20761D1002369E0AEEB080249
:101BE000A7EB0C037A4392FBF3F200230BE000BF58
:101BF000AEEB0802A1EB0B035A43A1EB0C030F461B
:101C000092FBF3F2019B42445B455FEABF94002BD9
:101C10004FEA840948BF4FF00809A84210D1B2F139
:101C2000FF3FCAE900231BDD49F00200B2F5A07FA7
:101C300059EA3081029C002C51EA108512E000BF65
:101C4000B2F1FF3FCAE902230FDD49F00200B2F50D
:101C5000A07F59EA3086029C002C56EA108606E0E6
:101C600049F001059046194604E049F00106964600
:101C70009C463B462E424FF000001F469ED08CE70C
:101C8000009CACEB0102A4EB08030F465A43AEEBF9
:101C9000080392FBF3F253182246B5E7A1EB0C02BE
:101CA000AEEB080308FB02F20F4692FBF3F2531867
:101CB0000022A9E7012070E72DE9F04744F23C4AF1
:101CC00046F64469C2F2022AC2F2012946F6486881
:101CD000DAF80000D9F80020C2F201280168C868CB
:101CE000824206D10969D8F800208A4208BFBDE8BF
:101CF000F08747F66046C2F20026316805F0F8FF2B
:101D000044F624544FF6FF71C2F20224884321683E
:101D100005F0EEFF49F29437DAF80020C2F201270D
:101D200049F29835C2F201251268396801EBD17188
:101D3000A0EB610028601069316805F0D9FF6FF3EE
:101D40000F00216805F0D4FF49F2883149F2A03331
:101D5000C2F20121C2F20123DAF80060096801EB46
:101D6000D172A0EB620018603B6849F29C37C2F266
:101D700001272A681A4433683A6049F2A432C2F251
:101D8000012208441060D3E90301C9F80000C8F833
:101D90000010BDE8F08700002DE9F04F0268002A2E
:101DA00060D446F64C63C2F201231B78002B18BFA7
:101DB0004FF4A0739A4255D2D0F804C0BCF1000F82
:101DC00050D446F64067C2F201273F78002F18BF73
:101DD000A827BC4546D28668002E43D49E4241DAED
:101DE000C468002C3ED4BC423CDAB71A46F60075F3
:101DF000BA464FF0010B48BFC7F1000AB7F1FF3FE9
:101E00005BEACBBEB4EB0C06C2F2012534460CFBF8
:101E100003274FEA4A0848BF7442B6F1FF3FD5F89E
:101E200000905BEACBB5B8EB440F4FEA440609F8E3
:101E3000071027D98468A24241D0A6EB0A07F144D3
:101E4000B7F1FF3FC8BFAC440CFB0394B7F1FF3FB1
:101E50003744A15472448468C8BFA7EB0807A24264
:101E6000EED12CE04EF6F84340F20400C2F200231B
:101E7000C2F2002013A11A68571C1F60BDE8F04F82
:101E80003DF0B8BFC768BC4508BFBDE8F08F05EBA3
:101E90000C07A8EB040403FB079705FB03F900BF3D
:101EA000B4F1FF3FAC44C8BF7244B954B4F1FF3F32
:101EB000C3684444C8BFA41B9C454F44F0D1BDE84F
:101EC000F08F00BF6675636B202564200D00000055
:101ED0002DE9F04F85B049F298384FF27472C2F292
:101EE0000128C2F2002249F2943949F2A03AD8F806
:101EF000001012688A1AC2F20129D31749F2883BEE
:101F0000C2F2012AC2F2012B02EB532304466FF303
:101F10001603D31A18BFC3F50003D9F80070DAF816
:101F20000000DBF800207E18BB4202EB00070290A5
:101F3000049715DA5F1801AD2846214601970397EB
:101F400000F0F9F807F50007B742F5DBDAF8000012
:101F5000DBF80020D8F80010D9F8003017185E1808
:101F60004FF27873C2F200231B68C31ADD1703EB2C
:101F700055256FF316055B1B18BFC3F5000393428D
:101F8000019103960CDA1E1801AD00BF28462146C8
:101F90000296049600F0CFF806F50006BE42F5DB87
:101FA00005B0BDE8F08F00002DE9F04F87B00129A2
:101FB0005ADB0C469B461646129D03A900F1080AFF
:101FC0000A1D029201F1080201920C31009100BF3A
:101FD0005AE90298CDE903985EB13046494605F0CA
:101FE00087FE814603903046414605F081FE8046DB
:101FF0000490BBF1000F06D003A802995A4600F0E6
:10200000DEFBDDE90398119848440390A94608EBEC
:102010000500DAE900570490CDE905575EB1304676
:10202000294605F065FE054605903046394605F01F
:102030005FFE07460690BBF1000F06D0DDE90010F9
:102040005A4600F0BCFBDDE9055711981099284469
:10205000059007EB0900069003A84D4600F06BF8C9
:10206000013C0AF1100AB3D107B0BDE8F08F0000BF
:102070002DE9F04F81B049F2E83049F2BC37C2F2A5
:10208000012047F6604946F6406A49F2A03B051D2B
:102090000A26C2F20127C2F20029C2F2012AC2F2C4
:1020A000012B00BF55F8040C411C3BD049F298317C
:1020B000C2F201210968401AD9F8001005F018FE93
:1020C0009AF800800446B8F1000F18BF4FF0A80836
:1020D0002868DBF80010401AD9F8001005F008FE57
:1020E000002C1FD4014646F64C60C2F201206FF06E
:1020F0000402007800284FEA244018BF40F23B1247
:1021000090420FDCA8EB214100290BD49AF8002063
:102110006FF00503002A18BFA223994202DC3A6837
:102120001EF0DEFC013E07F1040705F10805B9D1F8
:1021300001B0BDE8F08F10B50C464EF6FC41C2F27E
:102140000021FFF765FC40B14EF6FC402146C2F28B
:102150000020BDE81040FFF71FBE10BD2DE9F04F75
:1021600083B049F6944044F23C4BC2F20120C2F2E3
:10217000022B00680028DBF8000040D042F604681B
:1021800045F6AC59C2F20128C2F2022943F6847422
:1021900043F6947547F60C3AD8F80010D9F80020A9
:1021A00027A60427C2F20224C2F20225C2F2002AA4
:1021B00021B11AB9854201D0002218E02368B3B1D9
:1021C000E86B00280CBF3268F6222968D1E903C009
:1021D0000B6A009207210022CDE901C05046FFF7AB
:1021E000E3FED8F80010D9F80020DBF80000043630
:1021F000013F04F1040405F59075D9D11DE041F6C5
:10220000C0110068C2F20121C76806690968036A43
:102210004FF0D10031B1009042F21870C2F20020AC
:10222000102105E0009047F60C30C2F20020072193
:102230000022CDE90176FFF7B7FE03B0BDE8F08FCD
:10224000700000006000000040000000B0000000CE
:102250002DE9F04F83B049F60451C2F2012109681B
:10226000012933DB45F6405949F238284EF654250A
:1022700004464FF0000BC2F202294FF0580AC2F296
:102280000128C2F2002500BFD9F800000BFB0A00AC
:10229000876CBFB1D8F800103B6AD7E90306214428
:1022A000009103214FF48012CDE901062846FFF783
:1022B0007BFEBF690FB12FF013C849F60450C2F27C
:1022C000012001680BF1010B8B45DDDB03B0BDE89C
:1022D000F08F00002DE9F04F81B049F6F44BC2F2C7
:1022E000012BDBF80000012865DB49F240284EF69F
:1022F0000C5441F6C01949F2382A0026C2F20128CE
:10230000C2F20024C2F20129C2F2012A002500BF54
:10231000D8F80000811980594B6802684068C4E908
:1023200000200A8A1868A060D9F800005B68E360A2
:1023300030B14B6B23B34F8A272F0FD1B82123E045
:10234000D3052BD444F23C40C2F202200068406C1A
:10235000E8B112F080001AD1632115E092060FD483
:10236000096B1F680A6897421BD149685A688A42FC
:102370001CD160B1DAF8000000F1600104E000BF98
:10238000DAF8000000F1B0012046FFF7D4FEDBF8D8
:102390000000013540368542BADB0CE01306C8D593
:1023A000F5E7DAF8000000F14001EDE7DAF80000A7
:1023B00000F1E701E8E701B0BDE8F08F2DE9F04753
:1023C00049F2A0406FF00041C2F201200122C8F2A0
:1023D0000002016049F29C40C2F20120016049F60E
:1023E0002850C2F2012049F24C41C2F20121D0F83A
:1023F00000E049F24840C2F20120BEF1010F0A603C
:1024000002603DDB4BF6882049F29C4CC2F2022070
:1024100049F2A04849F24C4949F2484A0068011D76
:102420006FF00044C2F2012CC2F20128C2F201296D
:10243000C2F2012A6FF00046174600BF51F8043C73
:10244000A34203DA654610461C4603E09342554614
:10245000184601DD02462B600B68B34204DA45469C
:1024600038461E4604E000BFBB424D46184601DD1B
:1024700007462B6008310FF01FC8111BBA1B01E083
:102480000221022246F64C6049F24045C2F2012088
:10249000C2F2012500782A60002818BF4FF0A07012
:1024A00005F00CFC46F640660446C2F2012632787E
:1024B000002A18BF4FF428022968104605F0FEFBD9
:1024C00049F298428442C2F2012254EAB081307843
:1024D00011604FF40011002818BF4FF4280005F0D8
:1024E000EDFB49F24441C2F201210860BDE8F087EA
:1024F000F0B581B04FF230700121C2F200204EF6EB
:10250000706244F62454C2F20022016046F6446030
:10251000C2F201206FF00041C2F202241268016091
:102520004FF27440C2F200200021016049F23820CD
:10253000C2F20120016049F29030C2F20120016034
:1025400049F28C30C2F20120016047F21430C2F22D
:1025500001204FF48031016049F6F410C2F20120ED
:10256000016046F64C60C2F2012046F60071C2F2EC
:10257000012100780A60002818BF4FF0A070216880
:1025800005F0B6FB46F6406149F29436C2F20121ED
:10259000C2F201260A783060002A18BF4FF42802E0
:1025A0002168104605F0A4FB42F6A8510446C2F289
:1025B000012143F68470C2F202200A6849F2883190
:1025C000C2F2012150F822000C60002844F23C4184
:1025D00043F69470C2F20221C2F202203BD002EB19
:1025E000C20200EB421008603568006849F2983674
:1025F00049F2A03705EBD571D0E90320C2F20126DC
:10260000C2F20127A2EB610104EBD4723160A0EBAE
:1026100062003860FFF75BF949F638503168C2F262
:10262000012049F63C5249F63053C2F201220160C2
:1026300049F63450C2F20120C2F201233968116018
:10264000056040F22800C2F200201C6001B0BDE825
:10265000F0401AF097BB43F684730022C2F20223C3
:10266000086000BF1D68002DB9D101320433042A6F
:10267000F8D1B9E7F0B583B049F2BC3741F2A465AF
:102680000024C2F20127C0F205250DF1030600BFA8
:10269000092130462A4623463AF00CFB01213046F8
:1026A00020F0CEFD013447F8040B0A2CF0D103B022
:1026B000F0BD80B549F2984047F66042C2F2012071
:1026C000C2F2002201684FF48030116005F0F6FA82
:1026D00044F62451C2F202210860BDE88040FFF7B1
:1026E0005DB810B549F6345049F63052C2F20120B7
:1026F000C2F20122016849F29430C2F2012012684C
:10270000016044F2AC30C2F200200068002849F2B7
:102710008830C2F20120026015D044F23C4001EB47
:10272000D17CC2F2022002EBD27400680068D0E9CA
:10273000033EA3EB6C0049F29833C2F20123186008
:10274000AEEB64030FE049F6385049F2983C49F685
:102750003C53C2F20120C2F2012CC2F201230068F4
:10276000CCF800001B6849F2A0340844C2F20124EE
:102770001A44236049F29C34C2F20124206046F6D8
:102780004C60C2F2012049F2A434C2F20124007864
:102790002260002818BF4FF0A07005F08FFA47F6AE
:1027A00060420146C2F2002210604FF4803005F012
:1027B00085FA44F62451C2F20221086010BD2DE9C9
:1027C000F04381B044F2A838D60CC2F200280D467E
:1027D00004460068D8F8003053F8261005F088FA4F
:1027E00040F600418146C0F20421286851F8267065
:1027F000394605F07DFAA9EB00092068394605F055
:1028000077FAD8F800100746286851F8261005F026
:102810006FFA38442860C4F8009001B0BDE8F08336
:1028200070B584B041F2A4650024C0F205250DF115
:10283000070600BF092130462A4623463AF03AFAF5
:10284000304620F0BBFF01340A2CF3D104B070BD38
:102850002DE9F04381B049F6991849F2443904460C
:102860000026C0F29918C2F2012900BF206A06FBB7
:102870000801A06F4FF0806201F160410CF090FD03
:10288000D9F80010D1B14A6C01F10C030BCB03EB6A
:10289000A2022A2311F0F1F900250F2710F0A8FA5F
:1028A00000F00700013F284400F10105F6D1A16FB7
:1028B000D9F800000A462B460EF0CAF90136282E38
:1028C000D4D101B0BDE8F083006809211BF050BFEE
:1028D00010B54F2104461BF04BFF2046BDE81040C9
:1028E00000F04FBAB0B590B044F2D041C2F200212E
:1028F000D1F800E0BEF1020F0ED147F6D021C2F2AE
:102900000121096807296ED1826D4FF0070C082A52
:1029100053D0142A51D066E044F2D441826DC2F201
:1029200000210968052912D847F6D021C2F20121F9
:102930000968082957D10F2A4FF0080C3DD147F2FA
:10294000CC61C2F20121096801294CD135E047F27E
:10295000CC61C2F201210968013903290ED8DFE8F0
:1029600001F00215206A0F2A3DD147F6D021C2F2AC
:1029700001210968082936D10F221CE047F6D02131
:10298000C2F201210968082915D02CE0152A2AD1A4
:1029900047F6D021C2F201210968082923D1152266
:1029A00009E0132A1FD147F6D021C2F2012109689C
:1029B000082918D113224FF0080C43F6947143F6FE
:1029C0008474C2F2022104232831C2F2022400BF1F
:1029D000256815B10D68002D07DC013B04F10404E6
:1029E00001F59071F4D110B0B0BD002BFBD046F6CC
:1029F0005C13C2F202235968994211D042F2B934F1
:102A0000C0F201248D68A54207D1814205D08D6DA9
:102A1000954202D1CD6E002DE5DC49689942F1D195
:102A2000BEF1020F1ED1BCF1070F34D1142A3ED0E3
:102A3000082A35D02FE047F6D02182F01503C2F2E4
:102A40000121D1F800C08CF006018CF008040B4382
:102A500082F0130121435FEA1F91002BADD00029C2
:102A6000C1D0AAE747F2CC60C2F201200068042876
:102A700002D0012814D00EE0BCF1080F10D0BCF138
:102A8000060F08D140F29A20ADF8140068460621DE
:102A900003F012FEA7E710B0BDE8B04006F00CBC92
:102AA00040F29A20ADF814006846012105E040F29A
:102AB0009B20ADF814006846052103F097FE92E7CD
:102AC00010B546F65C1149F6EC4CC2F202214FF605
:102AD0003003C2F2012CC2F200234A6800208A426D
:102AE0001860CCF8000018D042F2B9304FF6340E1E
:102AF0000023C0F20120C2F2002E00BF946884427D
:102B000008D1946D1B2C05D14EF823200133CCF84D
:102B1000003000BF52688A42F0D100206021BDE839
:102B200010401BF025BE06F0C7BB70B50446C66852
:102B300010F05EF9054610F05BF9281A246906EBDF
:102B4000C02510F055F94004212300F180022846E9
:102B5000214611F092F8044610F04AF9400220652F
:102B600040F21F31204610F069FB10F041F900F0EF
:102B70000700216E081A0128D8BF0120206670BD09
:102B8000002061211BF0F4BD70B50446C068A0F5BB
:102B90004C0500BF206905F50025A0F1A07610F0D6
:102BA00027F94004212300F180022846314611F024
:102BB00064F8064610F01CF94002306540F21F31FF
:102BC000304610F03BFB10F013F900F00700316EB7
:102BD000E268081A02F19C710128D8BF01208D42D9
:102BE0003066D7DB00206221BDE870401BF0C0BD1D
:102BF000B0B5044647F6D820C2F201204EF61C516B
:102C0000C2F2002100680128086880F00100086015
:102C100001DC00B9B0BD4FF6300049F6EC42C2F21B
:102C20000020C2F20122016812684B1C93FBF2F5EE
:102C300005FB12324FF63403C2F2002302601C225D
:102C4000204653F82150294610F0B8FF0246286963
:102C50002169401AD16C536E90FBF1F0996890FB9A
:102C6000F1F300205E21C2E91E53BDE8B0401BF025
:102C70007FBD10B50446806FD8B120460DF006FB2D
:102C8000C0B1372120461BF073FD10F0B1F8C11719
:102C9000224600EB517121F00701401A0A2100EB96
:102CA000800001EB4003A06F2146BDE810400DF00D
:102CB000CFBF10BDA16F10222046BDE8104010F01C
:102CC0007DBF10B50446806F48B1204600F030F952
:102CD000A16F24222046BDE8104010F06FBF10BD48
:102CE000F0B581B00446806F78B3022120461BF016
:102CF0003FFD204600F01CF9266A4FF00062204696
:102D000031460CF04DFB054610F072F8074610F006
:102D10006FF8381A06EB005610F06AF846F2676151
:102D20002B46C6F2666150FB01F14A1002EBD171ED
:102D30004FF0006201EB8101401A314600EB400088
:102D40000330009020460EF0EDFE01B0F0BD10B54E
:102D5000044600F0EDF810F04BF82828B8BF10BD7D
:102D6000A16F39B1C86E012804DB20460DF0F2FBDB
:102D700000B110BDE06DC1682046BDE8104010F004
:102D80005DBA10B50446C06F08B10138E067D4F8E9
:102D9000801041B1A26F00201AB1D26E002AC8BFC4
:102DA000481EC4F88000216F07290FDC206A00F05C
:102DB00060402062A0EB4171002904DD4FF06041CA
:102DC0000844206202E0B1F1FF3F5BDDA06F18B163
:102DD00090F86800400705D4012120460FF08EFAD4
:102DE000A0B110BDA06E010617D4E06D816A51B389
:102DF00020460DF04BFA0028E06D24D0816919B10E
:102E000020461BF0B5FCE06D816A01E0E06D416891
:102E10002046BDE8104010F011BA47F6D82120F046
:102E20008000C2F20121A06609680429D9D046F6C3
:102E3000FC60C2F2012000680028D2D12046BDE823
:102E400010400FF0DFBBC06AF8B147F6D820C2F2DD
:102E500001200068032807DC46F6FC60C2F201206E
:102E6000006808B9606F80B920460DF02BFA60B198
:102E7000E06DC16A204610F0E1F9A06E40F08000DC
:102E8000A06610BD4FF000519AE749F69440C2F297
:102E90000120006870B1D4F8800058B9A16F2046B5
:102EA0000DF058FB30B9012120460FF027FA002819
:102EB0007FF497AF606F0138606703DB20460FF047
:102EC000C9FA10B920460FF09DFBE06D006D002897
:102ED0003FF487AF0FF08CFF0228C8BF10BDE06D34
:102EE000016D2046BDE810401BF042BC0DF065B9F5
:102EF000B0B50C460546006806211BF039FC284693
:102F00002146BDE8B04000F0C1BC10B50446806F5A
:102F100048B1204600F00CF8A16F21222046BDE800
:102F2000104010F04BBE10BD816F80220FF010BF1B
:102F3000B0B5836FD3B10446C068A26E216922F098
:102F40002002A266D3E9032317F00FFAA16F2062D3
:102F500091F86A00400709D50FF04AFF05460FF0C7
:102F600047FF281A216A01EB40502062B0BD816EF4
:102F700021F0020181667047B0B50446FFF7D8FF23
:102F8000216AA06F01F10061216211F043F9054649
:102F900009222046294610F011FE09222046294622
:102FA00010F00CFE44F2A8320446006AC2F200227D
:102FB00000F10060E16D1268C50C2062C86B52F828
:102FC000251004F095FE40F60042E16DC0F20422A7
:102FD000A064C86B52F8251004F08AFEE064B0BD0E
:102FE000B0B50446FFF7A4FF216AA06F01F1784154
:102FF000216211F00FF9054609222046294610F0FA
:10300000DDFD09222046294610F0D8FD44F2A83201
:103010000446006AC2F2002200F17040E16D1268BD
:10302000C50C2062C86B52F8251004F061FE40F612
:103030000042E16DC0F20422A064C86B52F8251072
:1030400004F056FEE064B0BD2DE9F04381B00446C3
:10305000FFF76EFFA06F11F0DDF80546092220464C
:10306000294610F0ABFD44F2A8380646006AC2F2C9
:10307000002800F17C40F16DD8F80020C70C3062C8
:10308000C86B52F8271004F033FE40F60049F16D8A
:10309000C0F20429B064C86B59F8271004F028FE68
:1030A000F06409222046294610F088FD0446006A93
:1030B00000F18060D8F80020E16DC50C2062C86B7B
:1030C00052F8251004F014FEE16DA064C86B59F8A5
:1030D000251004F00DFEE06401B0BDE8F08310B5EA
:1030E0000446FFF725FF63212046BDE810401BF092
:1030F0003FBBF0B581B0D0F898507DB30446806FE7
:1031000011F088F829460DF025FA38B320462E6ACA
:1031100012F0BDFA44F2A830F60CC2F20020EF68BB
:10312000006850F826104FF4C01004F0E1FD384458
:10313000E06040F600402F69C0F2042050F82610ED
:103140004FF4C01004F0D4FD384420616869606118
:10315000204601B0BDE8F04010F0C9B801B0F0BDA4
:10316000816F4EF6A822C2F2002201EB410152F813
:10317000311000EB810200682321D2F8A430283BF3
:10318000C2F8A43010F05CBE70B50D46044600686D
:1031900001211BF0EDFAA06F4EF6A826C2F2002620
:1031A00000EB400056F8300004EB8000D0F8A4009B
:1031B000B0B320689B2110F041F8A06F00EB4000F5
:1031C00056F8301006EBC00004EB8101D1F8A420C2
:1031D000013AC1F8A42040692968C0EBC00001EBA6
:1031E000800047F6CC61C2F20021401A46F6B75182
:1031F000A0F5B660CBF2DB61801000FB01F201218B
:10320000204610F041F820680CF072FED4F8D0008F
:1032100000285FEA1F912068BDE870400EF026BAD2
:1032200070BD10B55B2104461BF0A2FA2046BDE834
:103230001040FFF75EBF816F4EF6A822C2F2002257
:1032400001EB410152F8311000EB810200682121AD
:10325000D2F8A430013BC2F8A43010F0F1BD10B593
:103260000446006801211BF083FA20689B210FF0BF
:10327000E5FFA06F4EF6A821C2F2002100EB40004E
:1032800051F8302001EBC00004EB8202D2F8A41008
:103290000139C2F8A4104269012120460FF0F4FF61
:1032A00020680CF025FED4F8D00000285FEA1F91BA
:1032B0002068BDE810400EF0D9B9B0B50446806F63
:1032C0004EF6A82100EB4000C2F2002151F8302058
:1032D00001EBC00004EB8202D2F8A4100139C2F85D
:1032E000A41045690FF084FD00F00100012142198E
:1032F00020460FF0C9FF20682221BDE8B04010F041
:103300009FBD0000B0B50446006802211BF030FAF2
:1033100020689B210FF092FFA06F4EF6A821C2F209
:10332000002100EB400051F8302001EBC00004EB1D
:103330008202D2F8A4100139C2F8A4104269012116
:1033400020460FF0A1FF20680CF0D2FD072500BF3A
:10335000206800210EF08AF9013DF9D1B0BD0000CE
:103360002DE9F04F81B08046006804211BF000FA7F
:10337000D8F800009B210FF061FFD8F878004EF6D6
:10338000A821C2F2002100EB400051F8302001EBEF
:10339000C00008EB8202D2F8A4100239C2F8A410CF
:1033A0004269012140460FF06FFFD8F800000CF091
:1033B0009FFD4FF6B80A1424C2F2002A0FF018FD40
:1033C00045F25651C5F2555150FB01F101EBD17157
:1033D00001EB4101401AD8F8001000EB80000E6AA2
:1033E00000F1050B0FF004FD05460FF001FD281A52
:1033F000DAF8009006EBC045D8F800600FF0F8FC52
:1034000007460FF0F5FC381A4FF000622946CDF858
:1034100000B009EB401330460EF084FB013CCDD1E7
:1034200001B0BDE8F08F10B5044600689B210FF095
:1034300005FFA06F4EF6A821C2F2002100EB40006C
:1034400001EBC000012142692046BDE810400FF0A9
:103450001BBF10B50446806F00B32046FFF768FD20
:1034600020460CF013FFD0B10FF0C2FC4AF6AB219E
:103470002246C2F6AA2150FB01F101EBD17101EB0A
:103480004101A0EB41000A2100EB800001EB400369
:10349000A06F2146BDE810400DF0DABB10BDA16F52
:1034A00020222046BDE8104010F088BB10B5542102
:1034B00004461BF05DF92046BDE81040FFF761BCF3
:1034C00080B590B046F65C1E836EC2F2022E23F0E9
:1034D00002038366DEF80420724512D042F2B93C42
:1034E000C0F2012C9368634508D1824206D0836DF7
:1034F000916D994202D1D16E00290ADC5268724561
:10350000F0D140F29A20ADF814006846032103F090
:10351000D3F810B080BD0021C0F8F0107047012131
:10352000C0F8F01070470221C0F8F0107047006832
:1035300007211BF01DB970B50446406B0068816916
:103540000020C4F8800019B191F86800400705D444
:10355000002120460EF0D2FE50B970BD94F86800EC
:10356000A167800604D520460CF0F4FF0028EFD0B8
:10357000E06D0169A1F12400032806D3A1F1270021
:1035800002281AD22725022601E0242503260FF05F
:103590002FFC90FBF6F101FB16004119A06D1528D8
:1035A0001ABF1328204600201BF0E2F8E06DC16826
:1035B0002046BDE870400FF041BE0029EED1F5E78E
:1035C000CA68B2F5F40F02F5C022CA60B8BF7047EE
:1035D0004268012A03D14FF40000C8607047816A35
:1035E00019B1C16F81670CF060BC002100220FF09F
:1035F0004BBE10B5552104461BF0BAF82046BDE875
:103600001040FFF7BEBB006805211BF0B1B8C16DCB
:10361000496A09B11BF0ACB8704710B50446806F19
:1036200040B12046FFF784FC216A2046BDE81040E7
:1036300000F01CB810BD10B50446806E20F00200EA
:10364000216AA06601F18041204600F00FF8206A4F
:1036500080F00041204600F009F8206A00F1404166
:103660002046BDE8104000F001B800002DE9F0410F
:1036700046F65C120446C2F202225368934213D00B
:1036800042F2B9360020C0F2012600BF9D68B54263
:1036900003D19D6D122D50EA10905B689342F5D1D5
:1036A0001428C8BFBDE8F08144F6DC02E06DC2F228
:1036B000002244F2A833006CC2F20023D2F8B826EC
:1036C000CF0C10444FF480221B68E66800EB4000EA
:1036D00053F8271000EBD07002EB6005284604F089
:1036E00007FB00EB060840F60040C0F20420266904
:1036F00050F82710284604F0FBFA6269811902F598
:1037000000221223404610F0B8FAD0E90312054611
:1037100011F004FA30B1A06FA8672846BDE8F04167
:1037200000F019BA42F21073284621462246BDE83D
:10373000F0410DF08DBA44F2D041C2F20021096887
:1037400002294FF0390104D1C26E12F1320F51EA51
:10375000A1911BF00DB8F0B581B00446806F78B32D
:103760002046FFF7E5FB266A4FF00062204631460F
:103770000BF016FE0546012120461AF0F9FF0FF066
:1037800037FB07460FF034FB381A06EB00560FF0F4
:103790002FFB46F267612B46C6F2666150FB01F1D2
:1037A0004A1002EBD1714FF0006201EB8101401A27
:1037B000314600EB40000330009020460EF0B2F995
:1037C00001B0F0BDF0B581B004460FF011FB46F238
:1037D0006761C6F2666150FB01F18A1002EBD1719C
:1037E00001EB8101A0EB4100022101EB40062068C2
:1037F000A16B06EB8602002918BF5600076A0FF07E
:10380000F7FA05460FF0F4FA281A4FF4800207EB96
:103810008045206829460BF0C3FD034620684FF41D
:103820008002294600960EF07DF949F24435C2F235
:103830000125286868B1206853211AF099FF216892
:103840002B68D1E90301D3E9032316F08EFD21682B
:10385000086201B0F0BD8C46C968B1F5181FA1F52A
:10386000C021CCF80C10C8BF7047816F4EF6A8225B
:10387000C2F200224FF4001301EB4101CCF80C30EE
:1038800002EBC101CA6800210FF0FEBC417BC907F1
:103890000BD0C16F0A2908D1816A31B1D0F8D0109C
:1038A0000131C0F8D0100DF0B1BC0021C0F8D0102B
:1038B0000CF083BC2DE9F04381B08046806FA0B34B
:1038C000022140461AF054FF4046FFF731FBD8F87A
:1038D00020504FF00062404629460BF061FD46F251
:1038E000676906460324C6F2666900BF0FF080FAD6
:1038F00007460FF07DFA381A05EB00570FF078FAFB
:1039000050FB09F133464A1002EBD1714FF00062CF
:1039100001EB8101401A394600EB40000330009072
:1039200040460EF0FFF8013CE0D101B0BDE8F08365
:1039300010B50446806FF8B12046FFF7F9FA20462B
:103940000CF0A4FCC0B10FF053FA46F26761C6F266
:10395000666150FB01F18A0802EBD171224601EB4E
:103960008101A0EB4100042101EB8003A06F2146FF
:10397000BDE810400DF06CB910BDF0B581B0044643
:103980000FF036FA46F26761C6F2666150FB01F14C
:103990008A1002EBD171022201EB8101A0EB410000
:1039A000216802EB40070E6A0FF022FA05460FF07D
:1039B0001FFA281A06EB80450126C0F2400620684F
:1039C000294632460BF0ECFC034620682946324675
:1039D00000970EF0A7F849F24435C2F20125286895
:1039E000002820681BD00D211AF0C2FE21682B6828
:1039F000D1E90301D3E9032316F0B7FC21680A6A71
:103A0000831AB3F1004F10D94CF6CD46CFF6CC4611
:103A1000B34216D243F2C302C0F20C320FE00C21C3
:103A200001B0BDE8F0401AF0A3BE43F23336C0F255
:103A30003336B34205D94CF63D72CFF6F34210440B
:103A400000E090190862886E40F08000886601B03E
:103A5000F0BD70B50446C06D816BA1F13B00032839
:103A600006D3A1F13E00022812D23E25022601E033
:103A70003B2503260FF0BCF990FBF6F101FB160085
:103A80004119A06D152818BF132804D1002003E0A8
:103A90000029F6D170BD2046BDE870401AF068BE1E
:103AA000B0B50446806F30B32046FFF741FA204698
:103AB0000CF0ECFBF8B10FF09BF946F26761C6F22F
:103AC000666150FB01F18A1002EBD17101EB8101BB
:103AD000A0EB4100062100EB400001EB4005352141
:103AE00020461AF045FEA06F214622462B46BDE82F
:103AF000B0400DF0ADB8B0BD10B50446806FD8B180
:103B00002046FFF715FA6069A16F00F5801060612B
:103B10000622204610F052F86169D4F878C0A1F569
:103B200080116161D0E90313C0F898C0D0E9124256
:103B300021441A44C0E9031210BD10B50446806F39
:103B400040B12046FFF7F4F938212046BDE8104087
:103B50001AF00EBE10BD70B5856F002D43D004461F
:103B6000C06DA16E41F08071A166816920461AF096
:103B7000FFFD2046FFF7DCF944F2A831206AC2F2CB
:103B80000021C60C4FF4A010096851F8261004F06B
:103B9000AFF840F60041A064C0F204214FF4A01039
:103BA00051F8261004F0A4F8E064D5E90301D4E943
:103BB0000323801AC91A0BF052FC46F267616A6946
:103BC000C6F2666150FB01F0C11401EBD070696C64
:103BD000012802EB61016269A1EB0201D8BF01205B
:103BE00091FBF0F0206570BDB0B50446C06F0138A0
:103BF000E06718BFB0BDA06F10F00CFB0546C068B1
:103C00001D23D5E9041210F038F823211AF0B0FD75
:103C10000FF0EEF8322801DA0B2323E05A2801D204
:103C20000C231FE0782801D20D231BE0822801D24B
:103C3000162317E0A02801D20E2313E0A22801D2F8
:103C400003230FE0AC2801D205230BE0C02801D2EA
:103C5000142307E0DE2801D2082303E00F23F6280F
:103C600038BF112305F10C0207CA10F006F8012134
:103C700005460EF043FB20B1E86DC16828460FF001
:103C8000DDFAD5E90312284610F0D0FA2046BDE847
:103C9000B0400FF0BDB910B55F2104461AF068FDC1
:103CA0002046BDE81040FFF79FBF10B50446FFF760
:103CB0003FF90FF09DF80A28B8BF10BDA16F39B1C8
:103CC000C86E012804DB20460CF044FC00B110BD96
:103CD000E06DC1682046BDE810400FF0AFBA10B5E6
:103CE0005C2104461AF044FD2046BDE81040FFF771
:103CF00000BA70B547F6E021C2F2012109788907C0
:103D000000D070BD0446C068D4E9041210F0FBF87E
:103D100004F10C02D4E9123607CAC01A891B072322
:103D20000FF0ABFF05464FF4803028650FF060F8C8
:103D300000F00300296E081AD4F898600128D8BF53
:103D40000120002E2866DCD0F06E0128B8BF70BDBF
:103D5000D4E90301D6E9032316F007FB216A884260
:103D600014D041F6C053421AC2F20023B2F1004F00
:103D70001A6804D9891A421A51EA408005E01144B0
:103D8000421AB2F1004F50EA8180206244F2A83218
:103D9000E16DC2F20022C50CC86B126852F8251002
:103DA00003F0A6FF40F60042E16DC0F20422A064D9
:103DB000C86B52F8251003F09BFFE064D6E90301BD
:103DC000D4E90323801AC91A0BF049FBE16D72692B
:103DD000C96B90FBF1F06169511A01F520110128BE
:103DE000D8BF0120226D91FBF0F04FF400519042BA
:103DF00051EAA1B01044206570BD10B50446806F33
:103E0000E0B12046FFF794F820460CF03FFAB0B13D
:103E1000372120461AF0ACFC0EF0EAFFC11722460B
:103E200000EB517121F00701401A214600EB4000E0
:103E3000C31CA06FBDE810400CF00ABF10BDA16FFD
:103E40001F222046BDE810400FF0B8BEF0B581B08B
:103E50000446806F002842D02046FFF769F8A16F22
:103E600020460CF077FBD0B3522120461AF080FC9C
:103E7000A06F1423214622460CF0EAFEA06F4FF0FB
:103E80007A72D4F89850C16D896C92FBF1F101659A
:103E90002DB344F2A832216AC2F20022CE0CC768C8
:103EA0004FF4C010126852F8261003F021FF381AA0
:103EB000E86040F60040A16FC0F204200F6950F89E
:103EC00026104FF4C01003F013FF4622381A286161
:103ED0002846214601B0BDE8F0400EF039BF01B0E0
:103EE000F0BD00002DE9F04F81B08346006F082837
:103EF00039D04EF68443DBF85C10C2F20023DBF8C5
:103F00000C20C96BDBF8107053F8203003FB012242
:103F10004FF6C823C2F202231A604EF6A443C2F23F
:103F2000002353F820004FF6CC2300FB01704FF222
:103F30007471C2F20021C2F2022309681860511A9A
:103F40004FF6C423A1F5800201F58001D5154FF28B
:103F50007872C2F20022C2F20223B5EBE15F12686E
:103F6000C3F800B005DD584601B0BDE8F04FFEF7DC
:103F700008BF801A4EF60B56A0F5800200F58000AF
:103F80004FEAE2584FEAE059B8EBE05F58EAC980DF
:103F90004FEAE15AC0F20026441CC845474608DCF7
:103FA0002846394632460BF00FFF38B10137BC4284
:103FB000F6D1554505F10105EFD1D4E742F6AC54F1
:103FC000DBF87850C2F201242068CBF8780058461C
:103FD000FEF7AEFF4FF485715846CBF878500FF0DE
:103FE0002DF920681F211AF0C3FB2068C56DA96D4B
:103FF0000FF024F920686A6D416C89004164A9685A
:10400000C0E91A210021816701B0BDE8F08F362197
:104010001AF0AEBB10B50446806F98B12046FEF78B
:1040200087FFA16F0423C8684A6901460FF025FE87
:104030008467C4F89800A16FC0F89810BDE81040DC
:10404000FFF757B810BD70B547F6CC660446006858
:10405000C2F2002641F2D8020D46B318426E9A42CF
:1040600004D041F2F40131448A4202D195210FF08B
:10407000E5F8A06F072808D106F25470296881423C
:1040800003D120680B211AF073FBE06F0A2808D1D6
:10409000A06A30B1607BC00713D10020C4F8C4000F
:1040A00017E0A06F4EF6A821C2F2002100EB4000FD
:1040B00001EBC000002182682046BDE870400FF08F
:1040C000E3B8D4F8C40038B3A06F40F0020006286B
:1040D00022D149F23420C2F20120066844F2A8300D
:1040E000C2F2002006F03F0149020268606A51589E
:1040F00003F0FEFD06F01F0140F600424902C0F247
:10410000042200F58030A860606A515803F0F0FD89
:1041100000F50010E86070BD0120C4F8C40020461E
:10412000BDE870400DF072B81F211AF021BB2DE9D7
:10413000F04184B047F6E0204BF66811C2F201204E
:10414000C2F2022104680E6807F0D7F949F270350F
:10415000C2F201252868006880472868C068804747
:1041600046F65800C2F20120006818B1002004B0E1
:10417000BDE8F08149F6984194FBF6F0C2F20121C6
:1041800049F2B038C2F20128097829B1D8F80010F4
:10419000081A0428EADC0EE049F68841C2F201213F
:1041A0000A68D8F80010A1EB000012B10828DDDC85
:1041B00001E00228DADC2A68002003900290CDE9B1
:1041C0000000684652689047D8F8001046F668121A
:1041D000C817C2F20222DDE9006501EB5060DDE99B
:1041E000024720F07F00081A0131C8F8001000EBE8
:1041F000800002EB4013400116500120C3E9015436
:10420000DF60C3F88000B2E72DE9F04180464BF64D
:10421000D01044F26847C2F20220C2F202270D46D3
:10422000006800213A680123002634F016FF0028B8
:1042300000F09C8038680678B11E022911D3002E48
:1042400000F09480012E18D14BF6D4110222C2F254
:1042500002210A704EF62052C2F200220021117093
:1042600010E04BF6D4124EF62053C2F20222C2F2F4
:10427000002301211170197004E04EF62051C2F2A2
:104280000021097840F65C224FF00B0EC0F20422A8
:1042900049F2901604320023C2F20126012B5FEA94
:1042A0009F970F40012F13D18788012F10D01488BA
:1042B000BC420DD85488BC420AD3C78832F8044C9B
:1042C000BC4205D832F8024CBC4228BF337000BF54
:1042D000013308320FF01FC03078411E092912D86F
:1042E0001B20DFE801F0052A121416181A1C1E20E4
:1042F00049F26840C2F2012001680D20002908BF80
:104300006FF05C0019E0002630E0092015E02D2058
:1043100013E02B2011E0AD200FE0AF200DE0AC202A
:104320000BE0AE2009E049F26840C2F201200168CA
:104330000D20002908BF6FF05D00287047F22000B3
:10434000C2F201200178012905D10126C8F80060D8
:10435000022101700AE04BF6D4100126C2F20220BD
:10436000007801285FEA1F90C8F800003046BDE8D9
:10437000F08139F0E9BA0000B0B586B039F0E4FA5E
:1043800000208DF803004EA003900A200190032026
:104390008DF808000DF10300049041F2140001A90A
:1043A000C0F2052035F0C8F808B147A021E04FF46D
:1043B0004870ADF816004FF4F070ADF8140041F2FB
:1043C0001400C0F2052034F072FD4BF6D015C2F295
:1043D0000225286030B14FF4807134F06BFD50B38A
:1043E00049A000E041A036F09CF840F6FE70C0F213
:1043F000052036F096F856A037F0B8FB42F6056275
:104400000121C0F203220023044637F07BFB28B1D0
:1044100040F6D770C0F2052036F083F8012120461F
:1044200037F0C4FB28B140F6C070C0F2052036F06A
:1044300078F806B0B0BD0C2036F0A3F80446286822
:104440004FF4B051224634F005FD20786278A3780D
:10445000A0F1300140F6EE70303A303BC0F205205A
:1044600036F05FF828680DF1160241F2036134F06E
:10447000F1FC286805AA41F2046134F0EBFC2868DD
:1044800041F20161224634F0E5FC616823A036F078
:1044900048F8A16825A036F044F8A17827A036F0A6
:1044A00040F8204634F0C2FF01200C2134F0D4FA49
:1044B00044F268410028C2F2022108609BD194E7CF
:1044C0007363693369000000746F75636820646505
:1044D000766963652067743931343720696E697491
:1044E000206661696C65642E0A00000063616E27B6
:1044F000742066696E6420646576696365206774FC
:104500003931310A000000006F70656E20646576F5
:10451000696365206661696C6564210072616E671C
:10452000655F78203D202564200A000072616E6777
:10453000655F79203D202564200A0000706F696E58
:10454000745F6E756D203D202564200A0000000018
:10455000703930370000000038F08EBF4FF26440F1
:104560000121C2F20020016070470000000000003D
:10457000F0B583B007F0CDF806F007FC06F064FB59
:1045800006F002FC07F0C6F807F02EFC07F042FA2E
:1045900007F0F0FA042007F001FA35A047F61821D9
:1045A000C2F2002190ED001F49F2B410C2F20120C6
:1045B00080ED001F32A007F00FFC47F6784135A0D0
:1045C000C2F2002107F008FC47F6442134A0C2F2F1
:1045D000002107F001FC47F67C4135A0C2F2002122
:1045E00007F0FAFB47F6644135A0C2F2002107F05C
:1045F000F3FB42F69C6136A0C2F2012107F0ECFB0E
:1046000047F6944135A0C2F2002107F0E5FB4EF6D3
:10461000A42136A0C2F2002107F0DEFB4EF69C2159
:1046200038A0C2F2002107F0D7FB47F680413AA03C
:10463000C2F2002107F0D0FB42F2E84545F61A66C7
:104640000024C2F20025C0F205266F460C21384630
:10465000324623460AF009F83846294607F0BCFBE3
:10466000013404350A2CF1D103B0F0BD00BF00BF06
:104670006700000069000000620000007200000096
:104680006D6F7573655F73656E7369746976697450
:10469000790000007366785F766F6C756D65000059
:1046A0006D757369635F766F6C756D6500000000F2
:1046B00073686F775F6D6573736167657300000082
:1046C00073637265656E626C6F636B7300000000EC
:1046D00064657461696C6C6576656C00736E645FAB
:1046E0006368616E6E656C730000000076616E69D0
:1046F0006C6C615F7361766567616D655F6C696D38
:104700006974000076616E696C6C615F64656D6FE1
:104710005F6C696D6974000073686F775F656E64C4
:104720006F6F6D00000000002DE9F04F9BB049F65F
:104730009440C2F20120006828B14FF23470012188
:10474000C2F20020016043F2E420C2F2002001F036
:10475000ECFB42F6046946F2EC5A46F2F45B46F290
:10476000F85446F2F055C2F20129C2F2022AC2F20E
:10477000022BC2F20224C2F20225D9F800000490F2
:10478000DAF800000590DBF80000099020680A9034
:1047900028680F9044F2D44049F6B44646F6FC67C8
:1047A00044F28048C2F20020C2F20126C2F2012780
:1047B000C2F2022800680B903068069038680790B3
:1047C000D8F8000008904BF66C10C2F20220006886
:1047D0000E9041F23E60C0F2052007F039FC01283E
:1047E00009DB41F24660C0F2052007F031FC0028E9
:1047F0005FEA1F9000E000200C9002A8002101F069
:1048000063FC04AB0FCBC9F800000998CBF800009B
:104810000A9820600F98286049F2783032604BF691
:104820006C1642F6A855CAF80010C2F201200C9985
:10483000C2F20226C2F2012501603B600898C8F866
:1048400000000E9830601298286029B141F2D450CF
:10485000C0F205203BF0A6FF119825A1A0EE100B99
:1048600043F6847091ED003FC2F2022021FE830FD7
:1048700080EF500080EF512033FE010F80ED001FCC
:104880002168D9F80020DBF800301DA0DAF80070AC
:10489000009735F046FE2868119A411C28A013465F
:1048A00035F03FFE316801291CDBD9F80000C8B1A2
:1048B00014290BD129A007F0CBFB30B141F29B505A
:1048C000C0F2052035F02DFE0CE0316825A035F052
:1048D00028FE3068022802DB73203BF05DFF29A030
:1048E0003BF060FF1BB0BDE8F08F00BF00BF00BF12
:1048F00000000000010000000200000003000000B2
:104900007374617274736B696C6C20256920206408
:10491000656174686D617463683A2025692020734D
:10492000746172746D61703A20256920207374611E
:104930007274657069736F64653A2025690A0000B6
:10494000706C61796572202569206F662025692069
:10495000282569206E6F646573290A002D617667CA
:10496000000000004C6576656C732077696C6C20E4
:10497000656E64206166746572202564206D696EC1
:10498000757465002E00000010B592B004200590EB
:104990000020049029A007F05BFB4BF69824012827
:1049A000C2F2022404DB4FF080402060012004901A
:1049B00024A007F04DFB012804DB4FF040402060AD
:1049C0000120049044F2D040C2F20020006801901F
:1049D00047F6D420C2F201200068029041F23E6006
:1049E000C0F2052007F034FB012809DB41F24660E4
:1049F000C0F2052007F02CFB00285FEA1F9000E0C2
:104A0000002001AC039004F118001EF023FD0FA05C
:104A10001EF0C0FCC043C00F0690204601F004FA0F
:104A200049F69444C2F2012420600BA007F010FB69
:104A30000128A4BF0120206012B010BD2D6C656656
:104A4000740000002D726967687400004652454585
:104A5000444F4F4D000000002D736F6C6F2D6E653D
:104A6000740000002DE9F04F83B049F6AC40C2F26B
:104A700001200068002840F08F8145F65C5040F22C
:104A80003C05C2F202204EF62454C2F20025C2F2C6
:104A90000024006830B113F029F84FF0FF3028608F
:104AA000032020604EF6803647F6DC2AC2F200264C
:104AB000C2F2012A3468DAF800703846A74208D0FA
:104AC000002000214FF4A072C8233AF0FAFFDAF870
:104AD000000047F6E02BC2F2012B30B9DBF80010E2
:104AE00019B105F0B0FADAF80000032857D8DFE86A
:104AF00000F00224272ADBF8000000284FD04FF2F4
:104B00003070C2F20020006808B1FCF7EBFA4FF6F3
:104B1000A0294EF62858C2F20229A742C2F2002864
:104B2000D9F800001DD1C8284FF000011AD0D8F8DC
:104B30000020002A18BF012114E01CF039F92EE0F2
:104B400002F0CAFE2BE043F6D0500821C2F2022048
:104B500000681EF075FB0246002000211BF0C0FF1C
:104B60001DE0012147F640734EF62C52C2F201239C
:104B7000C2F200221B681268002B0B4608BF0123FB
:104B8000002A51EA0381C8285FEA1F9018F0B5F89F
:104B9000D9F80000C8285FEA1F90C8F8000006F0A6
:104BA000B2FCDAF80000DBF80010C8B94FF230723E
:104BB000C2F2002212689AB991B143F2FC2043F686
:104BC0009471C2F20120C2F20221006800EBC00021
:104BD00001EB401016F01CF8DAF80000DBF80010CA
:104BE00020B919B105F012FADAF800002968A146D7
:104BF00050B1884208D06AA008211EF021FB06F0BF
:104C000055FCDAF8000029684EF63458C2F2002844
:104C100038B931B10020C8F8000013F0BDF8DAF857
:104C2000000044F6285B49F268454EF63054C2F263
:104C3000022BC2F20125C2F2002438BB4FF23070C1
:104C4000C2F20020006808BBDBF80000B0F5A07FCE
:104C50001CD0286858B9206848B9D8F8000030B18D
:104C60004EF62450C2F20020006830B90EE04EF635
:104C700024510320C2F20021086012F029FE4EF6F2
:104C80002451C2F2002108680138086046F62C1051
:104C9000C2F20220006830B146F63010C2F20220A3
:104CA00000681BF035FE286820604BF6902043F624
:104CB000E051C2F202204EF62C52C2F20221C2F2A0
:104CC00000220068C8F8000047F64070C2F20120D8
:104CD000006810600868DAF80010002840F23C0014
:104CE000C2F200203160016023D04FF23070DBF857
:104CF0000010C2F2002044394FF6B42204240068A8
:104D0000C2F2022200284FF6B020C2F2022001EBCC
:104D1000D1711268006800EB610523A04FF0080113
:104D200008BF141D1EF08CFA0246284621461BF0CF
:104D30004CFF07F06FFC09F0E9FC4F4504D103B0CC
:104D4000BDE8F04F06F010B9002000214FF4A0722A
:104D5000C823C8263AF04FFE06F093FA451E00BF5E
:104D600006F08FFA0446471B012006F0BFFB012F17
:104D7000F6DB0120002100224FF4A073CDE900678B
:104D80003AF05BFE054606F0BEFB07F043FC06F07A
:104D9000EBF8002D2546E3D003B0BDE8F08F00BF4F
:104DA000504C415950414C004D5F504155534500C6
:104DB00010B542F6A85044F2D441C2F20120C2F22A
:104DC000002142F6946C06240068096821F0010174
:104DD000C2F2012C00EBC000062954EA149143F6FC
:104DE0009474C2F20224DCF8003004EB401001336A
:104DF000002444604FF2644093FBF1F2C2F20020C1
:104E0000046002FB11304BF6802143F6E052C2F2FF
:104E10000221C2F202220628CCF800000C6047F200
:104E2000C461C2F2012114600C6000F27D80DFE8F1
:104E300000F004484A5F2761630044F2D04043F623
:104E4000D452C2F20020AA21C2F2022243F6D05369
:104E50000068C2F20223022808BF40F281111160EB
:104E600047F6DC21C2F20121022845F677504FF0C7
:104E70000302C0F205200A6018601ED01D201DE04C
:104E800044F2D04047F6DC21C2F20020C2F20121F8
:104E9000032200680A60022832D143F6D45043F658
:104EA000D052C2F20220C2F2022245F6775340F2FB
:104EB0008111C0F2052301601360422019F054FCF7
:104EC00032E02FA019E043F6D450C821C2F20220EC
:104ED00043F6D052C2F2022245F69753016047F6DC
:104EE000DC20C2F201200321C0F2052313601AE086
:104EF00021A002E01CA000E019A003F02BFD13E0AC
:104F000043F6D4510328C2F202214FF0C8000860D2
:104F100043F6D050C2F2022004D145F69751C0F2B8
:104F2000052100E012A101604FF26070C2F2002082
:104F3000006888B143F6D05445F67751C2F2022496
:104F4000C0F2052120683AF051FA28B90EA01EF0EF
:104F500021FAB0F1FF3F00DD10BD0EA0206010BDB2
:104F600064656D6F3400000064656D6F3300000090
:104F700048454C503200000064656D6F32000000FF
:104F800064656D6F310000007469746C65706963ED
:104F900000000000494E54455250494300000000B3
:104FA0004FF2607042F69064C2F20020C2F2012417
:104FB0000068A0B1206860B947F2C460C2F2012065
:104FC0000068052805D049F69440C2F20120006827
:104FD00028B145F6FC30C0F205203BF0E3FB206829
:104FE00008B102F08BFE49F2A8300121C2F2012083
:104FF00001601BF04BFA47F2C860C2F20120006862
:1050000006F071FA06F060F945F62140C0F2002082
:1050100006F04AFA06F05AF905F0BCFE1BF073FEE2
:1050200012F064FD01F024F846F62C10C2F20220C2
:10503000006848B147F6DC204EF68031C2F201200C
:10504000C2F200210068086042F6A85443F6947545
:1050500045F62856C2F20124C2F20225C2F2022607
:1050600006F048FA1BF012FA206800EBC00040017D
:10507000285819F0B7FC306808B92FF00FC8FFF7AF
:10508000F1FCEDE7F2B045F65D100021C0F2002022
:1050900005F0C9FD0FF61C0006F0ACF90FF6200074
:1050A00035F03FFA1EF0FEFD0FF6440006F0D0FF8B
:1050B00049F6B441C2F2012108600FF6400006F043
:1050C000C7FF44F28041C2F2022108600FF63800A7
:1050D00006F0BEFF46F6FC61C2F2012108600FF641
:1050E000300006F0B5FF42F6AC64C2F20124206045
:1050F00005F04FFE0FF6240006F0AAFF42F6046505
:10510000C2F2012508B1012028600FF61C0006F04C
:105110009FFF08B102202860206818B10FF6140024
:1051200035F0FFF9002008F067FF0FF6200006F0C9
:105130008FFF49F604220028C2F201224FD049F61F
:105140000021C2F2012109680139884207DA116899
:1051500001EB80004068FBF7BBFA044600E0C8247E
:105160000A2C45F6C800D8BF0A24B4F5C87FC0F29F
:10517000052028BF4FF4C874214635F0D2F944F217
:10518000B03C47F68446C2F2002CC2F2002648F238
:105190001F52DCF80010DCF804306143D6E90050FF
:1051A000C5F2EB1263436543604351FB02F153FBCD
:1051B00002F355FB02F54F1150FB02F007EBD171E2
:1051C0005F11CCF800106911421107EBD373CCF8D2
:1051D000043001EBD57102EBD070C6E9001045F642
:1051E0003A20C0F2052035F09CF91BF065FD45F62C
:1051F0005520C0F2052035F094F945F6F35045F6F8
:10520000E351C0F20520C0F2052108F03FFFFFF78F
:10521000AFF907F027FD4DF6D5600021C0F2002060
:10522000002405F000FD47F6D4283F20C2F20128F3
:10523000414600F0BBFB49F23415C2F2012528605B
:1052400028B945F6A010C0F2052005F0A7FD49F6E3
:10525000C01B45F62220C2F2012BC0F20520CBF87C
:10526000004035F05EF92D6845F6D220C0F20520E9
:1052700029463AF0CDFD28461DF0C2FE00201EF062
:1052800045F800F0F5FC45F62C700121C0F2052030
:1052900006F0E2FE44F2D44A44F2D045C2F2002ABB
:1052A000C2F2002538B9D8F8000005284CD00428EF
:1052B0004CD1092058E049F60421441CC2F20121D6
:1052C0004FF2A046C0F204260927096806F1040936
:1052D00051F82450D9F800102846FBF7EFF850B3E6
:1052E000013F09F10C09F5D145F65E50C0F20520E9
:1052F0003BF058FA45F63D5245F6DB050C36C0F258
:1053000005220927C0F2052556F8081C28463AF060
:105310007FFD013F56F80C2BF6D149F60420C2F26E
:105320000120006850F8241045F63A30C0F20520FC
:1053300005F034FD03E0D9F80400CAF8000044F297
:10534000D045C2F2002511E005200DE029680129B1
:1053500001D8042008E0022903D0032906D1062041
:1053600002E00128F5D00720CAF80000DAF80010A2
:105370002868052902D803282A460AD006290AD80F
:10538000022808D1D8F80000424620F00100022887
:1053900001D10120106045F6BE50C0F205201DF07D
:1053A000F9FF49F604270028C2F201270BD445F67D
:1053B000E140C0F205203BF0F5F94FF260700121A9
:1053C000C2F2002001601EF069F9CBF8000045F63A
:1053D0005B70C0F20520012106F03EFE40B945F6A3
:1053E00051700121C0F2052006F036FE00284BD096
:1053F0003968441C51F824000FF2585108F007FF97
:10540000396851F8243048B945F6657232A8C0F2BF
:1054100005224FF4807137F04DFC05E032A84FF4BF
:105420008072194608F0E0FE45F6D22032ADC0F297
:10543000052029463AF0ECFC28461DF0E1FD18B99C
:10544000386850F824100FE049F6FC4049F28431E6
:10545000C2F20120C2F2012100680968C0EBC0005D
:1054600001EB8000A0F11C0144F2D0450DF1BF001A
:105470000922C2F2002508F0B7FE45F6102032A935
:10548000C0F205203AF0C4FC48F241500121C0F2BC
:10549000002005F0C8FB1EF047F800F065FDD8F8C5
:1054A000000000F049FD07F02BFB44F62832DBF842
:1054B0000010C2F20222106049B340F6500101A868
:1054C000C0F20421B822FAF7A6FF286830B945F6E1
:1054D0000230C0F2052005F061FC2868012812D1D5
:1054E00045F60B55172601ACC0F2052520461DF0E8
:1054F00051FFB0F1FF3F02DC284605F04FFC013EB2
:1055000004F10804F2D144F2D045C2F2002545F678
:105510009E50C0F205201DF03DFFB0F1FF3F07DCBB
:1055200045F68050C0F205201DF034FF002807D456
:1055300005F07AFF45F66530C0F205203BF032F900
:1055400047F2C860C2F20120006805F082FF45F60C
:105550008E50C0F205201DF01DFF002810D445F626
:105560008750C0F205201DF015FFB0F1FF3F07DCAA
:1055700045F64C60C0F205203BF014F905F054FFED
:1055800045F62110C0F2052034F0CBFF05F0FEFBFC
:1055900005F02AFF05F0F2FE0120012405F0F0FEDF
:1055A00005F0EDFEFFF7F0F946F2F8584FF23476C9
:1055B000C2F20228C2F2002646F2EC5946F2F45A30
:1055C0000220C8F80000C2F20229C2F2022A00201A
:1055D000306045F62C600121C0F20520C9F800407A
:1055E000CAF8004006F038FD40B1396801EB800090
:1055F0004068007834603138C8F8000045F6C7507C
:105600000121C0F20520012406F026FD50B13968C1
:1056100001EB800040680078CAF800403460303800
:10562000C9F800004BF66C140020C2F202240121DC
:10563000206045F67C70C0F2052006F00DFD30B10B
:10564000396801EB80004068FBF742F8206045F6BE
:10565000FF50C0F2052006F0FBFC08B114202060CA
:1056600045F676700121C0F2052006F0F5FC00B386
:105670003A68296802EB80030229596803D1084679
:10568000FBF726F811E049F600230978C2F201235E
:1056900002303039C9F800101B68984204DA52F819
:1056A00020000078303800E00120CAF80000012016
:1056B000306045F68370C0F2052006F0C9FC012871
:1056C0000ADB46F62C110120C2F20221C9F80000C3
:1056D000CAF800003060086045F6D0500121C0F2E1
:1056E000052006F0B9FC10B94FF0FF3005E039682D
:1056F00001EB80004068FAF7EBFF46F2F054C2F28B
:105700000224206045F66310C0F2052034F009FF42
:1057100007F026FA45F6DE20C0F2052034F001FF3E
:1057200013F0A7FC45F64410C0F2052034F0F9FE52
:105730000CF02FF845F60610C0F2052034F0F1FE0B
:1057400047F6784047F64421C2F20020C2F2002119
:1057500000680968C000C90018F0F2FE45F67C2018
:10576000C0F2052034F0DDFEFEF7DEFF10F04EFC47
:1057700045F6AB20C0F2052034F0D3FE04F078FCEF
:1057800045F68510C0F2052034F0CBFE17F0DFFAA5
:10579000286802280ED145F63050C0F205201DF0D1
:1057A000F9FDB0F1FF3F05DC46F208600121C2F2CD
:1057B0000220016045F66C700121C0F2052006F060
:1057C0004BFC60B14EF6BD300121C0F2012005F066
:1057D0002AFA45F6E500C0F2052034F0A2FE41F2B7
:1057E0003E600121C0F20520012506F035FC30B1F4
:1057F000396801EB8000406803F0CAFE356045F669
:105800005B700121C0F20520012506F025FC78BB64
:1058100045F651700121C0F2052006F01DFC90BB39
:10582000206800280BD40DF0CFFC32AC01464FF4B9
:105830008072204608F0D8FC204603F023FE47F291
:10584000C460C2F201200168032931D049F69441B5
:105850003268C2F20121096811431AD0D8F8000059
:10586000D9F80010DAF8002003F034FDFFF798FBB8
:1058700045F6AC50C2F2022005600DF1BF0003F006
:1058800069F8FFF78DFB0DF1BF0004F06FFAFFF729
:1058900087FB0021016042F694604FF0FF31C2F2B5
:1058A000012001604FF26440C2F20020012101603A
:1058B000FFF776FB446F6F6D20302E310000000043
:1058C0005A5F496E69743A20496E6974207A6F6E26
:1058D00065206D656D6F727920616C6C6F636174AA
:1058E000696F6E206461656D6F6E2E200A00000086
:1058F0002D6E6F6D6F6E7374657273002D726573AC
:105900007061776E000000002D6661737400000006
:105910002D6465767061726D000000002D64656114
:1059200074686D61746368002D616C746465617482
:1059300068000000446576656C6F706D656E74205C
:105940006D6F6465204F4E2E0A0000002D74757235
:10595000626F00002E6C6D700000000080B547F68D
:105960008040C2F20020006898B149F2A830C2F22B
:105970000120006868B145F62450C2F20220006898
:1059800038B945F68370C0F2052006F061FB0028A7
:1059900000DD80BD03A001211DF052FCBDE8804068
:1059A00005F0FAB9454E444F4F4D00002DE9F04F38
:1059B00083B00C46834656A0012106F04DFB0294AD
:1059C000B8B349F60421C2F20121096801EB800055
:1059D0004668304600F0B0F8044618B94EA031468B
:1059E00005F0DCF92F212046FAF7A5FD002854EA3E
:1059F00000964FF25C600E25C0F20420071D00BF28
:105A0000D7F800802BFA08F0C00705D057F8041C1F
:105A1000304639F0EBFC28B1013D07F11007EFD11A
:105A20004FF009080298C0F80080204603B0BDE896
:105A3000F08F49F6E44248F63473C2F20122C2F212
:105A4000012310687F280ADC41F2A4710028C0F20B
:105A5000052143F8201000F10100106055D44FF2E9
:105A60005C600025C0F2042032A600F10409CDF8E4
:105A7000049053F825704FF00E0A00BFD9F800804B
:105A80002BFA08F0C0072BD059F8044C38462146B1
:105A900000F076FB40B1384607F016F820B13846E2
:105AA00039F0C9FC044615E038463146FAF706FDE0
:105AB00048B141F2AD6100233846C0F205212246CB
:105AC00008F0A0FC02E0204639F0B5FC044606F0E0
:105AD000FBFF08B124B1A5E720462AF0C9FF00BFAB
:105AE000BAF1010A09F11009C8D149F6E4400135BB
:105AF000C2F2012048F634730024C2F20123006888
:105B0000DDF804908542B4DB8FE700248DE700BF09
:105B10002D69776164000000495741442066696C33
:105B2000652027257327206E6F7420666F756E645D
:105B3000210000002E0000002DE9F04381B0044652
:105B400006F0C2FF002842D149F6E448C2F201281B
:105B5000D8F800007F280FDC48F6347141F2A472B7
:105B6000C2F201210028C0F2052241F8202000F1F4
:105B70000100C8F8000027D448F6347541F2AD6939
:105B80000027C2F20125C0F2052900BF2E68214678
:105B9000304600F0F5FA20B1304606F095FF2E6849
:105BA000C8B9002330464946224608F02BFC064679
:105BB00006F08AFF50B930462AF05AFFD8F80000A4
:105BC000013704358742E1DB002400E034462046FB
:105BD00001B0BDE8F083304601B0BDE8F04339F0D4
:105BE0002ABC0000082803D804A151F820007047FF
:105BF00000A070476E6F6E6500000000AD5005029A
:105C00003B180502AD5F0502B55D0502B65F0502F2
:105C1000B15F050236610502456105023E6105027C
:105C200046F65800C2F20120006858B943F6E05029
:105C300049F26841C2F20220C2F2012100680968FB
:105C4000084301D00020704742F68C6147F6DC2003
:105C5000C2F201214FF26442C2F20120C2F20022DC
:105C6000096800681268084310435FEA1F90704794
:105C70002DE9F04147F6D428C2F20128D8F80000F7
:105C8000092824D149F6FC40C2F201200768CFB1AF
:105C900049F2843041A5C2F2012042A6046800BF47
:105CA00008222046294639F0D3FB002856D0082286
:105CB0002046314639F0CCFB002853D0013F04F197
:105CC0001C04EDD139A005F069F8D8F800006FF098
:105CD0000401084249D044F2D0400221C2F200201F
:105CE00001603AA0012106F0B7F90128B8BFBDE86C
:105CF000F08149F604210326C2F20121096801EB73
:105D00008000446840F6B010C0F20420051D00BFBA
:105D100055F8041C204639F069FBD0B1013E05F16D
:105D20000805F5D12BA03AF03DFD40F6B01703264B
:105D3000C0F204272EA500BF57F8081B28463AF0EA
:105D400067F8013EF8D12CA02146BDE8F04105F0EE
:105D500025B82868C8F80000BDE8F0810120C8F81F
:105D60000000B8E70020C8F800002BA01DF012FBCF
:105D7000012805DB44F2D0400321C2F200200AE0F2
:105D800027A01DF007FB012844F2D040C2F20020FA
:105D9000B4BF002101210160BDE8F0814D415030C8
:105DA0003100000045314D3100000000556E6B6E32
:105DB0006F776E206F7220696E76616C696420491E
:105DC0005741442066696C652E0000002D706163A8
:105DD0006B00000056616C6964206D697373696FB4
:105DE0006E207061636B73206172653A0000000081
:105DF0000925730A00000000556E6B6E6F776E20E8
:105E00006D697373696F6E207061636B206E616D75
:105E1000653A20257300000045344D310000000034
:105E200045334D310000000010B5044645F6297099
:105E3000C0F20020012104F0F6FE43F6807100203C
:105E4000C2F20221226C0A6010BD43F6D450C2F2A5
:105E5000022001680029A1F101010160C8BF70475B
:105E60004FF264400121C2F200200160704746F603
:105E7000301046F63461C2F20120C2F201210268FC
:105E80000868904201D100207047421C00EB80005E
:105E9000D31746F6341CC2F2012C02EB93630CEBD1
:105EA000800023F03F03D21A0A607047F0B546F62F
:105EB000301C46F6341EC2F2012CC2F2012E90E8CC
:105EC000F000DCF80020006902EB820301320EEBE7
:105ED00083014EF82340D31701F1040E086102EB51
:105EE000936323F03F008EE8E000101ACCF8000026
:105EF000F0BD000010B546F20860C2F20220006852
:105F000088B9FFF7B4FF70B1044600BF204607F020
:105F1000EBFA10B9204603F08BFBFFF7A8FF04460D
:105F200008B12FF00DC810BD704749F27031C2F2B0
:105F300001210860704700004FF25C628446C0F2A5
:105F4000042241F2567004320E23C0F2052000BF35
:105F50001168614504D0013B02F11002F8D170478D
:105F600052F8040C7047000010B545F68E50C0F290
:105F700005201DF00FFA044645F68750C0F20520B3
:105F80001DF008FA47F6D421C2F201210B6847F24E
:105F9000C861C2F201211A46052B08BF0122042B59
:105FA00015A30B6018BF002A04D1B4F1FF3F0ADD2E
:105FB0001DA01FE0002C12D414A216A3B0F1FF3FC5
:105FC00052EAC38016E044F2D040C2F200200068DA
:105FD00068B103280DD001280DD121A00AE0501E80
:105FE000022888BF10BD06A252F8200002E018A0C7
:105FF00000E012A0086010BD556E6B6E6F776E00EA
:10600000045E0502395F0502915F0502467265650F
:10601000444D000046726565646F6F6D3A205068AC
:10602000617365203200000046726565646F6F6DB4
:106030003A20506861736520310000005468652083
:10604000556C74696D61746520444F4F4D000000BC
:10605000444F4F4D2053686172657761726500004F
:10606000444F4F4D205265676973746572656400D3
:1060700080B505F01CF949F62C5149F69842C2F258
:106080000121C2F2012209681278CB17002A4BF6CF
:10609000681201EB1341C2F2022208BF00EB21405B
:1060A0002321484344F6D351C1F2620150FB01F071
:1060B000811101EBD070116890FBF1F049F21C21C5
:1060C000C2F20121086080BD43F680720021C2F255
:1060D00002220123C0E90F3112684264C16249F60D
:1060E0009841C0E900334BF66810C2F20220C2F2B8
:1060F000012103600B70704747F2C4600021C2F2B7
:106100000120016042F69460C2F201204FF0FF319D
:1061100001604FF26440C2F200200121016070472B
:1061200080B54FF25C628446C0F204224FF00E0E3E
:1061300002F10C0309A053F8082C624505D104298B
:106140001CBF53F8042C8A4205D0BEF1010E03F1A6
:106150001003F0D180BD186880BD00BF556E6B6E16
:106160006F776E2067616D653F00000010B50446D3
:10617000FFF7E2FC002854EA008010BD00BE704723
:1061800070B50C460546FAF792F906462046FAF72E
:106190008EF9411C8E420CD3301A284410F8011C91
:1061A0002F2906D1214639F021F900285FEA1F90F6
:1061B00070BD002070BD10B5044634F078F9206839
:1061C000032805D146F2B870C2F2022032F054FC26
:1061D000BDE8104034F08EB92DE9F04F85B045F69A
:1061E00040580D4682464FF0FF36C2F2022858272B
:1061F0004FF0010B0020049000200390002002903B
:10620000504631460AF0E4FF002800F1958006462A
:10621000D8F8000006FB07094C4654F84C0F08B1AB
:106220002FF013C02C20062100221DF059FD074637
:1062300009F0ACF84FF2CD00012D2760C0F201202B
:10624000B8600195C7E9059B0BD048F6A33ECBF695
:106250002E2EDDE9020165B94FF480404FF4002194
:1062600007E048F6A33E4FF480204FF48011CBF6B0
:106270002E2ECDE90201B9F80820B862D9F8000045
:1062800000EB010B0492C7F824B0D9F85040012C60
:106290004BDBD8F800C0D9F8542001232046012751
:1062A0001568298A490715D5296BA1EB0C01C9107E
:1062B00001FB0EF18E420DD1D5F83490049DB9F852
:1062C0000810A94206D1D9F84C10002903998B4433
:1062D0000AD000BFA3425FEAAF97013803F1010380
:1062E00002F10402DCD120E0A9EB0C000621C01071
:1062F000002200FB0EF62C201DF0F2FC044609F0F3
:1063000045F848F6A33E4FF2CD00CBF62E2EC9F845
:106310004C40C0F20120A0600120C4E90590F807BC
:10632000C4F824B00298A062AFD101200490019D6E
:1063300058274FF0010B63E7049805B0BDE8F08FD4
:10634000B0B54FF01E0E4FF274334FF0000CC2F296
:10635000002300211A686AB1B0F91440956AA54279
:1063600008D1546A34B1C2F808C0D4621968C1F8BF
:1063700024C0012104330FF013C80846B0BD00004B
:106380002DE9F04F81B0884603390229054602D82D
:10639000284608F0B9FF45F6405A4FF0FF36C2F2E2
:1063A000022A4FF0580B0027284631460AF010FF0A
:1063B000002863D40646DAF8000006FB0B094C46B9
:1063C00054F84C0F08B12FF011C8302006210022DC
:1063D0001DF086FC074608F0D9FF4EF6D970B8F1DB
:1063E000050F2760C0F20120B860C7F810904FF089
:1063F000000038622ED8DFE808F0081508031D03F6
:1064000001203862D9F80400B861D9F80000B8F169
:10641000000F18BF00F5002078614FF480304FF076
:10642000FF3115E048460AF0E9FDB8614FF48030CD
:1064300001210DE001203862D9F80400B861D9F8D3
:1064400000004FF0FF3100F5002078614FF400307C
:106450007962F861B9F910004FF27431B8621E2008
:10646000C2F20021C7F80C800A6822B1013801F19C
:106470000401F9D100E00F60012795E7384601B02B
:10648000BDE8F08F2DE9F04F81B0044649F6045283
:1064900045F6405141F24C4040F204034FF00008F1
:1064A000C2F20122C2F202214FF0580CC0F20520C4
:1064B000C2F2002300264FF0FF3B0968156801F186
:1064C000AC0E0BFB0CEA00BF5A460BF1010BAB45BF
:1064D00080F2EA80A18A3AF8447C8F4206D1B2F178
:1064E000FF3FC0F2E1805AF8082C1AB10AF1580AAD
:1064F000EAE700BF524652F8541909680F8A7F072D
:1065000040F1C580D1F830904A4508BFD1F83490A9
:10651000B9F1000F00F0BB80D9F850100126012915
:10652000CFDBD9F8547000BF3E68766BB24205D11C
:10653000013907F10407F7D10126C2E70EB1358909
:1065400052E0762101223AF011F94EF648504EF60B
:106550005055C2F20020C2F20025007800283ED13A
:106560004EF648510120C2F2002108704EF64C5000
:10657000C2F200200221C0F80080162028604CA042
:1065800005F06AFD01282ADB49F604270646C2F217
:1065900001274EF64C51C2F20021386800EB86000C
:1065A000406807F0F1FD3868294600EB86008068F6
:1065B00007F0EAFD49F6F040C2F2012002682868BF
:1065C00090420CDB40F2040041F258311623C2F233
:1065D0000020C0F2052139F00DFC162028604EF68F
:1065E0004C562D68C2F20026AAF1540000902C20CF
:1065F0000621002237681DF073FB804608F0C6FEB6
:106600004FF2CD00C9F84C800126C0F20120C8F835
:1066100008000B20C8F80C000020C8E90409062176
:10662000C8E906602C200022A8F82050C8F8247081
:106630004FF40049C8F828904FF000081DF050FBB7
:10664000054608F0A3FE4FF2CD004AF8085CC0F200
:106650000120C5E90208009868614FF0FF30A86189
:1066600049F6045245F6405141F24C4040F20403D1
:10667000C5F81080C2F20122C5E90979C2F20221EF
:106680004FF0580CC0F20520C2F2002315E741F28A
:10669000F03040F20403C0F20520C2F200235B2177
:1066A000012201263AF062F8304601B0BDE8F08FD1
:1066B0002D646F6E757400002DE9F04F81B045F6C2
:1066C000405B05464FF00009C2F2022B4FF0580A1A
:1066D0004FF0FF36009100BF284631460AF078FDA2
:1066E000002800F17E800646DBF8000006FB0A0861
:1066F000474657F84C0F08B12FF013C02820062149
:1067000000221DF0EDFA044608F040FE4FF21D3065
:106710003C60C0F20120A06000984FF001090728FA
:10672000C4E903084FF0960121624FF40030A061E4
:10673000D2D80099DFE801F0052B34050416164184
:10674000CAE740464FF00109C4F81C900AF096FCD5
:10675000D8F80410A0F5802060618842BCD0206980
:10676000142112E040464FF00109C4F81C900AF0D1
:1067700085FCD8F80410A0F58020606188424FF4B1
:106780000020A061A8D0206958212C3024E0D8F83E
:10679000040060614FF0FF30E06108F12C000AE076
:1067A00040460AF06BFCA0F58020606120694FF044
:1067B000FF31E1612C3015210EE040460AF05EFC0D
:1067C000A0F5802060614FF40020A06120694FF0A7
:1067D000FF31E1612C30592117F0CAFF4FF0010958
:1067E0007AE7484601B0BDE8F08F00002DE9F04F90
:1067F00083B00546002045F6405B02910929C2F2AC
:10680000022B04BF0020CFF6F8704FF058084FF06D
:10681000000A4FF0FF360190284631460AF0D8FCB6
:10682000002800F163810646DBF8000006FB08043F
:10683000274657F84C0F08B12FF013C02C20062123
:1068400000221DF04DFA814608F0A0FD4FF2CD0068
:10685000C7F80090C0F20120C9F8080002984FF074
:10686000010A0C28C9F80C004FF00000C9F810000C
:10687000D2D80299DFE811F00E001C002A00F600C1
:10688000420049008F00D200E000F3000A010D0031
:106890001901C1E74FF0FF30C9F818004FF48030FC
:1068A000C9F828002046C9F814400AF0C7FB0EE1D9
:1068B0004FF0FF30C9F818004FF48030C9F82800B5
:1068C0002046C9F814400AF0F9FB00E14FF0FF3010
:1068D000C9F818004FF48020C9F828002046C9F8EC
:1068E00014400AF0ABFB21684FF0010AC9F82400FC
:1068F00088423FF491AF00F50020E8E04FF0010A34
:10690000C9E9054A4FF48030C6E0A246C9F81440F0
:106910005AF8500F01284FF00100C9F818004FF441
:106920008030C9F82800C0F2CE8000246FF0004704
:106930003046214638F0E4FF28B300223046214695
:106940002AF01EF9408901B2002909D446F6441103
:10695000C2F20221096851F82000B84250EAB78714
:106960000122304621462AF00BF9408901B2002964
:1069700009D446F64411C2F20221096851F82000F8
:10698000B84250EAB787DAF8000001348442CFDB1E
:10699000D9F8144099E04FF0FF30C9F818004FF4CF
:1069A0008030C9F828002046C9F814400AF086FB58
:1069B000C9F82400206D218901284FF0010AA9F8A7
:1069C0002010FFF629AF00273046394638F098FFEF
:1069D000E8B10022304639462AF0D2F80069DBF8E7
:1069E0000010401A48F6A331C010CBF62E214843C0
:1069F000B04201D1012200E00022304639462AF09F
:106A0000A2F8D9F8241004460068884264D0206DAA
:106A100001374FF0010A8742D6DBFDE64FF48030A4
:106A2000C9F8280020684FF0010AC9E9054A00F5B5
:106A3000C010C9F82400EFE6286B216801F5C011E9
:106A4000C9F824100289C08922814FF0010AC9E9DE
:106A5000054A4FF48031C9F82810E081DCE60120B6
:106A6000C9F810004FF48030C9F8280020464FF0D4
:106A7000010AC9E9054A0AF001FB6168884250EA47
:106A8000B18001990844C9F82400C5E64FF0010A15
:106A90004FF48020C9E9054AC9F82800216820463A
:106AA0000AF048FBC9F82400B6E64FF48030C9F874
:106AB000280020684FF0010AC9E9054A00F100707A
:106AC000C9F82400A8E66FF0004720683844C9F8E8
:106AD00024004FF0010A9FE620894FF0010AA9F82F
:106AE0002000B4F90E00C9F81C0095E6504603B02A
:106AF000BDE8F08F80B5D2F884C0BCF1000F30D073
:106B0000B0F91230872B0FDCA3F18602022A17D3CB
:106B1000632B01D0852B19D1DCF84C20B2B9DCF8FD
:106B200058209AB927A016E0A3F18802022A0DD2B4
:106B3000DCF8502052B9DCF85C203AB90AA00AE02F
:106B4000DCF8542012B9DCF860201AB1BDE88040AE
:106B5000FFF7B2BD10A0CCF8E0000020222117F012
:106B600007FE002080BD00BF596F75206E6565640B
:106B700020612079656C6C6F77206B657920746F6C
:106B80002061637469766174652074686973206F2D
:106B9000626A656374000000596F75206E656564F4
:106BA000206120726564206B657920746F206163B9
:106BB0007469766174652074686973206F626A65B0
:106BC00063740000596F75206E65656420612062F2
:106BD0006C7565206B657920746F206163746976CC
:106BE0006174652074686973206F626A65637400FC
:106BF0002DE9F04F81B089461446054619B9B5F91B
:106C0000140008F065FB45F640584FF0FF36C2F21D
:106C100002284FF0580A00272004009028463146E9
:106C20000AF0D6FA002800F1B4800646D8F8000031
:106C300006FB0A0B5C4654F84C0F08B12FF013C04A
:106C40003820062100221DF04BF8074608F09EFB75
:106C50004FF20B202760C0F20120B860B5F9140094
:106C6000B9F1040FC7F83490C7F80CB04FF0000129
:106C7000C7E90B1000F27680DFE809F0031F223D20
:106C80005C004FF48030386158460AF017FADBF8A0
:106C90000010884250EAB180786158460AF0CEF977
:106CA000DBF80010884250EAC180B8616920F861C1
:106CB0000CF09EF800F001004EE04FF480203BE025
:106CC000B5F9160045F69C51C2F2022100EB800096
:106CD000096801EB80004FF400413961DBF80010D6
:106CE00000690089ABF8080000980844B8610020EA
:106CF000F86178621CE0B5F9160045F69C51C2F2C5
:106D0000022100EB8000096801EB80004FF4004194
:106D10003961DBF8001000690089ABF808005846BB
:106D20000AF008FAB8610020F8617862ABF80E004A
:106D3000162113E04FF40020386158460AF0BEF9DE
:106D4000DBF80010884250EAB1807861DBF800007F
:106D5000B8616920F8610120122178620BF12C00E2
:106D600017F006FD4FF2EC311E20C2F2002100BFE9
:106D70000A685AB1013801F10401F9D146F2BD00A7
:106D8000C0F2052004F00AF8012747E70F60012749
:106D900044E7384601B0BDE8F08F00002DE9F0432C
:106DA00081B049F60458C2F20128D8F80020012A1F
:106DB0002BDB814645F64050C2F202200E460027EA
:106DC000056800BFB9F81400298A814219D1BEB9FB
:106DD000286D0026012813DB002400BF686D2946BA
:106DE00050F8240029F0A4FE20B1B0F90C0086422E
:106DF00056EAC086286D01348442EFDBD8F80020C3
:106E0000AE81013758359742DCDB01B0BDE8F08335
:106E1000F0B581B04FF0FF3104460AF0D9F90028EF
:106E200017D445F640560546C2F20226582700BF41
:106E3000306805FB0700C16C19B9232100220DF051
:106E40007BF9204629460AF0C3F90546B0F1FF3F19
:106E5000EEDC01B0F0BD000070B54FF01E0E4FF239
:106E6000EC31C2F200214FF0030C00230A685AB142
:106E7000546A032C08D0B0F91450166BAE4203D1FB
:106E8000C2E909C4936000BF04310FF011C870BD9E
:106E90002DE9F04381B0012901464FF0000000F0D8
:106EA0009D809146926E12F4803240F0978049F6B0
:106EB0000450C2F20120D0F80080B8F1010FC0F2F6
:106EC0008C80B1F814E045F64051C2F2022146F63A
:106ED0005C12C2F2022242F2B9340B6848F6A331C6
:106EE000576800264FF0580CC0F20124CBF62E2133
:106EF00006FB0C352D8A754513D1974211D03D46BE
:106F0000A868A0420AD1A86D292807D1686B00683B
:106F1000C01AC0104843B04207D000BF6D68954208
:106F2000EED101364645E3D157E0D5E90312484694
:106F3000D9E90386D9F814700DF078F900284CD0FF
:106F400044F2D440C2F200200068072803D0D9F8E8
:106F50003800C9F81400D9F8840020B1D9F8141009
:106F6000C269114481612723404631463A460CF0FC
:106F700084FE232117F0FCFB44F2A831286AC2F2F8
:106F8000002140F60042C00CC0F2042209682F69BB
:106F900051F8201052F82000EA6801EB810100EB63
:106FA000800302EB8100D9F8142007EB830127232B
:106FB0000CF063FE232117F0DBFBD9F8840010B13D
:106FC0001220C9F87C00286AC9F820000020C9E90D
:106FD0001200C9F85000012000E0002001B0BDE817
:106FE000F08300002DE9F04381B049F60458C2F265
:106FF0000128D8F80010012929DB814645F64050C8
:10700000C2F2022000270568B9F814002A8A8242D9
:1070100019D1286DB5F90C60012813DB002400BFDD
:10702000686D294650F8240029F082FD20B1B0F99E
:107030000C00864256EAB086286D01348442EFDBAC
:10704000D8F80010AE81013758358F42DCDB01B033
:10705000BDE8F08370B50446B0F91200D1F8842081
:10706000A0F11A03082B2BD80121994011F0410FF0
:1070700012D111F0840F1AD10121994011F4817FAE
:107080001ED0002A00F0AB80116DC9B9D16DB9B91D
:107090000020222161A3A6E0002A00F0A080D16C8C
:1070A00071B9916D61B90020222166A39BE0002A8D
:1070B00000F09580516D19B9116E002900F0908093
:1070C000B4F9181045F69C56C2F2022601EB810174
:1070D000366806EB81010D69EE6C36B11E280CDCBA
:1070E000032B10D301280ED02EE0A0F17501022948
:1070F0002CD31F2818BF012826E01F2824D076286B
:1071000024D0752820D1F069013051D0002A66D0F2
:107110004FF21D31B068C0F20121884211D04FF208
:107120000B21C0F2012188420BD041F2125040F2F3
:107130000403C0F20520C2F200233E21012239F0EF
:1071400015FB4FF0FF3034E0142100E0582105F129
:107150002C0017F00DFB2820062100221CF0C0FD9A
:10716000064608F013F94FF21D30EE64C0F201201C
:10717000B060B4F91200356101214FF400321E28CD
:10718000B2614FF09602C6E9071208DDA0F11F01B7
:10719000042910D20320F0600020608219E0A0F1E1
:1071A0001A01032901D3012813D10020F06010E057
:1071B0000120F06170BD752806D0762809D106201F
:1071C000F0600020608201E00520F0604FF40020B4
:1071D000B061284609F052FFA0F58020706170BDB3
:1071E0000020222103A3C2F8E030BDE8704017F070
:1071F000BFBA00BF596F75206E656564206120724B
:107200006564206B657920746F206F70656E2074E3
:1072100068697320646F6F7200000000596F7520F9
:107220006E65656420612079656C6C6F77206B6595
:107230007920746F206F70656E20746869732064A4
:107240006F6F7200596F75206E65656420612062F2
:107250006C7565206B657920746F206F70656E208A
:107260007468697320646F6F720000002DE9F04349
:1072700083B042A005211BF0E3FF814641A0052118
:107280001BF0DEFF0546002000214FF4A072C8234A
:10729000002619F012FD46F684784FF6C064C2F25B
:1072A0000128C7F6FF74D8F80000E63800EBD0706C
:1072B000A6EB60014010002956EA50B04FF6C061BD
:1072C000CFF6FF7110F5A07F50EAC187BA19A2422C
:1072D00004D302F5A0723046494601E03046294603
:1072E00000F0D0FA0136B6F5A07FEFD140F26A4146
:1072F000D8F8000088423DD340F29B4188420FD825
:1073000024A008211BF09CFF02466C20442119F0A8
:10731000E7FB4EF654500021C2F20020016029E044
:107320004CF6CD41A0F29C40CCF6CC414EF65455E3
:10733000A0FB0101C2F20025062488082A6806285D
:10734000B8BF8C08944204DD0020012117F010FA28
:107350002C600DF102050DA20A212846234635F0C6
:10736000A9FC082128461BF06BFF02466C20442133
:1073700019F0B6FB03B0BDE8F08300BF504655429C
:10738000320000005046554231000000454E442571
:1073900069000000454E44300000000010B522A0F6
:1073A00008211BF04DFF02460020002119F098FB38
:1073B00041F28C6042F25841C2F20120C2F2002137
:1073C000006851F8300000F035F841F2946046F260
:1073D0006C21C2F20120C2F2022100680968D0E9E2
:1073E00000206FF3DF3001EBC20147F22802C0EB4F
:1073F000C000C2F20122496801EB8000B0F904101C
:10740000047D1068084408211BF024FF02464FF059
:10741000A0004FF0AA011CB1BDE8104019F0D8BB84
:10742000BDE8104019F05CBB424F53534241434BFF
:1074300000000000F0B581B0002849D00446007873
:1074400010B347F68C47661C0025C2F2012700BF27
:10745000F8F7D5FFA0F1610111F1410F02D8042125
:1074600006E000BF07EB800050F8840CB0F9001074
:1074700016F8010B0D4408B12FF017C005EBD570BD
:10748000A021A1EB600500E0A0250CB32078F8B1A5
:1074900047F68C460134C2F2012600BFF8F7AFFF71
:1074A000A0F1610111F1410F02D804270AE000BFE9
:1074B00006EB8000B42150F8842C2846B2F9007005
:1074C00019F00EFB14F8010B3D4408B12FF01BC05E
:1074D00001B0F0BD80B5006808B1002080BD41F268
:1074E0008461C2F20121086800284FF0010000D039
:1074F00080BD41F28C6242F25843C2F20122C2F2D4
:10750000002344F6DC0C08601268C2F2002C03EB86
:10751000C2025C23526802FB03C241F2886CC2F2D1
:10752000012C136B916B47F6CC620029C3EBC303AC
:10753000C2F2002202EB830241F29463C2F2012301
:107540001A6041F29863C2F2012392681A6041F214
:107550008062C2F201224FF00003CCF800301360C9
:1075600008BF80BD002017F003F9012080BD2DE980
:10757000F04F81B041F29869C2F20129D9F80000B8
:107580000138C9F8000000F3778141F29468C2F233
:107590000128D8F80000816801312DD0016959B364
:1075A00047F6CC6A41F2D802C2F2002A5244904215
:1075B00000F0338141F28867C1EBC100C2F20127BC
:1075C000B1F5E37F0AEB8000C8F80000386800F1ED
:1075D0000100386058DAB1F5AA7F68DBA1F27912B0
:1075E000062A7DD9A1F2A112032A68D3B1F5AA7F98
:1075F00040F0B6806B21AFE041F28C6642F2584712
:10760000C2F20126C2F2002741F284623068C2F25F
:1076100001220130306057F8301000294FF000018E
:10762000116001D10020316007EBC00044F6DC0599
:107630005C24C2F20025406800FB0451096931B1A5
:10764000002017F095F8306807EBC000406800FB99
:10765000045047F6CC62C2F2002241F28863C2F2C3
:107660000123C168C1EBC10002EB800041F28062DE
:10767000C2F20122C8F800001268002A4FF000028E
:107680001A6040F0C080F1E0B1F51A7F19DB40F2DA
:10769000AE2291422BDCA1F51A72022A0FD3B1F56A
:1076A000227F4CD040F2AD22914246D058E0FF29D3
:1076B00028DC9A2945D0B92945D0DA2950D10221B0
:1076C0004AE040F21922914227DCB1F5E37F3CD039
:1076D000B1F5F37F3BD040F2F91291422BD03FE05D
:1076E000012303FA02F212F0490F24D17AE740F2A3
:1076F000AF22914221D040F2B12291421DD040F2FE
:10770000C62214E0B1F5807F23D0B1F5A87F22D046
:10771000B1F5A97F24D135211EE040F21A22914211
:1077200009D040F23722914205D040F24E229142D8
:1077300016D1332110E010210EE00E210CE00821BB
:107740000AE0042108E0012106E0372104E03421A9
:1077500002E0362100E03821002017F009F83868EF
:1077600041F28C6E42F2584B44F6DC0C0C28C2F20B
:10777000012EC2F2002BC2F2002C30D1DEF8000044
:1077800041F290645C27C2F201240BEBC00041F28D
:1077900080622568C2F201224068002D00FB07C705
:1077A00085F001054FF00103136007F12C0007F18C
:1077B000280750EA078625603668C6EBC6010AEB43
:1077C0008101C8F800109EB9002D50EA07800068BA
:1077D000C0EBC0000AEB8000C8F8000008E041F2EE
:1077E0008061C2F201210968002948D0182814D00C
:1077F000DEF800005C210BEBC000406800FB01C11B
:10780000D8F80000C968C1EBC10147F6CC62C2F2EA
:10781000002202EB8101884228D141F28C6042F2C1
:107820005841C2F20120C2F200215C22006801EB43
:10783000C00044F6DC01C2F20021406800FB0210E7
:1078400041F28061C2F2012100220A6041F28861A6
:10785000C068C2F20121C0EBC0000A6047F6CC61EB
:10786000C2F2002101EB8000C8F800008068411CD2
:1078700008BF0F20C9F8000001B0BDE8F08FD8F8AC
:107880000000F3E780B501EB8202D2F808C011F8DE
:107890000C20FF2A08BF80BD4EF670636144C2F21F
:1078A00000231B6803EB000C4878002340F00FC056
:1078B00002EB8200CB1C0CEB801200BF13F8010B13
:1078C000107002F5A0720FF007C84B78194411F838
:1078D000042FFF2AE8D180BD80B546F68C70C2F235
:1078E0000120006840B101280AD0022818BF80BDDD
:1078F000BDE88040FFF752BDBDE8804000F00CB904
:1079000047F2CC60C2F201200068411E03290FD863
:107910000FA0DFE801F002130E1244F2D04011A1D3
:10792000C2F2002011A20068032851EA028005E09B
:1079300080BDBDE88040FFF799BC08A008211BF07E
:107940007FFC024600200021BDE8804019F0C8B845
:10795000564943544F52593200000000454E44509E
:1079600049430000435245444954000048454C50A7
:107970003200000046F68C71C2F20121096802292A
:1079800001D1FFF7A7BD0020704742F2584044F6EE
:10799000DC01C2F200205C22C2F2002147F6CC6377
:1079A0004068C2F2002300FB02104EF68031C2F2A2
:1079B00000214FF0FF3241F2906CC0680A6041F242
:1079C0008C610022C2F20121C0EBC000C2F2012C86
:1079D00003EB800041F294630A6041F29861C2F2C5
:1079E0000123C2F20121CCF80020186080680860F1
:1079F00041F28460C2F2012041F28863C2F20123A5
:107A00000221026046F68C70C2F201201A6041F237
:107A10008063C2F2012301603F2001211A6016F049
:107A200035BD00002DE9F04147F2C4600021C2F2EB
:107A30000120022247F6D424016047F6DC20C2F27E
:107A40000120C2F2012402604BF690204FF2307206
:107A5000C2F20220C2F200220160412011606FF0E8
:107A6000040122680A424FF0010108BF1F2016F0EE
:107A70000DFD44F2D4402168C2F200200A460529D7
:107A80004FF0160E006846F6907808BF01220439C0
:107A900046F6887652EA118147F2CC62C2F20122A0
:107AA0000524C2F20128C2F20126D2F800C047F62E
:107AB000D022C2F2012213684EF69C02C2F20022CA
:107AC000103200BF52F8107C092808BF002F02D1E5
:107AD000002742F8084CB9420ED119B952F80C7C73
:107AE000BC4509D152F8087CBB4205D152F8047C50
:107AF0001568C8F80050376014320FF01DC846F6FC
:107B00008C7046F68472C2F20120C2F2012200217A
:107B100001601160BDE8F0812DE9F04381B046F6C7
:107B200088700821C2F2012000681BF089FB8046A2
:107B30004EF67060C2F200200027056807F03F0093
:107B4000052408EB801600BF402228463146F8F78E
:107B500062FC013C05F14005F6D10137C82FEDD19B
:107B6000002000214FF4A072C82319F0A6F846F6B1
:107B70008470C2F2012000680D2836DB4AF6AB2182
:107B80000A38CAF6AA2147F68C48A0FB010146F63E
:107B90009070C2F201204FF00A094E08C2F201288B
:107BA00007680A2417F8010B0A2809D0E8B1F8F78A
:107BB00026FCA0F1610111F1410F05D8043412E057
:107BC00009F10B090A240EE008EB800050F8842C20
:107BD000B2F900002518B5F5A07F06DC204649461D
:107BE00018F07EFF2C46013EDCD101B0BDE8F083E9
:107BF000F0B581B044F2D04546F68474C2F2002557
:107C0000C2F201242868022820681FD133281DD31E
:107C100043F694710422C2F202210D310B7823B98C
:107C2000013A01F59071F9D110E047F6D021C2F286
:107C3000012109681E2903D1FFF7A7FE206805E08E
:107C400047F2C4610822C2F201210A6046F68C762E
:107C5000471CC2F2012627603168022904D101B015
:107C6000BDE8F040FFF783BC2868022824D019BB88
:107C700046F69070C2F201200068F8F718FC00EB9D
:107C80004000FA30874217D947F2CC610020C2F297
:107C9000012120600120306008684EF68031C2F278
:107CA000002103284FF0FF30086005D11E2001B0ED
:107CB000BDE8F04016F058BD01B0F0BD00280A46FE
:107CC000014600D54142002A134600D55342B3EB8A
:107CD000913F07D980B5C11750EA0F41D317F8F784
:107CE00050FB80BD50406FF0004181EAE07070476A
:107CF00081FB000150EA1F417047000010B540A011
:107D000004F0A6F949F26C330028C2F201235FEABD
:107D10000F925FEA1F9142F67C641A6049F2783252
:107D2000C2F20122C2F201240028116042F68061F1
:107D3000C2F201210868206004D0411C21606F213B
:107D4000017005E002F038F821684A1C22600870D2
:107D500020684FF0040E411C216047F6D821C2F282
:107D60000121096801702068411C216047F2CC6143
:107D7000C2F20121096801702068411C216047F6A8
:107D8000D021C2F20121096801702068411C2160E4
:107D900042F60461C2F20121096801702068411CA9
:107DA000216044F28041C2F202210968017020681A
:107DB000411C216046F6FC61C2F201210968017094
:107DC00049F6B4402168C2F201204A1C22600068D2
:107DD000087042F6A850C2F2012021684A1C2260B5
:107DE0000068087043F68470C2F20220216850F8DF
:107DF000042B4B1C23600A700FF009C010BD00BF9C
:107E00002D6C6F6E67746963730000002DE9F04F8D
:107E100085B08146CA1742F6A8560020C9E900007D
:107E2000C2F20126C9E9020001EB526020F07F0096
:107E30003268081A42F6A831C2F2012147F2D0682E
:107E400001EBC21144F26062C2F20022C2F20128C8
:107E5000085C49F6C41E126889F80600C2F2012EB9
:107E600058F8220050B947F63420C2F200200068CA
:107E70000EEB80004068002800F00F834FF0010CEB
:107E800044F258600125C2F200200068FF2815DC8A
:107E900044F26851C2F20021096813290EDC58F837
:107EA000200008B1012509E049F23810C2F2012092
:107EB00000EB8100406800285FEA0F9549F2A810A6
:107EC0004BF66814C2F201204BF60022C2F20224E3
:107ED000C2F20222016844F25460C2F2002069B981
:107EE000036858F823304BB944F2BC53C2F2002364
:107EF0001B6858F82330002B00F00E8323681768A6
:107F00003B4413602A46052BD8BF02220068BCF10F
:107F1000000F58F8203047F68440C2F2002003D00A
:107F20007BB150F825400DE0002B42F2C013C2F2A5
:107F30000023344617D033F822707F42A9F802702C
:107F400012E0002444F2BC52C2F20022126858F837
:107F5000222012B150F82520A41A01291ADB50F86A
:107F600025100C4422E0002744F2BC56C2F2002641
:107F7000366858F8266026B133F822603744A9F8ED
:107F80000270012926460CDB33F82210791AA9F871
:107F900002100AE0B1F1FF3F08DC50F82510641A26
:107FA00004E0B1F1FF3F40F3B382002444F26C617E
:107FB00044F2B03BC2F20021C2F2002B096858F82B
:107FC000211011B15BF8253000E0002344F2B451D8
:107FD000C2F20021096858F8211011B15BF8251090
:107FE0005B1A49F2AC11C2F201210968B1F1FF3FFD
:107FF00004DD31B15BF825105B1A02E05BF8251057
:108000000B4444F26461C2F20021096858F821105F
:1080100071B944F2705149F23812C2F20021C2F231
:108020000122096802EB81014968002900F04582BC
:1080300050F82510641A44F26861CDE9033CC2F29D
:108040000021096858F8211071B944F2745149F2BD
:108050003812C2F20021C2F20122096802EB81014A
:108060004968002900F03E8250F825007746AA466C
:10807000044402F0D0FB44F2B85189F80400C2F283
:108080000021BC46096858F82100A8B949F6E81053
:10809000C2F2012000680CEB8000406860B949F230
:1080A0008C1049F23811C2F20120C2F2012100689D
:1080B00001EB8000406828B199F8050040F001000C
:1080C00089F8050044F2706042F6EC52C2F20020DA
:1080D000C2F20122006858F82000A8B944F2785092
:1080E00049F23811C2F20020C2F20121006801EB0E
:1080F0008000406840B947F64020C2F20020006886
:108100000CEB8000406838B199F8050040F002009F
:1081100089F805000020106049F6A0405546C2F2DB
:1081200001200768002F00F07E80306843F69471CC
:10813000C2F2022149F2746A00EBC000C0F2052AC3
:108140000294534601EB40120020D16F0A2908BF68
:10815000916F01951E688E4204D0013008330928C2
:10816000F8D1092047F6D42307F10905C2F201230B
:1081700048F6396C02F19C0B02F138081F6844F292
:10818000D043C2F2002327F00404C3F6E30C1E68B8
:108190002844A0FB0C31490801EBC101401A5AF8F0
:1081A00030E0BEF1080F08BF002CF1D0AEF10501A0
:1081B000012903D817B90EB92FF017C002EB8E01B1
:1081C000D1F8801009B92FF01DC8BEF1000F07D1FA
:1081D000DBF8001021B1D8F8001009B92FF029C040
:1081E0000AEBC00099F8051049F6C41C4BF6681755
:1081F000007944F2B03BDDF810E0C2F2012CC2F28B
:108200000227029C41EAC00049F6A041C2F20121C6
:1082100040F0040089F8050000200860C2F2002B3D
:10822000019D039E1AE04BF668170020BCA1DDE912
:10823000036EC2F2022700BF0A68126858F82220B3
:1082400022B9013004310828F6D107E099F8051069
:1082500041EAC00040F0040089F8050047F62820F4
:10826000C2F2002000680CEB8000406810B15BF89F
:1082700025100E4447F62421C2F2002109680CEBB8
:108280008101496811B15BF82510761A42F6643114
:10829000C2F200210968002900F0908042F6F451F2
:1082A00042F6FC52C2F20121C2F201220B6898424E
:1082B000136818D0022B16DB086042F6EC51C2F2AC
:1082C0000121002808681CBF0130086002281AD16B
:1082D00099F8050040F0020089F8050042F6EC50DC
:1082E000C2F2012013E0386818441060152810DB32
:1082F00042F6EC510020C2F20121086042F6F4502F
:10830000C2F2012003E042F6FC50C2F2012000213B
:10831000016047F63420C2F2002000680CEB8000B8
:10832000406808B101200EE044F26C5049F2381167
:10833000C2F20020C2F20121006801EB8000406817
:1083400000285FEA0F9042F6F85142F60062C2F24E
:108350000121C2F201220B688342136818D0022B5C
:1083600016DB42F6F0520028C2F2012208601068C3
:1083700001D00130106002281AD199F8050040F0B0
:10838000020089F8050042F6F050C2F2012013E025
:10839000386818441060152810DB42F6F0500021B0
:1083A000C2F20120016042F6F850C2F2012003E05F
:1083B00042F60060C2F201200021016049F6F0108F
:1083C00049F6EC11C2F20120C2F20121BEF1000F08
:1083D00002680B6802D004EB430405E0B9F80270B0
:1083E000A7EBC307A9F8027032442BB946F6301345
:1083F0000027C2F202231F60DBF804305F42BA425A
:1084000052EAC3B69A4253EAC682BC4254EAC3B7A0
:108410009C4299F8006053EAC78399F8017032448E
:1084200089F80020FA1889F8012045F64C520023FB
:10843000C2F2022203600B6017681FB11360812033
:1084400089F8050045F65050C2F20220016859B182
:1084500044F62C310022C2F2022102608220097807
:1084600040EA810089F8050049F27830C2F2012023
:10847000006878B14EF66250B9F80210C2F20020DE
:108480000288114401F1800222F0FF02A9F80220C3
:10849000891A018005B0BDE8F08F44F26C5049F2B2
:1084A0003811C2F20020C2F20121006801EB800005
:1084B000406800285FEA0F9CE2E447F63821C2F2E8
:1084C000002109680EEB8101496800297FF4B0ADF5
:1084D00049F2A411C2F201210968B1F1FF3F3FF74F
:1084E000AAADA5E547F63C21C2F2002109680EEBD2
:1084F0008101496800297FF4B7AD49F2A411C2F2A5
:10850000012109680129BFF6AFAD7746AA46B0E55B
:1085100033F8221039443AE5002313600222F5E4CF
:1085200074460022784600227C46002280460022C3
:1085300084460022884600228C4600229046002273
:10854000F0B583B04BF6741542F68C64C2F2022586
:10855000C2F20124286820B302F093FE47F6E0211E
:1085600046F2FC52C2F20121C2F202229FED431AEE
:10857000096800EE101AB8EEC00A1268821A0020CC
:1085800020EE010A286001EE102A2060B8EEC11A20
:108590003BA080EE010AB7EEC00A8DED000B02F0A1
:1085A000FDFB2068E0B342F67860C2F2012000686B
:1085B0001BF004F949F690410020C2F2012149F66E
:1085C000B442C2F201222060086049F69441C2F22E
:1085D00001211060086042F60461C2F201210860C6
:1085E00043F68471C2F20221C1E90100C86044F27D
:1085F0008041C2F20221086046F6FC61C2F201210C
:10860000086045F6AC51C2F202210968002942F621
:10861000A851C2F20121086029D002F02DFF28E004
:1086200042F690650024C2F20125286810B342F694
:108630007C6042F68067C2F2012042F68866C2F290
:108640000127C2F2012601684A1C026080220A70DA
:10865000396802683068521A05F088FF38681BF0E4
:108660009BFA316811A02C6002F098FB02E0FBF746
:1086700075FF0124204603B0F0BD00BF00000C428E
:1086800074696D65642025692067616D657469632F
:108690007320696E202569207265616C746963734B
:1086A00020282566206670732900000044656D6FE0
:1086B000202573207265636F72646564000000009A
:1086C0002DE9F04700EBC00743F694787A01C2F237
:1086D00002280E4658F80220002A54D030887188AB
:1086E0004FEA004910460D0449462A4607F062FE4B
:1086F00000285FD04FF600044FF2807AC2F20024C7
:1087000008EB4717C2F2002A2068202806DB00F099
:108710001F005AF820000AF07BFC2068C1173A6855
:1087200000EBD16121F01F01411A01302060484661
:108730004AF82120294611F0EBFCB6F9041042F664
:10874000835206465143CA1402EBD1714FF4805252
:1087500002EB81228902920A082A2ED8DFE802F071
:10876000333C465305050505050044F2A83040F6A4
:108770000042C2F20020C0F20422006850F821003A
:1087800052F821104DE0012867DB318843F69472DE
:10879000C2F20222090400BF1368DF688F4204D1CD
:1087A00077881B69B3EB074F04D0013802F590724C
:1087B000F2D152E00020BDE8F08729A002F0EEFAE5
:1087C000002000212DE04AF600414FF40050C0F295
:1087D00004210858096824E04AF600424FF440504A
:1087E0004FF48051C0F2042210580AE040F60040D5
:1087F0004AF600424FF40051C0F20420C0F20422B5
:10880000006851580DE040F600424AF600434FF42C
:1088100080504FF44051C0F20422C0F2042310589B
:10882000595800EB8000326801EB8101272309EBE6
:108830008000126805EB81010BF01FFA42F6A85187
:10884000C2F20121096801EBC10108EB41118969FC
:10885000012902D0232115F08BFF0120BDE8F0870C
:10886000475F436865636B53706F743A20756E653C
:108870007870656374656420616E676C652025643B
:108880000A0000002DE9F04142F6086142F60C684A
:10889000C2F20121C2F201284CF6CD430446096818
:1088A000CCF6CC43A1EB08014A10272902FB03F5C3
:1088B00003DC13A0294602F071FA14270AF098FA93
:1088C00090FBF5F101FB150000EB800008EB400682
:1088D00020463146FFF7F4FE50B9013FEED104EBDC
:1088E000840044F21441C2F2022101EB400601E08F
:1088F000601CF0803046BDE8F0410BF027BA00BFA5
:108900004F6E6C792025692064656174686D6174AF
:1089100063682073706F74732C20342072657175D6
:10892000697265640000000042F6C853C2F2012378
:10893000186042F6C050C2F20120016042F6C450F5
:10894000C2F201200221026047F2C460C2F201209B
:108950000160704742F67861C2F20121086047F277
:10896000C460C2F201200521016070472DE9F04F7B
:1089700081B047F2C46A43F69479C2F2012AC2F286
:10898000022943F6847500240427C2F202254E46CC
:10899000CAF80040286868B106F134003021F7F7C2
:1089A00053FD3068C6E93C44C6E93944816E21F480
:1089B00080218166013F05F1040506F59076E9D135
:1089C0004FF23078C2F20028D8F8000008B1F8F76A
:1089D0009DFE44F2D040C2F20020D0F800B0BBF1BE
:1089E000020F32D147F6D021C2F2012109680929CC
:1089F0005FEA1F9C42F6A85247F2CC66C2F20122FF
:108A0000C2F201264C1EBBF1020FD2F800E036681C
:108A1000A6F101050EEBCE0309EB4313D3F81C714D
:108A200046F66C43C2F20423C3E9005745F63C57AF
:108A3000C2F202279C603F6818D1002F50D00F2946
:108A400055D01F2955D11F2752E044F2D44147F693
:108A5000D022C2F20021C2F201220968092911685C
:108A600014D1082918BF052934D020E0002F5FEA6F
:108A70001F9707EA0C020F4618BF0827012A37D1B3
:108A8000032D36D857A252F8257031E0082921D09D
:108A9000092940F0A4804FF0040E09F58E720123DD
:108AA000092100BF136002F590720FF005C8092973
:108AB0005FEA1F9C9ED1BBF1020F9BD04FF0040ECA
:108AC00009F58E72012300BF136002F590720FF05A
:108AD00005C88FE70720CAF8000001B0BDE8F08F95
:108AE000A1F11F07022F0F4638BF0F2700E01E27F6
:108AF000DF604BF6C4124BF6C0174BF6CC15C2F232
:108B00000222C2F20227C2F20225BBF1020F126852
:108B10003F682D684FF00000C3E90427C3E9065001
:108B200006D142F6E420C2F2002000EB840010E0FF
:108B3000032E08DC06EB860047F66C22C2F2002208
:108B400002EBC00003E042F6E420C2F2002000EB9A
:108B5000810000682321484303F13C01C3E9080E6A
:108B600049F23420C2F201204FF0040E43F6847320
:108B700009F1DC02D0F800C0C2F20223A2F1740BAA
:108B800053F8047B52E9026541E905769BE8010E42
:108B9000146841E9035441F804CC02F5907281E86D
:108BA000010E28310FF017C047F6DC200121C2F278
:108BB000012046F66C44C2F2042401604BF690207A
:108BC000C2F202200021C8F800100160204615F012
:108BD000DFFF204601B0BDE8F04F18F010B94FF0AC
:108BE000000C07E70300000005000000060000007D
:108BF00002000000B0B547F2C4600024C2F20120B8
:108C000044F62041C2F202210122046044F6D80059
:108C1000C2F2022026F052F900B1B0BD44F6243071
:108C2000C2F2022004600AF0F9F8B0B347F6D82087
:108C300047F2CC6147F6D02249F23424C2F2012037
:108C4000C2F20121C2F20122C2F2012400680968C5
:108C50001268256800F03EFB25600BF0F7FF0CF072
:108C600045FC0CF01FFB0CF031F90AF0CFF810B9FD
:108C70000EA002F093F844F6D800C2F2022025F0CC
:108C80009FFA45F65C50C2F20220006808B10EF06F
:108C90002DFFBDE8B0400FF07FB844F6D800C2F217
:108CA0000220BDE8B04025F08BBA00BF42616420CD
:108CB0007361766567616D650000000070B55BA04B
:108CC0000FF0E6F945F6BC51C2F2022108604EF6FB
:108CD0008030C2F2002047F6E021C2F20121026892
:108CE000002A49F23022C2F201220968116002D141
:108CF0004FF0FF31016047F6DC210020C2F2012174
:108D000043F694744FF0040EC2F20224086043F656
:108D100084724BF6F01304F16801C2F20222C2F22F
:108D200002230225166818602EB151F8646C012EDA
:108D300008BF41F8645CC1E900000432C1E90200E7
:108D4000043301F590710FF013C847F2CC6047F679
:108D5000D02147F6D822C2F20120C2F20121C2F28C
:108D60000122006800260968136800220AF00CFB43
:108D700042F6A85543F2FC2147F2C462C2F2012533
:108D8000C2F20121C2F201222868086016601AF0BE
:108D900091FE47F2D0604FF48061C2F20120F7F7F4
:108DA00053FB49F2A41049F2AC11C2F20120C2F205
:108DB0000121066049F2A8100E60C2F2012049F6B6
:108DC000F011C2F20121066049F6EC100E60C2F209
:108DD000012043F6E051C2F20221066045F65050F0
:108DE0000E60C2F2022045F64C51C2F2022106602A
:108DF00049F6C4100E60C2F201202421F7F724FBCB
:108E000049F238105421C2F20120F7F71DFB46F653
:108E10002C10C2F20220006838B1286805A100EBCE
:108E2000C00004EB4010C0F8E01070BD465F534B2B
:108E3000593100005072657373206573636170650A
:108E400020746F20717569742E00000010B542F611
:108E50008C600024C2F2012049F69441C2F2012143
:108E600042F6C452046049F69040C2F201200C6000
:108E700043F68471C2F20122046042F60460C2F239
:108E80000120C2F202211268046044F28040C2F262
:108E90000220C1E90144CC6049F6B441046046F6C1
:108EA000FC60C2F20120C2F2012104600C6042F6B3
:108EB000A85042F6C851C2F20120C2F2012104605A
:108EC000086842F6C051C2F20121096800F002FAB6
:108ED00047F2C460C2F20120046010BD2DE9F041E8
:108EE00082B047F2C46042F67861C2F20120C2F259
:108EF000012100250560086801211AF0A1F942F658
:108F0000806142F67C67C2F20121C2F2012708604B
:108F1000411C3960047800F04FFFA04205D149F2AE
:108F20006C30C2F20120056033E06F2C06D149F2AB
:108F30006C300121C2F2012001602AE000F03CFF08
:108F4000A4F168010546CAB2062A04D248B253A168
:108F500051F8206014E0052C01D248A610E0292029
:108F60004EF638566043C2F2002648A21021030B89
:108F7000642003FB1040C0B20090304605F075FB42
:108F800041F687102146C0F205202A46334601F0FB
:108F900005FF386842F60463411C396090F8008090
:108FA000811C3960C11C4578396001468678C2F25F
:108FB000012344F2804411F8042F3960C178C2F2D1
:108FC0000224196046F6FC61C2F201212260427956
:108FD0004FF0040E0A6049F6B441C2F201218379D0
:108FE000C47909300B6042F6A851C2F201210C602D
:108FF00043F68471C2F202210A4600BF386010F8BD
:10900000013C013042F8043B0FF009C0486848B900
:1090100028A003F01DF8002804DC29A003F018F8AC
:1090200001280ADB49F6944049F69042C2F2012039
:10903000C2F2012201210160116047F6AC344046C2
:10904000C2F20024294632460027276000F042F988
:109050000125256002F015F946F2FC51C2F2022109
:1090600008604BF6802042F68C61C2F20220C2F208
:10907000012107600D6002B0BDE8F08176312E302D
:109080002F76312E312F76312E32000025692E2594
:10909000692028756E6B6E6F776E2900611A050264
:1090A0006B1A0502701A0502861A05027C1A05025F
:1090B000811A05022D736F6C6F2D6E6574000000B0
:1090C0002D6E657464656D6F00000000F0B581B0B1
:1090D00049F69441C2F201210968C9B1044600EB86
:1090E000C00043F6947142F604624001C2F20221CC
:1090F000C2F201220858116800294FF00001C0F89F
:1091000084100DD0204601B0BDE8F040FFF7BABB97
:1091100047F2C4600121C2F20120016001B0F0BD3C
:1091200004EB840044F21441C2F2022101EB400539
:1091300020462946FFF7C4FA68B944F214460027CE
:10914000C2F2022620463146FFF7BAFA48B9013783
:109150000A36042FF6D1284601B0BDE8F0400AF0E7
:10916000F5BD601CF08030460AF0F0FD781CF08000
:10917000D4E7000070B50BF00BF944F62C3104462F
:10918000C2F2022108680AF01FF844F6D806054624
:10919000C2F202260A223046214625F08FFE18B17F
:1091A00030A0214601F0FAFD44F624300021C2F23D
:1091B0000220016044F60430C2F202200CF02EFDC1
:1091C00006F05AF906F0F4FC06F012FC06F08CFAF0
:1091D0000CF020FD4EF6A420C2F20020006830B151
:1091E0007069B0F5303F02D922A001F0D7FD44F6F6
:1091F000D800C2F2022024F0E3FF284603F064FC0A
:1092000010B1284626F021FB2046294626F02BF9EE
:1092100018B101461DA001F0C1FD47F2C460002154
:10922000C2F201202022016044F6043045F21F61A1
:10923000C2F20220C0F2052104F0D6FF42F6A85087
:1092400043F69471C2F20120C2F20221006800EBE1
:10925000C00001EB401015A1C0F8E010BDE870405F
:109260000EF09ABD6F70656E206572722025730ACC
:10927000000000005361766567616D652062756668
:10928000666572206F76657272756E0053617665E1
:1092900067616D65206E6F742072656E616D6564C7
:1092A0002C20726573203D202569000067616D6583
:1092B0002073617665642E0045F63C500021C2F2B1
:1092C0000220016047F2C460C2F201200621016061
:1092D000704700002DE9F04143F6E0571646C2F210
:1092E00002270C4605463B681BB10020386015F08C
:1092F0008CF944F2D048012EC2F20028D8BF0126D2
:10930000D8F800000228304618BF0920092E50EA7C
:10931000868602F009FF44F28040042DC2F202204A
:109320005FEA1F9146F6FC620068C2F20122002843
:109330005FEA0F9008431168002944F27C41C2F2B1
:109340000221086047F6D820C2F2012006D1042D80
:10935000016840F07880042900F0758047F6CC6100
:109360004FF00D0EC2F2002143F2344211444FF48B
:10937000A01300BF0A68521041F81C2B4FF4A01232
:109380000FF009C044F6DC01C2F20021C1F8FC254F
:10939000C1F8BC3BC1F8603B4FF0040E43F694713A
:1093A000C2F20221043102220A6001F590710FF02D
:1093B00005C84BF6802142F68C63C2F20221C2F24C
:1093C0000123012205600A60002119604FF2307309
:1093D000C2F200233960196047F2CC61C2F2012168
:1093E0004BF69023C2F202230C6047F6D021C2F262
:1093F00001211A600E60D8F8001002290DD10C2E40
:1094000012D341F6572041F65C21C0F20520C0F28C
:109410000521152E50EA31800AE0A01E022803D84B
:1094200015A151F8200003E041F65220C0F20520BA
:1094300013F07CFA45F6C051C2F202210860BDE883
:10944000F041FFF73BBC042DA6D00429A4D147F678
:10945000CC614FF00D0EC2F2002143F234421144B0
:109460004FF420230A68520041F81C2B4FF470225D
:109470000FF009C086E700BF571A05025C1A050203
:10948000661A050280B5014644F62040C2F2022069
:109490004FF4807204F0A8FE47F2C4600321C2F2C8
:1094A0000120016080BDF0B585B000EBC00043F63F
:1094B0009471C2F202210DF1040C01EB401404F18D
:1094C000680304F1D4070FCB8CE80F004FF49071C0
:1094D0002046E0CFF6F7B8FF01AB04F1680C80EF4F
:1094E00051000FCB8CE80F00002161606421A16264
:1094F0003221C4F8A41044F6CC0104F1D400C2F225
:10950000002104F1B40CE0C091E88C0084ED1E1F32
:109510000120C9688CE88C00C4E93010C4F8C80088
:1095200005B0F0BD80B542F67C6CC2F2012CDCF8CF
:1095300000201178802903D1BDE88040FFF700B8F2
:10954000511CCCF800101178D31C0170911CCCF880
:1095500000105178CCF80030417049F26C31C2F201
:10956000012192F802E0096841B1A0F802E0131D60
:10957000CCF80030D1784EEA012101E04FEA0E210B
:109580004180591CCCF800101978417180BD000051
:1095900070B504464BF68020C2F202200021016023
:1095A0002046F6F784FF451D0121002228460126AA
:1095B0001AF096FB42F6886118A2C2F201212346F6
:1095C0000860294605F051F816A0012102F044FD7B
:1095D00058B149F60421C2F20121096801EB80006B
:1095E0004068F7F775F8840201E04FF40034012178
:1095F000002220461AF074FB42F6806142F6906227
:10960000C2F20121C2F20122086042F68461C2F274
:10961000012120441660086070BD00BF25732E6CC8
:109620006D7000002D6D617864656D6F0000000045
:109630002DE9F04381B047F6DC258046C2F20125D2
:1096400045F6AC50C2F202202968B9B9D8F800201A
:10965000A2B944F25C62D8F80430C2F20022126867
:1096600093420BD10268002A40F0C28042F60462A5
:10967000C2F201221268002A00F0BA8047F2C462E6
:109680000068C2F201221268104308D142F68C60D1
:10969000C2F20120006800286AD1032968D000299D
:1096A00058D0022904D14046FEF764F900286CD155
:1096B00046F62C10C2F2022000680028D8F80000FC
:1096C00067D0022865D1D8F80800002800D54042AC
:1096D00046F63011C2F20221086060E009FA05F690
:1096E0001C6806405FEA0F9744B93EB111B12AB930
:1096F000012601E04FF0FF36CCF800600135013A59
:10970000013943F8047B0FF017C847F61820D8F842
:109710000810C2F20020D8F80C3046F267620068E8
:10972000C6F2666205304143584351FB02F150FBDB
:1097300002F049F6EC12C2F201228B1003EBD17158
:109740001160811001EBD07049F6F011C2F20121D5
:1097500008601AE0404600F0ADFCB0B9404613F096
:1097600011FB90B94046F7F759FD70B9296898E7A1
:10977000D8F8000038B1032818BF022836D1D8F82D
:109780000400002832D004F0E5FC012001B0BDE85F
:10979000F08303282AD8DFE800F01D44024A47F688
:1097A000302147F62C22C2F20021C2F2002249F6F3
:1097B000C4134FF0080ED8F8040009681268C2F20A
:1097C000012349F6A04C043300254FF00109C2F2F1
:1097D000012C83E749F2D810D8F80410C2F2012016
:1097E0000068814269D14FF0FF306EE00020CDE784
:1097F00042F6A85043F68473C2F20120C2F202235B
:10980000016843F2FC20C2F201200268571C043FA9
:1098100057EA029253F822700FB98A42F6D10260D9
:10982000B3E7D8F804100020FF29AFDC65E044F26C
:10983000645144F26052C2F20021C2F2002249F2A5
:1098400038134FF0140ED8F8040009681268C2F2F9
:10985000012349F6A049043300254FF0010CC2F260
:10986000012900BF0CFA05F61C6816EA00075FEA3A
:109870000F9644B93FB111B12AB9012701E04FF069
:10988000FF37C9F800700135013A013943F8046B1C
:109890000FF019C049F2A81008F10803C2F2012024
:1098A0000ECB016049F2AC10C2F20120026049F215
:1098B000A410C2F20120036067E749F2D410C2F29B
:1098C00001200068814205D1012049F6A042C2F280
:1098D0000122106044F25060C2F200200068814210
:1098E00006D145F64C510120C2F2022108604DE735
:1098F000FF294FF001003FF749AF47F2D062C2F2B3
:10990000012242F8210041E780B544F62C32C2F230
:109910000222106044F60430C2F20220202204F039
:1099200063FC45F650500121C2F20220016080BD67
:1099300047F2C4600921C2F20120016070470000B3
:1099400080B544F2D040C2F200200068022804D161
:1099500009A019F01FFD002801D4012000E000201B
:1099600045F63C51C2F20221086047F2C460C2F2DF
:1099700001200621016080BD6D617033310000005F
:109980002DE9F04F81B043F6947043F68476C2F22D
:1099900002200024051DC2F2022600BF306828B153
:1099A0002868022802D12046FFF790FB01340436D4
:1099B000042C05F59075F1D147F6DC2B46F66C4882
:1099C00047F6D0294BF6902AC2F2012B0025C2F2AD
:1099D0000428C2F20129C2F2022A0127CCA4CFA690
:1099E00047F2C460C2F2012000680928F8D8DFE815
:1099F00000F04305080B0E1114171A2BFFF75EF940
:109A0000EEE7FFF723FAEBE7FFF7F4F8E8E7FFF7F5
:109A1000B1FBE5E7FFF762FAE2E7FEF7A7FFDFE752
:109A2000FEF700F8DCE7D8F80C00CBF80050013066
:109A3000C9F80000FFF742F947F2C460CAF80070A5
:109A4000C2F201200560CBE7204617F067F942F625
:109A5000A85043F69471C2F20120C2F202210068BC
:109A600000EBC00001EB4010C0F8E06047F2C460BA
:109A7000C2F201200560B3E747F6E0204BF668111B
:109A8000C2F20120C2F202214BF6F01943F6847AA9
:109A90000068096847F67C3B43F6947690FBF1F04A
:109AA000C2F20229C2F2022AC2F2002BC117C2F28C
:109AB00002264FF00008002500EB516121F07F01E4
:109AC000401A42F6A831C2F201210C18DAF800005F
:109AD000002800F08B8049F68C403746C2F2012006
:109AE000006800EB080150F80800D1E90123C968BB
:109AF00047F8080F42F68C607A60C2F20120C7E98D
:109B00000231006810B13846FFF70CFD42F6906054
:109B1000C2F20120006810B1384600F0B5F997F99B
:109B20000000332802DB0120C9F8000047F6E020DE
:109B3000C2F201200068C10628D1411101EB9171E8
:109B400021F00301C1EB601085421FD1D9F800005C
:109B5000E0B14EF66457DBF80030C2F20027502126
:109B6000384671A204F081FD42F6A85043F6947184
:109B7000C2F20120C2F20221006800EBC00001EB3A
:109B80004010C0F8E0700020C9F8000049F6944089
:109B9000C2F20120006848B349F69040C2F20120A9
:109BA000006818BB47F6E0204BF66811C2F20120AE
:109BB000C2F202210068096890FBF1F202FB110178
:109BC000A1B9812806DBB17B22788A4202D05AA053
:109BD00001F0E4F844F284613068C2F20221002806
:109BE00018BF00F10C010868207000BF01358034F7
:109BF00009F1040908F1100806F59076042D0AF120
:109C0000040A0BF1040B7FF461AF43F6947043F642
:109C10008477C2F2022044F6043B44F62C3A43F621
:109C2000E05600F10D054FF00409C2F20227C2F21E
:109C3000022B0FF22C18C2F2022AC2F202260424CE
:109C4000386820B195F90000B0F1FF3F06DD013C16
:109C500007F1040705F59075F2D124E000F0030147
:109C6000022909D00129F2D1306890F0010030605A
:109C700016D014F0B8FCEAE79BF8001029B92022AE
:109C80005846414604F0B0FA2878C0F38200CAF87A
:109C9000000047F2C460C2F20120C0F80090D6E78D
:109CA00014F0B3FCD3E749F6405447F6DC25C2F282
:109CB0000124C2F2012520680128286804D1012866
:109CC00002D017F09AF82868032820600ED8DFE841
:109CD00000F00210151A0AF0BBFB13F01EFBF7F799
:109CE0002AFD01B0BDE8F04F00F0BCBC01B0BDE8FA
:109CF000F08F01B0BDE8F04F17F0D0B801B0BDE86B
:109D0000F04FFDF775BF01B0BDE8F04FFCF79DB80F
:109D1000444F4F4D253032692E25730073637265B1
:109D2000656E2073686F74002573206973207475E5
:109D300072626F2100000000636F6E736973746557
:109D40006E6379206661696C7572652028256920CB
:109D500073686F756C6420626520256929000000B6
:109D60004E45542047414D450000000010B50446C3
:109D70000FA002F06DF949F6AC41C2F20121086072
:109D80004BF67410C2F202200121016045F6B0507A
:109D9000C2F20220016042F67860C2F20120052181
:109DA000046047F2C460C2F20120016010BD00BF30
:109DB0002D6E6F647261770080B544F2D440C2F2B8
:109DC00000200168032909D86A20DFE801F00208B1
:109DD000090B05A000F0E2FF6A2080BD6D2080BD68
:109DE0006B2080BD6C2080BD446F6F6D20312E32A2
:109DF00020646F6573206E6F7420686176652061E2
:109E00002076657273696F6E20636F646521000050
:109E100045F63C5047F2C461C2F20220C2F2012171
:109E2000082200680A6078B142F6A85143F694729D
:109E3000C2F20121C2F20222096801EBC10102EB68
:109E400041110122C1F81C2144F2D041C2F200218B
:109E50000968022918BF704747F6D021C2F20121D4
:109E600009681F290DD8012202FA01F140F64002CB
:109E7000C4F21002114205D111F0802F18BF002842
:109E800000D17047FDF7CEBD2DE9F04744F2B05147
:109E900047F2D062C2F20021C2F2012204460968F0
:109EA00052F8211009B1FEF74BFB42F67C67C2F273
:109EB00001273868411C3960217801703A6861785F
:109EC000531C3B60117049F26C31C2F201210A68E7
:109ED00061884AB13A68531C3B601170E278396876
:109EE0004B1C3B600A7004E03A68090A531C3B6053
:109EF0001170396842F684656279C2F201250A70F0
:109F000038602968A1F1100290422CD94EF69C20AD
:109F1000C2F20020006818B1BDE8F047FEF710BBA0
:109F200042F680690022C2F20129D9F80000A1EBB3
:109F3000000801214FEA480019F0D2FE3A68D9F82A
:109F40000010521A064600EB020A4246F6F763FA80
:109F5000D9F8000019F020FEC9F80060C7F800A089
:109F600006EB480028602046BDE8F047FFF7DABA64
:109F700010B5044642F6B830C2F20020214614F073
:109F800085FD00B110BD43F674002146C2F20020E9
:109F900014F07CFD0028F5D102A0214600F0FEFE61
:109FA000002010BD556E6B6E6F776E20636F6E660E
:109FB000696775726174696F6E207661726961623A
:109FC0006C653A202725732700000000B0B54EF6D7
:109FD0000C65C2F20025287898B94EF6B454582181
:109FE000C2F200242046F6F72FFA00200422214670
:109FF00001F072F8211D0420042201F06DF8012007
:10A0000028704EF6B450C2F20020B0BD80B546F6BE
:10A010000420C2F2042000F09DFC46F27860C2F2F7
:10A02000042000F08FFC4FF23070C2F20020006874
:10A0300040B146F6E4300021C2F20420BDE8804081
:10A0400000F0AABC80BD80B546F60420C2F2042010
:10A0500000F006FD46F27860C2F2042000F0F0FC49
:10A0600046F6E430C2F20420BDE8804000F01ABD9C
:10A07000F0B583B047F68C472124C2F201270AA528
:10A080000DF10306092130462A46234632F012FE1E
:10A090000121304619F0D4F85F2C04F1010447F88F
:10A0A000040BEFD103B0F0BD535443464E252E337D
:10A0B000640000002DE9F04F81B04168B6290DD051
:10A0C000B82909D14EF610610068C2F200210028BB
:10A0D0005FEA1F90086001E0026822B10024204678
:10A0E00001B0BDE8F08F41F63C1BC2F2012BDBF85A
:10A0F0000020A2B34EF61062C2F200221268002ABB
:10A1000041D001F1D0005FFA80FEBEF1090FE5D821
:10A1100047F6804946F6AC00C2F20129C2F202209D
:10A1200042F2E84C41F64016D9F80020C2F2002C69
:10A13000531C016803F07F0044F2404844F21B04C2
:10A140005CF82E708842C2F20126C2F20228C0F2E8
:10A15000052479D1D8F80000C0F8E04079E044F255
:10A160004862C2F200221268914236D149F28C4014
:10A170000124C2F201208C21046049F28040C2F225
:10A1800001200160ABE7876846F27868FEB2C2F250
:10A1900004284046314600F017FD0446002800F030
:10A1A000958047F6804046F6AC02C2F20120C2F22A
:10A1B0000222016815684B1C03F07F02AA4240F09E
:10A1C0007F8044F2404044F21B01C2F20220C0F200
:10A1D00005210068C0F8E01078E049F69441C2F229
:10A1E0000121096800293FF479AF44F24C6180688D
:10A1F000C2F200210968884240F08C800120CBF82F
:10A20000000046F27860C2F2042000F005FD47F637
:10A21000804046F6AC02C2F20120C2F2022201687E
:10A2200017684B1C03F07F02BA4240F0C78044F22B
:10A23000404044F21B01C2F20220C0F20521012479
:10A240000068C0F8E0104AE70D23B3540246C9F88D
:10A250000000387898B1D8F800500137531C03F04B
:10A260007F038B4202D1C5F8E04003E0B0541A46A8
:10A27000C9F8003017F8010B08B12FF011C8501CB5
:10A2800000F07F00884204D1D8F80000C0F8E04018
:10A2900003E00D21B154C9F800004EF6146400200B
:10A2A000C2F20024CBF800005CF82E1051222046A8
:10A2B00003F09AFFD8F80000C0F8E04001240EE750
:10A2C00041F640130260C2F201235F541B2E1DD0E1
:10A2D0000D2E7FF404AFD8F8640000284FF0000082
:10A2E000CBF800003FF4FBAE4EF6146508F1100108
:10A2F000C2F200255122284603F076FF44F2404086
:10A30000C2F202200068C0F8E050E8E60020CBF876
:10A310000000E4E643F68471C2F2022191ED001FD1
:10A32000F9FE002F032AFFF6D9AE44F240434EF661
:10A33000686742F6A852C2F20223C2F20027C2F2B4
:10A340000122D3F800E043F6847649F2B413396869
:10A3500012680025C2F20226C2F201230FF2A80CF5
:10A360000FF2BC080FF2C80A1C68A0421DD1346865
:10A370000CB1AA422AD1AA4217D1022901F1010443
:10A38000E1463C600EDB0529C1460BD30829D146C6
:10A3900008D31F292BA130A751EA37894EF66867E9
:10A3A000C2F200272146CEF8E09001350436042D94
:10A3B00003F104034FF00004D6D190E641F64013B8
:10A3C0000527C2F201235F54026077E70120CBF832
:10A3D000000046F27860C2F2042000F01DFC47F64F
:10A3E000804046F6AC02C2F20120C2F202220168AD
:10A3F00017684B1C03F07F02BA423FF418AF41F6D6
:10A4000040136F1CDDE700BF596F75206D756D62DD
:10A410006C6520746F20796F757273656C660000CF
:10A4200057686F27732074686572653F00000000ED
:10A43000596F7520736361726520796F75727365EA
:10A440006C660000596F7520737461727420746FAC
:10A450002072617665000000596F75277665206C63
:10A460006F73742069742E2E2E0000002DE9F041C8
:10A4700084B047F68448C2F2012898F80000012809
:10A4800002D1002088F8000042F6A85043F69471EB
:10A49000C2F20120C2F2022149F2844241F63C1785
:10A4A0000068C2F20122C2F2012747F68C4400EB99
:10A4B000C00001232125C2F2012401EB401044F227
:10A4C0004041C2F20221CDE90045086049F28C40CA
:10A4D000C2F201200021116049F28842C2F2012239
:10A4E0000160029046F6042011603960C2F2042037
:10A4F0000021002200F03AFB206800212346B0F939
:10A5000002000095C0F1A70246F6E430C2F2042032
:10A5100000F050FB47F6D420C2F20120006801464B
:10A52000052808BF0121043851EA1080032818D8F3
:10A53000DFE800F00219263347F2CC6047F6D0215D
:10A54000C2F20120C2F201210068096800EBC000DC
:10A55000084444F29861C2F2002101EB80002838DF
:10A5600027E03CA026E047F6D02044F24C71C2F22E
:10A570000120C2F20021006801EB8000043818E0DD
:10A5800047F6D02044F24C71C2F20120C2F2002101
:10A59000006801EB8000FC300BE047F6D02044F26D
:10A5A0004C71C2F20120C2F20021006801EB800070
:10A5B0007C30006844F2D441C2F2002109680929C4
:10A5C0000CD147F6D02044F29861C2F20120C2F2C9
:10A5D0000021006801EB800050F8040C017871B193
:10A5E00046F6E435461CC2F2042500BFC9B228462F
:10A5F00000F029F916F8011B09B12FF009C82068ED
:10A60000002123460025B0F902000197421C2120B9
:10A61000009046F27860C2F2042000F098FA46F208
:10A6200050744FF270460427C2F20424C2F200268E
:10A630000021002200232046CDE9005600F087FAD1
:10A64000013F04F17804F3D1012088F8000004B040
:10A65000BDE8F081556E6B6E6F776E206C65766528
:10A660006C0000002DE9F04F81B049F28047C2F242
:10A670000127386868B1013838600AD149F28C4046
:10A6800049F28842C2F20120C2F201220021016097
:10A69000116049F2844447F67C41C2F20124C2F2BF
:10A6A000002120680968014331D044F2404649F254
:10A6B0008845C2F20226C2F2012500285FEA0F9007
:10A6C00031682B68D1F8E020002A5FEA0F91002B57
:10A6D0005FEA1F93194208BF10EA010017D046F63F
:10A6E00004200021C2F204204FF0000800F0DEF840
:10A6F00030680121C0F8E08049F28C40C2F20120AC
:10A7000001608C20386020682860C4F8008049F619
:10A710009440C2F201200068002879D043F694707A
:10A7200043F68477C2F2022047F67C3641F63818A9
:10A7300046F2507442F6A85900F10C05C2F2022705
:10A74000C2F20026C2F20128C2F20424C2F2012998
:10A750004FF0000A386800284DD0D9F80000824533
:10A7600049D095F800B0BBF1000F44D0BBF1050F04
:10A7700002D888F800B03CE02046594600F024FAA0
:10A78000B8B3BBF10D0F34D1606E78B398F8000008
:10A79000052804D0D9F800100131814226D146F6AF
:10A7A0000420316804F11002C2F2042000F07EF8A7
:10A7B00049F288400121C2F20120016049F28C4037
:10A7C000C2F20120016049F28040C2F201208C21D6
:10A7D000016044F2D040C2F20020572100680228F4
:10A7E0004FF0000008BF6C2113F0C2FF204600F0BC
:10A7F00013FA002028700AF1010A0437043608F120
:10A800000108BAF1040F04F1780405F59075A1D19F
:10A8100001B0BDE8F08F46F6AC0147F68040C2F2C9
:10A820000221C2F201200A680068904201D1002092
:10A83000704741F64010C2F20120805C013202F004
:10A840007F020A607047436E4FF0000C502B0BD014
:10A850005A1C426600F11002D154416E02F801C048
:10A860004FF0010C042181666046704780B5D0E945
:10A870006CE101234A1CB2EB0E0252EA01916C22F8
:10A88000BEF1010FC0F8B41101FB02024FF000014C
:10A890001174C2E91913B8BF80BD6830042100BF2C
:10A8A00040F86C1B0FF005C080BD00002DE9F041A1
:10A8B00090460E460446FFF7D9FFFEB13178E9B164
:10A8C000701C6C224FF0000C4FF0040ED4F8B43121
:10A8D00003FB02473D4655F8643F502B09D05E1CF0
:10A8E0002E6007F11006F154296806F801C0C7F878
:10A8F00068E010F8011B09B12FF019C098F800109A
:10A90000F1B108F101006C224FF0000C4FF0040E81
:10A91000D4F8B43103FB02452F4657F8643F502B5F
:10A9200009D05E1C3E6005F11006F154396806F846
:10A9300001C0C5F868E010F8011B09B12FF019C07B
:10A94000BDE8F081016F096811B1012100F024B860
:10A9500070470000F0B581B00446D0F8B801006837
:10A96000B8B1D4F8B001012813DB00256C2600270C
:10A97000D4F8B4116A1848BF01446818002100FBDC
:10A98000064000F009F8D4F8B0010137013D8742D4
:10A99000EEDB01B0F0BD00002DE9F047D0F864A077
:10A9A0008146BAF1010F884607682EDB09F11005D0
:10A9B000002400BF2878F5F722FDC0B2202819D066
:10A9C0005F2817D8D9F80C10884213DBD9F8082073
:10A9D000401A52F82020B2F900003E18B6F5A07FC8
:10A9E00013DCD9F80410384616F0EFF8D9F864A053
:10A9F00005E000BFB7F59E7F07F1040606DA0134D3
:10AA0000013554453746D5DB00E03E46B8F1000F2E
:10AA100008BFBDE8F087D9E90210C0F15F0051F826
:10AA20002020B2F900003044B0F5A07F06DCD9F850
:10AA300004103046BDE8F04716F0C7B8BDE8F0870F
:10AA400010B50446406F20B1206F006808B904209B
:10AA5000A066204600F026F8206F0068606710BDF1
:10AA6000F0B581B00446D0F8B001012813DB002610
:10AA700004272546D4F8BC0120B1D4F8B8010068F9
:10AA800000B9AF66284600F00DF8D4F8B0010136E1
:10AA90006C358642EEDBD4F8B8010068C4F8BC011E
:10AAA00001B0F0BD2DE9F04F81B04FF23071044696
:10AAB000C2F200210968002942D14FF6B028C2F243
:10AAC0000228D8F80000D8B3A06EC8B3A068006808
:10AAD000B0F90200002833D46768461C4FF6B42949
:10AAE0004FF6A02A07EB87004FF6AC2B8501C2F288
:10AAF0000229C2F2022AC2F2022B00BFD9F80000DA
:10AB0000874211DBDAF80010084487420CDAD8F8E3
:10AB10000010284611F02AFFD8F80010DBF80000DA
:10AB20000844284403E000BF4FF4A071284611F008
:10AB30001DFF60680137304405F5A0758742DDDBF5
:10AB4000A06E08B10138A06601B0BDE8F08FB0B5C5
:10AB5000DDE904CE00240125047480E80E10C0E96C
:10AB60001945C0E91B4E4567B0BD0000F0B59E46D3
:10AB7000079CBEF1010F4FF0010C4FF00003C0E93C
:10AB80006CE3C0E96E4CB8BFF0BD069C059D002685
:10AB90002F68C0E90254C0E9193CB7F90270037488
:10ABA000FF4306FB07270136C0E900176C300FF0A2
:10ABB00011C8F0BDDDF800C080E80E10002101745E
:10ABC0000122C0E91912704710B504460846F5F78E
:10ABD00016FC00F0E00120393F2908D8616E5029A9
:10ABE00016D04A1C626621440874606E0BE0C0B245
:10ABF0000D280DD07F280DD1606E48B1E16E8842DE
:10AC000006D0013860662044002101740420A0664B
:10AC1000012010BD002010BD002101740122C0E9F7
:10AC20001912C1667047B0B505460C200C4629F0D4
:10AC300042FB46F63861C0E90054C2F201210A68BD
:10AC400082600860B0BD7047F0B589B04BF67821DE
:10AC500027A0C2F2022101F0BFF844F27C5128A0E3
:10AC6000C2F2002101F0B8F849F2981128A0C2F20E
:10AC7000012101F0B1F844F2AC5129A0C2F2002147
:10AC800001F0AAF844F2A85129A0C2F2002101F073
:10AC9000A3F849F29C112CA0C2F2012101F09CF80A
:10ACA00049F2A0112DA0C2F2012101F095F849F25C
:10ACB00094112FA0C2F2012101F08EF844F28055C8
:10ACC00043F656160024C2F20025C0F2052601AF55
:10ACD000202138463246234603F0C7FC3846294631
:10ACE00001F07AF8013404350A2CF1D109B0F0BD35
:10ACF0007573655F6A6F79737469636B0000000038
:10AD00006A6F79737469636B5F696E64657800005C
:10AD10006A6F79737469636B5F785F6178697300D8
:10AD20006A6F79737469636B5F795F6178697300C7
:10AD30006A6F79737469636B5F7374726166655F60
:10AD400061786973000000006A6F79737469636BDE
:10AD50005F785F696E766572740000006A6F797360
:10AD60007469636B5F795F696E7665727400000069
:10AD70006A6F79737469636B5F7374726166655F20
:10AD8000696E7665727400007047704770470020E6
:10AD9000704770477047704770470000ADF5067DFB
:10ADA0000DF5037C04468CE80E004FF26C41C2F2B4
:10ADB00000210A78012A09D140F2040345A0C2F219
:10ADC00000232D21012235F0D1FC01E00120087083
:10ADD00040F2040683ADC2F20026214630462A46E0
:10ADE000029535F025F847A002210122334635F0BF
:10ADF000BDFC3046002000BF029503AD4FF400714A
:10AE00002846F5F721FB029B4FF4007128462246A5
:10AE100003F046FC46F63860C2F20120046800BF29
:10AE20002CB1606808B120688047A468F8E736A0B4
:10AE300002F0DBF800284BD135A034F09BFB002852
:10AE400046D103AF3846F5F732FB032101EB400052
:10AE500029F031FA9DF80C50044681464FF0220843
:10AE6000064604F8018BC5B101370FF2CC0B4FF049
:10AE70005C0A4E46052258462946F5F72DFB20B1BF
:10AE800017F8015CB41C86F801A0264604F8015BA3
:10AE900017F8015B0DB12FF013C84846A6F80180E2
:10AEA000F5F705FB00F12205284629F004FA24A253
:10AEB00029A329460646CDF8009003F0D6FB30467C
:10AEC00034F058FB304625F0D3FD484625F0D0FD40
:10AED000FEE700BF5761726E696E673A2072656364
:10AEE0007572736976652063616C6C20746F20499C
:10AEF0005F4572726F722064657465637465642E59
:10AF00000A0000000A0A00002D6E6F6775690000D4
:10AF10002F7573722F62696E2F7A656E697479204E
:10AF20002D2D68656C70203E2F6465762F6E756CD4
:10AF30006C20323E2631000024605C2100000000BD
:10AF40002573202D2D6572726F72202D2D746578FA
:10AF5000743D2573000000002F7573722F62696EB7
:10AF60002F7A656E69747900F0B581B047F630705C
:10AF700044F28443C2F2012000214FF4A074C2F2D3
:10AF8000022382684EF67060C2F20020D0F800C042
:10AF9000104600BF44F001E00546664616F8017B06
:10AFA00033F8177025F8047B25F8027CA5F8FC74AB
:10AFB000A5F8FE740FF00FC001310CF5A07CC82974
:10AFC00000F52060E6D14BF2FF7102F01F00C0F2E5
:10AFD0000B0108440121BFF34F8F01EB501E4EF6C9
:10AFE0007070CEF200001146016020310FF005C0F4
:10AFF000BFF34F8FBFF36F8F002000214FF42073FA
:10B000004FF4C877009727F009FF01B0F0BD0000AA
:10B010002DE9F04F87B001A80DF10301F9F7F4F81D
:10B02000002855D045F664574FF6045B4FF00108F1
:10B03000C2F2022700244FF0B60A0DF1080901AD53
:10B040000DF10306C0F2042B9DF803000199B62808
:10B0500010D1002958EA18B03A68002902EB000123
:10B06000396022D0B620CDE9024A0029C8BF0020AD
:10B0700004900EE001B33968CDE90240002905DDF6
:10B0800041B200290FD41BF8001000E001460491E2
:10B0900010B14846FAF70AFF28463146F9F7B4F8E6
:10B0A000B0B12FF02FC80020E2E701200290B620B7
:10B0B00003900020049008E000284FF00101CDE942
:10B0C00002104FF00000049002D002A8FAF7EEFE42
:10B0D00007B0BDE8F08F00002DE9F04F83B04EF6C9
:10B0E0006C631646C2F200230D4680461F78002F7F
:10B0F00065D10120187045A0012100F0ADFF0128A5
:10B100005DDB074649F60420C2F2012041A1006838
:10B1100000EB87004468204634F068F943F2F429D4
:10B12000C2F2002928B94FF65C00C0F20420C9F829
:10B1300000003AA1204634F059F9A8B339A12046BD
:10B1400034F054F9A8B3019549F25C4A49F6002B52
:10B1500049F604257C1C6FF00109C2F2012AC2F2F3
:10B16000012B02AFC2F20125DBF80000844211DAA4
:10B17000286850F8240001782D290BD0394603F0B7
:10B1800003F809F102090134B9F1080F02980AF82D
:10B19000020BE9D343F2F42949F25C40C2F20029E0
:10B1A000019DC2F2012008E04FF67000C0F20420B9
:10B1B00003E04FF66600C0F20420C9F80000042E38
:10B1C0000CD0022E13D0012E1BD143F2F420C2F278
:10B1D0000020006810F80800287010E043F2F42006
:10B1E000C2F20020006850F80800286007E043F22F
:10B1F000F420C2F20020006830F808002880012006
:10B2000000E0002003B0BDE8F08F00BF2D7365742F
:10B210006D656D00646F733632320000646F733792
:10B2200031000000646F73626F780000F0B544F283
:10B23000844E6FF000434FF0000CC2F2022E002447
:10B24000BEF80050C5F3451605F01F07A0EBD52545
:10B25000D71B6D438E1B07FB075506FB06559D420A
:10B2600054EABC8C4DB19D4204F1010455EAB3830C
:10B27000B4F5807F0EF1020EE2D16046F0BD0020F1
:10B28000704780B5F9F775F84FF24871C2F20021A6
:10B290000A680AB902460860801A2321484344F626
:10B2A000D351C1F26201A0FB0101880980BD80B5C4
:10B2B000F9F75FF84FF24871C2F200210A680AB943
:10B2C00002460860801A80BD7047000010B524A0B7
:10B2D0002DF0EDFD49F22424C2F20124206040B992
:10B2E00040F6B1711FA0C0F2052162222DF076FB5D
:10B2F000206800212DF0DEFD50B140F6A07040F630
:10B30000B171C0F20520C0F2052165222DF066FB67
:10B3100047F630722068C2F2012240F603012DF098
:10B3200099FD50B140F6A07040F6B171C0F2052011
:10B33000C0F2052169222DF051FB4FF47A40012122
:10B340000022012418F0CCFC4EF6706145F628521C
:10B35000C2F20021C2F202220860146010BD00BFD8
:10B360006C6364006C63645F646576696365202167
:10B370003D2052545F4E554C4C00000070477047C2
:10B3800010B511A000F064FE044612A000F060FEAB
:10B3900012A000F05DFE002C14DC45F62451C2F230
:10B3A0000221096871B900280CDC47F69840C2F206
:10B3B00000200068082818BF052803D1BDE8104008
:10B3C00000F013B810BD00BF2D6E6F736F756E6403
:10B3D000000000002D6E6F73667800002D6E6F6D9B
:10B3E00075736963000000007047704770477047CD
:10B3F0007047000070B50446F5F759F845280DD898
:10B400006FF0220140F2000501EB5006C2F2002568
:10B410002020294635F0BEF90136F9D32046BDE893
:10B42000704035F0BFB90000B0B540F200044B25C4
:10B43000C2F200243D20214635F0ACF9013DF9D19E
:10B4400040F200010A20C2F20021BDE8B04035F010
:10B45000A1B910B50446FFF7E7FF2046FFF7CAFF82
:10B46000FFF7E2FF46F24B10C0F2052035F09AF9E3
:10B47000BDE81040FFF7D8BF10B546F63860C2F2FD
:10B48000012004681CB120688047A468FAE710BD59
:10B490004EF670614FF47A42C2F200210968F4F767
:10B4A000BABF0020704770477047704710B54FF41F
:10B4B000807E44F28441C2F202216FF0180C00BF7A
:10B4C00010F8033B10F8022C10F8014C03F0F803BD
:10B4D0000CEAC20242EA032242EAD40221F8022B19
:10B4E0000FF013C010BD704770477047F9F734B8BC
:10B4F00000207047704700207047FFF789BD7047F4
:10B500007047704770477047704770474FF47A71C3
:10B5100048434AF2EB01CEF60E2151FB00008111A7
:10B5200001EBD070F9F718B82DE9F04180461DA065
:10B53000012100F091FD012810DB49F60421C2F23F
:10B540000121096801EB80004068F5F7C1F8054664
:10B550001AA029462EF0E5FF2C4605E012A00A218C
:10B560000A252EF0DEFF06242E0500BFA54215DBBE
:10B570003046C8F8006028F09EFEA5F10105A6F54A
:10B58000801608B92FF00FC0074606F5801210A0EC
:10B59000394634F03DFC3846BDE8F08116A0294616
:10B5A000FFF7FCFB2D6D620040322064656661751B
:10B5B0006C745F72616D3A25640A0000403120644A
:10B5C000656661756C745F72616D3A25640A00008E
:10B5D0007A6F6E65206D656D6F72793A2025702CDB
:10B5E00020257820616C6C6F636174656420666FE0
:10B5F00072207A6F6E650A00556E61626C65207408
:10B600006F20616C6C6F63617465202569204D69E2
:10B6100042206F662052414D20666F72207A6F6E15
:10B6200065000000B0B54FF248554FF0040E0022FF
:10B63000C0F204254FF0000C0EEB0C04844207DC32
:10B64000013A55F80CEF12F11603A446F4D1B0BD3F
:10B650004BF68734C2F1000EC0F2520424FA0EF405
:10B66000E40718BFB0BD0E326A68A0EB0C0008D129
:10B6700000EBD07020F0010013181152080C588014
:10B68000B0BDC31700EB937020F003001150B0BDA4
:10B690008128B8BF7047B0B500EB40054FF6F410F5
:10B6A000CFF6FF700C4600EB85000968FFF7BAFF84
:10B6B0004FF6F8106168CFF6FF7000EB8500FFF7DA
:10B6C000B1FF4FF6FC10A168CFF6FF7000EB8500CC
:10B6D000BDE8B040FFF7A6BF80B586465EF808CF4C
:10B6E0008C4502DDCEF8001006E086465EF80C3F81
:10B6F0008B42B8BFCEF80010014651F8043F934288
:10B7000001DD0A6080BD016891420146B8BF0A6050
:10B7100080BD704780B545F24E4044F25461C0F29E
:10B720000520C2F2002100F057FB45F2DE3044F262
:10B73000BC51C0F20520C2F2002100F04DFB45F2E1
:10B74000522044F26C61C0F20520C2F2002100F0E8
:10B7500043FB45F2CA1044F2B451C0F20520C2F2D4
:10B76000002100F039FB45F2094044F26461C0F267
:10B770000520C2F2002100F02FFB45F27C4044F28C
:10B780006861C0F20520C2F2002100F025FB44F6FA
:10B79000D46044F2B851C0F20520C2F2002100F09A
:10B7A0001BFB44F2706153A0C2F2002100F014FBB5
:10B7B00044F6496044F26061C0F20520C2F2002103
:10B7C00000F00AFB44F6A25044F25861C0F2052092
:10B7D000C2F2002100F000FB44F6BE6049F6E81119
:10B7E000C0F20520C2F2012100F0F6FA44F62F6003
:10B7F00047F63421C0F20520C2F2002100F0ECFA35
:10B8000044F6F15047F62821C0F20520C2F200218B
:10B8100000F0E2FA44F6CA6049F28C11C0F2052049
:10B82000C2F2012100F0D8FA44F63D6044F26C51B6
:10B83000C0F20520C2F2002100F0CEFA44F6F36017
:10B8400044F27851C0F20520C2F2002100F0C4FA9F
:10B8500044F2685129A0C2F2002100F0BDFA44F67A
:10B860003C7044F25C51C0F20520C2F2002100F0AD
:10B87000B3FA44F2705124A0C2F2002100F0ACFAF5
:10B8800044F2745124A0C2F2002100F0A5FA47F658
:10B89000382126A0C2F2002100F09EFA47F63C2192
:10B8A00027A0C2F2002100F097FA47F6402129A014
:10B8B000C2F2002100F090FA47F6242128A0C2F23B
:10B8C000002100F089FA42F6643129A0C2F2002179
:10B8D00000F082FA44F2506128A0C2F2002100F088
:10B8E0007BFA44F2486128A0C2F20021BDE8804002
:10B8F00000F072BA6B65795F757365006A6F796283
:10B900005F737065656400006A6F79625F7374725B
:10B910006166656C656674006A6F79625F737472E4
:10B920006166657269676874000000006D6F757309
:10B9300065625F7374726166656C656674000000B1
:10B940006D6F757365625F73747261666572696746
:10B95000687400006D6F757365625F7573650000D4
:10B960006D6F757365625F6261636B7761726400AE
:10B9700064636C69636B5F75736500006B65795F09
:10B9800070617573650000006B65795F6D65737339
:10B990006167655F72656672657368002DE9F041E5
:10B9A00088B044F24C61044610A0C2F2002100F0BD
:10B9B00013FABCB149F2B4150126C2F201250FF207
:10B9C0003C086F46202138464246334602F04DFE81
:10B9D0003846294600F000FA013C05F1040506F15D
:10B9E0000106EFD108B0BDE8F08100BF6B65795F5B
:10B9F0006D756C74695F6D73670000006B65795FCE
:10BA00006D756C74695F6D7367706C6179657225B3
:10BA10006900000080B545F21D0044F2D851C0F223
:10BA20000520C2F2002100F0D7F945F22B0044F2C4
:10BA3000DC51C0F20520C2F2002100F0CDF944F241
:10BA4000C45123A0C2F2002100F0C6F944F2E4512F
:10BA500023A0C2F2002100F0BFF944F2E85124A073
:10BA6000C2F2002100F0B8F944F2EC5124A0C2F275
:10BA7000002100F0B1F944F2E05125A0C2F200210A
:10BA800000F0AAF944F2D45125A0C2F2002100F03E
:10BA9000A3F944F2C85126A0C2F2002100F09CF99B
:10BAA00044F2CC5126A0C2F2002100F095F944F2F4
:10BAB000D05127A0C2F2002100F08EF944F2C0510B
:10BAC00027A0C2F20021BDE8804000F085B900BF88
:10BAD0006B65795F6D61705F656173740000000074
:10BAE0006B65795F6D61705F77657374000000004E
:10BAF0006B65795F6D61705F7A6F6F6D696E000065
:10BB00006B65795F6D61705F7A6F6F6D6F757400D3
:10BB10006B65795F6D61705F746F67676C6500005E
:10BB20006B65795F6D61705F6D61787A6F6F6D00C5
:10BB30006B65795F6D61705F666F6C6C6F7700002D
:10BB40006B65795F6D61705F67726964000000000A
:10BB50006B65795F6D61705F6D61726B00000000F5
:10BB60006B65795F6D61705F636C6561726D617249
:10BB70006B00000080B544F64F7044F2F451C0F2FF
:10BB80000520C2F2002100F027F944F2406169A0CB
:10BB9000C2F2002100F020F945F2BC1044F2086125
:10BBA000C0F20520C2F2002100F016F945F2D030B3
:10BBB00044F22061C0F20520C2F2002100F00CF92D
:10BBC00045F23F4044F23861C0F20520C2F2002144
:10BBD00000F002F945F2390044F2F851C0F20520B4
:10BBE000C2F2002100F0F8F844F6006044F210615F
:10BBF000C0F20520C2F2002100F0EEF845F2C200CA
:10BC000044F2FC51C0F20520C2F2002100F0E4F839
:10BC100045F2355044F2F051C0F20520C2F2002145
:10BC200000F0DAF845F2F71044F21861C0F205208E
:10BC3000C2F2002100F0D0F844F6617044F23C6199
:10BC4000C0F20520C2F2002100F0C6F844F67A5096
:10BC500044F22461C0F20520C2F2002100F0BCF8D9
:10BC600044F6A36044F24461C0F20520C2F2002110
:10BC700000F0B2F845F2890044F20461C0F20520F8
:10BC8000C2F2002100F0A8F844F66F7044F230616F
:10BC9000C0F20520C2F2002100F09EF844F6636075
:10BCA00044F20C61C0F20520C2F2002100F094F8C9
:10BCB00044F2286122A0C2F2002100F08DF844F283
:10BCC0002C6124A0C2F2002100F086F844F2346115
:10BCD00024A0C2F2002100F07FF844F2146125A0F4
:10BCE000C2F2002100F078F844F21C6125A0C2F2F3
:10BCF000002100F071F844F2006127A0C2F2002197
:10BD000000F06AF849F2B01128A0C2F2012100F057
:10BD100063F844F2B0512AA0C2F2002100F05CF8AE
:10BD200044F25C612AA0C2F20021BDE8804000F02C
:10BD300053B800BF6B65795F6D656E755F75700098
:10BD40006B65795F6D656E755F6D65737361676552
:10BD5000730000006B65795F6D656E755F716C6F68
:10BD6000616400006B65795F6D656E755F71756903
:10BD7000740000006B65795F6D656E755F67616D5E
:10BD80006D6100006B65795F6D656E755F696E63EF
:10BD900073637265656E00006B65795F6D656E75C6
:10BDA0005F64656373637265656E00006B65795FE0
:10BDB0006D656E755F73637265656E73686F740031
:10BDC0006B65795F64656D6F5F7175697400000004
:10BDD0006B65795F7370790010B50C46FEF7C8F893
:10BDE00044600121416110BD80B544F6033044F246
:10BDF0007461C0F20520C2F20021FFF7EDFF44F6A6
:10BE0000493044F27861C0F20520C2F20021FFF708
:10BE1000E3FF44F68F3044F27C61C0F20520C2F2A9
:10BE20000021FFF7D9FF44F2806126A0C2F2002171
:10BE3000FFF7D2FF44F2846125A0C2F20021FFF790
:10BE4000CBFF44F2886125A0C2F20021FFF7C4FFB6
:10BE500044F28C6124A0C2F20021FFF7BDFF44F23E
:10BE6000906124A0C2F20021FFF7B6FF49F2D81179
:10BE700023A0C2F20121FFF7AFFF49F2D41124A0A1
:10BE8000C2F20121FFF7A8FF44F2645124A0C2F2DC
:10BE90000021FFF7A1FF44F2605125A0C2F200216A
:10BEA000FFF79AFF47F6302125A0C2F20021FFF7E5
:10BEB00093FF47F62C2127A0C2F20021BDE8804065
:10BEC000FFF78ABF6B65795F776561706F6E3400CD
:10BED0006B65795F776561706F6E35006B65795F53
:10BEE000776561706F6E36006B65795F776561703D
:10BEF0006F6E37006B65795F776561706F6E3800C4
:10BF00006B65795F70726576776561706F6E000042
:10BF10006B65795F6E657874776561706F6E000030
:10BF20006A6F79625F70726576776561706F6E00B7
:10BF30006A6F79625F6E657874776561706F6E00A5
:10BF40006D6F757365625F70726576776561706F2E
:10BF50006E0000006D6F757365625F6E6578747753
:10BF60006561706F6E00000010B542F69C64C2F20D
:10BF700001242068C0F1010147F66440C2F20020AC
:10BF8000216000680FF0DDFE42F6A85043F6947180
:10BF9000C2F20120C2F20221226809A30068002A2D
:10BFA00000EBC00001EB401002A151EA0381C0F890
:10BFB000E01010BD486967682064657461696C00B1
:10BFC0004C6F772064657461696C000042F6A8507C
:10BFD00047F67C41C2F20120C2F2002143F6947C74
:10BFE00000680A68C2F2022CC2F1010300EBC00033
:10BFF0000B6043F6D76143F6F6630CEB4010C0F2DA
:10C000000521C0F20523012A51EA0381C0F8E0109E
:10C0100049F28440C2F201200121016070470128E9
:10C0200008D0A0B947F61820C2F20020006870B10D
:10C03000013807E047F61820C2F2002000680828FF
:10C0400005DC013047F61821C2F200210860704774
:10C05000002100F001B80000F0B581B049F60022DF
:10C06000C2F201221268561A022E10DB054649F66A
:10C070000420C2F201200124076800BF57F82410F1
:10C08000284633F0B3F918B10134A642F6D10024A2
:10C09000204601B0F0BD10B549F268440428C2F250
:10C0A000012423D149F26C412068C2F2012149F2F6
:10C0B0007842C2F2012243F69B53086049F2744071
:10C0C000C2F201204EF23951C0F205231360C0F2D2
:10C0D000002149F27C42016049F27041C2F2012222
:10C0E000C2F2012101201060086009E046F62C111F
:10C0F0000122C2F2012109680131FCF715FC002080
:10C10000206010BD0000000003A191ED001F80ED34
:10C11000001F704700BF00BF00000080FFFFFF7FCF
:10C12000FFFFFF7F0000008080B544F24C400021FB
:10C13000C2F20220016031F001FC44F28461C0B21D
:10C14000C2F20221086080BD80B505A0082117F069
:10C1500077F8024636202621BDE8804014F035BD30
:10C160004D5F455049534F440000000070B513A087
:10C17000082117F065F8024648201C2114F025FD1F
:10C1800044F6303440F260160025C2F20224C2F2B6
:10C19000002600BFB6F91210B6F91000294400F0CD
:10C1A00079F9B6F912102246B6F91000294402F0C6
:10C1B0002BFA10351834602DECD170BD4D5F4C4F0B
:10C1C0004144470080B505A0082117F039F8024620
:10C1D0005E200221BDE8804014F0F7BC4D5F444F63
:10C1E0004F4D000080B50AA0082117F029F802463B
:10C1F00060200E2114F0E9FC07A0082117F020F8B8
:10C20000024636202621BDE8804014F0DEBC00BF87
:10C210004D5F4E45574700004D5F534B494C4C0016
:10C2200070B52CA0082117F00BF802466C200F21E6
:10C2300014F0CBFC42F69C6040F2FC26C2F20120D6
:10C24000C2F2002626A30068B6F91010B6F9122033
:10C2500001F1AF04082153F8200002F1200516F087
:10C26000EFFF02462046294614F0AFFC47F67C401B
:10C27000B6F91010C2F200201BA3B6F9122001F18A
:10C2800078040068082102F1100553F8200016F028
:10C29000D7FF02462046294614F097FC47F618229D
:10C2A000B6F91210C2F20022B6F91000603113681C
:10C2B0000A2200F05BF945F6A022B6F91210C2F28C
:10C2C0000222B6F91000403113680922BDE870401F
:10C2D00000F04CB94D5F4F505454544C00000000D6
:10C2E000ED3E05020F3F0502E43E0502023F050256
:10C2F000B0B544F2D44047F64072C2F20020C2F218
:10C300000122012100681160092833D8814011F011
:10C31000300F18D1012101FA00F010F4C07F0AD1CA
:10C3200010F4107F26D043F6C860AF244FF4A575F3
:10C33000C0F2052025E043F60A70AF244FF4A5753E
:10C34000C0F205201DE044F2D0404FF48C75C2F2DB
:10C350000020B92412A2016843F60A70C0F2052039
:10C36000022950EA028008BF4FF4A575022908BFD0
:10C37000A52406E00CA0FEF711FDAF244FF4A5752F
:10C380000FA0082116F05CFF02460020002114F0E7
:10C390001CFC40F2B430C2F2002005824482B0BDE1
:10C3A00048454C5032000000556E68616E646C6503
:10C3B000642067616D652076657273696F6E000039
:10C3C000435245444954000080B547F6407001216E
:10C3D000C2F20120016043F6C860C0F205200821C6
:10C3E00016F02EFF024600200021BDE8804014F028
:10C3F000ECBB0000F0B581B023A0082116F020FFAF
:10C40000024648201C2114F0E0FB44F6303640F28E
:10C410006015C2F202260027C2F20025344600BF92
:10C42000B5F91210B5F91000394400F033F8B5F938
:10C4300012102246B5F91000394402F0E5F8103721
:10C440001834602FECD144F6D400C2F20220006808
:10C45000B8B144F6D000C2F20220046804EB4400F4
:10C4600006EBC00002F02CF8B5F91010B5F9122057
:10C47000084402EB041106A201B0BDE8F04002F04E
:10C48000C3B801B0F0BD00BF4D5F534156454700F2
:10C490005F000000F0B581B00446A0F10806CD1D94
:10C4A00012A0082116F0CCFE02463046294614F0B0
:10C4B0008CFB182710A600BF0821304616F0C0FEDE
:10C4C00002462046294614F080FB013F04F108048F
:10C4D000F2D10CA0082116F0B3FE024620462946F0
:10C4E00001B0BDE8F04014F070BB00BF4D5F4C538D
:10C4F0004C454654000000004D5F4C53434E54528F
:10C50000000000004D5F4C535247485400000000AB
:10C5100010B514A0082116F093FE02463C202621F7
:10C5200014F053FB41F6585447F67842C2F2002407
:10C53000C2F20022B4F912101368B4F910001022EC
:10C54000103100F013F847F64422B4F91210C2F289
:10C550000022B4F91000303113681022BDE81040F9
:10C5600000F004B84D5F53564F4C00002DE9F043E6
:10C5700081B00C4605461BA008219846164616F0C9
:10C580005FFE02462846214614F01FFB012E05F1EE
:10C5900008090FDB16A54F460821284616F050FE65
:10C5A00002463846214614F010FB013E07F1080709
:10C5B000F2D100E04F4611A0082116F041FE0246DC
:10C5C0003846214614F001FB0FA0082109EBC805ED
:10C5D00016F036FE02462846214601B0BDE8F0437B
:10C5E00014F0F3BA4D5F544845524D4C0000000022
:10C5F0004D5F544845524D4D000000004D5F54487A
:10C6000045524D52000000004D5F544845524D4F79
:10C61000000000002DE9F04FADF2044D49F27C40DE
:10C6200047F64071C2F20120C2F2012100680028E1
:10C630004FF00000086070D049F27840C2F201204B
:10C64000D0F80090484601F0F9FD4EF6766700EB11
:10C65000D070C2F200276421A1EB5000388099F815
:10C660000000002800F0E48047F68C460DF1040B32
:10C67000C2F201264D464FF0000800BF4846F3F7CE
:10C6800016FF70B105EB08014FF0000A5C4600BFD1
:10C690000A780A2A10D00AF1010A01340131504502
:10C6A000F6D105EB08015022584601F09DFD584691
:10C6B000F3F7FDFE0CE000BF50225846494601F05A
:10C6C00093FDBAF14F0F01D8002020700AF101004C
:10C6D0008044584601F0F4FE00EBD0704EF67462D0
:10C6E000A021C2F20022A1EB5000B7F90010108087
:10C6F00000B25A4601F088FF306849F27842C2F22F
:10C7000001223988408815680844388015F80800E7
:10C7100005EB08090028B1D18AE043F68050C2F247
:10C720000220006810B301AC0A212046F3F7B5FEE1
:10C730004FF00007A0B1064601AC002500202946B5
:10C74000224606F8017B01F05FFF0A21304634469D
:10C75000F3F7A3FE064605F1080510B12FF013C04C
:10C76000002500202946224601F04EFF49F268408C
:10C77000C2F20120006800285AD042F6B858C2F22E
:10C780000128D8F80000C16811B18847D8F8000026
:10C790004EF674694EF6766AC2F20029C2F2002A99
:10C7A000028A418AA9F80020AAF80010B0F90070A6
:10C7B000EFB102268268935D7BB1B9F90040901910
:10C7C0000DB2082116F03CFD02462046294614F021
:10C7D000FCF9BAF80010D8F800001031013F06F15A
:10C7E0001406AAF80010E5D1B9F80020418A48F6ED
:10C7F0002C0046F65843C2F20120C2F2042309B2CB
:10C80000B0F90000B3F9003012B2A2F1200401EB3C
:10C81000001047F68C41C2F20021451F51F8230059
:10C82000082116F00DFD02462046294614F0CDF9E8
:10C830000DF2044DBDE8F08F4BF68020C2F20220CD
:10C84000006848B349F6944049F26C42C2F20120B4
:10C85000C2F20122016849F26840C2F201200029B7
:10C860004FF001010368136049F27C42C2F20122D9
:10C87000116049F27842C2F2012211D011A3136073
:10C8800049F274420023C2F20122136049F270425D
:10C89000C2F20122136013E00020222111F068BFD0
:10C8A00012A3136049F274424CF62513C2F201221E
:10C8B000C0F20023136049F27042C2F201221160FB
:10C8C00001607047796F752063616E277420656E13
:10C8D000642061206E657467616D65210A0A70725B
:10C8E0006573732061206B65792E0000617265208D
:10C8F000796F75207375726520796F752077616E19
:10C900007420746F20656E64207468652067616DA3
:10C91000653F0A0A70726573732079206F72206E0A
:10C920002E00000044F2FC51C2F20021096881424D
:10C9300018BF704742F6B85048F62C01C2F20120E9
:10C94000C2F2012100680988818249F26840C2F27E
:10C95000012000210160F9F7CFBB000080B544F24F
:10C96000D041C2F20021096858B351BB49F2684076
:10C9700049F26C42C2F20120C2F2012243F6636323
:10C9800049F2744C0168116049F27C410122C2F203
:10C990000121C0F20523C2F2012C02600A6049F2B3
:10C9A0007841C2F2012140F2B430C2F200200B60A3
:10C9B00049F27041C2F201210023CCF800300B6033
:10C9C00016E003280BDB012909D140F204030EA075
:10C9D000C2F200232D21012233F0C8FE002046F6CA
:10C9E0002C11C2F20121086040F28020C2F2002026
:10C9F00042F6B85148F62C03C2F20121C2F20123DB
:10CA0000828A08601A8080BD4D5F457069736F64CB
:10CA1000653A2034746820657069736F64652072AC
:10CA20006571756972657320556C74696D617465A3
:10CA3000444F4F4D0A0000002DE9F041884606465C
:10CA4000F3F735FD3518013830B115F8021C013DFA
:10CA500001382F29F8D100E03546082647462C46F4
:10CA60000020C8F80400C8F8000000BF207848B1D2
:10CA70002E2807D046B10134F3F7C1FC07F8010BAB
:10CA8000013EF3E7BDE8F08103A029464246BDE838
:10CA9000F04133F0BDB900BF5761726E696E673AFD
:10CAA000205472756E636174656420272573272096
:10CAB0006C756D70206E616D6520746F2027252E5A
:10CAC0003873272E0A00000080B5C6B0694622F0F0
:10CAD000ACFD00285FEA1F9046B080BDC06870477B
:10CAE00040F2F01142F6B850C2F2002148F62C0391
:10CAF000C2F20120C2F201238A8A01601A807047C3
:10CB000010B542F6A430C2F201200068017861B18C
:10CB10000AA1002201F076FC044600F09BF90AA06D
:10CB2000214633F075F9204610BD45F21F60C0F272
:10CB30000520BDE8104032F07EBC00BF7361766511
:10CB400067616D652F0000005573696E672025735E
:10CB500020666F72207361766567616D65730A0088
:10CB600010B542F6B85140F2F010C2F20121C2F203
:10CB7000002048F62C0249F26843C2F20122086004
:10CB8000818AC2F20123118046F65842C2F2042281
:10CB9000002119600A23118045F6B852C2F2022220
:10CBA000138047F66442C2F2002245F6A023C2F287
:10CBB00002231268033A1A6049F27C4249F2784330
:10CBC000C2F20122C2F20123116049F26C421960E3
:10CBD000C2F2012244F2D043C2F20023116044F2B7
:10CBE00060421968C2F2022202294FF0FF3111603F
:10CBF0001AD140F20821C2F2002101F1640E4C6FFB
:10CC00000C669EE80C500A6502884B65C1F858C056
:10CC1000013A028040F28022C1F85CE0418AC2F20F
:10CC2000002208314182506044F2D440C2F2002018
:10CC30000068052806D840F24000C2F200200188B2
:10CC40000139018005A0FFF703FA43F6805100285F
:10CC5000C2F202215FEADF90086010BD2D6F706C98
:10CC600064657600B0B529A00121FFF7F5F949F612
:10CC70000424C2F2012468B1216842F6B83501EB00
:10CC80008000C2F20025416822A0A96033F0C0F8FC
:10CC9000A96812E042F6A43042F67461C2F20120A3
:10CCA000C2F2012100220068096801F0ABFB42F6E4
:10CCB000B8320146C2F2002290601CA033F0A8F8FE
:10CCC00020A00121FFF7C8F968B1216843F674027A
:10CCD00001EB8000C2F2002241681EA09160BDE815
:10CCE000B04033F095B842F6A43042F67061C2F21B
:10CCF0000120C2F2012100220068096801F082FBD4
:10CD000043F67401C2F200218860B0BD2D636F6EDE
:10CD10006669670020202064656661756C74206612
:10CD2000696C653A2025730A00000000736176691A
:10CD30006E6720636F6E66696720696E2025730ACF
:10CD4000000000002D6578747261636F6E6669671C
:10CD50000000000020202020202020206578747210
:10CD60006120636F6E66696775726174696F6E20AA
:10CD700066696C653A2025730A00000049F6944004
:10CD8000C2F20120006810B349F2684049F26C41D8
:10CD9000C2F20120C2F2012115A302680A6049F221
:10CDA0007C410122C2F2012102600A6049F278410D
:10CDB000C2F201210B6049F27441C2F20121002349
:10CDC0000B6049F27041C2F201210B60704740F2E2
:10CDD000601142F6B850C2F2002148F62C03C2F2AC
:10CDE0000120C2F201238A8A01601A8000F000BB90
:10CDF000796F752063616E277420646F206C6F619A
:10CE000064207768696C6520696E2061206E6574A6
:10CE10002067616D65210A0A707265737320612055
:10CE20006B65792E0000000010B5C0B006F0CCF99B
:10CE30006C4601464FF48072204601F0D5F9204639
:10CE4000FCF720FB49F268400021C2F2012001609A
:10CE500040B010BD70B50446F3F729FB064601301B
:10CE600027F029FA214632460546F3F70AFB701EE1
:10CE7000295C2F2901D100212954284621F097FB54
:10CE80006FF00801084205D0034605A021462A4656
:10CE9000FDF784FF2846BDE8704023F0E9BD00BFE0
:10CEA0004D5F4D616B654469726563746F72793A69
:10CEB0002070617468203D20272573272C20706125
:10CEC00074685F6D6F64203D20272573272C2072C6
:10CED0006573203D2025690050B1012811D147F626
:10CEE0004421C2F2002108680E2811DC013006E05E
:10CEF00047F64421C2F20021086840B101380860B9
:10CF000006E047F64420C2F20020006800E000205E
:10CF1000C00011F08DBB49F69440C2F201200068B8
:10CF200060B342F68C60C2F20120006830BB49F267
:10CF3000684049F26C41C2F20120C2F2012149F27B
:10CF4000784349F27C4CC2F2012302680A6043F63E
:10CF50002161C0F20521196049F274410023C2F237
:10CF60000121C2F2012C012202600B6049F27041E2
:10CF7000C2F20121CCF800200B60704744F2D0408F
:10CF8000C2F20020006802280FD044F2D440C2F25E
:10CF900000200068092808D042F6B85040F240014D
:10CFA000C2F20120C2F2002107E042F6B85040F27E
:10CFB0008021C2F20120C2F2002148F62C038A8AA5
:10CFC000C2F2012301601A80704740F2FC2142F650
:10CFD000B850C2F2002148F62C03C2F20120C2F27E
:10CFE00001238A8A01601A80704780B50021FFF70B
:10CFF00033F800285FEA0F9080BD000010B549F6B5
:10D000009440C2F20120006820B14FF0000C24A42B
:10D0100000211FE044F26040C2F2022000680028B4
:10D020003AD400EB400044F6303146F6DC04C2F25C
:10D030000221C2F2022443F6E35201EBC003C0F224
:10D040000522502120462FF035FE4DF20D1C012106
:10D05000C0F2002C49F2684249F26C43C2F201224C
:10D06000C2F201231068186049F27C400123C2F229
:10D0700001201360036049F27840C2F2012004608D
:10D0800049F27440C2F20120C0F800C049F2704079
:10D09000C2F20120016010BD4FF0000C0DA4B7E7F3
:10D0A000796F752063616E277420717569636B6C8D
:10D0B0006F616420647572696E672061206E6574AB
:10D0C00067616D65210A0A70726573732061206B58
:10D0D00065792E00796F7520686176656E277420FA
:10D0E0007069636B6564206120717569636B73613E
:10D0F000766520736C6F7420796574210A0A7072EA
:10D100006573732061206B65792E000080B544F251
:10D11000FC51C2F200210968814218BF80BD44F26F
:10D120006040C2F202200068FFF77EFE0020182156
:10D13000BDE8804011F01CBB70B54BF68020C2F2F8
:10D140000220006830B147F6DC20C2F201200068FE
:10D1500030B170BD00202221BDE8704011F008BB45
:10D1600044F26044C2F202242068B0F1FF3F35DD92
:10D1700000EB400044F6303146F6DC04C2F20221F6
:10D18000C2F2022401EBC00326A2502120462FF058
:10D1900091FD49F2684049F26C42C2F20120C2F2AC
:10D1A000012249F278430168116049F27C41012271
:10D1B000C2F20121C2F2012302600A6049F2744105
:10D1C000C2F201211C604DF25D23C0F200230B600E
:10D1D00049F27041C2F201210A6070BD49F2684013
:10D1E00042F6B855C2F2012048F62C06C2F20125DB
:10D1F000C2F20126016841B940F2F0120121C2F2E7
:10D20000002201602A60908A308000F0F1F841F637
:10D21000C840C2F200202860818A6FF0010031808E
:10D22000206070BD717569636B73617665206F7680
:10D23000657220796F75722067616D65206E616D12
:10D2400065640A0A272573273F0A0A70726573739B
:10D250002079206F72206E2E00000000B0B544F2DD
:10D26000FC51C2F200210968814218BFB0BD44F2EE
:10D27000604544F63031C2F20225C2F202212C6828
:10D2800004EB440001EBC0012046FCF73DFB49F2F2
:10D2900068412868C2F2012102304FF000000860A6
:10D2A0004FF0000008BF2C601821BDE8B04011F01D
:10D2B0005FBA000010B547F6E02147F6D420C2F26D
:10D2C0000121C2F201206FF0040246F688040968C9
:10D2D0000068CB17104242F6783042F6983201EBE4
:10D2E0005373C2F20020C2F2002250EA028023F0FF
:10D2F0000702C2F20124891A15A250F82130A02198
:10D3000020462FF0D7FC49F2684049F26C42C2F245
:10D310000120C2F2012249F278430168116049F20A
:10D320007C410122C2F20121C2F2012302600A60A3
:10D3300049F27441C2F201211C604DF27133C0F216
:10D3400000230B6049F27041C2F201210A6010BD56
:10D3500025730A0A287072657373207920746F2010
:10D360007175697420746F20646F732E290000003A
:10D3700080B544F2FC51C2F200210968814218BF15
:10D3800080BD49F69440C2F201200068E8B944F239
:10D39000D04047F6E021C2F20020C2F2012147F658
:10D3A000D03247F6B03300680968C2F20022C2F2F8
:10D3B0000023022852EA038001F01C01415800209A
:10D3C00011F0D6F96920FEF7A1F8BDE88040FEF71C
:10D3D00053B844F28461C2F2022108680130C2B23B
:10D3E0004FF66830C0F204200A60805C704700008D
:10D3F0002DE9F047ADF54C7D40F2781744F6303515
:10D4000043F617790024C2F20027C2F202256E46C5
:10D410000DF5827A0DF58078C0F20529204605F0D9
:10D42000D3FE01464FF48072304600F0DDFE01224B
:10D430005046314621F042FD182228B1284649467F
:10D4400000F0D2FE002008E050462946434621F075
:10D45000CDFE504620F0B4FE012001341835062CD4
:10D4600027F8140BDAD10DF54C7DBDE8F08740F2BA
:10D47000B43142F6B850C2F2002148F62C03C2F291
:10D480000120C2F201238A8A01601A80704744F2A7
:10D49000D44040F2F012C2F20020C2F2002242F662
:10D4A000B85C0068C2F2012C042844F2D040C2F2F9
:10D4B00000205FEA1F91006802285FEA0F90084091
:10D4C00040F2CC31C2F2002151EA1283143200281A
:10D4D00018BF01F1140248F62C01CCF80030C2F25A
:10D4E00001211088088070472DE9F04381B046F68D
:10D4F0002C110546C2F2022100680968C1B1042856
:10D5000012D0002840F0178244F2F450C2F20020FA
:10D5100001686868884207D044F23461C2F2002191
:10D520000968884240F00782FDF7A6FF012403E264
:10D53000032825D0042837D149F26840C2F20120DF
:10D540000068002800F0708449F27C40C2F201209B
:10D550000068002800F0688449F274404DF271318F
:10D56000C2F20120C0F200210068884240F05C84D1
:10D5700044F2FC50C2F200200068FFF7F9FED5E744
:10D580004EF67866C2F200263468FDF77AFE8442D1
:10D5900009DAE868002833D4002850D044F2086043
:10D5A000C2F2002030E02868022823D14EF68468B9
:10D5B000C2F20028D8F80040FDF763FE844218DA72
:10D5C0004EF680694EF68C66C2F20029C2F2002641
:10D5D000E968D9F800003268A0F11E0311443160F7
:10D5E000994217DA44F208606FF01D07C2F200207A
:10D5F00018E02868002840F09E81D5E90140AAE0A3
:10D6000044F24060C2F200200468FDF73AFE0530A3
:10D61000306016E01E30814253DD44F240601E2728
:10D62000C2F200200468FDF72CFED9F80010053086
:10D63000C8F80000C819C9F80000306043E04FF096
:10D64000FF34A868002805D40DD044F23860C2F237
:10D65000002003E044F22060C2F200200468FDF7DD
:10D6600010FE023030606868C10709D044F21060D3
:10D67000C2F200200468FDF704FE053030606868DF
:10D68000800708D544F2F850C2F200200468FDF784
:10D69000F8FD0530306044F25C50C2F200200068B2
:10D6A000002857D4696821FA00F0C00752D044F22C
:10D6B000F450C2F200200468FDF7E3FD053030604D
:10D6C00048E04FF0FF344EF67C694EF68867C2F2B0
:10D6D0000029C2F20027A968D9F800003A68A0F131
:10D6E0001E0311443960994206DA44F220606FF05B
:10D6F0001D06C2F2002007E01E30814210DD44F218
:10D7000038601E26C2F200200468FDF7BAFDD9F881
:10D7100000100530C8F800008819C9F8000038600A
:10D720006868C1070AD044F21060C2F200200468A1
:10D73000FDF7A7FD0F30C8F800006868800709D51D
:10D7400044F2F850C2F200200468FDF79AFD0F3051
:10D75000C8F800000020611C00F0ED8044F6D402FF
:10D76000C2F20222116801B30D2C4BD01B2C72D0D7
:10D770007F2C40F0878044F6B400C2F2022001689A
:10D780000129FFF6D3AE44F6D00244F63033C2F29C
:10D790000222C2F20223013901601268002002EB6A
:10D7A000420203EBC2025054C0E649F27C41C2F28D
:10D7B00001210A68002A00F0968049F27040C2F206
:10D7C0000120006820B11B2C18BF202C40F0A38042
:10D7D00049F2744249F26C40C2F2012249F26845B2
:10D7E000C2F20120C2F201251268002600682860FA
:10D7F0000E600AB1204690472E600020182110F0DC
:10D80000B7FF93E644F6D00044F63033C2F202206C
:10D81000C2F2022300251560046804F1310704EB0D
:10D8200044003A0603EBC00103F830704D703FF43A
:10D830007DAE2046FCF768F844F2604049F2684249
:10D84000C2F20220C2F201220168156002317FF4A7
:10D850006DAE04606AE644F6D00044F63033C2F29E
:10D8600002200021C2F202231160006844F6B801D0
:10D87000C2F20221182200EB400003EBC00000F0CE
:10D88000B3FC53E64EF6A021C2F20021096800293C
:10D8900050EA0480F2F7B3FD0446603810F1400FFF
:10D8A000FFF444AE44F6B407C2F202273E68162ED7
:10D8B0003FF73CAE44F6D00044F63031C2F20220CD
:10D8C000C2F20221006800EB400001EBC0052846CF
:10D8D00000F0F6FDAF283FF729AE701C3860AC555C
:10D8E0000021295422E642F6AC6144F21862C2F2E9
:10D8F0000121C2F200220968126809B1944207D0DE
:10D90000F4B149F2B011C2F2012109688C4217D179
:10D91000FCF70EF80AE644F2FC50C2F20020006860
:10D9200084423FF455AF44F2F050C2F20020006848
:10D9300084423FF44DAF0024204601B0BDE8F0839F
:10D9400049F26841C2F201210B6863B344F20862F4
:10D95000C2F20022126894423ED148F62C0642F6EA
:10D96000B857C2F20126C2F201274FF6FF78002510
:10D97000318838680124B0F900000AB201389042B9
:10D9800055EAD19030800020132110F0F1FEB6F955
:10D9900000103868826801EB810389B232F82320D5
:10D9A0004245E8D0C8E744F20060C2F200200068B7
:10D9B00084423AD141F63C104FF23071C2F201205C
:10D9C000C2F20021006809680843B4D1002000F0C9
:10D9D00087FB0020162112E744F24062C2F20022C7
:10D9E000126894423CD148F62C0542F6B857C2F270
:10D9F00001254FF6FF76C2F2012701242888010491
:10DA000001D138680088013828800020132110F0E7
:10DA1000AFFEB5F900003968896800EB800280B27A
:10DA200031F82210B142EAD086E744F21C60C2F21B
:10DA300000200068844243D141F63C104FF230711F
:10DA4000C2F20120C2F200210068096808437FF495
:10DA500072AF0120012400F043FB0020162150E0AA
:10DA600044F22062C2F20022126894424CD148F67D
:10DA70002C0442F6B855C2F20124C2F20125B4F9D1
:10DA800000002968896800EB800001EB8002D26801
:10DA9000002A3FF44BAD31F8200002287FF446AD58
:10DAA0000020162110F064FEB4F90000296889688E
:10DAB00000EB800001EB8000C1680020884735E55D
:10DAC000944252D144F2D0400124C2F200200C60B2
:10DAD00040F2CC3140F2B4320068C2F20021C2F20E
:10DAE0000022032851EA028042F6B851C2F2012115
:10DAF000086048F62C000021C2F2012001800020BD
:10DB0000172110F035FE17E744F23862C2F2002206
:10DB10001268944248D148F62C0442F6B855C2F235
:10DB20000124C2F20125B4F900002968896800EBDC
:10DB3000800001EB8002D268002A3FF4F7AC31F894
:10DB4000200002287FF4F2AC0020162110F010FE15
:10DB5000B4F9000029680124896800EB800001EB1A
:10DB60008000C16801208847E6E644F23C60C2F2CA
:10DB700000200068844240D142F6B85040F2F012D2
:10DB8000C2F20120C2F2002201240C600260908ADD
:10DB900048F62C021721C2F201221080002010F05A
:10DBA000E7FD00F099F9C7E644F21062C2F20022E4
:10DBB0001268944240D148F62C0042F6B851C2F2A5
:10DBC0000120C2F20121B0F900000A68976800EB59
:10DBD000800307EB8301C96800293FF4A7AC37F83D
:10DBE0002330002B3FF4A2AC022B83B2938240F08F
:10DBF0009D800120012488472FE744F22460C2F26F
:10DC00000020006884422CD142F6B85040F2F01255
:10DC1000C2F20120C2F2002201240C600260908A4C
:10DC200048F62C021721C2F201221080002010F0C9
:10DC30009FFDFFF7A3F87FE644F2F452C2F2002200
:10DC40001268944220D142F6B85048F62C02C2F233
:10DC50000120C2F20122006812888282002008603E
:10DC6000CBE544F24460C2F200200068844225D132
:10DC700042F6B8500124C2F201200C6041F658511E
:10DC8000C2F20021016034E744F2F851C2F20021EF
:10DC900009688C421ED142F6B85048F62C01C2F2F7
:10DCA0000120C2F2012103680F885A689F82002A6E
:10DCB0003FF43CAC938A02600B8008E044F20460BD
:10DCC000C2F200200068844235D1FEF74DF90020F1
:10DCD000172194E568B9A4F1BA010C2906D80122EC
:10DCE00041F6010302FA01F1194202D1FF2C7FF43F
:10DCF00022AE48F62C0142F6B852C2F20121C2F21D
:10DD000001222426B1F900501368B3F9007005EB25
:10DD1000850206EB82062A460132BA421ADA9C686C
:10DD2000A45D1436A042F7D10A8064E08847002041
:10DD300001210124E5E644F23060C2F200200068CF
:10DD4000844218D10020172110F012FDFFF7F4F9DA
:10DD5000FFF7ECBB002D3FF5EEAD9B686A1C03F1AD
:10DD60001007002300243E78B04243D0013314371B
:10DD70009A42F8D1E0E544F20C60C2F2002000685B
:10DD8000844207D10020172110F0F2FCFEF754FD69
:10DD9000FFF7CCBB44F22860C2F200200068844246
:10DDA0002CD142F6A85047F67C41C2F20120C2F2C3
:10DDB000002143F69477012400680A68C2F2022722
:10DDC000C2F1010300EBC0000B6043F6D76143F6DC
:10DDD000F66307EB4010C0F20521C0F20523012ACB
:10DDE00051EA0381C0F8E01049F28440C2F20120F8
:10DDF000046084E60B800020132100E544F22C60CF
:10DE0000C2F200200068844207D10020172110F0E0
:10DE1000AFFCFFF7F3F8FFF789BB44F23460C2F2BE
:10DE200000200068844207D10020172110F0A0FCD8
:10DE3000FFF740FAFFF77ABB44F21460C2F2002009
:10DE40000068844227D142F6A8514BF67420C2F2F2
:10DE50000121C2F2022043F6947700230968026888
:10DE6000032A53EAC29201EBC101C2F2022744F233
:10DE7000D843026007EB41111A27C2F2002302FBCC
:10DE80000733C1F8E03011A0082115F0D9F9FDF7EA
:10DE90000DFBFFF74BBB44F2F450C2F200200068C8
:10DEA00084427FF448AD42F6B85040F2F012C2F21C
:10DEB0000120C2F2002201240C600260908A48F620
:10DEC0002C02C2F20122108019E600BF504C4159C9
:10DED00050414C00704700004BF68020C2F20220F7
:10DEE000006830B147F6DC20C2F20120006818B3A8
:10DEF000704749F2684049F26C41C2F20120C2F217
:10DF0000012116A302680A6049F27C410122C2F293
:10DF1000012102600A6049F27841C2F201210B60DE
:10DF200049F27441C2F2012100230B6049F27041B1
:10DF3000C2F201210B60704741F6C84142F6B85069
:10DF4000C2F2002148F62C03C2F20120C2F20123E2
:10DF50008A8A01601A80FFF74BBA00BF796F75207B
:10DF600063616E2774207361766520696620796F1E
:10DF700075206172656E277420706C6179696E67B7
:10DF8000210A0A70726573732061206B65792E0017
:10DF9000B0B5044644F6D400C2F20220012144F692
:10DFA0003032016004EB440044F6D001C2F2022298
:10DFB000C2F2022102EBC00544F6B80018220C6040
:10DFC000C2F20220294600F00FF943F617712846E5
:10DFD000C0F20521F2F772FA20B904F1310028707D
:10DFE000002068702846F2F762FA44F6B401C2F2E3
:10DFF00002210860B0BD000010B582B0014690B9A2
:10E0000011A0002000BF50B141F2AD6110A2C0F2DA
:10E010000521002300930B4600F0F4F902E00FA065
:10E0200031F009FA014642F6A434C2F2012421601B
:10E03000087818B10BA031F0EBFE2168084602B059
:10E04000BDE81040FEF706BF484F4D4500000000F8
:10E050002E646F6F6D2E7461720000002F646F6FFD
:10E060006D2F00005573696E6720257320666F72EF
:10E0700020636F6E66696775726174696F6E206187
:10E080006E642073617665730A00000042F6746264
:10E0900042F67063C2F20122C2F2012310601960DD
:10E0A000704750B1012811D147F67841C2F20021E2
:10E0B00008680E2811DC013006E047F67841C2F20C
:10E0C0000021086840B10138086006E047F6784052
:10E0D000C2F20020006800E00020C00010F0C8BAC2
:10E0E00047F664410128C2F200210BD0D0B945F6B1
:10E0F000A020C2F202200068012813DB0A68013860
:10E10000013A09E045F6A020C2F202200068072883
:10E1100008DC0A68013001320A6045F6A022C2F22A
:10E120000222106042F69C620868C2F20122116865
:10E130000DF007BE41F6585142F6B850C2F2002128
:10E1400048F62C03C2F20120C2F201238A8A016040
:10E150001A80704749F26840C2F20120016801B19B
:10E1600070470121016040F2F01142F6B850C2F24E
:10E17000002148F62C03C2F20120C2F201238A8A50
:10E1800001601A8070470000B0B50C460FA122460E
:10E190000546F2F7DBF901280DD00EA128462246EC
:10E1A000F2F7D4F9012806D00CA128462246F2F74E
:10E1B000CDF9012801D10120B0BD0AA1284622468F
:10E1C000F2F7C4F901285FEA1F90B0BD203078252E
:10E1D0007800000020305825780000002030256F9E
:10E1E0000000000020256400B0B50C462AB1013AB9
:10E1F000002181542146F2F744F9F2F758F9054617
:10E200002046F2F754F985425FEA1F90B0BD70B521
:10E210000C460546F2F74BF906462046F2F747F959
:10E22000864201D2002070BDA919081A2146F2F7D2
:10E2300045F900285FEA1F9070BD00002DE9F04FFE
:10E2400081B02DED088B8AB047F68C410546C2F2AD
:10E2500001210968B1F90240F2F729F9002800F01C
:10E26000CA8000F10F01A0EE104B21F00F01012236
:10E27000103980EF5A2E80EF504E02EB111187FFBC
:10E280005F6E41F001E000BF00F001E831FE4D8F0C
:10E29000B5EC109E09FE020F24EF548171FE4D0F64
:10E2A00026EF5681D8EE102B0995D9EE308BD9EE9A
:10E2B000509B0892D8EE302BD9EE70ABF9EE107B64
:10E2C0000792D8EE502BF9EE305BF9EE506B0692C8
:10E2D000D8EE702BA446F9EE704BD9EE101B0592C8
:10E2E000F8EE102BF8EE303B0AEE301B0AEE708B86
:10E2F0002AEE309B2AEE70AB0BEE307B0BEE705BA0
:10E300002BEE306B2BEE704B0392F8EE502BF8EEA9
:10E31000701B24EF54815BFECF0F26EF5681B9EEC0
:10E32000304B089D98EE30BB0AEE305B049499EEBA
:10E33000304B079DB8EE70AB98EE708B0AEE705BB9
:10E34000069D0294B9EE704B2AEE305B059D1038A5
:10E35000019499EE704B2AEE705B039D0094B8EE29
:10E36000304B0BEE305B0BEE703B2BEE302B2BEE7D
:10E37000701B24EF54815BFECF0F26EF568198EE81
:10E38000307BB8EE306B99EE302BB8EE705B14EC4E
:10E390000BAF98EE704BB9EE301B1AEC18AFB9EE1C
:10E3A000703B99EE709B16EC078F15EC148F6BFE8B
:10E3B000CF0FF9FE004F29FECF0F11EC028F029A0A
:10E3C00013EC198F71FE4D0FF9FE204F049929FEB1
:10E3D000CF0F11EC028FDDE9002171FE4D0FF9FE28
:10E3E000204F11EC128F69FECF0FF9FE204F099DCF
:10E3F00064440FF0B7C820460AB0BDEC088B01B0EA
:10E40000BDE8F08F83B0F0B582B0054607A8071DC0
:10E410002846CDE907120993F2F749F80197441C01
:10E42000079961B13E4600BF0846F2F740F8321D39
:10E43000019231680444164609B12FF00BC82046FA
:10E4400025F039FF0646C8B1304629462246FFF777
:10E45000CBFE0197079DA5B13046F2F728F8A04200
:10E4600050EA34817018621A2946FFF7BDFE381D44
:10E4700001903D68074625B12FF013C004A0FCF7BA
:10E480008DFC304602B0BDE8F04003B0704700BFDD
:10E490004D5F537472696E674A6F696E3A204661C8
:10E4A000696C656420746F20616C6C6F6361746566
:10E4B000206E657720737472696E672E000000000D
:10E4C000F0B581B00446F1F7F2FFD8B147F68C47BA
:10E4D00006460025C2F201272078F1F790FFA0F14F
:10E4E000600111F13F0F01D2042005E007EB80002D
:10E4F00050F8840CB0F90000013E054404F1010419
:10E50000EAD100E00025284601B0F0BD45F6B8503C
:10E51000C2F202200188013901800AB2002A00DD1E
:10E52000704746F65841C2F204210A8882F001027F
:10E530000A8008210180704780B544F2FC51C2F284
:10E5400000210968814218BF80BD46F62C100122C7
:10E55000C2F201200068411C0420FAF7E5F949F2F3
:10E5600068400021C2F20120016080BD70B5ADF5A8
:10E570000C7D054614460E4601A80A22294620F0C5
:10E580009DFC08B10CA007E001A86B46314622466D
:10E5900021F0CAF938B111A0294631F039FC002028
:10E5A0000DF50C7D70BD01A81FF00AFE0098A04279
:10E5B0005FEA1F90F4E700BF4D5F577269746546CC
:10E5C000696C653A2063616E6E6F74206372656179
:10E5D00074652066696C652025730A004D5F57726B
:10E5E00069746546696C653A20636F756C64206E6A
:10E5F0006F7420777269746520746F2066696C652A
:10E600002025730A000000002DE9F04381B047F691
:10E610008C4914460D468046C2F201290134464613
:10E6200014F8010CF0B10A281AD0F1F7E8FEA0F1B5
:10E63000600111F1400F01D804360EE009EB8000B3
:10E6400050F8842CB2F900003718B7F5A07F09DC28
:10E650003046294612F0B9FA3E460134E0E700BFE1
:10E660000C35DBE701B0BDE8F08381B0B0B581B017
:10E670000446059305A8009061B1009B20460D4615
:10E6800031F0E2FB002801D4A84204D3681E002127
:10E69000215400E0002001B0BDE8B04001B0704757
:10E6A000B0B561B10C46054631F0CEFB002802D46E
:10E6B000A04238BFB0BD601E00212954B0BD00206B
:10E6C000B0BD0000F0B581B04CF2001547F2203724
:10E6D000C4F200050024C2F201272888298C0840D2
:10E6E00086B200BF26FA04F0C00703D0396809B12A
:10E6F0002046884701340437102CF3D12E8200BF06
:10E70000288C3042FCD101B0F0BD0000B0B545F618
:10E71000B050C2F20220006800B1B0BDFCF7C7FDE6
:10E7200049F62C5149F69842C2F20121C2F2012267
:10E7300045F6B45509681278CB17C2F20225002AB3
:10E740004BF6681201EB1341C2F2022208BF00EB44
:10E750002140232149F21C23484344F6D351C1F2FE
:10E760006201C2F2012350FB01F0811101EBD07074
:10E77000116890FBF1F2186829681A60101A0A1AD9
:10E78000D8BF00222A60C8DC441A012CC5DB012551
:10E79000F5F7CDFC0028C0D0AC4205F10105F7DC4F
:10E7A000BBE770B584B04BF6D8166FF48012C2F296
:10E7B00002266FF400130446B1681144994214D341
:10E7C000F068B0F5801F10DC10F5801F0DDBD6E976
:10E7D0000001224604F091FA054696E80F00104425
:10E7E0001944224604F089FA10E021684BF6D81645
:10E7F000C2F20226D1E90001324604F04CFA616807
:10E8000005463246D1E9000104F045FA854237D089
:10E810002068D4E90212CDE90212D0E90030CDE936
:10E8200000304BF6D8106946C2F2022003F075F8AA
:10E83000002825D446F68401C2F20121096829B1D5
:10E840000021B1EB104F01D1616BE9B147F644767D
:10E8500047F64872C2F20126C2F201220125316850
:10E860000860881A4AF6AB228010CAF6AA22C1E9CB
:10E8700001545043FCF70CFF30680C30306000E06E
:10E880000125284604B070BD0025FAE72DE9F047C0
:10E8900084B04BF6D81A8046C2F2022ADAE9021294
:10E8A00082EA0100D8F80C10D8F84020002852EA7B
:10E8B000C2B3A1EB020552EAD2B05418D8F8101036
:10E8C0005246CF1801EB00092846394604F0E3F917
:10E8D000064620464946524604F0DDF9864228D0D5
:10E8E000601B0290A9EB070003904BF6D810694615
:10E8F000C2F20220CDE9005703F00FF8002818D427
:10E9000047F6447447F64872C2F20124C2F201226B
:10E9100021680860881A4AF6AB228010CAF6AA223B
:10E9200050430022C1E90128FCF7B2FE20680C30F8
:10E930002060012004B0BDE8F087B0B5044605F0C2
:10E9400041FD08B10120B0BDE06E00283CDDA06EA5
:10E95000810346D44007F5D542F6B05049F6B041A0
:10E96000C2F20120C2F20121006800284FF001002C
:10E970000860E7D049F23420C2F201200078800715
:10E98000E0D1002100220A23204602F061F9606CE8
:10E9900004F10C0300EBD0720BCB03EB62022623D5
:10E9A00005F06BF9044604F023FA054604F020FA5A
:10E9B000281A0003A06404F01BFA054604F018FAB4
:10E9C000281A0003E064BDE740F27F31204604F0DE
:10E9D00035FCA06E20F00200A0660020C4E9100003
:10E9E000B0E7204604F014FBACE710B504464BF644
:10E9F0007810C2F20220616AC2688A4214DDA16AFC
:10EA000082688A4210DA216A02688A420CDDE16972
:10EA10004068884208DA4BF678102146C2F202209C
:10EA200001F0FAF9013001D0012010BD606B88B10E
:10EA30004BF69810C2F20220006890F86A10C907DD
:10EA40000AD1218ACA0705D1D0F8840020B911F073
:10EA5000020001D0002010BD204603F0ADF84BF6B7
:10EA6000881043F67C51C2F20220C2F202210268F1
:10EA70000968914205DA41F61C120160C2F20122D6
:10EA800014604BF6941049F67451C2F20220C2F29F
:10EA90000121026809689142C8BF01604BF68C10E1
:10EAA00049F27431C2F20220C2F2012102680968FF
:10EAB0009142B8BF0160608A0028B5D049F6105075
:10EAC00046F20422C2F20120C2F2022201680829A1
:10EAD00042F8214001F101010160A5DB20460FF061
:10EAE000F7FFA1E7F0B581B00446806E420762D01F
:10EAF0004BF698174BF69C15C2F20227C2F202257C
:10EB0000E368266C39682D685D1B0B6C334448BF85
:10EB10006D429D424FDA4BF6A4162569C2F20226D9
:10EB20003668AD1B48BF6D429D424FF0010543DA88
:10EB3000A14241D08B6EDE0113D4DB0331D4C20776
:10EB400000F0020509D04BF69010C2F20220407886
:10EB5000000702D5204605F0C9FC002D5FEA1F958D
:10EB60002AE004F045F9C217396800EB5272CB6D08
:10EB700022F00702801ADA6C013002FB00F3204613
:10EB80000A4602F065F838680025C26D816E21F0F2
:10EB9000807181665168C0E91255056504F04EFB2D
:10EBA0000AE063694D69666C1E44B54203DC4E6C35
:10EBB0002E449E4203DA0125284601B0F0BD896F3C
:10EBC00071B1A36D8D6D9D4207D0112D08BF0F2B24
:10EBD00003D00F2D08BF112B02D1A142EBD0B3B946
:10EBE000002A02D410F0020FB8E704F001F9C217AE
:10EBF000396800EB5272CB6D22F00702801ADA6C92
:10EC0000013002FB00F38A6F204602F021F8002554
:10EC1000D2E7F0B581B0044690F86800400704D50B
:10EC2000A06D132818BF152802D1012001B0F0BD36
:10EC30004FF60C05E268C2F2002523694FF6040680
:10EC40002968C2F20026C868101A0A6948BF404203
:10EC50009B1A226C48BF5B42984250EA838033681B
:10EC6000801A021422EAE0779F42DEDA204601F0A1
:10EC700071FC0028D9D04FF608003368C2F200209A
:10EC80002968DB1B0268204601F0E2FFCDE710B5E2
:10EC900090F86810490735D54BF698114BF69C1C37
:10ECA000C2F20221C2F2022CD0F80CE0046C096816
:10ECB000DCF80030BEEB03030A6C224448BF5B4221
:10ECC00093421FDA4BF6A4130469C2F202231B68B5
:10ECD000E31A48BF5B4293424FF0010213DA8142CC
:10ECE00011D0D1F8842042B947F6D022C2F20122D5
:10ECF00012681E2A01D0002205E042F210730A4673
:10ED000001F0A6FF0122104610BD10B590F86A1060
:10ED1000C90602D5016E013101D0012010BDC16DBF
:10ED20008A6D002AF9D044F6DC0C4FF6C822C2F2F4
:10ED3000002CC2F20222D1F840E0C1681268DCF86F
:10ED400054318A1A9E4448BF52427245E5DC4FF660
:10ED5000CC2C0269C2F2022CDCF80030B2EB030CBE
:10ED600048BFCCF1000CF445D7DC42F6AC5400238C
:10ED7000C2F20124C0E91233436C20609B0043645B
:10ED800001F018FB216800285FEA1F904A6C92107E
:10ED90004A6410BD2DE9F04381B005464068002863
:10EDA000AC6846D0208A400740F1A780204602F098
:10EDB00003FF43F67C5749F67456C2F20227C2F2AB
:10EDC000012638683168814280F297804FF22C70BA
:10EDD0002968C2F200200068F8F78AFF616B45F6E7
:10EDE0006C594FF614080546C2F20229C2F20028F7
:10EDF00021B1206B0968006888420CD03068D9F8CE
:10EE00000010401A2946F8F759FFD8F80010884238
:10EE1000C8BFC8F80000606B002842D0216B406872
:10EE2000496881423DD14BF6B010C2F20220016820
:10EE300047E045F66850C2F20220006884422ED0B6
:10EE400094F8680040072AD54FF22C702968C2F266
:10EE500000200068F8F74CFF45F66C576169C2F274
:10EE60000227626C114406463A68881A3146F8F760
:10EE700025FF4FF61408C2F20028D8F80010884287
:10EE80000DDB054660693968401A3146F8F716FF10
:10EE90004BF6B011C2F202210968884217DD012049
:10EEA0002CE03868D9F80010401A2946F8F706FF18
:10EEB0004BF6B012C2F202221168884201DA014612
:10EEC0001060D8F8000081425FEADF9016E0D8F8C1
:10EED00000208D4255EAB181904250EAC280084438
:10EEE0004FF26841C2F2002100EBD0704010086080
:10EEF00049F24430C2F201200460002001B0BDE8B4
:10EF0000F0832DE9F04F81B0054640680028AC68D9
:10EF10005BD0608A38B145F668502146C2F20220C3
:10EF2000006804F0ACFB208A4FF22C79C2F2002971
:10EF3000400700F1C280D9F800104FF480202D68FE
:10EF4000F8F7BCFE2F1A4BF6D815C2F20225394647
:10EF5000A868D5F800A0F8F7CBFE8046E8683946E7
:10EF6000D5F804B0F8F7C4FE064645F66C50C2F278
:10EF700002204946D0F800904FF26840C2F20020CB
:10EF8000096805683846F8F7B3FE01462846F8F7E1
:10EF9000AFFE236B45F6BC57C2F2022759893F6882
:10EFA0000AB2974200EB090207D1586882420ADC94
:10EFB000606B10B14089814205D008EB0A0006EB76
:10EFC0000B0104F0A0FF0020DEE045F66857C2F216
:10EFD00002273868844200F0D68094F86800400721
:10EFE00040F1D1804FF22C792968C2F20029D9F87A
:10EFF0000000F8F77DFE45F66C5A6169C2F2022AFC
:10F00000626C11440646DAF80020881A3146F8F797
:10F0100055FE4FF26848C2F20028D8F80010884226
:10F02000C0F2B1806069DAF80010401A3146F8F792
:10F0300045FED8F80010884200F3A580D9F80010EA
:10F040004FF420202E68F8F739FE4BF6D819361AFF
:10F05000C2F202293146D9F80800D9F800B0F8F711
:10F0600047FE58440090D9F80C003146D9F804B056
:10F07000F8F73EFE00EB0B094FF22C70C2F20020B5
:10F08000DAF800B0D8F800A001683046F8F730FE92
:10F0900001465046F8F72CFEA96849F2082500EB16
:10F0A0000B02C2F2012591F86A1009076FD42B6890
:10F0B0000098494604F0C3FB6DE0204602F07CFD59
:10F0C000D9F800002968F8F713FE616B0646A1B372
:10F0D000206B0A680368934217D049F6745045F6CE
:10F0E0006C51C2F20120C2F2022100680968401A84
:10F0F0003146F8F7E3FD4FF26841C2F2002109689A
:10F1000088423FF718AFD4E90C014968406888424B
:10F1100039D043F67C5045F66C51C2F20220C2F25F
:10F12000022100680968401A3146F8F7C7FD4FF21E
:10F130006841C2F20021096822E049F6745045F6A0
:10F140006C58C2F20120C2F202280068D8F8001000
:10F15000401A3146F8F7B2FD4FF26847C2F2002775
:10F16000396888423FF7E7AE43F67C50D8F8001084
:10F17000C2F202200068401A3146F8F79FFD396854
:10F180008842FFF6D8AE012001B0BDE8F08F0098AC
:10F19000494604F0B8FE2B68002B3FF414AF3968E1
:10F1A00020460A4601F054FD0DE70000B0B50446C4
:10F1B000406810B928A0FBF7F1FDA568288A400730
:10F1C0000CD445F6C8502A46C2F202200168D1E9A3
:10F1D000030103F092FD18B30120B0BD284602F0F0
:10F1E000EBFC45F6C85043F67852C2F20220C2F258
:10F1F000022201681268486C824211DB43F67C529D
:10F200004969C2F202221268521A824208DB49F6A8
:10F210007450C2F201200068401AB0F5C01FDBDD57
:10F220004FF258702268C2F2002001688A4211DA57
:10F2300045F63052C2F2022211604FF25C7145F67F
:10F240003452C2F20021C2F202220B680D60136038
:10F25000226802600020B0BD5054525F536C696454
:10F260006554726176657273653A206E6F742061C1
:10F27000206C696E653F0000B0B582680446508A14
:10F2800088B14BF68425C2F202252968D1E9030131
:10F2900003F033FD01285FEA1F922868A16806F099
:10F2A0003FFB0020B0BD104602F086FC43F67850CC
:10F2B000C2F202200068002801DD0120B0BD4BF63B
:10F2C00084205121C2F2022000680FF051FAE8E7D1
:10F2D00080B54FF01E0E4FF2EC314FF20B2CC2F204
:10F2E0000021C0F2012C00BF0B684BB11A6B8242A7
:10F2F00006D15A6A032A03D19A6A5A62C3F808C02F
:10F3000004310FF00FC880BD10B54FF01E0E4FF244
:10F3100074314EF6D97CC2F20021C0F2012C00BF3C
:10F320000B685BB1B0F914209C6A944206D15A6A0A
:10F3300022B9DA6A5A62C3F808C000BF04310FF07C
:10F3400011C810BD4FF274321E21C2F2002200BF5C
:10F35000136823B1013902F10402F9D1704710603A
:10F36000704700004FF2EC321E21C2F2002200BFB3
:10F3700013684BB1013902F10402F9D146F2BD0024
:10F38000C0F20520FBF70ABD1060704746F65C111D
:10F39000C2F202210A685060C0E90021086070478B
:10F3A0002DE9F04182B090460D4604F033FF44F25F
:10F3B000A8310246C2F2002145F66850C2F202208E
:10F3C000EB0C096802F10C06576C026051F82340FF
:10F3D00040F6004C43CE06EB670745F66C56C2F28A
:10F3E000022607F500274FEA2845C0F2042C3760B3
:10F3F0004BF6B017C2F202274FF4204604FB050279
:10F4000049F244343E604FF61407C2F2002746F238
:10F410000006CFF6FF765CF823303E604FF22C7783
:10F42000C2F20027C2F2012403FB05130326C7F82A
:10F430000080002727604EF69557C0F20027CDE9DF
:10F44000006703F009FA4FF268402168C2F2002019
:10F450000029006850EA118002B0BDE8F081002860
:10F4600000D54042002900D54942884250EA318205
:10F470000844A0EB520070472DE9F04F85B043F6E9
:10F48000947046F6B759C2F20220002500F1340804
:10F4900000F14C0600F1680700F1800B00F1A401B7
:10F4A00000F1B402CBF2DB6943F68470C2F20220B1
:10F4B00050F82500002800F0048144F6D800CDE97A
:10F4C0000321C2F202204069404210F0030404D03C
:10F4D00000202EF09BFF013CFAD105EBC50043F65E
:10F4E00094724101C2F2022202EB401A0095505878
:10F4F0002EF07AFFDAF804002EF076FF9AF8080072
:10F500002EF084FF9AF809002EF080FFBAF80A4026
:10F51000E0B22EF07BFF200A2EF078FF9AF80E0062
:10F520002EF074FF00202EF071FF9AF80C002EF0E0
:10F530006DFF9AF80D002EF069FFDAF818002EF032
:10F5400053FFDAF81C002EF04FFFDAF820002EF0FF
:10F550004BFFDAF824002EF047FFDAF828002EF0EF
:10F5600043FFDAF82C002EF03FFFDAF830002EF0DF
:10F570003BFF0624CDF8088058F8040B2EF034FF2A
:10F58000013CF9D10624354655F8040B2EF02CFF2A
:10F59000013CF9D1DAF864002EF026FF04243D4640
:10F5A00055F8040B2EF020FF013CF9D1DAF8780071
:10F5B0002EF01AFFDAF87C002EF016FF09245D46C3
:10F5C00055F8040B2EF010FF013CF9D10424049DE2
:10F5D00055F8040B2EF008FF013CF9D10424039DDB
:10F5E000CDF804B055F8040B2EF0FEFE013CF9D125
:10F5F000DAF8C4002EF0F8FEDAF8C8002EF0F4FEB7
:10F60000DAF8CC002EF0F0FEDAF8D0002EF0ECFEA6
:10F61000DAF8D4002EF0E8FEDAF8D8002EF0E4FE96
:10F62000DAF8DC002EF0E0FEDAF8E0002EF0DCFE86
:10F63000DAF8E4002EF0D8FEDAF8E8002EF0D4FE76
:10F64000DAF8EC002EF0D0FEDAF8F0002EF0CCFE66
:10F65000DAF8F4002EF0C8FEDAF8F8002EF0C4FE56
:10F6600047F6CC6500204FF0010BC2F2002500BF29
:10F670000AEB0014D4F8FC00411B00284FEAA1015A
:10F6800018BF01FB09F02EF0AFFED4F800012EF0F8
:10F69000ABFED4F804012EF0A7FED4F808012EF03A
:10F6A000A3FE5FEACB704FF001004FF0000BDFD1FB
:10F6B000DAF81C012EF098FE0499DDE90282DDE9FA
:10F6C000005B013508F5907806F5907607F59077A0
:10F6D0000BF5907B042D01F5907102F590727FF48B
:10F6E000E3AE05B0BDE8F08F2DE9F04F81B046F6EE
:10F6F0005C19C2F20229D9F804404C4500F072812D
:10F700004FF2743544F6D8084EF6D97B4FF21D3AC5
:10F7100045F64057C2F20025C2F20228C0F2012B82
:10F72000C0F2012AC2F20227A06800284CD0584536
:10F7300054D050457BD04FF2CD01C0F20121884218
:10F7400000F0A2804FF20B21C0F20121884200F0AC
:10F75000D0804EF69B71C0F20121884200F00281F8
:10F760004FF2F121C0F20121884200F00B814EF6E8
:10F770004D71C0F20121884240F0308106202EF008
:10F7800045FED8F81400404210F0030605D000BF33
:10F7900000202EF03BFE013EFAD120462EF09DFEC9
:10F7A000E0683968401A48F6A331C010CBF62E2124
:10F7B00048432EF019FE20692EF016FE60692EF0E7
:10F7C00013FEA06908E100BF1E2029460A68A24274
:10F7D00017D0013801F10401F8D1FFE000202EF02C
:10F7E00015FED8F81400404210F0030605D000BF03
:10F7F00000202EF00BFE013EFAD120462EF040FEF6
:10F80000ECE0002056462EF001FED8F814004042ED
:10F8100010F0030A06D000BF00202EF0F7FDBAF169
:10F82000010AF9D120462EF02BFEB246D6E0012087
:10F830002EF0ECFDD8F81400404210F0030604D07E
:10F8400000202EF0E3FD013EFAD120462EF045FEC9
:10F85000E0682EF0C9FD20693968401A48F6A331E6
:10F86000C010CBF62E2148432EF0BEFD60692EF06D
:10F87000BBFDA0692EF0B8FDE0692EF0B5FD206A51
:10F880002EF0B2FD606AA7E002202EF0BFFDD8F88E
:10F890001400404210F0030605D000BF00202EF0F7
:10F8A000B5FD013EFAD120462EF017FEE0682EF09D
:10F8B0009BFD20692EF098FD60693968401A48F672
:10F8C000A331C010CBF62E2148432EF08DFDA06948
:10F8D0002EF08AFDE0692EF087FD268CF0B22EF026
:10F8E00095FD300A2EF092FD606A2EF07DFDA06A33
:10F8F00072E003202EF08AFDD8F81400404210F088
:10F90000030604D000202EF081FD013EFAD12046EE
:10F910002EF0E3FDE0683968401A48F6A331C010C4
:10F92000CBF62E2148432EF05FFD20692EF05CFDC2
:10F9300060692EF059FDA0692EF056FDE0692EF0A9
:10F9400053FD206A2EF050FD606A2EF04DFDA06A36
:10F950002EF04AFDE06A2EF047FD206B2EF044FDAC
:10F96000606B39E004202EF051FDD8F814004042BD
:10F9700010F0030615D000BF00202EF047FD013E19
:10F98000FAD10EE005202EF041FDD8F814004042D7
:10F9900010F0030605D000BF00202EF037FD013E19
:10F9A000FAD120462EF099FDE0683968401A48F6F1
:10F9B000A331C010CBF62E2148432EF015FD20694F
:10F9C0002EF012FD60692EF00FFDA0692EF00CFDE7
:10F9D000E0692EF009FD206A2EF006FD64684C45B2
:10F9E0007FF4A2AE072001B0BDE8F04F2EF00EBDAF
:10F9F0002DE9F04F81B046F65C15C2F202256C6825
:10FA0000AC4200F0CE8042F2B93646F6B75A43F621
:10FA1000947B48F63969C0F20126CBF2DB6AC2F268
:10FA2000022BC3F6E30900BFA068B04240F0B580E6
:10FA300001202EF0EBFC44F6D800C2F2022040690F
:10FA4000404210F0030805D000202EF0DFFCB8F192
:10FA50000108F9D120462EF040FDE0682EF0C4FCEC
:10FA600020692EF0C1FC60692EF0BEFCA0692EF06A
:10FA7000BBFCE0692EF0B8FC206A2EF0B5FC606A91
:10FA80002EF0B2FCA06A2EF0AFFCE06A2EF0ACFCC7
:10FA9000206B2EF0A9FC606B2EF0A6FCA06B2EF064
:10FAA000A3FCE06B2EF0A0FC206C2EF09DFC606CA3
:10FAB0002EF09AFCA06C2EF097FCE06C2EF094FCDB
:10FAC000206D2EF091FC606D2EF08EFCA06D2EF05E
:10FAD0008BFCE06D2EF088FC206E2EF085FC47F646
:10FAE000CC61606EC2F20021401A801000FB0AF067
:10FAF0002EF07AFCA06E2EF077FCE06E2EF074FCF7
:10FB0000206F2EF071FC606F2EF06EFCA06F2EF057
:10FB10006BFCE06F2EF068FCD4F880002EF064FCE3
:10FB2000D4F88400A0EB0B0100284FEA611101FB1F
:10FB300009F150EA01902EF057FCD4F888002EF01D
:10FB400053FCB4F88C70F8B22EF060FC380A2EF03A
:10FB50005DFCB4F88E70F8B22EF058FC380A2EF026
:10FB600055FCB4F89070F8B22EF050FC380A2EF024
:10FB70004DFCB4F89270F8B22EF048FC380A2EF022
:10FB800045FCB4F89470F8B22EF040FC380A2EF020
:10FB90003DFCD4F898002EF027FC6468AC427FF45A
:10FBA00043AF002001B0BDE8F04F2EF02FBC0000A5
:10FBB0002DE9F04749F60454C2F2012420680128D7
:10FBC0003EDB45F640500026C2F20220056800BF29
:10FBD0002F68C7F307402EF019FC380E2EF016FCE4
:10FBE0006F68C7F307402EF011FC380E2EF00EFCA4
:10FBF0002F89F8B22EF00AFC380A2EF007FC6F8924
:10FC0000F8B22EF003FC380A2EF000FCAF89F8B2EF
:10FC10002EF0FCFB380A2EF0F9FBEF89F8B22EF03B
:10FC2000F5FB380A2EF0F2FB2F8AF8B22EF0EEFB2D
:10FC3000380A2EF0EBFB2068013658358642C7DBC8
:10FC400049F6F448C2F20128D8F800000128B8BFEC
:10FC5000BDE8F08749F2402045F69C5AC2F20120E7
:10FC60004FF00009C2F2022A056800BF2C8AE0B2F8
:10FC70002EF0CCFB200A2EF0C9FB6C8AE0B22EF0ED
:10FC8000C5FB200A2EF0C2FBAC8AE0B22EF0BEFB10
:10FC9000200A2EF0BBFB0020012400BF05EB400032
:10FCA000B0F91600411C2BD0DAF8001000EB8000F0
:10FCB00051F8207001EB8006C7F307402EF0A6FB39
:10FCC000380E2EF0A3FB7768C7F307402EF09EFB9B
:10FCD000380E2EF09BFB3789F8B22EF097FB380ACE
:10FCE0002EF094FB7789F8B22EF090FB380A2EF0B4
:10FCF0008DFBB689F0B22EF089FB300A2EF086FB20
:10FD0000E0074FF001004FF00004C7D1D8F8000021
:10FD100009F1010940358145A8DBBDE8F087000005
:10FD20002DE9F04381B00346084346D44FF27C707E
:10FD30001446C2F20020026801209A423EDD4FF2D2
:10FD40007077C2F200273F688F4237DD02FB013037
:10FD50004FF26871C2F200214FF6FF75096831F960
:10FD600010204FF26C70C2F20020036833F81200CA
:10FD7000A84222D049F240284EF69829C2F2012822
:10FD8000C2F2002903EB4203D8F80010D9F8002092
:10FD90009E1C00BF00B201EB8010034653F8387F71
:10FDA000974206D01A60A04758B1D8F80010D9F889
:10FDB000002036F8020BA842ECD1012001B0BDE8CA
:10FDC000F0830020FAE70000B0B5034608431FD4D3
:10FDD0004FF27C701446C2F20020026801209A4261
:10FDE00019DD4FF27075C2F200252D688D42D8BF23
:10FDF000B0BD4FF2647002FB0131C2F20020006816
:10FE000050F8215025B12846A04718B1ED6AF9E70E
:10FE10000120B0BD0020B0BD70B50D46C96A0329F0
:10FE200013D80646DFE801F0021427302868A968D5
:10FE3000D6E90023406882425FEADF9483425FEAAA
:10FE4000DF90B1F1FF3F2ADC10E00024002026E023
:10FE50002868EB68D6E90212006882425FEAAF9434
:10FE600081425FEAAF90B3F1FF3F18DC84F00104F8
:10FE700080F0010013E03168B0682A4602F03DFFCF
:10FE800004467168F06807E03168F0682A4602F0BD
:10FE900034FF0446D6E901102A4602F02EFF8442C0
:10FEA00018BF4FF0FF34204670BD10B50446C06F38
:10FEB0000A2801D1A06FE067072804D120680A2131
:10FEC0000EF056FCE06F00EB40004EF6A821C2F2A7
:10FED000002101EBC000002142680A20E0674FF4D6
:10FEE0000000C4F808012046BDE8104003F0CCB97A
:10FEF000F0B581B0056A4FF0806229460446FFF7ED
:10FF00004FFA49F244374FF6B806C2F20127C2F25F
:10FF100000263968306089B905F180614FF0806250
:10FF20002046FFF73DFA3968306039B905F17C4168
:10FF30004FF080622046FFF733FA306001B0F0BD29
:10FF4000B0B504460068806C0146F7F7D1FE216821
:10FF50000546C86C0146F7F7CBFE03212844C0F2E2
:10FF6000400194F8CC2088424FEAA000C8BF4FF46B
:10FF70008010510760621ED449F66C51C2F2012113
:10FF80000968C1B149F2342140F29912C2F201214B
:10FF900000EBD07040100968514340F60042C0F2B7
:10FFA00004226FF35F3152F82110F7F7A1FE616868
:10FFB00081B1E1692AE02068C16B4269A1F5802125
:10FFC00002F524128A4252EAB181A161E1694069D5
:10FFD000084425E0D4E907121144E161B1F5241F7A
:10FFE00004DD4FF424110022E1610EE0B1F5A41FFD
:10FFF00006DA4FF4A411E161012AD8BF012200E022
:020000040201F7
:1000000022B112F5804208BF0122226222685369A0
:10001000D26B1844A2F580220844904250EAB28084
:10002000A061B0BD2DE9F041044642F6B050C2F2E5
:10003000012049F6B048A26A656AC2F2012801604F
:1000400095424FF00000C8F80000C8BFBDE8F0813D
:100050004EF63B16E069C0F2002600BF276A8742D1
:100060000BDC00BF284639463246FFF7ADFEE0699B
:10007000874207F10107F5DBA26A954205F1010508
:10008000ECDBD8F80000BDE8F08100002DE9F04F6E
:1000900081B08A46834631B1BBF8120017210B2884
:1000A00051EA119103E017210020ABF8120049F644
:1000B0002050C2F201200768012F7BDBBBF916003C
:1000C00045F69C58C2F2022846F228697E000125B6
:1000D00000EB8000D8F80020C2F20229012E02EBCA
:1000E00080034E46B3F90800B3F90A20B3F90C3087
:1000F000C8BF7D00002700BF3468844208D09C42FE
:100100001FD0944236D001370436BD42F4D151E0BD
:100110004FF6BC00C2F2002000690EF029FBBBF9CB
:100120001600D8F80010BAF1000F00EB800001EBC8
:10013000800087F0010159F8211001813AD0002197
:1001400030E04FF6BC00C2F2002000690EF010FB58
:10015000BBF91600D8F80010BAF1000F00EB8000D0
:1001600001EB800087F0010159F82110818121D035
:10017000012117E04FF6BC00C2F2002000690EF02A
:10018000F7FABBF91600D8F80010BAF1000F00EB2F
:10019000800001EB800087F0010159F821104181B6
:1001A00008D0022132682323584601B0BDE8F04F41
:1001B00003F0F2BF01B0BDE8F08F10B5836F4EF6CB
:1001C000A82CC2F2002C012403EB430E5CF83E2065
:1001D000052A45D000EB8202082B54EA1491062B25
:1001E00008BF2821D2F8A4208A4239DA44F2D0424A
:1001F000D0F89410C2F20022136829B1D0F8AC10E4
:1002000011B10BB1052323E0D0F8A01039B1D0F81B
:10021000A810032903DB022B01D1082318E0D0F832
:100220008C1021B1D0F8A41009B1032310E0D0F84C
:10023000881021B1D0F8A81009B1022308E0D0F845
:10024000A41009B1012303E0D0F89C1051B1072399
:100250000CEBCE01C36700248A68002103F014F878
:10026000204610BDD0F8901021B1D0F8B01009B1DF
:100270000423EDE7D0F8981031B1D0F8AC1029295B
:1002800002DB0BB10623E3E70023E1E7B0B5856F9E
:10029000B5B10446D5E90301D4E90323801AC91A8C
:1002A000FFF7DDF8E96D096C01F53011884207DAD6
:1002B000A16F204600F04EF900285FEA0F90B0BD14
:1002C0000020B0BD10B5816F044600F043F920B3A3
:1002D000A06E410623D4E06FF8B9A06FD4E9031CE7
:1002E000D0E90332C81AACEB0201FFF7B8F8D4E941
:1002F00016120023CFF64073926A03F50003002A1A
:1003000004BF0023CFF64073032918440CD14FF6E5
:10031000FF72C0F28032904206DD002010BD20F056
:100320004000A066012010BDA1F11202022A08D3EC
:10033000152906D0052906D1B0F5440FEDDB400C98
:1003400002E0401400E00014C828A8BFC8200246FC
:10035000A028C8BFA022152952EA008402F048FD57
:10036000A0425FEABF9010BD10B5044602F040FD08
:1003700000F00300216E04F1480E081A0128D8BFCE
:1003800001209EE80A402066D4E903C260690CEBB4
:10039000610102EB6302C4E9031200EB6E006061CD
:1003A000204604F0BBFB00B110BD2046BDE8104064
:1003B00000F0FBBD2DE9F04F81B04BF698134BF6E2
:1003C0009014C2F20223C2F202244BF6781A18608B
:1003D000036C806E20604BF69C10C2F2022AC2F2BF
:1003E0000220D71A5E1801604BF6A410C2F2022058
:1003F00002609818CB1ACAE9000708461146CAE9F4
:10040000023609F085FE41F61C110022C2F20121DC
:100410004BF69417C2F2022766780A604BF68C11ED
:100420000068C2F20221D0E900300B604BF688115F
:100430003B60C2F202214EF69823C2F2002308600C
:10044000F10649F610511F68C2F2012107F10100BF
:1004500018600A6021D44FF27470DAF80C70C2F29E
:100460000020DAF808300668B91B981B01F5001562
:100470004FF27871A0F50012C2F20021D415DAF81B
:100480000000B4EBE55FDAF80420096807DD9D1B86
:10049000BB1BEC15B4EBE35F34DD012057E0521ACF
:1004A000401AA2F5001100F50010CF154FEAE05BED
:1004B000B7EBE05F57EACB804FEAE5584EF6E5250B
:1004C00000F10109C0F200255F453E4609DC00BF8E
:1004D000204631462A46FFF777FCB8B30136B145CE
:1004E000F6D1444504F10104EED14FF27471C2F229
:1004F00000219AE88D000E684FF27871C2F2002157
:100500000968C4E7521A401A4FEAE25A4FEAE05823
:10051000BAEBE05F5AEAC8804EF6EB154FEAE359B2
:10052000471CC0F20025C245564608DC204631462D
:100530002A46FFF7F5FB48B10136B742F6D14C45E4
:1005400004F101044FF00100EDD100E0002001B002
:10055000BDE8F08FB0B545F64053426BC2F20223BE
:1005600049F6045C1268C2F2012C1B684D6BA2EBC9
:10057000030EDCF800404FEAEE022D686243EB1AEE
:1005800048F6A335DB10CBF62E256A4303FB052284
:1005900044F27443C2F20223D51002F007021B6832
:1005A0005B5D23FA02F2D20708D045F6A051002085
:1005B000C2F202210A6801320A60B0BD45F6A052BB
:1005C0004EF69825C2F20222C2F2002545F6A85442
:1005D0005368C2F20224013353602A6801322A6050
:1005E000D0E903C345694A6C406C0544A5EBA00003
:1005F00020604C69CD68201A4BF6B014C2F2022478
:100600000244096922604FF61402C2F2002210600F
:1006100046F6A400C2F2022046F20C62C2F20222A6
:10062000056046F6A800C2F20220A5EB0C05C2F850
:1006300000C05360016049F60050C2F20120C91A9F
:10064000C2E9025100680138BDE8B040AFF3008054
:100650002DE9F047010436D449F6A84846F20C6764
:1006600046F6A40946F6A805C2F201284FF0340A5E
:10067000C2F20227C2F20229C2F20225D8F8001003
:1006800000FB0A14D7E90001224600F051FC811E4C
:1006900050EA118604EB4600008EFFF7D9FFE0B167
:1006A000D9F800002968224600F042FC864217D0A3
:1006B00086F0010004EB4000B0F93000B0F1FF3FDC
:1006C00080B2DBDC01E0411C02D020F4004000E0FD
:1006D0000020BDE8F04700F0C1B90020BDE8F08778
:1006E0000120BDE8F087000070B549F24025D2F83E
:1006F0008430C2F20125002B2D6805EB801400F038
:100700009880608A00B202388B2800F2978004F14A
:100710001206DFE810F08C00BD00BF00C500C70066
:100720009300C9009300CF009300D100D70093003D
:100730009300D900DB009300DF0093009300E500F5
:1007400093009300E7009300930093009300E90067
:100750009300930093009300EB00F000F200F80088
:100760008201F400930093009300FA009300930039
:1007700093009300930093009300FC00000102019A
:100780009300060108010C010E01930093009300F1
:1007900093009300930093009300930093009300C1
:1007A000930010011201140119011B011D01930096
:1007B0002301250127012D012F0131019300330170
:1007C0003501370139013E01400142014401460132
:1007D00048014A0189014C0193004E0193009300A6
:1007E00093005301570159015B01610163016501E8
:1007F0009300930093009300930093009300930061
:100800006A016C017301930093007B017F018601F3
:1008100093008E0190019601930093009300930042
:100820009300930093009300930093009B01032196
:10083000D7E0906DA0F11F05052D00D270BD1028E6
:10084000FCD0B4F912E0BEF1570F1FFA8EF013DDA1
:10085000AEF1610CBCF11D0F09D8012505FA0CFCA5
:100860000125C3F200051CEA050F7FF44BAFBEF172
:10087000580F3FF447AFE1E7BEF1040F18BFBEF1D8
:100880000A0F3FF43FAFBEF1270F3FF43BAFD5E770
:100890000221A6E0002120460025F5F70DFFB3E078
:1008A0000321CFE00421D2E0002120460025F5F706
:1008B00093FCA9E00121A2E0002120460025F6F7E3
:1008C0006DFAA1E0FF2112E001218AE02046F6F74F
:1008D0009FFABFE0002120460025F5F787FF93E04F
:1008E00003218CE00321B2E00521ABE02321204667
:1008F000F6F754FAAEE00221A4E00621A2E00121BD
:100900002046F5F73DFD01219CE002219FE0BDE876
:100910007040F8F7D1BC002171E02046F6F79CFA50
:1009200098E009218EE02046F5F70AFD92E00721C4
:1009300088E0082186E002210BE0032109E020463F
:10094000BDE87040F5F7FCBC022140E001213EE02B
:1009500004212046BDE87040F5F712BD232102E0D6
:10096000002100E0FF212046BDE87040F6F716BAEE
:10097000012161E000215FE006215DE0032126E026
:10098000002135E0012133E02046BDE87040F6F754
:1009900063BA00211BE003214EE007214CE008214F
:1009A0004AE0092148E0032122E0052144E0022138
:1009B00042E001212046F5F70FFC4BE02046F6F718
:1009C00011FB47E0052102E0062100E00721204657
:1009D000BDE87040F5F770BE052102E0062100E099
:1009E00007212046F5F768FE34E004212AE00421BF
:1009F00000222046BDE87040F6F7FAB80421002234
:100A000020460025F6F7F4F8358070BDBDE870404B
:100A1000F8F796BF002B7FF411AF2046F6F738FAAF
:100A200018E0002B18BF70BD2046BDE87040F6F7F7
:100A30002FBA042100E00A212046BDE87040F5F7F6
:100A4000D5BE0A212046F5F7D1FE03E00521204658
:100A5000F5F796FC0020308070BD00002DE9F04FC6
:100A600085B049F61C510446C2F201210A6882424F
:100A700003DC6DA02146FAF791F946F22060C2F23C
:100A80000220006800EBC400B0F904B0BBF1000F15
:100A900000F0C48045F64451B0F90600C2F20221CC
:100AA0004EF6982AC2F2002A096801EB401000F1C4
:100AB000140800BFD8F80090DAF80000D9F8381010
:100AC000814200F0A580D9F80010C9F8380046F23C
:100AD0000C62D9F80450D1E90076C2F202223846FD
:100AE000314600F025FAD5E9004546F20C6282460F
:100AF00020462946C2F2022200F01AFA82454EF63A
:100B0000982AC2F2002A00F0838046F20C61E01BB2
:100B1000C2F202210390A81B01AD0490D1E90001AB
:100B20002A46CDE9017600F003FA044646F6A40011
:100B300046F6A801C2F20220C2F202212A4600684B
:100B4000096800F0F5F9844262D0D9F83400002831
:100B500068D0B9F81000400764D5D8E90145286885
:100B6000216862686B68814208BF9A4250D09A42FD
:100B700052EAB387814251EAC086BE4252DA46F257
:100B80000C6001A9C2F2022000F0EFFE2968226881
:100B900081468A4214D045F6A8504946C2F2022046
:100BA0000068301AF7F78AF84FF61401C2F20021F4
:100BB0000968884204DD4FF61401C2F20021086082
:100BC00068686168814205D14BF6B010C2F202201C
:100BD000016815E045F6A8504946C2F202200068B7
:100BE000381AF7F76BF84BF6B011C2F20221096818
:100BF000884205DA4BF6B011C2F2022108600146C4
:100C00004FF61400C2F20020006881420ADD00BFE6
:100C1000BBF1010B08F120087FF44CAF012005B0B7
:100C2000BDE8F08F0020FAE7505F43726F73735393
:100C30007562736563746F723A207373202569203F
:100C400077697468206E756D7373203D2025690087
:100C50002DE9F0470446806E470740F109810E46B2
:100C6000E16E0129C0F204819246C10103D5002141
:100C7000C4E91211216547F6D821D4F88450C2F294
:100C80000121002D5FEA0F92096800295FEA1F9198
:100C9000002E01EA020143FA01F747D010F4805018
:100CA00044D1BAF1000F05D0DAF8840010B1806F9A
:100CB00007283BD0D6E90301D4E9032309F055FB0B
:100CC0004FF44821E26D7943272F926C804691FBC7
:100CD000F2F910DCE06E87420DDD60697169401A3F
:100CE000B0F5800F07DD02F083F8C0071CBF88F065
:100CF00000484FEA890944F2A8304FEAD846C2F2C8
:100D00000020006850F826104846F6F7F1FFA16C65
:100D1000084440F60041C0F20421A064484651F85E
:100D20002610F6F7E5FFE16C0844E064002D4FD093
:100D3000606B0068C0890B2803D1E06E8742A8BFB2
:100D4000471EB7F57A7F08DA95F8CC00800700F1E6
:100D50008F80686B002840F08B80286B78B1012869
:100D600001D1032000E0022097FBF0F0E96A814204
:100D700002DC0020286308463F1A091AE96242F69D
:100D8000A851A86AC2F20121C01BD5F8E420C5F819
:100D9000ECA0096820EAE070A86243F6947001EBC9
:100DA000C101C2F202203A4400EB41116420642ADE
:100DB00052EAB0828D42C5F8E42009D1642F57EA87
:100DC000B080282101EB400228200A21FAF799FB84
:100DD000E06EC01BE06600281FDD02F009F8E16D3F
:100DE0000A6A904209DAA06EC20106D440F04000BF
:100DF000A066C969204602F021FAD4F880000028D4
:100E00004FF00000E0670ED0A24518BFBAF1000F06
:100E10002ED0A06D03280BD02AE050462146BDE815
:100E2000F04700F0CABDBAF1000F18BFA2451FD0AD
:100E3000DAF8580003281BD0E06D47F6CC62C2F206
:100E40000022C4F878A04168C1EBC10102EB810126
:100E5000626E8A424FF06401C4F8801018BFBDE88A
:100E6000F087C16821B12046BDE8F04702F0E6B93D
:100E7000BDE8F087F0B581B0044601F0A5FBE0695C
:100E8000B0F5C02FC8BFA0F5803002DCB0F5C02F90
:100E900005DAB0F5C02FD8BF4FF4C020E06120685C
:100EA00000222262816B4069884249F66C51C2F28D
:100EB00001215FEACF9008602046FFF741F8D4F89F
:100EC000EC30E3B121688B4219D043F6E207D1E957
:100ED0000301D3E90323C0F28E3709F046FA2168F3
:100EE00047F2C416C0F21C760A6A831ADD19B542AD
:100EF0000CD8D4F8E42008629AB1501E03E0D4F86C
:100F0000E40070B10138C4F8E4000AE0002B02D418
:100F1000B818013004E04CF21D70CFF67140104457
:100F20000862607B800701D50220606001B0F0BDDF
:100F300080B593688BB1D2F80CC0BCF1000F13D010
:100F4000D2E900E2A0EB0E00891A10FB3CF011FB85
:100F500033F181420DDA002080BD1168814206D054
:100F6000D0680FDAC00F80BD5268824206D10220DD
:100F700080BD0122884252EA129080BD8A4205DA81
:100F8000002B00E000285FEADF9080BDD80F80BD15
:100F9000816F4EF6A822C2F2002201EB410102EB62
:100FA000C1018A68002102F06FB910B50446806D56
:100FB00044F6DC015C22C2F2002100FB0210002199
:100FC000C4E912112165016B204602F037F901F0E6
:100FD0000FFF00F00300D4E91721081AA36E0128BF
:100FE000D8BF0120916B206623F48030A06621B128
:100FF0002046BDE810400DF0BBBB10BD80B5D0F859
:1010000050E0BEF1010F14DB426D4FF0000C00BF49
:1010100011680B8A5B0708D50B6B834208BF4B6BCB
:101020001BB15968614551EACC8C04320FF011C0F4
:1010300001E04FF0000C604680BD000080B58446A2
:10104000D0F850E00020BEF1010FCFF60C60B8BF21
:1010500080BDDCF8542000BF11680B8A5B0708D5FF
:101060000B6B634508BF4B6B1BB11968814251EA9A
:10107000C08004320FF011C080BD000080B5D0F8F0
:1010800050E0BEF1010F14DB426D6FF0004C00BF69
:1010900011680B8A5B0708D50B6B834208BF4B6B4B
:1010A0001BB15968614551EABC8C04320FF011C084
:1010B00001E06FF0004C604680BD000080B5D0F8C4
:1010C00050E08446BEF1010F0068B8BF80BDDCF877
:1010D000542000BF11680B8A5B0708D50B6B634572
:1010E00008BF4B6B1BB11968814251EAB0800432D2
:1010F0000FF011C080BD000080B5D0F850E08446EC
:10110000BEF1010F0846B8BF80BDDCF8541000BF27
:101110000A68138A5B0709D5136B634508BF536BD5
:1011200023B1B3F90C20904250EAB28004310FF0A1
:1011300011C880BD2DE9F04F97B00546006D01281C
:101140008A4641DB41F2C34800270DF10409C0F291
:101150000528D346002600BF696D51F827100A8A7A
:10116000520717D50C6BAC4208BF4C6B94B1216889
:1011700059450FDD152E07D0162E06D14046F9F73A
:101180000DFE2168286D00E08B46721C49F8261080
:10119000164600BF01378742DEDBAEB1022EDDF816
:1011A00004A011DBA0EE10AB701E09F1040120F0C9
:1011B00001E000BFB1EC043F22EF50061FF007C072
:1011C0006FF0004AEAEE80AF504617B0BDE8F08FEE
:1011D00080B545F640525823C2F20222126801FB44
:1011E000032349F60452C2F201226833D2F800C048
:1011F0000131614506DAB0F814E033F8582B724536
:10120000F6D101E04FF0FF31084680BD10B504462D
:10121000FEF7D3FFB8B120689A2102F00FF8A06F53
:101220004EF6A821C2F2002100EB400001EBC00005
:1012300000210269204602F027F820680146BDE837
:10124000104001F0F7BA10BDF0B581B005290ED0FD
:101250000D461646074603D32EA02946F9F79EFDF4
:1012600007EB850050F8A41F0269914201D10020CC
:1012700020E042F6442347F6D82CC2F20023C2F203
:10128000012C002E53F8253003FB06F46FF0040602
:1012900003EBD37308BF5C10DCF8003033425FEA25
:1012A0001F9304FA03F30B44934253EAB2820260A1
:1012B00011B1012001B0F0BD032DFAD8DFE805F02F
:1012C000020A131CB86F0028F3D1D7F88C00E8B1DC
:1012D000032019E0B86F0128EBD8D7F88800002860
:1012E000E7D0022010E0B86F0128E2D8D7F89400C8
:1012F0000028DED0052007E0B86F0028D9D1D7F844
:1013000090000028D5D00420F867D2E70120F867C4
:10131000D0E700BF505F47697665416D6D6F3A2039
:10132000626164207479706520256900052922D8DE
:10133000DFE801F00307141D212840F21A41416340
:1013400023E0816A632906DC002958BF0021026876
:1013500064318162D1660121816317E0016840F642
:101360003402C263886E40F4802088660DE040F647
:101370003401016409E000EB810050F8341F39B1F9
:10138000002103E041F268018164012108467047B1
:1013900001210160FAE7B0B50C460546DABB49F613
:1013A0009440C2F201200068A8B342F60460C2F281
:1013B0000120016802292ED005EB840151F8802F0D
:1013C0003ABBD5F8E8200632C5F8E82001220A60C9
:1013D0004EF6A82204EB4401C2F200220068002865
:1013E000284652F831104FF0050208BF0222FFF7DD
:1013F0002BFF42F6A85043F69471C2F20120C2F2CC
:101400000221EC67006800EBC00001EB4010A8422D
:1014100026D0002422E04EF6A82104EB4400C2F2BC
:10142000002151F83010052901D1002006E00120EB
:10143000002A50EA10922846FFF706FF05EB8402C7
:1014400052F8801F11B901231360EC6700295FEA8D
:101450001F9100285FEA0F9041EA00042046B0BDCA
:101460000020212100240DF083F9F7E72DE9F04F4A
:1014700085B049F61C50C2F20120D0F800E0BEF160
:10148000010F14DB46F2206045F64451C2F20220FF
:10149000C2F20221006800BFB0F906200B6803EB1E
:1014A00042121269126940F8082B0FF00BC849F676
:1014B000F44849F2402AC2F20128C2F2012A4BF64E
:1014C000C8100021D8F800E0C2F20220DAF80020AB
:1014D000BEF1010F016014DB30320021166857683D
:1014E0000B460131356D05F1010535652FB1B74268
:1014F00003D0396D01313965991C40320FF013C0AA
:101500000160880005210022002712F0E9FB49F65E
:10151000045945F64051C2F20129C2F20221D9F81C
:101520000020012A10DB0E6800230024F218013489
:1015300050650E68F2185833156D1765D9F80020FC
:1015400000EB85009442F1DBD8F800E0BEF1010F1A
:1015500019DB0020DAF8003003441F6B2FB1D7E904
:10156000146545F8263001363E655F6B47B11E6B4A
:10157000BE4205D0D7E9146545F82630731C3B659B
:1015800040300FF019C8012A6DDB4FF27C7B0E68EA
:101590004FF0000A01ACC2F2002B00BF2046FAF760
:1015A000B3FD306D012815DB4FF00008706D50F869
:1015B00028502868D0E900122046FAF78DF86868AC
:1015C000D0E900122046FAF787F8306D08F10108DB
:1015D0008045EBDBDDE901354FF27877E818DDE98E
:1015E00003C1C2F200270CEB010200EBD0700AF13C
:1015F000010A4010F0634FF270703F68C2F20020A1
:1016000002EBD272DB1B5210B26303F500120068CA
:10161000431EB0EBE25FC8BFD315F3614FF27473A2
:10162000C2F20023E81BA0F500101B68C215C91AFE
:1016300022EAE07001F50011DBF800203062501E54
:10164000B2EBE15FACEB0302C8BFC815A2F5001115
:10165000D9F80030CA15B06222EAE17171629A4588
:1016600006F158069ADB05B0BDE8F08FF0B581B001
:101670000D46044601F0BCFB002D0646256A07D145
:1016800001F0B6FB074601F0B3FB381A05EB8045C5
:1016900045F256504FF6B801C5F25550C2F200213E
:1016A00056FB00F04FF000620B68294600EBD0704B
:1016B00000EB4000301A00EB80000530009020461F
:1016C00000F030FA01B0F0BD2DE9F0410446C06AE7
:1016D000012805D060B94BF6A810C2F2022003E041
:1016E0004BF6A010C2F2022000210160BDE8F0819B
:1016F00045F6C8502246C2F202200168D1E9030132
:1017000001F0FBFA0546D4E902230020002108F08D
:101710002CFE4BF6A0164BF6A818C2F20226C2F217
:1017200002280446012D08BF84F000443268D8F82E
:1017300000300020002108F018FE001B4FF48051FB
:10174000C70CB0F1004F88BF81EAD0473068D8F8A5
:101750000010FDF784FE44F2A835C2F20025296886
:1017600051F82710F6F7C4FA2968E50C044651F839
:101770002510F6F7BDFA40F600413060C0F20421B2
:10178000204651F82510F6F7B3FAC8F80000BDE876
:10179000F08180B500F074F800F008F847F69C403E
:1017A000C2F20020BDE8804007F05EBF2DE9F041A5
:1017B00042F2CC1149F20C27C2F20021C2F20127F9
:1017C0004FF278420868C2F20022431C3A6008BF18
:1017D000BDE8F08101F11C040FF27C08A4F10F06B2
:1017E0000028A4F1180530460CD004F079FE013031
:1017F0002CD028460BF09AF83968486030460BF038
:1018000095F80BE011F0C6FD01301FD0284606F018
:101810003FFC39684860304606F03AFC39684A684F
:101820008860101A54F81C2C00280A6000F101008E
:10183000C86005DC404631462A46F9F7AFFA3968F8
:1018400054F8040C086101F11400386054F81C0BC2
:10185000411CC3D1BDE8F081505F496E6974506985
:1018600063416E696D733A20626164206379636CD1
:10187000652066726F6D20257320746F20257300BC
:101880002DE9F04381B044F2D0404FF00109C2F29B
:10189000002046F22868002632270068C2F202289B
:1018A00020F00201022841F68C60C2F2002008BF3D
:1018B0004FF0030900F10904012908BF4FF00209A4
:1018C000B4F9090098B181450CDBA4F109000BF0D3
:1018D0002DF848F82600204608EB86050BF026F880
:1018E00002366860013F04F11404E9D10BE049F6C7
:1018F000205106EBD670C2F20121401008604FF073
:10190000FF3048F8260001B0BDE8F08346F65C10D1
:10191000C2F20220C0E90000704770B50546C868F1
:101920000C460012A968F6F7E3F90646A068001213
:10193000E968F6F7DDF9864201D1002070BD29681B
:101940002268361A501AE1680012F6F7D1F9696870
:1019500062680546881AA1680012F6F7C9F928449A
:101960003146BDE87040F6F7A9B970B50546C868BC
:101970000C460012A968F6F7BBF90646A0680012EB
:10198000E968F6F7B5F9864201D1002070BD2968F3
:101990002268361A501AE1680012F6F7A9F9696848
:1019A00062680546881AA1680012F6F7A1F9284472
:1019B0003146BDE87040F6F781B910B54BF6FB1320
:1019C0008A6DCFF6EF630C46896E122A08BF03F5C5
:1019D000007301EA0302636C42F4801242F48062F5
:1019E000A2664FEAA3026264D0B1D0F88420BAB1F3
:1019F000490204D5D2F8D4100131C2F8D410D4F879
:101A00008410F1B143F69473C2F20223C91A43F66B
:101A1000E4034911CEF28E3301FB032168310DE05E
:101A200049F69442C2F20122126852B911F48001BF
:101A300007D043F69471C2F20221D4310A68013210
:101A40000A60D4F8841089B370B943F6947043F6F1
:101A5000E402C2F20220CEF28E32081A401100FBDC
:101A60000210826E01328266A06E20F00200A06633
:101A7000012048600846FFF78BFA42F6A85043F66B
:101A80009471C2F20120C2F20221006800EBC00092
:101A900001EB4010D4F88410814207D14FF230702E
:101AA000C2F20020006808B1EFF730FEE06DE26E90
:101AB000816849428A4204DA416B002908BF016B00
:101AC00000E0016B204601F0B9FB01F091F900F054
:101AD0000300216E081A44F2D441C2F20021012809
:101AE0000968D8BF0120092920660ED0A06D3F23C8
:101AF000092806DC01280AD0022818BF10BD4D2392
:101B000005E00A2802D0172801D010BD4923D4E9E6
:101B100003014FF0004202F0B0F8816E41F4003151
:101B2000816610BD2DE9F04182B044F2A83549F23A
:101B30000824C2F20025C2F2012445F6685ECE0CEC
:101B40002D6840F60048DDF820C0C2F2022EC4F82D
:101B500000C0C0F20428141455F82650CEF8000036
:101B6000D0E903C105FB04CE58F82650476C05FBAD
:101B7000041445F66C554069C2F2022500EB67007B
:101B800000F5002028604FF22C70C2F200204FF2C6
:101B90006845C2F2002502604EF603702B60C0F269
:101BA00000200322CDE9002060467246234600F063
:101BB00053FE02B0BDE8F081018B4FF6FF729142F7
:101BC00021D0D0E90C014A684368934253EAB28CB1
:101BD00043F67C53C2F20223C3F800C00B680268CC
:101BE0009A4251EAC08052EAC38149F67452C2F265
:101BF0000122116049F27432C2F2012200681060C1
