:020000040200F8
:100000000096002225250002D50A0002A70300025F
:100010009F0A00029F0A00029F0A00029F0A000234
:100020000000000000000000000000009F0A000225
:100030009F0A000200000000DF0200029D2500026E
:1000400091DF030295E0030245E003020BDF0302A8
:10005000D54901028D390302013A0302753A0302C0
:100060000F390302FF37030273380302BD2901026F
:1000700001530302C1DD03028DDC03020000000016
:100080000000000000000000000000000000000070
:100090000000000000000000000000000000000060
:1000A0000000000000000000000000000000000050
:1000B0000000000000000000000000000000000040
:1000C0000000000000000000000000000000000030
:1000D0000000000000000000000000000000000020
:1000E0000000000000000000000000000000000010
:1000F0000000000000000000000000000000000000
:1001000000000000000000000000000000000000EF
:1001100000000000000000000000000000000000DF
:1001200000000000000000000000000000000000CF
:1001300000000000000000000000000000000000BF
:1001400000000000000000000000000000000000AF
:10015000000000000000000000000000000000009F
:10016000000000000000000000000000000000008F
:10017000000000000000000000000000000000007F
:10018000000000000000000000000000000000006F
:10019000000000000000000000000000000000005F
:1001A000000000000000000000000000000000004F
:1001B000000000000000000000000000000000003F
:1001C00000F002F800F063F80AA090E8000C824406
:1001D0008344AAF10107DA4501D100F058F8AFF2E3
:1001E000090EBAE80F0013F0010F18BFFB1A43F015
:1001F00001031847C8000F0008010F000A4410F857
:10020000014B14F00F0508BF10F8015B240908BF6B
:1002100010F8014B6D1E05D010F8013B6D1E01F862
:10022000013BF9D1641E03D0641E01F8015BFBD1D0
:100230009142E4D370470000103A24BF78C878C1D7
:10024000FAD8520724BF30C830C144BF04680C60DC
:10025000704700000023002400250026103A28BF24
:1002600078C1FBD8520728BF30C148BF0B60704728
:100270001FB542F02FFE00F067FB040000200021B4
:1002800042F012FE401C60601FBD10B510BDDFF8CB
:1002900010D0FFF7EDFF00F0FDFB00F0F2FB0000D7
:1002A0000076002203B4FFF7F0FF03BC06F092FED5
:1002B000EFF3108072B6704780F310887047484A99
:1002C0001368012B04D04FF001031360454A1060FE
:1002D000454A116045484FF0805101607047EFF387
:1002E000108272B63E48016879B34FF00001016098
:1002F0003C48016891B1EFF309811EF0100F08BF6F
:1003000021ED108B21E9F00F4FF000041EF0100FCB
:1003100008BF012441F8044D0068016000B502F0F7
:100320006BFA5DF804EB30490968096808C9B1E85F
:10033000F00F002B18BFB1EC108B81F309884EF041
:10034000100E002B18BF2EF0100E82F310884EF006
:10035000040E704724490860EFF3148222F004026F
:1003600082F314881F494FF0000008601C494FF0C9
:10037000010008601E481F49D0F8002041EA020130
:1003800001601A484FF0805101601B480068006806
:1003900000BF80F3088861B662B6BFF34F8FBFF32A
:1003A0006F8F704700BFEFF308801EF0040F01D07D
:1003B000EFF3098020E9F00F40F804ED40F804ED78
:1003C0001EF0040F02D080F3098801E080F3088852
:1003D00000B538F05FF95DF804EB4EF0040E70479D
:1003E0005C32002298300022A430002204ED00E0AC
:1003F00020ED00E00000FFFF08ED00E07047000086
:1004000010B500F0A1FA001D10BD00BF9D2A040028
:1004100053EA020C00F069802DE9F04B4FF0000622
:10042000002B1FBFB3FA83F503FA05F424FA05F68F
:100430005E4012BF1643B2FA82F502FA05F4C5F126
:1004400020051EBF22FA05FC44EA0C04203556EABA
:10045000044C4FEA144418BF641C4FF000084FF0DE
:100460000009904271EB030C39D3002919BFB1FA8E
:1004700081F701FA07F6B0FA80F700FA07F6C7F13C
:1004800020071EBF20FA07FC46EA0C062037B6FB01
:10049000F4FCA7EB0507103F07F01F0BCBF120067C
:1004A0002CFA06F60CFA0BFB44BFB3460026202FAD
:1004B000A4BF5E464FF0000B5BEA060C08BF4FF08E
:1004C000010B19EB0B0948EB0608ABFB027C06FBA2
:1004D00002CC0BFB03CCC01B71EB0C01C1E70B463C
:1004E000024641464846BDE8F08B13B5084318BFA5
:1004F0004FF0FF300146AFF30080BDE81C4070476D
:1005000053EA020C23D010B54C1084EA530404D5EE
:100510004042C1F1000138BF491E1B4204D552427E
:10052000C3F1000338BF5B1EFFF772FF14F0804F6A
:1005300004D04042C1F1000138BF491E14F0004F01
:1005400004D05242C3F1000338BF5B1E10BD13B587
:1005500040424FF0000070EB0104B8BF012001F0F1
:10056000004100281CBF6FF000414FF0FF30AFF397
:1005700000801CBD70B5064600F0EAF90468054627
:1005800030460A22002100F0E7F92C6070BD401EC1
:10059000CAB210F8011F8A4202D00029F9D1002006
:1005A000704740EA010310B59B070FD1042A0DD311
:1005B00010C808C9121F9C42F8D020BA19BA884244
:1005C00001D9012010BD4FF0FF3010BD1AB1D30783
:1005D00003D0521C07E0002010BD10F8013B11F8B9
:1005E000014B1B1B07D110F8013B11F8014B1B1BE2
:1005F00001D1921EF1D1184610BD10B5431C02E086
:1006000010F8011B71B18107FAD14FF0013202C815
:100610008C1A8C4314EAC211F9D0C01A0A0603D00E
:10062000C01E10BDC01A10BD0A0401D0801E10BD2E
:100630000902FCD0401E10BD40EA010370B59B07C3
:100640002ED14FF00136042A2AD308C810C99D1BA9
:100650009D43121F15EAC61517D0D8B2E1B2401A51
:1006600050EA056110D198B2A1B2401A50EA054192
:100670000AD123F07F4024F07F41401A50EA05213F
:1006800002D1180EA0EB146070BDA342DBD018BAE3
:1006900021BA884201D9012070BD4FF0FF3070BDF2
:1006A0000AB9002070BD10F8013B11F8014B63B18D
:1006B000A3420AD1521E08D010F8013B11F8014B99
:1006C0001BB1A34201D1521EEDD1181B70BD032AEC
:1006D00040F2308010F0030C00F0158011F8013B5F
:1006E000BCF1020F624498BF11F801CB00F8013B46
:1006F00038BF11F8013BA2F1040298BF00F801CB0A
:1007000038BF00F8013B11F0030300F02580083AE0
:10071000C0F0088051F8043B083A51F804CBA0E837
:100720000810F5E7121D5CBF51F8043B40F8043B8C
:10073000AFF30080D20724BF11F8013B11F801CBC1
:1007400048BF11F8012B24BF00F8013B00F801CB92
:1007500048BF00F8012B704710B5203AC0F00B805D
:10076000B1E81850A0E81850B1E81850A0E81850A7
:10077000203ABFF4F5AF5FEA027C24BFB1E818501D
:10078000A0E8185044BF18C918C0BDE810405FEA7F
:10079000827C24BF51F8043B40F8043B08BF7047FB
:1007A000D20728BF31F8023B48BF11F8012B28BF00
:1007B00020F8023B48BF00F8012B704702F0FF030E
:1007C00043EA032242EA024200F00AB802F0FF03C1
:1007D00043EA032242EA024200F024B84FF000024A
:1007E0000429C0F0128010F0030C00F01B80CCF143
:1007F000040CBCF1020F18BF00F8012BA8BF20F8B1
:10080000022BA1EB0C0100F00DB85FEAC17C24BF04
:1008100000F8012B00F8012B48BF00F8012B7047AE
:100820004FF0000200B5134694469646203922BF89
:10083000A0E80C50A0E80C50B1F12001BFF4F7AFD4
:10084000090728BFA0E80C5048BF0CC05DF804EBB6
:10085000890028BF40F8042B08BF704748BF20F824
:10086000022B11F0804F18BF00F8012B704710B514
:10087000044610F0030F08BF11F0030F40F015807D
:100880004FF0013E121FC0F20E8051F8043BA3EB63
:100890000E0C2CEA030C1CEACE1C08BF40F8043BEB
:1008A000F0D0A1F1040102F10402521E08DB11F89C
:1008B000013B00F8013B002BF7D11146FFF78EFFFB
:1008C000204610BD0000000030B44FF0013C50F84D
:1008D000042B51F8043BCCFA52F4D51A20D1FCB9C0
:1008E00050F8042B51F8043BCCFA52F4D51A17D126
:1008F000B4B950F8042B51F8043BCCFA52F4D51A91
:100900000ED16CB950F8042B51F8043BCCFA52F4D8
:10091000D51A05D1002CDAD030BC4FF0000070475A
:1009200029BAB1FA81F111F01801D1F12000844007
:10093000F2D1CA40CB4012F0FF0213F0FF0330BCEB
:10094000D01A70477047000000487047F00200223C
:1009500000487047D00200222DE9F04791460F462B
:1009600080460446002614F8015B2DB1FFF748FDD0
:100970000068405DC007F6D12B2D02D02D2D18D078
:10098000641E4A463946204600F01EF827B13968F1
:10099000A14201D1C7F800804FF0020471050BD5C8
:1009A0004042002803DDFFF7D3FF0460A007BDE845
:1009B000F08746F48066E4E70028F8DAFFF7C8FF1E
:1009C00004606FF00040F2E72DE9F05F82461546C3
:1009D0008B4600270AF10104B9460078302801D07F
:1009E0009DB113E014F8010B0127782803D0582893
:1009F00001D045B10AE00DB1102D07D1002714F840
:100A0000010B102502E0082500E00A250026B0466B
:100A10000EE005FB080005FB06F101271FFA80F830
:100A200001EB1046B6F5803F00D3B94614F8010B30
:100A3000294600F018F80028EBDABBF1000F05D0CA
:100A40000FB1641E00E05446CBF80040B9F1000F2E
:100A500006D0FFF77DFF02210160C81EBDE8F09FB0
:100A600048EA0640FAE73A2800D2303820F020025F
:100A7000412A01D3A2F13700884201D34FF0FF3061
:100A8000704710B50446AFF300802046BDE8104023
:100A9000FFF708BC80B53CF073F8002080BD00BEB5
:100AA000704710B5044638F0C4FC206803280CD108
:100AB00040F64860C2F20020007830B140F2343095
:100AC000C2F2002000683AF05BF9BDE8104038F04F
:100AD000D3BC0000F0B581B04CF2001540F2E877CD
:100AE000C4F200050024C2F200272888298C08409F
:100AF00086B200BF26FA04F0C00703D0396809B1F6
:100B00002046884701340437102CF3D12E8200BFD1
:100B1000288C3042FCD101B0F0BD0000B0B542F2EB
:100B20002404C820C4F2200401210025257100F00E
:100B300082F82570207808B12FF005C0207840F0A9
:100B40000200207020788007FCD4002004F8020CFA
:100B500014F8020C08B12FF005C84FF0030E002066
:100B600004F11C0111F8102002F07F0201F810209E
:100B700011F91020002AFBD401300FF00DC801201C
:100B800000F00BF84EF64C410120C4F201010022A6
:100B90000A70BDE8B04000F027B880B5EFF31081CF
:100BA000012282F3108840F6AC02C2F2002232F831
:100BB00010308BB943F2D40C4EF2FA3EC0F2042C42
:100BC000C4F2010E3CF810C0BEF8003043EA0C033A
:100BD00043F42543AEF8003032F81030013322F8E8
:100BE000103081F3108880BDEFF31081012282F371
:100BF000108840F6AC02C2F2002232F8103023B165
:100C000032F81030013B22F8103032F810207AB957
:100C10004EF2FA3243F2D40CC4F20102C0F2042CB8
:100C200013883CF8100043F4254323EA00001080A9
:100C300081F31088704740F230324CF60023C2F244
:100C40000022C3F69A3341434FF47A7C1268B3FB17
:100C5000F2F2A1FB0C3010B9B3FBF2F004E0B1FBEF
:100C6000F2F0A0FB0C0119B908B106F021BE7047E3
:100C70004FF0FF3006F01CBE7047022818BF7047C7
:100C800043F6B440C0F20420416840F67800C2F256
:100C9000002000F038BD43F200101302C4F234000B
:100CA000C358DB071AD16FF0FF03C358DB0515D417
:100CB00000EB0220032200295FEA0F9C08BF0122FB
:100CC000036A23F002031A430262C0F804C0C16041
:100CD000016841F0010101600020704740F2EE30F0
:100CE000704700002DE9F04F81B043F208088246BA
:100CF000C4F22008002707600120EFF3108480F37E
:100D00001088D8F800000D4620F01000C8F8000048
:100D100043F20449D8F8000043F2000B9620012169
:100D2000C4F23409C4F2340BFFF785FF84F3108852
:100D30004023DBF8000040F48030CBF80000D5F809
:100D4000A400296C0329D0E9042008BF4FF4825382
:100D500000F03F00002A08BF03F580731844C9F86B
:100D60004C00286DD5F8A410002818BF4FF4BC70B3
:100D7000CBF8E403C9F80070D1E90032581C886848
:100D800043F2B001C0F2042112D02F6B2FB9D9F871
:100D9000187047F01007C9F8187051F823301F6811
:100DA00047F002071F60EB8D6FF3DF23C9F81430A3
:100DB000531C10D0EB6B2BB9D9F8083043F010035B
:100DC000C9F8083051F82220136813606A8F6FF356
:100DD000DF22C9F80420421C1ED0EA6C12B901229D
:100DE000C9F8242051F82000016841F00701016092
:100DF000A88D698D6FF3DF206FF3DF2141EA00409A
:100E0000C9F81C00288FE98E6FF3DF206FF3DF2114
:100E100041EA0040C9F80C00A88E298D40F6340341
:100E20006FF3DF20C2F200236FF3DF2141EA0040BD
:100E3000CBF804004FF00110CBF80800A88D698DA5
:100E400001306FF3DF216FF3DF2041EA0040CBF880
:100E50001000288FE98E01306FF3DF216FF3DF2060
:100E600041EA0040CBF80C0095F8550095F8561073
:100E700095F85420000240EA014040F62C0110444D
:100E8000CBF81400C2F20021A88D6A8D088040F6CC
:100E90003001C2F20021288F1A800022088040F61B
:100EA0003801C2F20021E88E088005F16C01284665
:100EB00034F0A8F805F1140005F17C01012234F0AA
:100EC000A1F8D5E9100182A295F868707CA4AB6CFA
:100ED00052F82020002F54F820704FEA024215D01B
:100EE000D5F8A440A669022E0ED104F11C0EA46A06
:100EF0009EE84050360346EA0C2646EA0E16264384
:100F0000324342F4001201E042F480123E034FF0FB
:100F10008054012948F2800108BF44EA0736012BBA
:100F2000C0F2800108BF46F0807603284FF40070BD
:100F300008BF06F50076CBF8C463CBF8D423CBF812
:100F4000C8034FF00220CBF8CC03CBF8D01340F607
:100F50003C02D5E92701CAE90101288FE98EC2F2D6
:100F60000022CAF80C50C2F800A008440130DBF897
:100F7000501260F30A01CBF85012DAF80C00D0F8E6
:100F8000A400C16A07C912689047054698B10120BC
:100F9000EFF3108480F310880121D8F8000040F0AE
:100FA0001000C8F80000D8F800009620FFF743FEB4
:100FB00084F3108880E00620C9F83C000720C9F8B7
:100FC0004000DAF80C304EF200104CF2003140F6DE
:100FD0005C12D3F89070CEF20000002FC4F2000132
:100FE000C2F200221FD493F88C30C61901241B01D1
:100FF00086F8003342F827A051F8273023F48033D5
:1010000041F8273051F827307B0907F01F07BFF35D
:101010005F8F00EB830604FA07F7C6F8807140F88B
:101020002370DAF80C30D3F89470002F1FD493F8A3
:101030008D30C61901241B0186F8003342F827A021
:1010400051F8273023F4803341F8273051F8273006
:101050007B0907F01F07BFF35F8F00EB830604FADD
:1010600007F7C6F8807140F82370DAF80C30D3F82F
:101070009870002F1DD493F88E30C6191B0186F886
:10108000003342F827A007F01F0351F8272022F46D
:10109000803241F8272051F8271079090127BFF342
:1010A0005F8F00EB810207FA03F3C2F8803140F84A
:1010B00021300120CAF80000284601B0BDE8F08FB9
:1010C000000000000100000002000000030000001A
:1010D000000000000100000002000000000000000D
:1010E00010B50446C068D0F8A400C06A81680068E2
:1010F0008968884743F20001C4F234010A6842F467
:1011000080720A600A6842F001020A60D1F8402445
:1011100042F00102C1F840240221216010BD844642
:1011200041610020CCE906327047B0B543684EF209
:10113000801E40F65C1CCEF2000E59691B6A002925
:10114000C2F2002C0ED44A0901F01F04012505FA51
:1011500004F44EF82240BFF34F8FBFF36F8F00228D
:101160004CF82120996B00290ED44A0901F01F0484
:10117000012505FA04F44EF82240BFF34F8FBFF368
:101180006F8F00224CF82120D96B00290ED44A0918
:1011900001F01F03012404FA03F34EF82230BFF3D9
:1011A0004F8FBFF36F8F00224CF8212081680022FF
:1011B0000260C3688B60816800204A63B0BD8168AB
:1011C0004FF000420A6181684A6181688A610022A9
:1011D00081684A62816800208A6270472DE9F04385
:1011E00083B01646044602F00309002001904FF038
:1011F000FF3000906A4620463346884613F02AFCAA
:10120000A268156B019FAFB90421300758BF0221B6
:10121000B007009802F14C0203D4494402EB81016B
:1012200007E042F8210041F00101A26802EB8101D0
:101230004C31086070060CD4022E39460FD1394665
:101240006FB16A4601232046414613F003FC019921
:1012500005E0A068016C41F480010164394625F481
:101260004030B9F1010F18BF40EA074525F0407240
:10127000A368B9F1000F4FF0000018BF42EA016502
:101280001D6303B0BDE8F08380B54168D0F808E085
:10129000096AD1E904C38A6943F00043CEF81430E7
:1012A00042F0004283689A614CF000438268136107
:1012B0008268CB69536282680020096A916280BDAE
:1012C000F0B58068426E01328A60D0F82CC04EF2D0
:1012D0002000C4F201000268007942EA000300F035
:1012E0000F001B0702F00F0308D440F23032C2F2A5
:1012F0000022126802FA00F0D8401BE000F0070E4E
:10130000032707FA0EF440F2303EC2F2002E012508
:10131000082838BF05FA00F402F00700DEF8006084
:1013200007FA00F006FB04F7120758BF05FA03F0AE
:10133000B7FBF0F0CCF3C352012320FA02F20020F5
:10134000C1E90032F0BD2DE9F04782B00D46097CBD
:10135000814642F2000307295FEA9F9202614F46ED
:10136000287CC4F2320301220024D5F820A04FF0DB
:10137000004803EB002047F8080F02FA01F07860FC
:1013800047F8045CA869F860E86978613C61EFF3AC
:10139000108682F31088287C43F21001C4F22001E9
:1013A00028FA00F00A6822EA00000860086896201F
:1013B0000121FFF740FC86F310884FF4254138687F
:1013C00001603868C4623868C46338688464286817
:1013D000A968032838684FEAC1516A6808BF01F557
:1013E0008031C1623868C0F810803868C0F8148055
:1013F0003868C0F818803868446238688462386891
:10140000DAF82410C1613868DAF828100162511E38
:1014100038688166386841664FF0FF302968DAF82D
:1014200044800129019400900DD029B968684FF0DB
:10143000FF3101EB500006E0E9686A4600234846A8
:1014400013F008FB00983968486539688865296891
:10145000042903D33968C86539680866DAF8440096
:101460000028019837D19AF80010B1B12A68DAF84B
:101470000410022A03D0032A03D1032205E0092223
:1014800003E00922002908BF06220B0143EA81116B
:10149000114441EA080141F480789AF80810D1B16A
:1014A0002A68DAF80C10022A04D0032A05D14FF476
:1014B000403208E04FF4102205E04FF410220029DA
:1014C00008BF4FF4C0220B0543EA8151114441EAA1
:1014D000080141F08078396800228A633968C1F8D0
:1014E0008820DAF8441031B9DAE90B12490341EAED
:1014F000427148EA010839684FF4AA020A6429686F
:10150000012904D139680022CA6439680A65D9E919
:101510000212CA60D9F80810C1F834800104D9F861
:10152000082041EA0060C11C013011634A46D9F825
:1015300008100863697C686933F0B6FE9AF83410C5
:10154000DAF838004A4633F0AFFE9AF83510DAF888
:101550003C004A4633F0A8FE45F254010020C0F298
:101560004701C9F8001002B0BDE8F08783684A1E41
:101570009A6643681B684BB9D0F808C04FF0FF3338
:1015800003EB5101CCF85410836899658168CB6AEC
:10159000DB0707D14A664FF4AA0281680A64D0E9E2
:1015A0000210C86000207047014682680020C968A8
:1015B000D1607047014682680020C9685160704759
:1015C0008268D06A00F0010048600020926C0A60D6
:1015D0007047014682680020C968916070470146E3
:1015E0004068002817D44EF2801C00F01F0240090A
:1015F000CEF2000C012303FA02F24CF82020BFF3D4
:101600004F8FBFF36F8F486840F65C12C2F2002222
:10161000002342F82030002000220A607047406812
:101620004EF2801300F01F014009CEF200030122A8
:1016300002FA01F143F820100020BFF34F8FBFF3EF
:101640006F8F704740684CF20031C4F200014EF2D7
:10165000001CCEF2000C51F8202022F4803241F818
:10166000202051F82010410900F01F0001220CEB4E
:10167000810302FA00F0BFF35F8FC3F880014CF8DA
:1016800021000020704770B546F2000C4B68C4F290
:10169000000C43600CF5C64E024600245EF82300A1
:1016A0004EF823400B784D69D5608D691561137232
:1016B00003F80C400B7B0C7C0D7A167A1B0143EA75
:1016C000C4132B4306F80C3053684EF823005068BF
:1016D00000280CD44EF2004340F65C164978CEF256
:1016E0000003C2F200260901C15446F8202044F24A
:1016F00055310020C0F24901116070BD0146002043
:1017000000220A60704780B545F25422C5F24F02AC
:101710000260084633F02EFE002080BD70B586B012
:1017200001A8049003A814460D46CDE90121012625
:10173000ADF80C6006F0C0F840F6B400EFF310818D
:10174000C2F2002086F3108802683AB940F61452BB
:101750000023C4F240021370402313700268013268
:10176000026081F31088E10340F600014FEA152280
:10177000C4F2400101D4EBB20CE001EB8216EBB2F3
:1017800056F8235025F4803546F8235024F480354C
:1017900046F8235001EB8211012241F82340EFF378
:1017A000108182F31088026812B10268013A026067
:1017B000006838B940F614500022C4F240000270AC
:1017C0008022027081F31088002006B070BD4FF4B3
:1017D000FF50042300EAD100C4F24003C9B2C0584C
:1017E0000023CFF6FF7343EA104020FA01F10020F6
:1017F00001F001011160704780B5C8B24FF0010CD3
:10180000531E0CFA00F050EA138E4FF4FF5C0C23C9
:101810000CEAD101C4F24003012A18BF0020012ABA
:1018200041EA030CCA5808D180B24FF6FF7141EA71
:101830000E41104300EA010205E042EA0E41CFF6F4
:10184000FF7001EA00020020CCF8002080BD6FF09C
:101850003F00CBB200EA910040F6000100EB8300AC
:10186000C4F2400141580020C1F3400111607047AB
:1018700080B55FFA81FE012000FA0EF0002A83B2E3
:101880004FF4FF5040F208024FF4803C00EAD101CF
:10189000C4F240024FF0000008BF0CFA0EF38B5068
:1018A00080BD80B5084633F065FD002080BD80B561
:1018B0004FF4FF5040F2000C00EAD101C4F2400C9A
:1018C00003EA020E62EA030251F80C004EEA000E2F
:1018D000002002EA0E0241F80C2080BD4FF4FF50B8
:1018E00000EAD1000421C4F2400141580020090C53
:1018F0001180704723EA020C4FF4FF501A400C236A
:1019000000EAD101C4F24003002042EA0C42CA506E
:1019100070474FF4FF50042300EAD101C4F24003A2
:101920000020C9581180704723EA020C4FF4FF5081
:101930001A40082300EAD101C4F24003002042EA21
:101940000C42CA50704700002DE9F04146F20415E0
:101950008046C4F2340511F0C5F8D8F80C10286898
:1019600020F00100286040F628000322C2F2002087
:101970000260497BD5F81C22C2F3C0628A421CBFB8
:101980000268002AF6D100250560D8F80CC00126AF
:10199000DCF874104A6802F01F0354094EF28012FA
:1019A00006FA03F3CEF2000242F8243040F65C134C
:1019B000BFF34F8FBFF36F8F4C68CF68C2F2002325
:1019C000780907F01F0743F8245006FA07F742F892
:1019D0002070BFF34F8FBFF36F8FC8684F697C09CA
:1019E00043F8205007F01F0006FA00F042F82400E8
:1019F000BFF34F8FBFF36F8F4869CF697C0943F8FE
:101A0000205007F01F0006FA00F042F82400BFF350
:101A10004F8FBFF36F8FC8694F6A7C0943F820501E
:101A200007F01F0006FA00F042F82400BFF34F8FC2
:101A3000BFF36F8F486ACF6A7C0943F8205007F0E4
:101A40001F0006FA00F042F82400BFF34F8FBFF3E7
:101A50006F8FC86A43F82050DCF80000006833F04C
:101A6000EBFC43F20800C8F80050C4F22000EFF38A
:101A7000108486F31088016841F480610160006879
:101A800096200121FFF7D7F884F310880020BDE8E5
:101A9000F081F0B546F2C0504FF65022C4F2340047
:101AA000CFF6FF728358DB0714D18258D20611D4C7
:101AB00091F800C04A6802F00F058C89092D00EBEF
:101AC000CC1303F5E07307D35FFA84FE250A4FF0C9
:101AD000807710E00820F0BD34B10D69012C95F835
:101AE00000E006D1002702E000274FF0000E00259D
:101AF00001E06D78002702F03F024EEA05250CF068
:101B000003048E6845EA024206F0400542EA845228
:101B10003A4306F0030742EAC54206F0200542EACE
:101B200087621A606A04360702F180724FF0140669
:101B300008BF6A04002D08BF6A04002F4FF08077A9
:101B400008BF1026C3E90172BCF1000F5FEA1F97BE
:101B50008A59DA600760097801295FEA1F910164F8
:101B60000020F0BD2DE9F04188B043F25042C4F2AC
:101B700034021268520601D41E204AE10D4640F696
:101B8000280840F650110446C2F20028C2F2002193
:101B90000020C8F800000870E560EFF3108601200F
:101BA00080F3108843F20800C4F22000016821F499
:101BB00080610160006896200121FFF73CF886F300
:101BC00010882968D1E9000133F04CFC002840F06E
:101BD000208146F20017C4F23407386840F4807060
:101BE0003860386940F00100386100BF786900F062
:101BF0001F001F28FAD1E87A013840F4407038609D
:101C0000287BB96821F0FF010844B86095F82C00E2
:101C1000298D2A6B95F8343002F00F0241EA00401A
:101C200095F8351040EA025095F8362040EA4370A6
:101C300040EA817040EAC27038626868D0E90021E9
:101C4000090480683FFA81F162F38B0141EA006088
:101C5000C7F814026868C0686FF39F20C7F81802BD
:101C6000E869C7F81001286AC7F81401686AC7F85C
:101C700018012869C7F8E0016869C7F8E401A86994
:101C8000C7F8E801284610F0D3FE6E6F306BC7F836
:101C90000801706BC7F80802B06BC7F82802F06B38
:101CA000C7F8180346F2D450316CC4F234004160D6
:101CB000716C416440F21011C7F609510160016472
:101CC0000B204EF20751C0F2D000C5F2F771C7F8F1
:101CD0001403C7F804110020A061D5E91B01C4E971
:101CE00004013046214610F0C3FE06F108002146EB
:101CF00010F0BEFE06F11000214610F0B9FE06F10C
:101D00001800214610F0B4FE06F12000214610F024
:101D1000AFFE06F12800214610F0AAFE44F644105A
:101D20000322C4F650502060E068396841F48071A5
:101D300039600121C8F80010417B002908BF012249
:101D40007A60407BD7F82012C1F3806181421CBFCA
:101D5000D8F800100229F5D10220C8F8000095F843
:101D60003700A96B95F83C200023C003C7F6FF732A
:101D700061F3154062F39750C7F8200395F84410BB
:101D8000286CAA6C6FF31F3003EA024240EAC130AC
:101D90001043C7F82803D5E913016FF35F3061F3EF
:101DA0001C40C7F82C0395F85800E96D6A6D03EAEA
:101DB00001416FF31F3242EAC0300843C7F83003D5
:101DC000D5E918016FF35F3061F31C40C7F83403A5
:101DD000A86E43F6FC7101EA8000C7F80403A0690D
:101DE000062100916169039150B10DF1100C90E84A
:101DF0008E008CE88E009DE88E0080E88E0000E06A
:101E0000684621698847A06910B104AF8ECF8EC0A3
:101E1000002008B0BDE8F08110B588B004468069A4
:101E20004FF0070100916169039150B10DF1100E5F
:101E300090E80E108EE80E109DE80E1080E80E104F
:101E400000E0684621698847A06928B10DF1100CAF
:101E50009CE80E1080E80E1046F200404FF610414C
:101E6000C4F23400CFF6FF714258D2071DD1415859
:101E7000C9061AD4E1680A7A4B7A897A120242EAD0
:101E8000432242EA81210131016040F65011C2F241
:101E9000002100BF0269120703D40A780AB92FF0A3
:101EA00007C801200870002000E0082008B010BD1D
:101EB0004FF6F05046F22022CFF6FF70C4F2340203
:101EC0001058086010684860002053688B60936069
:101ED000704780B510F006FE002080BD10B511F0EF
:101EE000020C024606D0107900285FEA1F904FEAE4
:101EF000007E01E04FF0000E137950794CEA030C9C
:101F000001F0010343EA00040028704608BF40F0D6
:101F10008070002B936850EA1E8E43EA010046F25F
:101F20000C139060C4F23403BCF1000F5FEA0F9110
:101F3000002054711171C3F800E010BD70B511F0AC
:101F40000203024601D1002001E010794007002B76
:101F500053795FEA1F9C11F0010E157906465FEA7E
:101F60001F94002B18BF46F00076BEF1000F50EA18
:101F70000680002B5FEA0F93002D5FEA0F96234047
:101F800053710CEA060346F20C16C4F234061371C0
:101F900030600020936823EA0101916070BD84469F
:101FA000C1630020CCE91032704700002DE9F041F8
:101FB0000D460978044648F20000C4F235000026B8
:101FC00000EB012020612560A8686060E868A060DF
:101FD000E86AE063286B606426640120EFF31087F1
:101FE00080F310884FF00041287821FA00F043F286
:101FF0000401C4F220010A6822EA000008600868AF
:1020000096200121FEF717FE87F3108820682169CA
:10201000406B8E60216900BF0A7F0AB12FF005C0B6
:10202000027948F21813C0F207034EF6185C63F306
:102030005F120A628168226940F20023CEF2000C2E
:10204000C0F2040340F65C1E43EAC11151610178FD
:10205000C2F2002E42784FF001088378C77812024E
:1020600042EA0141226941EA035141EA0761043130
:102070001161407921694FF0805242EA0060C860E6
:1020800020691021C9F60351816608212069C166C3
:102090004EF20010AF69CEF2000007F00F0100F51C
:1020A00040732A7C0E1FD919002F48BF06EB0C0184
:1020B00012010A704CF200324EF82740C4F20002BE
:1020C000790952F8276026F4803642F8276052F8E2
:1020D000276000F5C07607F01F07BFF35F8F08FA8F
:1020E00007F746F8217040F82170E9692D7C01F06E
:1020F0000F070B44043F002948BF07EB0C032F01D7
:102100001F704EF8214052F8213023F4803342F8FA
:10211000213052F821204A0901F01F01BFF35F8FDF
:1021200008FA01F146F8221040F822100020C4E914
:10213000080040F27D31C4E90A0084F8350084F8D3
:10214000360084F8370084F838000020E160BDE8EC
:10215000F08180B580F8363001233BF03FFD002050
:1021600080BD03460020C3E90112704780B580F8A6
:10217000363000233BF032FD002080BD2DE9F04FCA
:1021800081B00A784FF0010C40F21F2304460CFA8C
:1021900002F748F200001F42C4F235005FEA0F93D5
:1021A00000EB0220A278206218012070886B606228
:1021B00022F00300D1E90F38421CA2704A680D4694
:1021C000002AE362E1614FF00002A26202D140F016
:1021D0000200A0704EF20019E96ACEF200094A0925
:1021E00009F1800001F01F034CF2003A95F828B085
:1021F0000CFA03F340F82230C4F2000A01F00F0396
:10220000BFF34F8FBFF36F8F5AF821201F1F09F5BF
:1022100040734EF6185E22F480324AF82120CEF246
:10222000000E5E185AF82120002948BF07EB0E0661
:102230004FEA0B1240F65C1B3270C2F2002B6A6947
:1022400002F01F062F7C4BF8214051090CFA06F6CC
:10225000002A40F8216002F00F06BFF34F8FBFF352
:102260006F8F5AF8221021F480314AF82210A6F11B
:10227000040103EB020648BF01EB0E065AF82210D8
:1022800039013170E9694BF822404A0901F01F0712
:102290002E7E0CFA07F740F8227001F00F07BFF30B
:1022A0004F8FBFF36F8F5AF82120002922F480321C
:1022B0004AF82120A7F1040203EB010748BF02EB13
:1022C0000E075AF8212032013A706A6A4BF8214011
:1022D000510902F01F0795F820600CFA07F740F843
:1022E000217002F00F01BFF34F8FBFF36F8F5AF8C9
:1022F0002200043920F480304AF8220013445AF8AE
:102300002200002A48BF01EB0E03300118704BF881
:102310002240EFF310868CF3108828784FF00041AC
:1023200021FA00F043F20401C4F220010A6822EA13
:1023300000000860086896200121FEF77CFC86F307
:1023400010884FF48061206A4FF440738160286CDC
:102350006968EA6803EA0121D0E900C762F38E31B7
:10236000C66907F0010306F001020CF0030741EA19
:10237000C333266A43EA4252237842EA076241F2B3
:102380000007C0F21007C168002B08BF4FF4805748
:102390003A447261026822F00103022B07D14FF622
:1023A0000471022ACFF6007108BF203100E00968ED
:1023B000226A4FF4407711618169AB68826801F04D
:1023C0000301022B02F0010208BF4FF48077002BBB
:1023D00018BF3944236A41EA02713031D9600021C3
:1023E000226A91612278B2B1226A48F20003C0F2F7
:1023F00080035362E2692378276A126C013B1269F9
:102400007E6A1A4003F00F0302F00F0246EA0363EC
:1024100043EA02427A6290F82520036A90F8240089
:1024200003F0010302F01F0260F30C23206A43EA69
:10243000024202631022206AC4E90511C4E90311B3
:10244000C9F60752D8F81410A16082660120216AEB
:102450000867E1694A6953095AF8221021F480316A
:102460004AF822105AF8221009F5C07102F01F0232
:10247000BFF35F8F00FA02F241F8232049F82320CE
:10248000E269D26A5AF8223023F480334AF82230C3
:102490005AF82230530902F01F02BFF35F8F00FA8F
:1024A00002F241F8232049F82320E269D2695AF860
:1024B000223023F480334AF822305AF8223053096C
:1024C00002F01F02BFF35F8F00FA02F241F82320EF
:1024D00049F82320E269526A5AF8223023F4803303
:1024E0004AF822305AF82230530902F01F02BFF393
:1024F0005F8F904041F8230049F8230040F21141DA
:10250000206AC0F201018160206A00BF017FC90713
:10251000FCD044F642110020C5F24331616001B0A5
:10252000BDE8F08F00F088F8FEF7B4FAFEE700008F
:10253000B0B510F0C7F910A036F0B5FF00244FF683
:10254000FF754EF62560C6F62004C0F2DF15C0F216
:102550000E20102321462A4636F0A5FF0BA036F0A8
:10256000A2FF43F264400BA1C2F2002022462B4698
:1025700037F0D0F90020B0BD1B5B306D5B442F6499
:1025800072765F736472616D5D2000001B5B306D5D
:102590000A000000736472616D00000080B536F0BF
:1025A00048FF39F00BFEBDE8804036F065BF4EF2C3
:1025B0002401C4F201018878097801F00F010A2989
:1025C00011D009291DD0082929D143F2D451C2F2D2
:1025D000002151F820004AF6AB21CAF6AA21A0FB3F
:1025E0000101480822E043F2D451C2F2002151F81F
:1025F00020004AF6AB21CAF6AA21A0FB0101C808B7
:1026000014E043F2D451C2F2002151F820004AF6FE
:10261000AB21CAF6AA21A0FB0101880806E043F21B
:10262000D452C2F2002252F82000C84040F23031A9
:10263000C2F20021086070472DE9F0414EF60858BB
:1026400040F20120CEF20008C0F20E0040F2000578
:102650000024C8F80C004FF47000BFF34F8FBFF395
:102660006F8FC8F880000020C0F20025C8F8005025
:10267000FEF703FB05F008F801200126FEF7FDFA3E
:10268000286843F20431A0F5005080F30A8840F234
:10269000D020C0F20001C2F20020FEF7C1F840F2E3
:1026A000000040F20C4140F2CC22C2F20020C0F205
:1026B0000F21C0F20002FEF74FF840F2E06740F24F
:1026C000E06140F2E06C40F2E063C0F20F27C0F23C
:1026D0000F21C0F20F2CC0F20F23C91B40F20005DE
:1026E000A3EB0C03C908C0F2000541F007C800BF06
:1026F000F7E80201E5E802010FF007C0D80840F250
:10270000000140F20003C2F20001C2F2000340F2F5
:102710000007C2F200075D1A40F009C000BF00BF09
:10272000FCE80223E7E802230FF007C0E80825468B
:1027300040F007C000BF00BFE1E802450FF005C050
:10274000BFF34F8F40F2C01540F2C010BFF36F8F40
:10275000C8F84842C0F20025C0F20020BFF34F8FF6
:10276000401BBFF36F8F8110012909DB2F46C8BFC3
:10277000861000BF57F8040B28448047013EF9D16A
:10278000FFF715FFFEF7CAF90320FEF706FA4FF030
:10279000100E40F63050C4F2400000BF20F8044B49
:1027A0000FF005C04EF210140320C4F20104FEF72E
:1027B0001BFAD4F8C80210B1D4F8C80212E020788D
:1027C00080B10120FEF7E9F9207800F0C0008028F0
:1027D000FAD10020207000BF20783F28FCD80120CB
:1027E000FEF702FA0220FEF748FA05F04BF8002047
:1027F000BDE8F04105F044B880B582B039F0BEFACA
:10280000C06A0190019880F30B8802B080BD00007F
:102810004EF60C500422CEF20000C0F2FA52BFF382
:102820004F8F016801F4E06111430160BFF34F8FE6
:1028300000BFFDE790FAA0F10028B1FA81F150EA5B
:1028400001907047B0B5054639F098FA90B104464A
:1028500009A036F028FE0DA021462A4636F023FEB8
:102860000FA036F020FE012100222046BDE8B04036
:1028700039F03CB8B0BD00BF1B5B33336D5B572FE5
:102880007374646C69625D20000000007468726596
:1028900061643A257320657869743A2564210000E3
:1028A0001B5B306D0A000000B0B515460C465BB9E5
:1028B00040F69041C2F20021D1F8D8201AB1294641
:1028C0009047034600E00023142D03D103EB53008F
:1028D0006043B0BDE91F03FB04F0CAB2032A88BFFE
:1028E000B0BD022A07D842F6207249B2C0F20422D3
:1028F00052F8211001E04FF480610844B0BD70B57A
:102900004EF22003C4F20103D3F800E01B794EEA33
:10291000030C03F00F035FEA0C720EF00F0C08D4E7
:1029200040F23032C2F2002212689A4022FA0CF2CF
:1029300019E003F00702032404FA02F20125082B30
:102940000EF0070638BF05FA03F240F23033B44008
:10295000C2F200231B685A435FEA0E7358BF05FAA0
:102960000CF4B2FBF4F24CF60023C240C3F69A33E7
:10297000A1FB03C100236046FDF74AFD70BD70B5A1
:102980004EF22003C4F20103D3F800E01B794EEAB3
:10299000030C03F00F035FEA0C720EF00F0C08D467
:1029A00040F23032C2F2002212689A4022FA0CF24F
:1029B00019E003F00702032404FA02F20125082BB0
:1029C0000EF0070638BF05FA03F240F23033B44088
:1029D000C2F200231B685A435FEA0E7358BF05FA20
:1029E0000CF4B2FBF4F222FA00F04CF60022A0FB49
:1029F0000101C3F69A320023FDF70AFD70BD000005
:102A00004868082809D8DFE800F00A050805050825
:102A1000050527000420A1F8500000207047C86C6D
:102A200090F82F205207F5D0024612F824CF937A5F
:102A300003EB83031A4412F8053D9C450AD192F832
:102A400002C090F82630634504D1527890F82500F2
:102A50009042DFD000BFE0E7C86C90F82F2052070B
:102A6000D8D0024612F824CF937A03EB83031A449A
:102A700012F8053D9C45D0D192F802C090F826305E
:102A80006345CAD1527890F825009042C2D0C4E77D
:102A900000F11C050446284630F006FB03260027FB
:102AA000A06918B9284630F017FBF9E741680829F2
:102AB00032D8DFE801F0050C31131A3121262D0040
:102AC000C16C00F1080220461BF0EAF924E0C16C59
:102AD00000F1080220461AF057FD1DE0C16C00F11C
:102AE000080220461BF00EFD16E0C16C00F1080242
:102AF00020461BF06BFC0FE0C16C20461BF013FD61
:102B00000AE0C16C00F1080220461AF0B5FB03E0B0
:102B1000C16C20461BF0CCFDA0698664A7611CF047
:102B200016F8BDE789B225F041B9B0B540F690443A
:102B30005821C2F2002404F1AC0002F019FC47F263
:102B400049402121C0F200200022002530F030FB56
:102B5000C4F8A80004F060FCA4F8A450B0BD2DE9AE
:102B6000F0439368D1F800C09C450DDC1468D1F89F
:102B700008E0A64508DBD2F80C904D684D4503DC13
:102B80005768CE68BE4203DAFF2358B2BDE8F0832F
:102B9000A445A8BFBD4203DB9E45D8BF4E4551DDCD
:102BA000AF42A6EB050608DDC0E900C50123C0E978
:102BB00002E7D2F80C904D6800E00023A6EB090470
:102BC0002C44012C12DBCC68A1450FDA05EB06087A
:102BD00000EB03161F010C688D68C6E90195C4510E
:102BE000C6F80C8001334D68D2F80C90CE6854685A
:102BF000AC4254EAC5880F68B14559EAB6891568F0
:102C0000AEEB0C04BD42C8BFC1450BDD00EB0316A3
:102C10004FEA031C013340F80C70C6F80C90C6E96B
:102C200001850F689168621A3A44012AADDB00EB16
:102C300003121E01013327448151C2F80C90C2E9EE
:102C40000187A2E70023A0E770B51468D2E9015616
:102C5000D26891E80850C968A34253EAC483AC45DE
:102C60005CEAC585B6455EEAB686914251EAB28213
:102C7000C0E90035C0E90262B3425FEACF919542F4
:102C80005FEACF942140084670BD2DE9F04383B040
:102C90000C46096807688F422FDB616846688E42E0
:102CA0002BDBA168D0F80890894526DCE168D0F8D4
:102CB0000C80884521DC15461AB301A920462A4616
:102CC000CDE9017600F073F8B8B101A920462A4693
:102CD000CDE9019600F06BF878B101A920462A46AB
:102CE000CDE9017800F063F838B101A920462A4601
:102CF000CDE9019800F05BF800E0002003B0BDE8EA
:102D0000F0830120FAE78A68036893420BDC0A68C3
:102D10008368934207DBCA684368934203DC4968CF
:102D2000C068884201DA00207047012070472DE911
:102D3000F04383B00C46096886688E420DDB6168FB
:102D4000C7688F4209DBA168D0F80080884504DCA1
:102D5000E168D0F80490894503DD012003B0BDE8A7
:102D6000F0831546BAB101A920462A46CDE901896A
:102D700000F01DF878B901A920462A46CDE901697D
:102D800000F015F838B901A920462A46CDE9018797
:102D900000F00DF808B10020E0E701A920462A461E
:102DA000CDE9016700F003F880F00100D6E72DE9D6
:102DB000F04105680B68AB420BDBD0F808C06345F7
:102DC00007DCD0F804E04968714502DBC468A14221
:102DD00002DD0020BDE8F081012A32DBACEB05000A
:102DE000A4EB0E060130013600EBD07006EBD67670
:102DF0004FEA60087710B8EB660FB8BF47109742EC
:102E000057EAB280054400EB0E02AB42D8BF9142B4
:102E100008DDAB42A4EB00060FDCB1420DDB014440
:102E2000091B00E0891A40435A1B494302FB021167
:102E300081425FEA8F90BDE8F081ACEB0004A342D1
:102E400002DA0120BDE8F081B14214DA9142F8DCE7
:102E5000201AACEB000202EBD272571000EB6200BA
:102E60000EEB6202181A891A07FB07F2494300FBAE
:102E700000109042DDE7221A0844ACEB020707EB92
:102E8000D7777D1006EB670102EB6702401A05FB5E
:102E900005F19A1A404302FB02008842C9E770B567
:102EA00092E8700091E80850D268C968A34253EADA
:102EB000B483AC455CEAB585B6455EEAC686914208
:102EC00051EAC28180E86800C16070BD10B543F26C
:102ED0005851C2F20021096828B1481C002202287A
:102EE00052EA819003E0481E002908BF022043F205
:102EF0006801C2F200210C783EF0C2FC012C18BF20
:102F000010BDBDE8104001F023B800000E2801D923
:102F10000020704701A151F82000704730FF0E02D9
:102F200044FF0E02C8FF0E029BFF0E0244FF0E027A
:102F3000C8FF0E02C8FF0E02DCFF0E02DCFF0E020D
:102F4000DCFF0E02DCFF0E02DCFF0E02DCFF0E02D5
:102F5000DCFF0E02DCFF0E020D2801D900207047B5
:102F600001A151F8200070470DFF0E02FAFE0E027B
:102F7000DBFE0E02EDFE0E02EDFE0E02EDFE0E0277
:102F8000EDFE0E02EDFE0E02EDFE0E02EDFE0E0255
:102F9000EDFE0E02EDFE0E02EDFE0E02EDFE0E0245
:102FA0000D2801D90020704701A151F82000704779
:102FB00075FF0E0260FF0E02D1FF0E0219FF0E0216
:102FC000A6FF0E02EBFF0E028BFF0E02BEFF0E02EB
:102FD00051FF0E0222FF0E02B6FF0E02B6FF0E02D6
:102FE000B6FF0E02B6FF0E020D2801D90020704771
:102FF00001A151F8200070474A0000009200000033
:1030000072000000900000009D000000D50000004C
:1030100074000000D30000008C0000008B00000052
:103020008C0000008B0000008C0000008B00000072
:10303000B0B540F68C420D46C2F20022014610683F
:1030400028F0F5FF0021044628F0F1FF002D054689
:103050004FF001010FD0204627F070FE4BF60041E3
:103060002846C0F2042124F0B5FE01212046BDE827
:10307000B0402BF06BBF20462BF080FD4FF2782143
:103080002846C0F20421BDE8B04024F0A3BE0000F1
:103090002DE9F04F8BB043F234480546C2F20028C8
:1030A00040462EF060F8042140462EF0F1F9FF2151
:1030B00040462EF0D8F84EF6EE614046C0F2EE01E2
:1030C0002EF0C3F847F6FF7140462EF0A7F9042111
:1030D00040462EF02FF943F20446C2F20026304655
:1030E0002EF041F8002130462EF0BDF842F63C713A
:1030F0003046C0F204212EF0DBF842F64C71304627
:10310000C0F204212EF0DCF8012130462EF0D4F874
:10311000022130462EF0E0F8142130462EF00AF954
:1031200043F22846C2F2002630462EF01CF8FF215A
:1031300030462EF098F844F665173046C0F24C073A
:1031400039462EF082F843F21046C2F2002630468D
:103150002EF009F8FF2130462EF085F8304639462A
:103160002EF073F843F21C46C2F2002630462DF0D2
:10317000FAFF662130462EF07BF9662130462EF0AC
:10318000A7F843F24C47C2F2002738462DF0EBFF78
:1031900048F6D0363846C0F20E2631462EF060F999
:1031A0006FF07F4138462EF056F943F2F837C2F2FD
:1031B000002738462DF0D7FF48F688313846C0F250
:1031C0000E212EF04DF94BF2BE013846C0F2B1018E
:1031D0002EF041F943F24047C2F2002738462DF065
:1031E000C2FF384631462EF03BF96FF07F4138463A
:1031F0002EF031F9284628F0D6FA40F68C4447F2F2
:103200005941C2F20024C0F2012123220023206090
:1032100027F03AFD20682BF058FD256819F04AF890
:1032200019F059F8064619F045F819F0CBF8A0F155
:103230001402284631462CF05AF9206814212CF04B
:1032400091FA20684FF48032414627F08BFD2068C8
:1032500001212BF08CFF0020FFF7A2FE002800F0D8
:10326000EB80642403AEC2F2000401274FF0000992
:1032700040F68C40A7F1010BC2F2002005685846C9
:10328000FFF7B2FE48F68901C8F68801A0FB0112DB
:1032900053091901A1EB52116FA2A0EB810020216B
:1032A000009030462DF0A7FC5846FFF779FE824685
:1032B0005846FFF72BFE0646284628F074FA80464B
:1032C0002BF003FD3C22404621462CF010F943F23E
:1032D000044100224046C2F2002127F043FD43F2A0
:1032E000284120224046C2F2002127F03BFD43F254
:1032F000104101224046C2F2002127F033FD43F283
:103300001C4180224046C2F2002127F02BFD47F6E7
:103310009511072200234046C0F2002127F0B4FC9B
:10332000BBF1030FA34603D38021404627F006FDDF
:10333000404624F005F94FF278210546C0F20421F9
:1033400024F048FD0021002201230220029028469B
:1033500001240094CDF804902BF021FF404625F085
:1033600057FE5146054626F082FE00210122012328
:1033700028460094CDE901942BF011FF43F24C4113
:1033800000222846C2F2002127F0ECFC404625F03E
:103390003FFE3146054626F06AFE43F2F831002230
:1033A0002846C2F2002127F0DDFC00210122012382
:1033B00028460094CDE901442BF0F1FE404625F06B
:1033C00027FE03AE0546314626F051FE43F240414A
:1033D00000222846C2F2002127F0C4FC022102226A
:1033E00001230220029028460094CDF804902BF08F
:1033F000D6FE404624F0A4F844F230410546C0F21F
:103400000C2124F0E7FC0BF1140128462CF07EF986
:10341000052100220023284627F03AFD4FF4003111
:10342000284627F043FC3846FFF7BAFD07F10107AD
:103430005C4608B12FF0E5C040F68C440321C2F28F
:10344000002420682CF030F800200121FFF7F0FD67
:1034500020680BB0BDE8F08F25753A253032750035
:103460002DE9F04F9FB028F09EF942F6E06402216A
:10347000C2F2002420602BF015FB206820212BF0E5
:1034800011FB20682BF021FC64212068C2F20001AE
:103490000A4688462CF02BF8206803212CF004F80B
:1034A000206828F080F96FF0130181462CF05AF95A
:1034B00018F000FF18F00FFF054618F0FBFE18F09B
:1034C00081FF282101EB4002484629462CF00FF8E5
:1034D0004FF4805148462BF0E5FA6FF07F4100220F
:1034E00048462CF02CF80021002248462CF047F8E2
:1034F0000021002248462CF0C6F800210022484650
:103500002CF0C7F80021002248462CF0CEF800210C
:10351000002248462CF0B1F80C2148462BF0A1FFC0
:10352000206828F040F907462BF0CFFB02213846EF
:103530002BF0B8FA206828F036F906462BF0C5FBC8
:10354000022130462BF0AEFA206828F02CF905460F
:103550002BF0BBFB022128462BF0A4FA18F0AAFEA0
:1035600018F030FF0246384641462BF0C0FF0021DC
:1035700038462CF0F7F818F09DFE18F023FF0246AD
:10358000304641462BF0B3FF18F094FE18F01AFFB6
:10359000014630462CF0E6F818F08CFE18F012FFC9
:1035A000A0F12802284641462BF0A1FF18F082FE28
:1035B00018F008FF14221421089102EB400128465C
:1035C0002CF0D0F820682CF021F9484623F0B8FF01
:1035D0004BF278010546C0F20D2124F0FBFB18F0F8
:1035E00069FE18F078FE014628462CF08FF802217B
:1035F00000220023284627F04BFC4FF400312846D8
:1036000027F054FB484623F09BFF4FF6E051054658
:10361000C0F20C2124F0DEFB18F04CFE18F05BFE2B
:10362000014628462CF072F8052100220023284686
:1036300027F02EFC4FF40031284627F037FB484690
:1036400023F07EFF47F2C0110546C0F2062124F0A8
:10365000C1FB042100220023284627F019FC4FF467
:103660000031284627F022FB484623F069FF47F245
:10367000E8610546C0F2062124F0ACFB06210022D9
:103680000023284627F004FC4FF40031284627F099
:103690000DFB484628F087F804462BF016FB40F255
:1036A000D1712046C2F200012BF0BBFD0121204662
:1036B0004FF0010B2BF05BFD00210222022320467C
:1036C0002BF03DFD2046254625F0A2FC43F2505448
:1036D00048F6D036C2F20024C0F20E26002231464F
:1036E00020602BF0F5FF44F66D5A2068C0F2500AB6
:1036F000002251462BF0E5FF43F258582768C2F2EA
:103700000028D8F80000FFF74BFC0146384626F0A9
:10371000AEFCF06800EB400000EBD071206849106F
:103720002BF07FFD28462E46079525F071FC40F2D0
:103730003C7448F68837C2F20024C0F20E270022FB
:10374000394620602BF0C4FF2068002251462BF040
:10375000B8FFD8F800002568FFF7D8FB01462846D7
:1037600026F085FC304625F053FC40F65414002228
:10377000C2F20024394620602BF0AAFF48F2B8615B
:103780002068C0F28A0100222BF09BFFD8F80000CD
:103790002568FFF7E1FB0146284626F068FC48460D
:1037A00028F001F880462BF090FA40F2D1744046A0
:1037B000C2F2000421462BF034FD002140462BF0DC
:1037C000D6FC03210222022340462BF0B8FC4046DF
:1037D00023F0B6FE41F6D071C0F20C2124F0FAFAC3
:1037E000404623F0ADFE42F6E801C0F20C2124F081
:1037F000F1FA404623F0A4FE43F20021C0F20C216E
:1038000024F0E8FA404623F09BFE43F61831C0F25C
:103810000C2124F0DFFA484627F0C5FF82462BF042
:1038200054FA504621462BF0FCFC08210022504659
:103830002BF023FF43F2840143F2A402C0F20421DF
:10384000C0F2042250462BF0DAFC504623F078FEFA
:1038500046F6A8010646C0F2062124F0BBFA002174
:10386000012201233046CDF800B00024CDE9014B00
:103870002BF095FC504623F063FE42F6F00106461D
:10388000C0F2052124F0A6FA0221052201233046C8
:10389000CDF800B001940024CDF808B02BF07FFCE7
:1038A000504623F04DFE42F67C410646C0F206210A
:1038B00024F090FA0121022201233046CDF800B015
:1038C000CDE9014B2BF06BFC44F6C5010722C0F299
:1038D00003210023304627F0D7F9504624F04FFB50
:1038E00043F264074CF65456C2F20027C0F2052694
:1038F00000210022334638600024009424F037FC75
:1039000046F630633868C0F2052303210022009494
:10391000002424F02CFC3868082127F0C7F9386807
:10392000012103220123CDF800B0CDE9014B2BF09A
:1039300036FC44F253713868C0F203210722002399
:1039400027F0A2F93868022127F0B0F9B188386869
:103950002BF0DCFE504623F0F3FD43F2082106462F
:10396000C0F2052124F036FA012104220123304659
:10397000CDF800B0CDE9014B2BF011FC44F2DD2174
:103980000722C0F203210023304627F07DF90221EF
:10399000304627F08BF950462CF0E1FE43F23037E9
:1039A0006421C2F20027002238602BF0BCFD386889
:1039B000022127F07BF9386803212BF032FC3868AC
:1039C000032101220423CDF800B0CDE901BB2BF087
:1039D000E6FB4EF664013868C0F20C214FF4403229
:1039E0002BF0C1FD386800214FF440322BF0C1FDAF
:1039F0003E6814214FF4403230462BF044FE14212F
:103A00004FF4403230462BF044FE14214FF4403244
:103A100030462BF04AFE14214FF4403230462BF052
:103A20002CFE386802214FF400322BF096FD49F647
:103A3000F8213868C0F256014FF400322BF07FFDB8
:103A400046F2F1613868C0F2A6014FF400322BF063
:103A50007DFD3868002100222BF009FE41F2AD0601
:103A60003868C0F2012623220023314627F00CF9E2
:103A7000504625F0CDFA43F24C5548F68831C2F253
:103A800000250022C0F20E2128602BF021FE48F212
:103A9000B8642868C0F28A04002221462BF011FE87
:103AA00040F201012868C0F20F2126F0E0FA2868F0
:103AB00002210522012301270097CDE90177012783
:103AC0002BF06DFB286823220023314627F0DCF819
:103AD000484627F068FE06462BF0F7F8FA213046F4
:103AE0002BF09FFB122130462AF0DCFF4EF62D1101
:103AF0000022C0F203210023304627F0C5F83046EB
:103B00002AF0C0FE304603F035FC40F2387143F233
:103B10004C35C2F20021C2F20025086048462E60F2
:103B200027F041FE83462BF0D0F8642140F2D17299
:103B30005846C2F20001C2F200022BF0D8FC01216B
:103B400058462BF014FB02210222022358462BF088
:103B5000F6FA0821002258462BF0A1FD584625F020
:103B600057FAD1A1064626F082FA48F6883100229B
:103B70003046C0F20E212BF0ABFD0022304621462C
:103B80002BF09FFD584627F00EFE14210222064618
:103B90002BF0ADFC0022304621462BF0D0FC00215A
:103BA000002230462BF0EBFC18F084FB18F00AFCE6
:103BB00040F2000242F65871C2F20022C0F2042123
:103BC000506048462BF01BFB0621002248462BF094
:103BD00024FD28680321002201230097CDE9017705
:103BE0002BF0DDFA0321002201230220CDE9010799
:103BF0000798092400942BF0D2FA03210022012314
:103C00000420CDE9010740460094CDF818802BF040
:103C1000C6FA0321002201230620CDE90107504600
:103C20000094CDF814A02BF0BAFA0321002201234E
:103C30000820CDE9010758460094CDF810B02BF0CC
:103C4000AEFA41F2D5704FF47A71C0F2042000222E
:103C50002FF0AEFA43F22831C2F2002108602FF0B3
:103C6000DBFB43F250304FF4FA51C2F20020002245
:103C700007704EF63760C0F203202FF099FA43F236
:103C8000F431C2F20021086001212FF01FFC09ACC1
:103C9000204614F000FC43F2543649F638174EF62D
:103CA000B350C2F20026C0F20E274FF0004541F299
:103CB0007B4A4FF0C80942F2C5084FF4FA7BC0F2C4
:103CC00003200A9018F0F6FA18F005FB37F8021BEB
:103CD000129013950996CA088B0802FB0AF203FB9F
:103CE00008F3520C1B0D02FB191203FB1B1002F50B
:103CF000E161052200F6C41089B280B21590204619
:103D000014924942169114F091FC08980436013837
:103D10000890D7D14FF248484FF47A7140F6B83244
:103D20000798CFF6FF7828F03AF94FF47A7140F609
:103D3000B832069828F033F94FF47A7140F6B83269
:103D4000059828F02CF94FF47A7140F6B8320498AF
:103D500028F025F940F238744FF44871C2F200247B
:103D600040F6B832206828F01AF943F24C360021A8
:103D7000C2F200264FF4FA620027306828F00FF9EB
:103D800041A0CDF858800D9790ED001F48F251509A
:103D90008DED121FC0F2012011902068099042F6AB
:103DA0002530C0F200200A9009A814F03FFC18F05A
:103DB00081FA18F0E4FA23F0C3FB45F248510446B7
:103DC000C0F20C2124F006F8204628F00BFB28B1A5
:103DD00028F073F9411E204629F014FF18F06AFA02
:103DE00018F0CDFA25F014F932A1054626F03FF976
:103DF0000221002228462BF05EFC48F6D03100223A
:103E0000C0F20E2128462BF063FC08210022284630
:103E10002BF064FC4FF4FA714FF4FA62284628F054
:103E2000E1F83168092200232046009727F042F884
:103E300011226FF0130328462146009727F03AF825
:103E400015A148F23350C0F20120119091ED001FEE
:103E500008F1C8004BF62301169009A80994C0F296
:103E600002218DED121F0D9114F0E0FB42F6E0648B
:103E7000C2F2002420682BF0C9FC20681FB0BDE806
:103E8000F08F00BF00BF00BF0100000000000080F5
:103E900000010000E80300000001000000000080B5
:103EA0000A00000090010000414C4C205452414354
:103EB0004B5300004C56474C2044656D6F0A4D75BE
:103EC00073696320706C61796572000010B543F20C
:103ED00068000021C2F2002043F24C3443F2403328
:103EE000C2F20024017043F23C30C2F20020C2F260
:103EF0000023026801604EF68D012068C0F20321A4
:103F00001A6014F06DFA206829F018FD40F238703C
:103F10004FF48071C2F20020006823F047FF43F2A3
:103F20002830C2F20020006808B12FF075FA43F281
:103F300064000121C2F200200068BDE810402AF0B0
:103F40001DBE80B53DF09CFCBDE88040AFF3008015
:103F5000B0B596B043F268000121C2F2002043F2EE
:103F60003C35C2F200256C46017043F24030C2F28B
:103F7000002000682860204614F08DFA43F2483093
:103F80002968C2F2002009914FF000430068421EE8
:103F9000401A4FF47A71CDE90A324EF68D02484349
:103FA00048F68901C0F203220192C8F6880143F263
:103FB0004C32A0FB0101C2F20022106800900809F7
:103FC0000C9000204EF6AD510F902046C0F2032118
:103FD000049114F02BFB43F22830C2F20020006859
:103FE00008B12FF04BFA43F2303043F25851C2F28D
:103FF0000020C2F2002104680868FEF7F5FF0246BF
:104000000021204615F0CAFD43F264000121C2F2EE
:104010000020006826F092FE16B0B0BD2DE9F04FEA
:104020009BB008B1C06801E018F044F940F6904B2D
:104030000028C2F2002BCBF8100000F0D182416AB8
:10404000002900F0CD820A69002A00F0C982C968FF
:10405000002900F0C5823321002218F0DBF9DBF8DB
:104060001000D0F8B8022BF0D1FBDBF81010D1F81B
:10407000BC0218B12BF0CAFBDBF81010D1F8C40257
:104080002BF0C4FBDBF81000D0F8C8022BF0BEFB0D
:10409000DBF81000D0F8CC022BF0B8FBDBF81000F6
:1040A000D0F8B812002900F09082D0F864120029EC
:1040B0004FD000270DF12C094FF00108C21992F8DA
:1040C0004422002A42D10024442500BF011991F85E
:1040D000441299BBA74231D000EB071101F1440211
:1040E00041191046FEF70FFE40B3DBF8100000EB5D
:1040F0000711421944314846FEF7D1FE484615F0F3
:10410000B6F8DBF81010824601EB071101F144000C
:1041100015F0ADF8DBF810100646481915F0A7F8B1
:10412000304482450AD2DBF8100000EB071120442E
:1041300099ED001F81ED111F80F84482DBF810001B
:1041400001341035D0F864128C42BFD301378F424E
:10415000B4D3C16B012940F0AC8018F047F90028B6
:1041600000F0A780DBF8100000F51B7001F054F997
:10417000002840F09E80DBF810003EF041FEDBF8A6
:104180001000C269416A914208BF026ACDE9052167
:1041900018F0A1F80490DBF8100018F013F9039060
:1041A0000BA84021FCF73CFBDBF81000D0F86412B0
:1041B00000294ED04FF000094FF0000800EB090134
:1041C00091F84412D9BB00F51B7001F0B2F8B0B3FE
:1041D000074600BFDBF81000394600F51B7001F000
:1041E000BBF8DBF81010044601EB09110BA801F134
:1041F00044023946FEF7B3FC411C1CD0012810DBF9
:104200005FFA80FA0BAE00BFDBF81000394600F50C
:104210001B7001F0CBF82ECEBAF1010AC5600EC0BA
:10422000F2D1DBF81000394600F51B7001F0FDF803
:10423000384622F0C5FC27460CB12FF035C808F1EE
:104240000108DBF810001FFA88F9D0F8641249451C
:10425000B4D80021CDE90711049900F51B7001398C
:104260000991039901390A9101F063F8DDE90575B7
:10427000C0B1044607AE00BF204621463246FEF7D5
:10428000E3FC284621463A46234618F003FDDBF8B6
:104290001000214600F51B7001F05EF8044608B1DD
:1042A0002FF017C0DBF81000002100F51B7001F0A3
:1042B00023F8DBF81000D0F86462002E00F088814B
:1042C000311801F2432100BF013E04D411F8012945
:1042D00012B12FF007C80026352100224FF0000947
:1042E00018F098F8DBF81000816B21F00101816370
:1042F000816B21F00201816390F84020D0F86412B4
:10430000012942F0020280F84020C0F217810DF12D
:104310002C080024019600BF011991F844120029CD
:1043200040F00281B44203D1816B41F0010181630D
:10433000416A826BC36B22F00202826300EB0412BB
:10434000D0F8A85202F14407296073B3C5E9019976
:1043500017F0C1FF0138E860DBF8100018F032F800
:1043600001382861284612F055FFDBF8100017F0DD
:10437000B2FFA0F1010ADBF8100018F023F80138B1
:104380000021002200904046534614F0A2FFDBF8C3
:104390001000C16B01291BD0022940F0C580816B40
:1043A000474641F00201816317E0039452F8489FA9
:1043B0001146144606973F6851F8046F0291049223
:1043C00054F808AF17F0FEFF82450DDA206810E0C0
:1043D000816B826B61F34102826305F1180C97E8EF
:1043E0000F008CE80F009CE0DBF8100017F0EAFFEC
:1043F0000138DBF81080059098F8410017F028FD8F
:1044000008B1102101E098F84110F01BAAEB090255
:104410000130541C18F019FFD8F824100DF12C08A5
:10442000C968B1FBF0F0A04250EAB48600200D90BC
:104430003746CDE90B0000BFDBF810002F214246C4
:104440007C1E0E9417F0E6FF0E980C990130411A6D
:10445000B14203DD012F2746EEDC00E03C464FF081
:10446000000A002C50EACA890498059B006800EBFA
:1044700009010139994206DD019E4FF00009069AB3
:10448000DDE9027434E0A0F1010AA3EB0908DDE9DB
:10449000016700BFDBF81010069A54463B681268AB
:1044A000496AC5E9001205F10801601CCA4481E8A7
:1044B0000904C5E906202846C5E9083A12F0AAFE13
:1044C000A04505D1DBF81000816B41F0020181634A
:1044D000284631F01DFE059B09EB0A009842D9DD04
:1044E0000AF101000DF12C08039C069A4FF0000917
:1044F000534519D0DBF8101012683F68496AC5E9C6
:104500000207C5E906202846C5E900122B61C5E966
:10451000087312F07FFEDBF81000816B41F002019E
:104520008163284631F0F4FDDBF810000134D0F847
:1045300064128C42FFF6F0AE90F84020002902F0A1
:10454000FD0180F8401043D03621002217F062FFB1
:10455000DBF8100017F04AFF0028DBF8100024D029
:10456000C16B012921D13EF04BFCDBF81000D0F8E3
:104570006412D1B100244425011991F8441271B993
:1045800000F51B7000F032FFDBF810104A19495992
:10459000D2E90137D268C2608AC0DBF81000D0F8D7
:1045A0006412013410358C42E6D3443000214FF4BC
:1045B000007226F028F9DBF81000002100F51170D8
:1045C000202226F020F9DBF810000021C0F8641248
:1045D00000F000F9DBF810003421002217F01AFF78
:1045E0001BB0BDE8F08FB0B540F690440021C2F298
:1045F0000024142204F1C800002526F004F947F62F
:10460000292004F1C80CC0F2002047F6252147F606
:10461000192242F63363C0F20021C0F20022C0F238
:104620000423C4F8D8308CE82700B0BD002B56D046
:104630002DE9F0479AB00D469A4617468146EB6A37
:104640002C6BD2E90010D2E90262CDE9161018965F
:10465000199243B9B4F5807F05D16C6BB4F5807FB6
:104660001DD04FF48074711A101A0131B5F834C09E
:10467000421CA0B2009016A805F14006CDE901C683
:1046800000F0F2F816AED7E90001199C4CCE0244B6
:1046900016925A18179230441890601819900DF11C
:1046A0004808D9F8082016A94046FEF7CDFA98B177
:1046B000E96903A8002222F095FF01280CD1009798
:1046C00003AF0023484629463A46CDE9018A11F056
:1046D00073F9384622F041FF1AB0BDE8F047704741
:1046E000002B6ED02DE9F04FA1B014468A46064645
:1046F000C96912A80022994622F074FF01285DD1F1
:10470000BAF824700DF1380C94E80F000EACBAF82A
:1047100026508CE80F002046394614F0E4FD204670
:104720002946059514F0DAFD26A1B268DDF838C0F7
:10473000C8680D90D3680F989842224B0A93D1E92C
:104740000131CDE90B3136DC07EB0C0106ADA1F1EF
:10475000010E0DF1480B0DF12808CDE903EC00BF67
:1047600091688C451ADC00BF28462146FEF76CFA9A
:1047700038B1304651465A4643468DE8300211F072
:104780001BF91098B268384410900E98916838441C
:104790000E908842E8DD0F98DDE903EC1199CDF821
:1047A00038C0059BCDF840E019441191D1681844F8
:1047B0000F908842D4DD12A822F0CFFE21B0BDE8D0
:1047C000F04F7047010000E0010000E0010000E050
:1047D000010000E0B0B540F690400425C2F2002090
:1047E00000F1FC04206808B122F0EAF900211C2243
:1047F000204626F008F8013D04F11C04F2D1B0BDBA
:1048000040F69041C2F20021C96E00BF59B14A681A
:10481000824202D00A68824203D10A7E42F001023B
:104820000A764969F2E7704740F690414069C2F262
:104830000021C866704740F69041C2F20021CA6E5E
:104840004261C866704740F690400421C2F20020E1
:1048500000F5BC7000F08CBD40F690402021C2F203
:104860000020343000F084BD2DE9F04F8BB01D46A0
:104870000446DDE914762BB9B7F5807F08BFB6F59D
:10488000807F62D003A8002303930493CDE905132E
:10489000DDF858B0CDE9073200F118030293334632
:1048A000CDE9091229463A4600F1080A00F110093B
:1048B0004FF00108CDE900B82BF01BF9504629460E
:1048C0003A463346CDE900B82BF013F9484629465D
:1048D0003A463346CDE900B82BF00BF90298294649
:1048E0003A463346CDE900B82BF003F90598039911
:1048F000099A079F814251EAB083974257EAB286EC
:10490000089DB34253EAB68C814251EAC080974277
:1049100057EAC281069F049A0A9EC4F800C08842E2
:1049200050EAC181BA4252EAB780B54255EAB6832D
:10493000984250EAB380BA4252EAC782B54255EA79
:10494000C6839A4252EAC38201E000202060231D00
:10495000013A013907C30BB0BDE8F08F40F6904033
:104960001821C2F20020DC3000F002BD2DE9F04F2A
:104970008FB0014651F84C3F05911BB9016D0029DC
:1049800000F0BB82456F0990002D7ED02C464FF47D
:1049900080794FF0000800254FF4807A079400BF1B
:1049A00000216E22204628F0D5FA054400216C2211
:1049B000204628F0CFFA06B2B8EB004F4FF00001C6
:1049C0004FF06D02204608BF012628F0C3FA01B25D
:1049D000B8EB004F0FFA89F008BF012106FB00F782
:1049E0000FFA8AF001FB00F620464FEA17294FEA3A
:1049F000162A27F0F7FC044608B12FF02FC8280428
:104A00000CD14FF60070C0F2FF0007EA0001B1F5CB
:104A1000803F04BF3040B0F5803F16D00FFA8AF0D7
:104A20004FF480320FFA89F16B4292FBF0F00026CE
:104A300092FBF1F719B203B20CA83AB2CDE9000625
:104A400005980D960C962BF054F8099F00210C91B7
:104A50000A9197F8940000F00F00032840F03A8183
:104A6000079E304627F008FE0446304627F076FDC4
:104A700002460598234601680320009030460EF058
:104A80004DF805460C90002437E190F82C20416D3C
:104A9000D0F86C9019444165036D816DB9F1000F38
:104AA0001944816500F029824FF0000A0027002593
:104AB000039250420490002007900020029000BF13
:104AC0000895BB464FF4807800254C464FF480771C
:104AD000CDE90CAA00216E22204628F03BFA0544BD
:104AE00000216C22204628F035FA06B2BAEB004FBE
:104AF0004FF000014FF06D02204608BF012628F05C
:104B000029FA01B2BAEB004F08BF012106FB08F0F9
:104B100079434FEA202820460F1227F063FC044611
:104B200008B12FF029C809992A04D1E91501CDE966
:104B30000A0108BFB8F5807F10D04FF4803090FB99
:104B4000F8F290FBF7F3684201B20CA8CDE9000A35
:104B50000AA82AF0CEFFDDE90A0102E0B7F5807F5E
:104B6000EBD1002800D5404200295F4600D54942DC
:104B700088425FEA8F905FEA9F91089D054348460F
:104B80000F43102128F07FFB002800F08780484663
:104B900027F0B5FC804600F0040005EA900008907C
:104BA00008F0080005EAD0000690484627F0FDFD11
:104BB0000646484627F026FC8346484627F0CEFCAA
:104BC0000446484627F058FD002E05DCBBF1010FD6
:104BD00002DADDF80CC011E00899DDF80CC00029FC
:104BE0000B9901D0614504DA069A3AB1049A9142D0
:104BF00004DC0C2102914946CDF81C90002C0DDC00
:104C000000280BDCBBF1000F5FEADF90002E5FEAAB
:104C1000DF91089A0A400699084037E008EA070140
:104C2000BE4611F0010308F0020107EA51020A9999
:104C300001D0614503DA3AB1049FB94204DC03278D
:104C400002974F46CDF81C90002C5FEADF973B405F
:104C5000012B02D1614580F2808000285FEADF905D
:104C6000BBF1000F5FEADF93002E5FEADF97104091
:104C7000089A0128069800EA030002EA070204D114
:104C8000049B7746994201DC68E077460B990AB1AC
:104C9000614563DA10B1049881425FDD4FF48071A1
:104CA000484628F0F0FA18B987F00100C00762D032
:104CB0004FF40071484628F0E6FA18B985F0010073
:104CC000C00758D0484627F08DFB814600287FF466
:104CD000F7AE50E0079E304627F067FD04463046A9
:104CE00027F090FB0346396D0C2000903046224699
:104CF0000DF014FF044600250A90304627F0FFFB14
:104D0000C10701D1012D04DA810704D4B5F1FF3FB9
:104D100001DC00210C91410701D4012C04DA0007C9
:104D200004D4B4F1FF3F01DC00200A900CA90AAAC8
:104D3000384639F009FC0C990A9A304600F0B6FB67
:104D4000387C800700F1D9800C980A9BD7E91512AE
:104D50000844D118C7E91501CFE07746099AF90749
:104D60004FF00C0192F8940018BF032100F0F000FE
:104D7000084482F89400079D099E002D00F0BD8034
:104D800096F89400029901F00F01012700F0F0005D
:104D9000CEF20007084486F894000020C6E915000A
:104DA00080212846756728F06EFAA8B1284627F0BA
:104DB000F3FC03281CD002282DD001283BD1A86980
:104DC0006FF06042411C002328460EF009F8C6F837
:104DD0008000A869421E28E006F17C006FF0604365
:104DE0006FF06041009139463A4614F072FA61E082
:104DF000A869296A091A6FF060420131002301EBAA
:104E0000D17100EB61042846611C0DF0E9FFC6F882
:104E10008000621E09E0296A6FF060420023284684
:104E20000DF0DEFFC6F880002A6A002328463946C6
:104E30000DF0D6FF03E06FF06040C6F88070C6F852
:104E40008800284627F09FFC03280DD002281DD09B
:104E500001282AD169696FF06042002328460DF0CD
:104E600033FFF0676A691AE06869E969091A6FF047
:104E700060420131002301EBD17100EB610428464F
:104E8000611C0DF021FFF067621E08E0E9696FF018
:104E90006042002328460DF017FFF067EA690023FF
:104EA000284639460DF010FF02E06FF06040F767CA
:104EB000C6F88400F06F00B9F767D6F8840018B917
:104EC0006FF06040C6F88400D6F8800008B9C6F8D4
:104ED0008070D6F8880018B96FF06040C6F8880076
:104EE000F06E202129F04AFE0921002228462AF0EE
:104EF000B5F8307C80077FF549AD0FB0BDE8F08F85
:104F00002DE9F04782B0D0F874A0BAF1000F00F09C
:104F10004481044690F89400000700F03E8194F824
:104F20002D604021504628F0AEF910B90020C4E9A8
:104F30001700504627F027FC8046504627F02CFCEF
:104F400094F89410814601F00F01032923D00C2915
:104F500040F0C980B9F1000F4FF00000E0653CD08F
:104F6000A16E4FF0000C00297CD094F82D2048F25F
:104F70001F530026C5F2EB13C2F1640201FB02F0DD
:104F80000E4450FB03F76330C6284FEA671505EB64
:104F9000D771F3D867E0B8F1000F4FF0000020663A
:104FA0003CD0616E4FF0000C002979D094F82D2090
:104FB00048F21F530026C5F2EB13C2F1640200BF92
:104FC00001FB02F70E4457FB03F56337C62F4FEA88
:104FD000651000EBD571F3D863E0206EC6F1640173
:104FE000484348F21F51C5F2EB1150FB01F041114B
:104FF00001EBD0702066504627F004FA0646504672
:1050000027F0D3FB0246216E0C2000905046334619
:105010000DF084FD0246002120661FE0E06DC6F120
:105020006401484348F21F51C5F2EB1150FB01F0F7
:10503000411101EBD070E065504627F08FFA06462B
:10504000504627F019FB0346E16D032000905046BF
:1050500032460DF063FD0146E0650022504600F047
:1050600025FA3DE00026A06DD4F880108319D4F80D
:1050700088208B4253EAC183C4F860C0B8BF0E1ABF
:10508000934240F20101C8BF161ACEF200016FF040
:105090006042504633460DF0A3FE321800211BE05B
:1050A0000026606DE16F8319D4F884208B4253EAA7
:1050B000C183C4F85CC0B8BF0E1A934240F201012C
:1050C000C8BF161ACEF200016FF060425046334658
:1050D0000DF0FAFD311800220123504629F022FE7E
:1050E000207C800759D4E06D002856D1206E00281E
:1050F00053D1B9F1000F1ED1504627F056FB06469A
:10510000504627F07FF9002E01DC012813DBB6F1B1
:10511000FF3F07DDB0F1FF3F0DDC424200210123DC
:10512000504603E0002101235046324629F0FAFDA3
:10513000207C800731D4B8F1000F1ED1504627F0F3
:105140000DFA0646504627F097FA002E01DC01289A
:1051500013DBB6F1FF3F07DDB0F1FF3F0DDC41424D
:1051600000220123504603E000220123504631462D
:1051700029F0D8FD207C80070FD40B215046224611
:1051800029F06CFF207C800707D494F8940000F08D
:10519000F00084F894000020606702B0BDE8F0875A
:1051A00070B588B004460D4620B917F083F8044660
:1051B00000286DD0204617F01EF9002868D094F81A
:1051C0004000800708D54FF6EB6032A1C0F20E20F8
:1051D00040F2011232F05AFC0020EDB1CDE904009A
:1051E000204617F078F801380690204617F0EAF8C4
:1051F00001380790684604AA2946FDF725FD0028D6
:1052000046D0E06B02280AD104AB04F1440C0FCB6A
:105210008CE80F00012034E0C4F8640238E06A46EC
:105220002F21204617F0F6F8012831D1D4F8640276
:10523000C0B100216D46002604EB0110002200F1F0
:1052400044012846FDF721FD10BB0136D4F8640265
:10525000B1B28842F0D8202807D3002004A9C4F8AE
:10526000640203E06946002000E0694604EB001296
:105270000130D1E90036D1E90251C2E91136C2E963
:105280001351C4F8640232210022204617F0C2F8FC
:1052900008B070BD5F6C765F696E765F6172656144
:1052A0000000000010B500211622044627F052FE2F
:1052B00080B280B140F69041C2F200218A6D8242F4
:1052C00009D3CA6D02EBC00152F83020204649686C
:1052D000BDE81040104710BD10B540F69044C2F232
:1052E0000024A06DC00025F048FAE06521F0EFF938
:1052F000BDE8104021F040BFF0B581B0B8B14668BC
:105300000446A6B10D4600BF2068304447681DB171
:105310003046A84707E000BF2046314600F085F838
:10532000304621F04DFC3E460FB12FF013C801B0BE
:10533000F0BD002814BF40680020704750B141689C
:1053400041B10068021D00208958013009B12FF0D9
:1053500005C87047002070470068084440687047DF
:10536000006808587047002814BF80680020704704
:105370000331002221F00301C0E90012826070476E
:1053800010B504460068083025F0F7F958B12168D7
:1053900000234218435063685360626802B1505062
:1053A000A168606001B110BDA06010BDB0B5054638
:1053B00000284FF0000016D00C46A1B16868A0424A
:1053C0000DD02868083025F0D8F968B129680B1D80
:1053D000625802B1D05042506050C45003E0284699
:1053E000FFF7CEFF00B1B0BD0020B0BD10B5044640
:1053F0000068083025F0C1F958B122680023111D5A
:105400004350A3688350A26802B150506168A06005
:1054100001B110BD606010BD28B1416809B9806854
:1054200008B1002070470120704780B142688A426D
:105430000ED0026883688B428B5811D002F1040CA5
:1054400051F80C000BB143F80C0000B183507047C9
:10545000026811444968416041B10020885070479A
:10546000836003B1D0180021416070470021816042
:105470007047000010B50446006800BF826812B192
:10548000214690472068006808B12060F6E710BD0B
:105490008068002814BF406A00207047806818B1F7
:1054A000408DC0F3812070470020704770B50E46D4
:1054B00011431BD01546044625F072FFA068012356
:1054C000D0E9061231442A44C0E90612204631468A
:1054D0002A4628F0BFFA0C210022204629F0BEFD02
:1054E000012818BF70BD204628F028FA012070BDA1
:1054F0002DE9F04114461546B8B1612207460E4623
:1055000027F028FD88B18046006870B162223846D5
:10551000314627F01FFD010607D0D8F8003024F0EF
:105520007F41C2B2404698470546200E60F31F6592
:105530002846BDE8F08100002DE9F04F97B0044601
:10554000408DDDF880B0164640F008006085228569
:1055500020469BF808201F468A4627F0FBFC27853B
:1055600005469BF808202046514627F0F3FC618D44
:105570008146854221F00800608500D177D02685DC
:1055800020469BF80820514627F0E4FC8046204640
:10559000514627850FF0B0F99BF808100068424685
:1055A0002BF0D4FE9BF808000C281ED147F6FF759F
:1055B000A84518BFA94518D1204627F0EDFD00EBFE
:1055C000D076204626F0ABFE00EBD070012101EB37
:1055D0006002401001EB6601914251EAB090A8458B
:1055E00050EA0888A94550EA098940F69040C2F27D
:1055F00000201830FFF7C4FEE0B30646C0E9038977
:10560000046001AC9BF80800C6F808A03071204681
:1056100012F041FF41F6912041F62941C0F20420E9
:10562000CDE9016041F6E540C0F20421C0F204205A
:10563000CDE90401BBF8021000200A904FF00040B1
:105640000B90FF200C90BBF800000D9048420E908C
:105650009DF85200DBF80C10099100F0FE008DF867
:1056600052002046DBF81010089112F0DFFF17B04F
:10567000BDE8F08F4FF6EB6004A1C0F20E204FF4AE
:10568000007217B0BDE8F04F32F000BA5F6C765F81
:105690006F626A5F7374796C655F6372656174656C
:1056A0005F7472616E736974696F6E0040F690404A
:1056B0001421C2F200201830FFF75ABE2DE9F0473E
:1056C00082B00446408D10F47C7F00F005816FEAC3
:1056D00001084FF0000A6FEA020901AD002600BF81
:1056E000E16801EBC6025268930100F1E58092B2D5
:1056F00012EA080F5FEA0F9312EA090F5FEA1F929E
:10570000534040F0D98051F83670102138462A466F
:105710002BF0FAFC002840F0DC80112138462A46A4
:105720002BF0F2FC002840F0D480122138462A46A3
:105730002BF0EAFC002840F0CC80132138462A46A2
:105740002BF0E2FC002840F0C480152138462A46A0
:105750002BF0DAFC002840F0BC80142138462A46A1
:105760002BF0D2FC002840F0B480162138462A469F
:105770002BF0CAFC002840F0AC806A2138462A464B
:105780002BF0C2FC002840F0A4806B2138462A464A
:105790002BF0BAFC002840F09C80012138462A46B4
:1057A0002BF0B2FC002840F09480022138462A46B3
:1057B0002BF0AAFC002840F08C80042138462A46B1
:1057C0002BF0A2FC002840F08480052138462A46B0
:1057D0002BF09AFC00287CD1062138462A462BF073
:1057E00093FC002875D1072138462A462BF08CFC03
:1057F00000286ED1302138462A462BF085FC00283F
:1058000067D1682138462A462BF07EFC00284FD10C
:10581000692138462A462BF077FC002848D16E21B2
:1058200038462A462BF070FC002841D16C213846BE
:105830002A462BF069FCD8BB6D2138462A462BF04E
:1058400063FCA8BB3A2138462A462BF05DFC78BBA6
:105850003B2138462A462BF057FC48BB38213846B6
:105860002A462BF051FC18BB3C2138462A462BF027
:105870004BFCE8B93E2138462A462BF045FCB8B926
:10588000402138462A462BF03FFC88B94121384652
:105890002A462BF039FC58B9422138462A462BF0CB
:1058A00033FC28B9482138462A462BF02DFC50B14C
:1058B0004FF0020A608D00BFC0F3051101368E4221
:1058C000FFF40EAF0AE0BAF1000F08BF4FF0010A73
:1058D000F0E74FF0030A01E04FF0000A504602B033
:1058E000BDE8F08740F69040C2F2002000697047A2
:1058F0007047FF2802D018B9002070473F2070473A
:105900008C2804D842F66071C0F204210BE040F606
:105910009042C2F20022116B0029EDD07330926ADE
:10592000C0B28242E8D9085C7047B0B540F69045F5
:1059300040F22844C2F20025C2F2002405F5C470EA
:1059400021462BF011FE44F291504FF49671C0F2B3
:10595000032022462DF02CFCC5F8A801B0BD0000A4
:105960002DE9F04108B3064617460C462BF0CAFB5A
:1059700040F22C058046C2F20025304621462A68B6
:1059800090472A6835180446284639469047A8EBC0
:1059900000018C4209D82044304400BF013410F883
:1059A000012B8C4205F8012BF8D9BDE8F0812DE9D7
:1059B000F04140F234081446C2F200280F4619465E
:1059C0001D46D8F8002006469047386030B1286858
:1059D000D8F8002030440021904700E000202060EB
:1059E000BDE8F081000000002DE9F04F81B02DED01
:1059F000088B8CB0DDF878900446B9F1000F1D4695
:105A0000CDE906211CBF0020C9F80000E4B10798C9
:105A100000284FF0000000F07A812178002900F082
:105A200076811F9882071DD0621C0020012342F25C
:105A3000014700BF0D2903D803FA01F63E4205D104
:105A400012F8011B0130F5E7002060E1002950EA5F
:105A50000090B9F1000F00F05A814FF0FF31C9F802
:105A6000001054E14FF0000B012DCDF824B0C0F22E
:105A70003A81ABA100F001000190002791ED009F59
:105A8000ABA1009491ED00BF2146019800260028AB
:105A9000284618BF6FF06040049040F23400C2F214
:105AA000002005910B96026808460BA99047E15D1E
:105AB00082460B980A90002900F0ED80CDE902B7EC
:105AC0004FF0FF38002600244FF0000B0027059B05
:105AD00040F234000AA9C2F200200268184690473A
:105AE0008146079851464A4621F014F8834400281D
:105AF000069818BF83440499ABEB000088423846EF
:105B0000D8BF4FF0FF3018F1010150EA0888BAF110
:105B10000A0F18BFBAF10D0F00F08C80484604F14F
:105B2000010C092286A300BF13F8011B8A4503D08C
:105B3000002AA2F10102F7D18A457BD0B9F1000F0A
:105B400032D029EE490F2BFE810F0023FDEE101AF3
:105B500001F00102C1F30017524262F300037A42DE
:105B600062F34103C1F300225242C1F3003162F3F8
:105B70008203494261F3C303002B66D14FF63061C3
:105B8000A9EB0101202960D329F03F01B1F5405F65
:105B90005BD029F07F01B1F53A5F1EBF29F00F01FC
:105BA0004FF61062914250D0BAF1000F33D0A0EE00
:105BB00010AB002320EF48082BFE810FFDEE101ADA
:105BC00001F00102C1F30017524262F300037A426E
:105BD00062F34103C1F300225242C1F3003162F388
:105BE0008203494261F3C3037BBB4FF63061AAEBEA
:105BF0000101202929D32AF03F01B1F5405F1CBFE4
:105C00002AF07F01B1F53A5F1FD04FF610622AF0FB
:105C10000F01914219D00B9F059B18F101026446B8
:105C2000D95D5BEA0686824600290A990B917FF4CA
:105C30004FAF0DE037B918F1010003D14FF0000864
:105C40005E4613E05046A44602E00B9F5E46504677
:105C500018F1010107D0039FDDF87890009CDDF872
:105C600008B0D7B139E082466446B846039F6CB1AC
:105C7000B9F10A0F28D1BAF10D0FDDF87890009C28
:105C8000DDF808B008BFDDF82C8006E0DDF878907C
:105C9000009CDDF808B0DDF82C80B8F1000FB344AB
:105CA0001AD02078474409970A2818BF0D2813D026
:105CB000E05D0D2818BF0A280CD068B1AD1BE119B2
:105CC000012DBFF6E2AE07E0DDF87890009CDDF82C
:105CD00008B0E2E7013709972FB1B9F1000F18BFFB
:105CE000C9F800B012E040F2340009A9C2F2002065
:105CF000026820469047B9F1000F07D00146002204
:105D0000079820F007FF8346C9F800B009980CB047
:105D1000BDEC088B01B0BDE8F08F00BF00BF00BF35
:105D2000FF00FFFF00B2FFFF40CEFFFFC0CFFFFF2D
:105D30005E0000000052000030000000C0000000C3
:105D4000202C2E3B3A2D5F295D7D00002DE9F04788
:105D500050B3144642B3054689462BF0D3F980462A
:105D600020462BF0CFF9F8B1824640F22C00C2F267
:105D7000002049460AEB080702682846904700EBD6
:105D80000A018F4209D3EA1905EB0803013F13F812
:105D900001698F4202F80169F8D22844214652462F
:105DA000BDE8F04724F02BBDBDE8F08770B582B0A8
:105DB00004460B46CDE900110020002122462DF0BB
:105DC0000EFC461C304624F0D8FC054630B1019B41
:105DD0002846314622462DF002FC05E004A005A12C
:105DE0004FF4DB7231F052FE284602B070BD00BFA6
:105DF000300000005F6C765F746578745F73657463
:105E00005F746578745F76666D74000010B540F657
:105E100090441821C2F2002404F17400FFF7A8FA9C
:105E2000D4F89C10012084F880004FF00000C4F8E2
:105E3000840021B1D4F8A000BDE81040084710BD8F
:105E40002DE9F047EAB114469A460F468046DDF840
:105E5000209000BF6608404606FB0A752946C847E1
:105E6000012807DB64F0010005EB0A073044441CFD
:105E700004E000BFB0F1FF3F344603DC0CB12FF06B
:105E800017C800252846BDE8F0870000F0B581B0AE
:105E90000C46054633F0C6FBC8B9072034F0C2F9FA
:105EA000064628B90BA011A140F2153231F0EEFDE3
:105EB00056F8047FB74209D0A7F11000A84203D0DA
:105EC000214633F0AFFB10B93F68F3E7002001B083
:105ED000F0BD00BF696E666F726D6174696F6E2090
:105EE000213D2052545F4E554C4C00005F6D656D56
:105EF000686561705F616C6C6F63000033F034BC87
:105F0000F0B581B01546074601B30C462DB354F8E1
:105F1000140C21462A4633F057FD064608BB384686
:105F20002946FFF7B3FFD8B10646A4F1180054F88C
:105F3000101C081A21461838A84250EA358230460B
:105F400033F022FB204633F00FFC0AE038462946A6
:105F500001B0BDE8F040FFF799BF204633F004FCE4
:105F60000026304601B0F0BD29F0E6BBB0B50228EE
:105F700003DCBDE8B04000F001B905460C464968B5
:105F800058A035F059FBD8B1616857A035F054FBE3
:105F900018B3616856A035F04FFB50B3616856A046
:105FA00035F04AFB0028E4D1032DE2D9A0682DF09A
:105FB000F7FF0028A06860D0FAF7DCFA054662E037
:105FC000A06834F009FAB0F1FF3FA16874DD024621
:105FD00067A0BDE8B04033F066BA032DC9D9A06808
:105FE0002DF0DEFF0028A06820D0FAF7C3FA05469E
:105FF00022E0A0682DF0D4FF0028A06803D0FAF7B3
:10600000B9FA054605E034F0E7F90546B0F1FF3F7F
:1060100051DD284634F04CFA012801D141A000E0BE
:106020003CA02946BDE8B04033F03DBA34F0D4F985
:106030000546B0F1FF3F3EDDE1683EA035F0FCFAD9
:10604000B8B1E1683DA035F0F7FAA0B1E1683DA034
:1060500035F0F2FAE8B3E1683EA035F0EDFAD0B3DE
:10606000E16840A035F0E8FA00287FF482AF04210F
:1060700032E0002130E001212EE034F0ADF9054698
:10608000B0F1FF3F17DDE1681DA035F0D5FAD0B1C2
:10609000E1681DA035F0D0FAA8B1E1681BA035F089
:1060A000CBFA30B1E1681AA035F0C6FA00287FF4C7
:1060B00060AF002108E0A1684EF20A50C0F20E2045
:1060C00033F0F1F955E701212846BDE8B04034F03E
:1060D0000FBA022100E003212846BDE8B04034F0A9
:1060E000C5B900BF6E756D006D6F6465000000007E
:1060F00072656164000000007772697465000000D9
:1061000068696768000000006F6E00006C6F7700C0
:106110006F66660070696E5B25645D203D206C6F64
:10612000770A000070696E5B25645D203D20686918
:1061300067680A006F75747075740000696E707519
:1061400074000000696E7075745F70756C6C7570AA
:1061500000000000696E7075745F70756C6C646F20
:10616000776E00006F75747075745F6F6400000067
:106170002573203A2025640A0000000080B54EF205
:106180002350C0F20E2033F08EF94EF2B850C0F218
:106190000E2033F088F94EF23650C0F20E2033F064
:1061A00082F94EF22D60C0F20E2033F07CF94EF2EF
:1061B0008950C0F20E2033F076F90BA033F073F95A
:1061C0004EF2E950C0F20E2033F06DF910A033F01A
:1061D0006AF91BA033F067F921A033F064F923A01A
:1061E000BDE8804034F0F8B8202020202020202076
:1061F00020202020202020652E672E204D5348206F
:106200003E70696E2072656164204750494F0A00F4
:106210002020202020202020202020202020206539
:106220002E672E204D5348203E70696E207772698C
:106230007465204750494F20686967680A0000006C
:10624000202020202068656C703A202020202074B7
:106250006869732068656C70206C6973740A00004B
:106260004750494F20652E672E3A0000200000005D
:10627000B0B50446154638B94EF25C6008A1C0F2CC
:106280000E20372231F002FC3DB1A06C2A7929683A
:106290000368204698470020B0BD6FF0FE00B0BDF7
:1062A0005F70696E5F636F6E74726F6C00000000E8
:1062B00070B505461E46144638B94EF25C600AA118
:1062C000C0F20E20162231F0E1FB4FF000004CB17D
:1062D000082E18BF70BDA86C2168826828469047B8
:1062E0002071082070BD00BF5F70696E5F726561CC
:1062F0006400000070B504461E46154638B94EF2DB
:106300005C600AA1C0F20E20262231F0BFFB4FF0E4
:1063100000004DB1082E18BF70BDA06C2A79296805
:10632000436820469847082070BD00BF5F70696EC3
:106330005F7772697465000041F60563994205D084
:1063400041F60463994205D1012000E0002050612C
:1063500000207047836C1B68002BF9D018472DE98B
:10636000F04186B06D460F460646281D14211C4696
:106370009046FAF755FA002F00D57F42B06C00978F
:10638000036853B16A4641F603613046984708B145
:10639000002402E00298C8F80000204606B0BDE8DC
:1063A000F0812DE9F04186B06E460F460546301D5E
:1063B00014211C469046FAF733FA002F00D57F428D
:1063C000A86C009703688BB16A4641F603612846C2
:1063D000984750B9A86CD8F8001002916A46036833
:1063E00041F602612846984700B10024204606B0D5
:1063F000BDE8F0812DE9F04F81B083469846924682
:106400008946009358B94FF2FD204FF25A41C0F22D
:106410000E20C0F20E214FF4F16231F037FB5846E6
:1064200033F010FF04280BD04FF217404FF25A41BF
:10643000C0F20E20C0F20E2140F2897231F026FB2C
:1064400032F0F8FA0746F9F733FF054631F019FD47
:1064500098B14FF25A444FF28B20C0F20E24C0F292
:106460000E20214633F01FF84FF6EB6040F28C729D
:10647000C0F20E20214631F009FB012F13D14FF25B
:106480005A444FF26620C0F20E24C0F20E2021467C
:1064900033F009F84FF6EB6040F28C72C0F20E2038
:1064A000214631F0F3FAF9F703FF074635F066FCB1
:1064B00098B94FF25A444EF28040C0F20E24C0F216
:1064C0000E20214632F0EFFF4FF6EB6040F28C7267
:1064D000C0F20E20214631F0D9FAF9F7E9FE044660
:1064E00032F0BEFF98B14FF25A464EF25940C0F218
:1064F0000E26C0F20E20314632F0D5FF4FF6EB608B
:1065000040F28C72C0F20E20314631F0BFFA2046C4
:10651000F9F7D2FE3846F9F7CFFE2846F9F7CCFE58
:10652000B9F1000F24D035F029FC43F23C110546A7
:10653000C2F200216FF00A006863096809B1584689
:1065400088470A9EF9F7B4FE5FEACA71044612D181
:106550005FEA8A7041D44FF6EB604FF25A41C0F2C5
:106560000E20C0F20E2140F2AB7231F08FFA08E03B
:106570006FF0FE068FE0DBF8200000EA09014945D4
:1065800030D0B8F1000F43D095F838009BF80D706B
:10659000C5F84C9085F850A0400706D40B992846C2
:1065A00035F04EFD08B1064635E00BF11800B7B3E3
:1065B000012F3ED1014600BF096881422FD091F8DA
:1065C000212095F839309342F6D2486805F1180237
:1065D000E8614A600260A96136E0DBF8200010EA59
:1065E000090FCED04FF00001696326B100EA09001F
:1065F0003060DBF820005FEA4A7200EA0901E964D2
:1066000085F850A03BD520EA0900CBF8200036E001
:106610006FF074066E632046F9F74EFE3BE0DBF840
:106620001C1005F11802E961CBF81C200A60A86172
:106630000AE04FF6EB604FF23031C0F20E20C0F2AC
:106640000E21B62231F022FAB8F1010F09DB05F173
:106650005C066A460021304635F048FE304635F08B
:106660005FFF2046F9F728FE34F014F96E6B96B9F7
:10667000F9F71EFE0A99044609B1E86C0860204645
:10668000F9F71AFE43F23810C2F20020016809B18E
:10669000584688476E6B304601B0BDE8F08F000069
:1066A0002DE9F04F81B090468B460446009132F0C0
:1066B000C1F90746F9F7FCFD814631F0E2FB98B1DC
:1066C0004FF25D354FF28B20C0F20E25C0F20E2046
:1066D000294632F0E8FE4FF6EB6040F29F42C0F2EE
:1066E0000E20294631F0D2F9012F13D14FF25D353A
:1066F0004FF26620C0F20E25C0F20E20294632F07D
:10670000D2FE4FF6EB6040F29F42C0F20E202946C7
:1067100031F0BCF9F9F7CCFD074635F02FFB98B9FD
:106720004FF25D354EF28040C0F20E25C0F20E20D1
:10673000294632F0B8FE4FF6EB6040F29F42C0F2BD
:106740000E20294631F0A2F9F9F7B2FD054632F0E4
:1067500087FE98B14FF25D364EF25940C0F20E26D8
:10676000C0F20E20314632F09EFE4FF6EB6040F252
:106770009F42C0F20E20314631F088F92846F9F7E1
:106780009BFD3846F9F798FD4846F9F795FD5CB949
:106790004FF20E304FF25D31C0F20E20C0F20E21EA
:1067A00040F2A24231F072F9204633F04BFD03284B
:1067B0000BD04FF269404FF25D31C0F20E20C0F2B3
:1067C0000E2140F2A34231F061F935F0D7FA0646C6
:1067D000F9F76EFD43F23C118246C2F200210968CE
:1067E00009B120468847606A0021B042716311D028
:1067F000D0B1BBF1000F4CD096F83800657B96F80D
:10680000399040072ED43046414635F019FC48B344
:10681000074641E094F82200FF281FD15046F9F7BF
:106820004BFD6FF022078BE094F82010666240F277
:10683000FF10A4F82100FF2907D096F83900814203
:1068400003D23046424600F09DFC214656F8400FE8
:1068500041F8280F416031604E6065E0013084F8F6
:10686000220061E004F11807D5B1012D20D138468E
:106870000068B84214D090F8211096F839208A4266
:10688000F6D2416806F11802F16142600A60B06117
:1068900019E06FF0740777635046F9F70DFD4FE08C
:1068A000E06906F11801F061E1610160B7610AE099
:1068B0004FF6EB604FF23031C0F20E20C0F20E21E5
:1068C000B62231F0E3F894F82100B46481450AD28D
:1068D000606A84F8219090F83910894503D2022229
:1068E000494600F04FFCBBF1010F09DB06F15C05E6
:1068F0006A460021284635F0F9FC284635F010FE9E
:106900005046F9F7D9FC33F0C5FFF9F7D1FC716BAC
:10691000824649B1606AB8B196F8391090F83920CA
:106920008A425FEA0F9110E05046F9F7C5FC43F246
:106930003810C2F20020016809B1204688470027BC
:10694000384601B0BDE8F08F01213A68BA4202D062
:1069500092F8212000E0FF2284F82120D1B90246DC
:1069600052F8403F12F8061C93420CD013F8087CF2
:10697000C9B213F8075C1B68BD4255EA3787B942B4
:1069800051EA3781F0E790F83920914202D0022293
:1069900000F0F8FB5046F9F78FFC706B0021B164F2
:1069A00080EAE072C2EBE077CAE700002DE9F04729
:1069B00082B0044690460E46019158B94FF2EE203F
:1069C0004FF25031C0F20E20C0F20E2140F2FD1203
:1069D00031F05CF8204633F035FC02280BD04FF242
:1069E0006C304FF25031C0F20E20C0F20E214FF445
:1069F000FF7231F04BF843F23C10C2F20020016804
:106A000009B120468847208C002871D1002E6FD014
:106A100032F010F80546F9F74BFC814631F031FAB7
:106A200098B14FF250374FF28B20C0F20E27C0F2D0
:106A30000E20394632F037FD4FF6EB6040F203226C
:106A4000C0F20E20394631F021F8012D13D14FF25A
:106A500050354FF26620C0F20E25C0F20E202946B6
:106A600032F021FD4FF6EB6040F20322C0F20E201F
:106A7000294631F00BF8F9F71BFC824635F07EF918
:106A800098B94FF250374EF28040C0F20E27C0F254
:106A90000E20394632F007FD4FF6EB6040F203223C
:106AA000C0F20E20394630F0F1FFF9F701FC07463D
:106AB00032F0D6FC98B14FF250354EF25940C0F248
:106AC0000E25C0F20E20294632F0EDFC4FF6EB60A9
:106AD00040F20322C0F20E20294630F0D7FF38469C
:106AE000F9F7EAFB5046F9F7E7FB4846F9F7E4FB0C
:106AF000F9F7DEFB218C074689B1481E2084384611
:106B0000F9F7DAFB43F23810C2F20020016809B14C
:106B1000204688470025284602B0BDE8F08786B3A6
:106B200035F02CF9064690F8380094F80D9040079F
:106B30006FF00A00706309D43046414635F080FAA0
:106B400020B105463846F9F7B7FBE4E7B9F1000F85
:106B500004F118001BD0B9F1010F20D1014600BF8C
:106B60000968814213D091F8212096F83930934278
:106B7000F6D2486806F11802F0614A600260B1611D
:106B800018E03846F9F798FB6FF07405C3E7E16940
:106B900006F11802F161E2610A60B0610AE04FF6A5
:106BA000EB604FF23031C0F20E20C0F20E21B6225F
:106BB00030F06CFF0198012809DB06F15C0501AAA1
:106BC0000021284635F092FB284635F0A9FC3846CE
:106BD000F9F772FB33F05EFE756B002D9BD191E7E8
:106BE0002DE9F04106461C46904658B94EF2F82071
:106BF0004EF60561C0F20E20C0F20E2140F28F1257
:106C000030F044FFBCB316B1B8F1000F0BD14EF613
:106C100096404EF60561C0F20E20C0F20E214FF4F0
:106C2000CA7230F033FFF08BB76DC00432D53546F1
:106C300035F8510FA97840EA0140C0F38F00A04217
:106C40001CD24EF68540C0F20E2032F02CFCA87803
:106C50002246298841EA00403146C0F38F034EF6B0
:106C60006450C0F20E2032F01EFC4EF2B920C0F289
:106C70000E2032F018FC0020BDE8F081384633F0D9
:106C8000F5FCA04206D207F110004FF0FF31BC83A3
:106C900030F09CFFF9F70CFB064638464146224689
:106CA00033F002FD04463046F9F706FB2046BDE806
:106CB000F08100002DE9F04F81B0DBB31D46914615
:106CC000834618B1B9F1000F18D10BE04EF2F8204D
:106CD0004EF60D51C0F20E20C0F20E2140F2FF120E
:106CE00030F0D4FE4EF696404EF60D51C0F20E2016
:106CF000C0F20E2140F2012230F0C8FEDBF85C80C9
:106D0000B8F1000F0BD14EF6E6404EF60D51C0F231
:106D10000E20C0F20E214FF4017230F0B7FE35F0B4
:106D20002DF848B1BBF81E00400605D4D8F8140071
:106D300001280AD1002504E058464A462B4600F0B7
:106D400015F9284601B0BDE8F08F08F1180A0026B1
:106D50000120C8F81400009509EB060440462146BE
:106D60002A4633F013FDDBF848100246C8F810003D
:106D70004FF480430F6958462146B847D8F81000B1
:106D80004FF0FF3106442D1A504630F01FFF0DB171
:106D90002FF01FC0009D0020C8F81400D1E7F0B507
:106DA00081B005461C46164658B94EF2F8204EF6FC
:106DB0002A51C0F20E20C0F20E214FF4E67230F0DC
:106DC00065FE24B305B15EB94EF696404EF62A51E3
:106DD000C0F20E20C0F20E214FF4E87230F056FEE1
:106DE000EF6D5FB94EF6E6404EF62A51C0F20E2026
:106DF000C0F20E214FF4E97230F048FE34F0BEFFCD
:106E000038B1E88B400604D47869012809D1002400
:106E100004E028463246234600F0A8F8204601B098
:106E2000F0BDA86C012179614FF48043D0F810C007
:106E3000284631462246E047044607F118004FF045
:106E4000FF3130F0C3FEE9E72DE9F04182B004469E
:106E50001D46164658B94EF2F8204EF64851C0F27B
:106E60000E20C0F20E214FF40F7230F00FFEF5B17C
:106E700004B15EB94EF696404EF64851C0F20E206F
:106E8000C0F20E214FF4107230F000FEE76DF9F7FA
:106E90000FFA7969804661B1384631462A4633F0A7
:106EA00075FC04464046F9F707FA20461CE000202E
:106EB0001AE001207861384631462A4633F066FCF4
:106EC00005464046F9F7F8F90020019001A9384637
:106ED00034F0A2F8A16C024638614FF400430F6908
:106EE00001992046B847284602B0BDE8F08100006D
:106EF000F0B581B005461C461646A8B94EF6F557C2
:106F00004EF2F820C0F20E27C0F20E2040F23512E9
:106F1000394630F0BBFD4EF6C1404FF49C72C0F2D2
:106F20000E20394630F0B2FDCCB12746A86CC168BE
:106F300028468847411C14D006F8010BE98B11F054
:106F4000400F5FEA1F910A285FEA0F90084301286B
:106F5000A7F1010006D1012F0746E7D102E000208A
:106F600000E03846201A01B0F0BD0000F0B581B055
:106F700004461D461646A8B94EF615674EF2F8208F
:106F8000C0F20E27C0F20E204FF4B172394630F035
:106F90007DFD4EF6C14040F26512C0F20E2039462A
:106FA00030F074FD9DB12F46E08B400607D5307858
:106FB0000A2804D1A06C0D21826820469047A06C5D
:106FC00016F8011B826820469047013FECD1284605
:106FD00001B0F0BD80B5FBF735FC00BFFEE7B0B5F2
:106FE00043F28800C2F200200468F9F761F905460F
:106FF000204633F077FD04F15C0035F0EDF9012017
:1070000084F83800204634F009FD2846F9F754F991
:10701000BDE8B04033F03EBC70B582B004469C463B
:10702000089D1830DDE90636C4E9060004F12400A5
:10703000236380E80610232160461A4632F0ECFDF7
:10704000D4E90B1246F6DF730A44606AA16A043A77
:10705000C0F2002331F0C0FF202E206204D319A01B
:1070600021A1C62230F012FD47F2F90284F83A60FD
:1070700084F83960002104F14000C4E90F10C4E92C
:10708000110104F15C00E16484F85010C4E9155565
:10709000C0F20022616384F83810C4E9231123464A
:1070A000CDE90011214635F0F1F943F24C10C2F25E
:1070B0000020016821B1204602B0BDE870400847B9
:1070C00002B070BD7072696F72697479203C205291
:1070D000545F5448524541445F5052494F524954BD
:1070E000595F4D41580000005F7468726561645FCC
:1070F000696E697400000000B0B5044650B94FF2E3
:1071000026604FF26971C0F20E20C0F20E218B2270
:1071100030F0BCFC94F8380040070AD44FF25360BA
:107120004FF26971C0F20E20C0F20E218C2230F0B5
:10713000ADFC204633F086F801280AD04FF2956066
:107140004FF26971C0F20E20C0F20E218D2230F094
:107150009DFCF9F7ADF82146E36905466FF0740030
:1071600051F8182F606320465360E369E1611A60AB
:10717000096033F063FC2846F9F79EF8BDE8B0409B
:1071800033F088BB2DE9F04F81B014468DF8031021
:107190000DF103020221054634F0A8FB10B101B045
:1071A000BDE8F08F4FF0FF0B0DF1020A95F83800A3
:1071B0004007F4D5AF6C002FF1D0384633F042F8D9
:1071C0000328ECD12E4697F80D908DF802B056F8B2
:1071D000180F716896F820204160716808605007A8
:1071E000C6E9006605D42846214634F029FF002868
:1071F000D5D1B9F1000F07F1180813D0B9F1010F7B
:10720000404617D1006840450CD090F8211095F801
:1072100039208A42F6D24168E96146600E60A86171
:1072200013E000BFF869E861FE610660C5F81880E8
:107230000BE000BF4FF6EB604FF23031B622C0F2E8
:107240000E20C0F20E2130F021FCD8F8000040459D
:1072500002D090F8210000E0FF207D6A87F821002D
:10726000294695F83A0051F8402F00BF8A420DD0C8
:1072700012F8083CC0B212F8077C12689F4257EA25
:107280003383984250EA3380F0E700BF95F8391015
:107290008DF8020088423FF482AF02212846524610
:1072A00034F024FB00283FF481AF78E740F28444B7
:1072B0004FF6FE75C2F20024C7F6FF75F8F7F8FF27
:1072C0002168A1420AD04E69F8F7F6FF34F06AFF50
:1072D000301AA8420BD834F0ACFB08E0F8F7ECFF0A
:1072E00034F04CFD022134F0ABFE33F0D3FA34F02D
:1072F00023F9E3E7F0B585B00D461646074601A829
:1073000011462A461C46FBF79FFCE0B10198039901
:10731000091A013141F017C87268029B0A999A1A3A
:10732000366802FB0171821B23182F688818D91B4D
:107330000A7810F8013B1A44FF2A28BFFF2201F8FF
:10734000012B0FF00BC805B0F0BDC9B2002228F028
:1073500076B980B520F027FF20F080FF012804D007
:10736000022818BF80BD002000E00120BDE8804059
:10737000FBF7ACBD70B520F0E3F843F2585104467A
:10738000C2F200210A68022A15D81AA11FA01CA364
:1073900051F8221050F82260204653F8225020F075
:1073A00019FD43F2343043F24831C2F20020C2F2F8
:1073B000002105600E600021204620F0DEFB09213F
:1073C00000220023204623F063FD47F253310D22B3
:1073D000C0F200210023204623F056FC4FF4004168
:1073E000204627F05FFB0221204623F05FFC204669
:1073F00070BD00BFA8010022C0010022D8010022F8
:10740000C69A0E02A6A80E0206C10E02BC0100001A
:107410000C030000FF03000010B540F6904401206B
:10742000C2F2002484F8A40004F1AC00FDF781FF4F
:107430000028D4F8A80003D0BDE810402CF01EB8F6
:10744000BDE810402BF0E8BF2DE9F04381B040F6D5
:107450009047C2F2002707F1AC0497F8A50080F02E
:10746000010087F8A5002046FDF763FF002800F023
:10747000B18005464FF000084FF6FF79286D2BF0DC
:1074800035FE696B084468632BF048FE87F8A480DA
:1074900097F8A52095F854102865C1F3400393424E
:1074A00000F0888001F0FD00490740EA420085F8BD
:1074B000540020D4686B00287CD495F84E00C00797
:1074C00009D1A96939B128468847696AEA6A01443D
:1074D00069621044E86228462FF0F0FBE96809B1C0
:1074E0002846884795F8540040F0040085F8540079
:1074F00028462FF003FB686B00285BD4296B884279
:107500002846C8BF6963296A8847A96A88421ED18C
:1075100097F8A400002850D1D5E90C01814249DB3D
:1075200095F85410B5F8443011F0010205D123B19B
:107530004B4502D0013BA5F844301B0418D0D5E9D7
:107540000F36C6F100066E63A3B3A2B116E06A68F7
:107550000646A86212B128683146904797F8A40001
:1075600058BBAA68002AD3D0284631469047CFE7B7
:10757000EB6B73B16AB9AA6B52426A6381F0010185
:1075800085F85410696AEA6A6A62E863C5E90B1310
:1075900010E020462946FDF748FFFFF73DFF296927
:1075A00009B128468847696909B1284688472846AD
:1075B0001FF006FB97F8A40020B12046FDF7B9FEA6
:1075C00004E000BF20462946FDF7C6FE054608B187
:1075D0002FF0ADC001B0BDE8F083B0B504464068FF
:1075E0000D4610B12946FFF7F8FF226822B1204668
:1075F0002946BDE8B0401047B0BD70B50E680C46D6
:107600000546316841B196F82200C00604D52160D4
:1076100028462146FFF7F1FF266028462146BDE8AF
:107620007040FFF7DABF11F016BC11F04ABCB0B5DC
:1076300096B00446406C08B36D46284610F02BFF08
:1076400044F67D30002109914FF000410A9101215B
:107650000B9148F2B351C0F20320CDE90040606CB9
:10766000C0F20121089144F67F310C902846C0F207
:107670000321049110F0DAFF16B0B0BD204616B019
:10768000BDE8B0402DF03ABA2DE9F0414EF2FA389B
:107690004CF20016C4F20108C4F201064AF203508B
:1076A000A8F800000120B080B08808B12FF005C014
:1076B0006BA0012131806EA190ED001F43F2D450E8
:1076C0004EF60147C2F200204EF600444EF220056D
:1076D000C4F2010780ED001F91ED001F43F6000189
:1076E00080ED041FC4F20104C1F69C41C4F20105FF
:1076F000C0E908118162FAF75AFF4FF6506016216F
:10770000CFF6FF702154092085F88200207818B93F
:107710003878800700F09E80207840B901202070E2
:10772000C8200121F9F787FA20780128FCD1002030
:10773000387020700020A874287F0007FCD54FF413
:107740003C50288540F21111E985002185F82A1066
:10775000288140F23110A885A97200BF287F8006D9
:10776000FCD542F232370420C3F2121730772F6073
:1077700001242C710526AE71FAF719FF962001211C
:10778000F9F759FA002028712F60FAF710FF9620B8
:107790000121F9F750FAAE71FAF709FF2C7485F858
:1077A000324085F8334095F8540040F0400085F8A9
:1077B000540000BF95F95400B0F1FF3FFADC0620F9
:1077C00085F84C00472085F85400072085F85400C0
:1077D00095F954000028FBD495F8350040F040009E
:1077E00085F8350095F93500B0F1FF3FFADC02204D
:1077F00085F83400C52085F8350095F8350000F08F
:10780000BF0085F8350000BF95F935000028FBD48E
:1078100095F83F0040F0400085F83F0095F93F00A3
:10782000B0F1FF3FFADC012085F83E00CA2085F860
:107830003F0095F83F0000F0BF0085F83F0000BF13
:1078400095F93F000028FBD44FF42540A8F800002C
:10785000BDE8F0814FF47A70F9F70EFA6AE700BFDD
:10786000006CDC0200127A0000800000002D310163
:107870000080000000389C1C00389C1C001C4E0E30
:107880007047000080B54FF0600E4CF2003043F6B8
:107890003431C4F20000C0F2042100BF0A6802B112
:1078A0000260043004310FF007C880BD0000000002
:1078B00001380028FCD170472DE9F04F81B0044613
:1078C000008800285DD04EF64C4B0025C4F2010B19
:1078D0004FF0010A42F2400800272BA6C4F220080C
:1078E0006068326800EBC501496891423ED150F8AA
:1078F00035009BF8001000F0B8500AFA07F9B0F113
:10790000807F09EA010015D158B90120F9F745F93E
:107910009BF8000040EA09008BF800000120F9F70D
:1079200063F998F90000002820D498F8000040F08E
:10793000800015E058B10120F9F72FF99BF80000FD
:1079400020EA09008BF800000120F9F74DF998F9B9
:107950000000B0F1FF3F09DC98F8000000F07F0064
:1079600088F80000C8200121F9F765F9013708F10E
:107970000208032F06F10406B2D1208801358542A2
:10798000A8D301B0BDE8F08F02040000030400009A
:107990000404000080B51EF021FE24F0D7FCBDE8F1
:1079A0008040FCF7CEBAB0B582B0044620F0FBFBB5
:1079B000054620F08BFC28B1606C2064204625F041
:1079C000BDFF26E0E06A012125F05DFC18B12046EC
:1079D0001EF0D0FB1DE020461EF08BF9D4E910010B
:1079E00081420BD06064019001AA1D21204627F03E
:1079F00035FB01280ED1204625F0A0FF284620F0B7
:107A00006FFC042805D1204624F083FC00211FF0E0
:107A100036FD012002B0B0BDC11C002818BF21F006
:107A2000030070471FF0CCB8033022F0A6BEB0B5FB
:107A30000446069D0329DDE904EC16D0022918BF8F
:107A4000B0BD10461946724663462AF0ADFA296861
:107A5000AA68511A00EBD07001312268A2EB6000D5
:107A600001EBD17100EB61000CE010461946724643
:107A700063462AF099FA2968AA6808442168101A0E
:107A8000084401302060B0BD2DE9F04F97B00D9152
:107A9000097B49F2DD2749F2E72611F00101C0F226
:107AA0000127C0F201260A9057EA0680CDE90E327E
:107AB000029049F2652049F28B22C0F20120C0F207
:107AC000012250EA0283002952EA008008904CF615
:107AD000DB604CF6CF620C93C0F20220C0F20222AF
:107AE00050EA0283DDF890B00B934CF6C9634CF674
:107AF000D567002952EA0080C0F20223C0F20227B3
:107B0000079053EA0780DBF81410059057EA0380CA
:107B10000FF2084A069000BF41F055C0DBE901238F
:107B20000026DBF81000A2EB030900F1140200BFED
:107B30001378DB0704D152F8043C1E4404E000BF74
:107B400052F8083CA9EB030918320FF00FC80025C2
:107B500000274FF0000800BF4219127DD2072AD13A
:107B600056B94FF6EB604FF4AF72C0F20E2051469B
:107B70002FF08CFFDBF81000421999FBF6F1136926
:107B800094684B43A34253EAB48154688C4254EA4C
:107B9000C181994207D0107D4FF0010840F00100EB
:107BA0001075DBF810004219A9EB01091369D160C7
:107BB000F61ADBF81410013718358F42CCD35FEA80
:107BC000C870A9D10A9E002127223046002425F042
:107BD000C1F9DDF834905FFA80F8DBF80420DBF8B7
:107BE0000C30D9F8000015A916AFCDE90071229923
:107BF000CDE915442CF064FD99F80C00C00709D0BC
:107C0000B8F1010F06D1304624F01CFB169901EBA8
:107C1000000A01E0DDF858A00F9C3046214624F010
:107C200006FA002800F0768105460E98844200F09E
:107C300071810127159A2398C0F206071146049214
:107C400010440390CDF824802846394625F021FBC6
:107C500010B199F80C0049E100218122284625F055
:107C600079F900060F940ED0DBF8140048B1DBF868
:107C7000101000BF0A68AA420AD0013801F11801A9
:107C8000F8D1002705E0688D20F4406068852FE07A
:107C9000CF6899F80C00698D05F11404C0074FF402
:107CA000006021F4406108BF4FF48060084468859B
:107CB00020460C99884787421AD0284625F03EFE78
:107CC00011AE20463946029A95ED051F86ED001F3C
:107CD00090472B212846324627F0C0F9284624F049
:107CE00081FB24212A4627F0B9F9284625F026FEF3
:107CF000D9F8040001281DD0022829D1DBF80000A2
:107D00000899013020F0010405F114008847201A79
:107D10000021079A00EBD0762846904704460021C0
:107D20002846069A9047201A00EBD070401000EBCE
:107D3000660011E005F114000899DBF8006088473F
:107D4000044600212846069A90472044301A03E052
:107D500000212846079A904799F80C100646C90753
:107D600008D0B8F1010F05D105F114000C9988472E
:107D7000AAEB000A00216A22284625F0EBF8074604
:107D800000216B22284625F0E5F88046284625F09C
:107D900003FA0446284624F0C2FA07F0C041B1F1C4
:107DA000005F15D127F0C0413346B1F5FA6F10DC02
:107DB000B1F57A7F48F21F52C8BFC1F57A716143AD
:107DC000C5F2EB1251FB02F14A1102EBD17700E050
:107DD000334608F0C041CDF840A0B1F1005F13D1A7
:107DE00028F0C041B1F5FA6F0EDCB1F57A7FC8BF5B
:107DF000C1F57A71484348F21F51C5F2EB1150FBAF
:107E000001F0411101EBD078AA4699F80C1099467F
:107E10005AF8144FC807DAF8046010D00021284639
:107E20000B9AB14626463C461F4690470D99109A3C
:107E30003B462746097B34464E4600EB0209C807FD
:107E400005D1002128460B9A904710994318219894
:107E5000209940443944801B091BC71801EB0904D1
:107E600054EA070016D0284625F068FD05F11403F2
:107E700005F1140C0FCB2044224439443B448CE8D8
:107E80000F00284625F05AFD0023284621463A4691
:107E900025F0E0FDDDF83490DDE9098699F80C0065
:107EA000C10709D0B8F1010F06D1DDF840A0039950
:107EB000AAEB010A16E000BF50460C9988472399A7
:107EC000084404994418002128460B9A904704441A
:107ED00000212846059A9047211899F80C00DDF8F2
:107EE00040A08A4401270F9CC0F20607400705D432
:107EF000B0680134018D8C4204DB0BE0002C09DDFD
:107F0000013CB068006850F824501DB10E988442BE
:107F10007FF49AAE17B0BDE8F08F00BF6368696C5C
:107F20006472656E5F7265706F73000080B502A049
:107F300031F0B9FA002080BD1B5B324A1B5B480060
:107F400080B50FF0F3FC002080BD000080B5022852
:107F500013D140F210120220C2F200222BF0B6FE22
:107F60000138092809D8DFE800F00516191C1F227E
:107F700025282B2E10F05AF80BE014A031F093FABC
:107F800018A031F090FA40F21010C2F200202CF04C
:107F9000B9F8002080BD0FF09DFFFAE70FF0D4FE86
:107FA000F7E70FF02BFBF4E70FF008FCF1E70FF019
:107FB0001DFEEEE70FF0BAFCEBE70FF057FDE8E728
:107FC0000FF082FAE5E710F03FF9E2E755736167D9
:107FD000653A206C697374205B6F7074696F6E739F
:107FE0005D0A00005B6F7074696F6E735D3A0A0022
:107FF00080B510F01BF8002080BD70B582B004463B
:108000001EF0BEFA054620461EF0B6FA0646284681
:1080100024F0E8F90B2E044609D02D2E48D1E16A50
:108020000022204602B0BDE8704029F061BE20F079
:10803000BAF810B1806801283AD06946284624F081
:1080400066FA94F8300010F00C0F14D0284624F093
:10805000F9F8054600212722204624F07BFFC0B214
:10806000009905EBD572012851EA11B000EB6200CE
:1080700090FBF5F009E0284624F0AEF800EBD07153
:10808000019A02EB610191FBF0F020EAE075E66AEB
:1080900020F089F800285FEA0F922046294629F04F
:1080A00027FEB54204D01D210022204626F0D6FF2F
:1080B00002B070BDB8B1B0F5807F5FEA2F9128BFE4
:1080C000000AC90010F0F00214BF0009043110F0DA
:1080D0000C024FF0010218BF800808BF023122EAEB
:1080E0005000084470471020704780B588B08DF864
:1080F0001F00152001900DF11F0003900120ADF825
:10810000080040F2E470C2F2002015230691ADF899
:108110001420006801A90222C0F20103049331F087
:1081200054F901285FEA0FA008B080BD41F2016058
:10813000814208D10120108090704FF4F0704FF40C
:10814000B471C2E90101002070470000B0B513A06E
:108150002FF005FF8169082940F2E47118BF002063
:10816000C2F20021086028B103212FF0FBFE002499
:1081700010A501E0FF240BA54EF2CD20C0F20E2089
:1081800031F091F9284631F08EF94EF2B920C0F263
:108190000E2031F088F92046B0BD00BF736369330B
:1081A00069000000627573206E6F742066696E64EA
:1081B0000A000000637374383132742070726F6289
:1081C00065204F4B0000000010B582B040F24874AB
:1081D0000020C2F200248DF80400009002202160EB
:1081E00069460522FFF781FF9DF800002168012202
:1081F00000F00F00012852EA129008709DF801006B
:108200009DF8022000F00F009DF8033042EA0020A4
:10821000888003F00F009DF8042042EA0020C88007
:1082200040F20140A1F8010033F0BCFF2268014692
:108230000120916002B010BDB0B54EF2DB250446BE
:10824000C0F20E25284632F0C7F8002132F050F96E
:10825000204633F045FD284632F0BEF80121BDE846
:10826000B04032F045B910B584B090F8642002F007
:1082700001038B421AD000295FEA0F9102F0FE023F
:1082800000F1500E114480F86410C16A9EE80C5051
:10829000D1E9054122440092CA187144039169460C
:1082A000019204EB0C02029225F05FFB04B010BDBA
:1082B0002BF08BBA10462BF088BA0120704710B50E
:1082C00000F0CCF8EFF31084012080F3108843F223
:1082D0000800C4F22000016841F04001016000681C
:1082E00096200121F8F7A7FC84F31088012010BD27
:1082F00080B5084611461A46F8F7E9F9012080BD15
:1083000001295FEA1F900A295FEA1F91084370471D
:108310000BF002BD10460BF0FFBC0A2908D0012962
:1083200009D144F20000C4F2340000EB820000E006
:108330000430006870470020704744F2C00242F6E3
:108340003871C4F23402C0F204212E2313604EF2BD
:108350000B420978CEF200020901117040F65C115F
:10836000C2F20021C8624CF22C30C4F20000016855
:1083700021F48031016000684EF200104FF400617A
:10838000CEF20000BFF35F8FC0F8801101600120C2
:10839000704708467047084670470120704770B51F
:1083A00040F2547443F20805C2F20024C4F22005DE
:1083B000012001216060EFF3108680F310882868A7
:1083C00020F04000286028689620F8F734FC86F3F7
:1083D00010882046FFF7B1FF80B90120EFF3108429
:1083E00080F310880121286840F040002860286848
:1083F0009620F8F720FC84F310880024204670BDF6
:108400000120704740F65401C2F20021086800BF05
:1084100028B922B1501C086818BF013AF8E708686B
:10842000002200285FEA0F900A6070470A2913D0E3
:10843000012918BF704744F2000C322AC4F2340CF0
:1084400007D1416829B153F8041BCCF8C810036068
:1084500070474CF822307047436070474EF28010EE
:108460004FF40061CEF200002C22016044F2C00102
:10847000BFF34F8FBFF36F8FC4F2340101200A6046
:108480007047F0B581B0B1F936700C46B1F93400DF
:108490001546266B411EB94214DC80B20122103011
:1084A000A08601B28800314602F082FAB4F9341095
:1084B000064620638F4205DAC91B06EB8700890058
:1084C000F8F7AEF906EB870046F82750791CE186ED
:1084D00001B0F0BDF0B581B00646856914200F46A5
:1084E00001F0CBF9044600284FF000002AD0C4E97F
:1084F000027007EB870196F868008900C00703D176
:10850000304601F097F902E0084601F0B6F901465D
:108510006060A0B10027276196F86800C00717D1F6
:10852000D6F88400C2060FD4800711D5A0680421B4
:1085300000EB800082002846FFF7BCFE07E02046E3
:1085400001F001F9002404E02846FFF724FF206130
:108550002760204601B0F0BD2DE9F04F8BB0446A92
:10856000994604F5B6768B460746056B43CE149BB9
:10857000DDF86480B0F5006F09EB0B00A8BF28F0B0
:108580000808884203EB02009246CDF828B0C8BF25
:10859000A1EB090BB042C8BFA6EB030A002D5FEAAE
:1085A0000F9018F4807F5FEA1F91D4F87831089219
:1085B0000840E17D012803F01006099040D194F8AD
:1085C0000E012970A87094F8D5006870D4F8FC00EA
:1085D0006860D4F80001A860D4F82C01E860D4F8F1
:1085E00038012861D4F83401686104F1E800D4F856
:1085F000EC10A961D4F8F010E961D4E93D12C5E9A5
:10860000081290FD000F85ED280FD4F8A800D4F8CB
:108610002411D4E94F23C5E90B236963D4F8581119
:10862000A963D4F85C11E963686594ED261F85EDB4
:10863000111FD4E92C01C5E917010020069000E0C4
:1086400006910321384607F055F8002100223846EC
:1086500007F08EF8079606BBD4F87801CDF8149091
:1086600020F030000F282AD8DFE810F010002D008D
:108670003A002D002D002E013A002D002D00100093
:10868000100010001000100010001000D4E95A0172
:10869000149A484401FB02092FE008F00F01384604
:1086A000D4F8686107F0B9F9D4E95B23D4E95D0136
:1086B000CDE900013846314607F098F82FE0A0F1E7
:1086C000410102290AD2D4F86C0114994843D4F824
:1086D000681101EB490101EB40090EE040280AD185
:1086E000D4F86C0114994843D4F8681101EB89015E
:1086F00001EB800901E04FF0000908F00F01384656
:1087000007F08BF9D4F86C21D4F87801CDE900A0FA
:10871000384649465B4607F069F8DDF814904FEAA1
:1087200008604FF07F4101EAE0705FEA886108F07D
:10873000A001159B58BF4FF07F40A03918BF4FF0E4
:108740007F415FEAC86208F0400203D432B96FF09B
:108750007F4206E0002AA26801D102E0A26810432D
:10876000E268C4F8580194F80E01169E112B41EAF4
:108770000201C4F85C1140F0050084F80E0108D332
:108780000A9998B20905CE469B46B1FBF0F14B0819
:1087900004E09B46CE464FF480310023112E4FF06B
:1087A000000C09DBDDF820A0B1464FEA0A52B6B250
:1087B000B2FBF6F6720805E0B1464FF480360022AF
:1087C000DDF820A018F400700A9818BFC3EB00432E
:1087D00051EA01B018F4806118BFC2EB0A4256EAB0
:1087E00006B15FEA487648BFA3F500435FEA087622
:1087F000DDF85C8048BFA2F50042079E002E149E63
:1088000018BF03EB0E4318BF02EB0642189ECDE9DA
:1088100000200491384641463246CDE902CC07F0AB
:10882000DCF83846214642463346CDE900B902F02D
:108830009CFC099800283FD028786978E075AA78D0
:108840006868C4F8FC00A868C4F80001E868C4F8C7
:108850002C012869C4F838016869C4F8340104F1AE
:10886000E80084F80E2184F8D510A969C4F8EC104A
:10887000E969C4F8F010D5E90812C4E93D1205F120
:108880002C0295FD280F80ED000F07CA6B6DC4E91F
:108890004F01C4F82421A86BC4F85801E86BC4F850
:1088A0005C01C4F8A83095ED111F84ED261FD5E9B1
:1088B0001701C4E92C0103E03846069906F01AFFB7
:1088C00000200BB0BDE8F08F97F88200800603D43B
:1088D000092087F8C601F4E71020C0F20400C4F8AC
:1088E0002C01012084F8E900D0E60000F0B581B049
:1088F0000446006890F86810C9071FD1D4E90267E0
:108900008569B7420CD000BFB8687A68042100EBD3
:10891000800083002846FFF7D0FC3F68B742F3D1C0
:10892000B068E169401A7268042100EB800083009E
:10893000284601B0BDE8F040FFF7BFBC01B0F0BD74
:10894000D0F84C11027C437C090A6FF07F4C01FB8C
:1089500002C201FB03C190F80E3102F07F4201F028
:108960007F41C0E9542103F0FD0180F80E117047EA
:10897000B0B5D0F84C116FF07F4ED0E95625090AFA
:108980004FEA126C2C0E0CFB01E304FB01E162F3D5
:10899000170390F80E2165F31701C0E9583102F072
:1089A000FB0180F80E11B0BDB0B590F8E810044698
:1089B000D0F8F000CA07A0F1010505D0284601F063
:1089C00052FF94F8E8100546D4F8F4008907A0F1A6
:1089D000010003D4D4F8EC10484306E001F043FF53
:1089E000D4F8EC10484301F03EFF6FF3DF2545EA71
:1089F000C020C4F83801B0BD2DE9F04F83B0029219
:108A0000044691F8D5009B46DDE90CA9DDF83CE071
:108A10000E9BC007ABEB0906AAEB090537D128B2BC
:108A200031B251EA000240F20002CFF6C07200F00B
:108A30008A80019301FB01F392FBF9F210FB0033F2
:108A40001FFA89FC0844D717A2FB036507FB0353F1
:108A500009EBDC3756EADF233BB210214FEAE2088C
:108A6000A1EB4B02A1EB4A0108FB02F700EB53001C
:108A700008FB01F1FB17A6EB0032C81707EB1373D5
:108A800001EB10701D11019B4FEA201A6DE0CDE93A
:108A900000E3109818B194F88300400767D44FF0B2
:108AA0007840B1F91420D1F8108190FBF9F0D31778
:108AB000C71750EA0F273946F7F722FD16FB06F2D3
:108AC0001FFA89F315FB05220FFA86FC09EBD33355
:108AD000120A1BB2A0FB02670CFA85F601FB0277B3
:108AE00006EB530501FB02F3FF173E0F0027E0FBE7
:108AF0000263A7EB0512D717A2FB082556EA2F132E
:108B000007FB085792194FEAE1767B41DF1712EB1A
:108B1000176243F1000310EB165841F1000158EAC7
:108B20001F31102052EA1F23A0EB4B01A0EB4A009B
:108B300001FB08F100FB08F0CF17C61701EB177116
:108B400000EB16704BE002F5601090FBF9F8102076
:108B5000A0EB490008FB00F0C11700EB11700021E9
:108B60004FEA201AA1EBC9225546029E3DE04FF084
:108B70007840B1F9142016FB06F30FFA86FE90FB3D
:108B8000F9F015FB0533D1F8101180011F0A1FFA07
:108B900089F390FBF2F209EBD336002382FB070C3A
:108BA00036B24FEA22184FEA1C70C2FB07030EFAD6
:108BB00085F750EA2F1307EB560779431027A7EBE9
:108BC0004B0208FB02F6A7EB4A0208FB02F3A0EBFC
:108BD0008102F717D81706EB177103EB10700D1110
:108BE0004FEA201A029EDDE900E3BEF1000F06F114
:108BF0000401134462D0D4E96E725B4207F10800AD
:108C0000013AC4F8B80139607B60C4F8BC2105DCC6
:108C1000D4F8C01120468847D4E96E0200F108015B
:108C2000013A06F10503C5F10007C4F8B811036065
:108C30004760C4F8BC2105DCD4F8C0112046884741
:108C4000D4E96E1201F10800013A06F11003CAF1ED
:108C50000007C4F8B8010B604F60C4F8BC2105DC04
:108C6000D4F8C01120468847D4E96E020021013AA9
:108C7000A1EB480500F1080106F10B03C4F8B81197
:108C800003604560C4F8BC2105DCD4F8C01120465F
:108C90008847D4E96E1206F111000860501E01F1F8
:108CA0000803C4F8B8314D60C4F8BC015FDCD4F8E7
:108CB000C011204603B0BDE8F04F0847D4E96E72FA
:108CC00007F10800013AC4F8B80139607B60C4F8C4
:108CD000BC2105DCD4F8C01120468847D4E96E02D7
:108CE00000F10801013A06F10503C4F8B811036068
:108CF0004560C4F8BC2105DCD4F8C0112046884783
:108D0000D4E96E1201F10800013A06F11003C4F82B
:108D1000B8010B60C1F804A0C4F8BC2105DCD4F88C
:108D2000C01120468847D4E96E024FEA480500F199
:108D30000801013A06F10B03C4F8B811036045605D
:108D4000C4F8BC2105DCD4F8C01120468847D4E91A
:108D50006E12022A06F1110001F10803C4F8B831BD
:108D6000C1E90005A2F10100C4F8BC019FDB03B01A
:108D7000BDE8F08F10B5044600F014F80020002183
:108D800084F8C61110BD10B5B1F934000C460128A5
:108D900004DB81B2206B8900F7F742FD0020E086FA
:108DA00010BD00002DE9F04F85B004460D46B0F827
:108DB00072A041F2000894F86810B0F87600B4F898
:108DC0007460B4F97870C0F24018C906ADF80CA010
:108DD000ADF81000ADF80E60ADF8127031D4616CD2
:108DE00003292EDC042292FBF1F9216C91FBF9F2AC
:108DF00002FB191129BBE16B21F003028A4220D149
:108E0000E16C21F003028A421BD1BAF10F0F18D88E
:108E100002B2481EB0EB221F13D1A06C02920728A9
:108E200056D8DFE800F00467875787877477280EE5
:108E300005F07F4141EA004141EA002040EA156522
:108E400078E0204600F0B2FFD4E96E02192300F169
:108E50000801013AC4F8B81103604560C4F8BC21A8
:108E600005DCD4F8C01120468847D4E96E1201F120
:108E70000800013AC4F8B8014FF000030B604B60E2
:108E8000C4F8BC2105DCD4F8C01120468847D4E9D9
:108E90006E02616D013A41EA080100F10803C4F86D
:108EA000B8314FF0010303604160C4F8BC2103DC1A
:108EB000D4F8C0112046884703A90022204607F0B5
:108EC000E4FC204600F072FF002005B0BDE8F08F02
:108ED00041282FD14FF470404FF4706100EA1540E3
:108EE000F02201EA153102EA15220844C5F3031104
:108EF00010440AE04FF478404FF4FC6100EA15207A
:108F000001EA55110844C5F3C401084410E04FEAD2
:108F100035650FE04FF4704005F0F00100EA1520D0
:108F20004FF4706241EA157102EA151208441044C8
:108F300000EB0045204600F039FFD4E96E121923FA
:108F400001F10800013AC4F8B8010B604D60C4F8A3
:108F5000BC2105DCD4F8C01120468847D4E96E0254
:108F600000F10801013AC4F8B8114FF000030360A2
:108F70004360C4F8BC2105DCD4F8C0112046884702
:108F8000D4E96E1230B2019002980126A0EB0A0BD0
:108F900001F10800013AC4F8B8014FF0010308F5E7
:108FA00000150B604D60C4F8BC2106DCD4F8C0117C
:108FB000204688470126D4E96E02216CDDF8048042
:108FC00006EB2B16A7EB080791FBF9F1013A4FF0DE
:108FD0001F0505608BB200F10801C4F8B8114360A9
:108FE000C4F8BC2105DCD4F8C01120468847D4E978
:108FF0006E124FF6FF703B03013AC4F8BC2123EA1E
:109000000000B6FBF9F300F5803040EA030001F1FF
:109010000803C4F8B8314FF01E030B60486003DC4E
:10902000D4F8C01120468847606C042819D0022863
:1090300032D001287FF445AFD4E90F014FEA281759
:10904000D4E96E2300EB1A1001FB070002F10801BE
:10905000C4F8B8112021C2E90010022BA3F10100CD
:1090600033E0216C4FEA28126FF00300514300EA0D
:109070009A00E26BD4E96E37104400EB810003F1F3
:109080000801C4F8B81120211960791E5860C4F88D
:10909000BC113FF716AF1CE0206C4FEA28114FEAD5
:1090A0001A124843E16BD4F8B83101EB4201D4F80D
:1090B000BC2101EB400003F10801C4F8B8112021E4
:1090C000C3E90010022AA2F10100C4F8BC01BFF6F6
:1090D000F8AED4F8C01120468847F2E670B5B0F972
:1090E0007630B1F900409C4211DCB0F978E0B1F97A
:1090F000022072450BDCB0F97260B1F904C0B445CE
:1091000005DBB0F97450B1F90600A84201DA00207D
:1091100070BDB442B8BF0E80AA42B8BF4D809C4516
:10912000C8BF8B8070454FF00100C8BFA1F806E0B2
:1091300070BD2DE9F0418446DDF818E0C06C21EAED
:10914000E177DCF8504005B226B201389D4253EA7F
:10915000C083013C76455EEAC48122EAE2724FEAAE
:10916000034EBD424FEA014857EAC080964252EA98
:10917000C48221EAE871000123EAEE73ACF87200C0
:109180001001ACF874001801ACF876000801ACF8D6
:109190007800002000218CF8C611BDE8F0810000A5
:1091A000B0B50446806920B1204600F087F8054636
:1091B00000E0002540F64001C2F20021F9B1084666
:1091C0000968A142FAD121680160E16900202062AA
:1091D00039B100BF204600F065FAE16909B12FF00E
:1091E00007C8E06F08B100F0AEFA206B08B100F0DC
:1091F000AAFA00202063204600F0A5FA00E002252C
:109200002846B0BD2DE9F04182B08046006890F854
:109210006810C90727D1D8E902678569B74214D019
:10922000002400BF386818B1F96809B10069086006
:10923000D7E901203969009400EB800083002846BB
:10924000FFF756F83F68B742ECD1B068D8F81C1069
:10925000401A7268316900EB8000830000200090A2
:109260002846FFF745F802B0BDE8F08170B54169C6
:1092700004460068C1B14A687AB18569002600BF1A
:10928000086850F8262022B104212846FFF742F84A
:109290006169486801368642F2D3086800F053FAE3
:1092A000606900F050FA02E0616800F0D3F9206BC9
:1092B00018B1BDE8704000F046BA70BDB0B50446C4
:1092C000806930B3E06F30B1016800220868026045
:1092D000204600F0BFF9D4E904150020C4E90400D9
:1092E00011B1204600F031FA1DB12046294600F0A8
:1092F0002CFAD4F8B4010025C4E90155E560656392
:1093000000F021FAA069C4E96D5507F019FDA561C7
:1093100000E0002084F8C601B0BD00002DE9F04156
:109320000C4685694FF00008276817F0803F05D08C
:10933000B7F1803F32D10434F6E700BFFEB2626875
:109340002846314607F004FD202E02D1284607F0BA
:109350002FFDC7F30726A2682846314607F0F8FC20
:10936000202E02D1284607F023FDC7F30746E26806
:109370002846314607F0ECFC202E02D1284607F0A3
:1093800017FD3E0E22692846314607F0E1FC202EEB
:1093900002D1284607F00CFD1434C5E7380414D474
:1093A000380221D4B7F1FF3FFEB241DDFF2EC2D11A
:1093B000C7F30728B8F1040F02D0B8F1020F5BD150
:1093C0002846043407F0F4FCAEE7FEB2322E53D048
:1093D00062682846314607F0BBFC202E02D12846A1
:1093E00007F0E6FC08349FE7FEB2C7F30727FF2E1D
:1093F00008D1022F41D12846043407F0D9FC4FF0A0
:10940000020891E762682846314607F0A1FC202E49
:1094100002D1284607F0CCFCA2682846394607F05E
:1094200097FC202F02D1284607F0C2FC0C347BE7C2
:1094300062682846314607F08BFC202E02D1284670
:1094400007F0B6FCC7F30726A2682846314607F0A6
:109450007FFC202E02D1284607F0AAFCC7F307465E
:10946000E2682846314607F073FC202E02D12846D8
:1094700007F09EFC103457E747463846BDE8F081B8
:10948000F0B581B00D46496A0446C668C56011B1A1
:109490001221122020E0686D01276F6270B9606EA2
:1094A000082803D10121204605F039FF204600F0AD
:1094B000C6FC01222046294601F0E0F900222046A0
:1094C00029466F65002707F049FC94F8C7116F62C1
:1094D000E66084F8C77148B284F8C61101B0F0BDE7
:1094E00038B110B5044607F009FC002084F8C60125
:1094F00010BD0220704700002DE9F04182B0804687
:10950000DDE908C00728C8E90F12C8F84800C8E913
:10951000133C0ED80FF20A0101EB80020121DFE8B3
:1095200000F02104100C2525141A02214FF480109C
:1095300018E0402805D0412818D102214FF44010EE
:1095400010E004214FF400100CE040F20010042160
:10955000C0F2200006E040F200100221C0F220001C
:1095600000F58010C8F85400C8F84410D8F81C0062
:10957000D8B1D8F8541000BFD0F82C41D0F84461CD
:10958000D0E947250A430768224342EA0502D0E9A9
:109590004F5442EA050242EA040242EA0602C0F8D7
:1095A000242138460FB12FF019C8581EACF1010123
:1095B0000FB2002103B20022404600970024FFF7BB
:1095C000B8FD002088F8C64102B0BDE8F0812DE961
:1095D000F04786B00E468046D1E90040D1E902212D
:1095E000CDE902023369CDE904134142524202A897
:1095F0000FF060FE307DB4F808A0D4F8109012F09F
:1096000015FC317D039BDDE90464A1F10E02029992
:10961000D5B2052D03D21727EF40FF0702D100BEB8
:10962000002506E042F6F46752B2C0F2042757F86C
:1096300022500730711AC008BAFBF0F2E01A01306C
:109640004B1CCDE9000540464946FFF755FF06B0E3
:10965000BDE8F087F0B581B009B30C4605468669D0
:1096600095F8680027462468C007796804D1284621
:1096700000F049F803E000BF084600F064F83A69DA
:109680003AB195F88400800703D504213046FEF7EF
:1096900041FE384600F057F80CB12FF01FC801B05A
:1096A000F0BD0000B0B50446006A884225D00D46E2
:1096B00004F11C0119B308460968A942FAD12968C6
:1096C0000160606AA84201D1206A6062E06AA84233
:1096D00001D1206AE062A06AA84201D1206AA0629A
:1096E000D5F8080120B1FEF713FE0020C5F80801E7
:1096F000284600F028F8002002E0072000E00320C0
:1097000084F8C601B0BDB0B50C46054600F0DEFBDE
:10971000D5F884100546CA0706D1C80608D42046E5
:10972000BDE8B040FEF7F4BD04212846224606E01D
:1097300028462146FEF72FFE042102462846BDE8B2
:10974000B040FEF7E7BDFEF7E3BDB0B50D46496A90
:10975000044609B1122017E02069A84213D06069BD
:10976000A84210D0E068A84201D1A068E060284675
:10977000FFF77CFDA86B08B1FFF7E5FF2846FFF770
:10978000E2FF002000E0132084F8C601B0BD416A6A
:10979000002280F8C621897D08467047416A002270
:1097A00080F8C62191F8D510C1F3400108467047F2
:1097B000416A1422D1F81C1102EA112142F6087202
:1097C000C0F204225158002280F8C6210846704792
:1097D000416A1422D1F81C1102EAD11142F6087232
:1097E000C0F204225158002280F8C6210846704772
:1097F000844619B1BCF97200000908801AB1BCF99D
:1098000074000009108000981BB1BCF9761009099A
:10981000198018B1BCF978100909018000200021D5
:109820008CF8C6117047416A002280F8C621C97DB4
:1098300008467047B0B50C46054600F047FBD5F822
:1098400084100546CA0706D1C8060BD42046BDE8D9
:10985000B040FEF72DBD042128462246BDE8B040A9
:10986000FEF728BD042128462246FEF723FD0146C7
:109870002846BDE8B040FEF78CBDFEF719BD416A31
:10988000002280F8C62191F8E41008467047416A2A
:10989000002280F8C62191F8E71008467047416A17
:1098A000002280F8C62191F8E61008467047416A08
:1098B000002280F8C62191F8E5100846704710B5DF
:1098C00004468068006830B92068216AFEF702FE0D
:1098D00048B1A16808600021C160D0E9011221618E
:1098E000E261A06010BD2068152180F8C71110BD8D
:1098F000F0B581B0C76F0C4605464FF000004861D7
:109900000D60AFB3386860602020FFF7B6FF60617C
:1099100060B30646B8688000FFF7AFFF306028B339
:10992000D7E901237360D5F8881072615143B160A3
:1099300043F009C0002000223368985004320FF031
:1099400005C8306801EB8101F060A8698A00042134
:10995000FEF7B0FC316808603068006830B13061F3
:1099600070687169C6E90610606806E0002634E098
:1099700028461146FEF7AEFD60604FF00006E0603D
:1099800058B3A060D0E90110C4E906601020A08699
:1099900040202161C4E90A66FFF76FFF2063E0B150
:1099A000616909B1096808E095F8841011F0120F97
:1099B000616801D00D690DB904310D68B4F9341036
:1099C000012903DB89B28900F6F72AFF002021462E
:1099D0002A46E086FEF755FD0126304601B0F0BD6F
:1099E00080B51821F6F71CFF80BD2DE9F0470E4623
:1099F000B1F91410B2F90070DDF820C0B2F90220FC
:109A0000B6F91650CF1BD6F80090AA1AD6E9011560
:109A10004F439A4602FB05720546C9F3C000043362
:109A200000EB22125FEAC96048BFA2F5803248F21B
:109A3000010019F0040818BF121AD5F8B871BCF16A
:109A4000000F384640F8083BC5F8B8014BD04FF03E
:109A5000000CD5F8BC31ACEB82145A1E7C60C5F802
:109A6000BC2106DCD5F8C011284688477168D5E9C5
:109A70006E028F0100F10801013A0AF10A03C5F8EC
:109A8000B81103604760C5F8BC2105DCD5F8C011EA
:109A900028468847D5E96E12B068013A0AF11003EA
:109AA0004FEA801001F10807C5F8B8710B604860F3
:109AB000C5F8BC2103DCD5F8C0112846884740F220
:109AC0000120B8F1000F4FEA5A014FF4003208BFED
:109AD000012002FA01F100FA0AF05FEA496248BF88
:109AE0000843BDE8F087D5F8BC315242013B7A60AB
:109AF000C5F8BC3106DCD5F8C01128468847716826
:109B0000D5E96E0300F10802013B0AF10A07C5F826
:109B1000B82107604160C5F8BC3105DCD5F8C0113B
:109B200028468847D5E96E23022B0AF11000B16858
:109B300002F10807C5F8B871C2E90001A3F10100FC
:109B4000C5F8BC01B7DBBAE72DE9F04381B04D7E23
:109B50000F461E469046E9078146089C0CD1A8078F
:109B600042D53D4615F8340FC00727D1042E78D8CA
:109B700024F40004023637E0394611F81C0FC00700
:109B800005D1042E6DD824F400040236E7E7052E33
:109B900067D804F080700090484642463346FFF78D
:109BA00024FF397F20437D7E013649066FF4400152
:109BB00058BF6FF4000101EA0004D0E7052E50D829
:109BC00004F0807000904846294642463346FFF72D
:109BD0000CFF29786FF4400220430136490658BF34
:109BE0006FF4000202EA0004B87D81071DD5797E7A
:109BF00049071AD5394611F84C2FD20705D1042E42
:109C00002FD824F4000402360FE0052E29D804F0E2
:109C100080700090484642463346FFF7E6FE40EA31
:109C20000401B87D21F400040136400719D5787E7F
:109C3000000716D517F8640FC00704D1042E98BF8B
:109C400024F400040DE0052E0BD804F08070009081
:109C50004846394642463346FFF7C7FE204320F4C4
:109C60000004204601B0BDE8F083B0B5044607F01B
:109C70001FF80028A06152D004F5BC703B21F6F714
:109C8000ADFDE56F6DB1D4F888102046FEF722FCDB
:109C90002860D4F888102046FEF71CFC296808606C
:109CA0000160D4F8881020460A4600F0E5FBD4F89D
:109CB0008810206120460A4600F0DEFB216901255C
:109CC000606169B360B3C4E901014FF40070E16001
:109CD00000256563FFF7D1FD4FF289024021C0F2F4
:109CE0000022C4E96D00C4E96F12A0690A2184F85A
:109CF000C951FEF705FB98B1A0690A210022FF2394
:109D00000025FEF793FBA0690A210022FEF705FB60
:109D1000FF2805D10025012084F8C90100E00525B0
:109D2000284684F8C651B0BDB0B5044605F0ACF97C
:109D3000E0688269032A2BD80169DFE802F0020794
:109D4000162040F2FF2241F8042B20E048F20003E5
:109D50000A68C0F2800363F31F2242F400420A60E3
:109D600040F2FF228A600C3111E00022C8F280022A
:109D7000120C4A8040F2FF22CA60103107E08022B4
:109D8000CA70036940F2FF220A6103F11401016104
:109D9000C16900250139C0E90651012901D800F047
:109DA000A5FB002084F8C651B0BD0000B0B5044644
:109DB00005F06AF9E0688269032A2BD80169DFE8B7
:109DC00002F00207162040F2FF4241F8042B20E087
:109DD00048F200030A68C0F2800363F31F2242F4D2
:109DE00000420A6040F2FF428A600C3111E000221A
:109DF000C8F28002120C4A8040F2FF42CA60103161
:109E000007E08022CA70036940F2FF420A6103F151
:109E100014010161C16900250139C0E90651012918
:109E200001D800F063FB002084F8C651B0BD826801
:109E3000036802FB01310160514281607047B0B597
:109E40000446C06F00B1B0BDE568D5E90F0181429D
:109E5000F9D04FF21D21D4F8C001C0F20021884290
:109E60001CD0204605F010F9204604F009FA2046DF
:109E700005F00AF9E06F0028E86BC4F8BC0123D1B3
:109E8000E16804F5DA7E01F1440C0864096D9CE890
:109E90000C108EE80C10C4F8C01115E005F1440355
:109EA00004F5DA7CD4F8BC0128640FCB8CE80F00F1
:109EB000204605F0E9F8204604F0E2F9204605F0D6
:109EC000E3F8E86BC4F8BC012864B0BD8069704752
:109ED0002DE9F047DDF828E0B3F1FF3FDDE9084C5C
:109EE00019DDB4F1FF3F3FDDA34262D925045E4294
:109EF000A2EB420795FBF6F53F0305FB01F6A7EB46
:109F0000261805FB02F6A1EB4107224434116A43EF
:109F100004EB073A42E0B4F1FF3F6CDD5D424FF2E3
:109F20000009A542CFF6FF7940F28B802504170384
:109F3000BEF1000F95FBF3F505FB01F6A7EB261824
:109F400005FB02F6224401EB030405FB02F24FEA93
:109F5000261604FB09F406EB013AA9F57046A4EBBA
:109F6000221140F08A80CAE067424FF200099F4206
:109F7000CFF6FF7980F0848025045E4202FB09F869
:109F800095FBF6F505FB01F705FB02F6224401FB04
:109F900009F46A43A8EB271804EB261A1944BEF10A
:109FA000000F4FEA01314FF48036A1EB221164D14A
:109FB000A5E01D040F03BEF1000F95FBF4F606FBB0
:109FC00002F5A7EB251806FB01F5A2EB42071944A1
:109FD0004FEA073306FB01F1A3EB251A22444FF2A7
:109FE00000034FEA2111CFF6FF7301EB0231A3F515
:109FF000704541D183E0A3425DD225041603BEF132
:10A00000000F95FBF3F505FB01F805FB02F7224471
:10A01000A6EB28184FEA271601EB030706EB013AD7
:10A0200005FB02F14FF20002A7EB4704CFF6FF72E7
:10A030004FEA0434A2F57046A4EB21115FD05B42D5
:10A040001BE01D040F03BEF1000F95FBF4F606FBA9
:10A0500001F5194406FB02F806FB01F102FB09F3C6
:10A0600022444FEA2111A7EB2818A3EB251AA9F5E2
:10A07000704501EB023142D02346CEF800303EE07D
:10A080001D04BEF1000F95FBF7F601FB09F506FB79
:10A0900002F8A5EB281806FB01F5194402EB0403AE
:10A0A00006FB01F14FEA023203FB09F3A2EB251A8A
:10A0B00003EB21111DE01D046742BEF1000F95FB6B
:10A0C000F7F6A1EB41054FEA053906FB02F806FB5E
:10A0D00001F519444FEA0233224406FB01F1A9EBD2
:10A0E0002818A2EB42024FEA2111A3EB251A01EB3B
:10A0F00002313B464FF4803518BFCEF800304FF4A4
:10A10000803208F5004722EACC336C4222EA0C4246
:10A11000C0E900755244C0E90262C0E90464183025
:10A12000194473422AC0BDE8F0872DE9F04F81B091
:10A1300004460B981F4693468A460D9EC0070C990D
:10A140000A9D02D1D1F8100100E00020009007FB29
:10A1500007F005FB0500D1F810814FEA081906F059
:10A160005EFA99FBF0F006B1306000FB05F10BEBF5
:10A17000050600FB07F257444942CAF100051311D6
:10A1800008115F4300FB167700FB05F603FB1B6C11
:10A1900000FB0BF603FB056E0C9E0B9DD6F81061C1
:10A1A000AD074FEA27154FEA560658BF08EB2715AB
:10A1B00006EB2C17009E4FF0000C06EB2E16ACEBB6
:10A1C0002111C4E90236ACEB2212C4E90431C4E91E
:10A1D0000652C4E90070206201B0BDE8F08F2DE99D
:10A1E000F04F81B099460A9D5B43044605FB05305C
:10A1F00016468846DDF830A006F011FA4FF48011BB
:10A20000BAF1000FC8F10007DDF82CC091FBF0F0A7
:10A210004FF4803E18BFCAF8000000FB05F12EEA9B
:10A22000CC3E00FB09F049420A11031102FB06F57E
:10A23000226203FB075A08EB090557434FF4004815
:10A2400003FB167B4FF4803727EA0C4C0A9F5D43D3
:10A250003E4402FB16550CEB2A174FF0000C08EB9E
:10A260002B16ACEB2111C4E900620EEB2515C4E9F5
:10A270000237ACEB2010C4E90431C4E9065001B048
:10A28000BDE8F08FF0B581B00446006890F8681022
:10A29000C90725D1D4E902678569B74212D000BF4A
:10A2A000386818B1F96809B100690860B8683A6996
:10A2B000042100EB800083002846FDF7FEFF3F6885
:10A2C000B742EDD1B068E169401A3269042100EB70
:10A2D00080008300284601B0BDE8F040FDF7EDBFE7
:10A2E00001B0F0BD00000000F0B581B004464FF4AD
:10A2F000BE70FFF7C2FA0546002800F0848087FF91
:10A300005F0085ED100F6FF07F4043A2C5E90200AA
:10A310004FF07F40C5E9540092ED001F42A205F1C5
:10A32000D406D4F880100027090140F20801C2F2D7
:10A33000400192ED003F58BF4FF480013EA2C5F8A6
:10A340002011636D85ED4A3F92ED003F3EA2C5F8B6
:10A350004C011020A88243EA010085ED443F92EDB4
:10A36000003F3DA240F4002040F4B050C5F8240165
:10A370004020C5F8D80005F11C0085ED160F04211A
:10A3800085ED313F92ED003F86ED002F86ED380FD1
:10A3900080EF50006C6085F8E91085ED4F1FC5E92E
:10A3A0003F77C5E94177FFF71BFB05F13400FFF765
:10A3B00017FB05F14C00FFF713FB05F16400FFF7F5
:10A3C0000FFB05F17C00FFF70BFB05F19400FFF795
:10A3D00007FB05F1AC00FFF703FB23A10C2085F878
:10A3E000E8004FF0FF30C5F8380191ED001FC5E9D6
:10A3F00037702046294686ED100F06F05BF8E069BD
:10A400002860E56100E0012784F8C671284601B0A4
:10A41000F0BD00BF00BF00BF010000000000000051
:10A420000000000000000000000000000000080024
:10A430000000010000C0030000000100AA000000AD
:10A440000000010000160000AA0000000400000047
:10A4500000000000100000000100000002000000E9
:10A4600001000000010000000100000003000000E6
:10A470000300000003000000F0B581B050B30546B2
:10A480000F46032921D31646022A1ED95820FFF76A
:10A49000F4F9E0B10446002021463A46A06328467C
:10A4A000FFF726FAD0B1E86F40B94FF40070FFF71C
:10A4B000E4F9A06390B14020C4E90F000020C4E992
:10A4C0000860606585F8C60105E00D2000E0012008
:10A4D00085F8C6010024204601B0F0BD012085F8B2
:10A4E000C6012046FFF72FF9F4E700002DE9F047F9
:10A4F00082B0456904465DB1E069A969002837D09A
:10A50000012940F0CD8020680121D0F8188066E054
:10A51000206948F23201C8F28001016000212569FA
:10A52000A06845F8041FC56040F2FF30686005F17F
:10A5300008002061E069A1610138E0612046FFF771
:10A54000BEF9206890F8C70100286AD0A169206987
:10A550000329A0F10C02226100F29D80DFE801F0E6
:10A560000275869140F2FF3140F80C1C083891E0EA
:10A5700020680229D0F8188031D3A768D5F810A038
:10A58000B8687E68FB6800EB8001206906EB8102F9
:10A590000AEB81091BB1C3F800900023FB609042D5
:10A5A0000DD28900021D3144914251EA8281C24399
:10A5B0001144802221F003010431F6F707F9B8684D
:10A5C0005146324600EB8000830010200090404648
:10A5D000FDF78EFEA869C5F810900138ADE0EA6974
:10A5E000022A17D3EE68A768511EE96156F8040FD6
:10A5F00050B9A868042100EB800082004046FDF7B6
:10A6000059FE002830604ED0F96871B10860002012
:10A61000F8604CE0012A02BF0129152180F8C7111A
:10A620008CE0A068406828603AE0216948F2320274
:10A63000C8F280020A60A168226942F8040FCA6069
:10A64000101D20610020A06131E048F2000250F8A6
:10A650000C1CC0F2800262F31F2141F4004140F85B
:10A660000C1C40F2FF3140F8041C13E00021C8F23A
:10A670008001090C20F80A1C40F2FF3140F8041B4D
:10A6800008E0802100F8091C226940F2FF31416096
:10A6900002F1140020610020A061E0690138E0614E
:10A6A00002B0BDE8F0872068012180F8C711A169D8
:10A6B00003292BD82069DFE801F00207162040F2B9
:10A6C000FF3140F8041B20E048F200020168C0F2AC
:10A6D000800262F31F2141F40041016040F2FF312A
:10A6E00081600C3011E00021C8F28001090C41802A
:10A6F00040F2FF31C160103007E08021C170226953
:10A7000040F2FF31016102F114002061A0680021D4
:10A71000A161E16982680139E161296902EB820383
:10A7200042689B00102000904046FDF7E1FD306834
:10A7300020B1EE60306828616869A861204602B0E7
:10A74000BDE8F047FFF7BBB870B505464FF4EA70B7
:10A75000FFF793F8044600284FD029A0A5660026ED
:10A76000A4F8C66190ED001F2046C4E9066684ED9A
:10A77000121FFFF7B9FDC4E908006906A062E06294
:10A780004FF0000002D47020FFF777F8206304F147
:10A790003400142184F8C66184F8C461F6F740F8E7
:10A7A00001206066201D1421F6F73AF83320C4F822
:10A7B0008800042015F0040F50EA1090A4F8786087
:10A7C000E6662907C4E91C6640F2271148BF00F07D
:10A7D0000100C4E9170604F18C00C4E91F6684F87F
:10A7E000C861F6F71DF840F640010820C2F20021CA
:10A7F00084F8C501086820600C60204670BD00BF69
:10A800000200000000000000000000000000200026
:10A81000B0B58469032C20D840F2000C0169C8F25D
:10A82000800C0CF500434FF0020EFF22DFE804F02D
:10A830001A0E02084FF0030E4FF6FF72634605E052
:10A840004FF0040E4FF000436FF07F420D682A4036
:10A850001A430A6001EB8E01016100218161C16927
:10A860000139C161B0BD40EA500040EA900040EAC1
:10A87000101040EA102040EA10407047F0B581B057
:10A880000546086816460C4604F0FEFBA16903293C
:10A890002BD82069DFE801F00207162040F2FF31D3
:10A8A00040F8041B20E048F200020168C0F2800278
:10A8B00062F31F2141F40041016040F2FF318160E9
:10A8C0000C3011E00021C8F28001090C418040F2F7
:10A8D000FF31C160103007E08021C170226940F271
:10A8E000FF31016102F1140020610020A061E86FD6
:10A8F000E1690028A1F10100E06114D1A1680868B4
:10A9000078B1A26A0132A2623C2A0CD10F460146FC
:10A91000006808B12FF007C02068FEF79BFE0020FA
:10A9200038600020A062606990B14EB32068FFF7E4
:10A93000CDFAA268E1690027936852685B1A6169E1
:10A9400003EB830309699B000097FDF7D1FC11E03D
:10A95000D5F88400810705D4C00607D42046FDF74A
:10A96000C5FF06E02046FEF74DFC02E02046FFF75B
:10A9700089FC2EB1204604F065FB0020606215E0E2
:10A980000020E0612046FFF7B1FD6169A068E0604A
:10A9900009B108690AE095F8841011F0120F04D08B
:10A9A0000069002808BF206900E0206901B0F0BDFF
:10A9B000F0B581B00C46E0B1054620461646FDF7DD
:10A9C000ECFCE0B10746A8421AD82846FDF770FC17
:10A9D000A8B1054676B1042F0CD34FEA970E28464E
:10A9E000214600BF51F8042B40F8042B0FF007C09C
:10A9F00000E000252046FDF78BFC2C4600E00024FB
:10AA0000204601B0F0BD000070B582B00646406E31
:10AA1000441E0920072C24D8DDF818C0DFE804F014
:10AA2000040A10161C2121043046CDF800C000F0A5
:10AA300033FC16E03046CDF800C000F0A0FB10E07B
:10AA40003046CDF800C000F036FC0AE03046CDF8C4
:10AA500000C000F00AFC04E03046CDF800C000F071
:10AA600053FC86F8C60102B070BD2DE9F04F83B0EB
:10AA70000C9E0446002E4FF0000000F089828A46AA
:10AA80000D990129C0F28482951922F00F00ADF8CA
:10AA9000040023F00F00ADF80600681E5E1820F0D9
:10AAA0000F00ADF80800701E20F00F00ADF80A008E
:10AAB00001A920469B461746FEF710FB48B3A5F1B7
:10AAC0001000A6F110010FFA80F920460FFA81F864
:10AAD000514604F0DBFF9AF8D500C1071BD110F0F6
:10AAE000020048EA0B025FEA1F9112F00F0F5FEAC3
:10AAF0001F9249EA07031B0718BF002841EA020119
:10AB000040F01B81002900F0958101AA002300205C
:10AB100014E200203CE2BDF904000426C11BDAF86F
:10AB200010014143D4E96E73013BC4F8BC313E606F
:10AB300000EB111207F10801C4F8B8117A6007DCC4
:10AB4000D4F8C01120468847DAF81001D4E96E1312
:10AB500001F10802013BC4F8B8214FF00A070F6069
:10AB60004860C4F8BC3105DCD4F8C01120468847E1
:10AB7000D4E96E2302F10800013BC4F8B8014FF09C
:10AB800010014FF0000711605760C4F8BC3105DCBC
:10AB9000D4F8C01120468847D4E96E03BDF90410EB
:10ABA000DAF81021013B4FF00506A9EB0101066020
:10ABB00002FB01F1C4F8BC3102EB111700F10801EE
:10ABC000C4F8B811476007DCD4F8C01120468847A4
:10ABD000DAF81021D4E96E13504201F10802013B6A
:10ABE000C4F8B8214FF00B070F604860C4F8BC31BF
:10ABF00005DCD4F8C01120468847D4E96E2302F161
:10AC00000800013BC4F8B8014FF011014FF00007F4
:10AC100011605760C4F8BC3105DCD4F8C01120467F
:10AC20008847D4E96E03BDF90610DAF81021013B1C
:10AC30004FF00607A1EB0B01076002FB01F1C4F81E
:10AC4000BC3102EB111200F10801C4F8B8114260E6
:10AC500005DCD4F8C01120468847D4E96E1301F111
:10AC60000802013BC4F8B8214FF00C004FF0000778
:10AC700008604F60C4F8BC3105DCD4F8C011204630
:10AC80008847D4E96E23DAF8101102F10800013B7D
:10AC9000C4F8B8014FF0120717605160C4F8BC3116
:10ACA00007DCD4F8C01120468847DAF81011D4E93F
:10ACB0006E03BDF90620A8EB02024A4301EB12170E
:10ACC00000F10801072202605A1EC4F8B81147605B
:10ACD000C4F8BC2105DCD4F8C01120468847D4E96B
:10ACE0006E1201F10800013AC4F8B8014FF00D03EB
:10ACF0004FF000070B604F60C4F8BC2105DCD4F8AE
:10AD0000C01120468847D4E96E02DAF81011013AE2
:10AD1000C1F1000100F10803C4F8B8314FF013038A
:10AD200003604160C4F8BC2103DCD4F8C0112046A4
:10AD3000884701AA04230F2000E1BDF904004FF465
:10AD4000803200294FF00406A0EB070002EB00332D
:10AD5000D4E96E7207F10800A2F10101C4F8B8014C
:10AD6000C4F8BC11C7E9006300F01581012A05DCB5
:10AD7000D4F8C01120468847D4E96E0100F10802DA
:10AD80000139C4F8B8214FF00A034FF4803703604B
:10AD90004760C4F8BC1105DCD4F8C01120468847D0
:10ADA000D4E96E2102F10800102313604B1EC4F891
:10ADB000B8014FF000075760C4F8BC3105DCD4F887
:10ADC000C01120468847D4E96E03BDF904104FF442
:10ADD0008032A9EB010102EB013700F108010522E5
:10ADE00002605A1EC4F8B8114760C4F8BC2105DCE3
:10ADF000D4F8C01120468847D4E96E1201F108004A
:10AE00000027013AC4F8B8014FF00B03CFF6FF77E3
:10AE10000B604F60C4F8BC2105DCD4F8C01120469B
:10AE20008847D4E96E0200F10801C4F8B811112175
:10AE3000002376E0BDF906004FF48031D4E96E328C
:10AE40000427A0EB0B00013A1F60C4F8BC2101EB02
:10AE5000003103F10800C4F8B801596005DCD4F8EA
:10AE6000C01120468847D4E96E0200F10801013A7A
:10AE7000C4F8B8114FF00A034FF0000703604760B1
:10AE8000C4F8BC2105DCD4F8C01120468847D4E9B9
:10AE90006E1201F108004FF48036013AC4F8B8018F
:10AEA0004FF010030B604E60C4F8BC2105DCD4F8F1
:10AEB000C01120468847D4E96E02BDF90610013A58
:10AEC0004FF005070760A8EB0101C4F8BC2106EBB1
:10AED000013300F10801C4F8B811436005DCD4F86F
:10AEE000C01120468847D4E96E1201F10800013AEA
:10AEF000C4F8B8014FF00B034FF000070B604F6030
:10AF0000C4F8BC2105DCD4F8C01120468847D4E938
:10AF10006E02002300F10801C4F8B8111121CFF628
:10AF2000FF730160511E4360C4F8BC1103DCD4F808
:10AF3000C0112046884701AA022303200090204622
:10AF40005146FEF701FE01AF06460023204651465A
:10AF50003A46002505F045F80023204651463A467A
:10AF600005F00CF9D4E96E01013900F10802C4F8CA
:10AF7000B82105604660C4F8BC1103DCD4F8C011E8
:10AF80002046884701A90022204605F07EFC0120CA
:10AF900003B0BDE8F08F012A05DCD4F8C0112046CB
:10AFA0008847D4E96E0100F108020139C4F8B821DC
:10AFB0004FF00A034FF4803703604760C4F8BC11B8
:10AFC00005DCD4F8C01120468847D4E96E2102F18F
:10AFD0000800102313604B1EC4F8B8014FF000079F
:10AFE0005760C4F8BC3105DCD4F8C011204688474E
:10AFF000D4E96E03BDF904104FF48032013B4FF0E9
:10B000000507A9EB01010760C4F8BC3102EB01326E
:10B0100000F10801C4F8B811426005DCD4F8C01191
:10B0200020468847D4E96E13002701F10802CFF6C5
:10B03000FF77013BC4F8B8214FF00B0008604F6068
:10B04000C4F8BC3105DCD4F8C01120468847D4E9E7
:10B050006E2302F1080011211160591EC4F8B801D5
:10B060004FF000065660C4F8BC1105DCD4F8C011DE
:10B0700020468847D4E96E01BDF906204FF480339D
:10B08000A2EB0B0203EB023600F108020623036079
:10B090004B1EC4F8B8214660C4F8BC3105DCD4F8B6
:10B0A000C01120468847D4E96E2302F10801013B14
:10B0B000C4F8B8114FF00C004FF000061060566055
:10B0C000C4F8BC3105DCD4F8C01120468847D4E967
:10B0D0006E1301F1080012224FF480360A605A1EE6
:10B0E000C4F8B8014E60C4F8BC2105DCD4F8C01126
:10B0F00020468847D4E96E02BDF90610013AC4F82B
:10B10000BC21A8EB010106EB013300F10801C4F8F2
:10B11000B8114FF007060660436005DCD4F8C01193
:10B1200020468847D4E96E1201F10800013AC4F8BC
:10B13000B8014FF00D034FF000060B604E60C4F8ED
:10B14000BC2105DCD4F8C01120468847D4E96E0242
:10B1500000F10801C4F8B81113210160511E4760C5
:10B16000C4F8BC117FF7E1ADE3E580B582B0DDE95D
:10B1700004CECDE900CEFFF778FC02B080BD2DE90A
:10B18000F04F89B0B0F96C70012F6ADB0446994624
:10B1900090460D46102FDDF848A0C16A2BD1A8EBD0
:10B1A0000703E81B0AEB47021EB20FFA82FB334685
:10B1B00002B22046CDE9007BFFF757FCE16A20464A
:10B1C0002A463346CDE90097FFF74FFC09EB05000F
:10B1D000E16A02B220463346CDE9007BFFF745FC29
:10B1E0000AEB0800E16A03B220462A46CDE900973F
:10B1F000FFF73BFC35E091F8D700012807D1B1F902
:10B20000D800B84203DD91F8D500C007C7D0B8B266
:10B2100009EB05064008A8EB00032A1A083B08388A
:10B22000ADF81630ADF81A300AEB0803083AADF85D
:10B23000142006441844ADF81E00ADF82020ADF8E7
:10B24000220000200422CDE900270023029205AA53
:10B25000CDE903002046ADF81860ADF81C6002F09F
:10B2600003F9002009B0BDE8F08F70B582B0B0F8E6
:10B2700070E0B0F86EC0069E0EEB02050CEB010408
:10B280000FFA85FCC16A22B2CDE900366346FFF7AA
:10B29000ECFB002002B070BD80B582B094460A4637
:10B2A000DDF810E0816ACDE9003E6346FFF7DDFB83
:10B2B000002002B080BD2DE9F04182B01D46164647
:10B2C0000F460446DDF82080CDF80080FFF757FFD9
:10B2D000204602F0D5FFA7F11000A6F1100305F1FA
:10B2E0002002A16A08F1200716B202B220461BB262
:10B2F0003FB2CDE90067FFF7B8FB204602F0ABFF95
:10B30000002002B0BDE8F0812DE9F04182B0044692
:10B310001546B0F86E000E46B4F870201F46304453
:10B32000E16A531902B21BB22046DDF82080CDE954
:10B330000078FFF79AFB204602F0A2FFA16A2046A0
:10B3400032462B46CDE90078FFF78FFB204602F00E
:10B3500082FF002002B0BDE8F081000070B582B02D
:10B360000646406E441E0920072C24D8DDF818C07C
:10B37000DFE804F0040A10161C2121043046CDF841
:10B3800000C000F0FFF916E03046CDF800C000F034
:10B39000ABF910E03046CDF800C000F002FA0AE048
:10B3A0003046CDF800C000F0D6F904E03046CDF8C4
:10B3B00000C000F034FA86F8C60102B070BD2DE975
:10B3C000F04F8BB0DDF854901C46B9F1010F934655
:10B3D0008046149D1BDB1FFA89F305EB5306A5EB92
:10B3E0005303ABEB06000BEB0602A719092B56EA39
:10B3F000B58320F00F00ADF8240002F10F0207938F
:10B4000007F10F033546B8BF4FF000090BE0ABEB77
:10B4100005000BEB0502631920F00F000F320F330C
:10B42000ADF824000795B1F9DAA04FF6F076671B66
:10B430003340089102EA060127F00F02BAF1010F2A
:10B44000ADF82620ADF82810ADF82A3028DBB8F981
:10B45000727000B2A446B8F97440A0EB0A00B8F9C3
:10B46000765012B2B8F97860B84257EAB080A2EBD1
:10B470000A02ADF82400A24254EAB2800AFA81F12D
:10B48000ADF82600A94255EAC1800AFA83F1644664
:10B49000B14256EAC181ADF82800ADF82A1001E0AA
:10B4A0004FF0000A09A94046FDF718FE002869D0B0
:10B4B000BDF82400089EBDF82610ABEB00074046FF
:10B4C000641A314604F0E2FA5FEA0940D6F82851DE
:10B4D00000F0B3800FFA89FB079A10B20BFB0BF157
:10B4E0000695814250DA089890F8D500C0074BD1F4
:10B4F0000BF1100040F6FF71013223B200EBD07067
:10B50000089CC0024FF0000A8843012112B2CDE925
:10B51000003202903BB20022CDE903A14046214611
:10B52000FDF76AFA48F24100069901F4007109AA90
:10B5300008430223009040462146FEF705FBD8E968
:10B540006E31074603F1080001394FEA0B32C8F8A3
:10B55000B8014FF016051D605A60C8F8BC1105DC33
:10B56000D8F8C01140468847D8E96E01013900F18A
:10B570000802C8F8B821C0F800A04760C8F8BC119C
:10B5800054DD9BE00020ACE01FFA89F04FF0000A88
:10B5900026B2089C09EBD0300FFA87FB05B217469C
:10B5A00021465B4602EB6500002200B2CDE9006057
:10B5B00040464FF00109CDF808A0CDE903A9FDF7F9
:10B5C0001BFAA7EB650048F20001CFF6FF7100B24D
:10B5D000CDE9006002220291404621465B46CDE95A
:10B5E0000399FDF709FA98F88300069901F42061A0
:10B5F000400701F1C50005D594F8D51001F001010F
:10B6000040EA016009AA0423009040462146FEF763
:10B610009BFAD8E96E12013A01F10803C8F8B83173
:10B62000C1F800A04860C8F8BC2147DCD8F8C011B8
:10B63000404688474FF0000A40E0079901204FF04C
:10B64000000909B222B2CDE900213BB20022CDE9C6
:10B65000039040463146CDF80890FDF7CDF998F8B3
:10B66000830005F4007141F440013446400741F085
:10B67000410005D594F8D51001F0010140EA0160C0
:10B6800009AA0223009040462146FEF75DFAD8E958
:10B690006E12013A01F10803C8F8B831C1F8009000
:10B6A0004860C8F8BC2103DCD8F8C0114046884780
:10B6B00007980AFA80F00F304FEA101A09AF0023FA
:10B6C000404621463A4604F08CFC00234046214681
:10B6D0003A4604F053FD40463946524605F0D5F847
:10B6E00001200BB0BDE8F08F2DE9F04383B0B0F935
:10B6F0006C50012D2BDBDDF8289004461F46904648
:10B700000E46B9F1010F0FDB1FFA89F03246A9B2DC
:10B710004008434600EB5100E16A381A00B2CDE917
:10B7200000052046FFF74BFE1FFA89F0E16AAAB236
:10B73000434609EBD03000B207EB500000EB52005B
:10B74000324600B2CDE900052046FFF738FE002062
:10B7500003B0BDE8F08370B582B0B0F870E0B0F827
:10B760006EC0069E0EEB02050CEB01040FFA85FC81
:10B77000C16A22B2CDE900366346FFF720FE002001
:10B7800002B070BD80B582B094460A46DDF810E084
:10B79000816ACDE9003E6346FFF711FE002002B04A
:10B7A00080BD2DE9F04182B00446B0F96C00DDF8AF
:10B7B00020801F4615460E46B8F1010FA8BF01288C
:10B7C00010DAB8F1000F18D1012816DBA0F1100132
:10B7D000083000B201EBD172E16A07EB520212B2FB
:10B7E000009204E008EB4000E16A00B2009701908B
:10B7F000204632462B46FFF7E2FD204602F040FD90
:10B80000A16A204632462B46CDE90078FFF7D7FDE6
:10B81000204602F020FD002002B0BDE8F0812DE9B5
:10B82000F04182B004461546B0F86E000E46B4F8FA
:10B8300070201F463044E16A531902B21BB2204601
:10B84000DDF82080CDE90078FFF7B9FD204602F051
:10B8500017FDA16A204632462B46CDE90078FFF756
:10B86000AEFD204602F0F7FC002002B0BDE8F081FA
:10B87000F0B583B00446406E461E0920072E30D82E
:10B88000DDF828C0DDE9085EDFE806F0040C141CD2
:10B89000242B2B042046CDE9005ECDF808C001F032
:10B8A00008FC1EE02046CDE9005ECDF808C001F09E
:10B8B000A2FB16E02046CDE9005ECDF808C001F0FD
:10B8C00012FC0EE02046CDE9005ECDF808C001F084
:10B8D000CBFB06E02046CDE9005ECDF808C001F0C4
:10B8E0003DFC84F8C60103B0F0BD2DE9F04FA7B0D0
:10B8F0001746DDE93062F41BD61A56EA040200F05E
:10B900001381139004FB04F006FB06000D4691F82A
:10B91000D6109A46DDF8D0801291DDE932B904F0F4
:10B920007EFE4FF080710E97159591FBF0F1099115
:10B9300006FB01F0319E6143309C40420012091227
:10B9400000FB0BFE0B9101FB0BF30C9000FB09F2CB
:10B9500001FB09F107EB6E490AEB634B0F9204EB15
:10B960006240109006EB61401190A7EB6E4014907E
:10B970001298A4EB6244A6EB614C3E460228AAEB67
:10B98000634609D1329A302A339AB8BF48F0010889
:10B99000302AB8BF48F0020808F00305CDF834801B
:10B9A000033D50EA1580129001281BD15FEAC8754B
:10B9B00009D14FEA6E425B14A9EB03099344149D2D
:10B9C0001644ED1A14955FEA88720BD40F98491447
:10B9D0004014DDF84080119F88443F1A0C44ACEBC2
:10B9E000000C01E0DDE91087149AC14559EAB880DE
:10B9F0001194944254EAB281CDE90F6C884250EA26
:10BA0000B180C14559EAC881944254EAC28220F00B
:10BA10000F00ADF89000914251EAC281BB455BEA4C
:10BA2000B782B4455CEAB68301F10F0020F00F0045
:10BA3000ADF894009A4252EAB382BB455BEAC783F1
:10BA4000B4455CEAC68522F00F00ADF89200AB4227
:10BA500053EAC58101F10F0024A920F00F00ADF8D1
:10BA600096001398FDF73AFB00285DD0BDF89010C2
:10BA70000E9ABDF89240BC46561A5246AAEB0400F4
:10BA8000309A521A079003B20C98319F434306969E
:10BA900035B23E1B0B9F12B207FB15337A4336B209
:10BAA00000FB16224FF48035159E05EB23131693E9
:10BAB000434218934FF4004303EB2212199296F875
:10BAC000D5207B42CDE91A30A9EB010102F0030237
:10BAD00016ABCDF828A0A9EB0809032A03F118003A
:10BAE000ABEB0402ABEB0C0A03F1240809B2179785
:10BAF00008901CD112B24B46CDE900A604F0E6FF37
:10BB0000BDF892100F9FBDF89000149B7A1A1199FE
:10BB1000181ACB1A1099CF1B01B212B24046CDE9C8
:10BB2000007604F0D3FF25E0002600F01EBC12B220
:10BB30004B460025CDE900A504F048FFBDF8921062
:10BB40000F9FBDF89000159E149B7A1A1199181A30
:10BB5000CB1A1099CF1B01B212B24046CDE9007545
:10BB600004F034FF1C981F9900F500401C9001F56B
:10BB700000401F90DDE91245CDF82C80012C319F4B
:10BB80001FD10D9AD00709D100203299CFF6FF704E
:10BB900000EB0130169901EB60001690900709D474
:10BBA00000203399CFF6FF7000EB0130199901EBBB
:10BBB000600019902846314603F068FFD6F828B196
:10BBC0000EE02846314603F061FF022CD6F828B17A
:10BBD00006D10D994FF4C06020EA41204BEA000BDA
:10BBE00096F8D400DDF844C0DDF83CE0810738D594
:10BBF00096F80E1141F0080186F80E112121F16727
:10BC00000699A6F8901001070799A6F89210D6F8A1
:10BC1000D01003D4DDE91732120104E0179A00278F
:10BC2000189BA7EB0212400715984FEA031392FBEB
:10BC3000F1F2159CC0F88420159893FBF1F7D6F823
:10BC4000CC30C4F880704FEA0336C0F88860159E87
:10BC5000319F06D50998000190FBF1F01844C6F811
:10BC6000CC001098AEEB00001499002850EACA806E
:10BC7000C8BFA1EB0C09012802DBB9F1000F05D404
:10BC8000B0F1FF3F1CDCB9F1010F19DB24AE159CAC
:10BC9000012328462146324604F0A3F90123284611
:10BCA0002146324604F06AFA0A9EBDF99600DA4649
:10BCB000B74201DA801B00E0C01B0C90012018E0A5
:10BCC00024AE159C002328462146324604F089F90B
:10BCD000002328462146324604F050FA0A9EBDF958
:10BCE0009200DA46B74201DA381A00E0301A0C90B6
:10BCF0000020DDE9324714901599DDF8C090BC4270
:10BD00005FEADF9054EAC7821090887D11920AF4AE
:10BD1000F05242F4400210F0060F42F00F080BD030
:10BD200024AA04232846CDF80080FDF70DFF8046A5
:10BD3000149800EAD85014900D99C807DDE9353CF5
:10BD400026D188072FD4BC425FEADF905FEACF910B
:10BD5000BC420691119940EA400009B207910E9940
:10BD600051EAC98116AA099102EB800152F820001C
:10BD7000186048685860319856EAC08B886800217E
:10BD800098602598CCF804002498CCF8000013E0C3
:10BD90000020109001210797DDF8C4B0CDF8249061
:10BDA0000120069008E00020069001210794B34688
:10BDB0000E98099001201090149800240D91CDF850
:10BDC0003CB0C8B1BDF99200BDF99610091A16A889
:10BDD0004FEA211900F10C064946FEF728F83046D3
:10BDE0004946FEF724F808984946FEF720F80B98D4
:10BDF0004946FEF71CF801E04FF00009D5E96E0155
:10BE000005F5DC7B159E00F10802C5F8B82105F5A3
:10BE1000DE77C0E90048481EC5F8BC0103DCD5F850
:10BE2000C0112846884796F8D500129C00F0030000
:10BE3000032829D1022C27D05FEA8A5010D4169803
:10BE4000B6F914100001DDE9172312011B0190FB64
:10BE5000F1F0169092FBF1F093FBF1F1CDE91701AF
:10BE60005FEA4A5010D41998B6F914100001DDE9C0
:10BE70001A2312011B0190FBF1F0199092FBF1F0D3
:10BE800093FBF1F1CDE91A01DBF80010169A01F1EC
:10BE90000800CBF800000423C1E9003239684A1ECB
:10BEA0003A6005DCD5F8C01128468847D5E96E020E
:10BEB00000F10801013A179BCBF800104FF00A0679
:10BEC000066043603A6005DCD5F8C0112846884713
:10BED000D5E96E1201F10800013A189BCBF8000079
:10BEE0004FF010060E604B603A6005DCD5F8C011CB
:10BEF00028468847D5E96E0200F10801013A199BEE
:10BF0000CBF800104FF00506066043603A6005DC90
:10BF1000D5F8C01128468847D5E96E1201F108000E
:10BF2000013A1A9BCBF800004FF00B060E604B60F5
:10BF30003A6005DCD5F8C01128468847D5E96E027D
:10BF400000F10801013A1B9BCBF800104FF01106DD
:10BF5000066043603A6005DCD5F8C0112846884782
:10BF6000D5E96E1201F10800013A1C9BCBF80000E4
:10BF70004FF006060E604B603A6005DCD5F8C01144
:10BF800028468847D5E96E0200F10801013A1D9B59
:10BF9000CBF800104FF00C06066043603A6005DCF9
:10BFA000D5F8C01128468847D5E96E1201F108007E
:10BFB000013A1E9BCBF800004FF012060E604B605A
:10BFC0003A6005DCD5F8C01128468847D5E96E02ED
:10BFD00000F10801013A1F9BCBF800104FF0070653
:10BFE000066043603A6005DCD5F8C01128468847F2
:10BFF000D5E96E1201F10800013A209BCBF8000050
:10C000004FF00D060E604B603A6005DCD5F8C011AC
:10C0100028468847D5E96E02119B0C99013A01EB3D
:10C020002316219900F10803CBF800304FF01303D9
:10C03000036041603A6003DCD5F8C01128468847A8
:10C04000149824A920B12846324604F07CFB03E072
:10C050002846324604F019FC0F9E022C01D001261E
:10C0600083E10798099C4FEA600AA4EB0A0004EBFD
:10C070000A0120F00F00ADF88800A6EB0A0020F0BE
:10C080000F00ADF88A0001F10F0006EB0A0120F065
:10C090000F00ADF88C0001F10F0022A920F00F0075
:10C0A000ADF88E002846FDF719F8002800F042810F
:10C0B000BDF888000022BDF88A10201A711A03B258
:10C0C00009B2CDE9001A2846159900260296CDE955
:10C0D0000366FCF791FCBDF98A00BDF99210BDF929
:10C0E0008820BDF99030411A14980028A2EB030073
:10C0F0004FEA211810D0069916AAA8EB090801EBFF
:10C10000410102EB81018A6852428A601E99219A9C
:10C1100049421E915142219122AE139C159D4FEA36
:10C120002019002320462946324603F05AFF0023F7
:10C1300020462946324604F021F8DDE91C10062588
:10C140001E9A00FB0911D4E96E6302FB081206F186
:10C150000801013BC4F8B81135607260C4F8BC3105
:10C1600006DCD4F8C011204688471D98D4E96E1328
:10C1700001F10802013BCBF800204FF00C060E60E5
:10C1800048603B6006DC139C2046D4F8C011884709
:10C19000D4E96E2302F10801013B1E98CBF8001090
:10C1A0004FF01206166050603B6006DC139C204680
:10C1B000D4F8C0118847D4E96E13DDE91F20013B94
:10C1C000219E00FB092206FB082601F10802CBF89C
:10C1D00000204FF007050D604E603B6007DC139CAC
:10C1E0002046D4F8C01188472098D4E96E2302F184
:10C1F0000801013BCBF800104FF00D0616605060AF
:10C200003B6006DC139C2046D4F8C0118847D4E973
:10C210006E1301F10800013BCDF848A0C246C846A4
:10C22000219ACBF800004FF013060E604A603B6085
:10C2300006DC139C2046D4F8C0118847D4E96E036D
:10C2400006990DF1580C013B01EB41020CEB820900
:10C250005CF822204E4659F8085F56F8041F01FB8F
:10C2600008F405FB0A454FF008042A44C2F1011501
:10C2700000F10802CBF80020046045603B6007DC59
:10C28000139C2046D4F8C01188473168D4E96E2346
:10C2900012984D4200F10F0602F10800CBF80000A1
:10C2A0000E211160591E5560396007DC139C204631
:10C2B000D4F8C0118847D4E96E0100E0139C360918
:10C2C000D9F800200139C2F1000200F10803CBF8CF
:10C2D00000304FF0140303604260396003DCD4F88F
:10C2E000C01120468847159942F25D02C0F2400213
:10C2F0000523D1F8280100F4D050104322AA009061
:10C300002046FDF721FCD4E96E12013A01F1080341
:10C31000C4F8B8314FF000030B604860C4F8BC218A
:10C3200003DCD4F8C0112046884722A920463246B3
:10C3300004F0ABFA0D980126B8B910980A9B0028B2
:10C34000DDE9321050EA11800E99309A52EA1182DA
:10C35000319951EA1383CDE9000635980290369859
:10C3600003901398159900F03BFF304627B0BDE8C5
:10C37000F08F2DE9F04FA5B01746DDE92E24A2EB92
:10C380000708E21A129252EA080200F0AF801D4636
:10C39000DDE930C381460CF10F000C464210172135
:10C3A00003F0030A514394F8D6B00E09BBF1010F14
:10C3B00018BF4610BAF1030F08BF461013F400501F
:10C3C00010900C9201D1002018E094F8D7000428B6
:10C3D0000BD130B240F6FF714FEACC2200EB800067
:10C3E000C0F39B0622EA010008E0B4F9D80000EB94
:10C3F0006C0000EB80010003C1F39B060990B8F1CB
:10C40000000F2E9A57EAC2802F9B52EAC78206F18C
:10C410000F01801B119620F00F00ADF888001298D4
:10C420000A44002853EAC58055EAC38322F00F026C
:10C430000844ADF88C20991B20F00F0021F00F016B
:10C44000ADF88A10ADF88E0022A94846FCF746FEEA
:10C4500000284BD05946BDF88800BBF1020F309E32
:10C4600008BF012194F8D520302E51EABB81BDF8D8
:10C470008A30A346BAF1030402F0030251EA148A97
:10C48000032AA7EB0001A5EB03020E92CDE90A1BDC
:10C490002FD113AB129800903198019009B212B2CB
:10C4A00014A8CDE902B34346FDF73FFEDBF81001C7
:10C4B000309900FB01F2149BBAF1010F4FEA2211EF
:10C4C00003EB621314930BD1319F5211FB0702D17E
:10C4D000179B13441793BB0702D41A9B1A441A9252
:10C4E00001EB5000A0F58030079037E0002000F00D
:10C4F000A2BC1F2E319F13AB0ADC1298009009B228
:10C5000014A812B2CDE901734346FDF7E1FC09E03E
:10C510001298009009B214A812B2CDE901734346F3
:10C52000FDF75DFE3099BAF1010F4FEA0132149820
:10C5300000EBC1201490079210D1319BD80705D190
:10C54000A2F58030179901EB60001790980705D489
:10C55000A2F580301A9901EB60001A90DDF82CB03A
:10C56000129E48465946002E5FEADF94B8F1000F4C
:10C570005FEADF9503F08AFAB8F1000F5FEA5F9097
:10C58000002E5FEA5F912040DBF8283129409BF8BC
:10C590001620069340EA010848F21301C0F2C001D8
:10C5A00003F4185012F0060F40EA010711D00223DD
:10C5B000BAF1020F08BF0523109822AA00284846A6
:10C5C000594618BF05230097FDF7BEFA074608EA4B
:10C5D000D0589BF8D4000E9C810732D59BF80E11E1
:10C5E000BC46ABF8924041F008018BF80E112121B6
:10C5F000CBF87C100A99ABF890100107DBF8D0104B
:10C6000003D4DDE91832120104E0189A0026199BC0
:10C61000A6EB02121B0192FBF1F24007674693FB67
:10C62000F1F6DBF8CC304FEA0335CBF88060CBE98C
:10C63000212506D51398000190FBF1F01844CBF8A2
:10C64000CC0022AD484659462A46434603F0C9FC71
:10C65000484659462A46434603F090FDBAF1020F78
:10C660001ED1BDF98EC0309800F11001319D3C46BD
:10C6700015F0010A4FEA51001FFA8CF31AD1BDF8E8
:10C680008A1002270E9AAF435618B8F1000F18BF50
:10C690009A1B089744EA073700230F930A9B1AE076
:10C6A000319DCDF820A005F0010A00200590002062
:10C6B0000F904CE0BDF888602F9FBDF88A10DA1B00
:10C6C0002E9BB8F1000F08BF7A1A9B1B0027089712
:10C6D00001270F97274606041BB2059003EBE634AB
:10C6E000012C2EDBF61306FA82F4012C29DB0D97C0
:10C6F000BDF98840BDF98C703F1B9C1BBC4223DAFE
:10C700000FB2DDF82CB011B2ACEB07008A1B8242ED
:10C710001CDA059A002012B2CDE900120290022222
:10C72000CDE9030048465946FCF766F906980D998D
:10C7300000F40060319D084340F4801040F084070D
:10C7400005E0DDF82CB002E0DDF82CB00D9FBAF169
:10C75000000F349E15D04FF400500F99002908BFE8
:10C760004FF48060A90547EA00070DD41299179885
:10C77000012900F50041179103DB48F2010108444B
:10C780001790DDF844A013E014A8D6E900320A9906
:10C7900000920E9A0C3009B23D4612B20027019762
:10C7A0002F4604F029FADDF844A0319D4FEA4A0AE9
:10C7B000A80730D54FF480600F99002908BF4FF4C7
:10C7C0000050690547EA00070BD412991A9800290E
:10C7D00000F500411A911EDC48F2010108441A904C
:10C7E00019E0BDF8881014A8BDF88A2018302E9BD7
:10C7F0003C46591A2F9B9A1AB368F7685B4209B2F4
:10C800007F4212B2012500972746019504F0F4F902
:10C81000319D4FEA4A0A15F4C05F14D028053298BA
:10C8200003D517AB0ECB80E80E00E904339906D58B
:10C830000C30DDE91A233C461C9F8CC02746DDE9FD
:10C8400022024A600860B8F1000FCDF844A017D06A
:10C85000BDF98A00BDF98E1014AD081A04112846DE
:10C860002146FDF7E4FA05F10C002146FDF7DFFA59
:10C8700005F1180021461294FDF7D9FA319D01E027
:10C88000002012901098002800F0D580A805099883
:10C890002E9C00F5803A64D5D6E9000151EA0002E9
:10C8A0005FD0069A4B4202F400620A993A4309B2F9
:10C8B00042F004020D9214AA002702F124050E9AF8
:10C8C00012B2CDE90007284604F0B7F9B8F1000F1D
:10C8D00003D028461299FDF7AAFAD9F8B811319F6A
:10C8E00008461D9A7F044FF0060340F8083BC9F83C
:10C8F000B80100F1A38252444A60D9F8BC114A1E23
:10C90000C9F8BC2105DCD9F8C01148468847D9E9E7
:10C910006E0200F10801013A1E9BC9F8B8114FF0F0
:10C920000C0707604360C9F8BC2105DCD9F8C011C9
:10C9300048468847D9E96E120D9F022A1F9801F1D7
:10C940000803C9F8B8314FF01203C1E90030A2F171
:10C950000100C9F8BC0103DAD9F8C011484688477C
:10C96000319D680567D5D6E9020151EA000262D01F
:10C97000069A14AB02F4805203F124053A43BDF841
:10C980008A7042F008020D92BDF888202F9BDF1BB1
:10C990004B42A21A002611B2CDE900063AB228464F
:10C9A00004F04BF9B8F1000F03D028461299FDF7B7
:10C9B0003EFAD9F8B811319F08461D9A3F044FF04E
:10C9C000070340F8083BC9F8B80100F16D82AAEBF3
:10C9D00002024A60D9F8BC114A1EC9F8BC2105DC24
:10C9E000D9F8C01148468847D9E96E021E99013A24
:10C9F000C1F1000300F10801C9F8B8114FF00D07AB
:10CA000007604360C9F8BC2105DCD9F8C01148466D
:10CA10008847D9E96E121F98013AC0F1000001F170
:10CA20000803C9F8B8314FF013030B604860C9F828
:10CA3000BC2101DC69E20D97D9E96E2309F5DC76AA
:10CA4000149902F10800C9F8B8010427C2E900717D
:10CA50005A1E09F5DE77C9F8BC2105DCD9F8C011EA
:10CA600048468847D9E96E0200F10801013A159B52
:10CA700031604FF00A05056043603A6005DCD9F883
:10CA8000C01148468847D9E96E12013A169801F15B
:10CA9000080333604FF010030B6048603A6003DC1A
:10CAA000D9F8C0114846884732680F98179900286E
:10CAB00002F10800306000F092800823C2E90031E2
:10CAC00039684A1E3A6005DCD9F8C01148468847E3
:10CAD000D9E96E0200F10801013A189B31604FF06C
:10CAE0000E05056043603A6005DCD9F8C011484680
:10CAF0008847D9E96E1201F10800013A199B3060AC
:10CB00004FF014050D604B603A6005DCD9F8C01198
:10CB100048468847D9E96E021A9D00F10801316044
:10CB200005230360531E45603B6005DCD9F8C01146
:10CB300048468847D9E96E1301F10802013B1B986A
:10CB400032604FF00B050D6048603B6005DCD9F8A2
:10CB5000C01148468847D9E96E231C9902F10800A4
:10CB600030601125C2E90051022BA3F101013960A7
:10CB700005DAD9F8C01148468847D9E96E0100F1B5
:10CB800008020139079D32604FF0160303604560CB
:10CB9000396005DCD9F8C01148468847D9E96E21CB
:10CBA000DDF844A002F10800306000201060481E4B
:10CBB0000D995160386003DCD9F8C01148468847A8
:10CBC0000C98B8F1000F00FA8AF022A900F10F04C6
:10CBD00048464FEA24125ED003F0B5FD5DE0052320
:10CBE000C2E9003139684A1E3A6005DCD9F8C01143
:10CBF00048468847D9E96E0200F10801013A189BBE
:10CC000031604FF00B05056043603A6005DCD9F8F0
:10CC1000C01148468847D9E96E1201F10800013A6F
:10CC2000199B30604FF011050D604B603A6005DCD8
:10CC3000D9F8C01148468847D9E96E021A9D00F11B
:10CC40000801316008230360531E45603B6005DC2A
:10CC5000D9F8C01148468847D9E96E1301F1080296
:10CC6000013B1B9832604FF00E050D6048603B6041
:10CC700005DCD9F8C01148468847D9E96E231C9DC8
:10CC800002F10800306014211160591E55603960AE
:10CC90007FF76FAF73E703F0F8FD0898022840F0C4
:10CCA000C9801194C246059CDDF8B880A8EB040049
:10CCB0002F9D20F00F00ADF88000281B08EB040129
:10CCC00020F00F00ADF8820001F10F00291920F0CB
:10CCD0000F00ADF8840001F10F0020A920F00F0033
:10CCE000ADF886004846FCF7F9F9002800F0A2806C
:10CCF000BDF8821022B2BDF88000691A0025A8EBA9
:10CD0000000009B28DE8260003B2002248465946C9
:10CD1000CDE90355FBF770FE40F645010698C0F2D9
:10CD2000400100F4007020AD002340EA01044846B1
:10CD300059462A4603F055F90023484659462A46E3
:10CD400003F01CFA9BF8160010F0060F07D020AA7B
:10CD50000323484659460094FCF7F6FE0446BDF905
:10CD60008200BDF98A10BDF98020BDF98830411AD2
:10CD7000BAF1000FA2EB03004FEA211105D0129A7D
:10CD8000891A1C9A52421C9200E01C9A03111B98AB
:10CD90004343062502FB01311A9A11443268C1F15E
:10CDA000011302F108013160C2E900533A68013A07
:10CDB0003A6006DCD9F8C011484688471B98D9E983
:10CDC0006E12434201F10800013A30604FF00C0549
:10CDD0000D604B603A6005DCD9F8C01148468847C1
:10CDE000D9E96E021C99013AC1F1000300F1080172
:10CDF00031604FF01205056043603A6005DCD9F8F8
:10CE0000C01148468847D9E96E121198050901F109
:10CE10000800306000200860501E4C60386003DC61
:10CE2000D9F8C0114846884745F30B1220A9484657
:10CE300003F02BFD012025B0BDE8F08FAAEB020224
:10CE40004A60D9F8BC114A1EC9F8BC2105DCD9F8E2
:10CE5000C01148468847D9E96E021E99013AC1F1CE
:10CE6000000300F10801C9F8B8114FF00C07076082
:10CE70004360C9F8BC2105DCD9F8C0114846884791
:10CE8000D9E96E120D9F1F98013AC0F1000001F11F
:10CE90000803C9F8B8314FF012030B604860C9F8B5
:10CEA000BC217FF759AD5BE552444A60D9F8BC110B
:10CEB0004A1EC9F8BC2105DCD9F8C011484688478C
:10CEC000D9E96E0200F10801013A1E9BC9F8B811B8
:10CED0004FF00D0707604360C9F8BC2105DCD9F8A5
:10CEE000C01148468847D9E96E12022A1F9801F1FD
:10CEF0000803C9F8B8314FF01303C1E90030A2F1BB
:10CF00000100C9F8BC01BFF697ADD9F8C011484679
:10CF1000884791E52DE9F04F8FB00C4691F8D51078
:10CF20001E4617460546DDE91AABC807DDE9189825
:10CF300040D11E98BAF1300FDDE91C324ADB0BF00C
:10CF40000301032946D094F8D610022942D141F6B4
:10CF50000301CDE904320690284641EA0B01CDE9F0
:10CF600002A121463A463346CDE90098FFF701FA7F
:10CF7000E8B35FEACB700CD10120CDE900A01C988A
:10CF800002901D980390284621463A46334600F009
:10CF900027F95FEA8B702AD40220CDE900A01C9803
:10CFA00002901D980390284621464A46434600F0C9
:10CFB00017F91CE007A809A9CDE904B1214606909C
:10CFC00028463A463346CDE90098CDE902AAFEF755
:10CFD0008CFC0CE0CDE904322146069028463A4606
:10CFE0003346CDE90098CDE902ABFFF7C2F9012045
:10CFF0000FB0BDE8F08F2DE9F04190B0B0F86CE0D3
:10D000000DF1580894460A4698E8500106EB4E0682
:10D01000C16A36B20AAD8DE8580104AB4FF0000E7C
:10D0200008AF83E8A0406346FFF774FF002010B00C
:10D03000BDE8F0812DE9F04190B094460A46DDE963
:10D0400016E80026C16ACDE9003E6346189D08AF88
:10D050000AACCDE90285CDE904470696FFF75AFFF1
:10D06000002010B0BDE8F0812DE9F04190B0B0F89B
:10D070006E50B0F87060169FD0F82CC0B418EA1843
:10D080002944F31912B2DDE917E81BB200258DE837
:10D090000C400AB2614623B208AE0AAFCDF80C804C
:10D0A0000497CDE90565FFF735FF002010B0BDE816
:10D0B000F0812DE9F04190B094460A46DDE916E88A
:10D0C0000026816ACDE9003E6346189D08AF0AAC90
:10D0D000CDE90285CDE904470696FFF71BFF002046
:10D0E00010B0BDE8F0812DE9F04F8FB00446B0F8E4
:10D0F0006C00DDE9188A0DF1080C15460E460AEBA6
:10D1000040001F4600B21A9AE16A00230DF11C0983
:10D110000DF1240B8CE80508CDE905932046324635
:10D120002B46CDE90078FFF7F5FE204601F0A8F880
:10D13000A16A1A98CDE9030B0020069020463246DA
:10D140002B468DE88005CDF81490FFF7E3FE2046CE
:10D1500001F081F800200FB0BDE8F08F2DE9F04F0D
:10D160008FB00446B0F86E001F4692460E46B4F8E3
:10D170007020DDF860808319384402EB0A054244D0
:10D1800000B2DDE919CE12B2E16A4FF0000B8DE872
:10D1900005501AB220462BB20DF11C080DF12409DE
:10D1A000CDF81090CDE9058BFFF7B4FE204601F0D5
:10D1B00067F8A16A18980190199802901A98CDE919
:10D1C00003092046324653460097CDE9058BFFF709
:10D1D000A1FE204601F03FF800200FB0BDE8F08F1F
:10D1E0002DE9F04F89B0129F164607F1100504464D
:10D1F0008A461F46A2EB550222F00F000F22ADF81F
:10D200001C0002EB5500A3EB55018219184421F0D4
:10D210000F01ADF81E1022F00F01ADF8201020F024
:10D220000F00ADF8220007A92046FBF757FF0028A2
:10D230004FF0000000F01481BDF81C106B08BDF821
:10D240001E201DB2711ADAF82861BA1A029012B2C1
:10D25000CDE900250BB20022CDE90300204651465E
:10D26000DDF84C80FBF7C8FB06F4007007AA40F419
:10D270008000022340F041000090204651460226E3
:10D28000FCF762FC05F10F01B8F1000F83464FEA8D
:10D29000111500F0B8801598BDF91C20BDF91E309D
:10D2A000149FB0F900100695B0F90200891A18F021
:10D2B0000102A0EB03004FEA21184FEA2019059262
:10D2C00001D102264CE078683A6800FB08F1BB689F
:10D2D0000625891A03FB0911D4E96E6201F10113D5
:10D2E00006F10801013AC4F8B81135607360C4F85A
:10D2F000BC2107DCD4F8C01120468847149FD4E92C
:10D300006E127868434201F10800013A069DC4F8A4
:10D31000B8014FF00C060E604B60C4F8BC2106DC6F
:10D32000D4F8C01120468847149FD4E96E02B9682A
:10D33000013AC1F1000100F10803C4F8B8314FF01F
:10D34000120303604160C4F8BC2104DCD4F8C011AE
:10D3500020468847149F40F6040003264BEA000B42
:10D36000139880074FD53869FA6800FB08F17B698C
:10D370000725891A03FB0911D4E96E6201F1011333
:10D3800006F10801013AC4F8B81135607360C4F8B9
:10D39000BC2107DCD4F8C01120468847149FD4E98B
:10D3A0006E123869434201F10800013A069DC4F843
:10D3B000B8014FF00D060E604B60C4F8BC2106DCCE
:10D3C000D4F8C01120468847149FD4E96E027969C9
:10D3D000013AC1F1000100F10803C4F8B8314FF07F
:10D3E000130303604160C4F8BC2103DCD4F8C0110E
:10D3F0002046884741F2080004264BEA000B0598B6
:10D40000002808BF022607AA204651463346CDF819
:10D4100000B0FCF799FBD4E96E12013A01F1080360
:10D42000C4F8B8314FF000030B604860C4F8BC2169
:10D4300003DCD4F8C0112046884707AE00232046FD
:10D440005146324602F0CDFD002320465146324679
:10D4500002F094FE204631462A4603F016FA0120D7
:10D4600009B0BDE8F08F00002DE9F04FA3B0CDE981
:10D470000D01DDE92C61022E14934FF00000CDE97F
:10D480002100CDE91F00089207D840F0B0810120AB
:10D49000119001200A90089D1DE01546112903DA1C
:10D4A00001201190012010E00E9890F8D700042878
:10D4B0000DD800F01F0005211B22C14022FA00F008
:10D4C00001F0010100F0010011910A9003E0012038
:10D4D0000A9000201190DDF8B88018F00400DDE912
:10D4E0002F4709901AD16A88013E2888012E02EB45
:10D4F000070E4FF0010200EB040C6FEA080022EA6D
:10D5000008024FEA5000134605F1040560F3410399
:10D5100052EA13800023002212923AE005EB8600C3
:10D52000119A30F8041C30F8020C01EB040C00EBEB
:10D53000070E22B1002012900023002029E0700085
:10D540000FFA8CF20FFA8EF3E14605EB4000F2463B
:10D5500030F8081C30F8060C2144384409B2541A3B
:10D5600000B2A3EB000B04FB04F00BFB0B0003F079
:10D5700056F840B121024FEA0B2291FBF0F192FBE9
:10D58000F0F3129101E05B46129400202F9CCC46F0
:10D59000D64608F0060205F1060A4FF00009984643
:10D5A0000F92002116910021159100BF3AF8061C38
:10D5B0003AF8042C1FFA8CF30D1902EB070BA9B2F1
:10D5C0008B4206D11FFA8BF11FFA8EF28A4200F0CD
:10D5D00007811199CDF8408000294FF0030121EA1D
:10D5E0000007159B04D016991A4688467AE000BFBA
:10D5F00016991A4651EA030088462BD128B2CDF875
:10D6000030C00FFA8CF1CDF82CE00FFA8BF2A0EBC2
:10D6100001080FFA8EF0141A08FB08F004FB04004E
:10D6200002F0FDFF68B14FEA082122022F9C91FB16
:10D63000F0F192FBF0F8DDE90BEC0A46DDE915317B
:10D6400008E020462F9CDDE90BEC4246DDE9153170
:10D65000804600BFF80708D0109807F500774044CF
:10D660001F901298104440422090B8073AD5012EDE
:10D67000CDE90BEC1692CDF84C8007D10899309A81
:10D6800008884988204400B2114406E03AF8020CA8
:10D69000BAF800102044214400B22AB209B2A0EB2B
:10D6A00002080FFA8BF00C1A08FB08F004FB0400C8
:10D6B00002F0B5FF43462146DDE90BEC2F9C30B16B
:10D6C0000A461902120291FBF0F392FBF0F1DDF829
:10D6D0004C80169A07F5806701EB08002190D0185E
:10D6E0004042229014981691159330B1014651F89A
:10D6F000040B1491012802D167E0002014900A98CD
:10D70000CDF84C80002807F5C05090462FD01199D5
:10D71000B1B9DDE9120244465043109908FB01F10A
:10D7200081424FF4605002FB03F1C8BF4FF4F04058
:10D73000169A384408FB02F28A42C8BF00F500403E
:10D740000FFA8BF12AB2CDE900212D99CDE9021013
:10D750000FFA8CF219A804900FFA8EF317A805900F
:10D760001FA80690DDE90D01FFF7D4FB29E00FFAB1
:10D770008CF40FFA8EF70FFA8BF13B462AB2CDE903
:10D7800000212D99CDE9021019A8049017A8059041
:10D790001FA80690DDE90D012246FFF7BBFB0998A3
:10D7A00050EA09000DD02D9800900120019019A891
:10D7B000029017A80390DDE90D0122463B46FFF7D2
:10D7C0000FFD2F9C4246DDF84C8086F002000F9939
:10D7D000AC46DE460843309F5FEA1F90129240003D
:10D7E000013E09F101090AF1040A7FF4DFAE0120CC
:10D7F00023B0BDE8F08F00002DE9F04786B0044665
:10D80000406E461E0920072E3ED8DDF84CC0DDE9EB
:10D81000118EDDF84090DDE90E5ADFE806F0040EC7
:10D8200018222C3535042046CDE9005ACDE902985E
:10D83000CDE904EC00F077FC26E02046CDE9005A63
:10D84000CDE90298CDE904EC00F040FB1CE0204655
:10D85000CDE9005ACDE90298CDE904EC00F07BFC5B
:10D8600012E02046CDE9005ACDE90298CDE904EC5A
:10D8700000F02AFC08E02046CDE9005ACDE90298E4
:10D88000CDE904EC00F092FC84F8C60106B0BDE8D6
:10D89000F0872DE9F04FA1B09046DDF8B8E02C9A62
:10D8A0002A9FA7EB080BD41BAEEB020502221194B2
:10D8B00002EA94770424A8EB0E0C47EADB770E9576
:10D8C00004EA55760825374405EA1C769A46BB19C2
:10D8D0002D9F2B9EA6EB0A09BE1B109602EA96729C
:10D8E0002F9E42EAD972F71BAAEB060604EA577488
:10D8F0000F91224405EA1675154483F00F0285F056
:10D900000F0330991342129010D059EA0B0000F027
:10D910009980DDE91040204300F09F800E98384345
:10D9200000F0BD8056EA0C0000F0BE822B9DCDE9D0
:10D9300009762D9C2F9FCDE9069B554552EA038B16
:10D94000AC4252EA03802C9E0D90A74252EA038912
:10D95000BA4552EA03802A99CDF830C00890414573
:10D9600051EAB88051EAC8815AEAC58CB6455EEAE8
:10D97000B6835EEAC68654EAC782984252EACC82EF
:10D9800050EAB3800B92B14251EAC681554555EA3F
:10D99000BA8255EACA83A74257EAB48601F10F0159
:10D9A00057EAC48520F00F00ADF87C0021F00F008D
:10D9B000B24252EAB682AB4253EAC583ADF8800068
:10D9C000129E03F10F001FA920F00F00ADF8820096
:10D9D000304622F00F07ADF87E70FBF77FFB002882
:10D9E00000F071820D980F9D00F002000D903046FE
:10D9F00029460BF0010B02F049F895F8D520BDF847
:10DA00007C10BDF87E30309D90070C4658BF3F25F6
:10DA1000A8EB0101E8079846AAEB0300CA4609B241
:10DA200005972BD1D20745D102B213A8069BCDE9A9
:10DA3000003B079B02F0CAFF13984FF0000B00F564
:10DA4000803028E048082D99CDE9001E2F99CDE9B6
:10DA500002101298DDE92A120EE00620524600EA72
:10DA6000510001F0010108442D99CDE9001E2F99C4
:10DA7000CDE90210129841462C9B22E202B213A873
:10DA8000069BCDE9003B079B02F0A0FF13984FF4E3
:10DA9000007B00F500401390DDF83C9017E0042077
:10DAA00000EA510001F0030108442B99CDE9001E62
:10DAB0002F9900E202B213A8069B0093079BDDF8A2
:10DAC0003C90CDF8049003F001F84FF0000BA8074C
:10DAD0002A98A0EB04012B9847460AF0040AA0EB11
:10DAE000080213D499F8D50013AB09B2C00703F1AB
:10DAF0000C0012B21CD1109B00930D9B0193119B43
:10DB000002F064FF169800F580300FE013A809B208
:10DB10000C3012B2109B00930D9B0193119B02F0ED
:10DB200055FF16980BF5806B00F50040169005E048
:10DB3000109BCDE90039119B02F0C8FF089800F056
:10DB4000080868072C98A0EB04012D98A0EB0702A9
:10DB500012D499F8D50013AB09B2C00703F118002D
:10DB600012B21AD1099BCDE9003A0E9B02F02EFFAA
:10DB7000199800F580300EE013A809B2183012B2DF
:10DB8000099BCDE9003A0E9B02F020FF19980BF596
:10DB9000006B00F50040199005E0099BCDE90039C4
:10DBA0000E9B02F093FF2E9928072F980C9BA1EB58
:10DBB0000401A0EB070211D499F8D50013AD09B206
:10DBC000C00705F1240012B218D10A9DCDE9005812
:10DBD00002F0FCFE1C9800F580300DE013A809B29D
:10DBE000243012B20A9DCDE9005802F0EFFE1C98D5
:10DBF0000BF5805B00F500401C9004E00A9FCDE926
:10DC0000007902F063FFBDF97E00BDF982100B9A26
:10DC1000151A8F1A99F81600BA460599AF42A8BF8F
:10DC2000A2EB010A4BF4400110F0060F41F00F087F
:10DC30000AD01FAA042330464946CDF80080FBF7DE
:10DC400083FF804600021ED5AF421CDABDF97E007C
:10DC5000BDF9821013AF081A051138462946FCF7A2
:10DC6000E6F807F10C002946FCF7E1F807F1180087
:10DC70002946FCF7DCF807F124002946FCF7D7F821
:10DC80000024012501E0012400251FAF304649464C
:10DC90003A462B4602F0A5F9304649463A462B460D
:10DCA00002F06CFAD6E96E32042703F10800013A5B
:10DCB0001399C6F8B8011F605960C6F8BC2105DC8D
:10DCC000D6F8C01130468847D6E96E0200F1080147
:10DCD000013A149BC6F8B8114FF00A070760436079
:10DCE000C6F8BC2105DCD6F8C01130468847D6E915
:10DCF0006E1201F10800013A159BC6F8B8014FF009
:10DD000010070F604B60C6F8BC2105DCD6F8C011C7
:10DD100030468847D6E96E0200F10801013A169BA9
:10DD2000C6F8B8114FF0050707604360C6F8BC217C
:10DD300005DCD6F8C01130468847D6E96E1201F1ED
:10DD40000800013A179BC6F8B8014FF00B070F60A7
:10DD50004B60C6F8BC2105DCD6F8C01130468847B8
:10DD6000D6E96E0200F10801013A189BC6F8B81115
:10DD70004FF0110707604360C6F8BC2105DCD6F8F8
:10DD8000C01130468847D6E96E1201F10800013A09
:10DD9000199BC6F8B8014FF006070F604B60C6F834
:10DDA000BC2105DCD6F8C01130468847D6E96E02A2
:10DDB00000F10801013A1A9BC6F8B8114FF00C07A0
:10DDC00007604360C6F8BC2105DCD6F8C0113046B8
:10DDD0008847D6E96E1201F10800013A1B9BC6F88C
:10DDE000B8014FF012070F604B60C6F8BC2105DC8C
:10DDF000D6F8C01130468847D6E96E0200F1080116
:10DE0000013A1C9BC6F8B8114FF007070760436042
:10DE1000C6F8BC2105DCD6F8C01130468847D6E9E3
:10DE20006E1201F10800013A1D9BC6F8B8014FF0CF
:10DE30000D070F604B60C6F8BC2105DCD6F8C01199
:10DE400030468847D6E96E0200F10801013A1E9B70
:10DE5000C6F8B8114FF0130707604360C6F8BC213D
:10DE600005DCD6F8C01130468847D6E96E124FEA75
:10DE70002A1501F10800C6F8B80100200860501EFC
:10DE8000C1F80480C6F8BC0103DCD6F8C0113046E6
:10DE9000884705F101021FA9304614B102F0F5FCD4
:10DEA00011E002F050FC0EE001F007002B99009108
:10DEB0002C9901912D99CDE90210129841465246B4
:10DEC0002A9B00F0FDF921B0BDE8F08F2DE9F04F5D
:10DED00089B00446B0F86C00400006B2012EC0F2D2
:10DEE000EF80179800F00F000E2800F2E9801F461F
:10DEF0000B46E16ADDE915ABDDF85090DDE9128CE7
:10DF0000DFE800F0081B2C3942536370788D9AAB20
:10DF1000B4CDD500ADF81430ADF81620ADF81870BA
:10DF2000ADF81A80ADF81CC0ADF81E90ADF820A079
:10DF3000ADF822B000200422A6E0ADF81430ADF810
:10DF40001620ADF818A0ADF81AB0ADF81CC0ADF8A9
:10DF50001E90ADF82070ADF822805BE0ADF8147033
:10DF6000ADF81680ADF81830ADF81A20ADF81CA049
:10DF7000ADF81EB014E0ADF81430ADF81620ADF8D1
:10DF800018A0ADF81AB079E0ADF814A0ADF816B04D
:10DF9000ADF81830ADF81A20ADF81C70ADF81E8041
:10DFA000ADF820C0ADF8229034E020461946534623
:10DFB0000325CDE900B6E2460295FFF73BF8CDE92F
:10DFC00000862046029551466FE0ADF814A0ADF8EA
:10DFD00016B0ADF81830ADF81A20ADF81C70ADF8D9
:10DFE0001E804FE00320CDE900B60290204619467E
:10DFF000534663E0ADF81430ADF81620ADF8187054
:10E00000ADF81A80ADF81CC0ADF81E90ADF820A098
:10E01000ADF822B0002003220423009335E0ADF8D0
:10E020001470ADF81680ADF818C0ADF81A90ADF8C0
:10E030001CA0ADF81EB025E0CDE9002620463946EB
:10E040004246032502956746FEF7F4FFCDE90096A8
:10E050002046029551465A462FE00320CDE900960E
:10E060000290204651465A46634627E0ADF81430E8
:10E07000ADF81620ADF81870ADF81A80ADF81CC0D8
:10E08000ADF81E90002003220092CDE9016205AA9E
:10E090000023CDE903002046FFF7E6F910E0032056
:10E0A000029020466146CDE900864A4605E00320FD
:10E0B000029020461946CDE900863B46FEF7BAFF9E
:10E0C000002009B0BDE8F08F2DE9F04F87B0B0F81F
:10E0D0006E40B0F87050DDE91398DDE911BAAF1861
:10E0E000109EE218D0F82CC02144AB19A34405EBD4
:10E0F0000A06454412B24C440FFA85F8DDF854E0A4
:10E1000036B2CDE9058E0FFA8BF51BB28DE86C00A7
:10E110000AB261463BB224B20494FFF7BAFB002076
:10E1200007B0BDE8F08F2DE9F04188B094460A466B
:10E13000DDE90EE40DF14008816ACDE9003E02AB55
:10E1400098E8E00183E8F0016346FFF7A2FB0020B6
:10E1500008B0BDE8F0812DE9F04F87B00DF1400B1C
:10E160000E460446DDE914019BE8000FCDE90401E9
:10E17000204631461F4615468DE8000FFFF7A6FEE4
:10E18000204600F07DF8A16A149805901598069035
:10E19000204632462B468DE8800FFFF77AFB20465B
:10E1A00000F059F8002007B0BDE8F08F2DE9F04FDE
:10E1B00089B004468B46B0F86E009946B4F87010EA
:10E1C00016460892DDF858A0DDE914C300EB0B08F1
:10E1D000DDE9122701EB060E00EB0905C61918440C
:10E1E0008F1801EB0C0201EB0A03D4F82CC0DDF808
:10E1F0005CA019B2CDE9051A00B2049012B2204613
:10E2000033B2CDE902320FFA88F261460FFA8EF38B
:10E210003EB22DB2CDE90056FFF73BFB204600F0A1
:10E220002FF8A16A12980190139802901498039005
:10E23000159804901698CDE9050A20465A46089B81
:10E24000CDF80090FFF725FB204600F004F80020F1
:10E2500009B0BDE8F08FC16F01B17047C16801F12D
:10E26000440CD0F8BC210A64096D9CE80C10C0F87D
:10E27000B421C0F8B831C0F8BCC1C0F8C0117047B3
:10E28000C16F01B17047C16800F5DA7C9CE80C10E1
:10E290008B64C1F84CC0D1E90FC34A64ACEB030CEA
:10E2A000D0F8C0210A65896B00F5DA7001EBCC0269
:10E2B0004FF21D2CC0F2002C80E80E1070470000B9
:10E2C0002DE9F04184B00446406E471E0920072F17
:10E2D00032D8DDF834C0DDF830E0DDE90A68DFE887
:10E2E00007F0040C141C242B2B042046CDF80CC082
:10E2F0008DE8404100F05AFB1EE02046CDF80CC0EE
:10E300008DE8404100F0B8FA16E02046CDF80CC088
:10E310008DE8404100F05DFB0EE02046CDF80CC0DA
:10E320008DE8404100F01AFB06E02046CDF80CC015
:10E330008DE8404100F06EFB84F8C60104B0BDE8F2
:10E34000F0812DE9F04F9DB00DF1980E90469A4660
:10E3500083469EE84450A2EB0807ACEB020302227E
:10E36000A6EB0A050E9302EA9373AEEB060411972F
:10E3700043EAD776A8EB0C0702EA947204230D94C3
:10E3800042EAD57CAAEB0E0203EA57740B973719C1
:10E3900003EA527310950CEB030487F007030F9404
:10E3A00084F007041C420A920C910BD0DDE9101096
:10E3B00008430828C0F05C82DDE90D1008430828F6
:10E3C000C0F05682109811994FEAD079279850459D
:10E3D00008BF4FEAD179864553EA04800990F24597
:10E3E00006EA530053EA0485022805D0012805D027
:10E3F00048B928F00F0004E0289800E0269820F0A3
:10E400000F00ADF86C0003EA570028B1022805D0D0
:10E410000128269803D007E0404600E028980F30F6
:10E4200020F00F00ADF870000CEA5406504636B1EB
:10E43000022E03D0012E279801D004E0704620F070
:10E440000F00ADF86E000F98089704EA5007504689
:10E4500037B1022F03D0012F279801D005E0704675
:10E460000F3020F00F00ADF872001BA9584607943A
:10E47000FAF734FE002800F0FB81049609980C9E00
:10E4800000F00200099058463146069589F00104D3
:10E490002A9D01F0FBFABDF86C10E807BDF86E206C
:10E4A00005948946A8EB01009046AAEB020203926C
:10E4B00012D196F8D510069D12B2C90701B212A862
:10E4C0001BD1109BCDE90034119B02F07FFA12980A
:10E4D00000F58030129016E001B212A812B2109B23
:10E4E000CDE90034119B02F071FA12984FF40076D6
:10E4F00000F500401290069D06E0109BCDE9003625
:10E50000119B02F0E3FA00262A9C05F00405A007FF
:10E510002798A0EB080A2698A0EB0901119716D4BA
:10E520000C9F12AA09B297F8D500C00702F10C009F
:10E530000FFA8AF21FD10D9B0093099B01930E9B4A
:10E5400002F044FA159800F58030159019E012A8F1
:10E5500009B20C300FFA8AF20D9B0093099B0193CC
:10E560000E9B02F033FA159806F5806600F5004020
:10E5700015900C9F05E00D9BCDE900370E9B02F036
:10E58000A5FA60072998A0EB08042898A0EB0901D8
:10E5900012D497F8D50012AA09B2C00702F11800E8
:10E5A00022B21AD10A9BCDE900350B9B02F00EFA7C
:10E5B000189800F580300EE012A809B2183022B287
:10E5C0000A9BCDE900350B9B02F000FA189806F57E
:10E5D000006600F50040189005E00A9BCDE9003781
:10E5E0000B9B02F073FA97F8D50009994908800748
:10E5F00081EA950058BF46F46066059988420898FC
:10E600000F9901EA0005079901D1012226E04FF098
:10E6100001021DB30843072820D0119BBDF96E00ED
:10E62000BDF9722004995940101A012906D0032916
:10E6300006D0022918BFDDF80CA003E0A24601E0D5
:10E64000DDF80CA000EBD0710FFA8AF2B2EB610F8B
:10E65000C4BF0025821A022000EB2212BDF96C0013
:10E66000BDF970101446081AB97D3F2840F2070022
:10E67000C0F24000C8BF00F5000011F0060F40EAEC
:10E6800006080AD01BAA032358463946CDF8008055
:10E69000FBF75AFA8046000200D50DB1002615E0BE
:10E6A000BDF96E00BDF9721012AE081A05113046A0
:10E6B0002946FBF7BCFB06F10C002946FBF7B7FB2C
:10E6C00006F118002946FBF7B2FB01261BAD5846A0
:10E6D00039462A46334601F084FC584639462A46D4
:10E6E000334601F04BFDDBE96E32042503F10800EF
:10E6F000013A1299CBF8B8011D605960CBF8BC21E2
:10E7000005DCDBF8C01158468847DBE96E0200F1F2
:10E710000801013A139BCBF8B8114FF00A050560C8
:10E720004360CBF8BC2105DCDBF8C01158468847B4
:10E73000DBE96E1201F10800013A149BCBF8B80135
:10E740004FF010050D604B60CBF8BC2105DCDBF809
:10E75000C01158468847DBE96E0200F10801013A12
:10E76000159BCBF8B8114FF0050505604360CBF859
:10E77000BC2105DCDBF8C01158468847DBE96E1286
:10E7800001F10800013A169BCBF8B8014FF00B05D8
:10E790000D604B60CBF8BC2105DCDBF8C01158469E
:10E7A0008847DBE96E0200F10801013A179BCBF8BC
:10E7B000B8114FF0110505604360CBF8BC2105DCB2
:10E7C000DBF8C01158468847DBE96E1201F10800FA
:10E7D000013A189BCBF8B8014FF006050D604B606D
:10E7E000CBF8BC2105DCDBF8C01158468847DBE9D3
:10E7F0006E0200F10801013A199BCBF8B8114FF0F5
:10E800000C0505604360CBF8BC2105DCDBF8C011CA
:10E8100058468847DBE96E1201F10800013A1A9B5D
:10E82000CBF8B8014FF012050D604B60CBF8BC215E
:10E8300005DCDBF8C01158468847DBE96E0200F1C1
:10E840000801CBF8B81100210160511EC0F8048006
:10E85000CBF8BC1103DCDBF8C011584688472246D0
:10E860001BA9584616B101F06EFF01E002F00DF849
:10E870001DB0BDE8F08F00002DE9F04188B0B0F880
:10E880006C707F003DB2012D64DB8C46119901F064
:10E890000707062F5ED8C16ADDF84080DDE90E4E1D
:10E8A000DFE807F00415222B31495100ADF814C000
:10E8B000ADF81620ADF81830ADF81A40ADF81CE0F0
:10E8C000ADF81E8000270422032300932AE0ADF850
:10E8D00014C0ADF81620ADF818E0ADF81A80ADF808
:10E8E0001C30ADF81E401AE0ADF81430ADF81640FB
:10E8F000ADF818C0ADF81A200DE003210291614671
:10E90000CDE900851DE0ADF814C0ADF81620ADF8D6
:10E910001830ADF81A40ADF81CE0ADF81E800027A5
:10E9200003220092CDE9015205AA0023CDE9037725
:10E93000FEF79AFD0EE00321CDE90085029119460C
:10E940002246734604E0032102916146CDE9004569
:10E95000FEF770FB002008B0BDE8F0812DE9F04320
:10E9600085B0B0F86E60B0F870700C9CD0F82CC018
:10E97000DDE90D983144BD18F2183B1906EB090486
:10E9800007EB08061BB212B2CDE900230AB26146BA
:10E990002BB2DDF83CE036B2CDE9036E24B202942E
:10E9A000FFF7CFFC002005B0BDE8F08370B586B05E
:10E9B00094460A46DDE90AE4816ACDE9003E02ABED
:10E9C000DDE90C5670C36346FFF7BBFC002006B0C0
:10E9D00070BD2DE9F04F85B00DF1380B1F4615467F
:10E9E0000E469BE8000F04468DE8000FFFF744FF3A
:10E9F0002046FFF745FCA16A204632462B468DE8AB
:10EA0000800FFFF79EFC2046FFF725FC002005B095
:10EA1000BDE8F08F2DE9F04F85B004469046B0F880
:10EA20006E009A46B4F870208946DDE90F5E00EB6F
:10EA30000903DDF838B002EB080C00EB0A0602EB24
:10EA40000B0728447244E16A15B200B202903AB250
:10EA5000204637B2CDE900721AB203950FFA8CF353
:10EA6000119D0495FFF76DFC2046FFF709FCA16A94
:10EA70000F9802901098CDE9030520464A46434678
:10EA8000CDE900ABFFF75DFC2046FFF7E4FB00207B
:10EA900005B0BDE8F08F00002DE9F04786B00446D0
:10EAA000406E461E0920072E3ED8DDF84CC0DDE939
:10EAB000118EDDF84090DDE90E5ADFE806F0040E15
:10EAC00018222C3535042046CDE9005ACDE90298AC
:10EAD000CDE904EC00F028FA26E02046CDE9005A02
:10EAE000CDE90298CDE904EC00F0DBF91CE020460A
:10EAF000CDE9005ACDE90298CDE904EC00F02CFAFA
:10EB000012E02046CDE9005ACDE90298CDE904ECA7
:10EB100000F0E6F908E02046CDE9005ACDE9029878
:10EB2000CDE904EC00F053FA84F8C60106B0BDE864
:10EB3000F0872DE9F04F8BB004461A98DDE9187A7A
:10EB400010F04009DDE916560692CDE9041353D1C1
:10EB50001AEA060050D487EA05004AEA060108408E
:10EB6000B0F1FF3F48DC002D284600D56842000C7C
:10EB7000F9F7A0FAC0F11000169A46FA00F842FA26
:10EB800000F74146B8F1000F48BFC8F10001080C7A
:10EB9000F9F790FA189EC0F11000002E314600D50A
:10EBA000714247FA00F548FA00FB080CF9F782FABF
:10EBB000C0F110004AFA00F746FA00F8002F384674
:10EBC00000D57842000CF9F775FAC0F110006A1010
:10EBD00048FA00F147FA00F040104FEA6B03491081
:10EBE000504301FB1300002800D5404216AFB0F59A
:10EBF000803FE0CFC0F05281606A03900498606269
:10EC00000DF12A010AAA0DF1260309A80090204659
:10EC1000FAF7EEFD012D5FEAAF900821B6F1FF3F54
:10EC20004FEAC000C8BF01EA1570012F5FEAAF923A
:10EC3000BAF1FF3F4FEAC208C8BF01EA1778B9F13D
:10EC4000000F50D11A99DDF8149001F00101DDF8A0
:10EC500018B05A464B4640EA81000021CDE90160D8
:10EC60002046009500F0F6FC1A98012100F0020001
:10EC70005A464B46009748EA4000CDE901A020469D
:10EC800000F0E8FC0DF1220108AA0DF11E0307A80F
:10EC900000902046FAF7ACFD781901285DDBBAF147
:10ECA000FF3F5FEADF92B6F1FF3F5FEADF90012EA0
:10ECB0005FEAAF93BAF1010F5FEAAF91134208BF69
:10ECC00010EA01006AD04FF6F870BDF92210C0F2C8
:10ECD0000F00069A104440F30F128A425EDD0009CD
:10ECE000ADF822005AE069107A10514372104FEAD1
:10ECF0006A03DDF868C05A4303460CF00207D213DA
:10ED000002EBE1310CF001020129B8BF1033002AF7
:10ED100053EA008001294146DDE905B940EA820055
:10ED2000B8BF1031002F51EA088840300021CDE9EA
:10ED3000016020464A465B46009500F08BFC48EA9D
:10ED400047001899403000910121CDE901A02046EB
:10ED50004A465B4600F07EFC73E0B0F1FF3F1DDCED
:10ED6000BAF1FF3F5FEADF92B6F1FF3F5FEADF9063
:10ED7000012E5FEAAF93BAF1010F5FEAAF91134240
:10ED800008BF10EA010009D00698BDF91E1008302E
:10ED9000B1EB201F02DD0011ADF81E000AEB0600EA
:10EDA000B0F1FF3F24DD00283FD0012F5FEAAF9094
:10EDB000012D5FEAAF92B7F1FF3F5FEADF93B5F154
:10EDC000FF3F5FEADF911A4208BF10EA01002CD032
:10EDD0004FF6F870BDF92010C0F20F00059A1044EC
:10EDE00040F30F128A4220DD0009ADF820001CE03C
:10EDF000012F5FEAAF90012D5FEAAF92B7F1FF3FBD
:10EE00005FEADF93B5F1FF3F5FEADF911A4208BF87
:10EE100010EA010009D00598BDF91C100830B1EBCB
:10EE2000201F02DD0011ADF81C00BDF92210BDF954
:10EE30001E30BDF92020BDF91C0000902046FAF7D5
:10EE400078F9069E059FDDE91410CDE900102046F3
:10EE5000049932463B46FCF7B2FA0021204632467E
:10EE60003B4600250095CDE9015500F0F3FB01215B
:10EE7000204632463B460095CDE9015500F0EAFBBD
:10EE8000BDF92A10BDF92630BDF92820BDF92400AE
:10EE900000902046FAF74DF9039860620BB0BDE888
:10EEA000F08F2DE9F04387B0B0F86C500E9C94467B
:10EEB0000DF144090A46DDE90FE804EB4504C16A97
:10EEC00024B28DE81840634699E8C002CDE9038674
:10EED000CDE90579FFF72DFE002007B0BDE8F083EE
:10EEE0002DE9F04788B0B0F86E60B0F870700DF1A1
:10EEF0004809D0F82CC03144BE18DDE910E4CDE952
:10EF0000003E0AB2614633B2DDF854A099E820030E
:10EF1000CDE90245CDF81080CDE9059AFFF709FE4D
:10EF2000002008B0BDE8F0872DE9F04188B0944694
:10EF30000A46DDE90EE40DF14008816ACDE9003EA4
:10EF400002AB98E8E00183E8F0016346FFF7F1FDCA
:10EF5000002008B0BDE8F0812DE9F04F87B00446ED
:10EF6000B0F86C00DDF840901F460E46E16A09EBF0
:10EF70004000154600B2CDE9007002A8DDE911237A
:10EF8000DDE9138B80E80C09204632462B46DDF87C
:10EF900054A0CDF818A0FFF7CCFD2046FFF770F97C
:10EFA00003AAA16A1198029012982B4682E80109DF
:10EFB00020463246CDE90079CDF818A0FFF7B9FD1B
:10EFC0002046FFF748F9002007B0BDE8F08F2DE993
:10EFD000F04F87B004461546B0F86E000E46B4F800
:10EFE00070201F460DF1480E30445319E16A02B2F9
:10EFF00020461BB2DDE910C99EE8004CDDF85480C4
:10F00000CDE9007CCDE9029ACDF810B0CDE905E854
:10F01000FFF78FFD2046FFF733F901AA1098A16A88
:10F020002B4682E8010E1498CDE9050820463246A9
:10F030000097FFF77EFD2046FFF70DF9002007B08F
:10F04000BDE8F08F10B50446006890F86810890696
:10F0500004D400F5BC703B21F1F7C0FB6169606826
:10F06000C4E9020039B1D1E9002CCA604B69C1E999
:10F07000063C12680A61D0E9011021610021C4E94F
:10F080000610E16210BD00002DE9F04F81B080460E
:10F09000C56890F86800D8E96D618A1B80064FEA60
:10F0A000E207286848D4B142AC6943D04FF0010C64
:10F0B000012F57EA8C8743F2DC0B00F18C0900F535
:10F0C000BC7A2869C0F2042B296891F8C71189BB62
:10F0D00031681BF80120002A72680AD01AF8013042
:10F0E0001BB159F82130934220D00AF801C049F8E9
:10F0F000212000EB84030155611C5A6011F00304C8
:10F10000E96A01F10101E96210D1E969286901396F
:10F11000143001294FF000042861E96106D828461F
:10F12000AC61FBF7E3F94FF0010C2869013F06F1F0
:10F130000806C9D1AC6108E090F8C721A869EB6A5C
:10F14000002A03EB0702EA6207D0D8F8B401402195
:10F15000C8E96E0101B0BDE8F08FF8B1B142F4D05A
:10F16000296900BFF6E802230A5401EB800201304E
:10F17000013F00F00300536018BF0028F2D10028BF
:10F18000E3D10020A861E869296901381431012818
:10F190002961E86102D82846FBF7A8F9BC0823D00A
:10F1A000286890F8C701F8B9286931680170B1681A
:10F1B000417031698170B169C17071684160F168F5
:10F1C00081607169C160F1690161E869296901388B
:10F1D000143101282961E86102D82846FBF786F935
:10F1E000013C06F12006DBD117F00300ADD000BFD3
:10F1F000296891F8C7110029A7D1A9692A6933683C
:10F20000746802EB810753540131013806F1080696
:10F210007C6001F00301A961EAD196E770B5C56889
:10F2200004460122D5E90E163001FBF7C1FB50B1AF
:10F230007200D5E90F31C3EB4606A863934231440F
:10F24000C5E90F2109D12046FAF7F9FDE068D4F8A5
:10F25000B411006CC4E96E1070BDE068D4E96D13A0
:10F26000D4F8BC21591A806B3244C4F8BC21014443
:10F27000C4E96D0170BD70B50D460446FFF704FF8B
:10F28000E06FD8B1E668AE4218D0706DB0B93046C4
:10F29000FBF7BEFA306948F23201C8F28001002261
:10F2A00001603069B16840F8042FC86004303061F3
:10F2B000B261002220463146FBF7E0FA05B9A568A5
:10F2C000696A00206865E560606319B16862284674
:10F2D000FFF7B8FE686908B1006808E094F8840098
:10F2E00010F0120F686801D006690EB90430066884
:10F2F00020462946F9F747FD204629463246F9F7C8
:10F30000C0F894F86800800604D404F5BC703B2172
:10F31000F1F764FA0020002184F8C61170BDE0B155
:10F32000B0B50446406E0D46884223D0082D18BF64
:10F33000082814D1616A0828656691F80E2142F008
:10F34000010081F80E0102D12046FEF784FF082D4E
:10F3500010D12046FEF794FF0CE0022070472046B3
:10F36000FAF76DFD606A656690F80E1141F00101D3
:10F3700080F80E11002084F8C601B0BD8446406AB2
:10F38000827C90F80E318A4243F0010280F80E210F
:10F3900003D043F0070280F80E21827D8174D207EA
:10F3A00002D00906C0F84C11002000218CF8C611CB
:10F3B0007047000010B5D0F824C09CF80E3143F01F
:10F3C00001038CF80E3100238CF8183090F883304C
:10F3D0001B070CD4012908BF002A19D000294FF0BF
:10F3E000100108BF012A34D14FF4400E1AE003295E
:10F3F0000CD8032A0AD80FF2640E5EF821E0DFE889
:10F4000002F002110A0D4EF0005E0BE0102120E028
:10F410004FF4800E06E04EF0800E03E04EF00051F7
:10F4200041F0800EDCF81C21436DDCF82C11CCF887
:10F4300020E1DCF83C411A43DCF840311143DCF8B0
:10F44000442121431943114341EA0E01CCF8241110
:10F45000002180F8C611084610BD00BF080040100A
:10F460000800400048004000480040102DE9F04FDF
:10F4700081B0DDE90A4691468346984656EA04077C
:10F480008A464FF0000516D006FB06F0E11714FB84
:10F49000040754EA0F51002320463A46F1F730F8AA
:10F4A000F11756EA0F510446002330463A46F1F769
:10F4B00027F8002501E0002000240AF10201DBF812
:10F4C000243001278BF8C65101EB410203EBC20245
:10F4D000506207FA01F0597EA2F83090A2F832800B
:10F4E000C2E907740143C2E90A550020597601B008
:10F4F000BDE8F08F8446406A827D90F80E318A42E2
:10F5000043F0010280F80E2103D043F0070280F897
:10F510000E21CA07817502D14FF07F4101E0817C45
:10F520000906C0F84C11002000218CF8C611704764
:10F530000246406A90F8D53039B143F0020180F8B4
:10F54000D5100021C0F828110DE04FF4FC41C0F89F
:10F5500028114FF48031C0F8101103F0FC0180F83D
:10F56000D510102181820020002182F8C611704739
:10F57000B0B5D0F824E003299EF80EC14CF0010389
:10F580008EF80E310CD8032A0AD80FF2580C5CF80A
:10F590002110DFE802F0020C070A41F4805106E076
:10F5A00010211BE041F4806101E041F4A051DEF83C
:10F5B0002C21436DDEF820C1DEF83C511A43DEF801
:10F5C000403142EA0C02DEF844412A43CEF81C11D5
:10F5D0001A4322431143CEF82411002180F8C611AA
:10F5E0000846B0BD00080000000000000002000056
:10F5F000000A000010B5DDF80CC05FEACC6E04D53F
:10F6000090F882E05FEA0E6E17D55FEA8C6E04D543
:10F6100090F882E05FEA8E6E0FD52CF0300EAEF1DE
:10F620000D0EBEF1020F0CD8D0F880E05FEACE34A8
:10F6300007D40EF0FE04092C03D8092180F8C61166
:10F6400006E0406A029C00F5B47080E81E100021BC
:10F65000084610BDF0B170B5DDE9045ED0F824C0F5
:10F660005EEA050418D001EB4104069E46F001064F
:10F670000CEBC4046386012303FA01F19CF81930F2
:10F68000228600221943C4E90765C4F824E0C4E9CE
:10F690000A2208E002210DE0012202FA01F19CF8A1
:10F6A000192022EA01018CF81910002180F8C611F6
:10F6B000BDE87040084670470346406A00EB810C85
:10F6C00022F07F4290F80E11CCF8082041F00101A1
:10F6D00080F80E110020002183F8C611704730B168
:10F6E0000246C0F88810002082F8C6017047022048
:10F6F000704700000246406A032990F80E31C17538
:10F7000043F0010380F80E3114D8DFE801F0020263
:10F71000070D90F8D51001F0F30109E090F8D5102D
:10F7200001F0F301043103E090F8D51041F00C0131
:10F7300080F8D5100020002182F8C61170470246DB
:10F74000406A0023022980F8D6104FF0000108BF5C
:10F75000032380F80F31002082F8C611704702465B
:10F76000406A80F8D7100020002182F8C611704747
:10F7700080B58646406A0903120390F80EC1C0E9BD
:10F780003F1200218EF8C6114CF0010380F80E31B3
:10F79000002080BD38B3B0B505460846C407696A85
:10F7A00091F80EC14CF0010481F80E4103D081F8AC
:10F7B000DC2081F8E030840703D581F8DD2081F872
:10F7C000E130440703D581F8DE2081F8E2300007FC
:10F7D00003D581F8DF2081F8E33000F06BFE0020D4
:10F7E00085F8C601B0BD0220704700002DE9F04148
:10F7F0008046406A00F1EC0EDDE9065490F80EC137
:10F80000C0F8F8108EE82C0014F010034CF001063C
:10F8100080F80E614FF0000180F8EA1003D098F8EC
:10F820008210090614D514F0200E03D098F8822017
:10F8300092060DD524F03002A2F10D06022E09D851
:10F84000D8F88040E60305D404F0FE060A2E01D263
:10F850000920BEE03F2A0EDC0F2A00F28880DFE894
:10F8600002F00823122010262E376E3B75475057A2
:10F870005C65002638E0402A05D0412A11D0422A92
:10F8800075D110265CE00325402A55EA05954FF412
:10F890000026C0F82C61042680F8E96080F8EB505F
:10F8A00065E04FF440264BE04FF4802648E098F89E
:10F8B0008260B606CCD51026C0F2040614E01026ED
:10F8C000C0F2040606F58026C0F82C6104263AE052
:10F8D0001026C0F20C0633E098F88260B606B7D561
:10F8E0001026C0F204061036C0F82C6101262AE06A
:10F8F00098F88260B6067FF5ABAF1026C0F20C0612
:10F900000EE098F88260B6067FF5A2AF302611E0CF
:10F910001026C0F20406203620E02026C0F2080699
:10F920001036C0F82C6140F201461BE01026C0F2F0
:10F930000C062036C0F82C6140F6010612E02026A5
:10F94000C0F82C61022680F8E9600EE098F8826029
:10F95000B6067FF57DAF2026C0F20806C0F82C6100
:10F9600040F20126A0F8E960012680F8EB600BB9AF
:10F97000002305E090F8EB304FF0414606EB83732F
:10F98000052AD8F85420D0E94765C0F83C31D0F8B2
:10F990004041D0F82C1124F0007442EA060204F130
:10F9A000007757EA04841143D0F84421BEF1000FD8
:10F9B00057EA14872943C0F840711143194339436A
:10F9C000C0F824114CF0110180F80E11F8F7ECFF8B
:10F9D000002088F8C601BDE8F0812DE9F041456AB4
:10F9E00084460DF1200EDDE9067695F80E01A5F8A6
:10F9F000A8109EE8104140F0110085F80E0100208B
:10FA0000A5F8AA20C5E926640021C5E92837C5E97B
:10FA10002C8E8CF8C611BDE8F08110B50446406A02
:10FA20004FF4703390F80E2142F0010280F80E215D
:10FA300003EA813201F00F0182F44042C0F8342120
:10FA400080F8E810F8F7B0FF0020002184F8C61114
:10FA500010BDC8B1B0B50546406ADDF810E090F8B9
:10FA60000EC180F8E410014680F8E5204CF0010456
:10FA700080F80E4180F8E63080F8E7E000F01AFDEB
:10FA8000002085F8C601B0BD022070472DE9F04383
:10FA900081B00D460446416B95F80E01A94208BF9E
:10FAA00010F0010100F09A82297E656300F0FE00EB
:10FAB00085F80E01012919D1E97CD5F8240120F43B
:10FAC0004000C5F824010806D4E96E12013A01F19C
:10FAD0000803C4F8B8314FF01A030B604860C4F84B
:10FAE000BC2103DCD4F8C01120468847E87D0328F8
:10FAF00000F27482D5F82461DFE800F0023060B7CC
:10FB0000A868D5F84C1146F080770843D4E96E1206
:10FB1000013A01F10803C4F8B8314FF019030B6042
:10FB20004860C4F8BC2103DCD4F8C01120468847E3
:10FB300040F2C811A06DC3F2F0017040084202D03B
:10FB40002046FAF733F9D4E96E01A76500F10802FF
:10FB5000C4F8B8210122C0E90027ECE0A868D5F874
:10FB60004C110843D4E96E12013A01F10803C4F8BC
:10FB7000B8314FF019030B604860C4F8BC2103DCB6
:10FB8000D4F8C01120468847287E0128E86840F054
:10FB9000A280E97C40EA0160D4E96E12022A01F1F8
:10FBA0000803C4F8B8314FF01A03C1E90030A2F1DC
:10FBB0000100C4F8BC01C0F29F80A1E095F80E01DD
:10FBC000800702D52846F8F7BBFED5F85001A96892
:10FBD000D4E96E321927014303F10800013AC4F851
:10FBE000B8011F605960C4F8BC2105DCD4F8C0110D
:10FBF00020468847D4E96E02D5F85411EB68013AE3
:10FC00004FF01A0743EA010300F10801C4F8B811E4
:10FC100007604360C4F8BC2105DCD4F8C01120465D
:10FC20008847D4E96E12013AD5F8140101F10803AE
:10FC3000C4F8B8314FF01D030B604860C4F8BC2114
:10FC400003DCD4F8C01120468847D5F83001A16DF7
:10FC500040F2C8123043C3F2F002414040F08070DD
:10FC6000114240F0010557D159E095F80E014007C7
:10FC700002D52846F8F77CFED4E96E12013AD5F891
:10FC8000600101F10803C4F8B8314FF019030B60AB
:10FC90004860C4F8BC2103DCD4F8C0112046884772
:10FCA000287E0128D5F8640153D1E97C20F07F40FB
:10FCB00040EA0160D4E96E12022A01F10803C4F897
:10FCC000B8314FF01A03C1E90030A2F10100C4F8C5
:10FCD000BC014CDB4FE0D5F84C110843D4E96E125F
:10FCE000013A01F10803C4F8B8314FF01A030B6070
:10FCF0004860C4F8BC2103DCD4F8C0112046884712
:10FD000040F2C811A06DC3F2F001704046F080725D
:10FD1000084242F4005502D02046FAF747F8D4F8DA
:10FD2000B801A565D4F8BC1100F10802C4F8B821E7
:10FD30000122026045600229A1F10100C4F8BC0162
:10FD400080F24C81D4F8C011204601B0BDE8F043E8
:10FD50000847D4E96E12013A01F10803C4F8B8313A
:10FD60004FF01A030B604860C4F8BC2103DCD4F8E0
:10FD7000C01120468847D5F83C01C10102D494F84F
:10FD8000C41121B12046F9F7CFFFD5F83C01D4E9E1
:10FD90006E32C0F3006084F8C40103F10800013A38
:10FDA000D5F8F810C4F8B8014FF02F071F6059605C
:10FDB000C4F8BC2105DCD4F8C01120468847D4E93A
:10FDC0006E0200F10801013AD5F8EC30C4F8B81120
:10FDD0004FF02D0707604360C4F8BC2105DCD4F860
:10FDE000C01120468847D4E96E1201F10800013A9B
:10FDF000D5F83831C4F8B8014FF02E070F604B60CA
:10FE0000C4F8BC2105DCD4F8C01120468847D4E9E9
:10FE10006E0295F80D11013A00F10803C4F8B831EB
:10FE20004FF0390303604160C4F8BC2103DCD4F80F
:10FE3000C01120468847D4F88000810240F18880B4
:10FE4000C0014FF48076D5F8080158BF102618B1CC
:10FE5000A16B814206D108E0D5F8041129B1A26B4B
:10FE60008A4202D0012185F80C1195F80C11002965
:10FE70006ED090B3D4E96E0105F58478013900F1B4
:10FE80000802C4F8B8214FF037024FF000030260B7
:10FE90004360C4F8BC1103DCD4F8C0112046884785
:10FEA00000274FF0380900BFD8F80000D4E96E12DF
:10FEB000013AC05901F10803C4F8B831C1F8009003
:10FEC0004860C4F8BC2103DCD4F8C0112046884740
:10FED000013E07F10407E7D134E0D5F80401B8B3D7
:10FEE000D4E96E0105F58278013900F10802C4F801
:10FEF000B8214FF037024FF0000302604360C4F8AE
:10FF0000BC1103DCD4F8C0112046884700274FF00D
:10FF1000380900BFD8F80000D4E96E12013AC05980
:10FF200001F10803C4F8B831C1F800904860C4F882
:10FF3000BC2103DCD4F8C01120468847013E07F1FC
:10FF40000407E7D1002085F80C01D8F80000A06371
:10FF500094F88300800718D5D5F84401B0F1806F7C
:10FF600013D1D4E96E12013AD5F8480101F1080322
:10FF7000C4F8B8314FF03A030B604860C4F8BC21B4
:10FF800003DCD4F8C01120468847D5F82401D5F801
:10FF90003411D5E94F230843D5F84411104340F2FA
:10FFA000C8121843C3F2F0020843A16D40F00205E5
:10FFB0004140114202D02046F9F7F8FED4E96E0123
:10FFC000A565013900F10802C4F8B8214FF001021B
:10FFD00002604560C4F8BC117FF7B4AE01B0BDE863
:10FFE000F083B0B50D46C97D022940F0C6800446B5
:10FFF000E86FB5F9901000F0200083B108BBB2F9AA
:020000040201F7
:100000000000B2F90620B5F99230091A9A1AD5E91A
:1000100020C30CFB01F102FB0311091123E00028AE
:1000200066D1B2F90000B5F99230B2F90220091A8E
:100030009A1AD5E920C30CFB01F102FB0311091147
:1000400062E0B2F90200B2F90620B5F99230801AE6
:10005000C218D5E920C30CFB01F102FB0311D5F84E
:10006000882002EB2111D4E96E03C1F1000E00F1EA
:100070000801013BC4F8B8114FF024020260C0F837
:1000800004E0C4F8BC3107DCD4F8C011204688472E
:10009000D5F880C0D4E96E1301F10802013BC4F821
:1000A000B8214FF025000860C1F804C0C4F8BC3185
:1000B00005DCD4F8C01120468847D4E96E23D5F872
:1000C0008400022BC0F1000002F10801C4F8B8114D
:1000D0004FF02601C2E90010A3F10100C4F8BC01F1
:1000E000A8BFB0BDD4F8C0112046BDE8B040084755
:1000F000B5F99220D5E920C30CFB01F103FB0211F5
:10010000D5F8882002EB2111D4E96E03C1F1000E6D
:1001100000F10801013BC4F8B8114FF0240202605D
:10012000C0F804E0C4F8BC3107DCD4F8C0112046A4
:100130008847D5F880C0D4E96E1301F10802013B6D
:10014000C4F8B8214FF025000860C1F804C0C4F815
:10015000BC3105DCD4F8C01120468847D4E96E23B1
:1001600002F10801C4F8B81126211160591ED5F812
:1001700084005060C4F8BC11B4DDB0BD2DE9F04F6F
:1001800083B00D46C97D032940F090810446B5F93E
:10019000A800B2F90010B5F9AAB0D5E926CA002B1B
:1001A000A0EB0101D5E928E00290D5E92C600CFB19
:1001B00001F8D4F8B87106FB01F9D5F8FC6007F135
:1001C0000801D5F80031019300F0BE80B2F9062095
:1001D000C4F8B811ABEB020202FB0A8300FB029ADF
:1001E00024223A60A6EB2310D4F8BC31013B7044C2
:1001F0007860C4F8BC3107DCD4F8C01120468847C9
:10020000D5F898C0D4E96E13019801F10802A0EB6B
:100210002A16013BC4F8B8214FF025000860C1F848
:1002200004C0C4F8BC3105DCD4F8C01120468847AE
:10023000D4E96E23029826213718D5F89C0046424F
:1002400002F108001160591EC4F8B8015660C4F8E4
:10025000BC1105DCD4F8C01120468847D4E96E01F2
:10026000D5F8EC203B14D5E92C8902FB03F600F10C
:100270000802272303604B1EC4F8B8214660C4F867
:10028000BC3105DCD4F8C01120468847D4E96E2380
:1002900002F10801013BB8B2C4F8B8114FF02807C9
:1002A00017605060C4F8BC3105DCD4F8C01120469A
:1002B0008847D4E96E134FEA2840D5F8EC20C9F1FD
:1002C000000902FB00F601F10800013BC4F8B80187
:1002D0004FF029070F604E60C4F8BC3107DCD4F83A
:1002E000C01120468847D5F8EC20D4E96E034FEAC8
:1002F000294102FB01F700F108012A2202605A1E7F
:10030000C4F8B8114760C4F8BC2105DCD4F8C011AA
:1003100020468847D4E96E12022AC8EA094001F152
:100320000803C4F8B8314FF02B03C1E90030A2F143
:100330000100C4F8BC0180F2B980D4F8C011204695
:1003400003B0BDE8F04F0847B2F90220C4F8B81175
:10035000ABEB020202FB0A8300FB029A24223A6002
:10036000A6EB2310D4F8BC31013B70447860C4F88C
:10037000BC3107DCD4F8C01120468847D5F898C0B6
:10038000D4E96E13019801F10802A0EB2A16013B93
:10039000C4F8B8214FF025000860C1F804C0C4F8C3
:1003A000BC3105DCD4F8C01120468847D4E96E235F
:1003B00002982621064402F108001160591ED5F862
:1003C0009C70C4F8B8015760C4F8BC1105DCD4F8BF
:1003D000C01120468847D4E96E01D5F8EC203314CB
:1003E000D5E92C8902FB03F700F1080227230360FB
:1003F0004B1EC4F8B8214760C4F8BC3105DCD4F802
:10040000C01120468847D4E96E2302F10801013B60
:10041000B0B2C4F8B8114FF0280717605060C4F8A4
:10042000BC3105DCD4F8C01120468847D4E96E13EE
:100430004FEA2840D5F8EC2002FB00F701F1080054
:10044000013BC4F8B8014FF029060E604F60C4F8B4
:10045000BC3107DCD4F8C01120468847D5F8EC2021
:10046000D4E96E034FEA294102FB01F700F10801CC
:100470002A2202605A1EC4F8B8114760C4F8BC2191
:1004800005DCD4F8C01120468847D4E96E12013A41
:10049000C8EA094001F10803C4F8B8314FF02B0352
:1004A0000B604860C4F8BC217FF747AF03B0BDE8DC
:1004B000F08F0000F0B591F8E400013806280AD862
:1004C000DFE800F0040C1013181D22004FF0FF0E9F
:1004D0004FF0FF0C1CE04FF0000E12E091F8DCE052
:1004E000F44615E04FF0FF0C06E04FF0000C4FF023
:1004F000FF0E0DE091F8DCC04FF0000E08E091F81F
:10050000DCE04FF0000C03E091F8DCE091F8E0C093
:1005100091F8E53070466246072B1FD81A46DFE88F
:1005200003F01C04070B0D101418FF23FF2214E026
:1005300091F8DD301A4610E0FF2204E00022FF238C
:100540000BE091F8DD20002307E091F8DD30002278
:1005500003E091F8DD3091F8E120184691F8E6507B
:1005600004461346072D1FD82B46DFE805F01C0470
:10057000070B0D101418FF25FF2314E091F8DE502F
:100580002B4610E0FF2304E00023FF250BE091F849
:10059000DE30002507E091F8DE50002303E091F8FB
:1005A000DE5091F8E2302C4691F8E75027461E467F
:1005B000072D1FD82E46DFE805F01C04070B0D1091
:1005C0001418FF25FF2614E091F8DF502E4610E0A6
:1005D000FF2604E00026FF250BE091F8DF600025F0
:1005E00007E091F8DF50002603E091F8DF5091F822
:1005F000E3602F461204000442EA0C6240EA0E60F7
:1006000042EA032291F80E3140EA04203244384491
:10061000C1E9560243F0040081F80E01F0BD810FDC
:100620005FEA0F9218BF00F14040D103930703F136
:10063000805301F58041C31A38BFD10350EA33809B
:1006400001F58052B0EB823F28BF01F5005101F562
:10065000006328BFA0EB8230B0EB433F28BF01F519
:10066000805101F5806228BFA0EB4330B0EB023F20
:1006700028BF01F5006101F5007328BFA0EB02302F
:10068000B0EBC32F28BF01F5806101F5807228BF50
:10069000A0EBC320B0EB822F28BF01F5007101F160
:1006A000800328BFA0EB8220B0EB432F28BF01F5C9
:1006B000807101F1400228BFA0EB4320B0EB022F74
:1006C00028BF803101F1200328BFA0EB0220B0EB4E
:1006D000C31F28BF403101F1100228BFA0EBC31097
:1006E000B0EB821F28BF203101F1080328BFA0EB27
:1006F0008210B0EB431F28BF103101F1040228BF64
:10070000A0EB4310B0EB021F28BF083101F1020338
:1007100028BFA0EB0210B0EBC30F28BF043101F1DA
:10072000010228BFA0EBC300B0EB820F28BF02314B
:100730004FEA410303F1010328BFA0EB8200984276
:1007400051EA319070472DE9F0410D46B1F90010A2
:100750000446B5F90430B5F90270B5F90660581AC7
:10076000D4E96E314FEA2018206C4042F71BC0EAF2
:10077000024203F108000139C4F8B8014FF01F0626
:100780001E605A60C4F8BC1105DCD4F8C0112046C4
:100790008847D4E96E014FF6FF723B030139C4F874
:1007A000BC1123EA020200F108034244C4F8B83144
:1007B00002F101124FF01E030360426003DCD4F823
:1007C000C01120468847606C04281BD0022835D011
:1007D000012831D1B5F90000B5F90610D4E90F238D
:1007E000D4E96E76091102EB201003FB010007F13A
:1007F0000801C4F8B8112021C7E90010022EA6F1A3
:10080000010037E0B5F90600B5F90010226C0011BF
:1008100009115043E26BD4E96E3702EB810101EB21
:10082000800003F10801C4F8B81120211960791E75
:100830005860C4F8BC1122DDBDE8F081B5F90600AE
:10084000B5F90010226CD4F8B831001109115043E9
:10085000E26B02EB4101D4F8BC21022A01EB40001B
:1008600003F10801C4F8B8114FF02001C3E90010EA
:10087000A2F10100C4F8BC01A8BFBDE8F081D4F822
:10088000C0112046BDE8F04108472DE9F0410D4672
:100890000446B1F90000B1F90410B5F90230B5F918
:1008A0000670081AB4F84010FF1A4FEA201841EAFF
:1008B0000242D4E96E3103F108000139C4F8B801ED
:1008C0004FF01F061E605A60C4F8BC1105DCD4F856
:1008D000C01120468847D4E96E014FF6FF723B03F2
:1008E0000139C4F8BC1123EA020200F108034244B2
:1008F000C4F8B83102F101124FF01E0303604260E8
:1009000003DCD4F8C01120468847606C04281BD053
:10091000022835D0012831D1B5F90000B5F902100F
:10092000D4E90F23D4E96E76091102EB201003FB02
:10093000010007F10801C4F8B8112021C7E900102F
:10094000022EA6F1010036E0B5F90200226CB5F9DD
:1009500000100011D4E96E3709115043E26B02EB2D
:10096000810101EB800003F10801C4F8B8112021D6
:100970001960791E5860C4F8BC1121DDBDE8F08112
:10098000B5F90200226CB5F90010D4F8B8310011A5
:1009900009115043E26B02EB4101D4F8BC2101EB99
:1009A000400003F10801C4F8B8112021C3E9001088
:1009B000022AA2F10100C4F8BC01A8BFBDE8F08181
:1009C000D4F8C0112046BDE8F0410847B0B5B3F1F6
:1009D000FF3FDDE9045C0DDDB5F1FF3F1CDD0024C8
:1009E000AB42CFF6FF742FD92D0495FBF3F304F53A
:1009F000704521E0B5F1FF3F2CDD5C4240F2000E76
:100A0000AC42CFF6FF7E3AD92C04120394FBF3F4E8
:100A10006143A2EB211152E06C4240F2000ECFF68E
:100A2000FF7E9C4219442A4431D22C0409B212B2EE
:100A30000EF5704594FBF3F359436A435C424FF45F
:100A4000803E02EB21113AE01B0493FBF5FE0EFB06
:100A500002F231E040F2000EAC18CFF6FF7EAB425E
:100A600003EB010221B222D91B0412B293FBF5F36E
:100A70000EF570456A43594302EB211112E01B0445
:100A80000903744693FBF5F35A439E4615E01B0495
:100A900012B209B293FBF5F30EF5704569435A4360
:100AA00001EB2211C3F1000E4FF4803407E02C0457
:100AB00012B294FBF3F462430903A1EB2211BCF1DF
:100AC000000F51EA019180E81240B0BD70B5DDF829
:100AD00014C0B3F1FF3F049CDCF810E112DDB4F167
:100AE000FF3F30DDA3421FD92404A2EB420294FB56
:100AF000F3F3594383FB0E43091154EA1F4301EBFF
:100B0000023136E0B4F1FF3F36DD5D42A5420BD93C
:100B10002404120394FBF3F3594383FB0E4354EA7A
:100B20001F43A2EB211158E01B04090393FBF4F3CC
:100B300003FB02F483FB0E2352EA1F43A1EB2411B3
:100B4000CEF100044BE066424FF20005CFF6FF7590
:100B50009E421944224424D2240409B215FB02F215
:100B600094FBF3F3594383FB0E4354EA1F4302EB18
:100B700021116442724632E0A518A34203EB010240
:100B800029B21ED91B0412B293FBF4F3A2EB42026A
:100B9000594383FB0E43091154EA1F4301EB023111
:100BA0000CE01B0412B215FB01F193FBF4F35A4362
:100BB00083FB0E4354EA1F4301EB22116242744649
:100BC0000DE0240412B2090394FBF3F35A4383FBB0
:100BD0000E4354EA1F43A1EB2211CEF10002BCF9EF
:100BE00014300901826091FBF3F10EEBDE7301EB2F
:100BF0006301C0E9001470BDB0B5DDF810C04FF05E
:100C0000000EBCF1000F5CEA4E8448BF1944224438
:100C100009B201FB0CF112B2059D02FB13114FF456
:100C20000042002D52EA02921B03AEEB0C358360AA
:100C300002EB0121C0E90015B0BD2DE9F04381B000
:100C4000089F044638460E46002F03FB03F158BFA9
:100C5000002000EB020807FB07101D46DDF824907A
:100C600048BF1E44FFF7DBFC4FF480110FFA88F2F7
:100C700033B2B9F1000FB1FBF0F000FB07F105FB57
:100C800000F0C1F100014FEA20104FEA211100FBF2
:100C900002F2A06001FB03224FF4004353EA0393E6
:100CA000524203EB2212C4E9002101B0BDE8F083F7
:100CB00070B504460846F7F772FB0546E0B101211E
:100CC000012228460126F7F728FB4101C4F88000DD
:100CD00048BF84F8C861800303D4A06E40F00100CF
:100CE000A066E36D012131222846F7F79FFB2846D5
:100CF000F7F786FBC4F88400284670BDB0B50546FA
:100D000090F86800C007AC6912D100BF0121002231
:100D10002046F7F702FB000711D595F86800800719
:100D2000F4D40421C8222046F7F76CFBEEE700BF9D
:100D3000012100222046F7F7F0FA8007F8D1B0BD74
:100D400080B5F7F7BCFA01285FEA0F90400080BD3C
:100D50008C46012113466246F7F768BBB0B50446DE
:100D600090F868000B6BC00710D1D3F800C0BCF13D
:100D7000000F1BD094F8C901012132220028A0697C
:100D800008BF6346BDE8B040F7F750BB2AB1196809
:100D90002046BDE8B040F8F7C1BA0D1D2D682DB151
:100DA00069682046F8F7BAFA0328F7D1B0BD000009
:100DB00010B50446012100222046F7F7AEFAC0071D
:100DC000F8D110BD80B521F07F4011460BF014F82A
:100DD00020F07F4080BD00002DE9F04F85B08346B4
:100DE000407CDBF838500BF021F8BBF81840BBF81A
:100DF000166081460E22E100B1FBF0F7BBF814004B
:100E000031463B460BF0D8FFD8B1BBF81210744303
:100E1000D0F810A00390090715D49BF80C10A1B1CD
:100E200001291AD128680C2104AA009252462346AF
:100E300002F090FF10B90498A0420ED003980CF075
:100E400015F8002055E0286A01E0DBF808001030B2
:100E500022460168504619F0D2FC9BF81100029519
:100E60000E2840D007FB06FEBEF1000F3BD04FF02E
:100E7000FF300AEB040200FA09F00AEB0E01013A16
:100E80004FF0000C6FEA000A002600201578C4B26B
:100E900025FA04F010EA0A0014D0B9F1070F11D8AE
:100EA0004D460746EBB24D44C3F108035FFA85F89F
:100EB00000FA03F3B8F1080FDBB247EA0307F1D3F6
:100EC00001E000BF074604EB0900013910F0F80308
:100ED00006F101065FEA0F930F7050EA0C80764529
:100EE000A2EB0302D2D1DDE90201CBF81C10C161F3
:100EF000012005B0BDE8F08F2DE9F04184B0054632
:100F000003F03EF900F10C06804600211022304625
:100F100019F079FC287BB8B301285CD1D8F80070AF
:100F200000210222384615F0EDFF002853D102A916
:100F3000384616F02BF800284DD102980C211838AD
:100F400002900C2303A800903846324602F002FFBC
:100F5000002840D103980C283DD10299D8F8100000
:100F6000884238D119F009FCA8B30646029A03ABAF
:100F70003846314615F0EAFE50BBDDE902018142F8
:100F800026D1C8F8186013E0AF680C22D7E9030136
:100F9000A0F10C043046029419F031FCD8F810008E
:100FA0003969A04201F10C00C8F8180013D10026DD
:100FB000284603F0E5F840B1A88A6A7CE98A2B8BC1
:100FC0000BF0FAFE08B10BF051FF0020C8F8180032
:100FD000304615F0F5FD04B0BDE8F0812DE9F04391
:100FE00083B0457C866B0446072DD6F8008002D17D
:100FF0004FF008090EE0082D04D0092D05D14FF05F
:10100000400907E04FF0100904E00A2D5FEA1F9045
:101010004FEA8029608A000716D4207BB0B10128EE
:1010200037D1484619F0A9FB30B307460C2102A876
:10103000009040463A464B4602F08CFE30BB029888
:10104000484523D1776003E0306A00E0A068076973
:10105000072D276201D102200BE0082D03D0092DB6
:1010600003D1102005E0042003E00A2D5FEA1F9061
:101070000002606201200DE04FF6EB6007A1C0F2B4
:101080000E2040F23D2226F001FD02E0384615F028
:1010900097FD002003B0BDE8F08300BF6465636F77
:1010A00064655F696E6465786564000010B515F06D
:1010B00063FA23280BD143F22834C2F200242068BB
:1010C000002808BF10BD22F0B5F80020206010BD38
:1010D000B0B5044615F050FA0546204615F07EFAE4
:1010E000322D18BFB0BDD0F8F80218B1BDE8B0403D
:1010F00022F0C4B9B0BD10B514460BF0CAF848B11F
:1011000040F644000022C2F200202146BDE8104013
:10111000EFF7C1BD10BD70B50446806908B100206D
:1011200070BD0D460021012228460DF06BFDA0B1D7
:10113000064628460EF0B4F978B10220B06406F1F4
:101140003800C4E90150A66194F8240018B104F1F4
:101150001C0021F0B9FF012070BD4FF0FF3070BDC1
:101160002DE9F047A0B04FF6FF76B24248D0C46AEE
:10117000174688460646B4F828A09A4504D0608DE4
:10118000238540F0080060854FF480215A222046D4
:101190001BF0E0FE81464FF480215C2220461BF0CC
:1011A000D9FE0546F06A0021D9F80C901AF03FFFED
:1011B00009EB050105EBD57301FB07F280696D466C
:1011C000A2EB630210441D900844F16A01381F909D
:1011D00048691C902846C9691E910FF03FF94FF4E9
:1011E000802120462A461CF0FBF91CAA40462946CD
:1011F0000EF0D0FE608DA4F828A020F008006085D5
:1012000020B0BDE8F0872DE9F043A1B04FF6FF779D
:10121000BA425CD0C46A164688460746B4F828909D
:10122000994504D0608D238540F0080060850CADA1
:1012300028460DF0DCFD4FF4802120462A461CF0A4
:1012400006F94FF480215C2220461BF083FEFA6AE7
:101250001A90E2B3002110461AF0E9FEB8B307462F
:1012600014981A99C06801EBD1720844B969A1EBCE
:10127000620100FB061108F1180609910844E169B2
:1012800001380B90606908900A9104A808AA3146B9
:10129000F1F7DAFCA8B196E80F008DE80F0004AB77
:1012A00007F114050FCB86E80F00384618F044FA12
:1012B00013900CA940462A460DF06AFD9DE80F00E8
:1012C0000FC6608DA4F8289020F00800608521B03A
:1012D000BDE8F0832DE9F0438FB000291C46154688
:1012E000814650D008790F4608284CD8012181400A
:1012F00011F48B7F31D0B868D0E90061D0E90220C9
:10130000CDE90220901B019101300E2100960BF0D7
:101310009CFF30440DF110080138029000212C226E
:10132000404619F070FAB87D3A688DF82700B88AFF
:10133000F97DADF825008DF8241010690A906846F3
:101340000C901189B8680D91049002208DF82C0042
:10135000484641460FF09CFA15E0A0B90DF110087F
:1013600040460BF09CFBF87DFA688DF83800B88A8F
:10137000ADF83000B87D8DF8320001200D90484660
:10138000414611F099FC2DB124B148462946224628
:1013900012F0DCFC0FB0BDE8F08300002DE9F04F47
:1013A000F7B0054615F0ECF88046806B002800F099
:1013B0007B81284615F001F9B8F82A10824641F0E1
:1013C0000800A8F82A0073A940461AF071FFB8F87F
:1013D0002A0022AEB8F828404FF0000940F008007B
:1013E000A8F82A003046A8F828900FF037F80DAF7B
:1013F00038460DF0FCFC4FF4A021404632461CF06C
:10140000EFF84FF4A02140463A461CF020F8B8F817
:101410002A0000211022089420F00800A8F82A00D1
:101420004046A8F828401BF095FD069000211122A7
:1014300040461BF08FFD05900021122240461BF014
:1014400089FD04900021132240461BF083FDD8F84B
:1014500038700390002F00F021814EF64A4600209C
:10146000C0F20E26CDF81CA0D8F82C10A0F1010B6C
:1014700001EB800555F8040B3146EFF725FA0BF127
:10148000010B08B92FF00BC0D8F8340050F8290030
:10149000C10600F1FC80410608D4D8F840100024B1
:1014A0008945089908BF01F02E0400E08024D8F88F
:1014B00030104FEA091301EB0912C0F3002050EA83
:1014C000040CC958D2E90135D268DDE9737039449A
:1014D0006F9100EB0301709107EB050171911044CE
:1014E000729025D0B8F82A0053ADA8F828C040F073
:1014F0000800A8F82A0028460EF0B0FF3EAF384694
:101500000DF075FC4FF4A02140462A461CF068F807
:101510004FF4A02140463A461BF099FFB8F82A0044
:101520000899A8F8281020F00800A8F82A0009E077
:10153000702253A822A919F062F954223EA80DA9DD
:1015400019F05DF99DF89501CDF85491C10603D4C9
:101550007099729A32E000BF00F0E001049B01F143
:101560000F008DF89501D8F814201A446F9B934210
:1015700003D141F00B008DF89501D8F81C10039AA7
:10158000891A719A8A4203D100F0F7008DF895010B
:10159000D8F81810069A0A447099914203D100F0C5
:1015A000FD008DF89501D8F82020059BD31A729A7A
:1015B0009A4203D100F0FE008DF89501501A14F004
:1015C00020020A9200F1010208D0D8F8340000EBA2
:1015D00089004078400701D5881A709009925046DA
:1015E00053A96FAA0EF0D6FCD8F82C00759B469A2A
:1015F0004C9950F82BA07398181A9DF843514D9BA5
:101600000130CDE900100BA85146029520F074FC82
:101610006FABDDE90B570FCB4419121BCC1901320C
:101620001B1B013302EBD27203EBD37300EB62029C
:101630006F9201EB6300511971910A99002900EB37
:101640000701709072910FD0D8F8342002EB890214
:101650005278520708D5099A02EBD272A0EB6200C9
:101660007090A1EB620072909DF84401CDF814A136
:10167000DDF81CA03EA940F040008DF84401504622
:101680006FAACDF800910DF083FBD8F8387009F1FE
:1016900001090BF10100B945FFF4E6AEB8F82A00E4
:1016A00020F00800A8F82A0077B0BDE8F08F2DE9F7
:1016B000F04FDDB0044614F063FF0546204614F0F9
:1016C0007CFF80460021302228461BF043FC074661
:1016D0000021122228461BF03DFC824600211322E5
:1016E00028461BF037FC83460021102228461BF0B9
:1016F00031FC48AE044630460DF079FB4FF4003122
:10170000284632461BF0A3FED5F83090B9F1000F01
:1017100006D10DF1A00980222846494614F0FEFBAF
:1017200095F84C000AEB07010791002100F00F002B
:10173000272201280BEB0700069028465FEA1F9638
:1017400027441BF007FCC0B201285FEA1F91686BB9
:10175000002841EA060A7CD0CDE9048716F0ECFBAC
:101760000746022810D1696B509A9DF86B616FF0A3
:101770006044DDE9560300900AA8CDE9014620F057
:10178000BBFBDDE90A8B0EE0686B0AA915F023FFAD
:10179000BDF82C104FF0FF33BDF82E20012851EA80
:1017A000038852EA038BBAF1000F07D068690799E2
:1017B0000844249008EB0001481E06E0E8690699F9
:1017C000401AA0EB080101382491022FAC69269041
:1017D0000FD10598DDF8108020442590584448A981
:1017E00001382790686B4F9024AA40460DF0D0FA3C
:1017F0002EE028461AF093FDA0EB0B0000EBD07012
:1018000004EB6000259058440AAC0138279020462C
:101810000DF098FA4FF40031284622461BF0BAFD2D
:1018200008EBD8706E220BEBDB7140104910CDE94C
:101830001A014FF4003128461BF08CFBDDF81080B4
:101840001590686B119024AA404621460DF02FFA9E
:10185000059F0AAC20460DF0CAFA00212846224610
:101860001BF0F5FD9DF87310129ADDE918036FF077
:101870006046009008A8CDE90161494620F03CFB94
:10188000A869696B3844099A25901044279049B19A
:10189000BAF1000F13D00898069AE9690244891A30
:1018A000249111E028466C691BF076FC0899401AD7
:1018B00000EBD07004EB60002490084405E06869F8
:1018C00007990844089924900844296B2690CDF87C
:1018D000449029B99DF8740040F040008DF87400E0
:1018E0000AA924AA40460DF053FA5DB0BDE8F08F76
:1018F0002DE9F04FADF50F7D044614F041FE824610
:10190000204614F05AFE0AF1140600F118040546A8
:101910008BA831462246F1F797F9002800F028827B
:101920000DF5077CCDE90D6594E80F008CE80F00FC
:101930008BAB07940FCB84E8070000213022504680
:10194000E36000241BF006FB814600211022504674
:101950001BF000FB06460021112250461BF0FAFA4C
:1019600083460021122250461BF0F4FA0C9000210D
:10197000132250461BF0EEFA1290BAF82A0065AF17
:10198000BAF8285040F00800AAF82A003846AAF809
:1019900028400EF063FD4FF4A02150463A461BF05C
:1019A0001FFE34AF38460DF022FA4FF4A021504606
:1019B0003A461BF04CFDBAF82A000695AAF82850C2
:1019C000DAF8185020F00800AAF82A0050461AF059
:1019D000FAFE06EB0901C04329440B960844CDE901
:1019E0008340504681941AF0E7FE8046002127226A
:1019F00050461BF0AFFADAF83010002900F0B4813D
:101A00000C9B6FEA08024B445FFA80FE9818059021
:101A100012980024CDF83CE0C24309EB0800101AEC
:101A200004906FEA0B004FF0000B0A92099000BF80
:101A3000DAF838008E9B849A50F824009A4202F11A
:101A4000010782970244849280F28E81BEF1010FD9
:101A500006D1DAF81C20049B1A44819205E000BFED
:101A60000D9A059B12681A448392DAF82CC0DDF8AF
:101A70003890BCF1000F00F0738100EBD0704FF094
:101A80000008109440100890DAF8340050F82B1039
:101A900011B1096801E000BF0021BEF1010F1191F1
:101AA0000AD1819ADAF83C30511E839153F828709C
:101AB000D21B819209E000BF8399DAF83C304A1CBE
:101AC000819253F8287039448391ACF1010747455E
:101AD00024D903EB8803A7EB080400EB8B07A8EBE2
:101AE0000C001D1D01300023464612943C68D4B101
:101AF0002678F60715D0BEF1010F2E6802D1921B91
:101B0000819201E0314483910133043503EB0806EF
:101B1000C41807F10407E9D1129F05E000274646E3
:101B200002E008EB03061F468C98849B8342C0F2B8
:101B30000B819DF8DD011297829F1B9245071C9730
:101B4000CDE91D130BD50D9D0C9C2D682544AA4293
:101B500005DD769D05EBD575A2EB65021B9282072C
:101B60000BD5DAF818200B9D2A44974205DD769AAA
:101B700002EBD272A7EB62021C9202070ED5DAF8D2
:101B80001C200A9F3A44914208DA769A02EBD277F7
:101B900002F00102114401EB67011D91C0070ED054
:101BA000DAF8200009990844834208DA769800EBB5
:101BB000D07100F00100184400EB61001E90DAF8CB
:101BC00044001099129F814210D1DAF840008045FC
:101BD0000CD1BAF8281001F0600201F00600202AAA
:101BE00008BF203009070ED470B900BF49AC70227D
:101BF000204665A918F003FE54221FA834A918F046
