:020000040200F8
:100000004072002299240002850A0002C703000200
:100010005D0A00025D0A00025D0A00025D0A00023C
:100020000000000000000000000000005D0A000267
:100030005D0A000200000000FF02000259250002D4
:10004000D1200102D5210102852101024B200102AC
:100050008D3F00024D93000229B300029DB30002C0
:1000600011B40002ABB200029BB100020FB2000259
:10007000E17E00020000000000000000000000001F
:100080000000000000000000000000000000000070
:100090000000000000000000000000000000000060
:1000A0000000000000000000000000000000000050
:1000B0000000000000000000000000000000000040
:1000C0000000000000000000000000000000000030
:1000D0000000000000000000000000000000000020
:1000E0000000000000000000000000000000000010
:1000F0000000000000000000000000000000000000
:1001000000000000000000000000000000000000EF
:1001100000000000000000000000000000000000DF
:1001200000000000000000000000000000000000CF
:1001300000000000000000000000000000000000BF
:1001400000000000000000000000000000000000AF
:10015000000000000000000000000000000000009F
:10016000000000000000000000000000000000008F
:10017000000000000000000000000000000000007F
:10018000000000000000000000000000000000006F
:10019000000000000000000000000000000000005F
:1001A000000000000000000000000000000000004F
:1001B000000000000000000000000000000000003F
:1001C00000F002F800F073F80AA090E8000C8244F6
:1001D0008344AAF10107DA4501D100F068F8AFF2D3
:1001E000090EBAE80F0013F0010F18BFFB1A43F015
:1001F0000103184748A4010088A401000A444FF0F5
:10020000000C10F8013B13F0070408BF10F8014B75
:100210001D1108BF10F8015B641E05D010F8016BBA
:10022000641E01F8016BF9D113F0080F1EBF10F81E
:10023000014BAD1C0C1B09D16D1E58BF01F801CB41
:10024000FAD505E014F8016B01F8016B6D1EF9D5C4
:100250009142D6D370470000103A24BF78C878C1C5
:10026000FAD8520724BF30C830C144BF04680C60BC
:10027000704700000023002400250026103A28BF04
:1002800078C1FBD8520728BF30C148BF0B60704708
:100290001FB515F04BFF00F02BFB040000200021E0
:1002A00015F02EFF401C60601FBD10B510BDDFF8BB
:1002B00010D0FFF7EDFF00F0CCFB00F0C1FB000019
:1002C0004052002203B4FFF7F0FF03BC03F0E0FA52
:1002D000EFF3108072B6704780F310887047484A79
:1002E0001368012B04D04FF001031360454A1060DE
:1002F000454A116045484FF0805101607047EFF367
:10030000108272B63E48016879B34FF00001016077
:100310003C48016891B1EFF309811EF0100F08BF4E
:1003200021ED108B21E9F00F4FF000041EF0100FAB
:1003300008BF012441F8044D0068016000B502F0D7
:10034000B8FA5DF804EB30490968096808C9B1E8F2
:10035000F00F002B18BFB1EC108B81F309884EF021
:10036000100E002B18BF2EF0100E82F310884EF0E6
:10037000040E704724490860EFF3148222F004024F
:1003800082F314881F494FF0000008601C494FF0A9
:10039000010008601E481F49D0F8002041EA020110
:1003A00001601A484FF0805101601B4800680068E6
:1003B00000BF80F3088861B662B6BFF34F8FBFF30A
:1003C0006F8F704700BFEFF308801EF0040F01D05D
:1003D000EFF3098020E9F00F40F804ED40F804ED58
:1003E0001EF0040F02D080F3098801E080F3088832
:1003F00000B50DF06BFF5DF804EB4EF0040E704796
:10040000CC0F0022080E0022140E002204ED00E0A2
:1004100020ED00E00000FFFF08ED00E07047000065
:1004200010B500F065FA001D10BD00BFD55C0100DD
:1004300053EA020C00F069802DE9F04B4FF0000602
:10044000002B1FBFB3FA83F503FA05F424FA05F66F
:100450005E4012BF1643B2FA82F502FA05F4C5F106
:1004600020051EBF22FA05FC44EA0C04203556EA9A
:10047000044C4FEA144418BF641C4FF000084FF0BE
:100480000009904271EB030C39D3002919BFB1FA6E
:1004900081F701FA07F6B0FA80F700FA07F6C7F11C
:1004A00020071EBF20FA07FC46EA0C062037B6FBE1
:1004B000F4FCA7EB0507103F07F01F0BCBF120065C
:1004C0002CFA06F60CFA0BFB44BFB3460026202F8D
:1004D000A4BF5E464FF0000B5BEA060C08BF4FF06E
:1004E000010B19EB0B0948EB0608ABFB027C06FB82
:1004F00002CC0BFB03CCC01B71EB0C01C1E70B461C
:10050000024641464846BDE8F08B13B5084318BF84
:100510004FF0FF300146AFF30080BDE81C4070474C
:1005200070B5064600F0E8F90468054630460A2230
:10053000002100F0F0F92C6070BD401ECAB210F826
:10054000011F8A4202D00029F9D10020704740EAF9
:10055000010310B59B070FD1042A0DD310C808C999
:10056000121F9C42F8D020BA19BA884201D9012042
:1005700010BD4FF0FF3010BD1AB1D30703D0521C8D
:1005800007E0002010BD10F8013B11F8014B1B1BC8
:1005900007D110F8013B11F8014B1B1B01D1921E32
:1005A000F1D1184610BD10B5431C02E010F8011B34
:1005B00071B18107FAD14FF0013202C88C1A8C4315
:1005C00014EAC211F9D0C01A0A0603D0C01E10BD29
:1005D000C01A10BD0A0401D0801E10BD0902FCD053
:1005E000401E10BD40EA010370B59B072ED14FF0AD
:1005F0000136042A2AD308C810C99D1B9D43121F27
:1006000015EAC61517D0D8B2E1B2401A50EA056112
:1006100010D198B2A1B2401A50EA05410AD123F094
:100620007F4024F07F41401A50EA052102D1180E84
:10063000A0EB146070BDA342DBD018BA21BA884287
:1006400001D9012070BD4FF0FF3070BD0AB9002004
:1006500070BD10F8013B11F8014B63B1A3420AD100
:10066000521E08D010F8013B11F8014B1BB1A342F8
:1006700001D1521EEDD1181B70BD032A40F230800B
:1006800010F0030C00F0158011F8013BBCF1020FD3
:10069000624498BF11F801CB00F8013B38BF11F854
:1006A000013BA2F1040298BF00F801CB38BF00F86B
:1006B000013B11F0030300F02580083AC0F00880E8
:1006C00051F8043B083A51F804CBA0E80810F5E7CC
:1006D000121D5CBF51F8043B40F8043BAFF30080AF
:1006E000D20724BF11F8013B11F801CB48BF11F824
:1006F000012B24BF00F8013B00F801CB48BF00F8F4
:10070000012B704710B5203AC0F00B80B1E81850AB
:10071000A0E81850B1E81850A0E81850203ABFF4EB
:10072000F5AF5FEA027C24BFB1E81850A0E818508A
:1007300044BF18C918C0BDE810405FEA827C24BFDE
:1007400051F8043B40F8043B08BF7047D20728BF6C
:1007500031F8023B48BF11F8012B28BF20F8023BBB
:1007600048BF00F8012B704702F0FF0343EA032261
:1007700042EA024200F00AB802F0FF0343EA032211
:1007800042EA024200F024B84FF000020429C0F00F
:10079000128010F0030C00F01B80CCF1040CBCF1B3
:1007A000020F18BF00F8012BA8BF20F8022BA1EB05
:1007B0000C0100F00DB85FEAC17C24BF00F8012BEA
:1007C00000F8012B48BF00F8012B70474FF00002E2
:1007D00000B5134694469646203922BFA0E80C5037
:1007E000A0E80C50B1F12001BFF4F7AF090728BF12
:1007F000A0E80C5048BF0CC05DF804EB890028BF8E
:1008000040F8042B08BF704748BF20F8022B11F0B6
:10081000804F18BF00F8012B704710B5044610F048
:10082000030F08BF11F0030F40F015804FF0013E99
:10083000121FC0F20E8051F8043BA3EB0E0C2CEA01
:10084000030C1CEACE1C08BF40F8043BF0D0A1F119
:10085000040102F10402521E08DB11F8013B00F80A
:10086000013B002BF7D11146FFF78EFF204610BD4C
:1008700030B44FF0013C50F8042B51F8043BCCFA53
:1008800052F4D51A20D1FCB950F8042B51F8043B8E
:10089000CCFA52F4D51A17D1B4B950F8042B51F848
:1008A000043BCCFA52F4D51A0ED16CB950F8042B93
:1008B00051F8043BCCFA52F4D51A05D1002CDAD009
:1008C00030BC4FF00000704729BAB1FA81F111F045
:1008D0001801D1F120008440F2D1CA40CB4012F07F
:1008E000FF0213F0FF0330BCD01A704770470000BE
:1008F000004870473804002200487047180400225E
:1009000010B5FFF7F9FF006810BD10B50446FFF7FA
:10091000F3FF046010BD2DE9F04791460F46804675
:100920000446002614F8015B2DB1FFF779FD00683D
:10093000405DC007F6D12B2D02D02D2D18D0641E9E
:100940004A463946204600F01EF827B13968A142D0
:1009500001D1C7F800804FF0020471050BD5404269
:10096000002803DDFFF7C8FF0460A007BDE8F0879B
:1009700046F48066E4E70028F8DAFFF7BDFF04607C
:100980006FF00040F2E72DE9F05F824615468B4696
:1009900000270AF10104B9460078302801D09DB142
:1009A00013E014F8010B0127782803D0582801D050
:1009B00045B10AE00DB1102D07D1002714F8010B45
:1009C000102502E0082500E00A250026B0460EE0CA
:1009D00005FB080005FB06F101271FFA80F801EB73
:1009E0001046B6F5803F00D3B94614F8010B2946EE
:1009F00000F018F80028EBDABBF1000F05D00FB1BA
:100A0000641E00E05446CBF80040B9F1000F06D058
:100A1000FFF772FF02210160C81EBDE8F09F48EA9F
:100A20000640FAE73A2800D2303820F02002412A66
:100A300001D3A2F13700884201D34FF0FF30704755
:100A400010B50446AFF300802046BDE81040FFF724
:100A500039BC80B511F0E4FA002080BD00BE7047BB
:100A600010B504460EF0E3FA2068032805D141F2E0
:100A7000B400C2F200200CF0DDFFBDE810400EF023
:100A8000F9BA0000F0B581B04CF2001540F6AC07A1
:100A9000C4F200050024C2F200272888298C0840EF
:100AA00086B200BF26FA04F0C00703D0396809B146
:100AB0002046884701340437102CF3D12E8200BF22
:100AC000288C3042FCD101B0F0BD0000B0B542F23C
:100AD0002404C820C4F2200401210025257100F05F
:100AE00082F82570207808B12FF005C0207840F0FA
:100AF0000200207020788007FCD4002004F8020C4B
:100B000014F8020C08B12FF005C84FF0030E0020B6
:100B100004F11C0111F8102002F07F0201F81020EE
:100B200011F91020002AFBD401300FF00DC801206C
:100B300000F00BF84EF64C410120C4F201010022F6
:100B40000A70BDE8B04000F027B880B5EFF310811F
:100B5000012282F3108840F67C12C2F2002232F8A1
:100B600010308BB947F2083C4EF2FA3EC0F2012C2D
:100B7000C4F2010E3CF810C0BEF8003043EA0C038A
:100B800043F42543AEF8003032F81030013322F838
:100B9000103081F3108880BDEFF31081012282F3C1
:100BA000108840F67C12C2F2002232F8103023B1D5
:100BB00032F81030013B22F8103032F810207AB9A8
:100BC0004EF2FA3247F2083CC4F20102C0F2012CA4
:100BD00013883CF8100043F4254323EA00001080FA
:100BE00081F31088704740F278424CF60023C2F23D
:100BF0000022C3F69A3341434FF47A7C1268B3FB68
:100C0000F2F2A1FB0C3010B9B3FBF2F004E0B1FB3F
:100C1000F2F0A0FB0C0119B908B103F0D1B870478C
:100C20004FF0FF3003F0CCB87047022818BF704770
:100C300048F2A800C0F20120416840F64810C2F214
:100C4000002000F009BE844641610020CCE9063254
:100C5000704748F20002C4F23402D36FDB0716D1AA
:100C60001368DB0313D4036881605B691B68022B84
:100C700007D1C36819440123013963F30401D16525
:100C800081680020D16350670121116070470820FE
:100C90007047B0B548F2000C4FF0000EC4F2340CAF
:100CA0004EF28015CEF200050124CCF870E0036806
:100CB0005B69996A01F01F02490904FA02F245F8DA
:100CC000212040F60422BFF34F8FBFF36F8F996A44
:100CD000C2F2002242F821E04FF48031CCF800103B
:100CE000C0F804E043F20800EFF31085C4F22000DE
:100CF00084F31088016841F4803101600068962017
:100D00000121FFF770FF85F310880020B0BD0000BF
:100D10002DE9F04F81B00D464F69498804462A7A83
:100D2000D7F804B00560386802FB01F80BF1010147
:100D30000228E8686061B8FBF1F9E988009101D107
:100D4000786901E008FB09F0E060EFF3108A012008
:100D500080F3108843F2080048F20006C4F2200035
:100D6000C4F23406016821F48031016000689620E5
:100D70000121FFF738FF8AF3108800BFF06FC0072A
:100D8000FCD100BF3068C003FCD4F8694FF44011B7
:100D900001EA00507060D7E9030CBBF1000FD7E9FE
:100DA000002300F0010002F00302397A6CF34100E5
:100DB00003F0010340EA021001F0010240EA0330AF
:100DC000C1F3400340EA0260C1F3800140EA83605E
:100DD00040F2000340EAC160B0606988EA88C0F66A
:100DE000FF734FF0010C03F140506FF39F3100EAA5
:100DF00002405FEA1F920844F0605CEA1C90298878
:100E000029FA02F26FF35F394843A9886FF31F3262
:100E10004FF0000E6FF35F3061F31B40009903EA5F
:100E20000143306103EB09007061C6F85CE098187B
:100E30007063C6F83880C6F860E00222387E4EF251
:100E40000017CEF200074EF6145862F3DF0070660A
:100E5000206844F25552C5F24322C4E9012E40698C
:100E6000CEF20008836A026AD91990F8240003F0D0
:100E70000F0501F54071002B4FEA001048BF05EB4C
:100E800008012261087040F6042003F01F02C2F23C
:100E900000200CFA02F240F823404CF20030C4F279
:100EA000000050F8231021F4803140F8231050F84E
:100EB00023005809BFF35F8F07EB8001C1F8802141
:100EC00047F82020C6F874E000202169316701B09E
:100ED000BDE8F08F48F20002C4F234021368DB036D
:100EE00006D4D36FDB0705D1136803F0010302E0DA
:100EF000022300E001230B60806848600020D2F8E4
:100F000084208A60704743F200101302C4F2340058
:100F1000C358DB071AD16FF0FF03C358DB0515D4A4
:100F200000EB0220032200295FEA0F9C08BF012288
:100F3000036A23F002031A430262C0F804C0C160CE
:100F4000016841F0010101600020704740F2EE307D
:100F5000704700002DE9F04F81B043F20808824647
:100F6000C4F22008002707600120EFF3108480F30B
:100F70001088D8F800000D4620F01000C8F80000D6
:100F800043F20449D8F8000043F2000B96200121F7
:100F9000C4F23409C4F2340BFFF725FE84F3108841
:100FA0004023DBF8000040F48030CBF80000D5F897
:100FB000A400296C0329D0E9042008BF4FF4825310
:100FC00000F03F00002A08BF03F580731844C9F8F9
:100FD0004C00286DD5F8A410002818BF4FF4BC7041
:100FE000CBF8E403C9F80070D1E90032581C8868D6
:100FF00047F2E821C0F2012112D02F6B2FB9D9F8A6
:10100000187047F01007C9F8187051F823301F689E
:1010100047F002071F60EB8D6FF3DF23C9F8143030
:10102000531C10D0EB6B2BB9D9F8083043F01003E8
:10103000C9F8083051F82220136813606A8F6FF3E3
:10104000DF22C9F80420421C1ED0EA6C12B901222A
:10105000C9F8242051F82000016841F0070101601F
:10106000A88D698D6FF3DF206FF3DF2141EA004027
:10107000C9F81C00288FE98E6FF3DF206FF3DF21A2
:1010800041EA0040C9F80C00A88E298D40F61813DB
:101090006FF3DF20C2F200236FF3DF2141EA00404B
:1010A000CBF804004FF00110CBF80800A88D698D33
:1010B00001306FF3DF216FF3DF2041EA0040CBF80E
:1010C0001000288FE98E01306FF3DF216FF3DF20EE
:1010D00041EA0040CBF80C0095F8550095F8561001
:1010E00095F85420000240EA014040F610111044E7
:1010F000CBF81400C2F20021A88D6A8D088040F65A
:101100001411C2F20021288F1A800022088040F6B4
:101110001C11C2F20021E88E088005F16C012846FE
:101120000BF040FB05F1140005F17C0101220BF0EE
:1011300039FBD5E9100182A295F868707CA4AB6CEC
:1011400052F82020002F54F820704FEA024215D0A8
:10115000D5F8A440A669022E0ED104F11C0EA46A93
:101160009EE84050360346EA0C2646EA0E16264311
:10117000324342F4001201E042F480123E034FF089
:101180008054012948F2800108BF44EA0736012B48
:10119000C0F2800108BF46F0807603284FF400704B
:1011A00008BF06F50076CBF8C463CBF8D423CBF8A0
:1011B000C8034FF00220CBF8CC03CBF8D01340F695
:1011C0002012D5E92701CAE90101288FE98EC2F270
:1011D0000022CAF80C50C2F800A008440130DBF825
:1011E000501260F30A01CBF85012DAF80C00D0F874
:1011F000A400C16A07C912689047054698B101204A
:10120000EFF3108480F310880121D8F8000040F03B
:101210001000C8F80000D8F800009620FFF7E3FCA3
:1012200084F3108880E00620C9F83C000720C9F844
:101230004000DAF80C304EF200104CF2003140F66B
:101240000422D3F89070CEF20000002FC4F2000107
:10125000C2F200221FD493F88C30C61901241B015E
:1012600086F8003342F827A051F8273023F4803362
:1012700041F8273051F827307B0907F01F07BFF3EB
:101280005F8F00EB830604FA07F7C6F8807140F819
:101290002370DAF80C30D3F89470002F1FD493F831
:1012A0008D30C61901241B0186F8003342F827A0AF
:1012B00051F8273023F4803341F8273051F8273094
:1012C0007B0907F01F07BFF35F8F00EB830604FA6B
:1012D00007F7C6F8807140F82370DAF80C30D3F8BD
:1012E0009870002F1DD493F88E30C6191B0186F814
:1012F000003342F827A007F01F0351F8272022F4FB
:10130000803241F8272051F8271079090127BFF3CF
:101310005F8F00EB810207FA03F3C2F8803140F8D7
:1013200021300120CAF80000284601B0BDE8F08F46
:1013300000000000010000000200000003000000A7
:10134000000000000100000002000000000000009A
:1013500010B50446C068D0F8A400C06A816800686F
:101360008968884743F20001C4F234010A6842F4F4
:1013700080720A600A6842F001020A60D1F84024D3
:1013800042F00102C1F840240221216010BD8446D0
:1013900041610020CCE906327047B0B543684EF297
:1013A000801E40F6042CCEF2000E59691B6A0029FB
:1013B000C2F2002C0ED44A0901F01F04012505FADF
:1013C00004F44EF82240BFF34F8FBFF36F8F00221B
:1013D0004CF82120996B00290ED44A0901F01F0412
:1013E000012505FA04F44EF82240BFF34F8FBFF3F6
:1013F0006F8F00224CF82120D96B00290ED44A09A6
:1014000001F01F03012404FA03F34EF82230BFF366
:101410004F8FBFF36F8F00224CF82120816800228C
:101420000260C3688B60816800204A63B0BD816838
:101430004FF000420A6181684A6181688A61002236
:1014400081684A62816800208A6270472DE9F04312
:1014500083B01646044602F00309002001904FF0C5
:10146000FF3000906A4620463346884607F0AEFFBC
:10147000A268156B019FAFB90421300758BF022144
:10148000B007009802F14C0203D4494402EB8101F9
:1014900007E042F8210041F00101A26802EB81015E
:1014A0004C31086070060CD4022E39460FD13946F3
:1014B0006FB16A4601232046414607F087FF019934
:1014C00005E0A068016C41F480010164394625F40F
:1014D0004030B9F1010F18BF40EA074525F04072CE
:1014E000A368B9F1000F4FF0000018BF42EA016590
:1014F0001D6303B0BDE8F08380B54168D0F808E013
:10150000096AD1E904C38A6943F00043CEF8143074
:1015100042F0004283689A614CF000438268136194
:101520008268CB69536282680020096A916280BD3B
:10153000F0B58068426E01328A60D0F82CC04EF25D
:101540002000C4F201000268007942EA000300F0C2
:101550000F001B0702F00F0308D440F27842C2F2DA
:101560000022126802FA00F0D8401BE000F0070EDB
:10157000032707FA0EF440F2784EC2F2002E01253E
:10158000082838BF05FA00F402F00700DEF8006012
:1015900007FA00F006FB04F7120758BF05FA03F03C
:1015A000B7FBF0F0CCF3C352012320FA02F2002083
:1015B000C1E90032F0BD2DE9F04782B00D46097C4B
:1015C000814642F2000307295FEA9F9202614F467B
:1015D000287CC4F2320301220024D5F820A04FF069
:1015E000004803EB002047F8080F02FA01F078608A
:1015F00047F8045CA869F860E86978613C61EFF33A
:10160000108682F31088287C43F21001C4F2200176
:1016100028FA00F00A6822EA0000086008689620AC
:101620000121FFF7E0FA86F310884FF4254138686E
:1016300001603868C4623868C463386884642868A4
:10164000A968032838684FEAC1516A6808BF01F5E4
:101650008031C1623868C0F810803868C0F81480E2
:101660003868C0F81880386844623868846238681E
:10167000DAF82410C1613868DAF828100162511EC6
:1016800038688166386841664FF0FF302968DAF8BB
:1016900044800129019400900DD029B968684FF069
:1016A000FF3101EB500006E0E9686A460023484636
:1016B00007F08CFE009839684865396888652968A4
:1016C000042903D33968C86539680866DAF8440024
:1016D0000028019837D19AF80010B1B12A68DAF8D9
:1016E0000410022A03D0032A03D1032205E00922B1
:1016F00003E00922002908BF06220B0143EA8111F9
:10170000114441EA080141F480789AF80810D1B1F7
:101710002A68DAF80C10022A04D0032A05D14FF403
:10172000403208E04FF4102205E04FF41022002967
:1017300008BF4FF4C0220B0543EA8151114441EA2E
:10174000080141F08078396800228A633968C1F85D
:101750008820DAF8441031B9DAE90B12490341EA7A
:10176000427148EA010839684FF4AA020A642968FC
:10177000012904D139680022CA6439680A65D9E9A7
:101780000212CA60D9F80810C1F834800104D9F8EF
:10179000082041EA0060C11C013011634A46D9F8B3
:1017A00008100863697C68690BF04EF99AF83410E8
:1017B000DAF838004A460BF047F99AF83510DAF8AB
:1017C0003C004A460BF040F945F254010020C0F2BB
:1017D0004701C9F8001002B0BDE8F08783684A1ECF
:1017E0009A6643681B684BB9D0F808C04FF0FF33C6
:1017F00003EB5101CCF85410836899658168CB6A7A
:10180000DB0707D14A664FF4AA0281680A64D0E96F
:101810000210C86000207047014682680020C96835
:10182000D1607047014682680020C96851607047E6
:101830008268D06A00F0010048600020926C0A6063
:101840007047014682680020C96891607047014670
:10185000002000220A60704780B545F25422C5F28C
:101860004F02026008460BF01BF9002080BD70B5E6
:1018700086B001A8049003A814460D46CDE90121C5
:101880000126ADF80C6002F09FFA40F68410EFF3E9
:101890001081C2F2002086F3108802683AB940F63F
:1018A00014520023C4F240021370402313700268E4
:1018B0000132026081F31088E10340F600014FEA33
:1018C0001522C4F2400101D4EBB20CE001EB821608
:1018D000EBB256F8235025F4803546F8235024F413
:1018E000803546F8235001EB8211012241F8234054
:1018F000EFF3108182F31088026812B10268013A96
:101900000260006838B940F614500022C4F240006A
:1019100002708022027081F31088002006B070BD32
:101920004FF4FF50042300EAD100C4F24003C9B2CF
:10193000C0580023CFF6FF7343EA104020FA01F1AC
:10194000002001F001011160704780B5C8B24FF06E
:10195000010C531E0CFA00F050EA138E4FF4FF5C9A
:101960000C230CEAD101C4F24003012A18BF002065
:10197000012A41EA030CCA5808D180B24FF6FF7120
:1019800041EA0E41104300EA010205E042EA0E413D
:10199000CFF6FF7001EA00020020CCF8002080BDE5
:1019A0006FF03F00CBB200EA910040F6000100EB7F
:1019B0008300C4F2400141580020C1F3400111608E
:1019C000704780B55FFA81FE012000FA0EF0002A10
:1019D00083B24FF4FF5040F208024FF4803C00EA1B
:1019E000D101C4F240024FF0000008BF0CFA0EF320
:1019F0008B5080BD80B508460BF052F8002080BDAA
:101A000080B54FF4FF5040F2000C00EAD101C4F25F
:101A1000400C03EA020E62EA030251F80C004EEA9F
:101A2000000E002002EA0E0241F80C2080BD4FF4A7
:101A3000FF5000EAD1000421C4F2400141580020C7
:101A4000090C1180704723EA020C4FF4FF501A4032
:101A50000C2300EAD101C4F24003002042EA0C4208
:101A6000CA5070474FF4FF50042300EAD101C4F27A
:101A700040030020C9581180704723EA020C4FF43C
:101A8000FF501A40082300EAD101C4F240030020AD
:101A900042EA0C42CA5070472DE9F04146F2041563
:101AA0008046C4F2340506F0AFFAD8F80C10286866
:101AB00020F00100286040F60C100322C2F2002042
:101AC0000260497BD5F81C22C2F3C0628A421CBF67
:101AD0000268002AF6D100250560D8F80CC001265E
:101AE000DCF874104A6802F01F0354094EF28012A9
:101AF00006FA03F3CEF2000242F8243040F6042343
:101B0000BFF34F8FBFF36F8F4C68CF68C2F20023D3
:101B1000780907F01F0743F8245006FA07F742F840
:101B20002070BFF34F8FBFF36F8FC8684F697C0978
:101B300043F8205007F01F0006FA00F042F8240096
:101B4000BFF34F8FBFF36F8F4869CF697C0943F8AC
:101B5000205007F01F0006FA00F042F82400BFF3FF
:101B60004F8FBFF36F8FC8694F6A7C0943F82050CD
:101B700007F01F0006FA00F042F82400BFF34F8F71
:101B8000BFF36F8F486ACF6A7C0943F8205007F093
:101B90001F0006FA00F042F82400BFF34F8FBFF396
:101BA0006F8FC86A43F82050DCF8000000680AF024
:101BB000D9FF43F20800C8F80050C4F22000EFF348
:101BC000108486F31088016841F480610160006828
:101BD00096200121FFF707F884F310880020BDE864
:101BE000F081F0B546F2C0504FF65022C4F23400F6
:101BF000CFF6FF728358DB0714D18258D20611D476
:101C000091F800C04A6802F00F058C89092D00EB9D
:101C1000CC1303F5E07307D35FFA84FE250A4FF077
:101C2000807710E00820F0BD34B10D69012C95F8E3
:101C300000E006D1002702E000274FF0000E00254B
:101C400001E06D78002702F03F024EEA05250CF016
:101C500003048E6845EA024206F0400542EA8452D7
:101C60003A4306F0030742EAC54206F0200542EA7D
:101C700087621A606A04360702F180724FF0140618
:101C800008BF6A04002D08BF6A04002F4FF0807758
:101C900008BF1026C3E90172BCF1000F5FEA1F976D
:101CA0008A59DA600760097801295FEA1F910164A7
:101CB0000020F0BD2DE9F04188B043F25042C4F25B
:101CC00034021268520601D41E204AE10D4640F645
:101CD0000C1840F6F8110446C2F20028C2F20021A6
:101CE0000020C8F800000870E560EFF310860120BE
:101CF00080F3108843F20800C4F22000016821F448
:101D000080610160006896200121FEF76CFF86F378
:101D100010882968D1E900010AF03AFF002840F054
:101D2000208146F20017C4F23407386840F480700E
:101D30003860386940F00100386100BF786900F010
:101D40001F001F28FAD1E87A013840F4407038604B
:101D5000287BB96821F0FF010844B86095F82C0091
:101D6000298D2A6B95F8343002F00F0241EA0040C9
:101D700095F8351040EA025095F8362040EA437055
:101D800040EA817040EAC27038626868D0E9002198
:101D9000090480683FFA81F162F38B0141EA006037
:101DA000C7F814026868C0686FF39F20C7F818026C
:101DB000E869C7F81001286AC7F81401686AC7F80B
:101DC00018012869C7F8E0016869C7F8E401A86943
:101DD000C7F8E801284606F0BDF86E6F306BC7F80B
:101DE0000801706BC7F80802B06BC7F82802F06BE7
:101DF000C7F8180346F2D450316CC4F23400416085
:101E0000716C416440F21011C7F609510160016420
:101E10000B204EF20751C0F2D000C5F2F771C7F89F
:101E20001403C7F804110020A061D5E91B01C4E91F
:101E300004013046214606F0ADF806F108002146BF
:101E400006F0A8F806F11000214606F0A3F806F106
:101E50001800214606F09EF806F12000214606F003
:101E600099F806F12800214606F094F844F644104B
:101E70000322C4F650502060E068396841F4807154
:101E800039600121C8F80010417B002908BF0122F8
:101E90007A60407BD7F82012C1F3806181421CBF79
:101EA000D8F800100229F5D10220C8F8000095F8F2
:101EB0003700A96B95F83C200023C003C7F6FF73D9
:101EC00061F3154062F39750C7F8200395F844106A
:101ED000286CAA6C6FF31F3003EA024240EAC1305B
:101EE0001043C7F82803D5E913016FF35F3061F39E
:101EF0001C40C7F82C0395F85800E96D6A6D03EA99
:101F000001416FF31F3242EAC0300843C7F8300383
:101F1000D5E918016FF35F3061F31C40C7F8340353
:101F2000A86E43F6FC7101EA8000C7F80403A069BB
:101F3000062100916169039150B10DF1100C90E8F8
:101F40008E008CE88E009DE88E0080E88E0000E018
:101F5000684621698847A06910B104AF8ECF8EC052
:101F6000002008B0BDE8F08110B588B00446806953
:101F70004FF0070100916169039150B10DF1100E0E
:101F800090E80E108EE80E109DE80E1080E80E10FE
:101F900000E0684621698847A06928B10DF1100C5E
:101FA0009CE80E1080E80E1046F200404FF61041FB
:101FB000C4F23400CFF6FF714258D2071DD1415808
:101FC000C9061AD4E1680A7A4B7A897A120242EA7F
:101FD000432242EA81210131016040F6F811C2F248
:101FE000002100BF0269120703D40A780AB92FF052
:101FF00007C801200870002000E0082008B010BDCC
:102000004FF6F05046F22022CFF6FF70C4F23402B1
:102010001058086010684860002053688B60936017
:10202000704780B505F0F0FF002080BD10B511F0BD
:10203000020C024606D0107900285FEA1F904FEA92
:10204000007E01E04FF0000E137950794CEA030C4A
:1020500001F0010343EA00040028704608BF40F085
:102060008070002B936850EA1E8E43EA010046F20E
:102070000C139060C4F23403BCF1000F5FEA0F91BF
:10208000002054711171C3F800E010BD70B511F05B
:102090000203024601D1002001E010794007002B25
:1020A00053795FEA1F9C11F0010E157906465FEA2D
:1020B0001F94002B18BF46F00076BEF1000F50EAC7
:1020C0000680002B5FEA0F93002D5FEA0F962340F6
:1020D00053710CEA060346F20C16C4F2340613716F
:1020E00030600020936823EA0101916070BD000018
:1020F0002DE9F04F81B00A784FF0010C40F21F2318
:1021000004460CFA02F748F200001F42C4F2350000
:102110005FEA0F9300EB0220A27820621801207082
:10212000886B606222F00300D1E90F38421CA27074
:102130004A680D46002AE362E1614FF00002A262A4
:1021400002D140F00200A0704EF20019E96ACEF20E
:1021500000094A0909F1800001F01F034CF2003A1E
:1021600095F828B00CFA03F340F82230C4F2000AC4
:1021700001F00F03BFF34F8FBFF36F8F5AF8212089
:102180001F1F09F540734EF6185E22F480324AF89C
:102190002120CEF2000E5E185AF82120002948BFF7
:1021A00007EB0E064FEA0B1240F6042B3270C2F218
:1021B000002B6A6902F01F062F7C4BF82140510961
:1021C0000CFA06F6002A40F8216002F00F06BFF371
:1021D0004F8FBFF36F8F5AF8221021F480314AF8E5
:1021E0002210A6F1040103EB020648BF01EB0E0624
:1021F0005AF8221039013170E9694BF822404A0936
:1022000001F01F072E7E0CFA07F740F8227001F04C
:102210000F07BFF34F8FBFF36F8F5AF821200029AC
:1022200022F480324AF82120A7F1040203EB0107CF
:1022300048BF02EB0E075AF8212032013A706A6A51
:102240004BF82140510902F01F0795F820600CFA65
:1022500007F740F8217002F00F01BFF34F8FBFF373
:102260006F8F5AF82200043920F480304AF8220097
:1022700013445AF82200002A48BF01EB0E03300134
:1022800018704BF82240EFF310868CF310882878F2
:102290004FF0004121FA00F043F20401C4F22001A2
:1022A0000A6822EA00000860086896200121FEF70B
:1022B0009AFC86F310884FF48061206A4FF44073D3
:1022C0008160286C6968EA6803EA0121D0E900C7E7
:1022D00062F38E31C66907F0010306F001020CF0CB
:1022E000030741EAC333266A43EA4252237842EAAB
:1022F000076241F20007C0F21007C168002B08BF57
:102300004FF480573A447261026822F00103022BB5
:1023100007D14FF60471022ACFF6007108BF2031B1
:1023200000E00968226A4FF4407711618169AB6867
:10233000826801F00301022B02F0010208BF4FF492
:102340008077002B18BF3944236A41EA027130318B
:10235000D9600021226A91612278B2B1226A48F2E2
:102360000003C0F280035362E2692378276A126C8B
:10237000013B12697E6A1A4003F00F0302F00F025C
:1023800046EA036343EA02427A6290F82520036A30
:1023900090F8240003F0010302F01F0260F30C2305
:1023A000206A43EA024202631022206AC4E905114E
:1023B000C4E90311C9F60752D8F81410A160826667
:1023C0000120216A0867E1694A6953095AF8221015
:1023D00021F480314AF822105AF8221009F5C07110
:1023E00002F01F02BFF35F8F00FA02F241F82320D0
:1023F00049F82320E269D26A5AF8223023F4803364
:102400004AF822305AF82230530902F01F02BFF373
:102410005F8F00FA02F241F8232049F82320E26995
:10242000D2695AF8223023F480334AF822305AF81D
:102430002230530902F01F02BFF35F8F00FA02F24D
:1024400041F8232049F82320E269526A5AF82230E1
:1024500023F480334AF822305AF82230530902F02C
:102460001F02BFF35F8F904041F8230049F823001B
:1024700040F21141206AC0F201018160206A00BF70
:10248000017FC907FCD044F642110020C5F2433158
:10249000616001B0BDE8F08F00F0AEF8FEF7D9FA48
:1024A000FEE70000B0B5044600680121A26890472D
:1024B000206998B10FF0A2F9054600BF2068216994
:1024C000884758B90FF09AF9E169401B88420CD847
:1024D000A0696169013040088847EFE7A069616938
:1024E0000130400888470020B0BD6FF07400B0BDD7
:1024F00010B505F079FC0FA00CF0D3FD002449F6CF
:10250000C620C6F6C004C0F201204FF0E8621023D6
:1025100021460CF0C6FD0CA00CF0C3FD41F2C0003A
:102520000BA1C2F200204FF0E86322460CF0F0FF4E
:10253000002010BD1B5B306D5B442F6472765F73AF
:102540006472616D5D2000001B5B306D0A0000004D
:10255000736472616D00000080B50CF068FD0FF0CF
:1025600053F9BDE880400CF085BD4EF22401C4F261
:1025700001018878097801F00F010A2911D0092991
:102580001DD0082929D141F21021C2F2002151F8B1
:1025900020004AF6AB21CAF6AA21A0FB0101480897
:1025A00022E041F21021C2F2002151F820004AF647
:1025B000AB21CAF6AA21A0FB0101C80814E041F230
:1025C0001021C2F2002151F820004AF6AB21CAF6D0
:1025D000AA21A0FB0101880806E041F21022C2F204
:1025E000002252F82000C84040F27841C2F2002197
:1025F00008607047000000002DE9F04184B04EF6FD
:10260000085440F20120CEF20004C0F20E0040F265
:1026100000070026E0604FF47000BFF34F8FBFF358
:102620006F8FC4F880000020C0F200272760FEF7FB
:10263000FCFA01F0BDFA01200125FEF7F6FA386830
:1026400040F6F851A0F5005080F30A8840F2184097
:10265000C0F20001C2F20020FEF7B8F840F200001C
:102660004AF28C7140F21442C2F20020C0F2012101
:10267000C0F20002FEF746F84AF6A0334AF6A0314F
:10268000C0F20123C0F201214AF6A0384AF6A03078
:10269000C91AC0F20128C0F2012040F20007C9089F
:1026A000C0F20007A0EB080C41F009C000BF00BF5A
:1026B000F3E80201E7E802010FF007C040F2000171
:1026C00040F20003C2F20001C2F2000340F2000730
:1026D0004FEADC02C2F20007581A42F007C800BFF6
:1026E000F8E80223E7E802230FF007C0C0083746E6
:1026F00040F007C000BF00BFE1E802670FF005C06F
:10270000BFF34F8F40F2C01840F2C010BFF36F8F7D
:10271000C4F84862C0F20028C0F20020BFF34F8F17
:10272000A0EB0800BFF36F8F8110012908DB47463B
:10273000C8BF851057F8040B40448047013DF9D1CC
:10274000FFF713FFFEF7C2F90320FEF7FEF94FF083
:10275000100E40F63050C4F2400000BF20F8046B69
:102760000FF005C00320FEF717FA41F2402241F2B4
:102770004020C2F20022C2F200200121203A61F37F
:102780000400009061F30402019242F6002042F638
:102790000022C6F61200C6F6120261F3040002908F
:1027A000A2F120004FF0020E61F304000390D4F870
:1027B000B800442161F30700C4F8B800002268465D
:1027C000202100BF00EBC20350F832705B6801EBC0
:1027D0005316B6EB571F05D9C4F89020C4F894706F
:1027E000C4F8983001220FF013C8BFF35F8F0520A3
:1027F000C4F88C00E06940F48030E061BFF34F8F93
:10280000BFF36F8FE068C0032AD40020E067BFF3F6
:102810004F8FA16FC1F34E30C1F3C902C908531CD9
:102820008E0743F6E07200BF43F001E002EA401772
:10283000314600BF41EA070501F14041C4F8585252
:102840000FF009C00028A0F10100EDD1BFF34F8FB8
:10285000E06840F48030E060BFF34F8FBFF36F8FCC
:102860004EF21014C4F20104D4F8C80210B1D4F826
:10287000C80213E0207888B10120FEF766F900BF96
:10288000207800F0C0008028FAD10020207000BF1E
:1028900020783F28FCD80120FEF77EF90220FEF7C1
:1028A000C4F901F077FA002004B0BDE8F04101F06E
:1028B0006FBA80B582B00EF08DFDC06A01900198AC
:1028C00080F30B8802B080BD4EF60C500422CEF28D
:1028D0000000C0F2FA52BFF34F8F016801F4E061CB
:1028E00011430160BFF34F8F00BFFDE790FAA0F1E5
:1028F0000028B1FA81F150EA01907047B0B5054661
:102900000EF068FD90B1044609A00CF0CAFB0DA0C2
:1029100021462A460CF0C5FB0FA00CF0C2FB01219A
:1029200000222046BDE8B0400EF00CBBB0BD00BF99
:102930001B5B33336D5B572F7374646C69625D206E
:10294000000000007468726561643A257320657840
:1029500069743A25642100001B5B306D0A00000099
:1029600070B54EF22003C4F20103D3F800E01B79E6
:102970004EEA030C03F00F035FEA0C720EF00F0C2B
:1029800008D440F27842C2F2002212689A4022FA39
:102990000CF219E003F00702032404FA02F2012505
:1029A000082B0EF0070638BF05FA03F240F2784311
:1029B000B440C2F200231B685A435FEA0E7358BF4B
:1029C00005FA0CF4B2FBF4F24CF60023C240C3F655
:1029D0009A33A1FB03C100236046FDF729FD70BDBA
:1029E00070B54EF22003C4F20103D3F800E01B7966
:1029F0004EEA030C03F00F035FEA0C720EF00F0CAB
:102A000008D440F27842C2F2002212689A4022FAB8
:102A10000CF219E003F00702032404FA02F2012584
:102A2000082B0EF0070638BF05FA03F240F2784390
:102A3000B440C2F200231B685A435FEA0E7358BFCA
:102A400005FA0CF4B2FBF4F222FA00F04CF6002284
:102A5000A0FB0101C3F69A320023FDF7E9FC70BD2B
:102A6000F0B581B00C4605460CF0DAFBC8B907207A
:102A70000DF096F8064628B90BA011A140F21532C8
:102A80000AF08AFF56F8047FB74209D0A7F1100078
:102A9000A84203D021460CF0C3FB10B93F68F3E70E
:102AA000002001B0F0BD00BF696E666F726D617489
:102AB000696F6E20213D2052545F4E554C4C0000F2
:102AC0005F6D656D686561705F616C6C6F63000060
:102AD0000CF048BCB0B5022803DCBDE8B04000F003
:102AE00001B905460C46496858A00EF0F9F8D8B16E
:102AF000616857A00EF0F4F818B3616856A00EF0A4
:102B0000EFF850B3616856A00EF0EAF80028E4D15F
:102B1000032DE2D9A06808F0A3FE0028A06860D0C9
:102B2000FDF7FEFC054662E0A0680DF0DFF8B0F1AD
:102B3000FF3FA16874DD024667A0BDE8B0400CF01D
:102B4000B0BA032DC9D9A06808F08AFE0028A06891
:102B500020D0FDF7E5FC054622E0A06808F080FEE5
:102B60000028A06803D0FDF7DBFC054605E00DF06A
:102B7000BDF80546B0F1FF3F51DD28460DF0F8F8ED
:102B8000012801D141A000E03CA02946BDE8B040A9
:102B90000CF087BA0DF0AAF80546B0F1FF3F3EDD14
:102BA000E1683EA00EF09CF8B8B1E1683DA00EF0DF
:102BB00097F8A0B1E1683DA00EF092F8E8B3E168A3
:102BC0003EA00EF08DF8D0B3E16840A00EF088F87A
:102BD00000287FF482AF042132E0002130E001219F
:102BE0002EE00DF083F80546B0F1FF3F17DDE168F8
:102BF0001DA00EF075F8D0B1E1681DA00EF070F8C0
:102C0000A8B1E1681BA00EF06BF830B1E1681AA022
:102C10000EF066F800287FF460AF002108E0A1689C
:102C200049F2AB10C0F201200CF03BFA55E701214C
:102C30002846BDE8B0400DF0BBB8022100E00321FA
:102C40002846BDE8B0400DF071B800BF6E756D004C
:102C50006D6F646500000000726561640000000033
:102C60007772697465000000686967680000000099
:102C70006F6E00006C6F77006F66660070696E5B48
:102C800025645D203D206C6F770A000070696E5BE3
:102C900025645D203D20686967680A006F7574705F
:102CA00075740000696E707574000000696E70754F
:102CB000745F70756C6C757000000000696E7075E3
:102CC000745F70756C6C646F776E00006F757470F4
:102CD00075745F6F640000002573203A2025640A34
:102CE0000000000080B549F2C410C0F201200CF0D1
:102CF000D8F949F25920C0F201200CF0D2F949F27A
:102D0000D710C0F201200CF0CCF949F2CE20C0F26D
:102D100001200CF0C6F949F22A20C0F201200CF083
:102D2000C0F90BA00CF0BDF949F28A20C0F20120D5
:102D30000CF0B7F910A00CF0B4F91BA00CF0B1F92D
:102D400021A00CF0AEF923A0BDE880400CF0CEBF6E
:102D5000202020202020202020202020202020652E
:102D60002E672E204D5348203E70696E207265619B
:102D700064204750494F0A00202020202020202096
:102D800020202020202020652E672E204D53482013
:102D90003E70696E207772697465204750494F20F4
:102DA000686967680A000000202020202068656CA0
:102DB000703A2020202020746869732068656C7048
:102DC000206C6973740A00004750494F20652E67D4
:102DD0002E3A000020000000B0B50446154638B970
:102DE00049F2FD2008A1C0F2012037220AF0D4FDEB
:102DF0003DB1A06C2A7929680368204698470020D5
:102E0000B0BD6FF0FE00B0BD5F70696E5F636F6E46
:102E100074726F6C0000000070B505461E461446C3
:102E200038B949F2FD200AA1C0F2012016220AF0A9
:102E3000B3FD4FF000004CB1082E18BF70BDA86C58
:102E400021688268284690472071082070BD00BF25
:102E50005F70696E5F7265616400000070B5044662
:102E60001E46154638B949F2FD200AA1C0F20120DC
:102E700026220AF091FD4FF000004DB1082E18BF38
:102E800070BDA06C2A7929684368204698470820BD
:102E900070BD00BF5F70696E5F7772697465000016
:102EA00041F60563994205D041F60463994205D184
:102EB000012000E00020506100207047836C1B68F7
:102EC000002BF9D018472DE9F04186B06D460F462A
:102ED0000646281D14211C469046FDF777FC002F5E
:102EE00000D57F42B06C0097036853B16A4641F643
:102EF00003613046984708B1002402E00298C8F800
:102F00000000204606B0BDE8F0812DE9F04186B012
:102F10006E460F460546301D14211C469046FDF7AF
:102F200055FC002F00D57F42A86C009703688BB139
:102F30006A4641F603612846984750B9A86CD8F80C
:102F4000001002916A46036841F6026128469847DC
:102F500000B10024204606B0BDE8F0812DE9F04F15
:102F600081B090468B46044600910BF02BFC07463F
:102F7000FDF7AEF981460AF00AFF98B149F6B77538
:102F800049F60470C0F20125C0F2012029460CF078
:102F900088F849F2881040F29F42C0F20120294689
:102FA0000AF0FAFC012F13D149F6B77549F6DF6034
:102FB000C0F20125C0F2012029460CF072F849F256
:102FC000881040F29F42C0F2012029460AF0E4FC3A
:102FD000FDF77EF907460EF0FDF998B949F6B77589
:102FE00049F22110C0F20125C0F2012029460CF05F
:102FF00058F849F2881040F29F42C0F20120294659
:103000000AF0CAFCFDF764F905460CF027F898B100
:1030100049F6B77649F2FA00C0F20126C0F2012063
:1030200031460CF03EF849F2881040F29F42C0F25F
:10303000012031460AF0B0FC2846FDF74DF938462C
:10304000FDF74AF94846FDF747F95CB949F676704D
:1030500049F6B771C0F20120C0F2012140F2A2424C
:103060000AF09AFC20460CF0ABFD03280BD04AF284
:10307000370049F6B771C0F20120C0F2012140F2D9
:10308000A3420AF089FC0EF0A5F90646FDF720F9E7
:1030900040F6AC618246C2F20021096809B12046BF
:1030A0008847606A0021B042716311D0D0B1BBF192
:1030B000000F4CD096F83800657B96F839904007A1
:1030C0002ED4304641460EF0E7FA48B3074641E0B9
:1030D00094F82200FF281FD15046FDF7FDF86FF04D
:1030E00022078BE094F82010666240F2FF10A4F8EB
:1030F0002100FF2907D096F83900814203D23046DB
:10310000424600F09DFC214656F8400F41F8280F3A
:10311000416031604E6065E0013084F8220061E07A
:1031200004F11807D5B1012D20D138460068B84206
:1031300014D090F8211096F839208A42F6D24168CE
:1031400006F11802F16142600A60B06119E06FF0A7
:10315000740777635046FDF7BFF84FE0E06906F16A
:103160001801F061E1610160B7610AE049F288107D
:1031700049F69871C0F20120C0F20121B6220AF08E
:103180000BFC94F82100B46481450AD2606A84F88B
:10319000219090F83910894503D20222494600F067
:1031A0004FFCBBF1010F09DB06F15C056A4600210B
:1031B00028460EF0C1FB28460EF0D8FC5046FDF71D
:1031C0008BF80CF08DFFFDF783F8716B824649B1E7
:1031D000606AB8B196F8391090F839208A425FEAEF
:1031E0000F9110E05046FDF777F840F6A860C2F264
:1031F0000020016809B1204688470027384601B001
:10320000BDE8F08F01213A68BA4202D092F821203D
:1032100000E0FF2284F82120D1B9024652F8403F55
:1032200012F8061C93420CD013F8087CC9B213F8AC
:10323000075C1B68BD4255EA3787B94251EA3781BE
:10324000F0E790F83920914202D0022200F0F8FB1A
:103250005046FDF741F8706B0021B16480EAE072DE
:10326000C2EBE077CAE700002DE9F04782B00446E0
:1032700090460E46019158B949F6677049F6AA7111
:10328000C0F20120C0F2012140F2FD120AF084FBDD
:1032900020460CF095FC02280BD049F6C67049F682
:1032A000AA71C0F20120C0F201214FF4FF720AF0AE
:1032B00073FB40F6AC60C2F20020016809B1204601
:1032C0008847208C002871D1002E6FD00BF07AFA3D
:1032D0000546FCF7FDFF81460AF059FD98B149F615
:1032E000AA7749F60470C0F20127C0F201203946DE
:1032F0000BF0D7FE49F2881040F20322C0F2012001
:1033000039460AF049FB012D13D149F6AA7549F651
:10331000DF60C0F20125C0F2012029460BF0C1FE9A
:1033200049F2881040F20322C0F2012029460AF037
:1033300033FBFCF7CDFF82460EF04CF898B949F606
:10334000AA7749F22110C0F20127C0F201203946C4
:103350000BF0A7FE49F2881040F20322C0F20120D0
:1033600039460AF019FBFCF7B3FF07460BF076FE6F
:1033700098B149F6AA7549F2FA00C0F20125C0F2E7
:10338000012029460BF08DFE49F2881040F20322FD
:10339000C0F2012029460AF0FFFA3846FCF79CFFEC
:1033A0005046FCF799FF4846FCF796FFFCF790FF64
:1033B000218C074689B1481E20843846FCF78CFFD3
:1033C00040F6A860C2F20020016809B12046884793
:1033D0000025284602B0BDE8F08786B30DF0FAFF5D
:1033E000064690F8380094F80D9040076FF00A00F8
:1033F000706309D4304641460EF04EF920B10546BF
:103400003846FCF769FFE4E7B9F1000F04F1180052
:103410001BD0B9F1010F20D1014600BF09688142DC
:1034200013D091F8212096F839309342F6D24868AB
:1034300006F11802F0614A600260B16118E0384696
:10344000FCF74AFF6FF07405C3E7E16906F1180263
:10345000F161E2610A60B0610AE049F2881049F660
:103460009871C0F20120C0F20121B6220AF094FA4C
:103470000198012809DB06F15C0501AA0021284614
:103480000EF05AFA28460EF071FB3846FCF724FF7E
:103490000CF026FE756B002D9BD191E72DE9F041D4
:1034A00006461C46904658B948F68B7049F6A62148
:1034B000C0F20120C0F2012140F28F120AF06CFA32
:1034C000BCB316B1B8F1000F0BD149F6371049F66D
:1034D000A621C0F20120C0F201214FF4CA720AF005
:1034E0005BFAF08BB76DC00432D5354635F8510F15
:1034F000A97840EA0140C0F38F00A0421CD249F6EF
:103500002610C0F201200BF0CCFDA87822462988B5
:1035100041EA00403146C0F38F0349F60520C0F26E
:1035200001200BF0BEFD48F69050C0F201200BF0D8
:10353000B8FD0020BDE8F08138460CF0BDFCA0428B
:1035400006D207F110004FF0FF31BC830AF0C4FA35
:10355000FCF7BEFE06463846414622460CF0CAFC41
:1035600004463046FCF7B8FE2046BDE8F081000076
:103570002DE9F04F81B0DBB31D469146834618B16B
:10358000B9F1000F18D10BE048F68B7049F6AE1177
:10359000C0F20120C0F2012140F2FF120AF0FCF952
:1035A00049F6371049F6AE11C0F20120C0F20121F0
:1035B00040F201220AF0F0F9DBF85C80B8F1000F6C
:1035C0000BD149F6871049F6AE11C0F20120C0F2C6
:1035D00001214FF401720AF0DFF90DF0FBFE48B152
:1035E000BBF81E00400605D4D8F8140001280AD103
:1035F000002504E058464A462B4600F015F92846B7
:1036000001B0BDE8F08F08F1180A00260120C8F8C3
:103610001400009509EB0604404621462A460CF0AA
:10362000DBFCDBF848100246C8F810004FF480437A
:103630000F6958462146B847D8F810004FF0FF31BF
:1036400006442D1A50460AF047FA0DB12FF01FC05C
:10365000009D0020C8F81400D1E7F0B581B0054600
:103660001C46164658B948F68B7049F6CB11C0F285
:103670000120C0F201214FF4E6720AF08DF924B363
:1036800005B15EB949F6371049F6CB11C0F20120F9
:10369000C0F201214FF4E8720AF07EF9EF6D5FB9D4
:1036A00049F6871049F6CB11C0F20120C0F2012182
:1036B0004FF4E9720AF070F90DF08CFE38B1E88B26
:1036C000400604D47869012809D1002404E0284682
:1036D0003246234600F0A8F8204601B0F0BDA86CA1
:1036E000012179614FF48043D0F810C0284631465B
:1036F0002246E047044607F118004FF0FF310AF078
:10370000EBF9E9E72DE9F04182B004461D46164683
:1037100058B948F68B7049F6E911C0F20120C0F2A1
:1037200001214FF40F720AF037F9F5B104B15EB917
:1037300049F6371049F6E911C0F20120C0F2012123
:103740004FF410720AF028F9E76DFCF7C1FD7969B2
:10375000804661B1384631462A460CF03DFC0446AD
:103760004046FCF7B9FD20461CE000201AE001208D
:103770007861384631462A460CF02EFC0546404614
:10378000FCF7AAFD0020019001A938460CF098FF33
:10379000A16C024638614FF400430F69019920463D
:1037A000B847284602B0BDE8F0810000F0B581B00E
:1037B00005461C461646A8B949F6962748F68B706A
:1037C000C0F20127C0F2012040F2351239460AF05A
:1037D000E3F849F662104FF49C72C0F201203946BA
:1037E0000AF0DAF8CCB12746A86CC16828468847A9
:1037F000411C14D006F8010BE98B11F0400F5FEA71
:103800001F910A285FEA0F9008430128A7F10100E1
:1038100006D1012F0746E7D102E0002000E038463C
:10382000201A01B0F0BD0000F0B581B004461D467D
:103830001646A8B949F6B62748F68B70C0F201279C
:10384000C0F201204FF4B17239460AF0A5F849F6EA
:10385000621040F26512C0F2012039460AF09CF86D
:103860009DB12F46E08B400607D530780A2804D159
:10387000A06C0D21826820469047A06C16F8011BB1
:10388000826820469047013FECD1284601B0F0BD48
:1038900080B5FFF733F800BFFEE7B0B540F6F8504B
:1038A000C2F200200468FCF713FD054620460CF028
:1038B0003FFD04F15C000EF0B5F8012084F83800FB
:1038C00020460DF0D7FB2846FCF706FDBDE8B040CA
:1038D0000CF006BC70B582B004469C46089D1830BA
:1038E000DDE90636C4E9060004F12400236380E81C
:1038F0000610232160461A460BF082FED4E90B1213
:1039000043F69B030A44606AA16A043AC0F20023AA
:103910000BF006FA202E206204D319A021A1C622A2
:103920000AF03AF843F6B51284F83A6084F8396040
:10393000002104F14000C4E90F10C4E9110104F1B1
:103940005C00E16484F85010C4E91555C0F200220F
:10395000616384F83810C4E923112346CDE90011CE
:1039600021460EF0B9F840F6BC60C2F200200168B2
:1039700021B1204602B0BDE87040084702B070BDDA
:103980007072696F72697479203C2052545F544898
:10399000524541445F5052494F524954595F4D413D
:1039A000580000005F7468726561645F696E6974D5
:1039B00000000000B0B5044650B94AF2E1104AF2E6
:1039C0002431C0F20120C0F201218B2209F0E4FF72
:1039D00094F8380040070AD44AF20E204AF2243103
:1039E000C0F20120C0F201218C2209F0D5FF20464F
:1039F0000CF0E6F801280AD04AF250204AF22431AD
:103A0000C0F20120C0F201218D2209F0C5FFFCF7B0
:103A10005FFC2146E36905466FF0740051F8182FEA
:103A2000606320465360E369E1611A6009600CF04D
:103A30002BFC2846FCF750FCBDE8B0400CF050BB16
:103A40002DE9F04F81B014468DF803100DF10302FB
:103A5000022105460DF076FA10B101B0BDE8F08FF5
:103A60004FF0FF0B0DF1020A95F838004007F4D52E
:103A7000AF6C002FF1D038460CF0A2F80328ECD13F
:103A80002E4697F80D908DF802B056F8180F716811
:103A900096F820204160716808605007C6E900660A
:103AA00005D4284621460DF0F7FD0028D5D1B9F1FF
:103AB000000F07F1180813D0B9F1010F404617D1D4
:103AC000006840450CD090F8211095F839208A42C2
:103AD000F6D24168E96146600E60A86113E000BF5C
:103AE000F869E861FE610660C5F818800BE000BF68
:103AF00049F2881049F69871B622C0F20120C0F24E
:103B0000012109F049FFD8F80000404502D090F8A3
:103B1000210000E0FF207D6A87F82100294695F802
:103B20003A0051F8402F00BF8A420DD012F8083CED
:103B3000C0B212F8077C12689F4257EA338398425A
:103B400050EA3380F0E700BF95F839108DF8020095
:103B500088423FF482AF0221284652460DF0F2F926
:103B600000283FF481AF78E740F258544FF6FE75D5
:103B7000C2F20024C7F6FF75FCF7AAFB2168A14238
:103B80000AD04E69FCF7A8FB0DF038FE301AA842A7
:103B90000BD80DF07AFA08E0FCF79EFB0DF01AFC4A
:103BA00002210DF079FD0CF09BFA0DF019F8E3E716
:103BB0002DE9F0414EF2FA384CF20016C4F2010839
:103BC000C4F201064AF20350A8F800000120B080B8
:103BD000B08808B12FF005C069A043F600024EF688
:103BE0000147012190ED001F41F210203180C2F207
:103BF00000204EF600444EF220054FF40041C1F67D
:103C00009C42C0E9041241F60041C4F20107C4F22B
:103C1000010480ED001FC4F20105C0F64E61C0E949
:103C20000712FEF7A2FC4FF650601621CFF6FF7088
:103C30002154092085F88200207818B93878800747
:103C400000F09880207840B901202070C820012120
:103C5000FCF7C9FF20780128FCD1002038702070C3
:103C60000020A874287F0007FCD54FF43C50288121
:103C700040F23110A8850020A87200BF287F80067E
:103C8000FCD542F232370420C3F2121730772F608E
:103C900001242C710526AE71FEF767FC96200121E8
:103CA000FCF7A1FF002028712F60FEF75EFC962034
:103CB0000121FCF798FFAE71FEF757FC2C7485F8D4
:103CC000324085F8334095F8540040F0400085F8C4
:103CD000540000BF95F95400B0F1FF3FFADC062014
:103CE00085F84C00472085F85400072085F85400DB
:103CF00095F954000028FBD495F8350040F04000B9
:103D000085F8350095F93500B0F1FF3FFADC022067
:103D100085F83400C52085F8350095F8350000F0A9
:103D2000BF0085F8350000BF95F935000028FBD4A9
:103D300095F83F0040F0400085F83F0095F93F00BE
:103D4000B0F1FF3FFADC012085F83E00C52085F880
:103D50003F0095F83F0000F0BF0085F83F0000BF2E
:103D600095F93F000028FBD44FF42540A8F8000047
:103D7000BDE8F0814FF47A70FCF756FF70E700BFA2
:103D8000006CDC0200127A0000800000002D31017E
:103D90007047000080B54FF0600E4CF2003047F6DF
:103DA0002871C4F20000C0F2012100BF0A6802B10C
:103DB0000260043004310FF007C880BD000000002D
:103DC00001380028FCD170472DE9F04F81B004463E
:103DD000008800285DD04EF64C4B0025C4F2010B44
:103DE0004FF0010A42F2400800272BA6C4F2200837
:103DF0006068326800EBC501496891423ED150F8D5
:103E000035009BF8001000F0B8500AFA07F9B0F13D
:103E1000807F09EA010015D158B90120FCF795FE11
:103E20009BF8000040EA09008BF800000120FCF735
:103E3000B3FE98F90000002820D498F8000040F064
:103E4000800015E058B10120FCF77FFE9BF80000D0
:103E500020EA09008BF800000120FCF79DFE98F98C
:103E60000000B0F1FF3F09DC98F8000000F07F008F
:103E700088F80000C8200121FCF7B5FE013708F1E1
:103E80000208032F06F10406B2D1208801358542CD
:103E9000A8D301B0BDE8F08F0204000003040000C5
:103EA000040400002DE9F0411E4615460C46074665
:103EB000DDF818800EF061FAC6F30011C84007F073
:103EC0000F010A2918BF0821B0FBF1F006F00F011D
:103ED000052906D8DFE801F01803050D0F17400883
:103EE00012E04AF6AB21CAF6AA21A0FB010148085C
:103EF0000AE0800808E04AF6AB21CAF6AA21A0FB36
:103F00000101880800E0C00868432109B0FBF1F016
:103F1000C8F30111DFE801F0090205084008BDE817
:103F2000F0818008BDE8F081C008BDE8F08140F66E
:103F3000883C0123C2F2002CC0F20453426ABCF850
:103F400000009A4209D00123C0F602039A4204D02D
:103F50000023C0F206639A4214D1B1F5A06F05D8D0
:103F6000082202EB4102824252EA8080B1F5207FB2
:103F700040F2A24198BFA03080B2884250EA8180CE
:103F8000FC307047B1F5207FEAD8EFE710B586B076
:103F900048F274004CF2C023C4F23400C4F20003AF
:103FA0000268D143016040F2FC71EFF3038001EA43
:103FB000800040F60421C2F200210144C45824F4D8
:103FC0008034C450C05851F8404C6169F1B1D4E913
:103FD000060E2369D4F808C002EA03020092CDE974
:103FE00001CE60B1D0E90012CDE903129DE80E00C8
:103FF00001608168C0E901230591616900E06846BC
:104000008847A06910B103AB0ECB0EC006B010BD3F
:1040100080B502A00BF045F8002080BD1B5B324A42
:104020001B5B480080B506F025FB002080BD00002A
:1040300080B5022813D140F2C8020220C2F2002249
:1040400007F0A4FA0138092809D8DFE800F00516BE
:10405000191C1F2225282B2E06F08CFE0BE014A025
:104060000BF01FF818A00BF01CF840F2C800C2F2C9
:10407000002007F0A7FC002080BD06F0CFFDFAE786
:1040800006F006FDF7E706F05DF9F4E706F03AFA08
:10409000F1E706F04FFCEEE706F0ECFAEBE706F08E
:1040A00089FBE8E706F0B4F8E5E706F071FFE2E720
:1040B00055736167653A206C697374205B6F707427
:1040C000696F6E735D0A00005B6F7074696F6E7369
:1040D0005D3A0A0080B506F04DFE002080BD07F075
:1040E00042B8104607F03FB802F01F001844B0F184
:1040F000200158BF0021012B16DB80B5C9430844BD
:104100000121BFF34F8F01EB501E4EF67070CEF2BF
:10411000000000BF026020320FF005C0BFF34F8FD8
:10412000BFF36F8FBDE880400120704710B500F0ED
:10413000C9F8EFF31084012080F3108843F20800DF
:10414000C4F22000016841F040010160006896203F
:104150000121FCF748FD84F31088012010BD80B5D3
:10416000084611461A46FCF788FA012080BD01294D
:104170005FEA1F900A295FEA1F910843704704F025
:104180001BBB104604F018BB0A2908D0012909D12D
:1041900044F20000C4F2340000EB820000E004307E
:1041A000006870470020704744F2C00246F2362192
:1041B000C4F23402C0F201212E2313604EF2001229
:1041C0000978CEF20002090182F80C1340F60421AE
:1041D000C2F2002108634CF23030C4F200000168E2
:1041E00021F4803101600068BFF35F8F4FF480508D
:1041F000C2F88001106001207047084670470846E9
:1042000070470120704770B540F61C0443F2080562
:10421000C2F20024C4F22005012001216060EFF306
:10422000108680F31088286820F0400028602868F5
:104230009620FCF7D8FC86F310882046FFF7B4FFE1
:1042400080B90120EFF3108480F3108801212868E1
:1042500040F04000286028689620FCF7C4FC84F3F6
:1042600010880024204670BD0120704740F63811A8
:10427000C2F20021086800BF28B922B1501C0868AA
:1042800018BF013AF8E70868002200285FEA0F909B
:104290000A6070470A2913D0012918BF704744F2F9
:1042A000000C322AC4F2340C07D1416829B153F80A
:1042B000041BCCF8C810036070474CF822307047DC
:1042C000436070474EF280104FF48051CEF20000F0
:1042D0002C22016044F2C001BFF34F8FBFF36F8FF8
:1042E000C4F2340101200A607047F0B581B0B1F921
:1042F00036700C46B1F934001546266B411EB942A2
:1043000014DC80B201221030A08601B28800314650
:1043100001F02EFEB4F93410064620638F4205DA10
:10432000C91B06EB87008900FCF750FA06EB8700F3
:1043300046F82750791CE18601B0F0BDF0B581B098
:104340000646856914200F4600F078FF04460028D1
:104350004FF000002AD0C4E9027007EB870196F8FD
:1043600068008900C00703D1304600F044FF02E036
:10437000084600F063FF01466060A0B10027276196
:1043800096F86800C00717D1D6F88400C2060FD48B
:10439000800711D5A068042100EB80008200284628
:1043A000FFF79FFE07E0204600F001FF002404E035
:1043B0002846FFF724FF20612760204601B0F0BDAA
:1043C0002DE9F04F8BB0446A994604F5B6768B46DA
:1043D0000746056B43CE149BDDF86480B0F5006F93
:1043E00009EB0B00A8BF28F00808884203EB020085
:1043F0009246CDF828B0C8BFA1EB090BB042C8BFA8
:10440000A6EB030A002D5FEA0F9018F4807F5FEAA5
:104410001F91D4F8783108920840E17D012803F01B
:104420001006099040D194F80E012970A87094F8F4
:10443000D5006870D4F8FC006860D4F80001A8606A
:10444000D4F82C01E860D4F838012861D4F834019C
:10445000686104F1E800D4F8EC10A961D4F8F01018
:10446000E961D4E93D12C5E9081290FD000F85ED20
:10447000280FD4F8A800D4F82411D4E94F23C5E9B3
:104480000B236963D4F85811A963D4F85C11E9636C
:10449000686594ED261F85ED111FD4E92C01C5E94F
:1044A00017010020069000E006910321384602F033
:1044B000AFFB00210022384602F0E8FB079606BB5E
:1044C000D4F87801CDF8149020F030000F282AD8C5
:1044D000DFE810F010002D003A002D002D002E0115
:1044E0003A002D002D0010001000100010001000E8
:1044F00010001000D4E95A01149A484401FB020943
:104500002FE008F00F013846D4F8686102F0E7FCAC
:10451000D4E95B23D4E95D01CDE900013846314699
:1045200002F0C6FB2FE0A0F1410102290AD2D4F823
:104530006C0114994843D4F8681101EB490101EB6F
:1045400040090EE040280AD1D4F86C011499484380
:10455000D4F8681101EB890101EB800901E04FF00B
:10456000000908F00F01384602F0B9FCD4F86C21BC
:10457000D4F87801CDE900A0384649465B4602F000
:1045800097FBDDF814904FEA08604FF07F4101EA95
:10459000E0705FEA886108F0A001159B58BF4FF0FA
:1045A0007F40A03918BF4FF07F415FEAC86208F032
:1045B000400203D432B96FF07F4206E0002AA268BD
:1045C00001D102E0A2681043E268C4F8580194F8EF
:1045D0000E01169E112B41EA0201C4F85C1140F055
:1045E000050084F80E0108D30A9998B20905CE4651
:1045F0009B46B1FBF0F14B0804E09B46CE464FF4DE
:1046000080310023112E4FF0000C09DBDDF820A0D3
:10461000B1464FEA0A52B6B2B2FBF6F6720805E0AE
:10462000B1464FF480360022DDF820A018F4007067
:104630000A9818BFC3EB004351EA01B018F4806137
:1046400018BFC2EB0A4256EA06B15FEA487648BF95
:10465000A3F500435FEA0876DDF85C8048BFA2F569
:104660000042079E002E149E18BF03EB0E4318BF96
:1046700002EB0642189ECDE90020049138464146DF
:104680003246CDE902CC02F00AFC384621464246C9
:104690003346CDE900B902F016F8099800283FD05A
:1046A00028786978E075AA786868C4F8FC00A8687A
:1046B000C4F80001E868C4F82C012869C4F838017E
:1046C0006869C4F8340104F1E80084F80E2184F824
:1046D000D510A969C4F8EC10E969C4F8F010D5E95F
:1046E0000812C4E93D1205F12C0295FD280F80ED5A
:1046F000000F07CA6B6DC4E94F01C4F82421A86BF1
:10470000C4F85801E86BC4F85C01C4F8A83095ED12
:10471000111F84ED261FD5E91701C4E92C0103E020
:104720003846069902F074FA00200BB0BDE8F08F0D
:1047300097F88200800603D4092087F8C601F4E7C1
:104740001020C0F20400C4F82C01012084F8E90014
:10475000D0E60000F0B581B00446006890F868101B
:10476000C9071FD1D4E902678569B7420CD000BFE1
:10477000B8687A68042100EB800083002846FFF7C0
:10478000B3FC3F68B742F3D1B068E169401A726880
:10479000042100EB80008300284601B0BDE8F04012
:1047A000FFF7A2BC01B0F0BDD0F84C11027C437CF5
:1047B000090A6FF07F4C01FB02C201FB03C190F8B4
:1047C0000E3102F07F4201F07F41C0E9542103F035
:1047D000FD0180F80E117047B0B5D0F84C116FF0A4
:1047E0007F4ED0E95625090A4FEA126C2C0E0CFBBD
:1047F00001E304FB01E162F3170390F80E2165F376
:104800001701C0E9583102F0FB0180F80E11B0BD6C
:10481000B0B590F8E8100446D0F8F000CA07A0F14F
:10482000010505D0284601F0FEFA94F8E810054687
:10483000D4F8F4008907A0F1010003D4D4F8EC10F7
:10484000484306E001F0EFFAD4F8EC10484301F0D9
:10485000EAFA6FF3DF2545EAC020C4F83801B0BD9D
:1048600010B5044600F014F80020002184F8C611A9
:1048700010BD10B5B1F934000C46012804DB81B23B
:10488000206B8900FBF7A2FF0020E08610BD00002E
:104890002DE9F04F85B004460D46B0F872A041F204
:1048A000000894F86810B0F87600B4F87460B4F9B1
:1048B0007870C0F24018C906ADF80CA0ADF8100031
:1048C000ADF80E60ADF8127031D4616C03292EDCA6
:1048D000042292FBF1F9216C91FBF9F202FB191110
:1048E00029BBE16B21F003028A4220D1E16C21F067
:1048F00003028A421BD1BAF10F0F18D802B2481E28
:10490000B0EB221F13D1A06C0292072856D8DFE823
:1049100000F00467875787877477280E05F07F417A
:1049200041EA004141EA002040EA156578E020466E
:1049300000F0FEFED4E96E02192300F10801013AED
:10494000C4F8B81103604560C4F8BC2105DCD4F894
:10495000C01120468847D4E96E1201F10800013ADF
:10496000C4F8B8014FF000030B604B60C4F8BC21E1
:1049700005DCD4F8C01120468847D4E96E02616D89
:10498000013A41EA080100F10803C4F8B8314FF0D8
:10499000010303604160C4F8BC2103DCD4F8C011FA
:1049A0002046884703A90022204603F07EF82046CF
:1049B00000F0BEFE002005B0BDE8F08F41282FD1E9
:1049C0004FF470404FF4706100EA1540F02201EAA4
:1049D000153102EA15220844C5F3031110440AE018
:1049E0004FF478404FF4FC6100EA152001EA5511BC
:1049F0000844C5F3C401084410E04FEA35650FE0F0
:104A00004FF4704005F0F00100EA15204FF4706299
:104A100041EA157102EA15120844104400EB004502
:104A2000204600F085FED4E96E12192301F108003A
:104A3000013AC4F8B8010B604D60C4F8BC2105DC34
:104A4000D4F8C01120468847D4E96E0200F108016D
:104A5000013AC4F8B8114FF0000303604360C4F892
:104A6000BC2105DCD4F8C01120468847D4E96E1279
:104A700030B2019002980126A0EB0A0B01F1080068
:104A8000013AC4F8B8014FF0010308F500150B60B6
:104A90004D60C4F8BC2106DCD4F8C011204688471C
:104AA0000126D4E96E02216CDDF8048006EB2B169A
:104AB000A7EB080791FBF9F1013A4FF01F050560DC
:104AC0008BB200F10801C4F8B8114360C4F8BC21EE
:104AD00005DCD4F8C01120468847D4E96E124FF6A1
:104AE000FF703B03013AC4F8BC2123EA0000B6FB87
:104AF000F9F300F5803040EA030001F10803C4F83F
:104B0000B8314FF01E030B60486003DCD4F8C011CD
:104B100020468847606C042819D0022832D001282A
:104B20007FF445AFD4E90F014FEA2817D4E96E238B
:104B300000EB1A1001FB070002F10801C4F8B811DC
:104B40002021C2E90010022BA3F1010033E0216C07
:104B50004FEA28126FF00300514300EA9A00E26B1B
:104B6000D4E96E37104400EB810003F10801C4F86A
:104B7000B81120211960791E5860C4F8BC113FF7A4
:104B800016AF1CE0206C4FEA28114FEA1A12484376
:104B9000E16BD4F8B83101EB4201D4F8BC2101EB50
:104BA000400003F10801C4F8B8112021C3E9001046
:104BB000022AA2F10100C4F8BC01BFF6F8AED4F895
:104BC000C01120468847F2E670B5B0F97630B1F9E9
:104BD00000409C4211DCB0F978E0B1F90220724546
:104BE0000BDCB0F97260B1F904C0B44505DBB0F973
:104BF0007450B1F90600A84201DA002070BDB44239
:104C0000B8BF0E80AA42B8BF4D809C45C8BF8B80FC
:104C100070454FF00100C8BFA1F806E070BD2DE956
:104C2000F0418446DDF818E0C06C21EAE177DCF859
:104C3000504005B226B201389D4253EAC083013C80
:104C400076455EEAC48122EAE2724FEA034EBD4233
:104C50004FEA014857EAC080964252EAC48221EAEC
:104C6000E871000123EAEE73ACF872001001ACF8B1
:104C700074001801ACF876000801ACF87800002048
:104C800000218CF8C611BDE8F0810000B0B50446E3
:104C9000806920B1204600F087F8054600E0002535
:104CA00040F62411C2F20021F9B108460968A14278
:104CB000FAD121680160E1690020206239B100BFAA
:104CC000204600F023FAE16909B12FF007C8E06F30
:104CD00008B100F06CFA206B08B100F068FA00200F
:104CE0002063204600F063FA00E002252846B0BDAC
:104CF0002DE9F04182B08046006890F86810C9073D
:104D000027D1D8E902678569B74214D0002400BFD3
:104D1000386818B1F96809B100690860D7E901205D
:104D20003969009400EB800083002846FFF717FAEA
:104D30003F68B742ECD1B068D8F81C10401A7268CE
:104D4000316900EB80008300002000902846FFF7C7
:104D500006FA02B0BDE8F08170B54169044600680A
:104D6000C1B14A687AB18569002600BF086850F869
:104D7000262022B104212846FFF703FA616948681A
:104D800001368642F2D3086800F011FA606900F03B
:104D90000EFA02E0616800F091F9206B18B1BDE8ED
:104DA000704000F004BA70BDB0B50446806930B3FD
:104DB000E06F30B10168002208680260204600F010
:104DC0007DF9D4E904150020C4E9040011B120469E
:104DD00000F0EFF91DB12046294600F0EAF9D4F8B9
:104DE000B4010025C4E90155E560656300F0DFF911
:104DF000A069C4E96D5502F041FFA56100E0002003
:104E000084F8C601B0BD00002DE9F0410C4685696B
:104E10004FF00008276817F0803F05D0B7F1803FBA
:104E200032D10434F6E700BFFEB26268284631464C
:104E300002F02CFF202E02D1284602F057FFC7F3C4
:104E40000726A2682846314602F020FF202E02D114
:104E5000284602F04BFFC7F30746E2682846314672
:104E600002F014FF202E02D1284602F03FFF3E0E32
:104E700022692846314602F009FF202E02D1284639
:104E800002F034FF1434C5E7380414D4380221D4B6
:104E9000B7F1FF3FFEB241DDFF2EC2D1C7F30728B5
:104EA000B8F1040F02D0B8F1020F5BD128460434E8
:104EB00002F01CFFAEE7FEB2322E53D062682846E5
:104EC000314602F0E3FE202E02D1284602F00EFF0A
:104ED00008349FE7FEB2C7F30727FF2E08D1022F41
:104EE00041D12846043402F001FF4FF0020891E757
:104EF00062682846314602F0C9FE202E02D12846BB
:104F000002F0F4FEA2682846394602F0BFFE202FC8
:104F100002D1284602F0EAFE0C347BE7626828469C
:104F2000314602F0B3FE202E02D1284602F0DEFE0A
:104F3000C7F30726A2682846314602F0A7FE202EB6
:104F400002D1284602F0D2FEC7F30746E26828469F
:104F5000314602F09BFE202E02D1284602F0C6FE0A
:104F6000103457E747463846BDE8F081F0B581B0C8
:104F70000D46496A0446C668C56011B11221122067
:104F800020E0686D01276F6270B9606E082803D158
:104F90000121204601F041FD204600F00AFC0122DB
:104FA0002046294600F04AFF0022204629466F6528
:104FB000002702F071FE94F8C7116F62E66084F872
:104FC000C77148B284F8C61101B0F0BD38B110B550
:104FD000044602F031FE002084F8C60110BD022014
:104FE000704700002DE9F04182B08046DDE908C03D
:104FF0000728C8E90F12C8F84800C8E9133C0ED8C2
:105000000FF20A0101EB80020121DFE800F0210428
:10501000100C2525141A02214FF4801018E04028A6
:1050200005D0412818D102214FF4401010E004218E
:105030004FF400100CE040F200100421C0F22000F8
:1050400006E040F200100221C0F2200000F58010BE
:10505000C8F85400C8F84410D8F81C00D8B1D8F8E3
:10506000541000BFD0F82C41D0F84461D0E9472556
:105070000A430768224342EA0502D0E94F5442EA54
:10508000050242EA040242EA0602C0F82421384638
:105090000FB12FF019C8581EACF101010FB2002159
:1050A00003B20022404600970024FFF7B8FD00201D
:1050B00088F8C64102B0BDE8F0810000F0B581B0CB
:1050C00009B30C460546866995F8680027462468AA
:1050D000C007796804D1284600F049F803E000BF12
:1050E000084600F064F83A693AB195F88400800700
:1050F00003D504213046FFF744F8384600F057F84E
:105100000CB12FF01FC801B0F0BD0000B0B50446CF
:10511000006A884225D00D4604F11C0119B30846E7
:105120000968A942FAD129680160606AA84201D1E0
:10513000206A6062E06AA84201D1206AE062A06A47
:10514000A84201D1206AA062D5F8080120B1FFF77A
:1051500016F80020C5F80801284600F028F80020BD
:1051600002E0072000E0032084F8C601B0BDB0B51E
:105170000C46054600F064FBD5F884100546CA07C6
:1051800006D1C80608D42046BDE8B040FEF7F7BFF8
:1051900004212846224606E028462146FFF72FF83C
:1051A000042102462846BDE8B040FEF7EABFFEF7FC
:1051B000E6BFB0B50D46496A044609B1122017E0B2
:1051C0002069A84213D06069A84210D0E068A842C4
:1051D00001D1A068E0602846FFF7BEFDA86B08B1CA
:1051E000FFF7E5FF2846FFF7E2FF002000E013206D
:1051F00084F8C601B0BDB0B50C46054600F020FBF2
:10520000D5F884100546CA0706D1C8060BD4204637
:10521000BDE8B040FEF763BF042128462246BDE842
:10522000B040FEF75EBF042128462246FEF759FF34
:1052300001462846BDE8B040FEF7DFBFFEF74FBF8E
:1052400010B504468068006830B92068216AFFF70D
:1052500075F848B1A16808600021C160D0E9011269
:105260002161E261A06010BD2068152180F8C7119E
:1052700010BD0000F0B581B0C76F0C4605464FF079
:10528000000048610D60AFB3386860602020FFF710
:10529000D5FF606160B30646B8688000FFF7CEFFB7
:1052A000306028B3D7E901237360D5F888107261A4
:1052B0005143B16043F009C0002000223368985088
:1052C00004320FF005C8306801EB8101F060A86975
:1052D0008A000421FEF705FF316808603068006825
:1052E00030B1306170687169C6E90610606806E027
:1052F000002634E028461146FFF720F860604FF0A2
:105300000006E06058B3A060D0E90110C4E906606F
:105310001020A08640202161C4E90A66FFF78EFFB5
:105320002063E0B1616909B1096808E095F884106B
:1053300011F0120F616801D00D690DB904310D68CB
:10534000B4F93410012903DB89B28900FBF73EFA76
:10535000002021462A46E086FEF7C7FF0126304698
:1053600001B0F0BD80B51821FBF730FA80BD2DE902
:10537000F0470E46B1F91410B2F90070DDF820C004
:10538000B2F90220B6F91650CF1BD6F80090AA1A2F
:10539000D6E901154F439A4602FB05720546C9F34B
:1053A000C000043300EB22125FEAC96048BFA2F5D7
:1053B000803248F2010019F0040818BF121AD5F81B
:1053C000B871BCF1000F384640F8083BC5F8B80189
:1053D0004BD04FF0000CD5F8BC31ACEB82145A1E08
:1053E0007C60C5F8BC2106DCD5F8C011284688478A
:1053F0007168D5E96E028F0100F10801013A0AF1E6
:105400000A03C5F8B81103604760C5F8BC2105DC84
:10541000D5F8C01128468847D5E96E12B068013A20
:105420000AF110034FEA801001F10807C5F8B871BE
:105430000B604860C5F8BC2103DCD5F8C0112846D4
:10544000884740F20120B8F1000F4FEA5A014FF4AB
:10545000003208BF012002FA01F100FA0AF05FEA07
:10546000496248BF0843BDE8F087D5F8BC315242D5
:10547000013B7A60C5F8BC3106DCD5F8C01128467E
:1054800088477168D5E96E0300F10802013B0AF113
:105490000A07C5F8B82107604160C5F8BC3105DCD2
:1054A000D5F8C01128468847D5E96E23022B0AF1AA
:1054B0001000B16802F10807C5F8B871C2E900012F
:1054C000A3F10100C5F8BC01B7DBBAE72DE9F04351
:1054D00081B04D7E0F461E469046E9078146089CE6
:1054E0000CD1A80742D53D4615F8340FC00727D187
:1054F000042E78D824F40004023637E0394611F837
:105500001C0FC00705D1042E6DD824F40004023608
:10551000E7E7052E67D804F08070009048464246C1
:105520003346FFF724FF397F20437D7E013649064D
:105530006FF4400158BF6FF4000101EA0004D0E7A6
:10554000052E50D804F08070009048462946424607
:105550003346FFF70CFF29786FF4400220430136F1
:10556000490658BF6FF4000202EA0004B87D8107C3
:105570001DD5797E49071AD5394611F84C2FD20727
:1055800005D1042E2FD824F4000402360FE0052E96
:1055900029D804F080700090484642463346FFF711
:1055A000E6FE40EA0401B87D21F40004013640071C
:1055B00019D5787E000716D517F8640FC00704D1F7
:1055C000042E98BF24F400040DE0052E0BD804F03F
:1055D000807000904846394642463346FFF7C7FE82
:1055E000204320F40004204601B0BDE8F083B0B5AC
:1055F000044602F0FBFA0028A06152D004F5BC700A
:105600003B21FBF7C1F8E56F6DB1D4F88810204657
:10561000FEF794FE2860D4F888102046FEF78EFE30
:10562000296808600160D4F8881020460A4600F016
:1056300003FAD4F88810206120460A4600F0FCF9ED
:1056400021690125606169B360B3C4E901014FF4C8
:105650000070E16000256563FFF7F0FD46F285729A
:105660004021C0F20022C4E96D00C4E96F12A069B4
:105670000A2184F8C951FEF77AFD98B1A0690A2180
:105680000022FF230025FEF705FEA0690A21002263
:10569000FEF77AFDFF2805D10025012084F8C90115
:1056A00000E00525284684F8C651B0BDB0B50446D3
:1056B00001F068F8E0688269032A2BD80169DFE805
:1056C00002F00207162040F2FF2241F8042B20E0EE
:1056D00048F200030A68C0F2800363F31F2242F419
:1056E00000420A6040F2FF228A600C3111E0002281
:1056F000C8F28002120C4A8040F2FF22CA601031C8
:1057000007E08022CA70036940F2FF220A6103F1B8
:1057100014010161C16900250139C0E9065101295F
:1057200001D800F0C3F9002084F8C651B0BD0000D4
:10573000B0B5044601F026F8E0688269032A2BD848
:105740000169DFE802F00207162040F2FF4241F84B
:10575000042B20E048F200030A68C0F2800363F3E0
:105760001F2242F400420A6040F2FF428A600C317C
:1057700011E00022C8F28002120C4A8040F2FF427F
:10578000CA60103107E08022CA70036940F2FF420C
:105790000A6103F114010161C16900250139C0E901
:1057A0000651012901D800F081F9002084F8C65182
:1057B000B0BDB0B50446C06F00B1B0BDE568D5E975
:1057C0000F018142F9D046F61911D4F8C001C0F298
:1057D000002188421CD0204600F0D4FF204600F073
:1057E00091FF204600F0CEFFE06F0028E86BC4F880
:1057F000BC0123D1E16804F5DA7E01F1440C0864B0
:10580000096D9CE80C108EE80C10C4F8C01115E06E
:1058100005F1440304F5DA7CD4F8BC0128640FCB0D
:105820008CE80F00204600F0ADFF204600F06AFF34
:10583000204600F0A7FFE86BC4F8BC012864B0BDA7
:1058400080697047F0B581B00446006890F8681030
:10585000C90725D1D4E902678569B74212D000BFD4
:10586000386818B1F96809B100690860B8683A6920
:10587000042100EB800083002846FEF735FC3F68DA
:10588000B742EDD1B068E169401A3269042100EBFA
:1058900080008300284601B0BDE8F040FEF724BC3C
:1058A00001B0F0BD00000000F0B581B004464FF437
:1058B000BE70FFF7C3FC0546002800F0848087FF18
:1058C0005F0085ED100F6FF07F4043A2C5E9020035
:1058D0004FF07F40C5E9540092ED001F42A205F150
:1058E000D406D4F880100027090140F20801C2F262
:1058F000400192ED003F58BF4FF480013EA2C5F831
:105900002011636D85ED4A3F92ED003F3EA2C5F840
:105910004C011020A88243EA010085ED443F92ED3E
:10592000003F3DA240F4002040F4B050C5F82401EF
:105930004020C5F8D80005F11C0085ED160F0421A4
:1059400085ED313F92ED003F86ED002F86ED380F5B
:1059500080EF50006C6085F8E91085ED4F1FC5E9B8
:105960003F77C5E94177FFF7FDFC05F13400FFF70C
:10597000F9FC05F14C00FFF7F5FC05F16400FFF7B9
:10598000F1FC05F17C00FFF7EDFC05F19400FFF759
:10599000E9FC05F1AC00FFF7E5FC23A10C2085F83C
:1059A000E8004FF0FF30C5F8380191ED001FC5E960
:1059B00037702046294686ED100F01F0C1FFE069DF
:1059C0002860E56100E0012784F8C671284601B02F
:1059D000F0BD00BF00BF00BF0100000000000000DC
:1059E00000000000000000000000000000000800AF
:1059F0000000010000C0030000000100AA00000038
:105A00000000010000160000AA00000004000000D1
:105A10000000000010000000010000000200000073
:105A20000100000001000000010000000300000070
:105A30000300000003000000F0B581B050B305463C
:105A40000F46032921D31646022A1ED95820FFF7F4
:105A5000F5FBE0B10446002021463A46A063284603
:105A6000FFF708FCD0B1E86F40B94FF40070FFF7C2
:105A7000E5FBA06390B14020C4E90F000020C4E919
:105A80000860606585F8C60105E00D2000E0012092
:105A900085F8C6010024204601B0F0BD012085F83C
:105AA000C6012046FFF783FBF4E700002DE9F0472D
:105AB00082B0456904465DB1E069A969002837D024
:105AC000012940F0CD8020680121D0F8188066E0DF
:105AD000206948F23201C8F2800101600021256985
:105AE000A06845F8041FC56040F2FF30686005F10A
:105AF00008002061E069A1610138E0612046FFF7FC
:105B00009FFB206890F8C70100286AD0A16920692E
:105B10000329A0F10C02226100F29D80DFE801F070
:105B20000275869140F2FF3140F80C1C083891E074
:105B300020680229D0F8188031D3A768D5F810A0C2
:105B4000B8687E68FB6800EB8001206906EB810283
:105B50000AEB81091BB1C3F800900023FB6090425F
:105B60000DD28900021D3144914251EA8281C24323
:105B70001144802221F003010431FAF7FDFDB868D9
:105B80005146324600EB80008300102000904046D2
:105B9000FEF7E5FAA869C5F810900138ADE0EA69AA
:105BA000022A17D3EE68A768511EE96156F8040F60
:105BB00050B9A868042100EB800082004046FEF73F
:105BC00090FA002830604ED0F96871B1086000206A
:105BD000F8604CE0012A02BF0129152180F8C711A5
:105BE0008CE0A068406828603AE0216948F23202FF
:105BF000C8F280020A60A168226942F8040FCA60F4
:105C0000101D20610020A06131E048F2000250F830
:105C10000C1CC0F2800262F31F2141F4004140F8E5
:105C20000C1C40F2FF3140F8041C13E00021C8F2C4
:105C30008001090C20F80A1C40F2FF3140F8041BD7
:105C400008E0802100F8091C226940F2FF31416020
:105C500002F1140020610020A061E0690138E061D8
:105C600002B0BDE8F0872068012180F8C711A16962
:105C700003292BD82069DFE801F00207162040F243
:105C8000FF3140F8041B20E048F200020168C0F236
:105C9000800262F31F2141F40041016040F2FF31B4
:105CA00081600C3011E00021C8F28001090C4180B4
:105CB00040F2FF31C160103007E08021C1702269DD
:105CC00040F2FF31016102F114002061A06800215F
:105CD000A161E16982680139E161296902EB82030E
:105CE00042689B00102000904046FEF738FA30686A
:105CF00020B1EE60306828616869A861204602B072
:105D0000BDE8F047FFF79CBA70B505464FF4EA705E
:105D1000FFF794FA044600284FD029A0A566002674
:105D2000A4F8C66190ED001F2046C4E9066684ED24
:105D3000121FFFF7B9FDC4E908006906A062E0621E
:105D40004FF0000002D47020FFF778FA206304F1CE
:105D50003400142184F8C66184F8C461FAF736FD72
:105D600001206066201D1421FAF730FD3320C4F8AD
:105D70008800042015F0040F50EA1090A4F8786011
:105D8000E6662907C4E91C6640F2271148BF00F007
:105D90000100C4E9170604F18C00C4E91F6684F809
:105DA000C861FAF713FD40F624110820C2F2002161
:105DB00084F8C501086820600C60204670BD00BFF3
:105DC00002000000000000000000000000002000B1
:105DD000B0B58469032C20D840F2000C0169C8F2E8
:105DE000800C0CF500434FF0020EFF22DFE804F0B8
:105DF0001A0E02084FF0030E4FF6FF72634605E0DD
:105E00004FF0040E4FF000436FF07F420D682A40C0
:105E10001A430A6001EB8E01016100218161C169B1
:105E20000139C161B0BD40EA500040EA900040EA4B
:105E3000101040EA102040EA10407047F0B581B0E1
:105E40000546086816460C4600F09CFCA16903292B
:105E50002BD82069DFE801F00207162040F2FF315D
:105E600040F8041B20E048F200020168C0F2800202
:105E700062F31F2141F40041016040F2FF31816073
:105E80000C3011E00021C8F28001090C418040F281
:105E9000FF31C160103007E08021C170226940F2FB
:105EA000FF31016102F1140020610020A061E86F60
:105EB000E1690028A1F10100E06114D1A16808683E
:105EC00078B1A26A0132A2623C2A0CD10F46014687
:105ED000006808B12FF007C02068FFF7EFF8002036
:105EE00038600020A062606990B14EB32068FFF76F
:105EF000A7FCA268E1690027936852685B1A616990
:105F000003EB830309699B000097FEF728F911E072
:105F1000D5F88400810705D4C00607D42046FEF7D3
:105F200019FC06E02046FEF7E3FE02E02046FFF7FC
:105F300089FC2EB1204600F004FC0020606215E0D0
:105F40000020E0612046FFF7B1FD6169A068E060D4
:105F500009B108690AE095F8841011F0120F04D015
:105F60000069002808BF206900E0206901B0F0BD89
:105F7000F0B581B00C46E0B1054620461646FEF766
:105F800040F9E0B10746A8421AD82846FEF7A7F81C
:105F9000A8B1054676B1042F0CD34FEA970E2846D8
:105FA000214600BF51F8042B40F8042B0FF007C026
:105FB00000E000252046FEF7E2F82C4600E0002431
:105FC000204601B0F0BD2DE9F04F83B00C9E044691
:105FD000002E4FF0000000F089828A460D990129B9
:105FE000C0F28482951922F00F00ADF8040023F06E
:105FF0000F00ADF80600681E5E1820F00F00ADF827
:106000000800701E20F00F00ADF80A0001A920461C
:106010009B461746FEF7D8FD48B3A5F11000A6F140
:1060200010010FFA80F920460FFA81F8514600F06E
:1060300073FF9AF8D500C1071BD110F0020048EA9F
:106040000B025FEA1F9112F00F0F5FEA1F9249EAFD
:1060500007031B0718BF002841EA020140F01B811B
:10606000002900F0958101AA0023002014E20020FD
:106070003CE2BDF904000426C11BDAF810014143DB
:10608000D4E96E73013BC4F8BC313E6000EB1112E1
:1060900007F10801C4F8B8117A6007DCD4F8C01120
:1060A00020468847DAF81001D4E96E1301F108029E
:1060B000013BC4F8B8214FF00A070F604860C4F8EC
:1060C000BC3105DCD4F8C01120468847D4E96E23E2
:1060D00002F10800013BC4F8B8014FF010014FF085
:1060E000000711605760C4F8BC3105DCD4F8C0115A
:1060F00020468847D4E96E03BDF90410DAF8102170
:10610000013B4FF00506A9EB0101066002FB01F11E
:10611000C4F8BC3102EB111700F10801C4F8B81142
:10612000476007DCD4F8C01120468847DAF8102110
:10613000D4E96E13504201F10802013BC4F8B821C2
:106140004FF00B070F604860C4F8BC3105DCD4F891
:10615000C01120468847D4E96E2302F10800013BB4
:10616000C4F8B8014FF011014FF0000711605760FB
:10617000C4F8BC3105DCD4F8C01120468847D4E906
:106180006E03BDF90610DAF81021013B4FF0060747
:10619000A1EB0B01076002FB01F1C4F8BC3102EB7B
:1061A000111200F10801C4F8B811426005DCD4F8FE
:1061B000C01120468847D4E96E1301F10802013B63
:1061C000C4F8B8214FF00C004FF0000708604F6092
:1061D000C4F8BC3105DCD4F8C01120468847D4E9A6
:1061E0006E23DAF8101102F10800013BC4F8B8017F
:1061F0004FF0120717605160C4F8BC3107DCD4F8C7
:10620000C01120468847DAF81011D4E96E03BDF9B1
:106210000620A8EB02024A4301EB121700F1080125
:10622000072202605A1EC4F8B8114760C4F8BC21A6
:1062300005DCD4F8C01120468847D4E96E1201F17C
:106240000800013AC4F8B8014FF00D034FF0000701
:106250000B604F60C4F8BC2105DCD4F8C0112046A7
:106260008847D4E96E02DAF81011013AC1F1000151
:1062700000F10803C4F8B8314FF013030360416024
:10628000C4F8BC2103DCD4F8C0112046884701AA19
:1062900004230F2000E1BDF904004FF480320029EF
:1062A0004FF00406A0EB070002EB0033D4E96E7256
:1062B00007F10800A2F10101C4F8B801C4F8BC114B
:1062C000C7E9006300F01581012A05DCD4F8C0118C
:1062D00020468847D4E96E0100F108020139C4F86C
:1062E000B8214FF00A034FF4803703604760C4F8C9
:1062F000BC1105DCD4F8C01120468847D4E96E21D2
:1063000002F10800102313604B1EC4F8B8014FF0CF
:1063100000075760C4F8BC3105DCD4F8C011204632
:106320008847D4E96E03BDF904104FF48032A9EB1D
:10633000010102EB013700F10801052202605A1E3B
:10634000C4F8B8114760C4F8BC2105DCD4F8C0110A
:1063500020468847D4E96E1201F108000027013A6F
:10636000C4F8B8014FF00B03CFF6FF770B604F6016
:10637000C4F8BC2105DCD4F8C01120468847D4E914
:106380006E0200F10801C4F8B8111121002376E073
:10639000BDF906004FF48031D4E96E320427A0EB3A
:1063A0000B00013A1F60C4F8BC2101EB003103F17E
:1063B0000800C4F8B801596005DCD4F8C0112046C3
:1063C0008847D4E96E0200F10801013AC4F8B81117
:1063D0004FF00A034FF0000703604760C4F8BC2188
:1063E00005DCD4F8C01120468847D4E96E1201F1CB
:1063F00008004FF48036013AC4F8B8014FF010039A
:106400000B604E60C4F8BC2105DCD4F8C0112046F6
:106410008847D4E96E02BDF90610013A4FF005072E
:106420000760A8EB0101C4F8BC2106EB013300F1C1
:106430000801C4F8B811436005DCD4F8C011204647
:106440008847D4E96E1201F10800013AC4F8B80196
:106450004FF00B034FF000070B604F60C4F8BC21F6
:1064600005DCD4F8C01120468847D4E96E02002329
:1064700000F10801C4F8B8111121CFF6FF730160D3
:10648000511E4360C4F8BC1103DCD4F8C01120468F
:10649000884701AA02230320009020465146FFF7B7
:1064A00015F801AF06460023204651463A4600251E
:1064B00000F0DDFF0023204651463A4601F0A4F8E3
:1064C000D4E96E01013900F10802C4F8B821056071
:1064D0004660C4F8BC1103DCD4F8C01120468847DC
:1064E00001A90022204601F0E0FA012003B0BDE836
:1064F000F08F012A05DCD4F8C01120468847D4E982
:106500006E0100F108020139C4F8B8214FF00A0306
:106510004FF4803703604760C4F8BC1105DCD4F841
:10652000C01120468847D4E96E2102F108001023EB
:1065300013604B1EC4F8B8014FF000075760C4F851
:10654000BC3105DCD4F8C01120468847D4E96E037D
:10655000BDF904104FF48032013B4FF00507A9EB61
:1065600001010760C4F8BC3102EB013200F10801FF
:10657000C4F8B811426005DCD4F8C0112046884741
:10658000D4E96E13002701F10802CFF6FF77013B33
:10659000C4F8B8214FF00B0008604F60C4F8BC315C
:1065A00005DCD4F8C01120468847D4E96E2302F1F7
:1065B000080011211160591EC4F8B8014FF00006FF
:1065C0005660C4F8BC1105DCD4F8C01120468847D9
:1065D000D4E96E01BDF906204FF48033A2EB0B0223
:1065E00003EB023600F10802062303604B1EC4F8D9
:1065F000B8214660C4F8BC3105DCD4F8C01120468F
:106600008847D4E96E2302F10801013BC4F8B811B0
:106610004FF00C004FF0000610605660C4F8BC311B
:1066200005DCD4F8C01120468847D4E96E1301F187
:10663000080012224FF480360A605A1EC4F8B801CE
:106640004E60C4F8BC2105DCD4F8C0112046884750
:10665000D4E96E02BDF90610013AC4F8BC21A8EBDA
:10666000010106EB013300F10801C4F8B8114FF045
:1066700007060660436005DCD4F8C0112046884751
:10668000D4E96E1201F10800013AC4F8B8014FF0E4
:106690000D034FF000060B604E60C4F8BC2105DC12
:1066A000D4F8C01120468847D4E96E0200F10801F1
:1066B000C4F8B81113210160511E4760C4F8BC1121
:1066C0007FF7E1ADE3E580B582B0DDE904CECDE949
:1066D00000CEFFF778FC02B080BDC16F01B17047FA
:1066E000C16801F1440CD0F8BC210A64096D9CE832
:1066F0000C10C0F8B421C0F8B831C0F8BCC1C0F863
:10670000C0117047C16F01B17047C16800F5DA7CF4
:106710009CE80C108B64C1F84CC0D1E90FC34A64EB
:10672000ACEB030CD0F8C0210A65896B00F5DA7078
:1067300001EBCC0246F6191CC0F2002C80E80E10CA
:10674000704710B50446006890F86810890604D4B4
:1067500000F5BC703B21FAF717F861696068C4E97D
:10676000020039B1D1E9002CCA604B69C1E9063C8D
:1067700012680A61D0E9011021610021C4E9061004
:10678000E16210BD2DE9F04F81B08046C56890F8F8
:106790006800D8E96D618A1B80064FEAE207286825
:1067A00048D4B142AC6943D04FF0010C012F57EAF5
:1067B0008C8747F2103B00F18C0900F5BC7A286900
:1067C000C0F2012B296891F8C71189BB31681BF809
:1067D0000120002A72680AD01AF801301BB159F85A
:1067E0002130934220D00AF801C049F8212000EB63
:1067F00084030155611C5A6011F00304E96A01F138
:106800000101E96210D1E9692869013914300129CF
:106810004FF000042861E96106D82846AC61FFF713
:1068200045F94FF0010C2869013F06F10806C9D16E
:10683000AC6108E090F8C721A869EB6A002A03EB75
:106840000702EA6207D0D8F8B4014021C8E96E0116
:1068500001B0BDE8F08FF8B1B142F4D0296900BFB2
:10686000F6E802230A5401EB80020130013F00F0F8
:106870000300536018BF0028F2D10028E3D10020A4
:10688000A861E86929690138143101282961E861A2
:1068900002D82846FFF70AF9BC0823D0286890F8E8
:1068A000C701F8B9286931680170B1684170316970
:1068B0008170B169C17071684160F168816071690E
:1068C000C160F1690161E869296901381431012861
:1068D0002961E86102D82846FFF7E8F8013C06F193
:1068E0002006DBD117F00300ADD000BF296891F876
:1068F000C7110029A7D1A9692A693368746802EB16
:10690000810753540131013806F108067C6001F01B
:106910000301A961EAD196E770B5C5680446012272
:10692000D5E90E163001FFF723FB50B17200D5E90F
:106930000F31C3EB4606A86393423144C5E90F21EA
:1069400009D12046FEF735FFE068D4F8B411006C99
:10695000C4E96E1070BDE068D4E96D13D4F8BC21B1
:10696000591A806B3244C4F8BC210144C4E96D015A
:1069700070BD70B50D460446FFF704FFE06FD8B157
:10698000E668AE4218D0706DB0B93046FFF720FA15
:10699000306948F23201C8F280010022016030699A
:1069A000B16840F8042FC86004303061B261002241
:1069B00020463146FFF742FA05B9A568696A00200A
:1069C0006865E560606319B168622846FFF7B9FE43
:1069D000686908B1006808E094F8840010F0120FAC
:1069E000686801D006690EB9043006682046294659
:1069F000FDF73FFF204629463246FDF776FC94F826
:106A00006800800604D404F5BC703B21F9F7BCFE95
:106A10000020002184F8C61170BDE0B1B0B5044675
:106A2000406E0D46884223D0082D18BF082814D187
:106A3000616A0828656691F80E2142F0010081F82C
:106A40000E0102D12046FFF748FE082D10D1204646
:106A5000FFF758FE0CE0022070472046FEF7A9FE23
:106A6000606A656690F80E1141F0010180F80E1120
:106A7000002084F8C601B0BD8446406A827C90F84C
:106A80000E318A4243F0010280F80E2103D043F018
:106A9000070280F80E21827D8174D20702D0090698
:106AA000C0F84C11002000218CF8C61170478446B4
:106AB000406A827D90F80E318A4243F0010280F8EC
:106AC0000E2103D043F0070280F80E21CA0781751A
:106AD00002D14FF07F4101E0817C0906C0F84C11E2
:106AE000002000218CF8C61170470246406A90F8D9
:106AF000D53039B143F0020180F8D5100021C0F83B
:106B000028110DE04FF4FC41C0F828114FF48031FA
:106B1000C0F8101103F0FC0180F8D510102181821B
:106B20000020002182F8C61170470000B0B5D0F8EF
:106B300024E003299EF80EC14CF001038EF80E31BB
:106B40000CD8032A0AD80FF2580C5CF82110DFE8A1
:106B500002F0020C070A41F4805106E010211BE00C
:106B600041F4806101E041F4A051DEF82C21436D35
:106B7000DEF820C1DEF83C511A43DEF8403142EA2B
:106B80000C02DEF844412A43CEF81C111A4322437A
:106B90001143CEF82411002180F8C6110846B0BD7B
:106BA000000800000000000000020000000A0000D1
:106BB00010B5DDF80CC05FEACC6E04D590F882E029
:106BC0005FEA0E6E17D55FEA8C6E04D590F882E00E
:106BD0005FEA8E6E0FD52CF0300EAEF10D0EBEF1C9
:106BE000020F0CD8D0F880E05FEACE3407D40EF064
:106BF000FE04092C03D8092180F8C61106E0406A7A
:106C0000029C00F5B47080E81E100021084610BDFB
:106C10000246406A032990F80E31C17543F0010322
:106C200080F80E3114D8DFE801F00202070D90F869
:106C3000D51001F0F30109E090F8D51001F0F3014F
:106C4000043103E090F8D51041F00C0180F8D51024
:106C50000020002182F8C61170470246406A0023D6
:106C6000022980F8D6104FF0000108BF032380F8F6
:106C70000F31002082F8C61170470246406A80F842
:106C8000D7100020002182F8C611704780B58646D3
:106C9000406A0903120390F80EC1C0E93F120021B7
:106CA0008EF8C6114CF0010380F80E31002080BD33
:106CB0002DE9F0418046406A00F1EC0EDDE9065412
:106CC00090F80EC1C0F8F8108EE82C0014F01003F4
:106CD0004CF0010680F80E614FF0000180F8EA10D8
:106CE00003D098F88210090614D514F0200E03D0B2
:106CF00098F8822092060DD524F03002A2F10D06FC
:106D0000022E09D8D8F88040E60305D404F0FE0628
:106D10000A2E01D20920BEE03F2A0EDC0F2A00F223
:106D20008880DFE802F00823122010262E376E3B01
:106D3000754750575C65002638E0402A05D0412A47
:106D400011D0422A75D110265CE00325402A55EA6D
:106D500005954FF40026C0F82C61042680F8E96000
:106D600080F8EB5065E04FF440264BE04FF480266E
:106D700048E098F88260B606CCD51026C0F204062A
:106D800014E01026C0F2040606F58026C0F82C6137
:106D900004263AE01026C0F20C0633E098F8826030
:106DA000B606B7D51026C0F204061036C0F82C611E
:106DB00001262AE098F88260B6067FF5ABAF102670
:106DC000C0F20C060EE098F88260B6067FF5A2AF1E
:106DD000302611E01026C0F20406203620E02026DE
:106DE000C0F208061036C0F82C6140F201461BE0E4
:106DF0001026C0F20C062036C0F82C6140F60106C1
:106E000012E02026C0F82C61022680F8E9600EE02E
:106E100098F88260B6067FF57DAF2026C0F208069E
:106E2000C0F82C6140F20126A0F8E960012680F844
:106E3000EB600BB9002305E090F8EB304FF04146D2
:106E400006EB8373052AD8F85420D0E94765C0F8CB
:106E50003C31D0F84041D0F82C1124F0007442EAC3
:106E6000060204F1007757EA04841143D0F8442164
:106E7000BEF1000F57EA14872943C0F8407111434F
:106E800019433943C0F824114CF0110180F80E1158
:106E9000FDF7BEFC002088F8C601BDE8F0812DE9B1
:106EA000F041456A84460DF1200EDDE9067695F83D
:106EB0000E01A5F8A8109EE8104140F0110085F8D9
:106EC0000E010020A5F8AA20C5E926640021C5E925
:106ED0002837C5E92C8E8CF8C611BDE8F08110B5B5
:106EE0000446406A4FF4703390F80E2142F00102DC
:106EF00080F80E2103EA813201F00F0182F4404252
:106F0000C0F8342180F8E810FDF782FC0020002151
:106F100084F8C61110BD00002DE9F04381B00D4684
:106F20000446416B95F80E01A94208BF10F001011B
:106F300000F09A82297E656300F0FE0085F80E015C
:106F4000012919D1E97CD5F8240120F44000C5F8C5
:106F500024010806D4E96E12013A01F10803C4F8CD
:106F6000B8314FF01A030B604860C4F8BC2103DC51
:106F7000D4F8C01120468847E87D032800F27482C7
:106F8000D5F82461DFE800F0023060B7A868D5F8D2
:106F90004C1146F080770843D4E96E12013A01F1B2
:106FA0000803C4F8B8314FF019030B604860C4F807
:106FB000BC2103DCD4F8C0112046884740F2C81138
:106FC000A06DC3F2F0017040084202D02046FEF7E7
:106FD000AFFBD4E96E01A76500F10802C4F8B8213F
:106FE0000122C0E90027ECE0A868D5F84C1108435D
:106FF000D4E96E12013A01F10803C4F8B8314FF038
:1070000019030B604860C4F8BC2103DCD4F8C0113C
:1070100020468847287E0128E86840F0A280E97C65
:1070200040EA0160D4E96E12022A01F10803C4F8B3
:10703000B8314FF01A03C1E90030A2F10100C4F8E1
:10704000BC01C0F29F80A1E095F80E01800702D537
:107050002846FDF7A9FBD5F85001A968D4E96E329E
:107060001927014303F10800013AC4F8B8011F6071
:107070005960C4F8BC2105DCD4F8C011204688470B
:10708000D4E96E02D5F85411EB68013A4FF01A07B3
:1070900043EA010300F10801C4F8B8110760436036
:1070A000C4F8BC2105DCD4F8C01120468847D4E9D7
:1070B0006E12013AD5F8140101F10803C4F8B83191
:1070C0004FF01D030B604860C4F8BC2103DCD4F80A
:1070D000C01120468847D5F83001A16D40F2C81292
:1070E0003043C3F2F002414040F08070114240F062
:1070F000010557D159E095F80E01400702D5284601
:10710000FDF76AFBD4E96E12013AD5F8600101F18E
:107110000803C4F8B8314FF019030B604860C4F895
:10712000BC2103DCD4F8C01120468847287E012802
:10713000D5F8640153D1E97C20F07F4040EA01603A
:10714000D4E96E12022A01F10803C4F8B8314FF0F5
:107150001A03C1E90030A2F10100C4F8BC014CDB04
:107160004FE0D5F84C110843D4E96E12013A01F111
:107170000803C4F8B8314FF01A030B604860C4F834
:10718000BC2103DCD4F8C0112046884740F2C81166
:10719000A06DC3F2F001704046F08072084242F4E4
:1071A000005502D02046FEF7C3FAD4F8B801A56511
:1071B000D4F8BC1100F10802C4F8B8210122026021
:1071C00045600229A1F10100C4F8BC0180F24C81A4
:1071D000D4F8C011204601B0BDE8F0430847D4E917
:1071E0006E12013A01F10803C4F8B8314FF01A03E6
:1071F0000B604860C4F8BC2103DCD4F8C011204601
:107200008847D5F83C01C10102D494F8C41121B1DA
:107210002046FEF74BFAD5F83C01D4E96E32C0F3B4
:10722000006084F8C40103F10800013AD5F8F810B1
:10723000C4F8B8014FF02F071F605960C4F8BC2193
:1072400005DCD4F8C01120468847D4E96E0200F16D
:107250000801013AD5F8EC30C4F8B8114FF02D0709
:1072600007604360C4F8BC2105DCD4F8C011204697
:107270008847D4E96E1201F10800013AD5F8383197
:10728000C4F8B8014FF02E070F604B60C4F8BC2162
:1072900005DCD4F8C01120468847D4E96E0295F881
:1072A0000D11013A00F10803C4F8B8314FF0390369
:1072B00003604160C4F8BC2103DCD4F8C01120464F
:1072C0008847D4F88000810240F18880C0014FF4E3
:1072D0008076D5F8080158BF102618B1A16B8142FD
:1072E00006D108E0D5F8041129B1A26B8A4202D078
:1072F000012185F80C1195F80C1100296ED090B37E
:10730000D4E96E0105F58478013900F10802C4F86A
:10731000B8214FF037024FF0000302604360C4F819
:10732000BC1103DCD4F8C0112046884700274FF079
:10733000380900BFD8F80000D4E96E12013AC059EC
:1073400001F10803C4F8B831C1F800904860C4F8EE
:10735000BC2103DCD4F8C01120468847013E07F168
:107360000407E7D134E0D5F80401B8B3D4E96E01DD
:1073700005F58278013900F10802C4F8B8214FF010
:1073800037024FF0000302604360C4F8BC1103DC15
:10739000D4F8C0112046884700274FF0380900BFB5
:1073A000D8F80000D4E96E12013AC05901F108037F
:1073B000C4F8B831C1F800904860C4F8BC2103DCBF
:1073C000D4F8C01120468847013E07F10407E7D1F1
:1073D000002085F80C01D8F80000A06394F8830021
:1073E000800718D5D5F84401B0F1806F13D1D4E9E6
:1073F0006E12013AD5F8480101F10803C4F8B8311A
:107400004FF03A030B604860C4F8BC2103DCD4F8A9
:10741000C01120468847D5F82401D5F83411D5E9A4
:107420004F230843D5F84411104340F2C8121843C3
:10743000C3F2F0020843A16D40F002054140114241
:1074400002D02046FEF774F9D4E96E01A565013932
:1074500000F10802C4F8B8214FF001020260456053
:10746000C4F8BC117FF7B4AE01B0BDE8F083B0B58D
:107470000D46C97D022940F0C6800446E86FB5F983
:10748000901000F0200083B108BBB2F90000B2F9FF
:107490000620B5F99230091A9A1AD5E920C30CFBD7
:1074A00001F102FB0311091123E0002866D1B2F9B2
:1074B0000000B5F99230B2F90220091A9A1AD5E9FA
:1074C00020C30CFB01F102FB0311091162E0B2F9C8
:1074D0000200B2F90620B5F99230801AC218D5E937
:1074E00020C30CFB01F102FB0311D5F8882002EB4D
:1074F0002111D4E96E03C1F1000E00F10801013B36
:10750000C4F8B8114FF024020260C0F804E0C4F8D7
:10751000BC3107DCD4F8C01120468847D5F880C0BC
:10752000D4E96E1301F10802013BC4F8B8214FF011
:1075300025000860C1F804C0C4F8BC3105DCD4F8EB
:10754000C01120468847D4E96E23D5F88400022B69
:10755000C0F1000002F10801C4F8B8114FF0260193
:10756000C2E90010A3F10100C4F8BC01A8BFB0BD7E
:10757000D4F8C0112046BDE8B0400847B5F99220C4
:10758000D5E920C30CFB01F103FB0211D5F88820DB
:1075900002EB2111D4E96E03C1F1000E00F10801E4
:1075A000013BC4F8B8114FF024020260C0F804E0B7
:1075B000C4F8BC3107DCD4F8C01120468847D5F8A0
:1075C00080C0D4E96E1301F10802013BC4F8B82170
:1075D0004FF025000860C1F804C0C4F8BC3105DCD8
:1075E000D4F8C01120468847D4E96E2302F108017F
:1075F000C4F8B81126211160591ED5F884005060D6
:10760000C4F8BC11B4DDB0BD2DE9F04F83B00D4618
:10761000C97D032940F090810446B5F9A800B2F96C
:107620000010B5F9AAB0D5E926CA002BA0EB0101DC
:10763000D5E928E00290D5E92C600CFB01F8D4F8DC
:10764000B87106FB01F9D5F8FC6007F10801D5F81F
:107650000031019300F0BE80B2F90620C4F8B811E1
:10766000ABEB020202FB0A8300FB029A24223A607F
:10767000A6EB2310D4F8BC31013B70447860C4F809
:10768000BC3107DCD4F8C01120468847D5F898C033
:10769000D4E96E13019801F10802A0EB2A16013B10
:1076A000C4F8B8214FF025000860C1F804C0C4F840
:1076B000BC3105DCD4F8C01120468847D4E96E23DC
:1076C000029826213718D5F89C00464202F108009E
:1076D0001160591EC4F8B8015660C4F8BC1105DC2D
:1076E000D4F8C01120468847D4E96E01D5F8EC20C3
:1076F0003B14D5E92C8902FB03F600F1080227238D
:1077000003604B1EC4F8B8214660C4F8BC3105DCE8
:10771000D4F8C01120468847D4E96E2302F108014D
:10772000013BB8B2C4F8B8114FF028071760506099
:10773000C4F8BC3105DCD4F8C01120468847D4E930
:107740006E134FEA2840D5F8EC20C9F1000902FB7E
:1077500000F601F10800013BC4F8B8014FF0290719
:107760000F604E60C4F8BC3107DCD4F8C01120466D
:107770008847D5F8EC20D4E96E034FEA294102FB93
:1077800001F700F108012A2202605A1EC4F8B8115C
:107790004760C4F8BC2105DCD4F8C01120468847F6
:1077A000D4E96E12022AC8EA094001F10803C4F8BC
:1077B000B8314FF02B03C1E90030A2F10100C4F849
:1077C000BC0180F2B980D4F8C011204603B0BDE8F6
:1077D000F04F0847B2F90220C4F8B811ABEB02022F
:1077E00002FB0A8300FB029A24223A60A6EB2310D4
:1077F000D4F8BC31013B70447860C4F8BC3107DC7C
:10780000D4F8C01120468847D5F898C0D4E96E1343
:10781000019801F10802A0EB2A16013BC4F8B82137
:107820004FF025000860C1F804C0C4F8BC3105DC85
:10783000D4F8C01120468847D4E96E230298262147
:10784000064402F108001160591ED5F89C70C4F876
:10785000B8015760C4F8BC1105DCD4F8C01120464B
:107860008847D4E96E01D5F8EC203314D5E92C898A
:1078700002FB03F700F10802272303604B1EC4F844
:10788000B8214760C4F8BC3105DCD4F8C0112046EB
:107890008847D4E96E2302F10801013BB0B2C4F875
:1078A000B8114FF0280717605060C4F8BC3105DCF0
:1078B000D4F8C01120468847D4E96E134FEA284017
:1078C000D5F8EC2002FB00F701F10800013BC4F8F9
:1078D000B8014FF029060E604F60C4F8BC3107DCD8
:1078E000D4F8C01120468847D5F8EC20D4E96E03BF
:1078F0004FEA294102FB01F700F108012A22026048
:107900005A1EC4F8B8114760C4F8BC2105DCD4F88D
:10791000C01120468847D4E96E12013AC8EA0940EE
:1079200001F10803C4F8B8314FF02B030B60486035
:10793000C4F8BC217FF747AF03B0BDE8F08F00006B
:10794000F0B591F8E400013806280AD8DFE800F025
:10795000040C1013181D22004FF0FF0E4FF0FF0C07
:107960001CE04FF0000E12E091F8DCE0F44615E068
:107970004FF0FF0C06E04FF0000C4FF0FF0E0DE053
:1079800091F8DCC04FF0000E08E091F8DCE04FF019
:10799000000C03E091F8DCE091F8E0C091F8E530EC
:1079A00070466246072B1FD81A46DFE803F01C0416
:1079B000070B0D101418FF23FF2214E091F8DD309F
:1079C0001A4610E0FF2204E00022FF230BE091F8AA
:1079D000DD20002307E091F8DD30002203E091F87C
:1079E000DD3091F8E120184691F8E6500446134640
:1079F000072D1FD82B46DFE805F01C04070B0D10E0
:107A00001418FF25FF2314E091F8DE502B4610E0F8
:107A1000FF2304E00023FF250BE091F8DE30002572
:107A200007E091F8DE50002303E091F8DE5091F872
:107A3000E2302C4691F8E75027461E46072D1FD806
:107A40002E46DFE805F01C04070B0D101418FF2567
:107A5000FF2614E091F8DF502E4610E0FF2604E0E8
:107A60000026FF250BE091F8DF60002507E091F884
:107A7000DF50002603E091F8DF5091F8E3602F46D5
:107A80001204000442EA0C6240EA0E6042EA032259
:107A900091F80E3140EA042032443844C1E95602DC
:107AA00043F0040081F80E01F0BD2DE9F0410D46D0
:107AB0000446B1F90000B1F90410B5F90230B5F986
:107AC0000670081AB4F84010FF1A4FEA201841EA6D
:107AD0000242D4E96E3103F108000139C4F8B8015B
:107AE0004FF01F061E605A60C4F8BC1105DCD4F8C4
:107AF000C01120468847D4E96E014FF6FF723B0360
:107B00000139C4F8BC1123EA020200F1080342441F
:107B1000C4F8B83102F101124FF01E030360426055
:107B200003DCD4F8C01120468847606C04281BD0C1
:107B3000022835D0012831D1B5F90000B5F902107D
:107B4000D4E90F23D4E96E76091102EB201003FB70
:107B5000010007F10801C4F8B8112021C7E900109D
:107B6000022EA6F1010036E0B5F90200226CB5F94B
:107B700000100011D4E96E3709115043E26B02EB9B
:107B8000810101EB800003F10801C4F8B811202144
:107B90001960791E5860C4F8BC1121DDBDE8F08180
:107BA000B5F90200226CB5F90010D4F8B831001113
:107BB00009115043E26B02EB4101D4F8BC2101EB07
:107BC000400003F10801C4F8B8112021C3E90010F6
:107BD000022AA2F10100C4F8BC01A8BFBDE8F081EF
:107BE000D4F8C0112046BDE8F041084770B50446FE
:107BF0000846FCF708FB0546E0B1012101222846B2
:107C00000126FCF7C1FA4101C4F8800048BF84F89E
:107C1000C861800303D4A06E40F00100A066E36D4C
:107C2000012131222846FCF735FB2846FCF71CFBD6
:107C3000C4F88400284670BDB0B5054690F86800C9
:107C4000C007AC6912D100BF012100222046FCF719
:107C50009BFA000711D595F868008007F4D4042139
:107C6000C8222046FCF702FBEEE700BF01210022FC
:107C70002046FCF789FA8007F8D1B0BD80B5FCF743
:107C800055FA01285FEA0F90400080BD8C46012123
:107C900013466246FCF7FEBAB0B5044690F8680099
:107CA0000B6BC00710D1D3F800C0BCF1000F1BD084
:107CB00094F8C901012132220028A06908BF634657
:107CC000BDE8B040FCF7E6BA2AB119682046BDE825
:107CD000B040FDF799B80D1D2D682DB1696820469B
:107CE000FDF792F80328F7D1B0BD000010B50446A7
:107CF000012100222046FCF747FAC007F8D110BD49
:107D00000020704770B586B0154612681AB16FF042
:107D1000040006B070BDA1F5F0510329F7D8446CFA
:107D20000FF20400DFE801F002060E28E06CF9F71C
:107D300079FD02E0E06CF9F784FD002818BF6FF0D0
:107D4000FE00E6E76946204600F030F80028E0D162
:107D5000D5E90110019A814251EA3085914212D051
:107D6000606D8068FAF73CFE0146E06CF9F736FD7D
:107D700048B16FF0FE00CCE72046294606B0BDE8CA
:107D8000704000F013B8606D29468068FAF728FE4D
:107D90000546E06C00222946F9F758FB0646E06CE0
:107DA00001222946F9F752FB3043C7E7B0B584B04A
:107DB0000C460546C06C01A9F9F7BAFB10B16FF08B
:107DC000FE000FE0696DD1E90201FAF7C9FD696DA6
:107DD000A06088680399FAF7C3FD696D6060087C4C
:107DE0002060002004B0B0BD43F60040C4F20000A3
:107DF000818C21F4E061818490F8501009B12FF05A
:107E000005C8818C41F0200121F0D001818400BFA0
:107E100090F8501009B12FF005C8818C41F0050190
:107E200021F00A01818400BF90F8501009B12FF0B1
:107E300005C890F8201041F0010180F8201000BF23
:107E400090F850100907FBD4017801F0CF010170C0
:107E5000817841F001018170417801F0FE014170AB
:107E600090F8501009B12FF005C84FF40C71A0F82C
:107E7000481000BF90F85010C907FBD1416C052293
:107E800062F312414164416C022262F30D3141649C
:107E9000416C62F34B214164416C032241F48071D7
:107EA0004164416C62F30201416490F84010072282
:107EB00001F0FC01013180F84010818A62F31F312A
:107EC0008182818A01F4704101F56A718182817D2C
:107ED00041F001018175017841F0010101707047A5
:107EE00044F20001EFF30380C4F234016FF35F202A
:107EF00010380A6892064FF02E02C1F8C0201BD538
:107F000040F60422C2F2002252F82020536863B1E6
:107F1000D2F800C0DCF800303BB1DCF80030C1F82A
:107F2000C83011680431116006E040F63811C2F221
:107F300000210A6801320A604CF20031C4F20001EB
:107F400051F8202022F4803241F8202051F82000FE
:107F50007047000046F21011C4F234010A6842F47E
:107F600080320A60C07A6FF0FF0202EB402000BF4F
:107F70004A6802F403428242FAD1086820F4803051
:107F80000860086820F00100086000BF4868C0066B
:107F9000FCD1704710B54EF2001C4268CEF2000CC6
:107FA00090F800E002EB0C004EF6145402F00F03C0
:107FB000CEF2000400F54070002A48BF18194FEABD
:107FC0000E13037040F604200123C2F2002040F893
:107FD00022104CF20030C4F2000050F8221021F4BC
:107FE000803140F8221050F82200500902F01F02A0
:107FF000BFF35F8F0CEB800103FA02F2C1F880211E
:108000004CF8202010BD000046F20040C4F23400BD
:108010000169490758BF7047016841F002010160DA
:1080200040F6F811C2F200210269920703D40A78DF
:108030000AB12FF007C800220A7001694161704738
:10804000BEFEC00A10EE100A7047BCFEC00A10EE59
:10805000100A704710B541F2B000C2F2002000686B
:1080600090F82800800706D440F624000021C2F2D0
:10807000002001701DE040F6A80040F62404C2F282
:108080000020C2F20024016839B140F624008022A9
:10809000C2F20020F8F7C1FB06E047F26D31002084
:1080A000C2F26801207121602046F8F77CFA3E2177
:1080B000215240F62400C2F2002010BD70B582B0FB
:1080C00041F2B0060021C2F200268DF80710306898
:1080D00040B949F6A33019A1C0F20120A42205F04D
:1080E0005BFC3068D0F8144224B30DF107024FF066
:1080F000FF310123204605F08EFF012817D00DF136
:10810000070500BF30684FF0FF3108F0DCF9306838
:10811000D0F81402A04201D0044658B14FF0FF310C
:10812000012320462A4605F076FF0128EAD19DF872
:10813000070001E04FF0FF3002B070BD66696E735A
:10814000685F6765746368617200000010B541F292
:10815000B004C2F20024206840B949F6A33005A15A
:10816000C0F20120C32205F017FC206808F05CF97A
:10817000002010BD66696E73685F72785F696E6417
:108180000000000070B541F2B0060546C2F20026BC
:10819000316839B949F6A3301FA1C0F20120D622B7
:1081A00005F0FAFB284605F060FE68B30446306827
:1081B000D0F8140284422DD040F24311204605F03D
:1081C00057FE002818BF70BD3168D1F8140240B1C5
:1081D00005F0E3FD30680021D0F8140205F071FFCE
:1081E000316801F5DF7000215122002507F008FAFF
:1081F000306848F24D11C0F20021C0E98454204695
:10820000BDE8704005F05DBF08A02946BDE870409C
:1082100006F047BF70BD00BF66696E73685F736527
:10822000745F6465766963650000000066696E735B
:10823000683A2063616E206E6F742066696E6420F8
:108240006465766963653A2025730A00B0B541F22A
:10825000B0050446C2F20025296841B949F6A330A9
:1082600008A1C0F20120902205F096FB296891F840
:10827000280004F0010200F0FD0040EA420081F80D
:108280002800B0BD66696E73685F7365745F707255
:108290006F6D70745F6D6F646500000070B582B0C3
:1082A00040F2645040F26852C2F200204AF29C51FF
:1082B000C2F20022C0F201214AF23C6301600120B7
:1082C0004FF40671C0F20123136005F0A3FB41F2E5
:1082D000B006C2F200263060F0B148F251311420ED
:1082E000009011A0C0F2002100224FF480530A2513
:1082F0000195002408F083FE054630680CA1002299
:10830000002308F053F80120FFF7A0FF4DB12846E5
:1083100009F062F9002404E007A006F0C2FE4FF065
:10832000FF34204602B070BD747368656C6C000049
:1083300073687278000000006E6F206D656D6F725B
:108340007920666F72207368656C6C0A000000000B
:1083500041F2B009C2F20029D9F8000090F82810C3
:10836000D0F8142241F0010180F8281022B905F05C
:10837000EFFC08B1FFF706FFFFF76CFE40F6240A9A
:10838000C2F2002A504606F08CFE49F6A1360127BB
:108390000025C0F2012600BFFFF790FE0028FBD4A5
:1083A00080461B28D9F800B002D1CBF82470F3E73F
:1083B000DBF82400022808D001281ED1B8F15B0F99
:1083C00019D10220CBF82400E6E7B8F1400FCBF832
:1083D000245026DDA8F1410003281BD8DFE810F067
:1083E000040091019A01B201BBF82A00002800F0B4
:1083F000D8810138B9E1CBF82450B8F17E0F09DCFF
:10840000A8F10800052800F28A80DFE800F047950F
:10841000148C8C14B8F17F0F40D0B8F1FF0FBBD093
:1084200081E0A8F10800052800F27980DFE800F07B
:108430003684037B7B03BBF81002BBF82C4000287A
:1084400000F0D780052CC0F0A8800BF5B7750BF5B0
:10845000DF78502228464146F8F779F80028584638
:1084600000F0C8800BF17E04042700BFA4F1500087
:108470005022214606F086FE013F04F15004F5D15A
:1084800000215022284607F0BBF8BBF810222846EE
:10849000414606F077FE05240127A5E0BBF812024D
:1084A00008B92FF087C8BBF81012013882B2ABF8B8
:1084B00012020139ABF810128BB2934240F2BF8026
:1084C0001BFA80F19A1A01F5DF7001F2BF1107F073
:1084D00079F8D9F80000B0F81012084480F8BE51BD
:1084E000D9F80000B0F81212084400F5DF71AFA00F
:1084F00006F0D7FDD9F80000B0F81012B0F812025B
:1085000088423FF649AF441E304606F0CAFDD9F80E
:1085100000000134B0F810028442F5D33CE7B8F112
:10852000000F3FF439AFBBF81022502AC0F0928000
:108530000022ABF81022C0E0BBF8120250B10024B8
:10854000304606F0AEFDD9F800B00134BBF8120297
:108550008442F5D349F6EB000BF5DF74C0F201203D
:1085600006F09FFD204602F0B1FF204603F096F989
:10857000FFF770FD49F6B7305146C0F201202246A0
:1085800006F08FFDD9F8004004F5DF70F8F70BF81E
:10859000A4F81002A4F81202FEE654B104EB840021
:1085A0000BF5DF7150220BEB00102238F7F7CFFFED
:1085B000F8B104EB84000BF12E050021502205EBED
:1085C0000010ABF82A4007F01BF8BBF82C00BBF8F2
:1085D00010220BF5DF7100EB800005EB001006F0B8
:1085E000D1FDBBF82C00441CD9F80000ABF82C409E
:1085F00000E05846ABF82A4090F82810C90707D089
:1086000049F6EB00C0F2012006F04BFDD9F800005E
:10861000B0F8101200F5DF7002F0D0FFFFF71AFD7E
:10862000504606F03EFDD9F80000002100F5DF704D
:10863000512206F0E5FFD9F8000000255EE05AA0BF
:1086400006F02FFDD9F80000B0F81012084480F8A9
:10865000BE51A1E6BBF812329A422ED90BEB0301B0
:10866000D21A01F2BF1001F5DF7106F0ABFFD9F8A5
:108670000000B0F81212084480F8BE81D9F800005A
:1086800090F82810C90709D0B0F81212084400F574
:10869000DF7148A006F005FDD9F80000B0F810120F
:1086A000B0F812428C421BD2304606F0FAFCD9F8E0
:1086B00000000134B0F81012F4E70BEB020080F870
:1086C000BE81D9F8000090F82810C90708D049F6F3
:1086D000B4304146C0F2012006F0E3FCD9F80000B6
:1086E000B0F81012B0F812320131A0F810128AB2AC
:1086F000591C502AA0F81212FFF44EAEC0F81052C6
:108700004AE6BBF82A10BBF82C20501E884229DD0F
:10871000481C2AE0BBF81012BBF812028842BFF4D2
:108720003BAE584490F8BE1149F6B430C0F2012077
:1087300006F0B7FCD9F80000B0F812120131A0F829
:10874000121229E6BBF8120208B92FF0DBC9304635
:1087500006F0A7FCD9F80000B0F812120139A0F811
:10876000121219E60AB92FF0E9C981B2ABF82A0052
:108770008900502211FA80F10BF5DF700BEB01112B
:108780002E3106F0FFFCD9F8004004F5DF70F7F752
:108790000AFFA4F81002A4F8120220460DF0BEF859
:1087A000FAE5ABF82A50F7E5082008000825732001
:1087B000200800002573000005F013BD2DE9F04FDF
:1087C00087B040F61807BDF84490C2F20027BDF804
:1087D00040A006461C46154638684FF4F0724FF428
:1087E000F0734FF0010B4FF4B478CDE9008BFCF738
:1087F000F9FB40F6EC513868C2F200210968FEF737
:10880000B8F83868002100224FF4F073CDF80080EA
:108810004FF00008FCF703FA386831462A462B4629
:10882000CDE9004BFEF7C4F9290122014FEA0A13F2
:1088300038684FEA09161BB212B2CDE9022309B219
:10884000CDE9008100232946224636B2CDE90468ED
:10885000FBF7B6FD40F6EC513868C2F20021002269
:108860000968FCF783FB386807B0BDE8F04FFCF7F8
:10887000ADBB10B5044606F0DAFB206801280CD128
:1088800040F6E470C2F20020406900B1804740F633
:108890000800C2F2002005F0CDF8BDE8104006F057
:1088A000E9BB70B501464DF20940C0F2002001F16C
:1088B000640EC8654DF21330C0F2002045F6233235
:1088C00044F6716343F6417CC0F20122C0F20123F9
:1088D000C0F2012C43F63D448EE80D1043F6E35000
:1088E00044F6253CC0F20120886701F18C00C0F2FB
:1088F000012443F2051548F6D56643F60D3245F2DC
:108900002533C0F2012CC0F20125C0F20026C1F8C7
:1089100084C070C042F6F11001F1980CC0F201223F
:10892000C0F20123CA67C1F88030C0F2012048F6C6
:10893000272243F2F96349F20D16C0F20022C0F279
:108940000123C0F2002645F2B52E8CE84D0044F616
:10895000F93045F21F720B79C0F20120C0F20122FA
:10896000C1E92C02487903F0E00214320A7100F0E8
:1089700078020020C0F2012EC1F888E086324A71E8
:1089800070BD00002DE9F04381B0044680790007F6
:108990001AD00D4604F1440900260DF10308002702
:1089A000A17806F13500C2B24846434603F0BEF84E
:1089B0009DF80310013645F8041B0743A17901F027
:1089C0000F018E42ECD300E00027384601B0BDE82D
:1089D000F08300002DE9F04782B00446807900075B
:1089E0001CD00D4604F14409002644F22C0A0DF176
:1089F00007080027A17806EB0A0082B248464346E2
:108A000003F0B4F89DF80710013645F8041B07433E
:108A1000A17901F00F018E42ECD300E00027384627
:108A200002B0BDE8F087002070472DE9F04F85B017
:108A3000837800F144040DF11305064603911322D7
:108A4000204619462B4603F071F8B17801900DF1DC
:108A500012031022204603F069F8B17807460DF1A1
:108A600011030822204603F061F8B1780290122227
:108A700020462B4603F05AF8B1789DF813808346C0
:108A80000D2220462B4603F051F8B1789DF8139043
:108A90008246112220462B4603F048F89DF8131019
:108AA0007E2201254FF4107402EA410249064FF07C
:108AB000010158BF911C019B19F0C00243EA070352
:108AC0005FEA1F97402A08BF0427802A08F00302A4
:108AD00008BF0627B9F1BF0F88BF0827012A55EA4A
:108AE00005925FEA486543F20065C0F26E1558BF13
:108AF0004FF44474B5FBF1F19DF811509DF81260EC
:108B0000624379434DF68367C4F21B3746EA052674
:108B1000A1FB0717029972431943BB0C41EA0B01F1
:108B200041EA0A010843B2FBF3F1039A116005B070
:108B3000BDE8F08F2DE9F04184B00646884606F185
:108B400044050020B178ADF80400ADF802000DF145
:108B50000E030722284603F029F8B178BDF90E402C
:108B6000074603ABAF22284603F020F8B1780D2268
:108B7000B4F1FF3F52EAC29207430DF10A032846BF
:108B800003F014F8B1780743CC2202AB2846B4F1C5
:108B9000FF3FC8BF042203F009F8B1780743CD2294
:108BA0000DF106032846B4F1FF3FC8BF052202F0CD
:108BB000FDFF318841F224420743914203D041F244
:108BC000243081420AD1B178D82201AB2846B4F1D1
:108BD000FF3FC8BFD52202F0E9FF074309F0CDFBF4
:108BE000BDF80C204FF48073B4F1FF3F6FF02D04FB
:108BF000C8BF0123B1780646C8BF0B2413420DF14C
:108C0000020318BF6FF04404E2B2284602F0CEFF20
:108C10004DF68363BDF80810BDF80620C4F21B337F
:108C200056FB03F3BDF802601144BDF8042001FBBC
:108C300006219A1402EBD372384391FBF2F1C8F883
:108C4000001004B0BDE8F0812DE9F04F81B08778C5
:108C500000F1440506468846FF220123284639468E
:108C600003F02BF8B1780DF10309044613222846CE
:108C70004B4602F05BFFB17804430DF1020304227E
:108C8000284602F053FFB17804430DF1010310228E
:108C9000284602F04BFFB17804436B464522284634
:108CA00002F044FFB1780443122228464B4602F0FA
:108CB0003DFF9DF8031044EA00070024112211F043
:108CC00070004B4608BF40F28274402808BF40F253
:108CD000A644B1782028284608BF40F2532402F069
:108CE00025FF9DF8031047EA000B0627FF2211F02D
:108CF000820F01F03F00B17800F1020A4FF000034B
:108D0000284608BF032702F0D8FFB1784BEA000BD2
:108D1000DA2228464B4602F009FF9DF8031043F281
:108D20000065C0F26E159DF8013011F00C019DF840
:108D300002605FEA1F9204299DF80010B5FBFAF566
:108D40004FEA42024FEA830361F38F2306F00301E7
:108D500008BF01226F434DF683666243C4F21B369F
:108D60001944A7FB0637514340EA0B00BA0CB1FB8C
:108D7000F2F1C8F8001001B0BDE8F08F2DE9F04322
:108D800085B0847800F14405064688460DF113034A
:108D900043F234022846214602F0E8FEB178044648
:108DA0000DF1120343F23502284602F0DFFEB178DE
:108DB00004430DF1110343F23602284602F0D6FEB9
:108DC000B178044304AB43F23702284602F0CEFEEA
:108DD000B17804430DF10F0343F20812284602F064
:108DE000C5FEB17804430DF10E034FF454522846EA
:108DF00002F0BCFEB17804430DF10D0343F20152C1
:108E0000284602F0B3FEB178044303AB43F20252AA
:108E1000284602F0ABFEB17804430DF10B0343F694
:108E20000C02284602F0A2FEB17804430DF10A03B9
:108E300043F60D02284602F099FEB17804430DF185
:108E4000090343F60E02284602F090FEB17804436F
:108E500002AB43F60F02284602F088FE9DF80D1083
:108E600044EA00099DF80E009DF80B3009029DF8B8
:108E700009409DF80C209DF80A6041EA00409DF8E9
:108E80000810871846EA032641EA04249DF81300D7
:108E90009DF812109DF80F509DF81120B4EB171F8C
:108EA0009DF8103088BF3C090095FAF7FBFF4DF69E
:108EB000836104FB06F2C4F21B3150FB01F0811404
:108EC00001EBD070B2FBF0F0C8F80000484605B0E6
:108ED000BDE8F08300207047F0B581B0847800F1E0
:108EE000440605460F460DF1030313223046214682
:108EF00002F01CFEA97805460DF10203002230465F
:108F000002F014FE9DF802109FED151AB7EE002A2C
:108F100040EA050401F00F0600EE106AC1F380126A
:108F2000B8EEC00A02EBD112C1F340131A44C1F3E8
:108F3000001100EE012A1144012202FA01F100EEB3
:108F4000101AB8EEC00A22EE000A0CF03DFFB3EE94
:108F5000041A204620EE010A87ED000A01B0F0BD98
:108F60000000803D2DE9F04182B0857800F1440693
:108F7000074688460DF1060307223046294602F0CF
:108F800015FEB978BDF90640054601ABAF22304663
:108F900002F00CFEBDF804204FF40073B4F1FF3F63
:108FA0004FF0350151EAC194C8BF0223B97813428A
:108FB00018BF6FF045040746E2B20DF102033046D8
:108FC00002F0F4FDBDF802109FED0C1A01F07F01D4
:108FD00000EE101AB8EE400A47EA050141EA000522
:108FE00020EE010A0CF0F0FEB3EE041A284620EE43
:108FF000010A88ED000A02B0BDE8F0810000803D62
:109000002DE9F04182B0847800F1440705460E4610
:10901000FF220123384621464FF0010802F04DFEA1
:10902000A97804460DF107031322384602F07EFDAD
:10903000A97804430DF106030022384602F076FDBC
:109040009DF806109FED151AB7EE002A044301F0B3
:109050000F0700EE107AC1F38012B8EEC00A02EBDF
:10906000D112C1F340131A44C1F3001100EE012ADA
:10907000114408FA01F100EE101AB8EEC00A22EE0F
:10908000000A0CF0A1FEB3EE041A204620EE010AFD
:1090900086ED000A02B0BDE8F08100BF0000803D0F
:1090A000F0B581B0847800F1440605460F460DF115
:1090B000030343F20A523046214602F057FDA978D5
:1090C00004460DF1020343F20B52304602F04EFD0E
:1090D0009DF803109FED0C1A9DF80220044301F047
:1090E000030142EA012100EE101AB8EEC00A20EE98
:1090F000010A0CF069FEB3EE041A204620EE010AC4
:1091000087ED000A01B0F0BD0000803D00207047EF
:109110002DE9F0472DED048B82B0867800F14407ED
:109120000DF107040546984691468A4613223846B3
:109130003146234602F0FAFCA97806460DF10603F3
:109140000122384602F0F2FCA97806430DF105032E
:109150000222384602F0EAFCA978064301AB03225A
:10916000384602F0E3FCA97846EA00056922384651
:10917000234602F0DBFC9DF807101FA29DF8053086
:1091800045EA000400EE103A890758BF0432B8EEF1
:10919000400A92ED008A80EE080A0CF015FE9DF858
:1091A0000400B3EE049A01EE100AB8EE411A20EE64
:1091B000090A81EE081A8AED000AB0EE410A0CF0A5
:1091C00003FE9DF8060020EE090A01EE100A89ED63
:1091D000000AB8EE411A81EE081AB0EE410A0CF00E
:1091E000F3FD20EE090A204688ED000A02B0BDEC2E
:1091F000048BBDE8F08700BF000080420000004300
:109200002DE9F04182B090F802C000F14405044617
:10921000984616460F46FF2200232846614602F074
:109220004CFDA17804460DF10703C322284602F045
:109230007DFC00212043C7F6C07139603160C8F859
:10924000001002B0BDE8F0812DE9F04381B02DEDB2
:10925000028B82B0857800F1440704469846914617
:109260000E460DF107034FF450523846294602F0DE
:109270007DFCA17805460DF1060343F20142384614
:1092800002F074FCA17805430DF1050343F202429C
:10929000384602F06BFCA178054301AB43F2034270
:1092A000384602F063FCA17805430DF1030343F255
:1092B0000442384602F05AFCA17845EA00040DF158
:1092C000020343F20542384602F050FC9DF80710B5
:1092D00004439DF8062001F00F0142EA012100EE4F
:1092E000101AB8EEC00A0CF06FFD9DF80500B3EE41
:1092F000048A9DF8041020EE081A00F00F0086ED95
:10930000001A41EA002000EE100AB8EEC00A0CF084
:109310005BFD9DF8030020EE081A9DF8021089ED10
:10932000001A00F00F0041EA002000EE100AB8EE2B
:10933000C00A0CF049FD20EE080A204688ED000A1C
:1093400002B0BDEC028B01B0BDE8F08380B582B005
:1093500040F6201040F64411C2F20020C2F2002173
:1093600000680A6801320A60096831B940F63C11A8
:109370000022C2F20021C1E9002240F25011012274
:10938000C2F200210A704A70416829B180680190D8
:10939000684603220092884743F24840C4F23400F2
:1093A000016841F0010101604CF2C021EFF303803C
:1093B0006FF35F20C4F2000151F8202022F48032C4
:1093C00041F8202051F8200002B080BD10B5D0F83F
:1093D00008E0DEF868C00CF1010C21B18C4502D91F
:1093E000481E106010BD8C455FEA9F9C0029DEF886
:1093F00034105FEA0F944068DB0718BF090C11F0C6
:10940000100F01F00C0100685FEA1F9304295FEA66
:109410001F91032853EA818044EA0001012906D103
:1094200080F0010050EA0C0001D0032000E002208F
:10943000506010BD82B01DA005F033FE4AF24444D6
:10944000C0F20124204605F02CFE4AF2F730C0F2AB
:10945000012005F026FE204605F023FE08F090FFCF
:1094600009F0BBF80220C0F6034009F07FF90A209A
:1094700009F0F4F840F6E47444F20065C2F2002406
:10948000C6F60505F02600BF00222046294609F051
:10949000EDF9002000214FF4A0732A46009600F059
:1094A00099FD0A2007F048FFEEE700BF5468697392
:1094B00020697320612063616D6572612064697346
:1094C000706C61792064656D6F2E0A0A00000000DF
:1094D0002DE9F04F89B0002A069100F04F814FF03E
:1094E00000098046D0F888000390CDE9072800BF26
:1094F00009EB4900069901EB8008474637F8024F0F
:10950000E0066ED4B9F1000F03D0039800F036FAEC
:109510000DE0039D0021D5E900029047A869696923
:109520000130400888472868AA6800219047B7F8AA
:1095300000A00898BB461AF02005D0F8881003D187
:10954000D0F8846001E000BF0026B8F800705FEA40
:109550004A7004F02000059010D40AF00100324651
:1095600040EA4700C1B2089800F026FA0128079A9D
:109570005F4636D0ADBB059830E000BF06200491B1
:1095800000EAD714089804F1F001324600F014FA0A
:10959000012804D01DB949F282008FA60CE0F9B26F
:1095A000089800F053FA012800F0CB80002D40F01D
:1095B000C88049F282008FA6C0F20120DDF81CA00D
:1095C0005F4605F06EFD304605F06BFD48F69050A5
:1095D000C0F2012005F065FD05985246002800F014
:1095E000D980059738884746C10737F8043F21D10D
:1095F000002B00F09B80049700F0200BD8F8087037
:109600009A461D46DDF8208039784046BBF1000FB0
:109610005FEA0F9400F01AFA064600285FEA1F90EE
:1096200001DC20406AD0013D07F10107ECD1079A27
:10963000049F7DE0002B5BD0D8F808504FF0000A63
:109640001C46DDF8208000F0400002900193D8F81D
:10965000886001210494D6E900029047B0697169DD
:109660000130400888474FF000084FF0000B00BF62
:109670003046F8F717FF002838D43068F16888477B
:1096800000285FEA0F90B268002140EA480830687D
:109690009047D6E905108847BBF1070F0BF1010B86
:1096A000E6D30298049C05F8018BA4F10104DDF8CF
:1096B0002080A8B9D8F888601CB1D6E90002002142
:1096C0009047B06971690130400888473046F8F723
:1096D000E9FEB0F1FF3F60DD3068B26800219047DD
:1096E000019B0AF1010A9A45B1D19A46079A01E015
:1096F0004FF0000A388882451DD241E0079A049F46
:10970000A6B149F274001446C0F2012005F0C9FC6C
:109710004CA0314605F0C5FC48F69050C0F201203F
:1097200005F0BFFC2246B24602E000BF4FF0000A3F
:109730003888824527DB09F1010991457FF4D8AECD
:109740003CE05FEACA70079A5F463FF44AAF04986C
:10975000924600F013F944F0F1010898324600F007
:109760002BF9524601283FF43CAF002D7FF439AF6E
:1097700049F2740026A6C0F2012022E7002226E06A
:109780006FF00B021AE0BAF1FF3FC8BF6FF0FE0A9C
:10979000524613E06FF00B0211E049F27400C0F280
:1097A000012005F07EFC21A005F07BFC48F69050DE
:1097B000C0F2012005F075FC6FF07402059F388837
:1097C000000604D40398144600F024F922461046FB
:1097D00009B0BDE8F08F00BF4E41434B3A2073659E
:1097E0006E64696E67206669727374206164647266
:1097F000000000004E41434B3A2073656E64696E71
:1098000067207365636F6E6420616464720000009A
:109810004E41434B3A2073656E64696E67207265F2
:1098200070656174656420616464720041434B201B
:109830006F72204E41434B2074696D656F75742EB5
:109840000000000073656E642062797465733A20CD
:109850006572726F722025640000000070B5446C60
:1098600015460E463CB949F2C20017A1C0F20120CC
:10987000472204F091F840F6041086420ED040F6DC
:109880000310864214D040F60110864215D1B4F878
:109890004C0040F00400A4F84C000CE0D5E90012A4
:1098A000204605F090FB002805D56FF00B0070BD39
:1098B0002868C4F88000002070BD204631462A4642
:1098C000BDE8704005F01ABB6932635F6275735F73
:1098D0006465766963655F636F6E74726F6C0000B8
:1098E000F0B581B0456C1E4614460F4655B949F295
:1098F000C20049F2D101C0F20120C0F201212022B0
:1099000004F04AF854B949F2B00049F2D101C0F26A
:109910000120C0F20121212204F03EF83A0CB9B234
:1099200028462346009605F005FB01B0F0BDF0B5D2
:1099300081B0456C1E4614460F4655B949F2C20027
:1099400049F2E501C0F20120C0F20121342204F005
:1099500023F854B949F2B00049F2E501C0F2012000
:10996000C0F20121352204F017F83A0CB9B22846AA
:109970002346009605F014FB01B0F0BD10B5044677
:1099800000680121626890472046F8F78BFDA069C6
:109990006169013040088847D4E9000200219047FE
:1099A000A06961690130400888472068A2680021E9
:1099B000BDE8104010470000F0B581B0002A26D461
:1099C00017460C460546D0F8886000F03FF801289D
:1099D0001BD00137013F1BD0304600F01BF8D6E901
:1099E00005108847D6E9000200219047B0697169E7
:1099F0000130400888473068B26800219047284607
:109A0000214600F023F80128E4D1012000E00020E5
:109A100001B0F0BD10B504460068002162689047AF
:109A2000A06961690130400888472046F8F73AFD8F
:109A3000A0696169013040088847D4E9000201212A
:109A40009047D4E90510BDE81040084770B50D46B1
:109A5000D0F88840072600BF2068A2680021904700
:109A600025FA06F000F00101D4E900029047A06950
:109A700061690130400888472046F8F713FD002847
:109A800035D4013E701CE7D12068A26800219047C0
:109A9000A0696169013040088847D4E900020121CA
:109AA0009047A06961690130400888472046F8F76F
:109AB000F9FCB0F1FF3F0BDD2068E1688847002822
:109AC0002068A2684FF000015FEA1F95904710E000
:109AD00049F28200C0F2012005F0E3FA06A005F089
:109AE000E0FA48F69050C0F2012005F0DAFA6FF083
:109AF0007405284670BD00BF776169742061636B8F
:109B00002074696D656F75740000000040F638467A
:109B10000025C2F2002600BF56F8250000B180479C
:109B20000135042DF8D107F08CFA4FF0000508B983
:109B30002FF00FC0044600BF2046D4F88C7006F00A
:109B4000B7F80546012802D1204605F0B1FF0FB154
:109B50002046B8472DB9E06A04F043FB204605F0E3
:109B600057FF07F06EFA044608B12FF01BC8002516
:109B7000D2E72DE9F04182B0092904462DD0082909
:109B80003DD1A17804F1440617680DF107030E22B8
:109B90003046002F5FEA0F9801F0C8FF9DF80720BC
:109BA000A1780546304602F07F0242EAC8130E2231
:109BB00002F083F845EA00051FBBA1782D2200239F
:109BC000304602F07AF8A17804462E22002330466F
:109BD00002F073F82043054313E0A178166804F1FE
:109BE00044000DF107030E2201F0A0FF05460028F6
:109BF00007D49DF8070000F08000306001E04FF0CE
:109C0000FF35284602B0BDE8F0810000F0B581B014
:109C10000446836A48F6343040F61405C0F2012049
:109C2000C2F2002500EBC306002B2D7850F833005C
:109C3000766804BF4FF4F0764FF43C7065B9BC28E9
:109C4000D8BF782E06DDB0F5BC7FDEBFF02E400019
:109C5000760001E08000B600032963D8DFE801F058
:109C600002653D7BC0F53C7017680025C6F5F07EA7
:109C700000EBD070526846100EEBDE71A5EB600C65
:109C8000B7EB600F57EAB680A5EB610E4F10604549
:109C900040F6E85C50EAC6B0C2F2002C40F6E4564A
:109CA000B2EB610F52EAB781C2F20026BCF9002084
:109CB000714551EAC7B1B6F9007030804A40ACF83E
:109CC000001047403A4318BF002B58D02046194691
:109CD00001B0BDE8F0400AF05ABAA17804F1440599
:109CE00016680DF102030722284601F05FFFBDF858
:109CF00002201823002E064608BF0823A17822F070
:109D0000100213430722284602F007F8217B40EA9D
:109D10000605A1BBD4F8C430002100222046984794
:109D200005432CE04FF0FF3529E040F6E45113687D
:109D3000C2F200210025B1F90010196040F6E85187
:109D4000C2F200215368B1F90010196091680860EF
:109D5000D068066013E0A178166804F144000DF1A4
:109D60000203072201F022FF0546002807D4BDF8B0
:109D7000020000F0180018285FEA1F9030602846A3
:109D800001B0F0BD2DE9F04182B0092904464FF041
:109D9000FF3000F219811546DFE811F00A00690072
:109DA0001601160188008F009600A100CE00EB007E
:109DB000A16A48F63433C0F20123D5E90202B0F5B6
:109DC000226F4FF0000C53F8317003EBC103A8BFB2
:109DD0004FF42260B84250EAC78E5B68B2F5F36F69
:109DE000A8BF4FF4F362CEF522679A4252EAC388C5
:109DF0002B6807EBD7776D68C8F5F3607A10ACEB8A
:109E0000670600EBD070B3EB670F53EAB283ACEB9D
:109E1000600C4710B34253EAC2B3B5EB600F40F693
:109E2000E650C2F2002055EAB782B0F90050624510
:109E300052EAC7B640F6EA57C2F2002740F2BA1C0F
:109E4000AB42C2F2002C04BFB7F90020964200F0EA
:109E5000A280038040F2B810C2F2002000293E80A8
:109E6000ACF800E0A0F8008040F0AA80ABE040F63B
:109E7000E6502968C2F20020B0F90000086040F600
:109E8000EA50C2F200206968B0F90000086040F2B0
:109E9000BA10C2F20020A9680088086040F2B81029
:109EA000C2F20020E968008808608CE0A17804F123
:109EB000440043F2220203230CE0A17804F14400A1
:109EC00043F22202062305E0A17804F1440043F2A4
:109ED0002202082302B0BDE8F04101F004BF07F000
:109EE0008DFCA1782F6804F1440506460DF10703A7
:109EF00043F22302284601F039FE002864D49DF87D
:109F00000710002960D00DF1070800BF07F076FCAC
:109F1000801BB8425BD2012007F00EFAA17843F211
:109F200023022846434601F021FE00284CD49DF828
:109F300007100029EAD147E02868A17804F1440518
:109F400000280DF107034FF4685228465FEA0F9688
:109F500001F00CFE9DF80720A1780446284602F087
:109F6000FB0242EA86034FF4685201F0BCFE204334
:109F70002AE0A17804F144000DF107034FF4685280
:109F80002D6801F0F3FD00281ED49DF8071001F0A4
:109F90000401296018E0BCF8002096457FF459AF11
:109FA00040F2B8120380C2F2002200203E80ACF8DA
:109FB00000E01588A2F80080A84518BF002903D04A
:109FC00020460AF006FB002002B0BDE8F0814FF009
:109FD000FF30F9E72DE9F04F87B040F618078846C3
:109FE000C2F2002749F600611C46164681463868D1
:109FF000C6F607014FF4F0724FF4F073109D4FF066
:10A00000010B4FF4B47ACDE900ABFAF7EBFF40F661
:10A01000EC513868C2F200210968FCF7AAFC3868E4
:10A02000002100224FF4F073CDF800A04FF0000A99
:10A03000FAF7F5FD3868314622462346CDE9005B44
:10A04000FCF7B6FD4FEA09114FEA0812386812B260
:10A0500009B24FF4B453CDE902310023CDE9042A0B
:10A0600021462A464FF4F056CDE900A6FAF7A8F9A2
:10A0700040F6EC513868C2F2002100220968FAF774
:10A0800075FF386807B0BDE8F04FFAF79FBF0000D2
:10A090002DE9F04F83B04EA0694690ED001F49F6C0
:10A0A0003E3089ED000FC0F2012003F0DEFE48F6DD
:10A0B0009057054601244FF000084FF0F809C0F210
:10A0C00001274FF0E00A4FF0070B1F264AF200303D
:10A0D000C0F2020040F001E0002000BF296D01F84D
:10A0E0000080296D0144023081F801900FF00BC00F
:10A0F00049F61B30C0F2012004F0D3FF38A004F071
:10A10000D0FF384604F0CDFF2B6C4FF40061284699
:10A110006A4698474FF47A7007F00EF94AF2003019
:10A12000C0F2020040F001E0002000BF296D01F8FC
:10A1300000A0296D0144023081F801B00FF00BC07E
:10A1400049F61B30C0F2012004F0ABFF28A004F058
:10A15000A8FF384604F0A5FF2B6C4FF40061284699
:10A160006A4698474FF47A7007F0E6F84AF20030F2
:10A17000C0F2020040F001E0002000BF296D0E5443
:10A18000296D0144023081F801800FF009C849F6B9
:10A190001B30C0F2012004F084FF19A004F081FFFD
:10A1A000384604F07EFF2B6C4FF4006128466A4667
:10A1B00098474FF47A7007F0BFF8E0074FF00004BB
:10A1C0007FF484AF002003B0BDE8F08F00BF00BF74
:10A1D0000000000000000000E00100006801000035
:10A1E000726564206275666665722E2E2E00000010
:10A1F000677265656E206275666665722E2E2E002A
:10A20000626C7565206275666665722E2E2E000082
:10A210002DE9F04F91B00920092405F0C1FC49F661
:10A22000D65304300C9004A80D9008200F90002005
:10A2300010902AA0C0F201230C210C228DF8384086
:10A2400004F02FFF49F686446FF00B05C0F201249D
:10A25000204604F026FF0135FAD32AA004F021FF9E
:10A2600000200FF2C40B32A50CA900F019F9109CC4
:10A270000390012C2ADB9DF838600DF1100800BF17
:10A28000D8F80090F6F724F819F8041C01F07F0ABA
:10A29000F6F722F8B24515D1D9F8081058461E290C
:10A2A00005D847F6C410C0F2012050F8210099F8F3
:10A2B0001070A9F110030C210C22CDE900072846EB
:10A2C00004F0EFFE013C08F10408D9D1039808B16D
:10A2D0002FF037C0002011B0BDE8F08F252D2A2EB9
:10A2E0002A732020202020202020207479706520CF
:10A2F000202020202020202072656620636F756E4C
:10A30000740A0000202D2D2D2D2D2D2D2D2D2D2DC0
:10A310002D2D2D2D2D2D2D2D2D202D2D2D2D2D2D7A
:10A320002D2D2D2D0A000000556E6B6E6F776E007F
:10A33000252D2A2E2A7320252D32307320252D38E5
:10A34000640A00002DE9F04F91B00420042405F0C8
:10A3500027FC49F6CB6304300C9008200F900020B6
:10A36000109033A0C0F201230C210C228DF838404C
:10A3700004AC0D9404F095FE49F686456FF00B068B
:10A38000C0F20125284604F08CFE0136FAD331A034
:10A3900004F087FE49F6EB0A00200FF2D80BC0F25A
:10A3A000012A00BF0CA900F07BF8109E0390012E3B
:10A3B00036DB9DF838804FF0000900BF54F8295073
:10A3C000F5F786FF15F8041C01F07F07F5F784FF09
:10A3D000474521D1A5F1100355F8080FA842A868F8
:10A3E00014D04FF0FF37294609680137A942FBD145
:10A3F0000C210C22CDE90007584604F052FE2846F5
:10A400000BF0A6FA504604F04CFE05E00C210C229D
:10A4100000901EA004F045FE09F10109B145CDD11F
:10A42000039808B12FF043C0002011B0BDE8F08FB1
:10A43000252D2A2E2A7320202020202073657420A9
:10A4400020202073757370656E6420746872656176
:10A45000640A000020202D2D2D2D2D2D2D2D2D2D8C
:10A46000202D2D2D2D2D2D2D2D2D2D2D2D2D2D0A4C
:10A4700000000000252D2A2E2A7320203078253058
:10A48000387820253033643A00000000252D2A2E2C
:10A490002A73202030782530387820300A000000D8
:10A4A000F0B581B00D46C9684FF000042C6129B3A6
:10A4B0000646287A08B32F68002E57EA0684F5F777
:10A4C00007FF36B114F8041C2A7A01F07F0191428B
:10A4D00011D16968002600BF2468BC4206D0EA6832
:10A4E000013641F8044B9642F6D100E00024F5F71E
:10A4F000F3FE2E6102E0F5F7EFFE0024204601B0E6
:10A50000F0BD00002DE9F04F91B00520052405F0C5
:10A5100047FB49F6D76304300C9008200F900020C9
:10A52000109038A0C0F201230C210C228DF8384085
:10A5300004AC0D9404F0B5FD49F686456FF00B06AA
:10A54000C0F20125284604F0ACFD0136FAD336A04E
:10A5500004F0A7FD49F6EB0A00200FF2E80BC0F269
:10A56000012A00BF0CA9FFF79BFF109E0390012E4C
:10A5700040DB9DF838804FF0000900BF54F82950A7
:10A58000F5F7A6FE15F8041C01F07F07F5F7A4FE09
:10A5900047452BD1A5F1100355F8082FE9894FF055
:10A5A000FF37A889AA4214D02A4600BF1268013793
:10A5B000AA42FBD100910C210C22CDE9010758469B
:10A5C00004F06FFD28460BF0C3F9504604F069FD16
:10A5D0000CE02A4612680137AA42FBD100910C21F7
:10A5E0000C22CDE901071DA004F05BFD09F1010972
:10A5F000B145C3D1039808B12FF04DC0002011B070
:10A60000BDE8F08F252D2A2E2A7320656E7472798D
:10A610002073697A652073757370656E6420746841
:10A62000726561640A000000202D2D2D2D20202D43
:10A630002D2D2D202D2D2D2D2D2D2D2D2D2D2D2D57
:10A640002D2D0A00252D2A2E2A7320253034642032
:10A6500020253034642025643A000000252D2A2E60
:10A660002A7320253034642020253034642025646A
:10A670000A0000002DE9F04F91B00720072405F0F3
:10A680008FFA49F6F75304300C9004A80D90082077
:10A690000F900020109028A0C0F201230C210C2262
:10A6A0008DF8384004F0FDFC49F686446FF00B0548
:10A6B000C0F20124204604F0F4FC0135FAD32BA0AB
:10A6C00004F0EFFC4FF0000A0FF2CC0B50460CA93F
:10A6D000FFF7E6FE109C8246012C25DB9DF83890A2
:10A6E00004AD00BFD5F80080F5F7F2FD18F8041CA2
:10A6F00001F07F01494511D1A8F11007F5F7ECFDF4
:10A7000008F10C060C210C2249CE00905846CDE9E8
:10A7100001633B4604F0C5FC02E000BFF5F7DCFD39
:10A72000013C05F10405DDD1BAF1000FCED10020C6
:10A7300011B0BDE8F08F00BF252D2A2E2A732020EE
:10A74000706F6F6C2073697A6520206D6178207559
:10A750007365642073697A6520617661696C6162F2
:10A760006C652073697A650A00000000202D2D2D8C
:10A770002D2D2D2D2D2D2D202D2D2D2D2D2D2D2D16
:10A780002D2D2D2D2D202D2D2D2D2D2D2D2D2D2D06
:10A790002D2D2D2D0A000000252D2A2E2A7320256F
:10A7A0002D3031306420252D3031336420252D307B
:10A7B00035640A002DE9F04F91B00820082405F017
:10A7C000EFF949F6EB5304300C900020109038A0BC
:10A7D000C0F201230C210C228DF8384004AE0D96F6
:10A7E0000F9404F05EFC49F686446FF00B05C0F24E
:10A7F000012400BF204604F054FC0135FAD336A0F2
:10A8000004F04FFC002400BF20460CA9FFF748FECF
:10A81000DDF840800446B8F1010F41DB9DF838B007
:10A820004FF0000956F829A0F5F752FD1AF8041C5C
:10A8300001F07F05F5F750FD5D452DD10AF12005AA
:10A84000AAF110030120294609680138A942FBD169
:10A85000DAF81010DAE9062798B14042CDE9001283
:10A860000C210C22CDE9027024A004F01AFC284629
:10A870000BF06EF849F6EB00C0F2012004F011FC79
:10A880000AE0CDE900120C210C220020039022A046
:10A89000029704F006FC00BF09F10109C145C1D1CE
:10A8A0000CB12FF04FC8002011B0BDE8F08F00BFF1
:10A8B000252D2A2E2A7320626C6F636B20746F74AF
:10A8C000616C20667265652073757370656E6420B7
:10A8D0007468726561640A00202D2D2D2D20202DB5
:10A8E0002D2D2D20202D2D2D2D202D2D2D2D2D2DBF
:10A8F0002D2D2D2D2D2D2D2D0A000000252D2A2E3C
:10A900002A7320253034642020253034642020250B
:10A910003034642025643A00252D2A2E2A73202500
:10A9200030346420202530346420202530346420E5
:10A9300025640A002DE9F04F91B00620062405F0A9
:10A940002FF949F6E25304300C9008200F900020B4
:10A95000109037A0C0F201230C210C228DF8384052
:10A9600004AC0D9404F09DFB49F686456FF00B0690
:10A97000C0F20125284604F094FB0136FAD334A036
:10A9800004F08FFB49F6EB0A00200FF2DC0BC0F25B
:10A99000012A00BF0CA9FFF783FD109E0390012E32
:10A9A0003EDB9DF838804FF0000900BF54F8295075
:10A9B000F5F78EFC15F8041C01F07F07F5F78CFC09
:10A9C000474529D1A5F1100355F8081F288A4FF0F3
:10A9D000FF37A94212D0294609680137A942FBD1A5
:10A9E0000C210C22CDE90007584604F05AFB2846FA
:10A9F0000AF0AEFF504604F054FB0DE0294600BFBC
:10AA000009680137A942FBD10C210C22CDE90007CE
:10AA10001AA004F046FB00BF09F10109B145C5D1F8
:10AA2000039808B12FF04BC0002011B0BDE8F08FA3
:10AA3000252D2A2E2A7320656E7472792073757302
:10AA400070656E64207468726561640A00000000BD
:10AA5000202D2D2D2D20202D2D2D2D2D2D2D2D2D4D
:10AA60002D2D2D2D2D0A0000252D2A2E2A7320256F
:10AA7000303464202025643A00000000252D2A2E61
:10AA80002A732025303464202025640A0000000049
:10AA90002DE9F04F93B00320032405F081F849F627
:10AAA000D16304300E9008201190002012903DA038
:10AAB000C0F201230C210C228DF8404006AC0F940B
:10AAC00004F0EFFA49F686456FF00B06C0F2012557
:10AAD000284604F0E6FA0136FAD33EA004F0E1FA83
:10AAE00000200C260EA9FFF7DBFCDDF8488005905E
:10AAF000B8F1010F4EDB9DF840904FF0000A00BF07
:10AB000054F82AB0F5F7E4FB1BF8041C01F07F05AC
:10AB1000F5F7E2FB4D4539D1ABF110035BF8080FB7
:10AB20009BF8091058459BF80A20DBF80C004FF001
:10AB3000FF375D4618D000BF2D6801375D45FBD15A
:10AB4000CDE902210C210C2201902CA00096049743
:10AB500004F0A7FA58460AF0FBFE49F6EB00C0F2F3
:10AB6000012004F09EFA11E02D6801375D45FBD10C
:10AB7000019049F6C830CDE902210C210C22C0F227
:10AB800001200096049704F08CFA00BF0AF1010A34
:10AB9000C245B5D1059808B12FF05DC0002013B0B3
:10ABA000BDE8F08F252D2A2E2A732020206F776E86
:10ABB00065722020686F6C64207072696F726974AE
:10ABC000792073757370656E642074687265616452
:10ABD000200A0000202D2D2D2D2D2D2D2D202D2D49
:10ABE0002D2D202D2D2D2D2D2D2D2D202D2D2D2DAF
:10ABF0002D2D2D2D2D2D2D2D2D2D0A00252D2A2EDF
:10AC00002A7320252D382E2A7320253034642025E0
:10AC10003864202025303464200000002DE9F04FF6
:10AC200091B00220022404F0BBFF04300C900820F5
:10AC30000F900020109037A03DA30C210C228DF81E
:10AC4000384004AC0D9404F02CFA49F686456FF0B8
:10AC50000B06C0F2012500BF284604F022FA013697
:10AC6000FAD336A004F01DFA49F6EB0A00200FF2E1
:10AC7000E40BC0F2012A00BF0CA9FFF711FC109EE3
:10AC80000390012E3EDB9DF838804FF0000900BF95
:10AC900054F82950F5F71CFB15F8041C01F07F0748
:10ACA000F5F71AFB474529D1A5F1100355F8081F00
:10ACB00028894FF0FF37A94212D029460968013789
:10ACC000A942FBD10C210C22CDE90007584604F023
:10ACD000E8F928460AF03CFE504604F0E2F90DE09F
:10ACE000294600BF09680137A942FBD10C210C227B
:10ACF000CDE900071BA004F0D4F900BF09F1010958
:10AD0000B145C5D1039808B12FF04BC0002011B058
:10AD1000BDE8F08F252D2A2E2A732076202020735F
:10AD2000757370656E64207468726561640A0000F2
:10AD300073656D6170686F7265000000202D2D2DA8
:10AD4000202D2D2D2D2D2D2D2D2D2D2D2D2D2D0A63
:10AD500000000000252D2A2E2A7320253033642080
:10AD600025643A00252D2A2E2A73202530336420AD
:10AD700025640A002DE9F04FB5B00120012404F04C
:10AD80000FFF04303090082033900020349057A0FB
:10AD900058A30A210A228DF8C8400DF1A009CDF868
:10ADA000C49004F07EF949F6E63049F68C43C0F2CF
:10ADB0000120C0F201230C210C2204F072F949F6A3
:10ADC00086446FF00905C0F2012400BF204604F05C
:10ADD00068F90135FAD34AA004F063F949F68644CC
:10ADE0006FF00B05C0F20124204604F05AF901353A
:10ADF000FAD344A004F055F9002000BF30A9FFF7B2
:10AE00004FFB349F0290012F68DB9DF8C8B04FF0D4
:10AE1000000A00BF59F82A40F5F75AFA14F8041C42
:10AE2000054601F07F01594528D1A4F1100694226E
:10AE300003A8314604F0A6F92846F5F74DFA41A0DB
:10AE4000314604F02EF994F829000C210C220090D0
:10AE50003DA0334604F025F994F8280000F00701DE
:10AE60003CA0022912D003293DA00FD861B10329CB
:10AE700008D001290CD143A008E000BF2846F5F70F
:10AE80002BFA27E03CA001E038A000BF04F009F94C
:10AE9000E1694FF0FF300A4612F8013B0130232BE5
:10AEA000FAD0256A6422281A294450432269A1EB6A
:10AEB0000208B0FBF5F6606AA46C05F023FFCDE94B
:10AEC000004049F62B40C0F2012041462A46334655
:10AED00004F0E7F80AF1010ABA459BD1029808B1DB
:10AEE0002FF075C0002035B0BDE8F08F252D2A2E3B
:10AEF0002A73200072745F7468726561645F740005
:10AF000020000000202D2D2D20202D2D2D2D2D2D2C
:10AF10002D202D2D2D2D2D2D2D2D2D2D202D2D2D7B
:10AF20002D2D2D2D2D2D2D20202D2D2D2D2D2D2078
:10AF3000202D2D2D2D2D2D2D2D2D2D202D2D2D0A7E
:10AF40000000000025702000252D2A2E2A732025C0
:10AF500033642000207265616479202000000000C5
:10AF60002073757370656E640000000020696E695F
:10AF700074202020000000002072756E6E696E67DC
:10AF80000000000020636C6F73652020000000004B
:10AF90002DE9F04F91B00A200A2404F001FE49F691
:10AFA000FF5304300C9004A80D9008200F9000204F
:10AFB000109039A0C0F201230C210C228DF83840EA
:10AFC00004F06FF849F686446FF00B05C0F20124D7
:10AFD000204604F066F80135FAD33CA004F061F88D
:10AFE00049F670450020C0F2012544A40FF21C1A56
:10AFF0000CA9FFF755FADDF840800390B8F1010F76
:10B0000038DB9DF838900DF1100B00BFDBF80060C5
:10B01000F5F75EF916F8041C01F07F0149451DD1D2
:10B02000A6F11007F5F758F9D6E906030C210C2212
:10B03000CDE9000328463B4604F033F816F8030C2C
:10B04000C00754EA0A8004F02CF816F8030C8007B5
:10B0500008D449F65140C0F2012004E0F5F73CF96C
:10B0600003E000BF2DA004F01CF8B8F101080BF1BB
:10B07000040BCBD1039808B12FF047C006F0BEFBFC
:10B08000014649F65B40C0F2012004F00AF80020B6
:10B0900011B0BDE8F08F00BF252D2A2E2A73202085
:10B0A000706572696F64696320202074696D656FD3
:10B0B0007574202020206163746976617465642052
:10B0C000202020206D6F64650A000000202D2D2DAA
:10B0D0002D2D2D2D2D2D2D202D2D2D2D2D2D2D2DAD
:10B0E0002D2D202D2D2D2D2D2D2D2D2D2D2D202DAA
:10B0F0002D2D2D2D2D2D2D2D0A0000006465616351
:10B10000746976617465642000000000616374698D
:10B11000766174656420202000000000706572690B
:10B120006F6469630A00000080B5FEF783F90020B0
:10B1300080BD0000B0B54AF248544AF23C50C0F21B
:10B140000124C0F20120A04209D24AF23C55C0F2CB
:10B15000012500BF55F8040B8047A542FAD3BDE88E
:10B16000B040FFF7E1BF03F0CCBF016805290BD069
:10B1700091B94068B0F5807F0ED140F650100121A2
:10B18000C2F200200170704740F678114068C2F2A8
:10B1900000210A6810430860704710B588B046F275
:10B1A000003040F2FC72C4F234004CF2C023C4F20E
:10B1B000000301684160EFF3038002EA800040F67B
:10B1C0000422C2F20022C458024424F48034C45041
:10B1D000C05852F8404C042000900191A069616968
:10B1E000039150B10DF1100E90E80E108EE80E1084
:10B1F0009DE80E1080E80E1000E06846216988473F
:10B20000A06910B104AC1ECC1EC008B010BD10B5B2
:10B2100088B046F2203040F2FC72C4F2340040F6AE
:10B220000423C2F2002301684160EFF3038002EAC5
:10B2300080004CF2C0220344C4F20002845824F47B
:10B2400080348450805840F60C1053F8404CC2F2C1
:10B2500000200268012A04D111F0806201D002228C
:10B2600006E00268032A04D111F0006201D0002236
:10B27000026005200090A06901916169039150B1BD
:10B280000DF1100E90E80E108EE80E109DE80E10D5
:10B2900080E80E1000E0684621698847A06910B177
:10B2A00004AC1ECC1EC008B010BD70B588B046F20C
:10B2B000002640F2FC72C4F2340640F60423C2F2C7
:10B2C000002330687060EFF3038102EA81014CF2E1
:10B2D000C0220B44C4F200028D5825F480358D50F5
:10B2E000895853F8405C0321CDE9001006F1400174
:10B2F000A86902916969039150B10DF1100C90E8B1
:10B300001E008CE81E009DE81E0080E81E0000E084
:10B31000684629698847A86910B104AD2ECD2EC0B2
:10B320000120F06308B070BD10B588B046F2D0506F
:10B3300040F2FC72C4F234004CF2C023C4F20003A9
:10B3400001684160EFF3038002EA800040F60422C6
:10B35000C2F20022C458024424F48034C450C058BD
:10B3600052F8404C002000900191A069616903915E
:10B3700050B10DF1100E90E80E108EE80E109DE801
:10B380000E1080E80E1000E0684621698847A06929
:10B3900010B104AC1ECC1EC008B010BD10B588B0F2
:10B3A00046F2106040F2FC72C4F234004CF2C0234A
:10B3B000C4F2000301684160EFF3038002EA8000F9
:10B3C00040F60422C2F20022C458024424F480341D
:10B3D000C450C05852F8404C012000900191A0691F
:10B3E0006169039150B10DF1100E90E80E108EE8D6
:10B3F0000E109DE80E1080E80E1000E068462169EE
:10B400008847A06910B104AC1ECC1EC008B010BDA6
:10B4100070B588B046F2001440F2FC71C4F23404F6
:10B420004CF2C022C4F20002D4F81063C4F81463D2
:10B43000EFF3038001EA800040F60421C2F200210C
:10B440008358014423F4803383508058320751F8E5
:10B45000405C03D4B00707D5002000E0012040F68F
:10B46000F811C2F20021087002200090A86901962C
:10B470006969039150B10DF1100E90E80E108EE83D
:10B480000E109DE80E1080E80E1000E06846296955
:10B490008847A86928B10DF1100C9CE80E1080E8CF
:10B4A0000E1016F4400F0FD0206840F4807020601A
:10B4B000206940F001002061606900F01F001F2832
:10B4C000FAD1E868FCF746FD08B070BD2DE9F04FF1
:10B4D00081B004460078002852D040F2685940F20A
:10B4E0006450C2F20029C2F20020D9F80050066868
:10B4F000AE4242D249F64D484FF0000BC0F201284F
:10B500004FF0000A20463768F5F74DF8024620460E
:10B510003946F5F767F810BBBBF1000F04D1384688
:10B52000F5F741F88346BA469AF80010504659B1EB
:10B5300050463A4613783BB1994205D110F8011FA5
:10B54000013209B12FF00BC0A0EB0A003946584573
:10B5500050EABB8B404603F0A4FDD9F800501036EA
:10B56000AE42CFD3BAF1000F07D0204651465A461B
:10B5700001B0BDE8F04F05F007BC01B0BDE8F08FA9
:10B5800001B0BDE8F04F00F039B9000070B50228F5
:10B590004FF000040FDB15466AB12C6854B14E68B9
:10B5A00068683146F5F764F928B155F80C4F0CB1CD
:10B5B0002FF00BC00024204670BD00002DE9F0479D
:10B5C0008AB051B10D4604462078202801D00928C0
:10B5D00007D1013D04F10104F6D100200AB0BDE815
:10B5E000F087002120462A460378092B18BF202B1C
:10B5F00006D0013A01F1010100F10100F4D1294620
:10B60000002900F07D80204600F0AAF8002877D0BD
:10B61000E8468146002128224046002603F0F0FF3C
:10B620004FF0000A00202146A84250EA858200BF60
:10B630000B78202B01D0092B07D1824204D001F8CE
:10B64000016B0130F4E700BF1046BAF10A0F3DD29A
:10B65000A8424ED2222B1BD14A1C48F82A204F78F0
:10B66000431C00BFAB425FEA2F91222F18D0AB42A0
:10B6700016D25C2F07D1114611F8017F222F51EA13
:10B68000028208BF831C12F8017F18460133E9E7E4
:10B69000A84250EA858248F82A100AF1010A0BE014
:10B6A0000AF1010A41B302F8016B023011460AE0C7
:10B6B000824221D0013101300B78092B18BF202B99
:10B6C000F6D1A84218D2A842AED315E015A003F0D7
:10B6D000E8FC6E461BA5574656F8041B284603F0A7
:10B6E000E0FC013FF8D149F6EB00C0F2012003F085
:10B6F000D8FCBAF1000F03D069465046C8476DE741
:10B70000204600BF017841F02001202901D00130FE
:10B71000F8E7002101700CA0214603F0C2FC4FF0B5
:10B72000FF305BE7546F6F206D616E792061726747
:10B73000732021205765206F6E6C79205573653A10
:10B740000A0000002573200025733A20636F6D6D99
:10B75000616E64206E6F7420666F756E642E0A00D1
:10B760002DE9F04140F2685240F26453C2F20022E7
:10B77000C2F2002315681F68AF420DD20C46804606
:10B780003E68414630462246F4F72CFF08B9305D4A
:10B7900028B11037AF42F3D30020BDE8F081F8683C
:10B7A000BDE8F0812DE9F04120218046F4F7C5FE87
:10B7B00010B1A0EB080503E04046F4F7F4FE05469F
:10B7C00040F2685040F26451C2F20020C2F20021FF
:10B7D00004680F68A7420AD23E68414630462A46AE
:10B7E000F4F700FF08B9705D20B11037F2E70020D0
:10B7F000BDE8F081B868BDE8F081000070B511A027
:10B8000003F04FFC40F2685540F26450C2F200254C
:10B81000C2F20020296806688E420BD249F6BC3479
:10B82000C0F20124F6E80412204603F03AFC28682E
:10B830008642F7D349F6EB00C0F2012003F031FC59
:10B84000002070BD52542D54687265616420736885
:10B85000656C6C20636F6D6D616E64733A0A0000F5
:10B86000B0B5B8B104780546ACB12D2C14BF2B2C63
:10B8700015F8014F64B1F4F7D3FD0068691C00BFEF
:10B88000025D202A06D111F8014B0CB12FF009C03E
:10B89000012400E000242046B0BD00002DE9F0475F
:10B8A000054601300024002710F8011C202901D092
:10B8B00039B908E0017841F0200120291CBF013787
:10B8C00004460130F0E727B32846FFF76BFF054633
:10B8D000002875D02868002872D0012F29D0002FA9
:10B8E0006ED149F6BC340835C0F2012455F8041C69
:10B8F0002A68204603F0D5FB68680C3508B12FF0A4
:10B900000BC849F6EB00C0F20120BDE8F04703F098
:10B91000C8BB2846F4F747FE064628463146FFF7DF
:10B920001FFF00284CD1701910F8010C2028CBD033
:10B9300046E02046F4F737FE49F64D4980464FF081
:10B94000000AC0F2012900276E68214630464246AF
:10B95000F4F748FEF8B927B93046F4F724FE074655
:10B96000B2469AF80010504661B15046324600BFC8
:10B9700013783BB1994205D110F8011F013209B18A
:10B980002FF00BC0A0EB0A003146B84250EAB7874F
:10B99000484603F086FB55F80C0F08B12FF02DC078
:10B9A00049F6EB00C0F2012003F07BFBBAF1000F77
:10B9B00006D0204651463A46BDE8F047F4F72DBF81
:10B9C000BDE8F087B0B580B1016871B100F108053C
:10B9D00006A400BF55F8041C2A68204603F061FB4A
:10B9E00068680C3508B12FF00BC8B0BD20202020AE
:10B9F000252D313673202D2025730A0010B582B015
:10BA00004DF2AD410446C0F20021C1654DF26330F4
:10BA100004F1640CC0F2002045F6573144F69572EB
:10BA200044F28F13C0F20121C0F20122C0F20123BF
:10BA300004F18C0E8CE80F0043F6B34043F28521ED
:10BA4000C0F2012048F6657242F6A53348F6353C4F
:10BA5000C0F20121C0F20022C0F20123C0F2002C8A
:10BA60008EE80F1044F67F4045F2B171C0F201201C
:10BA7000C4F8B0002079C0F201216279C4F8B41092
:10BA800049F60D4100F0E000C0F20021C4F8C010FA
:10BA90000830207102F08C00A1780130607104F14F
:10BAA00044000DF106036B2200F080F8BDF806108B
:10BAB00001F46061B1F5406F11D140F6140101222B
:10BAC000C2F200210A7041F22432218891420DD045
:10BAD00041F2133291420CD141F2134108E040F699
:10BAE00014010022C2F200210A7002E041F2244156
:10BAF000218002B010BD00207047000010B5044640
:10BB0000C0E9001207A002F0B0F9014640F6033088
:10BB10000123C4E90230002040F20E52C4E904219E
:10BB200010BD00BF69326331000000002DE9F04113
:10BB300082B04E08984605468DF8072040690DF101
:10BB40000703002231460124009403F029FA074636
:10BB50006869012231464346009403F0EBF938440A
:10BB600002285FEA0FA002B0BDE8F081F0B583B013
:10BB700005464E081C4650BAADF80A0068690DF13A
:10BB80000A03002202210091314603F009FA074618
:10BB900068690122012100913146234603F0CAF968
:10BBA000384403285FEA0FA003B0F0BDF0B583B0BE
:10BBB0004E081C4605468DF80B2040690DF10B031D
:10BBC000002201210091314603F0EAF90746686935
:10BBD0000122022100913146234603F0ABF921886E
:10BBE000384403285FEA0FA009BA090C218003B08A
:10BBF000F0BD00002DE9F04F87B09146019100297A
:10BC00005FEA1F91002A5FEA1F9206464FF0000A82
:10BC10004FF015082A270DF11B0B03AC002541EA54
:10BC2000020002907069012221468DF81BA0ADF838
:10BC30000C80CDF80EA0CDF814B003F0C4F90128A3
:10BC40000BD10CA0394603F02CFA029860B94D458F
:10BC50000BDA0199681C4F55054608F101080237B7
:10BC6000B8F1780FDED100E03D46284607B0BDE8C8
:10BC7000F08F00BF6932632070726F62652063616C
:10BC80006D6572612069643A3078253032580A0057
:10BC900010B582B0BDF810409446490840694FEA9B
:10BCA000C41E1C465FFA8EF20093634603F078F9D7
:10BCB000A0425FEA0FA002B010BD80B582B0490873
:10BCC0008DF806208DF8073040690DF1060300223B
:10BCD0004FF0020CCDF800C003F062F902285FEAD1
:10BCE0000FA002B080BD80B582B049084FEA122C87
:10BCF0008DF806208DF8073040690DF1050300220C
:10BD00008DF805C04FF0030CCDF800C003F048F9E2
:10BD100003285FEA0FA002B080BD80B582B0490859
:10BD20008DF805201A0A8DF806208DF80730406935
:10BD30000DF1050300224FF0030CCDF800C003F015
:10BD40002FF903285FEA0FA002B080BD70B501464D
:10BD50004DF2217001F15C05C0F2002045F6D512CC
:10BD60004DF28B3345F6713C44F6C17EC0F20122A0
:10BD7000C0F20023C0F2012CC0F2012E85E80D5064
:10BD800043F65D6045F2B92CC0F2012043F659320A
:10BD900045F2D133C0F2012C43F22D4549F20106A0
:10BDA0008867C1F888C042F6675001F1980CC0F26C
:10BDB0000122C0F20123C0F20125C0F20026CA67A9
:10BDC000C1F88030C1E92456C0F2012048F649424A
:10BDD00043F6551349F20126C0F20022C0F20123B6
:10BDE000C0F200268CE84D0044F6175001F1B00C6B
:10BDF000C0F2012045F6490245F2AD53C0F20122DE
:10BE0000C0F2012344F265348CE80D004879C0F299
:10BE100001240C6744F6653443F64D5E74220A71C2
:10BE200000F078020020C0F20124C0F2012EC1F817
:10BE30008440C1F88CE082324A7170BD70B5014611
:10BE40004DF2857001F15C05C0F2002045F6192223
:10BE50004DF2B33345F68B3C45F26D0EC0F2012234
:10BE6000C0F20023C0F2012CC0F2012E85E80D5073
:10BE700043F6BF6045F2E52C43F6A35EC0F2012015
:10BE800043F6BB3245F23343C0F2012CC0F2012E1F
:10BE90008867C1F888C0C1F88CE042F62B7044F680
:10BEA0006D5C45F69D0EC0F20122C0F20123CA6707
:10BEB000C1F88030C0F2012048F67D5243F6A91344
:10BEC000C0F2012CC0F2012EC1F89800C1E92CCEBD
:10BED00045F2456001F1B80CC0F20022C0F2012326
:10BEE000C1F89C20C1F8A030C0F2012044F63162B4
:10BEF00049F68553C0F20122C0F200238CE80D0000
:10BF0000487944F2D35495220A718A79C0F2012407
:10BF10000C6744F6973443F2B55549F2A10600F098
:10BF20007800C0F20124C0F20125C0F20026C1F859
:10BF3000844048F6D514C1E9245649F2492642F610
:10BF40006D158230487102F0F0020020C0F2002628
:10BF5000C0F20125C0F20024C1F8A4600832C1E992
:10BF60002A548A7170BD10B501464DF6D90045F6C8
:10BF70003B224DF2DB33C0F20020C0F20122C0F2BE
:10BF80000023C8650A664B6644F6AD5045F6DD02EF
:10BF90000B79C0F20120C0F20122C1E92C024879DC
:10BFA00003F0E00245F69B3C45F2492E44F6D124CD
:10BFB00005320A7100F078020020C0F2012CC0F2B4
:10BFC000012EC0F20124C1F868C0C1F86CE00C6712
:10BFD00086324A7110BD70B501464DF2554001F1EF
:10BFE0005C05C0F2002045F691124DF23B3345F658
:10BFF0003D3C44F6F16EC0F20122C0F20023C0F2D3
:10C00000012CC0F2012E43F6B97442F6F50685E81C
:10C010000D5043F6376001F1780CC0F201240C6733
:10C02000C0F2012043F6113245F28B3344F6293435
:10C03000C0F20122C0F20123C0F2012449F211151D
:10C040008CE81D0043F6414048F62B2CC0F201203D
:10C0500043F2091248F6D963C0F2002CC1F88C00F3
:10C06000C1F89CC048F6851001F1AC0CC0F2012269
:10C07000C0F20023C0F20025C0F20126C1F89020D2
:10C08000C1F89430C1E92956C0F2002044F641427B
:10C0900045F2697345F25956C0F20122C0F20123FC
:10C0A000C0F201268CE84D00087942F66F244A79E7
:10C0B000C0F2012400F0E0008B790530087102F035
:10C0C000780043F6090EC1F8984044F6EB5549F65E
:10C0D00073348630487103F0F0020020C0F2012E64
:10C0E000C1F8A0E0C0F20125C0F20024C1E92F543C
:10C0F00008328A7170BD00002DE9F04F89B00D46FD
:10C10000044601A820211F469246DDF85490F4F71A
:10C110005DFB5FEA49607AA07EA150EA51835FEA45
:10C12000C9604FF0300848BF29F001095FEAC970C3
:10C1300008BF4FF020085FEA897002D44FF0000C6E
:10C1400021E012984C2818BF6C2809D1BAF1FF3FA2
:10C1500015DD5FEA49700FD4202000EA890C12E057
:10C160006828F3D15FEA0A40F3D5CAF100004FF026
:10C170002D0C1FFA80FA06E04FF02B0C03E0CAF1F9
:10C18000000A4FF02D0C19F0200BDDF84CE00AD01E
:10C19000102F03D0082F04D0022F04D1AEF1020ECD
:10C1A00001E0AEF1010EBAF1000F0ED0002101A89E
:10C1B000BAFBF7F6BA4501F1010106FB17A2B24638
:10C1C0009A5C00F8012BF3D203E030208DF80400D4
:10C1D0000121DDF850A0514551EACA8319F0110F31
:10C1E000AEEB030018D1BCF1000F5FEA0F920028FC
:10C1F0005FEADF963240801A01280CDB40F001E054
:10C2000020224FF0FF3000BFAC4238BF2270013413
:10C210000FF007C000E00138BCF1000F06D0AC42BF
:10C22000A0F1010038BF84F800C00134BBF1000F59
:10C2300023D0102F12D0082F0AD0022F1DD1AC42CC
:10C2400001D230222270621CAA4215D2622712E06B
:10C25000AC4201D23022227001340EE0AC4201D255
:10C2600030222270621CAA4206D25FEA49674FF070
:10C27000580758BF7827177002345FEAC9620ED496
:10C2800001280BDB40F001E04FF0FF30AC4238BF3B
:10C2900084F8008001340FF007C800E001385145F0
:10C2A00008DAA3EB010E3022AC4238BF2270013411
:10C2B0000FF007C0BAF1000F12D00A460129A8BF3B
:10C2C00001228A1A02F1010E01AA1144013900BFAC
:10C2D000AC4201D20A782270013401390FF009C052
:10C2E000012809DB40F001E0202000BFAC4238BF4C
:10C2F000207001340FF007C0204609B0BDE8F08F70
:10C3000030313233343536373839616263646566CB
:10C31000000000003031323334353637383941428D
:10C3200043444546000000002DE9F0438DB001AACA
:10C330000C460646101D1421F4F748FA022E76DB4F
:10C3400067680FF248413846F4F792FA002800F087
:10C350009D8040F6E059C2F20029D9F80050002D26
:10C3600000F0B1800FF22C413846F4F781FA002832
:10C3700000F0B78049F6ED013846C0F20121F4F72C
:10C3800077FA002800F0D0800FF210413846F4F719
:10C390006FFA002800F0E3800FF204413846F4F70A
:10C3A00067FA002800F0F48049F607113846C0F219
:10C3B0000121F4F75DFA002800F0168149F6F50135
:10C3C0003846C0F20121F4F753FA002800F07281D8
:10C3D00049F22330C0F2012002F063FE49F2AE4080
:10C3E000C0F2012002F05DFE49F22760C0F2012098
:10C3F00002F057FE49F2AA60C0F2012002F051FE9D
:10C4000049F26F70C0F2012002F04BFE49F2F67063
:10C41000C0F2012002F045FE49F27050C0F2012046
:10C4200002F03FFE49F22F50C0F2012027E049F20E
:10C430002330C0F2012002F034FE49F2EF40C0F296
:10C44000012002F02EFE49F26960C0F2012002F0E4
:10C4500028FE49F22D70C0F2012002F022FE49F2BE
:10C46000B370C0F2012002F01CFE49F63A00C0F29F
:10C47000012002F016FEA6A002F013FEB3A002F007
:10C4800010FE002630460DB0BDE8F083032E23D108
:10C49000A06801F0EAFC49F6FF0149F60D12C0F26E
:10C4A0000121C0F20122002851EA028240F6E05147
:10C4B000C2F20021086049F69D00A168C0F2012087
:10C4C00002F0EFFDDDE749F2AD30C0F2012002F0ED
:10C4D000E8FD6FF0FE06D5E749F27040C0F201209A
:10C4E000CDE7032E2AD1A068F4F71AF801462846B2
:10C4F00003F0A6FC49F60D1149F6FF020028A068DA
:10C50000C0F20121C0F2012251EA0285D9F800608F
:10C51000F4F706F8024649F25A30C0F201203146DB
:10C520002B4602F0BEFDACE7032E2CD1A068F3F73A
:10C53000F7FF0146284603F05FFCA2E749F2E85006
:10C54000C0F2012002F0ADFD49F2AD50C0F2012071
:10C5500002F0A7FD49F6AA00C0F201208FE7A0680B
:10C56000F3F7DEFF019001AA41F60361284601F0CE
:10C570004FFC0028D9F800505ED049F28C30294693
:10C58000C0F2012087E049F2ED60C0F2012076E7B9
:10C59000052E40F08380A068F3F7C2FF0746E068ED
:10C5A000F3F7BEFF80462069F3F7BAFF0026002F9D
:10C5B0000C96CDE90A6600D57F42099007AA41F69C
:10C5C00002612846CDE9077801F022FCA068D9F87D
:10C5D0000050F3F7A5FF024649F24E40C0F2012099
:10C5E000294602F05EFD4DE7042E7FF44AAFA068B5
:10C5F000F3F796FF0646E068F3F792FF0DF11C088B
:10C60000074608F104001421F4F7E0F8002E00D5E5
:10C61000764241F609612846424607960B9701F09B
:10C62000F7FBE068D9F80050F3F77AFF024649F2C9
:10C630004530C0F2012064E0A068F3F771FF0246C4
:10C6400049F2DC30C0F20120294602F02AFD49F20D
:10C650003C400299C0F2012002F023FD49F22A4039
:10C660000399C0F2012002F01CFD9DED020A9DED30
:10C67000031AB8EE411B49F27830B8EE400BC0F215
:10C68000012081EE000B9FED201B20EE010BBDEE83
:10C69000C00B10EE101A02F004FDF2E649F67D0020
:10C6A0002946C0F2012002F0FCFC49F2FF30C0F242
:10C6B0000120E4E6042E7FF4E4AEA068F3F730FF37
:10C6C0000646E068F3F72CFF0DF11C08074608F159
:10C6D00004001421F4F77AF8002E00D5764241F6D2
:10C6E00008612846424607960A9701F091FBE068E8
:10C6F000D9F80050F3F714FF024649F22C30C0F28B
:10C7000001202946DCE600BF00000000000059407F
:10C7100070776D2070686173652020202020203C98
:10C720006368616E6E656C3E203C70686173653E47
:10C7300020202020202020202020202D2073657400
:10C740002070776D2070686173650A0070776D20C6
:10C75000646561645F74696D6520203C6368616E27
:10C760006E656C3E203C646561645F74696D653E16
:10C77000202020202020202D207365742070776DCC
:10C7800020646561642074696D650A0070726F626F
:10C7900065000000656E61626C650000676574008D
:10C7A000736574002DE9F04F84B003689BB3C368D0
:10C7B00043F20016C4F234069BA706EB0229D0F818
:10C7C00008A057F8237047F2F8253F07C9F81C70F6
:10C7D000C7680E88C0F2012540F6101E34B2C2F2BE
:10C7E000002E35F81780002C85680393CDE9015A97
:10C7F0001CD440F61816C2F200263688A64215DB75
:10C8000085881FFA84FAA6EB0A06D0F800B0AE427B
:10C8100056EAB58E47E043F200100121C4F234001D
:10C8200000EB0220016200214160F9E0B4F1FF3F1A
:10C8300006DDD0F800B04FF0000A4FF0000E32E0F5
:10C84000B0F804C00CEB0406012EF2DBA7F10805DA
:10C8500015F1030F05D84FEAD8054027B7FBF5F7C8
:10C8600000E0012765420096ADB2BEF900B0B5FB0D
:10C87000F7F65F4506FB175504DD2F191CFA87FEF6
:10C88000002704E06F42009BBDB2A3EB050E04FB42
:10C8900008F51FFA87FAEC1705EB54750468A4EB4A
:10C8A000E50525F03F0B1FFA8EF5447C05FB08F5E6
:10C8B000B1F902C0002C4FEAD50401D0C5886C4301
:10C8C000BCF1000F11D440F61C15C2F200252D88D2
:10C8D00065450ADBC788A5EB0C05BD4255EAB7885C
:10C8E0004AEA0C474FEA174C13E0BCF1FF3F02DD68
:10C8F0004FF000080BE0C588434605EB0C08B8F183
:10C90000010FF5DB019D5D43ED0805FB1CBB4FF0FE
:10C91000000CC9F80CB03F34477C57B1478A00255A
:10C92000C9F810501FFA88F5408AB84600FB05F395
:10C9300014E0039B47F2F825C0F20125007C35F88E
:10C940001370029B002803FB07F71FFA88F34FEAD6
:10C95000D70757EA07B00004C9F81000A8F101078B
:10C960004FF0FF356FF3DF2740F6101005EB9415FD
:10C97000C2F20020C5EA0747C9F8187007886FF3AC
:10C98000DF2E76466FF3DF23574467F31A46C9F864
:10C990002860048840F61417C2F200271846544451
:10C9A00064F31A4EC9F830E03E88664466F31A40D4
:10C9B000C9F824003888604460F31A43C9F82C3061
:10C9C000886828B1012805D1087B0021000407E010
:10C9D000032017E0087B4FF47F01000400F1807012
:10C9E000C9F8340040F64410C9F83810C2F20020EB
:10C9F00040F63C11C2F200210068023041F82200EA
:10CA000041F20300C9F820000120C9F80400002108
:10CA1000C9F8501040F25011C2F20021087048705D
:10CA200004B0BDE8F08F00BF04000000010000006A
:10CA300000000000020000000300000005000000EC
:10CA40000600000007000000002828D44EF2001C59
:10CA50000901CEF2000C00EB0C0383F8001340F642
:10CA60000421C2F20021012341F820204CF20031C0
:10CA7000C4F2000151F8202022F4803241F8202035
:10CA800051F82010410900F01F00BFF35F8F0CEB3D
:10CA9000810203FA00F0C2F880014CF821007047CF
:10CAA00070B50446F7F790F940F6841CEFF3108058
:10CAB000C2F2002C012181F31088DCF8001039B992
:10CAC00040F614510022C4F240010A7040220A705C
:10CAD000DCF800100131CCF8001080F310882088B9
:10CAE00028B340F6000E0021C4F2400E606800EB4F
:10CAF000C10250F831305268D8034FEA122001D4F5
:10CB0000D2B20CE00EEB8015D2B255F8226026F4BA
:10CB1000803645F8226023F4803645F822600EEB1B
:10CB20008010013140F8223020888142DED301207C
:10CB3000EFF3108180F31088DCF8000020B1DCF8FE
:10CB400000000138CCF80000DCF8000038B940F6ED
:10CB500014500022C4F2400002708022027081F35F
:10CB6000108870BD46F60842C4F23402916921F083
:10CB700001019161116841F0010111609368014662
:10CB800023F001009060002000220A60704700003E
:10CB9000F0B54EF220028446C4F201021368127905
:10CBA00042EA133E02F00F025FEA0E70C3F3033055
:10CBB00009D440F27843C2F200231B6803FA02F260
:10CBC00022FA00F01BE002F0070E032707FA0EF42A
:10CBD0000126082A4FEA133538BF06FA02F440F25C
:10CBE000784205F00705C2F20022AF401B0412682C
:10CBF00004FB02F258BF06FA00F7B2FBF7F04DF65D
:10CC000083624FF0FF33C4F21B32A0FB020246F6F0
:10CC10000040C4F23400076803EB92423B0A63F31E
:10CC20001F220260026942F001020261C269D2075A
:10CC3000FCD00A6842600A79C36862F30403C360E7
:10CC4000826822F001028260C269D205FCD58A683E
:10CC500013686FF3DF434362137983625379C362CE
:10CC600093680363D3684363127C8263026A42F071
:10CC70000102026244F650120020C4F65052CCE980
:10CC80000021F0BDB0B584B00446806A40B1D0E95F
:10CC900000CED0E90235CDE90235CDE900CE00E085
:10CCA0006846E369D4F824C0E56A1B78C0E9021538
:10CCB000C0E90032E047A06A10B19DE82E002EC006
:10CCC00004B0B0BD2DE9F04F87B048F2E80740F658
:10CCD000501440F6541B48F6905AC0F201273920F0
:10CCE0000026C2F20024C2F2002B01AD0FF2800830
:10CCF0000FF29009C0F2012AF96903913978FE28F0
:10CD00008DF804600290ADF8101007F10101CDE933
:10CD1000051605D106204FF47A71F3F764FF13E08E
:10CD2000584629462670F4F75CFF48B1404602F0A9
:10CD3000B8F9484602F0B5F9504602F0B2F900BF22
:10CD4000207808B92FF005C0B86B2037FD28D3D163
:10CD500013A002F0A6F917A002F0A3F948F690502C
:10CD6000C0F2012002F09DF907B0BDE8F08F00BFCE
:10CD70001B5B33316D5B452F6D6970695F6366675F
:10CD80005D200000525F4D4950495F4453495F4365
:10CD90006F6D6D616E64206572726F720A000000C3
:10CDA0001B5B306D5B442F6D6970695F6366675D07
:10CDB00020000000696E69746564206D69706920E7
:10CDC00064736920636F6E666967730A0000000010
:10CDD00080B5006802F0CCFF80BD80B5406802F0ED
:10CDE000C7FF80BDF0B583B0A1F50061032900F253
:10CDF000728005461446DFE801F00252555B286D4B
:10CE000044F2FF5200F01F01C0F20502114401225A
:10CE1000BFF34F8F02EB511E4EF67071CEF2000140
:10CE2000086020300FF005C040F6843040F25817FB
:10CE3000BFF34F8FC2F20020C2F20027BFF36F8F03
:10CE400040F600210068C2F200213A688242A288BE
:10CE5000096851EA0081E38826886488286D396072
:10CE6000CDE90064FBF7AAFC40F628103968C2F24D
:10CE700000200022F4F747F840B149F642311BA0E8
:10CE8000C0F2012140F2151200F086FD41F2B4001B
:10CE90004FF0FF31C2F2002000F01EFE1BE008F050
:10CEA000EFFD18E040F60B20002102F081FF12E0B8
:10CEB00044B949F6423109A0C0F201214FF49472FD
:10CEC00000F06AFD95F84800207010206070E86C52
:10CED0006060286DA060002003B0F0BD696E666FD1
:10CEE00020213D2052545F4E554C4C0065727220FB
:10CEF0003D3D2030000000006FF0FE0070476FF0F5
:10CF0000FE00704710B5044603F01AFF042833D121
:10CF1000207840F0200070282ED16078A0F13001F8
:10CF2000092911D8A178A1F13002092A24D8E27880
:10CF3000A2F13003092B1FD801EB8101000200EBA5
:10CF4000410043F2102114E0A0F14101192913D846
:10CF5000A178A1F13002092A0ED8E278A2F13003BB
:10CF6000092B09D801EB8101000200EB410043F6D7
:10CF700010111044401A10BD4FF0FF3010BD6FF07B
:10CF8000FE007047B0B50C4640F6481047F6402109
:10CF9000C2F20020C0F201211546F4F75DFC88B111
:10CFA0001CA449F60D30C0F2012002F07AF82046A8
:10CFB00002F077F848F69050C0F20120BDE8B0408A
:10CFC00002F06FB8042D0DD0012D16D005BB40F630
:10CFD00048100122C2F200202146F4F748FCB8B103
:10CFE00024A4DEE740F648104022C2F20020214689
:10CFF000F4F73DFC60B10CA4D3E740F648100022E2
:10D00000C2F200202146F4F732FC08B110A4C8E7B0
:10D01000B0BD00BF4750494F206F70656E206661FC
:10D02000696C65640000000050494E5F4D4F4445F7
:10D030005F4F55545055545F4F4420636F6E66697F
:10D040006775726174696F6E206661696C656400F2
:10D0500050494E5F4D4F44455F494E5055542063F3
:10D060006F6E66696775726174696F6E206661695B
:10D070006C65640050494E5F4D4F44455F4F5554B9
:10D0800050555420636F6E66696775726174696F7D
:10D090006E206661696C65640000000080B5B1F5C2
:10D0A000316F10D349F60D30C0F2012001F0F9FFC5
:10D0B0000DA001F0F6FF48F69050C0F2012001F0FB
:10D0C000F0FFFF200DE06FF03F00CAB200EA9100D0
:10D0D00040F6000100EB8200C4F240014058C0F36A
:10D0E000400040B280BD00BF4750494F2070696E7C
:10D0F0002076616C756520697320696C6C65676169
:10D100006C000000B0B5EFF3108C012080F31088A4
:10D1100040F68410C2F20020012A5FEA1F950368DE
:10D120004BB940F6145E0023C4F2400E8EF8003076
:10D1300040238EF8003003686FF03F0ECCB20EEA49
:10D1400091010133036040F6000301EB8401C4F256
:10D1500040038CF3108843F6FA72CC58CFF6FE7277
:10D1600022402A440432CA500122EFF3108182F394
:10D170001088026812B10268013A0260006838B98A
:10D1800040F614500022C4F2400002708022027067
:10D1900081F31088B0BD00295FEA0F91006802F0AA
:10D1A00007BE00295FEA0F91406802F001BE00004F
:10D1B000B0B504460D4650B949F6621049F67E31C5
:10D1C000C0F20120C0F20121D12200F0E5FB3DB9FF
:10D1D00049F67E310DA0C0F20121D22200F0DCFB25
:10D1E00054B949F6613049F67E31C0F20120C0F2EF
:10D1F0000121D62200F0D0FBE16ED1E90101F4F764
:10D2000077FF002818BF6FF0FE00B0BD636667208F
:10D21000213D2052545F4E554C4C00000020704779
:10D220000020704770B505460C4698B949F671362E
:10D2300049F66210C0F20126C0F20120EA2231460E
:10D2400000F0AAFB49F66130ED22C0F20120314620
:10D2500000F0A2FBE86E4068016A4C60006A00BF03
:10D26000816C4900FCD5002070BD000070B50546FA
:10D2700014460E4658B949F6621049F69031C0F28C
:10D280000120C0F201214FF4867200F085FB46B9FF
:10D2900049F690310AA0C0F2012140F20D1200F0CF
:10D2A0007BFB5DB949F6613049F69031C0F201204F
:10D2B000C0F2012140F20F1200F06EFB204670BD5B
:10D2C00062756620213D2052545F4E554C4C000043
:10D2D00080B54EF2140144F6D352CEF20001C1F2F1
:10D2E00062020023D1F800C00CFB00F0A0FB020298
:10D2F00048684FEA921E00BF4A689042FCD003443F
:10D300009042A3EB0203104698BF63447345F3D3E6
:10D3100080BD80B582B090F802C04430CAB20DF131
:10D3200007036146FEF702FC9DF80710002818BFAE
:10D330004FF0FF31084602B080BD80B582B090F852
:10D3400002C04430CAB20DF107036146FEF7EEFB9E
:10D350009DF80710002818BF4FF0FF31084602B0B3
:10D3600080BD80B582B090F802C04430CAB20DF1E1
:10D3700006036146FEF71AFCBDF80610002818BF28
:10D380004FF0FF31084602B080BD80B582B090F802
:10D3900002C04430CAB20DF107036146FEF7C6FB76
:10D3A0009DF80710002818BF4FF0FF31084602B063
:10D3B00080BD80B582B082788C4644300DF1070381
:10D3C00011466246FEF7D2FB9DF80710002818BFF1
:10D3D0004FF0FF31084602B080BD80B582B090F8B2
:10D3E00002C04430CAB20DF107036146FEF79EFB4E
:10D3F0009DF80710002818BF4FF0FF31084602B013
:10D4000080BDF5F761FA000070B500F144044221D7
:10D41000FE2201232046FEF750FC40F2BC160025F8
:10D42000C2F20026A8B216F81020FF2A08D072B166
:10D4300006EB4000422143782046FEF73EFC04E024
:10D4400006EB4000407803F077FF0135EAE7002063
:10D4500070BD00002DE9F041817800F144080446D8
:10D46000122280234046FEF728FC0546022003F0E6
:10D4700063FF47F24B303D22C0F201204626871C55
:10D48000A17817F8013CD2B24046FEF716FC17F817
:10D49000022B013E45EA0005F2D1207B18B94FF47A
:10D4A000967003F049FF2846BDE8F0812DE9F04F62
:10D4B00095B0044640F6E450C2F200200022A17864
:10D4C00004F14405028040F6E850C2F20020012336
:10D4D00002800C222846FEF720FC218841F22442DB
:10D4E0000646914203D041F22430814212D1A17804
:10D4F0000DF1520307222846FEF758FBBDF85220D3
:10D50000A1780746284622F400730722FEF705FC9F
:10D5100038430643A1780DF152030D222846FEF749
:10D5200045FBBDF85220A1780643284642F030035F
:10D530000D22FEF7F2FB218841F22442064391427C
:10D5400004D041F22430814240F0D780A1780DF11F
:10D5500052030E222846FEF729FBBDF85220A1787F
:10D560000F90284642F030030E22FEF7D6FBA1783A
:10D570000E9014AB08222846FEF718FBA178BDF8E0
:10D5800050300D90CF222846FEF7C7FBA1780C90B3
:10D590000DF14E0309222846FEF708FBA178BDF8DD
:10D5A0004E300B90D0222846FEF7B7FBA1780A90A8
:10D5B00013AB0A222846FEF7F9FAA178BDF84C30E1
:10D5C0000990D1222846FEF7A8FBA17808900DF11A
:10D5D0004A0331222846FEF7E9FAA178BDF84A301D
:10D5E000079039222846FEF798FBA178069012ABE7
:10D5F00032222846FEF7DAFAA178BDF848300590C5
:10D600003A222846FEF789FBA17804900DF14603E3
:10D6100033222846FEF7CAFAA178BDF846300390B7
:10D620003B222846FEF779FBA178029011AB342209
:10D630002846FEF7BBFAA178BDF8443001903C22A1
:10D640002846FEF76AFBA17800900DF142033522CF
:10D650002846FEF7ABFAA178BDF842308146362263
:10D660002846FEF75AFBA17882460F22002328465F
:10D67000FEF753FBA17883461C2240F20223284682
:10D68000FEF74BFBA1780746702240F201132846B3
:10D69000FEF743FBA1788046AF2240F203332846D1
:10D6A000FEF73BFBDDE90E2111430D9A11430C9A65
:10D6B00011430B9A11430A9A1143099A1143089A8C
:10D6C0001143079A1143069A1143059A1143049A8C
:10D6D0001143039A1143029A1143019A1143009A8C
:10D6E000114341EA090141EA0A0141EA0B013943C8
:10D6F00041EA080108432188064341F21340814270
:10D7000003D041F21330814206D1A1787422102354
:10D710002846FEF702FB0643304615B0BDE8F08F01
:10D720002DE9F041817800F144080446FF220123ED
:10D730004046FF27FEF7C1FAA17806461222802351
:10D740004046FEF7BAFA0643052003F0F5FD47F21E
:10D75000D930C0F20120851CA17815F8013CFAB23D
:10D760004046FEF7AAFA15F8027B06430FB12FF0E8
:10D770000DC8207B18B94FF4967003F0DDFD3046DC
:10D78000BDE8F0812DE9F04383B0814640F6E650D4
:10D79000C2F20020002240F6EA5109F1440502805D
:10D7A00040F2BA10C2F20021C2F2002011230A8016
:10D7B0004FF42261018040F2B810C2F200204FF411
:10D7C000F361018040F68830C2F2002099F802101F
:10D7D000028043F203122846FEF785FA99F80210F8
:10D7E000064643F2080282232846FEF77CFA0643E7
:10D7F000052003F0A1FD47F237504721C0F2012078
:10D80000C41C00BF14F8020C14F8013C40EA0120CB
:10D8100099F8021082B22846FEF765FA14F8031B45
:10D82000064309B12FF013C099F802104FF440528B
:10D8300020232846FEF757FA99F8021080468020E8
:10D84000ADF80A000DF10A020223022000902846DA
:10D85000FEF71EFA99F8021046F26F220746C0F250
:10D86000012240F6ED73002000902846FEF710FAE2
:10D8700048EA07013022084346F25421C0F2012150
:10D880000643CF1C082400BF17F8020C99F80210B9
:10D8900017F8013C40EA022082B22846FEF723FA3C
:10D8A00017F8032B013C46EA0006EDD199F8021067
:10D8B0004FF4405200232846FEF715FA99F80C1051
:10D8C000044619B94FF4967003F036FD44EA060099
:10D8D00003B0BDE8F0830000F0B581B0817800F1BD
:10D8E00044060446122280233046FEF7E6F9054638
:10D8F000022003F021FD47F68E001122C0F2012024
:10D90000871C00BFA17817F8013CD2B23046FEF761
:10D91000D4F917F8022B0543FF2AF3D1207B18B95D
:10D920004FF4967003F008FD284601B0F0BD0000EA
:10D9300010B582B04BF235110A2000900BA0C0F256
:10D94000002100224FF400631424019403F057FBDC
:10D95000044620B907A00BA1D62200F01DF82046EE
:10D9600002B0BDE8104003F037BE00BF6D61696EC4
:10D970000000000074696420213D2052545F4E5520
:10D980004C4C000072745F6170706C696361746903
:10D990006F6E5F696E69740080B582B000238DF888
:10D9A000073040F6F0539446C2F200230A4601467F
:10D9B0001B6833B108461146624602B0BDE880409C
:10D9C000184706A0634601F06CFB00BF9DF80700F6
:10D9D00008B92FF005C802B080BD00BF2825732903
:10D9E00020617373657274696F6E206661696C651E
:10D9F000642061742066756E6374696F6E3A257376
:10DA00002C206C696E65206E756D6265723A2564B6
:10DA1000200A0000B0B501FB00F4204601F071FBC4
:10DA2000054620B100212846224601F0E9FD28469E
:10DA3000B0BD000010B5044638B949F2581011A124
:10DA4000C0F201208122FFF7A7FF2068012808BF4C
:10DA500010BDF2F73DFC0121216054F8041FA142E2
:10DA600004460AD0A1F1180003F06DFC2046F2F73D
:10DA700033FCBDE8104002F033BB2046BDE8104047
:10DA8000F2F72ABC72745F636F6D706C6574696FB6
:10DA90006E5F646F6E65000010B5044638B949F2D8
:10DAA000581008A1C0F201201A22FFF775FFF2F703
:10DAB0000FFC0021221DC4E90012A260BDE8104045
:10DAC000F2F70ABC72745F636F6D706C6574696F96
:10DAD0006E5F696E697400002DE9F04F81B0834676
:10DAE0000D46009150B949F2581049F26E11C0F23A
:10DAF0000120C0F201213922FFF74EFF002D65D031
:10DB000000F060FE0746F2F7E3FB804600F03FF9C5
:10DB100078B149F26E1662A0C0F20126314601F0DA
:10DB2000C0FA49F288103C22C0F201203146FFF7CA
:10DB300033FF012F0FD149F26E1664A0C0F2012607
:10DB4000314601F0AEFA49F288103C22C0F20120C1
:10DB50003146FFF721FFF2F7BBFB814603F03AFCA9
:10DB600090B949F26E1649F22110C0F20126C0F2B6
:10DB70000120314601F095FA49F288103C22C0F2AA
:10DB800001203146FFF708FFF2F7A2FB064601F03D
:10DB900065FA90B149F26E1749F2FA00C0F2012716
:10DBA000C0F20120394601F07CFA49F288103C228B
:10DBB000C0F201203946FFF7EFFE3046F2F78CFB4A
:10DBC0004846F2F789FB4046F2F786FB03F002FC79
:10DBD0000746F2F77DFBDBF80010064601294FF0FF
:10DBE000000A01D100254EE05C4654F8040FA04223
:10DBF00007D049F26E113FA0C0F201214522FFF784
:10DC0000CBFE002D42D0002078630221384603F07D
:10DC100043FDDBF8080007F11801F861CBF80810A4
:10DC20000160BC61F2F754FB804601F017FA90B135
:10DC300049F26E1949F2FA00C0F20129C0F201203E
:10DC4000494601F02EFA49F288105822C0F201200C
:10DC50004946FFF7A1FE4046F2F73EFB012D09DBE6
:10DC600007F15C056A460021284603F065FE284658
:10DC700003F07CFF3046F2F72FFB02F031FA7D6BA8
:10DC8000F2F726FB0646CBF800A001E06FF0740522
:10DC90003046F2F721FB284601B0BDE8F08F00BF07
:10DCA00046756E6374696F6E5B25735D3A207363AE
:10DCB000686564756C6572206973206E6F7420618D
:10DCC0007661696C61626C650A00000046756E637E
:10DCD00074696F6E5B25735D3A20696E746572724C
:10DCE0007570742069732064697361626C65640A7D
:10DCF0000000000072745F6C6973745F6973656D16
:10DD0000707479282628636F6D706C6574696F6E06
:10DD10002D3E73757370656E6465645F6C697374B2
:10DD200029290000B0B54AF23C544AF22C50C0F206
:10DD30000124C0F20120A04228BFB0BD4AF22C55F8
:10DD4000C0F2012555F8040B8047A542FAD3B0BDB7
:10DD500040F28040C2F200200068704770B540F287
:10DD60008046C2F20026346800F07FF8A0420BD053
:10DD7000054650B1306808B100F00FF8432128463D
:10DD800000F076F8356000E00024204670BD40F6D3
:10DD9000B460C2F2002000887047B0B5044658B99C
:10DDA00048F68B7049F21901C0F20120C0F201213E
:10DDB00040F21F12FFF7F0FD204601F001FF092895
:10DDC0000BD048F6DE7049F21901C0F20120C0F212
:10DDD00001214FF49072FFF7DFFD94F8200088B125
:10DDE000013884F8200001061CBF0020B0BD616B23
:10DDF000002551B12046884740B110F12D0108BFE0
:10DE0000E583B0BD6FF0FE00B0BD0020E583B0BD7E
:10DE100070B5054614460E4658B948F68B7049F25F
:10DE20005301C0F20120C0F201214FF4CE72FFF77E
:10DE3000B3FD284601F0C4FE09280BD048F6DE7079
:10DE400049F25301C0F20120C0F2012140F29D12BB
:10DE5000FFF7A2FD2B6C2BB1284631462246BDE8C8
:10DE6000704018476FF02C0070BD092101F04EBEC4
:10DE700070B504460D4650B948F68B7049F26501FD
:10DE8000C0F20120C0F20121D922FFF785FD204612
:10DE900001F096FE09280AD048F6DE7049F26501C5
:10DEA000C0F20120C0F20121DA22FFF775FDA08B3C
:10DEB000C1061ED4E16AC9B120468847A8B106460A
:10DEC00048F67370C0F2012001F0EBF848F69A7042
:10DED0002146C0F20120324601F0E3F848F69050A6
:10DEE000C0F2012001F0DDF83AE0A08B40F0100014
:10DEF000A083E18B000705D511F0080002D06FF078
:10DF000016062DE0080706D540F60F7005EA000258
:10DF1000084090420ED0226B42B1204629469047DD
:10DF2000064640B116F12D0005D019E040F60F70FD
:10DF30002840E083002694F82000E18B013041F076
:10DF40000801C2B2E183824284F8200008D049F27D
:10DF5000650104A0C0F201214FF48672FFF71CFD99
:10DF6000304670BD6465762D3E7265665F636F7581
:10DF70006E7420213D203000F0B581B040F284471E
:10DF80000D46C2F20027064619201421B86107F198
:10DF900024001446F2F71AFC42F6196007F1380320
:10DFA000C0F2002042F65D6142F6D952C0F2002173
:10DFB000C0F2002237C303223846314600F069F828
:10DFC000002001B0F0BD2DE9F04115460E460021BC
:10DFD0004C2298460746002401F012FB42F6C76027
:10DFE00042F60B7142F6A162C0F20020C0F200219D
:10DFF000C0F200221D23BB61C7E90B44C7E90D40F5
:10E000003846C7E90F120322C7E911853146BDE83A
:10E01000F04100F03EB8F0B581B005461C4616460A
:10E020000F4658B948F68B7048F6CF71C0F2012000
:10E03000C0F2012140F24D12FFF7AEFC284601F07C
:10E04000BFFD09280BD048F6DE7048F6CF71C0F24C
:10E050000120C0F201214FF4A772FFF79DFC95F853
:10E06000200060B1D5F838C0BCF1000F0AD02846B6
:10E0700039463246234601B0BDE8F04060476FF0B4
:10E08000FE0001E06FF02C0002F026FD002001B040
:10E09000F0BD70B538B10E4604460921304615462C
:10E0A00001F034FD10B16FF0FE0070BD0921204673
:10E0B000324601F09FFD0020A58384F82000E08314
:10E0C00070BDB0B504460D4658B948F68B7049F29C
:10E0D0002901C0F20120C0F201214FF4DC72FFF7E8
:10E0E0005BFC204601F06CFD09280BD048F6DE7081
:10E0F00049F22901C0F20120C0F2012140F2B91217
:10E10000FFF74AFC00206562B0BDF0B581B005465E
:10E110001C4616460F4658B948F68B7049F2430123
:10E12000C0F20120C0F201214FF4BC72FFF734FCB1
:10E13000284601F045FD09280BD048F6DE7049F26B
:10E140004301C0F20120C0F2012140F27912FFF731
:10E1500023FC95F8200060B1D5F83CC0BCF1000F5D
:10E160000AD0284639463246234601B0BDE8F04081
:10E1700060476FF0FE0001E06FF02C0002F0ACFC95
:10E18000002001B0F0BD80B5F2F7A2F840F6B4610E
:10E19000C2F200210A8801320A80BDE88040F2F70D
:10E1A0009BB880B5F2F794F840F6B461C2F2002152
:10E1B0000A88013A0A8013B2002B03DDBDE88040D3
:10E1C000F2F78AB800220A80F2F786F840F6F85093
:10E1D000C2F20020006818B1BDE8804001F080BFA5
:10E1E00080BDB0B540F600610446C2F20021096866
:10E1F00009B12046884754B303F0ECF8C8B140F2A7
:10E2000028504FF0FF31C2F2002001F099FB054683
:10E210002046F4F75DFC7DB14AF2DB004AF20B11B7
:10E22000C0F20120C0F2012140F24962FFF7B4FBC5
:10E2300002E02046F4F74CFC03F0CCF838B140F291
:10E240002850C2F20020BDE8B04001F085BAB0BD50
:10E2500080B540F2784044F6D351C2F20020C1F2BA
:10E2600062010068A0FB01014FF0FF3000EB91124A
:10E2700000214EF62350B1EB126FCEF2000009D10F
:10E280004EF21003CEF200035A60F0220270996041
:10E2900007211960F021017047F240200021C2F2ED
:10E2A0000020C2F20E2102F087FD00F099FB00F081
:10E2B0005BFD03A0FFF752FDBDE88040FFF732BDD4
:10E2C00075617274390000007047000010B540F6A7
:10E2D000FC510446C2F20021096829B104F128006A
:10E2E0008847002800F0C78048F6AD60616CC0F236
:10E2F000012000F0D6FE48F66C60A16AC0F2012051
:10E3000000F0CFFE48F67960E16AC0F2012000F02B
:10E31000C8FE48F68660216BC0F2012000F0C1FE05
:10E3200048F69360616BC0F2012000F0BAFE48F637
:10E33000A060A168C0F2012000F0B3FEE168A1A0D6
:10E3400000F0AFFE2169A3A000F0ABFE6169A5A0BB
:10E3500000F0A7FEA169A7A000F0A3FEE169A9A0B3
:10E3600000F09FFE216AABA000F09BFE616AADA0A9
:10E3700000F097FEA16BAFA000F093FEE16BB1A09F
:10E3800000F08FFE216CB3A000F08BFE20784007D8
:10E3900006D448F6B850C0F2012000F082FE0AE030
:10E3A00003F018F8014648F6D250C0F2012000F000
:10E3B00078FEFCF7DFFC2078C00605D448F6EF5065
:10E3C000C0F2012000F06DFE4EF62854CEF200049B
:10E3D0006068800705D548F64A60C0F2012000F069
:10E3E00060FE6068400040F1E180607800284AD01B
:10E3F00048F61E60C0F2012000F053FE617848F636
:10E400003170C0F2012000F04CFE6078C00705D0EA
:10E4100048F61C70C0F2012000F043FE60788007CF
:10E4200005D548F61170C0F2012000F03AFE607880
:10E43000400705D548F60F70C0F2012000F031FE0C
:10E440006078000705D548F60570C0F2012000F09D
:10E4500028FE6078C00602D582A000F022FE94F962
:10E460000100B0F1FF3F07DD49F6EB00C0F20120EB
:10E4700000F017FE07E010BD48F62A602169C0F2DF
:10E48000012000F00EFE2078002843D048F6FD5011
:10E49000C0F2012000F005FE217848F64770C0F276
:10E4A000012000F0FEFD2078C00705D048F6E060AE
:10E4B000C0F2012000F0F5FD2078800705D548F670
:10E4C000D660C0F2012000F0ECFD2078000705D5F1
:10E4D00048F60470C0F2012000F0E3FD2078C00689
:10E4E00005D548F6FB60C0F2012000F0DAFD94F992
:10E4F0000000B0F1FF3F06DD49F6EB00C0F201205D
:10E5000000F0CFFD06E048F63A60E168C0F2012075
:10E5100000F0C7FD6088002848D048F61060C0F2BF
:10E52000012000F0BEFD618848F65D70C0F2012058
:10E5300000F0B7FD6088C00705D048F62570C0F22E
:10E54000012000F0AEFD6088800705D548F6CC605C
:10E55000C0F2012000F0A5FD6088400705D548F60F
:10E56000BA60C0F2012000F09CFD6088000705D56C
:10E5700048F6F560C0F2012000F093FD6088C00508
:10E5800005D548F6C160C0F2012000F08AFD608820
:10E59000800505D548F6EA60C0F2012000F081FD53
:10E5A00049F6EB00C0F2012000F07BFD6068B0F19D
:10E5B000FF3F05DC48F65F60C0F2012000F071FD0E
:10E5C000FEE700BF7230353A203078253038780ABF
:10E5D000000000007230363A203078253038780A52
:10E5E000000000007230373A203078253038780A41
:10E5F000000000007230383A203078253038780A30
:10E60000000000007230393A203078253038780A1E
:10E61000000000007231303A203078253038780A16
:10E62000000000007231313A203078253038780A05
:10E63000000000007231323A203078253038780AF4
:10E6400000000000206C723A203078253038780ABB
:10E65000000000002070633A203078253038780AB6
:10E660000000000053544B45525220002DE9F04168
:10E6700043A040F68C34071DC2F20024D0E90565A2
:10E68000D0F81CC048F68450C0F20120C4E90565EA
:10E690008ECF84E88F0040F603300421C4F81CC0FC
:10E6A000C4F8A840203401F041FB40F20E50042190
:10E6B00001F03CFB40F60330012101F079FB40F210
:10E6C0000E50012101F074FB49F656312046C0F28C
:10E6D000012100F093FB20B131A036A1CD22FFF73C
:10E6E0005BF940F20E5001F043FB002841D14EF29D
:10E6F000140544F6D3570024CEF200054FF0640809
:10E70000C1F2620740F60330012101F051FB286895
:10E710006E6800FB08F1A1FB07129109002200BFFF
:10E720006B689E42FCD032449E42A2EB03021E461E
:10E7300098BF02448A42F3D340F6033000210026FA
:10E7400001F036FB286800FB08F1A1FB07129109D4
:10E750006A6800BF6B689A42FCD016449A42A6EBE6
:10E7600003061A4698BF06448E42F3D30134092C9F
:10E77000C8D140F20E5001F0FBFA0020BDE8F08154
:10E7800000000000A3D1000297D10002DBCD0002FF
:10E79000D1CD0002D1D200020100000064000000CF
:10E7A000726573756C74203D3D2052545F454F4B2C
:10E7B0000000000072745F68775F6932635F696EA2
:10E7C0006974000000207047B0B582B040F2D044B8
:10E7D0005821C2F200242046F1F7F8FF40F2E01081
:10E7E00041F20501A4F8481040F20001C0F268109F
:10E7F000C6F60001C4E9130149F61B30C0F201203E
:10E8000000F04FFC216D66A000F04BFC48F69050E4
:10E81000C0F2012000F045FC44F20061206DC0F21E
:10E820000501F1F7B1FF4CF6E5510720A06147F66D
:10E830000150C0F20021216449F63E31C0F20020AF
:10E84000E062C0F2012103222046FFF722FC41F2E0
:10E85000B400C2F20020FFF71FF947F6506440F6FB
:10E860008430C0F20124C2F200202168016001F569
:10E87000002040F60021C2F2002100F5233008609C
:10E8800040F60430002101F051FA40F60430002136
:10E8900001F08EFA642002F04FFD40F604300121B1
:10E8A00001F086FA642002F047FD40F62810214668
:10E8B000C2F20020F2F74EFB00285FD1FEF702FA09
:10E8C0000020F7F721FA40F618050021C2F20025D2
:10E8D0002860F6F78CFE98B139A449F62C30C0F2C6
:10E8E000012000F0DEFB204600F0DBFB48F69050F4
:10E8F000C0F2012000F0D5FB2868F6F7C7F937E031
:10E900004FF4B471009149F600612868C6F607011A
:10E910004FF4F0724FF4F07301240194F6F762FBA8
:10E9200028680021F5F79CFF286802210322F8F7E8
:10E93000FDF828680121F8F7BAF82868FF21F8F7F0
:10E940009BF828680121F8F7D0F828680021F8F72B
:10E9500084F928680121F8F790F928681421142215
:10E96000F7F76AF840F6EC51C2F200210860A8B14E
:10E9700040F62810C2F20020F2F7EAFC07F080F817
:10E9800040F2581048F60041C2F20020C0F20A01DD
:10E990000068F1F7F9FE002002B0B0BD0CA49CE7BE
:10E9A0000A6C6364206672616D6562756666657285
:10E9B00020616464726573733A2523780000000057
:10E9C00067326420696E6974206661696C000000BA
:10E9D0006E6F2072656E6465726275666665720040
:10E9E00046F2382102A0C0F201210022FFF7C4BA8A
:10E9F00070696E00B0B540F25C14C2F20024E06CA5
:10EA0000616DF2F7D8FD40F24C120546A16DC2F2DD
:10EA1000002220462346FFF7D6FA284318BF6FF09E
:10EA2000FE00B0BD2DE9F04182B004460F4658B952
:10EA300049F6621049F67621C0F20120C0F20121A8
:10EA40004FF4BB62FEF7A8FF4FF0FF3050FA87F09B
:10EA5000032800F2FE80DFE800F0020D022FA56D12
:10EA6000002D5CD0B7F5807FC0F0A980F1F730FCB5
:10EA700080466FE0E56D5DB949F6871049F676216D
:10EA8000C0F20120C0F2012140F20D62FEF784FFC6
:10EA9000284601F011FA002800F0B0800246A06C70
:10EAA000E38B05F12401D0F810C0204603F4404365
:10EAB00002B0BDE8F0416047E56D5DB949F68710E9
:10EAC00049F67621C0F20120C0F2012140F23762FE
:10EAD000FEF762FFA26A0020686112B100212046A1
:10EAE0009047E08B400400F1948028462E6901F0A5
:10EAF000E3F9002800F09880B1B2EA68884250EA51
:10EB00003681686889B2A2EB50028A4240F388805D
:10EB1000420800F00100114440EA410083E049F658
:10EB2000741049F67621C0F20120C0F2012140F2B2
:10EB3000E452FEF731FFB7F5807F40D3F1F7C8FB11
:10EB4000804649F28A10C0F2012043A14FF482723C
:10EB5000FEF722FF2846EE6801F0AEF9311AC7F33E
:10EB60000F208FB2874210D249F62610C0F2012042
:10EB700000F097FAE96840A000F093FA48F6905048
:10EB8000C0F2012000F08DFA3846D5E90212A2EB5E
:10EB9000510383424FEA510305DD184401F001019E
:10EBA00041EA400007E0801A01F00101184441EAFF
:10EBB000400080F00100A8604046F1F78DFB284638
:10EBC00001F07AF9002844D00646E08BC00409D54C
:10EBD000A88B38B1864205D30020A88305F1100028
:10EBE000FEF728FF626A12B1204631469047216E37
:10EBF00079B3606E02B0BDE8F0410847A26A12B175
:10EC0000002120469047E08B400402D40020686138
:10EC10001FE005F1180002B0BDE8F041FEF70ABFA1
:10EC2000012121EA00006860284601F045F980B121
:10EC3000012068610020019001A9284601F040FDF3
:10EC4000A16C024628614FF400430F6901992046E8
:10EC5000B84702B0BDE8F08172745F736572696194
:10EC60006C5F7570646174655F77726974655F6904
:10EC70006E646578000000005468652073657269F1
:10EC8000616C2062756666657220286C656E202551
:10EC90006429206973206F766572666C6F772E0029
:10ECA000F0B581B004461E4617460D4640B949F6F8
:10ECB000621015A1C0F2012040F2B352FEF76CFEC3
:10ECC00040F2217104F12C0EC0F2012140F2997240
:10ECD00040F2CD4340F2E55C0020A061C0F2012289
:10ECE000C0F20123C0F2012CC4E909008EE80E0035
:10ECF000C4E90E00BAB2C4E910C62046294601B0E4
:10ED0000BDE8F040FFF7C5B972745F68775F73655F
:10ED10007269616C5F726567697374657200000087
:10ED2000B0B5043222F007054BF6EF62CDF6AD62C6
:10ED3000A5F1440CA0EE102B1122644622F001E054
:10ED4000A4EC041F1FF005C04FF0807445E90204D5
:10ED50006046002245E9081245E9062245E90423F8
:10ED600045F8442CB0BD000010B541F2A01016A12A
:10ED7000C2F2002000234A688968C0E914211249C0
:10ED8000C1640021A0F8681080F85310A0F8541056
:10ED900040F208414FF48062C2F20021A0F85120F5
:10EDA00048F62032C166C0F201228264096803225B
:10EDB000FFF776FF044628B106A00BA140F2162209
:10EDC000FEF7EAFD204610BD00C201000800010068
:10EDD00040000000726573756C74203D3D205254F4
:10EDE0005F454F4B0000000072745F68775F75737A
:10EDF0006172745F696E69740000000048F6681201
:10EE0000C0F20122826400F039B80000B0B50446B7
:10EE10000D4638B949F2C20010A1C0F2012071229A
:10EE2000FEF7BAFD04F1340C0820A061002049F679
:10EE3000E10149F62F1249F65D03C0F20021C0F24C
:10EE40000022C0F20023C4E90B008CE81F0003225B
:10EE500020462946FFF71DF90020B0BD72745F6996
:10EE600032635F6275735F6465766963655F64656D
:10EE7000766963655F696E6974000000B0B50C4621
:10EE8000054650300FA1012200F038FCD5F8800073
:10EE900018B94FF47A70C5F8800028462146FFF76C
:10EEA000B5FF05460BA000F0FCF80EA0214600F0CF
:10EEB000F8F848F69050C0F2012000F0F2F8284629
:10EEC000B0BD00BF6932635F6275735F6C6F636B67
:10EED000000000001B5B33326D5B492F4932435DFC
:10EEE0002000000049324320627573205B25735D6A
:10EEF00020726567697374657265640080B5836CA0
:10EF00009B6813B1BDE88040184749F27400C0F215
:10EF1000012000F0C6F849F29000C0F2012000F094
:10EF2000C0F848F69050C0F2012000F0BAF86FF037
:10EF3000040080BD2DE9F04184B004461D4616460C
:10EF40000F46DDF8288020B90CA010A18822FEF71A
:10EF500023FD46F00100ADF8060001A9012220467C
:10EF6000ADF80470ADF80880039500F02CF8012886
:10EF700058EA008004B0BDE8F08100BF62757320DC
:10EF8000213D2052545F4E554C4C000072745F6915
:10EF900032635F6D61737465725F726563760000E2
:10EFA00010B584B0ADF80410ADF8062001A9012217
:10EFB000069CADF80840039300F005F8012854EAD8
:10EFC000008004B010BDF0B581B00546806C0068CB
:10EFD000B8B105F150040F464FF0FF3120461646F8
:10EFE00000F0AEFC08BBA86C3946324603682846E0
:10EFF00098470546204600F0AFFB002855EA008000
:10F0000013E049F27400C0F2012000F04AF849F21E
:10F010009000C0F2012000F044F848F69050C0F291
:10F02000012000F03EF86FF0040001B0F0BD10B513
:10F03000F1F74EF940F610610446C2F200210A7859
:10F0400001320A7040F60461C2F20021096801B180
:10F0500088472046BDE81040F1F73EB910B5F1F7FA
:10F0600037F940F61061C2F200210C78F1F734F95B
:10F07000204610BD10B5F1F72BF940F60C6104469F
:10F08000C2F20021096801B1884740F61060C2F25F
:10F0900000200178013901702046BDE81040F1F7E9
:10F0A0001BB983B0B0B581B0044605A87F250EC05A
:10F0B00040F6186005ABC2F200207F212246009383
:10F0C00002F02CFE014640F28040C2F200207F296F
:10F0D00051EA3584006840B140F618620021C2F25E
:10F0E00000222346FFF711F805E040F61860C2F24F
:10F0F0000020FFF7E9F8204601B0BDE8B04003B0BA
:10F100007047B0B5044602F065F9F8B140F22850F6
:10F110004FF0FF31C2F2002000F012FC054641F230
:10F120003010C2F200202146F3F79AFC002D05466C
:10F1300014D04AF2DB004AF20B11C0F20120C0F2F7
:10F14000012140F24962FEF727FC07E041F230104E
:10F150002146C2F20020F3F783FC054602F03AF99B
:10F1600028B140F22850C2F2002000F0F5FA40F633
:10F170009860C2F20020026812B1284621469047EA
:10F180002846B0BD70B5102A11D203460D469446EC
:10F19000BCF1000F6246294608BF70BD42F001E095
:10F1A00011F8012B03F8012B0FF007C070BD41EAE5
:10F1B00000039B0701D00346F0E7A2F110040123EE
:10F1C0009446064603EB141E0B6833604B6873606D
:10F1D0008B68B36001F1100506F11003C968F16096
:10F1E000ACF1100C29461E460FF013C024F00F019D
:10F1F000561A143E032E28BF0326BCF1040FC7D3B2
:10F20000921B511A0122113902EB910EACF1040C40
:10F2100055F8041B43F8041B0FF009C0B8E70000C1
:10F2200070B504460D4638B94AF2181149A0C0F22B
:10F230000121C122FEF7B0FB204600F0C1FC0728E7
:10F240000AD04AF239104AF21811C0F20120C0F275
:10F250000121C222FEF7A0FBE81D20F00706206A6C
:10F26000102E98BF1026864222D2E06EB0B1E06A1E
:10F27000056985420BD000BFA968491BA1F118029E
:10F28000B24217D22D69854201D0B242F4D3E06E6A
:10F2900070B904F1480001F0C7F809E004F1480032
:10F2A0004FF0FF3101F00FF90028E0D001F014FC1D
:10F2B000002070BD06F1280141F6A06CC1F6A06CDB
:10F2C0008A4211D204F11C030BCB891A2162401A25
:10F2D000984288BF6062D5E90401416169690861AB
:10F2E0000020C5E9040027E0D5E90423A9194FF05F
:10F2F000000E536141F818CF6B69C5F814E04861FE
:10F300001A61226A921B636AA2F11806E269C5F8C3
:10F3100010E0A2EB060E9E45AB68C1E9014302690D
:10F32000C1E90352AB680269A960D960016151610A
:10F33000266201D9C4F824E0E06E00280CF1010037
:10F34000286003D104F1480001F06EF805F11800BF
:10F3500070BD00BF6865617020213D2052545F4E32
:10F36000554C4C00F0B581B000287CD0044641F6E5
:10F37000A067C1F6A0672646781C56F8181D814282
:10F3800007D154F8100C006820F00100B8420ED1EB
:10F3900018E04AF229113FA0C0F2012140F26B228D
:10F3A000FEF7FAFA54F8100C006820F00100B84299
:10F3B00008D04AF2291146A0C0F2012140F26D2284
:10F3C000FEF7EAFA54F8145C5DB949F6FA504AF2CD
:10F3D0002911C0F20120C0F2012140F27322FEF790
:10F3E000DBFA284600F0ECFB07280BD04AF2391074
:10F3F0004AF22911C0F20120C0F201214FF41D721E
:10F40000FEF7CAFAE86E80B354E9043244F8187C77
:10F41000981B296A1768014417F00100A1F1180729
:10F420002F6207D193600F4654F8103C2962DA60CE
:10F4300054F80C6CB2681178C90709D1D2E90413E9
:10F4400018372F624B6193685269B360DE601161B7
:10F4500038B1E86A006930614169716141694661AA
:10F460000E61E86E70B101B0F0BD05F148004FF0DB
:10F47000FF3101F028F80028C6D001B0BDE8F04007
:10F4800001F02ABB05F1480001B0BDE8F04000F0F2
:10F49000CBBF00BF6865616465725F7074722D3E9A
:10F4A0006D61676963203D3D202852545F4D454D95
:10F4B000484541505F4D41474943207C2052545FAD
:10F4C0004D454D484541505F555345442900000086
:10F4D000286865616465725F7074722D3E6E657830
:10F4E000742D3E6D6167696320262052545F4D453F
:10F4F0004D484541505F4D41534B29203D3D2052E1
:10F50000545F4D454D484541505F4D41474943008B
:10F51000F0B581B004461F4616460D4620B920A01E
:10F5200024A15622FEF738FA072120462A4600F089
:10F5300061FB27F00700E06130383021616221462D
:10F54000206241F6A0623044C1F6A06241F8302F3B
:10F550000027C4E90F71012336616164C4E90D47D6
:10F56000C6E90024013240F8182F226CC6E90302D4
:10F57000226CE162B060716156612664C0E90146A7
:10F580000122C0E903672946476104F14800A661EA
:10F59000A66200F00BFF0020E76601B0F0BD00BFDF
:10F5A0006D656D6865617020213D2052545F4E5538
:10F5B0004C4C000072745F6D656D686561705F69C9
:10F5C0006E69740080B581420FD28B1883420CD9CA
:10F5D00042F015C0013A1144024400BF11F801394C
:10F5E00002F801390FF007C008E042F007C80246F0
:10F5F00011F8013B02F8013B0FF007C080BD00008D
:10F60000B0B5042A04461CD314F0030019D1C8B2C3
:10F610004FF001334343102A4FF0010C13D3A2F1F2
:10F62000100025460CEB101E05F11000C5E9003353
:10F63000C5E90233103A05460FF00BC0042A03D285
:10F640000FE020460DE02046151F032D28BF03259F
:10F65000ED4315440CEB950E043A40F8043B0FF0D3
:10F6600005C822B1CBB211461A46F1F77DF8204603
:10F67000B0BD000080B50B468446406A53F818EFD1
:10F680005A68CEF804205A68C2F800E0C3E9003393
:10F6900038B191F8391090F839208A425FEA0F9119
:10F6A00000E00121624652F8183F934202D093F8DD
:10F6B000213000E0FF238CF82130C1B984465CF88A
:10F6C000403F1CF8061C00BF63450CD013F808EC43
:10F6D000C9B213F8072C1B68724552EA3E82914268
:10F6E00051EA3281F0E790F83920914200D180BD93
:10F6F0000222BDE88040F4F7A3B90000B0B504468B
:10F700000D4640B949F676700FA1C0F2012040F2D3
:10F710007132FEF741F9032120462A4600F06AFAC9
:10F7200004F11800C4E90600002084F822004FF616
:10F73000FF71218404F12801C4E909010020E1627C
:10F7400001216173B0BD00BF72745F6D757465781F
:10F750005F696E69740000002DE9F04381B00446D2
:10F7600058B949F676704AF21A01C0F20120C0F287
:10F77000012140F29952FEF70FF9204600F020FADD
:10F7800003280BD04AF237004AF21A01C0F20120D6
:10F79000C0F2012140F29A52FEF7FEF8F0F798FD10
:10F7A000054601F017FE98B94AF21A0649F22110EF
:10F7B000C0F20126C0F201203146FFF772FC49F287
:10F7C000881040F29F52C0F201203146FEF7E4F863
:10F7D000F0F77EFD0646FFF741FC98B14AF21A07A2
:10F7E00049F2FA00C0F20127C0F201203946FFF7C2
:10F7F00058FC49F2881040F29F52C0F2012039466D
:10F80000FEF7CAF83046F0F767FD2846F0F764FDCA
:10F8100001F0E0FD0646F0F75BFD40F6A461054609
:10F82000C2F20021096809B120468847606A864211
:10F8300006D028466FF0FE077763F0F74DFD78E0BD
:10F8400094F82200013884F82200010603D02846EB
:10F85000F0F742FD6CE0A14659F8280FD9F80410E2
:10F8600019F8082C4160D9F80410FF2A0860C9E98A
:10F87000009905D194F8210096F8391081425CD1A5
:10F88000304650F8401F10F8062C00BF81420CD0C3
:10F8900011F8083CD2B211F8077C09689F4257EA78
:10F8A00033839A4252EA3382F0E78DF803200DF158
:10F8B00003020221304601F045FB4FF001082646C5
:10F8C00056F8181FB1421FD0D1E900205060A1F1B5
:10F8D00018004B68496060621A60012284F8222097
:10F8E0000A46096052F8283FA362C2F80090C3F8A4
:10F8F0000490E26200220A6301F025FDA069B04293
:10F900000ED090F821000CE0FF2084F8210028465A
:10F9100000276762F0F7E0FCB8F1000F06D108E0BD
:10F92000FF2084F821002846F0F7D6FC00F0D8FB31
:10F930000027384601B0BDE8F0834FF00008BEE76D
:10F940000222F3F70BBB00002DE9F0418846054683
:10F95000F0F7BEFC0646FFF781FB98B14AF2AE17FE
:10F9600049F2FA00C0F20127C0F201203946FFF740
:10F9700098FB49F2881040F2D112C0F201203946BA
:10F98000FEF70AF83046F0F7A7FC40F200070C201B
:10F99000C2F200273968A94210D0013807F11007D8
:10F9A000F8D14AF276104AF2AE11C0F20120C0F24C
:10F9B000012140F2D512FDF7EFFF0027F868FFF7AD
:10F9C000A0FB064600B3FA68002130460024FFF78A
:10F9D00017FE0C22304641463573747301F0D4F99A
:10F9E00040F69C60C2F20020016809B130468847A9
:10F9F000F0F76EFC324657F8041F42F8101F4A60B9
:10FA00003A605760F0F768FC3046BDE8F0810000CE
:10FA100010B5044658B94AF28D104AF2C111C0F22D
:10FA20000120C0F2012140F21222FDF7B5FF94F946
:10FA30000C00B0F1FF3F08DC4AF2C11111A0C0F286
:10FA4000012140F21322FDF7A7FF40F6A060C2F2A9
:10FA50000020016809B12046884700202073F0F794
:10FA600037FC2146636951F8102F53606369616167
:10FA70001A600960F0F730FC2046BDE81040FEF740
:10FA8000B0BB00BF21286F626A6563742D3E747934
:10FA9000706520262052545F4F626A6563745F432D
:10FAA0006C6173735F5374617469632900000000B3
:10FAB00010B5044640B94AF28D100FA1C0F20120E2
:10FAC00040F2AD12FDF768FF40F6A060C2F20020E0
:10FAD000016809B12046884700202073F0F7F8FB41
:10FAE00054F8101F62684A6062681160C4E90044FB
:10FAF000BDE81040F0F7F0BB72745F6F626A656337
:10FB0000745F64657461636800000000F0B581B0E3
:10FB1000044640F20000C2F20020071D0C2000BF86
:10FB200057F8042C8A4204D0013807F11007F7D1A6
:10FB30002DE064B3F0F7CCFB0546FFF78FFA98B1E0
:10FB40004AF29F1649F2FA00C0F20126C0F20120E3
:10FB50003146FFF7A6FA49F2881040F26622C0F259
:10FB600001203146FDF718FF2846F0F7B5FBFEF7F8
:10FB70000AFB3E463668B7420BD0A6F110050C22B0
:10FB80002846214601F0E8F820B12FF00DC80025E5
:10FB900002E00025FEF705FB284601B0F0BD00009D
:10FBA000014640F200000C22C2F2002003688B42A2
:10FBB00004D0013A00F11000F8D100207047000095
:10FBC00010B5044640B94AF28D1005A1C0F20120DB
:10FBD0004FF41272FDF7E0FE207B00F07F0010BDB5
:10FBE00072745F6F626A6563745F6765745F74796E
:10FBF000706500002DE9F04740F2000790460E4680
:10FC000004460C20C2F200273968B14210D00138F6
:10FC100007F11007F8D14AF276104AF2D211C0F279
:10FC20000120C0F201214FF4B772FDF7B5FE0027A5
:10FC3000FEF7A9FA57F8045FBD4212D04AF2D21A71
:10FC40000FF25C09C0F2012AA5F11000A04205D113
:10FC500040F27D1248465146FDF79EFE2D68BD429A
:10FC6000F2D1FEF79EFA46F0800020730C22204667
:10FC7000414601F089F840F69C60C2F2002001681C
:10FC800009B120468847F0F723FB396844F8101F74
:10FC90003C604C606760BDE8F047F0F71DBB00BFFB
:10FCA0006F626A20213D206F626A65637400000004
:10FCB00010B5044640B94AF28D1005A1C0F20120EA
:10FCC00040F23522FDF768FE207BC00910BD00BF61
:10FCD00072745F6F626A6563745F69735F7379736F
:10FCE00074656D6F626A656374000000B0B540F2C0
:10FCF00084450446C2F20025A96C41B949F20C3092
:10FD000007A1C0F201209D22FDF746FEA96C89697A
:10FD100019B12046BDE8B04008476FF02C00B0BDD7
:10FD200072745F70696E5F676574000070B540F251
:10FD300084460C46C2F200260546B26C42B949F22E
:10FD40000C3008A1C0F201208A22FDF725FEB26C1A
:10FD500040F284401368C2F2002029462246BDE8E2
:10FD60007040184772745F70696E5F6D6F646500F4
:10FD7000B0B540F284450446C2F20025A96C41B9F1
:10FD800049F20C3007A1C0F201209622FDF704FED3
:10FD9000A96C40F284408A68C2F200202146BDE886
:10FDA000B040104772745F70696E5F726561640085
:10FDB00070B540F284460C46C2F200260546B26C8D
:10FDC00042B949F20C3008A1C0F201209022FDF79F
:10FDD000E3FDB26C40F284405368C2F20020294631
:10FDE0002246BDE87040184772745F70696E5F7795
:10FDF0007269746500000000B0B586B06A460D46B1
:10FE00000446101D1421F0F7E1FCACB1002D28468A
:10FE100000D5684241F60461002D51EAD1916D464A
:10FE2000009020462A46FDF7F3FF41F60161204687
:10FE30002A46FDF7EDFF01E06FF00B0006B0B0BD04
:10FE4000B0B586B06A460D460446101D1421F0F781
:10FE5000BDFCACB1002D284600D5684241F60461D6
:10FE6000002D51EAD1916D46009020462A46FDF7BB
:10FE7000CFFF4FF4F05120462A46FDF7C9FF01E0BD
:10FE80006FF00B0006B0B0BD80B586B04FF0000C2F
:10FE9000CDF814C0CDE903CC50B1002900D54942BA
:10FEA0008DE80E006A4641F60261FDF7B1FF01E000
:10FEB0006FF00B0006B080BDD0E9012C0146022096
:10FEC0008CEA0203022B38BF03F00100002808BFB0
:10FED0007047012801D1C86870474FEA5C00B0EB59
:10FEE000520F4FEA520201D9801A7047C968801A2E
:10FEF0000844704770B5044615460E4638B949F2B5
:10FF00008A101DA1C0F20120B722FDF745FD204651
:10FF1000FFF7D2FF98B1A84250EA35856068E168E2
:10FF2000A1EB50022168AA4201EB500109D93046E9
:10FF30002A46FFF727F9606800EB450018E0002526
:10FF400017E03046FFF71EF9D4E90010E268A2EB93
:10FF50005002B018AA1AFFF715F96068E16805EBBE
:10FF6000500200F00100511A40EA410080F0010007
:10FF70006060284670BD00BF72745F72696E676210
:10FF800075666665725F67657400000070B504464B
:10FF900016460D4650B949F28A1049F29811C0F23E
:10FFA0000120C0F201212922FDF7F6FC002E0ADC17
:10FFB00049F2811049F29811C0F20120C0F20121EA
:10FFC0002A22FDF7E9FC002026F00701C4E90050D1
:10FFD000C4E9020170BD0000F0B581B004461546C9
:10FFE0000E4638B949F28A101EA1C0F201204522FE
:10FFF000FDF7D2FC2046E768FFF75EFF874201D19C
:020000040201F7
:1000000000252BE0381A2168A84250EA3585A068FF
:10001000A7EB5002AA4201EB500007D931462A460D
:10002000FFF7B0F8A06800EB450016E03146FFF797
:10003000A9F8D4E902122068A2EB5102B118AA1A59
:10004000FFF7A0F8D4E9020105EB500200F001002F
:10005000511A40EA410080F00100A060284601B03A
:10006000F0BD00BF72745F72696E67627566666527
:10007000725F70757400000070B504460D4640B99B
:1000800049F28A1010A1C0F201204FF48972FDF7E5
:1000900083FC2046E668FFF70FFF864201D100206F
:1000A00070BDA068216840080D54D4E902010139EF
:1000B000B1EB500F03D1012121EA000000E0023032
:1000C000A060012070BD00BF72745F72696E6762CC
:1000D00075666665725F70757463686172000000B2
:1000E0002DE9F041F0F7F4F840F6B4610446C2F2AD
:1000F0000021098821B12046BDE8F041F0F7ECB8B5
:1001000040F6C070C2F2002000680028F3D0F2F779
:10011000EDFB40F6F85740F6C062C2F20027013806
:10012000C2F200223D6852F8302095F83810A2F152
:10013000180601F00703032B0CD195F839209042E3
:1001400047D801F00801424011435FEA1F9855EA81
:10015000068601E04FF00108AE423AD040F6B061A9
:100160003E60C2F200210A6840F6F451C2F200215A
:10017000087012B1284631469047B8F1000F02D1FD
:10018000284600F081F895F83800010703D500F003
:10019000F70085F83800304600F0CAF896F83800C5
:1001A00000F0F801F06A033186F83810017823294D
:1001B00006D1316A814203D9326B02448A4214D299
:1001C0002AA03146FEF76DFFF0F782F8A0B100BF1C
:1001D000FEE7284600F0ACF8386890F8381001F0D7
:1001E000F801033180F8381085E72030884203D3C6
:1001F00010A03146FEF755FF40F61060C2F2002015
:10020000007840B105F1200006F120012A4633466E
:10021000F0F765F86FE740F6B860C2F200200168B9
:1002200009B12846884705F1200006F12001F0F7C2
:1002300056F860E77761726E696E673A2025732021
:10024000737461636B20697320636C6F73652074D2
:100250006F20656E64206F6620737461636B20612C
:100260006464726573732E0A00000000746872651E
:1002700061643A257320737461636B206F766572D5
:10028000666C6F770A00000010B5044640B94AF268
:10029000E11020A1C0F201204FF4B772FDF77CFB02
:1002A000F0F716F840F6F851C2F200210A6894F807
:1002B0003810A24201F0F80216D094F8393042F01A
:1002C000020284F8382040F6C062C2F20022090718
:1002D00002EBC30104F118020BD40B68A3610A609E
:1002E0005A6004F11C0208E042F0030184F838105F
:1002F0000CE04B68E3614A601A60E36B40F6C0743F
:10030000C2F200241160216819432160BDE8104049
:10031000EFF7E2BF72745F7363686564756C655F65
:10032000696E736572745F74687265616400000061
:10033000B0B5054640B94AF2E11015A1C0F201205E
:100340004FF4D172FDF728FBEFF7C2FF294651F8B1
:10035000182F4B6891F8214053604B6849601A6030
:1003600040F6C062C2F20022096002EBC40352F8F8
:1003700034209A4208D140F6C072E96BC2F20022E2
:10038000136823EA01011160BDE8B040EFF7A4BF94
:1003900072745F7363686564756C655F72656D6FB9
:1003A00076655F746872656164000000F0B581B0C5
:1003B00004461D4616460F4658B949F667704AF27C
:1003C0002B01C0F20120C0F2012140F23F12FDF7E3
:1003D000E3FAB6F5803F0BD349F687704AF22B015A
:1003E000C0F20120C0F201214FF4A072FDF7D4FA4F
:1003F000022D0BD349F62E704AF22B01C0F20120D8
:10040000C0F2012140F24112FDF7C6FA0221204656
:100410003A46FFF7EFFB04F11800C4E9060000209C
:100420002684657301B0F0BDB0B5044658B949F6ED
:1004300067704AF20B01C0F20120C0F2012140F2C4
:100440008B22FDF7A9FA2046FFF7BAFB02280BD052
:1004500049F6C6704AF20B01C0F20120C0F2012138
:100460004FF42372FDF798FA40F6A460C2F2002020
:10047000016809B120468847EFF72AFF2246054662
:1004800052F8181F91420BD0A1F118000024CC6142
:1004900000F059FF2846EFF71FFFFFF721FE10E09D
:1004A000208C4FF6FF71884205D12846EFF714FFE4
:1004B0006FF0220405E0013020842846EFF70CFF9E
:1004C00000242046B0BD0222F2F7CEBE70B504462D
:1004D00040B948F68B7039A1C0F2012040F2DE32FB
:1004E000FDF75AFA94F82000012802D96FF0FE05B2
:1004F00061E0A16DE08B4FF00006A66331B300F41C
:10050000405244F201031146B2F5005F18BF4FF4A8
:100510004051A1EB0301A36C18BF4FF48052084077
:10052000E0835B68072120469847A56D45B949F6E9
:10053000741026A1C0F201204FF45372FDF72CFA7B
:100540002846FDF74EFEE08B0021A165E56DE663D0
:1005500025B300F44041B1F5004F04D14FF40042FF
:1005600047F6FF7608E005F118004BF6FF76FDF739
:1005700061FAE08B4FF48042A16C3040E08320466A
:100580004B68072198472846FDF72BFE0020E065C1
:1005900004F1600000210822FFF732F8A06C04216A
:1005A0000022002543682046C4E909559847A08BDE
:1005B00020F01000A083284670BD00BF72745F73E6
:1005C000657269616C5F636C6F73650072745F73F1
:1005D000657269616C5F72785F64697361626C6592
:1005E0000000000070B5054614460E4640B948F6B6
:1005F0008B702EA1C0F201204FF48C62FDF7CCF974
:10060000701E08282ED8DFE800F005090E2D352DC4
:100610002D2D3D00A88B20F0200002E0A88B40F09B
:100620002000A8833FE0002C3DD0E07995F85320CE
:10063000B4F80510B5F8513041EA004043EA0241F0
:1006400048404FF6FC71C0F20301084204D1B5F8EE
:100650005400218981421AD095F82000B8B16FF07A
:10066000160070BDA86C3146224643682846BDE896
:1006700070401847BCB105F1600008222146FEF722
:1006800081FD10E07CB140F2431020800BE005F1C9
:100690004C0094E80E000160A96CC0E901232846D3
:1006A0000A6821469047002070BD00BF72745F73D6
:1006B000657269616C5F636F6E74726F6C000000CD
:1006C000B0B504460D4638B949F28A100DA1C0F202
:1006D0000120CA22FDF760F9002028602046FFF7BC
:1006E000EBFB60B1D4E9002102EB510129606168A4
:1006F000E268A2EB5101814251EA3080B0BD002096
:10070000B0BD00BF72745F73657269616C5F6765CD
:10071000745F6C696E6561725F62756666657200B2
:1007200010B5044658B948F68B7049F68721C0F2D7
:100730000120C0F201214FF46472FDF72DF9A06C85
:10074000016949B949F687210AA0C0F2012140F2A6
:100750009232FDF721F9A06C02680020C4E916006E
:100760002AB104F14C012046BDE81040104700209A
:1007700010BD00BF73657269616C2D3E6F70732D83
:100780003E7472616E736D697420213D2052545F16
:100790004E554C4C00000000F0B581B004460D46AB
:1007A00040B948F68B70A9A1C0F2012040F2A932ED
:1007B000FDF7F2F8E08B0021B1EB103F40F04281F1
:1007C00029B2EA044FF480524FF4804358BF4FF4EB
:1007D0000052002944BF48F20003CFF6FF73D1183E
:1007E0000143400641F0400051EA50816A06A26D83
:1007F00051EA5080002AE08371D1274600F4405628
:1008000037F8511FBA7841EA0242C2F38F01C1B3EF
:100810003F2909D80320C0F2FC00104000F5807188
:1008200039804021000CB87001F12000FEF769FC0E
:10083000054640B949F6741088A1C0F2012040F283
:100840000632FDF7A9F8B878398841EA004005F189
:100850001E01C0F38F022846FFF798FB43F29D402C
:10086000B6F5005FC0F20020A565A0631DD1E08B46
:10087000A16C4FF4005240F40050E0834B68032118
:1008800022E0B6F5005F22D149F61510C0F2012032
:10089000FEF707FC76A02146FEF703FC48F69050D1
:1008A000C0F20120FEF7FDFB19E00020A88305F14E
:1008B0001000FDF7F1F8A16CE08B4FF480524B680B
:1008C000032140F48050E0832046984707E043F23C
:1008D000AD7140F48050C0F20021A163E083E06D6F
:1008E000002840F0AF80B4F85400E28B02F440419D
:1008F00088B33F2802D84020A4F85400B1F5804FB7
:100900003DD1A06C20214FF4804243682046984797
:10091000012869D1B4F854002430FEF7F2FB0546F3
:1009200058B949F6871049F69A11C0F20120C0F271
:1009300001214FF42772FDF72FF8B4F8542005F188
:1009400024012846FFF722FB43F27150E565C0F20F
:100950000020E0636BE0B1F5004F3DD149F6151082
:10096000C0F20120FEF79DFB4EA02146FEF799FB49
:1009700048F69050C0F20120FEF793FB62E024306D
:10098000FEF7BFFB054658B949F6871049F69A119C
:10099000C0F20120C0F201214FF43272FCF7FCFFDB
:1009A0000020C5E90400B4F8542005F124012846CC
:1009B000FFF7ECFAE08BA26C43F20571E565C0F23B
:1009C0000021E16340F40040E083536803214FF4C9
:1009D00000422046984735E043F62900C0F2002047
:1009E000E06342F480402CE02420FEF78AFB0546B9
:1009F00058B949F6871049F69A11C0F20120C0F2A1
:100A0000012140F2AD22FCF7C7FFA06C43F25B610D
:100A1000C0F20021E163436803214FF48042204685
:100A2000E5659847002110222846FEF7E9FD0020E1
:100A3000C5E9040005F11800FDF72EF8E08B40F43D
:100A40008040E083002001B0F0BD00BF72745F738E
:100A5000657269616C5F6F70656E000072745F73C0
:100A6000657269616C5F72785F656E61626C65006A
:100A7000282573292073657269616C206465766925
:100A800063652077697468206D6973636F6E66694A
:100A9000677572653A2072785F627566737A203D79
:100AA00020300000282573292073657269616C204D
:100AB0006465766963652077697468206D6973631E
:100AC0006F6E6669677572653A2074785F627566E5
:100AD000737A203D2030000010B50446FEF7BEFAC0
:100AE00028B140F27C40C2F20020046010BD00F04A
:100AF00071FC0028F5D0446310BD000080B582B0C1
:100B00004AF27A00C0F20120FEF7CBFA0AA0FEF703
:100B1000C8FA15A0009017A00521002202230FF2A9
:100B20003C0CCDF804C0FEF7BCFA1BA002B0BDE837
:100B30008040FEF7B6BA00BF2D205254202D202051
:100B4000202020546872656164204F706572617462
:100B5000696E672053797374656D0A0031363A34D3
:100B6000373A3231000000004170722020362032C6
:100B700030323400202F207C205C202020202025B3
:100B8000642E25642E2564206275696C64202573AB
:100B90002025730A000000002032303036202D203E
:100BA0003230323220436F70797269676874206224
:100BB000792052542D546872656164207465616DAA
:100BC0000A00000081B080B581B0039303AB0093AD
:100BD00001F0A4F801B0BDE8804001B0704700000A
:100BE0002DE9F04F83B001AECDE90166EFF770FB60
:100BF00040F258570446C2F20027D7F80090B94592
:100C000067D040F2605A40F6DC7BC2F2002AC2F2A2
:100C1000002B4FF0000800BF00F0F0FDD9F81410D1
:100C2000401A4FF6FE71C7F6FF71884251D840F660
:100C3000D870A9F11805C2F20020016809B1284650
:100C40008847D9E90010486019F80B0CD9F804203E
:100C500083071160C9F8009003D400F0FE0009F882
:100C60000B0C0198C9F80000CDF80490C0F804906E
:100C700001208AF800002046C9F80460EFF72CFB39
:100C8000D9E902108847DBF8001009B128468847E7
:100C9000EFF71EFB01990446B1428AF8008014D098
:100CA000D9E90010486019F80B0CD9F8042000F0BD
:100CB0000303032B1160C9E9009906D100F0FE007F
:100CC00009F80B0C284600F051FFD7F80090B94501
:100CD000A2D12046EFF700FB03B0BDE8F08F000083
:100CE000027852B1013000BF0B789A4206D110F859
:100CF000012B01310AB12FF009C800220878101A1F
:100D00007047000048F694410028C0F2012101F12B
:100D1000040200D540420F230FF21C0C52F8041CB1
:100D2000814204D0013B02F10802F7D101E0D2F880
:100D300000C06046704700BF45554E4B4E4F5700B0
:100D400001464FF0FF3000BF11F8012B01300AB10E
:100D50002FF007C07047000080B59AB190F800E00E
:100D60000B78AEEB030C5FEA0C6308D1BEF1000F09
:100D700005D0013A01F1010100F10100EED14FFA75
:100D80008CF080BD002080BD10B504468AB1C2F150
:100D90000102601C0B7800F8013C33B101320131D3
:100DA000012A00F10100F5D103E012B15142EFF741
:100DB000EBFC204610BD000070B50446073020F063
:100DC000070521F00706AE4205D80EA013A140F298
:100DD000AA62FCF7E1FD731B49F6FA5541F23010A7
:100DE000C0F20125C2F2002029462246FEF790FB00
:100DF00040F228500122C2F200202946BDE870408E
:100E0000FEF77CBC656E645F616C69676E203E2096
:100E1000626567696E5F616C69676E0072745F73AB
:100E2000797374656D5F686561705F696E69740080
:100E300080B540F6B46114A0C2F2002100224FF048
:100E4000080E90ED001F0A8040F6C060C2F200203C
:100E5000042100BFA3EF502523EE402F22EF524183
:100E600021EE410F12EE102A82FC003F82FC203F4F
:100E70000FF011C040F6C0700021C2F200200160E6
:100E800080BD00BF00BF00BF0000000001000000E7
:100E9000020000000300000010B540F6C070C2F26E
:100EA00000200068F1F722FD40F6C061C2F2002187
:100EB00001EBC00040F6F851C2F2002150F8084C96
:100EC000A4F118000860FFF733FA04F108000321C9
:100ED00084F82010BDE81040EFF74CBA40F26C5097
:100EE000C2F20020C0E900007047000010B584B0D5
:100EF00040F2585040F20861C2F2002040F27454AF
:100F0000C2F200214FF40072C0E90000C2F20024D6
:100F1000CDE9001243F669320420029007A1C0F225
:100F2000002200230A200390204600F0BFF920464B
:100F300004B0BDE8104000F04FBB00BF74696D65A0
:100F40007200000070B5044615460E4658B94AF2C4
:100F5000E1104AF2E121C0F20120C0F201214FF478
:100F60005472FCF719FD2046FEF72AFE01280BD02B
:100F70004AF250204AF2E121C0F20120C0F20121E0
:100F800040F25132FCF708FDD6B1012E1CD0022EE2
:100F900033D1EFF79DF994F83810064601F00701B8
:100FA00002291AD12046FFF7C3F92878012184F8D5
:100FB000390001FA00F0E0632046FFF765F913E01D
:100FC000204600F009FB18E02046FEF771FE0128DC
:100FD0000ED1204600F0D0F80DE02878012184F8E9
:100FE000390001FA00F0E0633046EFF775F904E0EC
:100FF000204600F04DF8FFF773F8002070BDF0B503
:1010000083B00E46014601201F461546FEF79CFCA4
:1010100098B104463846FEF774F858B10346DDE946
:101020000810CDE900713146029020462A46F2F7B9
:1010300051FC03E02046FEF7EBFC0024204603B001
:10104000F0BDB0B540F2C000C2F200200568854294
:101050000DD0A5F11804EFF73BF9D5E900124A606D
:101060006A681160C5E90055EFF736F900E0002421
:101070002046B0BD40F2C001C2F200210A6840F82B
:10108000182F086050604160704700F0A9B9000057
:10109000B0B5044658B94AF2E1104AF2A321C0F2B1
:1010A0000120C0F2012140F21922FCF775FC204614
:1010B000FEF786FD01280BD04AF250204AF2A32108
:1010C000C0F20120C0F2012140F21A22FCF764FCB8
:1010D0002046FEF7EDFD40B14AF2A32117A0C0F271
:1010E000012140F21B22FCF757FC94F8380010F065
:1010F000070004D001281ED02046FFF719F9EFF7AA
:10110000E7F8054604F15C0000F08CFCA06C0121BE
:1011100084F8381048B1FEF753FD032805D1A06CC0
:101120002146FEF7A7FA0020A0642046FFF7A2FFA1
:101130002846EFF7D1F80020B0BD00BF72745F6F92
:10114000626A6563745F69735F73797374656D6FE9
:10115000626A656374282872745F6F626A6563747B
:101160005F742974687265616429203D3D20525482
:101170005F46414C53450000B0B5044658B94AF2A9
:10118000E1104AF2D021C0F20120C0F201214FF457
:10119000D472FCF701FC2046FEF712FD01280BD0AB
:1011A0004AF250204AF2D021C0F20120C0F20121BF
:1011B00040F2A912FCF7F0FB2046FEF779FD40B99A
:1011C0004AF2D02117A0C0F201214FF4D572FCF7EA
:1011D000E3FB94F8380010F0070004D001281ED07B
:1011E0002046FFF7A5F8EFF773F8054604F15C0019
:1011F00000F018FCA06C012184F8381048B1FEF70B
:10120000DFFC032805D1A06C2146FEF733FA00204D
:10121000A0642046FFF72EFF2846EFF75DF8002078
:10122000B0BD00BF72745F6F626A6563745F69739B
:101230005F73797374656D6F626A65637428287271
:10124000745F6F626A6563745F7429746872656144
:1012500064290000B0B588B005AC12A20C210023AF
:101260002046FFF7AFFC40F6E04240F648454FF419
:101270008071C2F20022CDE90021C2F2002549F6B8
:101280000D321F200290C0F2002200232020039084
:101290002846214600F00AF8284600F09DF908B0DB
:1012A000B0BD00BF7469646C652564002DE9F04F22
:1012B00083B004461D4617460E46DDF8308058B907
:1012C0004AF2E1104AF21531C0F20120C0F20121C8
:1012D0004FF4A572FCF760FBDDF83C90B8F1000F0D
:1012E000DDE90DBA08D14AF215310DA0C0F2012195
:1012F00040F24B12FCF750FB012120463246FEF72C
:1013000079FC204639462A464346CDE900BACDF855
:101310000890F2F7DFFA002003B0BDE8F08F00BFBD
:10132000737461636B5F737461727420213D20522A
:10133000545F4E554C4C000080B500F045FABDE8B6
:10134000804000F04DB8B0B5044658B94AF2E110FB
:101350004AF29221C0F20120C0F2012140F21B4268
:10136000FCF71AFB2046FEF72BFC01280BD04AF2B3
:1013700050204AF29221C0F20120C0F2012140F235
:101380001C42FCF709FB94F83800400702D46FF0C8
:10139000FE00B0BDEEF79CFF2146E369054604F16F
:1013A0005C0051F8182F5360E369E1611A6009602D
:1013B00000F070FC2846EEF78FFF2046FEF764FF32
:1013C00040F6C470C2F20020016809B12046884787
:1013D0000020B0BD40F6F850C2F20020006870470F
:1013E0002DE9F04182B00028019000F0988040F68D
:1013F000F855C2F200252C685CB94AF2E1104AF2B5
:10140000F321C0F20120C0F2012140F27222FCF768
:10141000C3FA2046FEF7D4FB01280BD04AF2502035
:101420004AF2F321C0F20120C0F2012140F27322FE
:10143000FCF7B2FAFDF7C6F90646EEF749FF80461B
:10144000FCF7A5FC80B14AF2F32744A0C0F20127C3
:101450003946FDF726FE49F2881040F27622C0F2A6
:1014600001203946FCF798FA012E10D14AF2F326F2
:1014700045A0C0F201263146FDF713FE49F288105F
:1014800040F27622C0F201203146FCF785FAEEF7F1
:101490001FFF2968064699B94AF2F32749F221103D
:1014A000C0F20127C0F201203946FDF7FAFD49F2EA
:1014B000881040F27622C0F201203946FCF76CFA1F
:1014C000EEF706FF0746FDF7C9FD80B14AF2F325A6
:1014D00037A0C0F201252946FDF7E3FD49F2881047
:1014E00040F27622C0F201202946FCF755FA384630
:1014F000EEF7F2FE3046EEF7EFFE4046EEF7ECFE7A
:10150000EEF7E6FE0646002060630021204600F06C
:10151000C3F838B105463046EEF7DEFE19E06FF04D
:10152000040516E004F15C0701AA002138460025F5
:1015300000F002FA384600F019FB3046EEF7CCFE18
:101540006FF00A006063FEF7CBFD606B753000D171
:101550006563284602B0BDE8F08100BF46756E6342
:1015600074696F6E5B25735D3A207363686564759B
:101570006C6572206973206E6F7420617661696C8E
:1015800061626C650A00000046756E6374696F6E77
:101590005B25735D3A20696E746572727570742094
:1015A00069732064697361626C65640A00000000FD
:1015B00046756E6374696F6E5B25735D2073686139
:1015C0006C6C206E6F742062652075736564206991
:1015D0006E204953520A000010B5044658B94AF229
:1015E000E1104AF20331C0F20120C0F2012140F2C1
:1015F0007D12FCF7D1F994F83800400708D04AF280
:10160000033117A0C0F201214FF4BF72FCF7C4F9F7
:101610002046FEF7D5FA01280BD04AF250204AF2B4
:101620000331C0F20120C0F2012140F27F12FCF729
:10163000B3F994F83900012101FA00F0E0630420C5
:1016400084F838002046FFF77EFE40F6F850C2F2DC
:101650000020006808B1FEF743FD002010BD00BF68
:10166000287468726561642D3E737461742026204D
:1016700052545F5448524541445F535441545F4D66
:1016800041534B29203D3D2052545F54485245411F
:10169000445F494E49540000F0B581B004460D4600
:1016A00058B94AF2E1104AF2B421C0F20120C0F266
:1016B00001214FF47772FCF76FF92046FEF780FAAC
:1016C00001280BD04AF250204AF2B421C0F2012086
:1016D000C0F2012140F2DD32FCF75EF940F6F85726
:1016E000C2F200273868A0420BD04AF2F3104AF247
:1016F000B421C0F20120C0F2012140F2DE32FCF739
:101700004BF994F8380000F00706301F10F1020F73
:1017100002D26FF0FE0046E0EEF7DAFD032E064639
:101720000ED13868A0420BD04AF2F3104AF2B4212D
:10173000C0F20120C0F2012140F2EE32FCF72CF998
:101740002046FEF7F5FD032D0CD24FF6F87040F25F
:101750000461C0F2FF00C0F2070100EAC50021FAEF
:1017600000F009E049F2881010A1C0F201204FF406
:101770007072FCF711F9072094F8381001F0F801A5
:10178000084384F8380004F15C0000F083FA304626
:10179000EEF7A2FD40F6C870C2F20020016809B160
:1017A00020468847002001B0F0BD00BF72745F740E
:1017B00068726561645F7365745F73757370656E7D
:1017C000645F737461746500002814D444F6D351C7
:1017D000C1F26201A0FB01239A094FF47A7302FB64
:1017E0001300584300F2E730A0FB010102FB03F0B5
:1017F00000EB911070474FF0FF30704740F6D0700B
:10180000C2F200200068704710B540F6D470C2F2F2
:101810000020006800B18047EEF75AFD40F6D07115
:101820000446C2F20021086801300860FFF7D2FDCB
:10183000816D0139816503D02046EEF74DFD0CE046
:1018400090F83810426D826541F0080180F8381038
:101850002046EEF741FDFEF743FCBDE8104000F0E6
:1018600001B800002DE9F04F83B00DF1040BCDE974
:1018700001BBFFF7C3FF0646EEF72AFD40F26C54AA
:101880000090C2F200242768A7424FD04FF6FE799D
:1018900040F6D87A40F6DC78C7F6FF79C2F2002A23
:1018A000C2F200287869301A48453FD8DAF80010AB
:1018B000A7F1180509B128468847D7E90010486004
:1018C00017F80B0C7A68830711603F6003D400F0AF
:1018D000FE0007F80B0C0198386001974760D7E9C4
:1018E0000210C7F804B08847FFF788FFD8F8001047
:1018F000064609B1284688470198584513D0D7E9CC
:101900000010486017F80B0C7A6800F00303032BF3
:101910001160C7E9007706D100F0FE0007F80B0C54
:10192000284600F023F92768A742BBD10098EEF7BC
:10193000D3FC03B0BDE8F08FF0B581B00546144686
:101940000F4658B94AF24B304AF27F31C0F20120BB
:10195000C0F2012140F24522FCF71EF82846FEF7AE
:101960002FF90A280BD04AF29E304AF27F31C0F29A
:101970000120C0F2012140F24622FCF70DF8EEF7FB
:10198000A7FC092F064633D8DFE807F00528161A0A
:101990001F2A2C242E266FF000412068884209D38C
:1019A0004AF27F3115A0C0F201214FF41472FBF707
:1019B000F3FF2068A8621BE0687B00F0FD0002E0F6
:1019C000687B40F00200687312E0687BC0070DD1AD
:1019D00000200CE02C620BE06C6209E0A86A06E0D3
:1019E000E86A04E0286A02E0686A00E001202060FA
:1019F0003046EEF771FC002001B0F0BD282A2872B5
:101A0000745F7469636B5F74202A2961726729208F
:101A10003C2052545F5449434B5F4D4158202F2086
:101A20003200000010B5044658B94AF24B304AF271
:101A30006F31C0F20120C0F2012140F22B12FBF7FE
:101A4000ABFF2046FEF7BCF80A280BD04AF29E30C6
:101A50004AF26F31C0F20120C0F201214FF49672B8
:101A6000FBF79AFF2046FEF723F940B94AF26F319F
:101A70000EA0C0F2012140F22D12FBF78DFFEEF710
:101A800027FC2146E36951F8182F5360E369E161AF
:101A90001A60627B096002F0FE016173EEF71CFCC4
:101AA0002046FEF705F8002010BD00BF72745F6F7E
:101AB000626A6563745F69735F73797374656D6F70
:101AC000626A656374282674696D65722D3E706163
:101AD00072656E74290000002DE9F04381B0044660
:101AE0001D4616460F4658B94AF24B304AF2DA31D3
:101AF000C0F20120C0F201214FF48A72FBF74CFFC3
:101B0000DDF820805EB94AF25C304AF2DA31C0F288
:101B10000120C0F2012140F21512FBF73DFF6FF0EA
:101B20000040DDF8249080450BD34AF234304AF26D
:101B3000DA31C0F20120C0F201214FF48B72FBF7C1
:101B40002BFF0A2120463A46FEF754F809F0FE0022
:101B50006073002004F11801C4E90611C4E90865A6
:101B6000C4E90A8001B0BDE8F08300002DE9F0412E
:101B7000044658B94AF24B304AF2E831C0F201202B
:101B8000C0F201214FF4D372FBF706FF2046FEF7A7
:101B900017F80A280BD04AF29E304AF2E831C0F218
:101BA0000120C0F2012140F2A712FBF7F5FEEEF78B
:101BB0008FFB2646804656F8181F72684A6016F852
:101BC0000B0C726800F0FE0006F80B0C116040F67A
:101BD000A861C2F20021C6E90066096809B1204681
:101BE0008847FFF70BFEA16A94F80DE00A1840F24F
:101BF0005850C2F2002040F26C51C2F20021031D85
