:020000040200F8
:10000000A0580122411A0002F50A0002A3030002CF
:10001000EF0A0002EF0A0002EF0A0002EF0A0002F4
:10002000000000000000000000000000EF0A0002D5
:10003000EF0A000200000000DB020002B51A000215
:1000400067FA01026DFB01021BFB0102E1F90102EB
:1000500085500102F90302025F0502029B040202BD
:100060002B0302020000000000000000000000005E
:100070000000000000000000000000000000000080
:100080000000000000000000000000000000000070
:100090000000000000000000000000000000000060
:1000A0000000000000000000000000000000000050
:1000B0000000000000000000000000000000000040
:1000C0000000000000000000000000000000000030
:1000D0000000000000000000000000000000000020
:1000E0000000000000000000000000000000000010
:1000F0000000000000000000000000000000000000
:1001000000000000000000000000000000000000EF
:1001100000000000000000000000000000000000DF
:1001200000000000000000000000000000000000CF
:1001300000000000000000000000000000000000BF
:1001400000000000000000000000000000000000AF
:10015000000000000000000000000000000000009F
:10016000000000000000000000000000000000008F
:10017000000000000000000000000000000000007F
:10018000000000000000000000000000000000006F
:10019000000000000000000000000000000000005F
:1001A000000000000000000000000000000000004F
:1001B000000000000000000000000000000000003F
:1001C00000F002F800F047F80AA090E8000C824422
:1001D0008344AAF10107DA4501D100F03CF8AFF2FF
:1001E000090EBAE80F0013F0010F18BFFB1A43F015
:1001F0000103184730B6020050B60200103A24BF7F
:1002000078C878C1FAD8520724BF30C830C144BF7B
:1002100004680C60704700000023002400250026BD
:10022000103A28BF78C1FBD8520728BF30C148BF59
:100230000B6070471FB527F011F800F086F900F049
:10024000AFFB04000020002126F0F2FF401C60609C
:100250001FBD10B510BDDFF810D0FFF7EBFF00F0A9
:1002600041FC00F036FC0000A038012203B4FFF787
:10027000F0FF03BC03F0BEFA0B49D1F800C04A6896
:100280005CF8043B1068184442F8040B8C4528BF06
:10029000A1F1DC0C8A4228BFA1F1DC02C1F800C048
:1002A0004A6020F0004070475C060022EFF31080A7
:1002B00072B6704780F310887047484A1368012B64
:1002C00004D04FF001031360454A1060454A1160A5
:1002D00045484FF0805101607047EFF3108272B6CD
:1002E0003E48016879B34FF0000101603C48016865
:1002F00091B1EFF309811EF0100F08BF21ED108BB3
:1003000021E9F00F4FF000041EF0100F08BF012488
:1003100041F8044D0068016000B501F0F9FC5DF89A
:1003200004EB30490968096808C9B1E8F00F002BEF
:1003300018BFB1EC108B81F309884EF0100E002B22
:1003400018BF2EF0100E82F310884EF0040E704786
:1003500024490860EFF3148222F0040282F3148827
:100360001F494FF0000008601C494FF00100086071
:100370001E481F49D0F8002041EA020101601A48D6
:100380004FF0805101601B480068006800BF80F397
:10039000088861B662B6BFF34F8FBFF36F8F7047A7
:1003A00000BFEFF308801EF0040F01D0EFF30980C7
:1003B00020E9F00F40F804ED40F804ED1EF0040FC2
:1003C00002D080F3098801E080F3088800B516F0B8
:1003D00017FF5DF804EB4EF0040E7047BCC100221D
:1003E000F0BF0022FCBF002204ED00E020ED00E0A1
:1003F0000000FFFF08ED00E07047000010B500F0BE
:10040000CFFA001D10BD00BF296E020000487047E2
:100410006406002253EA020C00F069802DE9F04BDB
:100420004FF00006002B1FBFB3FA83F503FA05F463
:1004300024FA05F65E4012BF1643B2FA82F502FABC
:1004400005F4C5F120051EBF22FA05FC44EA0C04A0
:10045000203556EA044C4FEA144418BF641C4FF090
:1004600000084FF00009904271EB030C39D30029CA
:1004700019BFB1FA81F701FA07F6B0FA80F700FA6E
:1004800007F6C7F120071EBF20FA07FC46EA0C0654
:100490002037B6FBF4FCA7EB0507103F07F01F0B56
:1004A000CBF120062CFA06F60CFA0BFB44BFB34640
:1004B0000026202FA4BF5E464FF0000B5BEA060C1F
:1004C00008BF4FF0010B19EB0B0948EB0608ABFB1B
:1004D000027C06FB02CC0BFB03CCC01B71EB0C01B6
:1004E000C1E70B46024641464846BDE8F08B13B5CE
:1004F000084318BF4FF0FF300146AFF30080BDE85E
:100500001C40704770B50646FFF780FF046805463B
:1005100030460A22002100F047FA2C6070BD00002E
:100520000B4910B5A1F17C020A4CC2E93712372100
:1005300006E000EB104342F82130074B00FB03407C
:100540000B1EA1F10101F4DC10BD0120E8E7000061
:10055000FC050022E119D666CD0D0100401ECAB28D
:1005600010F8011F8A4202D00029F9D100207047FB
:1005700030B505460B462A4613F8014B12F8010B1D
:1005800008B1A042F8D01CB1002802D06D1CF1E7E0
:10059000284630BD40EA010310B59B070FD1042A5D
:1005A0000DD310C808C9121F9C42F8D020BA19BA3E
:1005B000884201D9012010BD4FF0FF3010BD1AB1A3
:1005C000D30703D0521C07E0002010BD10F8013BF8
:1005D00011F8014B1B1B07D110F8013B11F8014B1F
:1005E0001B1B01D1921EF1D1184610BD40EA010338
:1005F000024630B59B0710D14FF0013400E008C22D
:1006000008C91D1B9D4315EAC41FF8D013F0FF0154
:1006100002F8011B0DD01B0AF8E711F8013B002B73
:1006200002F8013B05D011F8013B002B02F8013B19
:10063000F3D130BD0022CBB210F8011B994200D19A
:10064000421E0029F8D11046704710B5431C02E045
:1006500010F8011B71B18107FAD14FF0013202C8C5
:100660008C1A8C4314EAC211F9D0C01A0A0603D0BE
:10067000C01E10BDC01A10BD0A0401D0801E10BDDE
:100680000902FCD0401E10BD40EA010370B59B0773
:100690002ED14FF00136042A2AD308C810C99D1B59
:1006A0009D43121F15EAC61517D0D8B2E1B2401A01
:1006B00050EA056110D198B2A1B2401A50EA054142
:1006C0000AD123F07F4024F07F41401A50EA0521EF
:1006D00002D1180EA0EB146070BDA342DBD018BA93
:1006E00021BA884201D9012070BD4FF0FF3070BDA2
:1006F0000AB9002070BD10F8013B11F8014B63B13D
:10070000A3420AD1521E08D010F8013B11F8014B48
:100710001BB1A34201D1521EEDD1181B70BD421E68
:1007200012F8013F002BFBD111F8013B002B02F81E
:10073000013BF9D17047032A40F2308010F0030CDE
:1007400000F0158011F8013BBCF1020F624498BF24
:1007500011F801CB00F8013B38BF11F8013BA2F1C1
:10076000040298BF00F801CB38BF00F8013B11F03C
:10077000030300F02580083AC0F0088051F8043BDC
:10078000083A51F804CBA0E80810F5E7121D5CBF49
:1007900051F8043B40F8043BAFF30080D20724BF7C
:1007A00011F8013B11F801CB48BF11F8012B24BF10
:1007B00000F8013B00F801CB48BF00F8012B70475F
:1007C00010B5203AC0F00B80B1E81850A0E81850DE
:1007D000B1E81850A0E81850203ABFF4F5AF5FEA2E
:1007E000027C24BFB1E81850A0E8185044BF18C9D3
:1007F00018C0BDE810405FEA827C24BF51F8043B7A
:1008000040F8043B08BF7047D20728BF31F8023BCD
:1008100048BF11F8012B28BF20F8023B48BF00F861
:10082000012B704702F0FF0343EA032242EA02422F
:1008300000F002B84FF000020429C0F0128010F05E
:10084000030C00F01B80CCF1040CBCF1020F18BFAC
:1008500000F8012BA8BF20F8022BA1EB0C0100F03F
:100860000DB85FEAC17C24BF00F8012B00F8012B12
:1008700048BF00F8012B70474FF0000200B5134647
:1008800094469646203922BFA0E80C50A0E80C50B0
:10089000B1F12001BFF4F7AF090728BFA0E80C5061
:1008A00048BF0CC05DF804EB890028BF40F8042B5A
:1008B00008BF704748BF20F8022B11F0804F18BFC7
:1008C00000F8012B704710B5044610F0030F08BF65
:1008D00011F0030F40F015804FF0013E121FC0F2DF
:1008E0000E8051F8043BA3EB0E0C2CEA030C1CEA1F
:1008F000CE1C08BF40F8043BF0D0A1F1040102F186
:100900000402521E08DB11F8013B00F8013B002BEA
:10091000F7D11146FFF78EFF204610BD0000000002
:1009200030B44FF0013C50F8042B51F8043BCCFAA2
:1009300052F4D51A20D1FCB950F8042B51F8043BDD
:10094000CCFA52F4D51A17D1B4B950F8042B51F897
:10095000043BCCFA52F4D51A0ED16CB950F8042BE2
:1009600051F8043BCCFA52F4D51A05D1002CDAD058
:1009700030BC4FF00000704729BAB1FA81F111F094
:100980001801D1F120008440F2D1CA40CB4012F0CE
:10099000FF0213F0FF0330BCD01A7047704700000D
:1009A00000487047840600222DE9F04791460F4623
:1009B00080460446002614F8015B2DB1FFF71EFDAA
:1009C0000068405DC007F6D12B2D02D02D2D18D028
:1009D000641E4A463946204600F01EF827B13968A1
:1009E000A14201D1C7F800804FF0020471050BD578
:1009F0004042002803DDFFF709FD0460A007BDE8C1
:100A0000F08746F48066E4E70028F8DAFFF7FEFC9A
:100A100004606FF00040F2E72DE9F05F8246154672
:100A20008B4600270AF10104B9460078302801D02E
:100A30009DB113E014F8010B0127782803D0582842
:100A400001D045B10AE00DB1102D07D1002714F8EF
:100A5000010B102502E0082500E00A250026B0461B
:100A60000EE005FB080005FB06F101271FFA80F8E0
:100A700001EB1046B6F5803F00D3B94614F8010BE0
:100A8000294600F018F80028EBDABBF1000F05D07A
:100A90000FB1641E00E05446CBF80040B9F1000FDE
:100AA00006D0FFF7B3FC02210160C81EBDE8F09F2D
:100AB00048EA0640FAE73A2800D2303820F020020F
:100AC000412A01D3A2F13700884201D34FF0FF3011
:100AD000704710B50446AFF300802046BDE81040D3
:100AE000FFF7C4BB80B51EF088FA002080BD00BEB1
:100AF00070470000F0B581B04CF2001542F2E007FB
:100B0000C4F200050024C2F200272888298C08407E
:100B100086B200BF26FA04F0C00703D0396809B1D5
:100B20002046884701340437102CF3D12E8200BFB1
:100B3000288C3042FCD101B0F0BD0000B0B542F2CB
:100B40002404C820C4F2200401210025257100F0EE
:100B500082F82570207808B12FF005C0207840F089
:100B60000200207020788007FCD4002004F8020CDA
:100B700014F8020C08B12FF005C84FF0030E002046
:100B800004F11C0111F8102002F07F0201F810207E
:100B900011F91020002AFBD401300FF00DC80120FC
:100BA00000F00BF84EF64C410120C4F20101002286
:100BB0000A70BDE8B04000F027B880B5EFF31081AF
:100BC000012282F3108842F24412C2F2002232F86B
:100BD00010308BB947F2544C4EF2FA3EC0F2022C60
:100BE000C4F2010E3CF810C0BEF8003043EA0C031A
:100BF00043F42543AEF8003032F81030013322F8C8
:100C0000103081F3108880BDEFF31081012282F350
:100C1000108842F24412C2F2002232F8103023B19E
:100C200032F81030013B22F8103032F810207AB937
:100C30004EF2FA3247F2544CC4F20102C0F2022CD6
:100C400013883CF8100043F4254323EA0000108089
:100C500081F31088704740F2C4624CF60023C2F260
:100C60000022C3F69A3341434FF47A7C1268B3FBF7
:100C7000F2F2A1FB0C3010B9B3FBF2F004E0B1FBCF
:100C8000F2F0A0FB0C0119B908B103F021BA7047CA
:100C90004FF0FF3003F01CBA4FF66801C2F200219A
:100CA00051F8200070477047022818BF704747F678
:100CB0008C20C0F20220416842F23410C2F20020BF
:100CC00000F0AAB9014640684CF2003240F2004CF4
:100CD000C4F20002C2F2002C52F8203023F08073DC
:100CE00042F820304A68002000230B604CF8223084
:100CF000704741684CF20032C4F20002002052F802
:100D0000213023F0807342F82130704741684CF263
:100D10000032C4F20002002052F8213043F0807308
:100D200042F821307047406840F20042C2F200228F
:100D300052F820000022C1E90022C278402A05D2E0
:100D40004FF480328A60C089C8600FE04FF480722F
:100D50008A60C289D2B2CA60C27802F0C002802A18
:100D600004D14FF480320A608089486000207047C7
:100D70002DE9F0414BF6FC4240F20046C2F200225F
:100D80000D460446C2F20026137813BB43F200005E
:100D90004FF00108C4F2200082F80080EFF31087C2
:100DA00088F31088016821F48001016000689620B2
:100DB0000121FFF750FF87F310884FF4C0713046D0
:100DC000FFF75AFD4AF60C40C4F20000866080F836
:100DD000008068680068002805D456F8201029B102
:100DE0000820BDE8F0810B20BDE8F0812968606033
:100DF00011B1204614F024F944F20030C4F25440FA
:100E000020600020BDE8F081B0B5044640684CF297
:100E10000035C4F2000555F8202022F0807245F814
:100E2000202060684AF60E4240F40040C4F20002FE
:100E300013889842FCD0204614F002F96168002023
:100E400055F8212042F0807245F82120B0BD0620DF
:100E500070470000B0B582B00191009241684CF239
:100E6000003CC4F2000C4AF60E44C4F200045CF8E4
:100E7000212022F080724CF82120416841F4004189
:100E800022889142FCD00821A170019940F2004EC5
:100E9000C2F2002E21B1019942685EF82220516011
:100EA000009929B1009A41685EF82150AA6000E0DB
:100EB00041685EF821E09EF8031001F0C002802A2C
:100EC00002D1AEF80C3003E03F2998BFAEF80E30E7
:100ED0001821A170416800205CF8212042F0807246
:100EE0004CF8212002B0B0BD0620704706207047A4
:100EF00001464068002817D44EF2801C00F01F0203
:100F00004009CEF2000C012303FA02F24CF8202033
:100F1000BFF34F8FBFF36F8F486842F2C012C2F227
:100F20000022002342F82030002000220A6070478F
:100F300040684EF2801300F01F014009CEF200031A
:100F4000012202FA01F143F820100020BFF34F8F75
:100F5000BFF36F8F704740684CF20031C4F200015C
:100F60004EF2001CCEF2000C51F8202022F4803208
:100F700041F8202051F82010410900F01F00012203
:100F80000CEB810302FA00F0BFF35F8FC3F880011E
:100F90004CF821000020704770B546F2000C4B68F9
:100FA000C4F2000C43600CF5C64E024600245EF805
:100FB00023004EF823400B784D69D5608D6915618B
:100FC000137203F80C400B7B0C7C0D7A167A1B0114
:100FD00043EAC4132B4306F80C3053684EF8230041
:100FE000506800280CD44EF2004342F2C0164978F3
:100FF000CEF20003C2F200260901C15446F82020B7
:1010000044F255310020C0F24901116070BD014623
:10101000002000220A60704780B545F25422C5F2D4
:101020004F020260084614F067F8002080BD70B5DA
:1010300086B001A8049003A814460D46CDE901210D
:101040000126ADF80C6003F047F842F24C10EFF3C4
:101050001081C2F2002086F3108802683AB940F687
:1010600014520023C4F2400213704023137002682C
:101070000132026081F31088E10340F600014FEA7B
:101080001522C4F2400101D4EBB20CE001EB821650
:10109000EBB256F8235025F4803546F8235024F45B
:1010A000803546F8235001EB8211012241F823409C
:1010B000EFF3108182F31088026812B10268013ADE
:1010C0000260006838B940F614500022C4F24000B3
:1010D00002708022027081F31088002006B070BD7B
:1010E0004FF4FF50042300EAD100C4F24003C9B218
:1010F000C0580023CFF6FF7343EA104020FA01F1F5
:10110000002001F001011160704780B5C8B24FF0B6
:10111000010C531E0CFA00F050EA138E4FF4FF5CE2
:101120000C230CEAD101C4F24003012A18BF0020AD
:10113000012A41EA030CCA5808D180B24FF6FF7168
:1011400041EA0E41104300EA010205E042EA0E4185
:10115000CFF6FF7001EA00020020CCF8002080BD2D
:101160006FF03F00CBB200EA910040F6000100EBC7
:101170008300C4F2400141580020C1F340011160D6
:10118000704780B55FFA81FE012000FA0EF0002A58
:1011900083B24FF4FF5040F208024FF4803C00EA63
:1011A000D101C4F240024FF0000008BF0CFA0EF368
:1011B0008B5080BD80B5084613F09EFF002080BD97
:1011C00080B54FF4FF5040F2000C00EAD101C4F2A8
:1011D000400C03EA020E62EA030251F80C004EEAE8
:1011E000000E002002EA0E0241F80C2080BD4FF4F0
:1011F000FF5000EAD1000421C4F240014158002010
:10120000090C1180704723EA020C4FF4FF501A407A
:101210000C2300EAD101C4F24003002042EA0C4250
:10122000CA5070474FF4FF50042300EAD101C4F2C2
:1012300040030020C9581180704723EA020C4FF484
:10124000FF501A40082300EAD101C4F240030020F5
:1012500042EA0C42CA5070472DE9F04F81B00A783B
:101260004FF0010C40F21F2304460CFA02F748F23B
:1012700000001F42C4F235005FEA0F9300EB02202A
:10128000A278206218012070886B606222F003004F
:10129000D1E90F38421CA2704A680D46002AE36269
:1012A000E1614FF00002A26202D140F00200A070A2
:1012B0004EF20019E96ACEF200094A0909F18000EC
:1012C00001F01F034CF2003A95F828B00CFA03F332
:1012D00040F82230C4F2000A01F00F03BFF34F8F31
:1012E000BFF36F8F5AF821201F1F09F540734EF688
:1012F000185E22F480324AF82120CEF2000E5E18E9
:101300005AF82120002948BF07EB0E064FEA0B12BE
:1013100042F2C01B3270C2F2002B6A6902F01F0653
:101320002F7C4BF8214051090CFA06F6002A40F8B0
:10133000216002F00F06BFF34F8FBFF36F8F5AF893
:10134000221021F480314AF82210A6F1040103EBA7
:10135000020648BF01EB0E065AF82210390131701F
:10136000E9694BF822404A0901F01F072E7E0CFA6A
:1013700007F740F8227001F00F07BFF34F8FBFF35C
:101380006F8F5AF82120002922F480324AF8212058
:10139000A7F1040203EB010748BF02EB0E075AF85E
:1013A000212032013A706A6A4BF82140510902F05B
:1013B0001F0795F820600CFA07F740F8217002F03B
:1013C0000F01BFF34F8FBFF36F8F5AF8220004391C
:1013D00020F480304AF8220013445AF82200002AF0
:1013E00048BF01EB0E03300118704BF82240EFF3B9
:1013F00010868CF3108828784FF0004121FA00F015
:1014000043F20401C4F220010A6822EA00000860E5
:10141000086896200121FFF71EFC86F310884FF420
:101420008061206A4FF440738160286C6968EA68C3
:1014300003EA0121D0E900C762F38E31C66907F0E3
:10144000010306F001020CF0030741EAC333266AE8
:1014500043EA4252237842EA076241F20007C0F2AF
:101460001007C168002B08BF4FF480573A447261DF
:10147000026822F00103022B07D14FF60471022A01
:10148000CFF6007108BF203100E00968226A4FF4EE
:10149000407711618169AB68826801F00301022B1A
:1014A00002F0010208BF4FF48077002B18BF3944C7
:1014B000236A41EA02713031D9600021226A9161C8
:1014C0002278B2B1226A48F20003C0F2800353626C
:1014D000E2692378276A126C013B12697E6A1A401E
:1014E00003F00F0302F00F0246EA036343EA0242ED
:1014F0007A6290F82520036A90F8240003F0010333
:1015000002F01F0260F30C23206A43EA02420263E6
:101510001022206AC4E90511C4E90311C9F6075273
:10152000D8F81410A16082660120216A0867E16979
:101530004A6953095AF8221021F480314AF82210DE
:101540005AF8221009F5C07102F01F02BFF35F8F35
:1015500000FA02F241F8232049F82320E269D26A16
:101560005AF8223023F480334AF822305AF82230D5
:10157000530902F01F02BFF35F8F00FA02F241F835
:10158000232049F82320E269D2695AF8223023F453
:1015900080334AF822305AF82230530902F01F02F1
:1015A000BFF35F8F00FA02F241F8232049F82320AD
:1015B000E269526A5AF8223023F480334AF8223022
:1015C0005AF82230530902F01F02BFF35F8F904098
:1015D00041F8230049F8230040F21141206AC0F28B
:1015E00001018160206A00BF017FC907FCD044F679
:1015F00042110020C5F24331616001B0BDE8F08FB7
:1016000070B505464EF2200001291446C4F20100CF
:1016100012D10168027942EA113002F00F0200078C
:10162000C1F3033012D440F2C461C2F20021096850
:10163000914021FA00F039E090F8361001F00F01E6
:10164000022923D8012202FA01F627E002F007035B
:101650004FF0030C0CFA03F34FF0010E082A4FEA87
:10166000113638BF0EFA02F340F2C46206F00706E4
:10167000C2F200220CFA06F60904126803FB02F219
:1016800058BF0EFA00F6B2FBF6F00FE0033902295C
:1016900003D81DA252F8216000E0052690F837001B
:1016A00000F00F00FFF7F8FAB0FBF6F0284401381D
:1016B000B0FBF5F0B0F5805F01D9062070BD0228BF
:1016C00005D2607800F0FC006070002019E04FF057
:1016D000FF314FF4007200BF0131032903D802FA31
:1016E00001F39842F8D8022263788A40104401F04E
:1016F000030201380131C84003F0FC0301381A44E9
:1017000062702070002070BD06000000080000001C
:10171000030000002DE9F04F83B00D4609784CF22C
:1017200000098246EF6AC4F2350909EB01247FB152
:1017300078684FF00061006801607968BB683868BC
:101740000A6894601A6890470646002840F059815C
:10175000286BB0B141684FF4002209680A60416803
:10176000836800680A6854601A689047064628B182
:1017700027B1B9683868096A884742E1002E40F00D
:101780004081686BCAF824002878A96BCAF82C102D
:10179000296ACAF80450AA6A09EB0020CAF80800AE
:1017A000EE6B4FF0000BD5E90650CAF828B040EABE
:1017B000410096F8211040EA0234D6E90037D6E914
:1017C000038224F0E064B0680190D6E905C002907D
:1017D00053EA050001F0030008BF44F0800496F8C6
:1017E00020E044EA0861002D41EA8005F46902D056
:1017F0004FF444160AE0D6E9091045F46045F66A4C
:1018000041EA002040EA064BA9F5962646EAC47054
:10181000002B18BF40F080704FF48071002F08BF7C
:1018200040F40030BCF1010FA94608BF4FF44071ED
:1018300041EA0771BCF1000F08BF39070127EFF338
:10184000108687F3108840EA0104DAF804304FF478
:101850000010022A197843F20403C4F22003C1F1F4
:10186000130108BF4FF4401007FA01F1002A50EAB3
:1018700012871868884318600198196800FA08F000
:1018800040EA0E2596200121FFF7E5F986F310883E
:101890000021DAF80800CFF680514EF200134EF620
:1018A000185C8166CEF20003DAF80800CEF2000C74
:1018B00042F2C01E4FF001080561C2F2002EDAF8B4
:1018C0000800C0F804B0DAF80800C760DAF80800C9
:1018D000C0F81490DAF808000299016424F08041FD
:1018E000DAF808008160DAF8080081688460DAF8C4
:1018F000040003F540718768427D07F00F00CD19A1
:10190000061F002F48BF06EB0C054CF200361201F3
:10191000C4F200062A704EF827A07C0956F827501A
:1019200025F4803546F8275056F8275003F5C07542
:1019300007F01F07BFF35F8F08FA07F745F8247019
:1019400043F82470DAF804707C6804F00F003F7DDF
:1019500004380A19002C48BF00EB0C023801107043
:101960004EF824A004F01F0256F8240008FA02F2F0
:1019700020F4803046F8240056F8240060094FF027
:101980000108BFF35F8F45F8202043F82020DAF8E4
:1019900004000269C07D02F00F048F18043C002A85
:1019A00048BF04EB0C07000138704EF822A056F82F
:1019B000220020F4803046F8220056F82200500918
:1019C00002F01F02BFF35F8F08FA02F245F82020F1
:1019D00043F820200026DAF80400C268807D02F077
:1019E0000F031144043B002A48BF03EB0C01000124
:1019F000087045F249004EF822A0C5F25320CAF8FB
:101A00000000304603B0BDE8F08F80B582B0944648
:101A10000A4600210093634613F00DFC02B080BD1E
:101A200080B582B0944600220093634613F003FC15
:101A300002B080BDDDF800C0CDF800C013F0FBBBE4
:101A400000F086F8FFF74EF8FEE7000080B507F0DB
:101A500099F80FA016F088F949F2CB004FF0D04169
:101A6000C0F202204FF00072102316F07DF90DA095
:101A700016F07AF94FF2C0600CA1C2F200204FF0CC
:101A8000D0424FF0007316F0F7FC002080BD00BF7D
:101A90001B5B306D5B442F6472765F736472616DA3
:101AA0005D2000001B5B306D0A00000073647261F2
:101AB0006D00000080B516F01DF919F0F3FCBDE8CB
:101AC000804016F03AB94EF22401C4F20101887840
:101AD000097801F00F010A2911D009291DD0082920
:101AE00029D14FF66801C2F2002151F820004AF6D0
:101AF000AB21CAF6AA21A0FB0101480822E04FF65B
:101B00006801C2F2002151F820004AF6AB21CAF662
:101B1000AA21A0FB0101C80814E04FF66801C2F237
:101B2000002151F820004AF6AB21CAF6AA21A0FBF9
:101B30000101880806E04FF66802C2F2002252F85E
:101B40002000C84040F2C461C2F200210860704722
:101B50002DE9F0414EF6085840F20120CEF200087F
:101B6000C0F20E0040F200050024C8F80C004FF44B
:101B70007000BFF34F8FBFF36F8FC8F88000002055
:101B8000C0F20025C8F80050FFF78EF802F07CF98B
:101B900001200126FFF788F828684FF2E821A0F518
:101BA000005080F30A8840F28050C0F20001C2F277
:101BB0000020FEF761FE40F200004BF6004140F2CB
:101BC0008052C2F20020C0F20221C0F20002FEF7F1
:101BD000F7FD4CF280174CF280114CF2801C4CF255
:101BE0008013C0F20227C0F20221C0F2022CC0F220
:101BF0000223C91B40F20005A3EB0C03C908C0F285
:101C0000000541F007C800BFF7E80201E5E802015E
:101C10000FF007C0D80840F2000140F20003C2F202
:101C20000001C2F2000340F20007C2F200075D1A91
:101C300040F009C000BF00BFFCE80223E7E8022330
:101C40000FF007C0E808254640F007C000BF00BFFE
:101C5000E1E802450FF005C0BFF34F8F40F2C01519
:101C600040F2C010BFF36F8FC8F84842C0F20025A1
:101C7000C0F20020BFF34F8F401BBFF36F8F811066
:101C8000012909DB2F46C8BF861000BF57F8040B97
:101C900028448047013EF9D1FFF715FFFEF74EFFBC
:101CA0000320FEF78AFF4FF0100E40F63050C4F2CA
:101CB000400000BF20F8044B0FF005C04EF2101496
:101CC0000320C4F20104FEF79FFFD4F8C80210B14C
:101CD000D4F8C80212E0207880B10120FEF76DFF31
:101CE000207800F0C0008028FAD10020207000BFCA
:101CF00020783F28FCD80120FEF786FF0220FEF75F
:101D0000D3FF02F0CFF90020BDE8F04102F0C8B9DE
:101D100080B582B019F0A2F9C06A0190019880F3F1
:101D20000B8802B080BD00004EF60C500422CEF2AB
:101D30000000C0F2FA52BFF34F8F016801F4E06176
:101D400011430160BFF34F8F00BFFDE790FAA0F190
:101D50000028B1FA81F150EA01907047B0B505460C
:101D600019F07CF990B1044609A015F0FDFF0DA013
:101D700021462A4615F0F8FF0FA015F0F5FF0121C6
:101D800000222046BDE8B04018F01CBFB0BD00BF27
:101D90001B5B33336D5B572F7374646C69625D201A
:101DA000000000007468726561643A2573206578EC
:101DB00069743A25642100001B5B306D0A00000045
:101DC0000020704711B102690A4204D04269012320
:101DD0009360FFF7F5BF4FF0FF30704770B5466C6A
:101DE00005463EB948F228601BA1C0F20220B1228C
:101DF00014F0A4FBFEF75AFA044605F1140019F09A
:101E00005FFC28686A68298A42606A6821F00201DA
:101E1000298210603069A842C5E9005508D072686F
:101E200041F00101298213682B6015605D606A60D2
:101E300020B9B06B90F83810490704D42046BDE8AB
:101E40007040FEF737BA19F0C2F82046FEF732FAB2
:101E5000BDE8704017F0D0BB5F64656C6179656464
:101E60005F776F726B5F74696D656F75745F6861C2
:101E70006E646C6572000000F0B581B00C460546DA
:101E800016F082F9C8B9072017F0DEF8064628B91F
:101E90000BA011A140F2153214F050FB56F8047F4C
:101EA000B74209D0A7F11000A84203D0214616F08E
:101EB0006BF910B93F68F3E7002001B0F0BD00BF37
:101EC000696E666F726D6174696F6E20213D20527C
:101ED000545F4E554C4C00005F6D656D68656170D8
:101EE0005F616C6C6F63000016F0F0B9F0B581B003
:101EF0001546074601B30C462DB354F8140C214681
:101F00002A4616F013FB064608BB38462946FFF75B
:101F1000B3FFD8B10646A4F1180054F8101C081AF3
:101F200021461838A84250EA3582304616F0DEF8CD
:101F3000204616F0CBF90AE03846294601B0BDE844
:101F4000F040FFF799BF204616F0C0F90026304652
:101F500001B0F0BDB0B5022803DCBDE8B04000F030
:101F600001B905460C46496858A018F0D3FCD8B111
:101F7000616857A018F0CEFC18B3616856A018F03D
:101F8000C9FC50B3616856A018F0C4FC0028E4D125
:101F9000032DE2D9A0680FF04DFB0028A06860D0A7
:101FA000FEF7B0FA054662E0A06817F027F9B0F135
:101FB000FF3FA16874DD024667A0BDE8B04015F0A0
:101FC000D3BE032DC9D9A0680FF034FB0028A06848
:101FD00020D0FEF797FA054622E0A0680FF02AFB12
:101FE0000028A06803D0FEF78DFA054605E017F03B
:101FF00005F90546B0F1FF3F51DD284617F06AF9B3
:10200000012801D141A000E03CA02946BDE8B04034
:1020100015F0AABE17F0F2F80546B0F1FF3F3EDD1D
:10202000E1683EA018F076FCB8B1E1683DA018F078
:1020300071FCA0B1E1683DA018F06CFCE8B3E16868
:102040003EA018F067FCD0B3E16840A018F062FC35
:1020500000287FF482AF042132E0002130E001212A
:102060002EE017F0CBF80546B0F1FF3F17DDE16831
:102070001DA018F04FFCD0B1E1681DA018F04AFC7B
:10208000A8B1E1681BA018F045FC30B1E1681AA0C6
:1020900018F040FC00287FF460AF002108E0A16840
:1020A00048F28360C0F2022015F05EFE55E7012180
:1020B0002846BDE8B04017F02DB9022100E0032109
:1020C0002846BDE8B04017F0E3B800BF6E756D005C
:1020D0006D6F6465000000007265616400000000BF
:1020E0007772697465000000686967680000000025
:1020F0006F6E00006C6F77006F66660070696E5BD4
:1021000025645D203D206C6F770A000070696E5B6E
:1021100025645D203D20686967680A006F757470EA
:1021200075740000696E707574000000696E7075DA
:10213000745F70756C6C757000000000696E70756E
:10214000745F70756C6C646F776E00006F7574707F
:1021500075745F6F640000002573203A2025640ABF
:102160000000000080B548F29C60C0F2022015F02B
:10217000FBFD48F23170C0F2022015F0F5FD48F287
:10218000AF60C0F2022015F0EFFD48F2A670C0F279
:10219000022015F0E9FD48F20270C0F2022015F0AD
:1021A000E3FD0BA015F0E0FD48F26270C0F20220E2
:1021B00015F0DAFD10A015F0D7FD1BA015F0D4FD29
:1021C00021A015F0D1FD23A0BDE8804017F016B87E
:1021D00020202020202020202020202020202065BA
:1021E0002E672E204D5348203E70696E2072656127
:1021F00064204750494F0A00202020202020202022
:1022000020202020202020652E672E204D5348209E
:102210003E70696E207772697465204750494F207F
:10222000686967680A000000202020202068656C2B
:10223000703A2020202020746869732068656C70D3
:10224000206C6973740A00004750494F20652E675F
:102250002E3A000020000000B0B50446154638B9FB
:1022600048F2D57008A1C0F20220372214F066F9B6
:102270003DB1A06C2A792968036820469847002060
:10228000B0BD6FF0FE00B0BD5F70696E5F636F6ED2
:1022900074726F6C0000000070B505461E4614464F
:1022A00038B948F2D5700AA1C0F20220162214F003
:1022B00045F94FF000004CB1082E18BF70BDA86C56
:1022C00021688268284690472071082070BD00BFB1
:1022D0005F70696E5F7265616400000070B50446EE
:1022E0001E46154638B948F2D5700AA1C0F2022040
:1022F000262214F023F94FF000004DB1082E18BF2C
:1023000070BDA06C2A792968436820469847082048
:1023100070BD00BF5F70696E5F77726974650000A1
:10232000B0B504461C200D4615F04EFDB0B1014677
:10233000B5F9040041F6C5520861081DC1E9010064
:10234000E868C0F200220860CA602869C1E9055047
:1023500020462961BDE8B0401CF0F0BDB0BD0000D2
:102360002DE9F04F81B08346984692468946009306
:1023700058B949F2C97049F69611C0F20220C0F26C
:1023800002214FF4F16214F0D9F8584616F06CFEB1
:1023900004280BD049F6471049F69611C0F20220E6
:1023A000C0F2022140F2897214F0C8F815F0F8F872
:1023B0000746FDF77BFF054614F0BBFA98B149F6D6
:1023C000961449F24970C0F20224C0F2022021465C
:1023D00015F0CAFC49F2F81040F28C72C0F20220EB
:1023E000214614F0ABF8012F13D149F6961449F2A7
:1023F0002470C0F20224C0F20220214615F0B4FC81
:1024000049F2F81040F28C72C0F20220214614F01A
:1024100095F8FDF74BFF074618F020FE98B949F6EE
:10242000961448F29E50C0F20224C0F202202146C7
:1024300015F09AFC49F2F81040F28C72C0F20220BA
:10244000214614F07BF8FDF731FF044615F069FCD6
:1024500098B149F6961648F27750C0F20226C0F2BB
:102460000220314615F080FC49F2F81040F28C72DF
:10247000C0F20220314614F061F82046FDF71AFF41
:102480003846FDF717FF2846FDF714FFB9F1000F96
:1024900024D018F0E3FD4CF29C010546C2F2002165
:1024A0006FF00A006863096809B1584688470A9EB8
:1024B000FDF7FCFE5FEACA71044612D15FEA8A703A
:1024C00041D449F2F81049F69611C0F20220C0F248
:1024D000022140F2AB7214F031F808E06FF0FE0612
:1024E0008FE0DBF8200000EA0901494530D0B8F15F
:1024F000000F43D095F838009BF80D70C5F84C904C
:1025000085F850A0400706D40B99284618F00CFF18
:1025100008B1064635E00BF11800B7B3012F3ED1E4
:10252000014600BF096881422FD091F8212095F81B
:1025300039309342F6D2486805F11802E8614A60E2
:102540000260A96136E0DBF8200010EA090FCED066
:102550004FF00001696326B100EA09003060DBF842
:1025600020005FEA4A7200EA0901E96485F850A098
:102570003BD520EA0900CBF8200036E06FF0740666
:102580006E632046FDF796FE3BE0DBF81C1005F17C
:102590001802E961CBF81C200A60A8610AE049F240
:1025A000F81049F2FC71C0F20220C0F20221B622FA
:1025B00013F0C4FFB8F1010F09DB05F15C066A46B0
:1025C0000021304619F006F8304619F01DF9204672
:1025D000FDF770FE17F010F86E6B96B9FDF766FE0A
:1025E0000A99044609B1E86C08602046FDF762FECE
:1025F0004CF29800C2F20020016809B158468847A1
:102600006E6B304601B0BDE8F08F00002DE9F04F51
:1026100085B00446174689460393049258B949F297
:10262000AC7049F68A11C0F20220C0F2022140F6D5
:102630007A2213F083FF204616F016FD05280BD0F2
:1026400049F6E81049F68A11C0F20220C0F20221D0
:1026500040F67B2213F072FF002F6FD014F0A0FF22
:102660000646FDF723FE804614F063F998B149F65B
:102670008A1549F24970C0F20225C0F202202946AB
:1026800015F072FB49F2F81040F67E22C0F20220EB
:10269000294613F053FF012E13D149F68A1549F24A
:1026A0002470C0F20225C0F20220294615F05CFB1E
:1026B00049F2F81040F67E22C0F20220294613F0BB
:1026C0003DFFFDF7F3FD824618F0C8FC98B949F6C6
:1026D0008A1548F29E50C0F20225C0F20220294617
:1026E00015F042FB49F2F81040F67E22C0F20220BB
:1026F000294613F023FFFDF7D9FD054615F011FB20
:1027000098B149F68A1648F27750C0F20226C0F214
:102710000220314615F028FB49F2F81040F67E22DF
:10272000C0F20220314613F009FF2846FDF7C2FD32
:102730005046FDF7BFFD4046FDF7BCFD18F08EFC8E
:102740004CF29C010646C2F20021096809B12046FC
:102750008847FDF7ABFDE18C054631B92FB9284616
:10276000FDF7A8FD6FF07407B4E079B320464FF091
:10277000000C013950F82C2F30F8027C50F80C3C3A
:1027800030F8086C20F8061C53F82730C9F80030E0
:102790007B1C9BB2B3425CEA2793824220F8023C46
:1027A00000F08C80A2F11800C2F81CC018F00FFCD9
:1027B0002846FDF77FFD4CF29800C2F20020016828
:1027C00009B12046884716F017FF82E0CDF8049043
:1027D00004F1180B06F118094FF0000806F15C002F
:1027E000029000BF002F6FF00A00706376D096F859
:1027F000380094F80DA0400705D43046039918F02E
:1028000093FD002871D1BAF1000F15D0BAF1010F74
:1028100058461BD1006858450ED090F8211096F804
:1028200039208A42F6D24168F161C0F80490C1F8BB
:102830000090B06115E000BFE069F061C4F81C9041
:10284000C0F80090C6F818B00BE000BF49F2F810CD
:1028500049F2FC71B622C0F20220C0F2022113F04C
:102860006DFE049801280BDB18F010FE029F8046D5
:102870000021384604AA18F0ADFE384618F0C4FF0F
:102880002846FDF717FD16F0B7FE776B17BBFDF76F
:102890000DFD049F0546012F09DB18F0F7FDA0EBA5
:1028A00008080498A0EB080020EAE0770497E18C80
:1028B00009B92FF069C8DDF8049057E72846FDF7FD
:1028C000F9FC4CF29800C2F20020016809B12046E0
:1028D00088470027384605B0BDE8F08F2846FDF749
:1028E000E9FC6FF074077763F4E707462846FDF7C5
:1028F000E1FCEFE72DE9F04F85B004461746894625
:102900000393049258B949F2AC7049F61111C0F220
:102910000220C0F2022140F6561213F00FFE2046AC
:1029200016F0A2FB05280BD049F6E81049F6111164
:10293000C0F20220C0F2022140F6571213F0FEFD51
:10294000002F6FD014F02CFE0646FDF7AFFC80463A
:1029500013F0EFFF98B149F6111549F24970C0F232
:102960000225C0F20220294615F0FEF949F2F810BE
:1029700040F65A12C0F20220294613F0DFFD012E64
:1029800013D149F6111549F22470C0F20225C0F2A4
:102990000220294615F0E8F949F2F81040F65A12DB
:1029A000C0F20220294613F0C9FDFDF77FFC8246E4
:1029B00018F054FB98B949F6111548F29E50C0F230
:1029C0000225C0F20220294615F0CEF949F2F8108E
:1029D00040F65A12C0F20220294613F0AFFDFDF76F
:1029E00065FC054615F09DF998B149F6111648F2B7
:1029F0007750C0F20226C0F20220314615F0B4F939
:102A000049F2F81040F65A12C0F20220314613F093
:102A100095FD2846FDF74EFC5046FDF74BFC404621
:102A2000FDF748FC18F01AFB4CF294010646C2F27E
:102A30000021096809B120468847FDF737FCA28CC0
:102A40000546E18C914208BF002F00F08B80914237
:102A500077D1CDF8049004F12C0B06F118094FF052
:102A6000000806F15C000290002F6FF00A0070630E
:102A700078D096F8380094F80DA0400706D4304678
:102A8000039918F051FC002840F08B80BAF1000F38
:102A900016D0BAF1010F58461CD100BF0068584546
:102AA0000ED090F8211096F839208A42F6D241686B
:102AB000F161C0F80490C1F80090B06115E000BF6A
:102AC000206BF061C4F83090C0F80090C6F818B0E0
:102AD0000BE000BF49F2F81049F2FC71B622C0F2D7
:102AE0000220C0F2022113F029FD049801280BDB1B
:102AF00018F0CCFC029F80460021384604AA18F04A
:102B000069FD384618F080FE2846FDF7D3FB16F025
:102B100073FD776B5FBBFDF7C9FB049F0546012F73
:102B200009DB18F0B3FCA0EB08080498A0EB080040
:102B300020EAE0770497A28CE18C914294D0DDF8F2
:102B40000490238D276A581C80B247F82390904246
:102B500001F1010082B24FF0000151EA239182425B
:102B6000218508D02846FDF7A5FB6FF022073846DF
:102B700005B0BDE8F08F54F8181FA142E0810BD0DA
:102B8000A1F118000027CF6118F021FA2846FDF7BF
:102B900091FB16F031FDEAE72846FDF78BFB002795
:102BA000E5E707462846FDF785FBE0E72DE9F04F0E
:102BB00081B090468B460446009114F0F1FC074624
:102BC000FDF774FB814613F0B4FE98B149F6290570
:102BD00049F24970C0F20225C0F20220294615F0E0
:102BE000C3F849F2F81040F29F42C0F20220294691
:102BF00013F0A4FC012F13D149F6290549F22470E2
:102C0000C0F20225C0F20220294615F0ADF849F2C3
:102C1000F81040F29F42C0F20220294613F08EFCC9
:102C2000FDF744FB074618F019FA98B949F629054B
:102C300048F29E50C0F20225C0F20220294615F04B
:102C400093F849F2F81040F29F42C0F20220294660
:102C500013F074FCFDF72AFB054615F062F898B1F5
:102C600049F6290648F27750C0F20226C0F2022047
:102C7000314615F079F849F2F81040F29F42C0F25F
:102C80000220314613F05AFC2846FDF713FB384664
:102C9000FDF710FB4846FDF70DFB5CB949F2DA7011
:102CA00049F62901C0F20220C0F2022140F2A242FC
:102CB00013F044FC204616F0D7F903280BD049F650
:102CC000A51049F62901C0F20220C0F2022140F20B
:102CD000A34213F033FC18F0C1F90646FDF7E6FAFB
:102CE0004CF29C018246C2F20021096809B12046DB
:102CF0008847606A0021B042716311D0D0B1BBF146
:102D0000000F4CD096F83800657B96F83990400754
:102D10002ED43046414618F007FB48B3074641E041
:102D200094F82200FF281FD15046FDF7C3FA6FF038
:102D300022078BE094F82010666240F2FF10A4F89E
:102D40002100FF2907D096F83900814203D230468E
:102D5000424600F027FE214656F8400F41F8280F62
:102D6000416031604E6065E0013084F8220061E02E
:102D700004F11807D5B1012D20D138460068B842BA
:102D800014D090F8211096F839208A42F6D2416882
:102D900006F11802F16142600A60B06119E06FF05B
:102DA000740777635046FDF785FA4FE0E06906F156
:102DB0001801F061E1610160B7610AE049F2F810C1
:102DC00049F2FC71C0F20220C0F20221B62213F0D7
:102DD000B5FB94F82100B46481450AD2606A84F896
:102DE000219090F83910894503D20222494600F01B
:102DF000D9FDBBF1010F09DB06F15C056A46002134
:102E0000284618F0E7FB284618F0FEFC5046FDF770
:102E100051FA16F0F1FBFDF749FA716B824649B1A0
:102E2000606AB8B196F8391090F839208A425FEAA2
:102E30000F9110E05046FDF73DFA4CF29800C2F2B7
:102E40000020016809B1204688470027384601B0B4
:102E5000BDE8F08F01213A68BA4202D092F82120F1
:102E600000E0FF2284F82120D1B9024652F8403F09
:102E700012F8061C93420CD013F8087CC9B213F860
:102E8000075C1B68BD4255EA3787B94251EA378172
:102E9000F0E790F83920914202D0022200F082FD42
:102EA0005046FDF707FA706B0021B16480EAE072CA
:102EB000C2EBE077CAE700002DE9F04782B0044694
:102EC00090460E46019158B949F2BA7049F61C0174
:102ED000C0F20220C0F2022140F2FD1213F02EFBDC
:102EE000204616F0C1F802280BD049F6380049F602
:102EF0001C01C0F20220C0F202214FF4FF7213F055
:102F00001DFB4CF29C00C2F20020016809B1204672
:102F10008847208C002871D1002E6FD014F040FB20
:102F20000546FDF7C3F9814613F003FD98B149F654
:102F30001C0749F24970C0F20227C0F2022039464C
:102F400014F012FF49F2F81040F20322C0F20220FE
:102F5000394613F0F3FA012D13D149F61C0549F255
:102F60002470C0F20225C0F20220294614F0FCFEB3
:102F700049F2F81040F20322C0F20220294613F071
:102F8000DDFAFDF793F9824618F068F898B949F62A
:102F90001C0748F29E50C0F20227C0F202203946B8
:102FA00014F0E2FE49F2F81040F20322C0F20220CF
:102FB000394613F0C3FAFDF779F9074614F0B1FE6C
:102FC00098B149F61C0548F27750C0F20225C0F2CC
:102FD0000220294614F0C8FE49F2F81040F20322FC
:102FE000C0F20220294613F0A9FA3846FDF762F92B
:102FF0005046FDF75FF94846FDF75CF9FDF756F9D5
:10300000218C074689B1481E20843846FDF752F9C5
:103010004CF29800C2F20020016809B120468847AE
:103020000025284602B0BDE8F08786B318F016F8F0
:10303000064690F8380094F80D9040076FF00A00AB
:10304000706309D43046414618F06EF920B1054648
:103050003846FDF72FF9E4E7B9F1000F04F1180045
:103060001BD0B9F1010F20D1014600BF0968814290
:1030700013D091F8212096F839309342F6D248685F
:1030800006F11802F0614A600260B16118E038464A
:10309000FDF710F96FF07405C3E7E16906F1180256
:1030A000F161E2610A60B0610AE049F2F81049F2A8
:1030B000FC71C0F20220C0F20221B62213F03EFAE7
:1030C0000198012809DB06F15C0501AA00212846C8
:1030D00018F080FA284618F097FB3846FDF7EAF812
:1030E00016F08AFA756B002D9BD191E7F0B581B08F
:1030F000064615460F4628B94AA04EA14FF4317234
:1031000013F01CFA06F14C044FF0FF31204615F085
:103110006BFEA7F11000152800F26A80DFE800F0CE
:103120000B0F13171B1F23272D3135393D414549FF
:103130004D545C606A77D6F83401426840E0D6F8B6
:10314000340182684FE0D6F83401C2684BE0D6F80B
:103150003401026947E0D6F8340141690AE0D6F843
:103160003401816906E0D6F83401C2693BE0D6F843
:103170003401016AE1B3304641E0D6F83401416AD6
:1031800025E0D6F83401826A1AE0D6F83401C16A23
:103190001DE0D6F83401026B12E0D6F83401426B20
:1031A00021E0D6F83401826B0AE0D6F83401C26B14
:1031B00006E0D6F83401016C09E0D6F83401426C1F
:1031C000B2B12968304611E0D6F83401816C79B18A
:1031D0003046884728600BE0D6F83401C26C02E024
:1031E000D6F83401026D1AB130462946904707E0FF
:1031F000002506E0D6F83401016E81B128468847E3
:103200000546204615F0FCFC284601B0F0BDD6F876
:103210003401016E19B1426ED5E90001E6E76FF0A5
:103220004305EEE764657620213D2052545F4E55FC
:103230004C4C00005F72745F776C616E5F64657602
:103240005F636F6E74726F6C00000000B0B504466F
:103250004C3011A1012215F0A5FCD4F8340148F638
:103260005E55C0F20225016839B120468847044600
:103270000CA0002C55EA008500E000240EA014F0FC
:1032800073FD284614F070FD48F25B40C0F2022046
:1032900014F06AFD2046B0BD776C616E5F646576A0
:1032A00000000000776C616E20696E6974206661B1
:1032B000696C6564000000001B5B33326D5B492F55
:1032C000574C414E2E6465765D2000002DE9F0419B
:1032D00006461C46904658B948F2794048F68C118B
:1032E000C0F20220C0F2022140F28F1213F026F940
:1032F000BCB316B1B8F1000F0BD148F61D0048F66B
:103300008C11C0F20220C0F202214FF4CA7213F0F5
:1033100015F9F08BB76DC00432D5354635F8510F2D
:10332000A97840EA0140C0F38F00A0421CD248F6C1
:103330000C00C0F2022014F017FDA878224629885C
:1033400041EA00403146C0F38F0348F6EB00C0F27B
:10335000022014F009FD48F25B40C0F2022014F094
:1033600003FD0020BDE8F081384616F031F8A04298
:1033700006D207F110004FF0FF31BC8313F07EF945
:10338000FCF794FF064638464146224616F03EF8C2
:1033900004463046FCF78EFF2046BDE8F081000071
:1033A0002DE9F04F81B0DBB31D469146834618B13D
:1033B000B9F1000F18D10BE048F2794048F69401BA
:1033C000C0F20220C0F2022140F2FF1213F0B6F860
:1033D00048F61D0048F69401C0F20220C0F2022116
:1033E00040F2012213F0AAF8DBF85C80B8F1000F7C
:1033F0000BD148F66D0048F69401C0F20220C0F2ED
:1034000002214FF4017213F099F817F027FE48B12A
:10341000BBF81E00400605D4D8F8140001280AD1D4
:10342000002504E058464A462B4600F015F9284688
:1034300001B0BDE8F08F08F1180A00260120C8F895
:103440001400009509EB0604404621462A4616F072
:103450004FF8DBF848100246C8F810004FF48043DC
:103460000F6958462146B847D8F810004FF0FF3191
:1034700006442D1A504613F001F90DB12FF01FC06C
:10348000009D0020C8F81400D1E7F0B581B00546D2
:103490001C46164658B948F2794048F6B101C0F2C8
:1034A0000220C0F202214FF4E67213F047F824B371
:1034B00005B15EB948F61D0048F6B101C0F2022020
:1034C000C0F202214FF4E87213F038F8EF6D5FB9E3
:1034D00048F66D0048F6B101C0F20220C0F20221A8
:1034E0004FF4E97213F02AF817F0B8FD38B1E88B01
:1034F000400604D47869012809D1002404E0284654
:103500003246234600F0A8F8204601B0F0BDA86C72
:10351000012179614FF48043D0F810C0284631462C
:103520002246E047044607F118004FF0FF3113F040
:10353000A5F8E9E72DE9F04182B004461D4616469C
:1035400058B948F2794048F6CF01C0F20220C0F2E3
:1035500002214FF40F7212F0F1FFF5B104B15EB920
:1035600048F61D0048F6CF01C0F20220C0F2022149
:103570004FF4107212F0E2FFE76DFCF797FE7969E5
:10358000804661B1384631462A4615F0B1FF0446FF
:103590004046FCF78FFE20461CE000201AE0012088
:1035A0007861384631462A4615F0A2FF0546404666
:1035B000FCF780FE0020019001A9384616F046FC79
:1035C000A16C024638614FF400430F69019920460F
:1035D000B847284602B0BDE8F0810000F0B581B0E0
:1035E00005461C461646A8B948F67C1748F27940AD
:1035F000C0F20227C0F2022040F23512394612F022
:103600009DFF48F648004FF49C72C0F202203946F4
:1036100012F094FFCCB12746A86CC16828468847B1
:10362000411C14D006F8010BE98B11F0400F5FEA42
:103630001F910A285FEA0F9008430128A7F10100B3
:1036400006D1012F0746E7D102E0002000E038460E
:10365000201A01B0F0BD0000F0B581B004461D464F
:103660001646A8B948F69C1748F27940C0F20227DE
:10367000C0F202204FF4B172394612F05FFF48F6F3
:10368000480040F26512C0F20220394612F056FF9F
:103690009DB12F46E08B400607D530780A2804D12B
:1036A000A06C0D21826820469047A06C16F8011B83
:1036B000826820469047013FECD1284601B0F0BD1A
:1036C00070B506461C46154650B948F6D91048F65E
:1036D0008121C0F20220C0F20221162212F02EFF38
:1036E000D6F8800060B948F66B2048F68121C0F218
:1036F0000220C0F20221172212F020FFD6F880002B
:1037000000212A462346BDE8704017F042B870B544
:1037100006461C46154650B948F6D91048F6AA2167
:10372000C0F20220C0F20221242212F007FFD6F8D4
:10373000800060B948F66B2048F6AA21C0F202204A
:10374000C0F20221252212F0F9FED6F880000022F4
:1037500029462346BDE8704017F01BB8002070478B
:1037600070B505461C46164650B948F6BF1048F6D7
:103770009621C0F20220C0F20221582212F0DEFE91
:10378000A86C50B948F6D11048F69621C0F2022034
:10379000C0F20221592212F0D1FE00212846324601
:1037A0002346BDE8704016F0F4BF70B504461D46D0
:1037B000164650B948F6BF1048F6C021C0F20220A4
:1037C000C0F20221662212F0B9FEA06C50B948F690
:1037D000D11048F6C021C0F20220C0F202216722B7
:1037E00012F0ACFE0022204631462B46BDE8704068
:1037F00016F0CFBF80B5FEF7B1FA00BFFEE7B0B557
:103800004BF65050C2F200200468FCF74FFD05460D
:10381000204616F019F804F15C0017F051FF012062
:1038200084F83800204617F065FA2846FCF742FD78
:10383000BDE8B04015F0E0BE70B582B004469C46CD
:10384000089D1830DDE90636C4E9060004F12400BD
:10385000236380E80610232160461A4614F08EFF89
:10386000D4E90B1243F2FF730A44606AA16A043A76
:10387000C0F2002314F0CCF8202E206204D319A04B
:1038800021A1C62212F05AFE43F6191284F83A60BA
:1038900084F83960002104F14000C4E90F10C4E944
:1038A000110104F15C00E16484F85010C4E915557D
:1038B000C0F20022616384F83810C4E92311234662
:1038C000CDE90011214617F055FF4CF2AC00C2F2D1
:1038D0000020016821B1204602B0BDE870400847D1
:1038E00002B070BD7072696F72697479203C2052A9
:1038F000545F5448524541445F5052494F524954D5
:10390000595F4D41580000005F7468726561645FE3
:10391000696E697400000000B0B5044650B949F6FC
:10392000D93049F61C51C0F20220C0F202218B228C
:1039300012F004FE94F8380040070AD449F6064015
:1039400049F61C51C0F20220C0F202218C2212F072
:10395000F5FD204615F088FB01280AD049F64840BD
:1039600049F61C51C0F20220C0F202218D2212F051
:10397000E5FDFCF79BFC2146E36905466FF074000A
:1039800051F8182F606320465360E369E1611A60C3
:10399000096015F005FF2846FCF78CFCBDE8B04037
:1039A00015F02ABE2DE9F04F81B014468DF80310B2
:1039B0000DF103020221054617F004F910B101B020
:1039C000BDE8F08F4FF0FF0B0DF1020A95F83800BB
:1039D0004007F4D5AF6C002FF1D0384615F044FB0A
:1039E0000328ECD12E4697F80D908DF802B056F8CA
:1039F000180F716896F820204160716808605007C0
:103A0000C6E9006605D42846214617F08DFC00283B
:103A1000D5D1B9F1000F07F1180813D0B9F1010F92
:103A2000404617D1006840450CD090F8211095F819
:103A300039208A42F6D24168E96146600E60A86189
:103A400013E000BFF869E861FE610660C5F8188000
:103A50000BE000BF49F2F81049F2FC71B622C0F247
:103A60000220C0F2022112F069FDD8F800004045A2
:103A700002D090F8210000E0FF207D6A87F8210045
:103A8000294695F83A0051F8402F00BF8A420DD0E0
:103A900012F8083CC0B212F8077C12689F4257EA3D
:103AA0003383984250EA3380F0E700BF95F839102D
:103AB0008DF8020088423FF482AF02212846524628
:103AC00017F080F800283FF481AF78E740F2C8741F
:103AD0004FF6FE75C2F20024C7F6FF75FCF7E6FB51
:103AE0002168A1420AD04E69FCF7E4FB17F0CEFC36
:103AF000301AA8420BD817F008F908E0FCF7DAFBF7
:103B000017F0ACFA022117F00FFC15F075FD16F056
:103B10002DFCE3E72DE9F04184B017460D4606463B
:103B20000392FCF7C3FBD5E900120446288A4A60D9
:103B30006A686D6011602D6020F001012982D7B1A3
:103B40004FF6FE71C7F6FF718F4229D8800705F145
:103B500014082BD441F6DD52042025A1C0F2002226
:103B6000CDE9007040462B4617F004FE288A40F04D
:103B70000200288222E07168336940F001000A687F
:103B80002A600D602882556069606E6423B9B06B4D
:103B900090F83810490722D42046FCF78BFB1AE036
:103BA0002046FCF787FB6FF0FE0015E0404617F05B
:103BB000BFFE03AA0021404617F00CFDF0686E64BA
:103BC0000168296005604D6068602046FCF772FB63
:103BD000404617F019FE002004B0BDE8F08117F050
:103BE000F6F92046FCF766FB15F006FDF3E700BF8B
:103BF000776F726B00000000044638B948F2286005
:103C000021A1C0F202203B2212F098FC04F114051D
:103C10004FF00008FCF74AFB27680646A74227D06A
:103C2000D7E900012761C7F84480416079680860DE
:103C3000388AC7E9007720F0010038823046FCF767
:103C400039FBD7E9022138469047C4F8108013F0B9
:103C5000C1F800BF284615F0FBFF753004D1284697
:103C600015F0A4FFF6E700BF13F024FAD2E700BF77
:103C700017F0F4F9022117F057FB3046FCF71AFB56
:103C800015F0BAFCC6E700BF5F776F726B717565A0
:103C900075655F7468726561645F656E74727900E2
:103CA000F0B581B014460D4602F084FB2946224649
:103CB0001BF0D4F9044601302AD006F0B9FAB0F16D
:103CC000FF3F16DD054606F09FFA90B106462C2010
:103CD00014F07AF83061A0B1074602F066FB0246A4
:103CE0000121384602F05EFD306902217160846274
:103CF00010E06FF0050016F0B5FA20461BF0D8FA78
:103D000006E0284606F09AFA6FF0050016F0AAFAC7
:103D10004FF0FF35284601B0F0BD2DE9F0410028F5
:103D200050D000F118060446304617460D461DF0E7
:103D30005EF9002846D0BDB32068E16B0DF030FE7F
:103D4000002843D0804685601CF039F93046414652
:103D500088F80C701DF043F9002847D0D8F80840C7
:103D60000021204600251DF0D2FC0021204620F035
:103D700067FA0021204620F085FC00210022204621
:103D80001FF030FA002120461EF0A4F808F11404B8
:103D9000C8F8085020461DF08AF820461DF01CF98E
:103DA00040460DF0C3FF1FE04BF6D0213046C2F273
:103DB00000211DF014F928B9E36B1BB1002100228A
:103DC00020469847FA2568B2BDE8F0814BF6D0212D
:103DD0003046C2F200211DF002F928B9E36B1BB195
:103DE0000021002220469847FF25ECE7E36B2BB12A
:103DF00000210022204600259847E4E70025E2E75D
:103E0000F0B581B006464FF2C440C2F200200D4624
:103E100000F11C07002400BF1DF00DF857F81C1C12
:103E200011B917F80B1C41B11DF03EF801342037D1
:103E3000082CF1D14FF0FF3418E047F81C6C1DF04E
:103E400033F8002047E90600316827F80E0C01F02E
:103E5000F00107F80C0C81F0100129435FEA0F9183
:103E600027F8101C391F47E902013960204601B0CC
:103E7000F0BDB0B514460D4602F09CFA2946224624
:103E8000BDE8B0401BF058B92DE9F0414EF2FA38C8
:103E90004CF20016C4F20108C4F201064AF20350C3
:103EA000A8F800000120B080B08808B12FF005C04C
:103EB00077A043F600024EF60147012190ED001F66
:103EC0004FF668003180C2F200204EF600444EF2F8
:103ED00020054FF40041C1F69C42C0E9041241F6AE
:103EE0000041C4F20107C4F2010480ED001FC4F2D6
:103EF0000105C0F64E61C0E90712FDF7E4FD4FF67B
:103F000050601621CFF6FF702154092085F88200F9
:103F1000207818B93878800700F0B480207840B94C
:103F200001202070C8200121FCF795FE207801288F
:103F3000FCD10020387020700020A874287F000772
:103F4000FCD54FF43C50288140F23110A885002068
:103F5000A87200BF287F8006FCD542F232370420C9
:103F6000C3F2121730772F6001242C710526AE7131
:103F7000FDF7A9FD96200121FCF76DFE00202871B8
:103F80002F60FDF7A0FD96200121FCF764FEAE71C5
:103F9000FDF799FD2C7485F8324085F8334095F88B
:103FA000540040F0400085F8540000BF95F95400DB
:103FB000B0F1FF3FFADC062085F84C00472085F879
:103FC0005400072085F8540095F954000028FBD4CC
:103FD00095F8350040F0400085F8350095F935003A
:103FE000B0F1FF3FFADC022085F83400C52085F8E7
:103FF000350095F8350000F0BF0085F8350000BFAA
:1040000095F935000028FBD495F8370040F04000C2
:1040100085F8370095F93700B0F1FF3FFADC022050
:1040200085F83600C52085F8370095F8370000F090
:10403000BF0085F8370000BF95F937000028FBD492
:1040400095F83F0040F0400085F83F0095F93F00AB
:10405000B0F1FF3FFADC012085F83E00C52085F86D
:104060003F0095F83F0000F0BF0085F83F0000BF1B
:1040700095F93F000028FBD44FF42540A8F8000034
:10408000BDE8F0814FF47A70FCF70DFE54E700BFF5
:10409000006CDC0200127A0000800000002D31016B
:1040A0007047000080B54FF0600E4CF2003047F6CC
:1040B0000C11C4F20000C0F2022100BF0A6802B174
:1040C0000260043004310FF007C880BD000000001A
:1040D00001380028FCD170472DE9F04F81B004462B
:1040E000008800285DD04EF64C4B0025C4F2010B31
:1040F0004FF0010A42F2400800272BA6C4F2200824
:104100006068326800EBC501496891423ED150F8C1
:1041100035009BF8001000F0B8500AFA07F9B0F12A
:10412000807F09EA010015D158B90120FCF745FD4F
:104130009BF8000040EA09008BF800000120FCF722
:1041400063FD98F90000002820D498F8000040F0A2
:10415000800015E058B10120FCF72FFD9BF800000E
:1041600020EA09008BF800000120FCF74DFD98F9CA
:104170000000B0F1FF3F09DC98F8000000F07F007C
:1041800088F80000C8200121FCF765FD013708F11F
:104190000208032F06F10406B2D1208801358542BA
:1041A000A8D301B0BDE8F08F0204000003040000B2
:1041B0000404000070B59CB016AD0446284606F015
:1041C0002CF800222846214601F06AFC002828D459
:1041D0000DF10704002151222046002614F0CEFAEA
:1041E0001A98C069C3682BB316AD00BF5022284689
:1041F00021469847B0F1FF3F18DDD8B1265412F0A0
:1042000079FB00215123224612F0A6FD0021512204
:10421000204614F0B3FA1A98C069C36853B12FF05E
:104220001BC809A0214613F09FFD09E0179840F034
:104230008060179003A013F097FD16A801F07EFB95
:104240001CB070BD0A0000004F70656E2025732001
:104250006661696C65640A0010B538B30446FCF702
:10426000F4F9B0F5807F1AD80020214602F0EEF86C
:10427000A8B1044601F0E6FE20460FF0FBFE10B3A5
:1042800000F04BF940F2BE104FF48072C2F20020F1
:10429000214616F0B9FB204612F02CFF0FE06FF01C
:1042A0001A0015F0DFFF4FF0FF3010BD01F0CAFE1D
:1042B00040F2BE1107A0C2F2002113F055FD02F03A
:1042C000FBF9002010BD204612F014FF02F0F4F9B3
:1042D000E9E700BF25730A002DE9F04F9DB08A463B
:1042E0001021169100218DF84B1065A10F1D0DF1C5
:1042F0001C08634A06928CCFD1E906CE0C6ACDE940
:104300000DE4DAF84040CDF830C0D1E90465CDE9DC
:104310000A6588E88C00D1E90923CDE90F23C96A31
:10432000119108B112F0E6FE002C5CD0A0680028C4
:1043300059D0E06801685EA08847002853D0D4F8BF
:104340000880064602200221D8F800300022022709
:10435000002498470546002847D430698DF86570D9
:104360004AF21F51ADF8661000680DF16409002192
:10437000082200681A9009F108004FF0080B14F0A9
:10438000FDF917AECDE91774D8F8247040F6FF7127
:1043900041F2060228463346CDF800B0B847D8F8B7
:1043A000247040F6FF7141F2050228463346CDF8ED
:1043B00000B0B84702AE00211022304614F0DEF9FA
:1043C00040A241A31021304615F0C2FF06AF00BF46
:1043D00003223046394613F077FE98B10134043792
:1043E0000C2CF5D101E04FF0FF35002150460EF0C6
:1043F00049FF002D03D4D8F80410284688471DB083
:10440000BDE8F08F13AE00210C223046002714F0D7
:10441000B5F99AF824008DF84C7068B1611C721CD3
:104420000AF1250300F001E0B3EC101E01EE410F8C
:10443000A2EC101E1FF009C00520ADF855000220A7
:104440008DF85700D8F81870102013A90C220023FB
:10445000CDE900902846B847D8F81C700DF14B0103
:104460000122002316A801902846CDF80090B847F5
:104470000128BADB9DF84B000028B6D00121B5E732
:104480004A616E00466562004D61720041707200C3
:104490004D6179004A756E004A756C004175670080
:1044A000536570004F6374004E6F7600446563007F
:1044B0006C696E6B2E72742D7468726561642E6FF8
:1044C00072670000257300004D6172202037203292
:1044D0003032340080B502A013F046FC002080BDCD
:1044E0001B5B324A1B5B4800B0B5054605F08CFEED
:1044F00058B101F023FA0446284605F09FFEB4F1B6
:10450000FF3FC4BF0020B0BD01E06FF00F042046A4
:1045100015F0A8FE4FF0FF30B0BDB0B505460068FD
:1045200005F072FE70B101F009FA0446286805F042
:1045300085FE284612F0DEFDB4F1FF3FC4BF002027
:10454000B0BD01E06FF00F04204615F08BFE4FF078
:10455000FF30B0BDB0B5044601F02CFFB0F1FF3F15
:1045600014DD0546204605F04FFE60B1006950B1EC
:1045700028461AF09DFE80B16FF05E0015F072FEC5
:104580004FF0FF350AE06FF00F0001E06FF05E00C2
:1045900015F068FE4FF0FF3503E00025204605F0DA
:1045A0004DFE2846B0BD0000B0B5012806D109A0D7
:1045B00013F0DAFB0DA013F0D7FB09E0022807DBAC
:1045C000441E0D1D55F8040BFFF7F4FD013CF9D115
:1045D0000020B0BD55736167653A20636174205B4C
:1045E00046494C455D2E2E2E0A000000436F6E6337
:1045F0006174656E6174652046494C452873290ACB
:104600000000000010B502280AD0012811D14BF299
:10461000EF1040F2BE11C0F20220C2F2002106E00B
:1046200048680C46FFF718FE18B1616802A013F045
:104630009BFB002010BD00BF4E6F20737563682088
:104640006469726563746F72793A2025730A000099
:1046500080B5032804D1D1E9010100F0B7FC05E0E1
:1046600003A013F081FB08A013F07EFB002080BDA7
:1046700055736167653A20637020534F5552434527
:1046800020444553540A0000436F707920534F551E
:1046900052434520746F20444553542E0A000000B5
:1046A00010B502280CD14C680BA12046FCF738F954
:1046B00050B10BA12046FCF733F928B1204600E0A9
:1046C00004A000F06FFE02E006A013F04DFB0020F6
:1046D00010BD00BF2F0000002D2D68656C7000001C
:1046E0002D6800006466205B706174685D0A0000DC
:1046F000B0B503280C4607D002281BD14BF2EF10AF
:104700006168C0F202201BE0A06840F24241002232
:104710000FF091FC002811D4646805462046FBF791
:1047200094FF02462846214622F06CFD2846FFF7FA
:10473000DBFE07E00AA013F017FB03E0A16802A06C
:1047400013F012FB0020B0BD6F70656E2066696CBF
:10475000653A2573206661696C6564210A00000072
:1047600055736167653A206563686F2022737472C0
:10477000696E6722205B66696C656E616D655D0AB6
:104780000000000080B508F0F5FD002080BD0000AD
:1047900080B5022819D140F2CC020220C2F20022D8
:1047A0000CF014FD411E092909D8DFE801F0051CB1
:1047B0001F2225282B2E343109F02CFA11E0B0F5F8
:1047C000807F02D108F032FC0BE014A013F0CCFA89
:1047D00018A013F0C9FA40F2CC00C2F200200CF08D
:1047E000DBFF002080BD09F099F8FAE708F0D0FF60
:1047F000F7E708F06DFBF4E708F004FDF1E708F0D7
:1048000019FFEEE708F0B6FDEBE708F053FEE8E726
:1048100009F00EFBE5E708F0C1FAE2E755736167BE
:10482000653A206C697374205B6F7074696F6E7386
:104830005D0A00005B6F7074696F6E735D3A0A0009
:1048400080B5012804D140F2BE10C2F2002000E081
:10485000486809F015FC002080BD000080B50128E3
:1048600006D106A013F080FA0DA013F07DFA03E044
:10487000486800210CF00FFB002080BD5573616774
:10488000653A206D6B646972205B4F5054494F4EFE
:104890005D204449524543544F52590A00000000DC
:1048A00043726561746520746865204449524543CC
:1048B000544F52592C206966207468657920646FC2
:1048C000206E6F7420616C7265616479206578690F
:1048D00073742E0A0000000010B504280C4604D0A2
:1048E000022811D161680CA006E0606809A1FCF7FC
:1048F00017F860B9D4E9020101F0C8FB014630B1F4
:1049000006A013F031FA02E00AA013F02DFA0020FD
:1049100010BD00BF2D740000656C6D006D6B66737B
:10492000206661696C65642C20726573756C743DDA
:1049300025640A0055736167653A206D6B667320C4
:104940005B2D7420747970655D206465766963659C
:104950000A000000F0B581B004280F4623D00328D8
:1049600031D001283BD149F2FE60C0F2022013F0A1
:10497000FBF946A013F0F8F941F6E47549F2B16489
:10498000C2F20025C0F2022405F140066B682BB18B
:10499000A8682A680168204613F0E6F91035B54288
:1049A000F4D3002437E0D7E901642EA0FD68314636
:1049B0002A46234613F0D8F933A12846FBF7B0FF67
:1049C00088B1002011E0D7E9014520A02946224600
:1049D00013F0CAF9002000230021009108E04FF0F5
:1049E000FF340EA015E078680026002300903046C2
:1049F00021462A4601F0E8FB49F23A6149F2446255
:104A0000C0F20221C0F20222002851EA02805FEACD
:104A10000FA413F0A9F9204601B0F0BD55736167EA
:104A2000653A206D6F756E74203C646576696365C8
:104A30003E203C6D6F756E74706F696E743E203CE5
:104A40006673747970653E2E0A0000006D6F756E96
:104A5000742028257329206F6E746F202573202EF3
:104A60002E2E20006D6F756E742064657669636507
:104A700020257328257329206F6E746F20257320DD
:104A80002E2E2E20000000006E6673002D2D2D2D81
:104A90002D2D2D2D2D2D20202D2D2D2D2D2D20207A
:104AA0002D2D2D2D2D2D2D2D2D2D0A0070B582B0E3
:104AB000032835D10C46496841A0A26813F054F987
:104AC000A0684FF4803100220FF0B5FA00282ED4F0
:104AD000FFF70AFD4FF4807013F076F9002841D0FB
:104AE00066680546304615F06BFF616830448842C1
:104AF00007D000BF02782F2A03D001388842F9D1AD
:104B0000084649F21E72A368C0F20222FF210090FB
:104B1000284615F01DFC6068294611F0ABFC18E032
:104B200013A013F021F918A013F01EF917E0A068E4
:104B3000002100220FF07FFA002804D4FFF7D4FCF4
:104B4000A06821F061F9D4E90105294611F092FC31
:104B50002DB1A068854202D0284612F0CBFA002081
:104B600002B070BD19A013F0FFF86FF00500F7E771
:104B700055736167653A206D7620534F5552434512
:104B800020444553540A000052656E616D65205300
:104B90004F5552434520746F20444553542C206F89
:104BA00072206D6F766520534F5552434528732907
:104BB00020746F204449524543544F52592E0A00E5
:104BC0002573203D3E2025730A0000006F75742078
:104BD0006F66206D656D6F72790A000080B509F00F
:104BE00019F8002080BD80B54BF2EF1040F2BE11E5
:104BF000C0F20220C2F2002113F0B6F8002080BDFE
:104C00002DE9F04F91B0012809D149F26F60C0F24F
:104C1000022013F0A9F85CA013F0A6F879E00E4684
:104C200056F8042F13782D2B18D1551C00222D2156
:104C300000270023C9B2712906DC2D290BD0662973
:104C400010D1012207E000BF722903D076295DD17F
:104C5000012300E0012715F8011BEBE700220027E4
:104C6000002303E0002951D101383146022850DBEE
:104C7000A0F1010801F1040901AC4FEA026AD5B2C2
:104C80000FF2980BDEB21806009000BFD9F80000B2
:104C900021461CF04FF838B1BAF1000F30D1D9F8E5
:104CA000001058462AE000BFBDF80A00410412D4A3
:104CB00000B2B0F1FF3F23DCD9F8000021F0A4F8E6
:104CC000A0B1BAF1000F1BD149F25B60D9F8001016
:104CD000C0F2022012E0D9F800102FB10846294690
:104CE000324603F0D7F90BE018A007E0009838B17E
:104CF00049F24D60D9F80010C0F2022013F034F8E8
:104D0000B8F1010809F10409C0D102E018A013F0BC
:104D10002BF8002011B0BDE8F08F00BF63616E6E0C
:104D20006F742072656D6F766520272573273A2092
:104D30004E6F20737563682066696C65206F722002
:104D40006469726563746F72790A000063616E6EE4
:104D50006F742072656D6F766520272573273A2062
:104D600049732061206469726563746F72790A0007
:104D70004572726F723A20426164206F7074696F7D
:104D80006E3A2025630A000052656D6F7665202813
:104D9000756E6C696E6B29207468652046494C45B8
:104DA0002873292E0A0000002DE9F04182B00C463C
:104DB00001284FF000018DF807100CDD022804F1E6
:104DC000040003D100264FF00A0820E0006846A145
:104DD00015F0A0FD50B149F28C60C0F2022012F033
:104DE000C3FF4FF0FF3002B0BDE8F081A06801784A
:104DF0002B2906D10130FBF785FB06464FF0000852
:104E000003E0FBF77FFB8046002604F10C000068FE
:104E100000210FF010F9002830D40DF10701012214
:104E2000044611F029F90027012811DB0DF10705CF
:104E30009DF80700002F08BF01270A284FF0010244
:104E40002046294657EA179711F016F90028EFDC9B
:104E500026A0394612F088FF26B1B74204D3B81B0A
:104E600000F1010847450BD249F2C360C0F20220AD
:104E700012F07AFF2046FFF737FBB2E72CA0AEE72F
:104E800021A0414612F070FF00210022204609F0C7
:104E90009BF90DF107010122204611F0EDF80128E0
:104EA00019DBA7EB080700260DF107050FF27808BC
:104EB000BE4204D39DF80710404612F055FF9DF8FE
:104EC0000700012229460A28204656EA169611F0C4
:104ED000D3F80028ECDC15A012F046FF2046FFF7BF
:104EE00003FB00207FE700BF2D6E00000A546F74A3
:104EF000616C204E756D626572206F66206C696E04
:104F000065733A25640A00005265717569726564BB
:104F1000204E756D626572206F66206C696E6573D8
:104F20003A25640A00000000256300000A00000022
:104F300046696C6520646F65736E277420657869B7
:104F400073740A0010B5022815D14C6815A02146CB
:104F500012F00AFF204601F0B5FB014649F2446019
:104F600049F23A62C0F20220C0F20222002950EA5D
:104F70004280CC1702E04FF0FF3402A012F0F4FEA2
:104F8000204610BD55736167653A20756E6D6F756B
:104F90006E74203C6D6F756E74706F696E743E2E0A
:104FA0000A000000756E6D6F756E74202573202EDB
:104FB0002E2E2000B0B514460D4601F0FBF929460F
:104FC0002246BDE8B0401AF08AB9000070B590B032
:104FD0000D466946044600F0A9FEB0F1FF3F17DD1B
:104FE000BDF80600012100F47040B0F5804F51EA91
:104FF00001966946284600F099FE00280ED4BDF8B7
:10500000060000F47040B0F5804F06D1043605E08C
:1050100034A0214612F0A8FE46E0083606F009004A
:10502000092803D124A012F09FFE3DE0B00706F04E
:1050300004000CD488B916F00C0F03D100212846C7
:105040000BF029FF2046294600F058F82CE0C0B9A3
:105050002046294600F0FCF826E02F212046FBF7E9
:10506000E9FA002854EA0091284601F0EFF9E8B186
:10507000002105460BF00FFF2046294600F03EF8C0
:105080000FE02F212046FBF7D5FA002854EA0091C3
:10509000284601F0DBF948B105462046294600F0D4
:1050A000D7F8284612F026F810B070BD49F2C22099
:1050B000C0F20220B7E700BF6370206661696C64CC
:1050C0002C2063702064697220746F2066696C659F
:1050D000206973206E6F74207065726D69747465D9
:1050E00064210A00636F7079206661696C65642CC5
:1050F000206261642025730A000000002DE9F04F52
:10510000D7B08046894668464FF48032414600F069
:10511000C7FC00286BD416AE00214FF482723046D3
:1051200013F02CFB04980188022975D1371D6C46B9
:105130003CA500BFC069C369002B6DD04FF48272DB
:10514000204631469847012866DB03223846294627
:10515000FBF720FA00283FD038882E283CD0404664
:10516000394601F073F9002846D08346484639464F
:1051700001F06CF9002846D04E460DF11809824620
:1051800000214022484613F0F9FA5846494600F0FB
:10519000CDFD28B124A0394612F0E6FDB1461AE053
:1051A000BDF81E0000F47040B0F5804F08D100211A
:1051B00050460BF070FE58465146FFF79FFF03E044
:1051C0005846514600F044F85846B14611F092FF57
:1051D000504611F08FFF16AE00214FF48272304618
:1051E00013F0CCFA049801880229A3D014E014A08B
:1051F000414612F0B9FD12E049F2B220C0F202209D
:1052000012F0B2FD08E049F2B220C0F2022012F022
:10521000ABFD584611F06EFF684600F08FFB57B0AB
:10522000BDE8F08F2E2E00006F70656E2066696CF1
:10523000653A202573206661696C65640A00000088
:105240006F70656E202573206661696C65640A0065
:10525000F0B58DB006464FF480500D4612F0B4FD07
:10526000D0B301AF0446384604F0D7FF00223846D9
:10527000314600F015FCB0F1FF3F36DD07AE304699
:1052800004F0CBFF40F241223046294600F008FCF2
:10529000002830D401AD07AE0598C069C368CBB310
:1052A0004FF48052284621469847B0F1FF3F2DDD4C
:1052B000074678B30B98C06903692BB13046214685
:1052C0003A469847014601E06FF02C01B942E3D01D
:1052D00016A012F049FD1DE049F2C220C0F20220E2
:1052E0000DB0BDE8F04012F03FBD204611F002FFC6
:1052F0001CA0314607E0204611F0FCFE01A800F09A
:105300001DFB13A0294612F02FFD0CE0029840F07F
:105310008060029001A800F011FB07A800F00EFBCE
:10532000204611F0E7FE0DB0F0BD00BF5772697462
:10533000652066696C652064617461206661696CD2
:1053400065642C206572726E6F3D25640A00000052
:105350005772697465202573206661696C65640AFB
:105360000000000052656164202573206661696C4D
:1053700065640A0010B504464068804745F27531FF
:105380002068C0F200212246BDE810401BF05CBF3F
:1053900080B547F2A030C0F2022001F009F90020E8
:1053A00080BD000070B586B002A901F05BF938B18C
:1053B00011F0D7FE2D3013D126A012F0D5FC15E048
:1053C000DDF808C0DDF810E0AEFB0C43B4F580104A
:1053D00073F1000054EA9F230BD2002200211FE04A
:1053E00011F0BFFE014614A012F0BEFC4FF0FF30DA
:1053F00020E0012000261D46224654EA9F25F107A1
:10540000014608D1104650EA1F53012618434FF0B9
:1054100002002B46F0D16FF39F2202EB8200420A7A
:1054200015A0CDE900EC50F8213016A0214612F06D
:105430009BFC002006B070BD7374617466732066B7
:1054400061696C65643A206572726E6F3D25642EE9
:105450000A0000005468652066756E6374696F6E9B
:10546000206973206E6F7420696D706C656D656E58
:105470007465642E0A000000E4920202E7920202C0
:10548000E19202026469736B20667265653A2025B9
:10549000642E2564202573205B20256420626C6FB8
:1054A000636B2C20256420627974657320706572AB
:1054B00020626C6F636B205D0A000000B0B504468B
:1054C00050B949F20C2049F24621C0F20220C0F244
:1054D00002216F2211F032F82069C16800290CDC2A
:1054E00049F2DF1049F24621C0F20220C0F2022147
:1054F000702211F023F82069C168012901DD002024
:10550000B0BD0188022905D141680A782F2A01D14E
:105510004978B9B1856A55B949F2FA1049F246217C
:10552000C0F20220C0F20221852211F007F82846BD
:1055300011F005FA10B16FF00B00B0BD2169002029
:105540008862B0BD846A54B949F21C2049F24621F0
:10555000C0F20220C0F202217C2210F0EFFF2046B0
:1055600011F0C8FDCBE700002DE9F04381B00069E0
:1055700015460C46866A46B949F21C2022A1C0F2A3
:10558000022040F2591210F0D9FFB5F5827F02D205
:105590006FF0040034E04CF2FD000127CFF60F401D
:1055A0000434A5FB000100254FF00C084FF482796C
:1055B000080A012888BF0F0AB088F1882844884269
:1055C00018D231680C2251F8201088691E284FF03B
:1055D000080008BF042004F8040C204604F8038CDB
:1055E00024F8029C15F010FA013504F58274AF42DC
:1055F000E2D13D46B08805EB85112844B080880093
:1056000001B0BDE8F08300BF6466735F64657669CE
:1056100063655F66735F67657464656E74730000CD
:10562000F0B581B0064614460D4650B949F20C203B
:1056300049F26E21C0F20220C0F202212F2210F0A6
:105640007DFF3069876A5FB949F2FA1049F26E212D
:10565000C0F20220C0F20221332210F06FFF306945
:10566000406801782F2901D1407838B13846294661
:10567000224601B0BDE8F04011F09CB96FF02C005B
:1056800001B0F0BD00207047F0B581B0044600695C
:10569000C16800290CDC49F2DF1049F28221C0F216
:1056A0000220C0F20221982210F048FF2069C16850
:1056B000022902DB0020E06021E0406801782F2908
:1056C00004D1417811B9A179C9071AD1013011F07B
:1056D0009EF960B10321054611F0D4F908B12D30CF
:1056E00008D12069042185620180002007E06FF065
:1056F000190004E02069002181626FF00B0001B005
:10570000F0BD11F067FB092013F09EFC054638B987
:1057100049F282211CA0C0F20221AD2210F00EFF3E
:105720002E1D4FF0FF370425304600BF00680137BB
:10573000B04205F10405F9D111F0BCFC284612F085
:1057400043FB0546E0B111F045FB05F10800286078
:1057500030680021B042A980EF800FD0B9B200229A
:1057600049B12B68A0F1100701399F50043200683D
:10577000B042F5D102E00AA012F0F6FA11F09AFC5C
:1057800020698562B1E700BF696E666F726D6174F2
:10579000696F6E20213D2052545F4E554C4C0000E5
:1057A0007761726E696E673A205468657265206130
:1057B0007265206E65776C7920616464656420642D
:1057C0006576696365732074686174206172652011
:1057D0006E6F7420646973706C6179656421000078
:1057E00000207047F0B581B0044615460E4650B90A
:1057F00049F20C2049F23321C0F20220C0F202210A
:10580000452210F09BFE2069876A5FB949F2FA10C1
:1058100049F23321C0F20220C0F20221492210F0E5
:105820008DFE2069406801782F2901D1407848B168
:10583000E168384632462B4611F0CFF9E168014461
:10584000E16001E06FF02C0001B0F0BD10B5087808
:1058500014462F2801D14878C0B1481C11F0D7F860
:1058600050B1806900210F28216008DC98B101281F
:1058700017D146F2B61016E06FF0080010BD1028E0
:105880000CD01E280DD144F2B6100CE00020206090
:1058900044F2FF1007E042F2B61004E041F2B61005
:1058A00001E048F2B610E08000206061206210BD87
:1058B00003A090ED001F002081ED001F704700BF86
:1058C00000020000000002000000020000000200D0
:1058D00000207047F0B581B0044615460E4650B919
:1058E00049F20C2049F25A21C0F20220C0F20221F2
:1058F0005A2210F023FE2069876A5FB949F2FA1034
:1059000049F25A21C0F20220C0F202215E2210F0B8
:1059100015FE2069406801782F2901D1407848B1EF
:10592000E168384632462B4611F016FAE168014428
:10593000E16001E06FF02C0001B0F0BD70B5B8B1CE
:1059400006468068012816D140F67C404FF0FF31B2
:10595000C2F2002013F048FA3569E86801280CDB30
:10596000E969496861B1304688470446E86808E05B
:105970006FF00C0427E0002425E06FF00C041CE01D
:105980000024012819D12A460023336152F8100F50
:10599000516841605168086052F8081C52F80C0CBC
:1059A000C2E90022884203D0084611F0A3FB6868D0
:1059B00011F0A0FB284611F09DFB40F67C40C2F29E
:1059C000002013F01DF9204670BD50B1D0F810C072
:1059D000BCF80030022B04D1DCF81C30DB691BB1B1
:1059E00018476FF0040070476FF02C00704770B5D7
:1059F0000146002000F02AFD40F67C450446C2F234
:105A000000254FF0FF31284613F0EEF90021204623
:105A100000F09CFE002828465FEA0F9613F0F0F88D
:105A2000204611F067FB304670BD000010B541F60E
:105A3000A4746FF01600C2F2002400BF10F1170129
:105A400005D14FF0FF31204613F0CEF9F6E700B94B
:105A500010BD49F2F81004A1C0F202208C22BDE86A
:105A6000104010F06BBD00BF6466735F66696C65C3
:105A70005F6C6F636B00000010B558B1044600699D
:105A8000C06982694AB120469047002848BF10BDCE
:105A9000E06010BD6FF0040010BD6FF02C0010BD71
:105AA0002DE9F04381B0002841D00446002016467D
:105AB00000F0CCFC002800F0A180074640F67C40B6
:105AC000C2F200204FF0FF3113F08EF969463846DC
:105AD00000F03CFE70B30546C0680130E86000206D
:105AE000C4E9030540F67C40C2F2002013F088F8B8
:105AF000384611F0FFFAE869016820466660884779
:105B0000B0F1FF3F41DD6068F10340F080716160FA
:105B100005D52169022240F0407060600A8040F69D
:105B20007C40C2F2002013F06BF8002768E06FF0B1
:105B3000040765E0384600F0CDF9002849D08046DA
:105B400001202C214FF0010910F036FD00284CD027
:105B50000546D8F80800C5F80C90C5F8188081688B
:105B6000E9610021298029620079C007384651D1B6
:105B7000D8F80400394600F088FD002844D0D8F851
:105B80000400394600F081FD42E00746E86801382C
:105B9000E86017D12A4652F8103F5068586052E921
:105BA0000301566888423360C2E9002203D00846E8
:105BB00011F0A0FA686811F09DFA002020612846D3
:105BC00011F098FA40F67C40C2F2002013F018F869
:105BD00016E040F67C40C2F2002013F011F838467F
:105BE00011F088FA6FF008070AE040F67C40C2F234
:105BF000002013F005F8384611F07CFA6FF0050725
:105C0000384601B0BDE8F08349F2DF20C0F202203F
:105C100014F0A2FEE969C5E90107096859B10098C5
:105C20000022C4E903252A46036842F8103F0260B7
:105C30005A60686161E740F67C40C2F2002012F0D1
:105C4000DFFFD5E90101884203D0084611F052FA7E
:105C5000686811F04FFA284611F04CFA6FF02C07E3
:105C6000CEE710B578B104460069C069C3686BB16E
:105C700020469847B0F1FF3FC8BF10BD616841F0B2
:105C80008061616010BD6FF0040010BD6FF02C00EA
:105C900010BD2DE9F0410D460146002000F0D6FB75
:105CA00038B10446FFF7A3FE30B16FF01606254663
:105CB00035E06FF0080635E00020294600F0C6FB0D
:105CC00060B10546204600F005F90646284600F07A
:105CD00001F9864205D06FF018061DE06FF0080646
:105CE000E5E7B068476A7FB10079C0070FD17068F7
:105CF000214600F0CAFC80467068294600F0C5FCC9
:105D000002463046414605E06FF02C0604E030467E
:105D100021462A46B8470646204611F0EBF92846A8
:105D200011F0E8F93046BDE8F081000070B50D468D
:105D30000146002000F08AFBC8B1044600F0CAF812
:105D4000C0B106468068036A53B30079C0073CD1EE
:105D50007068214600F099FC49F2DF21B268C0F278
:105D60000221002851EA0081136A30462FE04FF0EB
:105D7000FF3532E049F2D120C0F2022011F0F4FFE9
:105D800023A0214611F0F0FF48F25B40C0F2022050
:105D900011F0EAFF204611F0ADF96FF008051CE0A4
:105DA000204611F0A7F949F2D120C0F2022011F0EB
:105DB000DBFF0BA011F0D8FF48F25B40C0F20220DD
:105DC00011F0D2FF6FF02C0507E0304621462A463D
:105DD00098470546204611F08DF9284670BD00BF52
:105DE0007468652066696C6573797374656D206489
:105DF00069646E277420696D706C656D656E7420C2
:105E0000746869732066756E6374696F6E00000054
:105E100063616E27742066696E64206D6F756E74A1
:105E200065642066696C6573797374656D206F6E47
:105E3000207468697320706174683A2573000000EB
:105E400070B50146002000F001FB48B10446FFF7A1
:105E5000CEFD48B16FF01605204611F04BF901E078
:105E60006FF00405284670BD204600F033F898B165
:105E700005468068C26992B10079C00712D168688E
:105E8000214600F002FCA968CE6978B16868214615
:105E900000F0FBFB01460DE06FF00805DCE76FF05A
:105EA0002C05D9E728462146904705E049F2DF2135
:105EB000C0F202212846B0470546CDE720B103696C
:105EC000DB691B691BB118476FF0040070476FF066
:105ED0002C0070472DE9F047814620B91BA01DA179
:105EE000562210F02BFB00F0ADF841F6E4754FF0B0
:105EF000000AC2F200254FF0000805F1400400BF7F
:105F00006F68DFB1A868C8B13846FAF79EFB504504
:105F100014D30646384649463246FAF7B5FB68B907
:105F2000022E08D34846FAF790FBB04203D919F87D
:105F300006002F2802D1A846B24600BF1035A54260
:105F4000DED300F0B9FB4046BDE8F08770617468AD
:105F5000000000006466735F66696C657379737432
:105F6000656D5F6C6F6F6B7570000000F0B581B090
:105F700041F2AC05C2F200252878012803D12CA0FB
:105F800011F0F2FE41E000F023FC41F6D470002154
:105F9000C2F200201022002612F0F0FB41F6E4705D
:105FA0000021C2F20020402212F0E8FB40F23470DF
:105FB0000021C2F20020082212F0E0FB42F2B00001
:105FC00013A1C2F200200122012712F0EBFD41F6DD
:105FD000A47011A1C2F20020012212F0E3FD40F2F0
:105FE000BE140021C2F200244FF48072204612F049
:105FF000C5FB2F202070FFF7CBF909A10AA20020D2
:106000000023009600F0E0F82F70002001B0F0BDF2
:1060100066736C6F636B000066646C6F636B00008B
:106020002F646576000000006465766673000000EA
:1060300064667320616C726561647920696E69744D
:106040002E0A000010B542F2B0046FF01600C2F242
:10605000002400BF10F1170105D14FF0FF31204699
:1060600012F0C2FEF6E700B910BD49F2F81004A123
:10607000C0F202207D22BDE8104010F05FBA00BFE0
:106080006466735F6C6F636B000000002DE9F04184
:106090000E4641B30446304610F0B9FC18B38046B2
:1060A000FFF7D0FF41F6D4770425C2F2002700BFE6
:1060B000386848B106683046FAF7C7FA02463046F3
:1060C0002146FAF7E1FA30B3013D07F10407EFD1B9
:1060D00000F0F2FA49F2D120C0F2022011F044FEA1
:1060E0002AA021460BE06FF0190014F0BBF849F22A
:1060F000D120C0F2022011F037FE2CA0314611F061
:1061000033FE48F25B40C0F2022011F02DFE4FF04A
:10611000FF30BDE8F08100F0CFFA3868426922B163
:1061200040462146BDE8F041104749F2D120C0F277
:10613000022011F019FE07A0214611F015FE48F2C9
:106140005B40C0F2022011F00FFE6FF02C0014F043
:1061500089F8DCE75468652066696C65207379739B
:1061600074656D2028257329206D6B667320667514
:106170006E6374696F6E20776173206E6F7420692F
:106180006D706C656D656E740000000046696C652D
:106190002073797374656D202825732920776173C6
:1061A000206E6F7420666F756E642E00446576698C
:1061B0006365202825732920776173206E6F742012
:1061C000666F756E640000002DE9F04F87B09A4647
:1061D0001746894620B110F01AFC834610B97BE0BF
:1061E0004FF0000BFFF72EFF41F6D474C2F20024EB
:1061F00004F11006206848B105682846FAF725FA28
:10620000024628463946FAF73FFA10B10434B44240
:10621000F0D300F051FAB4425ED0206800285ED07E
:10622000C06800285BD00020494600F00FF9002824
:1062300076D049A10646FAF773FBA0B147A13046D4
:10624000FAF76EFB78B101AD284603F0E6FF4FF494
:10625000803228463146FFF723FCB0F1FF3F5CDD7A
:1062600001A8FFF76BFB0096FFF7ECFE41F6E47820
:106270000025C2F2002808F1400600BFD8F8080047
:1062800030B1D8F804004946FAF74AFB18B929E0BA
:10629000002D58EA058508F11008B045EED335B356
:1062A000009E6E602068C5F800B0C5E9020700F0E6
:1062B00003FABBF1000F04D02868032110F0E2FBC1
:1062C000E8BB20685146109AC36828469847B0F149
:1062D000FF3F2EDD002029E06FF0190022E06FF073
:1062E0002C001FE06FF0040013F0BCFF13E06FF010
:1062F000220013F0B7FF49F2D120C0F2022011F0C2
:1063000033FD18A0394611F02FFD48F25B40C0F272
:10631000022011F029FD009E18E0304610F0EAFE40
:106320006FF01A0013F09EFF4FF0FF3007B0BDE88A
:10633000F08FBBF1000F02D0286810F000FBFFF7D0
:1063400081FE00211022284612F018FA00F0B4F95C
:10635000304610F0CFFEE7E72F0000002F6465768F
:10636000000000005468657265206973206E6F201C
:10637000737061636520746F206D6F756E74207427
:106380006869732066696C652073797374656D2024
:10639000282573292E0000000069C168012902D157
:1063A000806A18F085BF0020704747F2C830C0F2FD
:1063B0000220704780B503F027FF28B100690188EB
:1063C000012901D1806A80BD4FF0FF3080BD80B5CA
:1063D0000069806A19F060F8B0F1FF3FC8BF80BD66
:1063E00010F0BFFE80EAE071C1EBE07080BD19F0F3
:1063F0001EBA80B582B0006900234FF0000C806A9D
:10640000CDE900CC19F02BFAB0F1FF3F05DC10F01C
:10641000A8FE80EAE071C1EBE07002B080BD80B5FB
:1064200082B0006900234FF0000C806ACDE900CCF7
:1064300019F037FAB0F1FF3F05DC10F092FE80EA68
:10644000E071C1EBE07002B080BD0000F0B581B03A
:106450000D46044629B94AA04EA140F2862210F00A
:106460006DF8287840F2BE11C2F20021002C51EAEA
:1064700004862F2805D1284614F06EFA0746E8B99D
:106480007AE03046FAF7E1F804462846FAF7DDF8F4
:106490002044023011F098FC00286DD007463046A9
:1064A000FAF7D3F804462846FAF7CFF820443EA27C
:1064B000811C38463346009513F04AFF3B782F2065
:1064C00039463C46224600BF2E2B2ED153782F2B27
:1064D00006D1013212F8013F2F2BFBD0F4E700BFA9
:1064E00013B32E2B21D1144614F8023F33B12F2BB6
:1064F0001BD1941C14F8013F2F2BFBD0CA1B012A7F
:1065000003D111F8012C2F2A02D00139B94230D31E
:106510000A4600BF11469742D4D20A4612F8016DCE
:106520002F2EF7D1CEE700BF01320139531C14469C
:1065300013F8012C72B12F2A04D001F8012F013376
:106540000134F5E7487000BF14F8013F2F2BFBD052
:106550000231B7E7B9424FF00000487004D0087824
:106560002F2801D100200870387830B92F203880CA
:1065700003E0384610F0BEFD0027384601B0F0BDFC
:1065800066696C656E616D6520213D204E554C4CF1
:10659000000000006466735F6E6F726D616C697AF3
:1065A000655F70617468000025732F25730000001B
:1065B000F0B581B00446FFF745FD41F6D4760025DD
:1065C000C2F2002606F11007306828B10068216881
:1065D000FAF7A6F918B909E0002D56EA0585043640
:1065E000BE42F1D33DB12C6000241AE06FF01700D9
:1065F00013F038FE9DB96FF0220013F033FE49F21C
:10660000D120C0F2022011F0AFFB216807A011F0E9
:10661000ABFB48F25B40C0F2022011F0A5FB4FF04B
:10662000FF3400F049F8204601B0F0BD54686572AF
:1066300065206973206E6F20737061636520746FCD
:106640002072656769737465722074686973206667
:10665000696C652073797374656D20282573292E04
:106660000000000010B50C46FFF734FC30B1816823
:106670008A691AB12146BDE8104010476FF02C001E
:1066800013F0F0FD4FF0FF3010BDB0B50C46F9F738
:10669000DCFF05462046F9F7D8FF854201D10020EE
:1066A000B0BD605D62192F285FEA0F90002D5FEA90
:1066B0000F910840101AB0BD42F2B000C2F20020A3
:1066C00012F09EBA70B501460020FFF7BFFEC0B1C0
:1066D0000446FFF7B7FC41F6E475C2F2002505F168
:1066E000400600BF686818B12146FAF719F980B171
:1066F0001035B542F6D3FFF7DFFF204610F0FAFC65
:1067000003E06FF01A0013F0ADFD4FF0FF36304696
:1067100070BDA86801690029EDD028468847002887
:10672000E9D4286808B110F00AF9686808B110F0D7
:10673000E1FC002110222846002612F01FF8FFF786
:10674000BBFF204610F0D6FCE1E7000070B5044620
:10675000007868B1631C0022832600BF02FB06029A
:1067600013F8010B08B12FF007C802F07F0000E01A
:10677000002040F67C42C2F2002202EBC00555F830
:10678000306F41B10D6006E056F8081C204614F049
:10679000C1F820B13668AE42F6D1002070BDA6F136
:1067A000100070BD88B170B515460E4600212C2230
:1067B000044611F0E3FF2680E56104F11000012199
:1067C000C4E903106061BDE870400020704700001C
:1067D00010B540F67C4416A1C2F2002401222046E6
:1067E00012F0E0F90EA04FF0200E042190ED001FF2
:1067F000302000BFA3EF502523EE442F23EE402F7F
:1068000022EF524121EE410F12EE102A82FC003F8E
:1068100082FC203F0FF013C010BD00BF00BF00BFBF
:106820000000000001000000020000000300000062
:106830006466735F6D677200B0B582B0002849D09E
:10684000846A0546002C43D0607A082840D1A06AAB
:10685000096881423CD10C20A4F809000020E082A4
:1068600004222846214600F0F7F950BB32210422C9
:10687000204600F049FDA06A08F0D0F90146204604
:1068800000F0E8FD204600F05BFEA18AE068F031F0
:1068900089B20EF053F841F2B40047F63442C2F226
:1068A0000020E16847F6304CC0F202220068432322
:1068B000C0F2022CCDE9005C1FF0FAF9204600F08E
:1068C00015FBA07AFF2801D00130A0721420E082CD
:1068D00002B0B0BD4AF29E00C0F2022011F044FAAC
:1068E0004AF2571040F27B31C0F2022002B0BDE8FC
:1068F000B0401AF02BBA000080B582B0002845D015
:10690000816A00294AD04B6B4FF0000CA1F820C0DF
:1069100048F6890C5A1CC8F6880C0ED01E33A3FB0F
:106920000C3E4FF6FF734FEA5E129A4238BF4FEAB1
:106930005E13002B08BF01234B848B6B5A1C10D0B5
:1069400003F11E02A2FB0C2E4FF6FF724FEA5E13FC
:10695000934238BF4FEA5E12002A08BF01220A8321
:106960008A83CB6B5A1C27D003F11E02A2FB0C2C8E
:106970004FF6FF724FEA5C13934238BF4FEA5C1246
:10698000002A08BF01224A83CA8316E029A011F019
:10699000EBF94AF2571040F2FE3106E01FA011F069
:1069A000E3F94AF257104FF48061C0F2022002B0BE
:1069B000BDE880401AF0CAB94A8B0B8B013A92B2FB
:1069C0009A4201D200220A83CA7A0AB1CA6A0DE049
:1069D00091F92820002A01D4FF2207E0D2B2C02A70
:1069E00002D36FF07F4201E04FF6FF720B6B019212
:1069F000009323B98B6A1A4042F0807200924A7A5F
:106A00000A2A04D00A22A1F809200022CA822831C9
:106A100001AA6B460DF073F902B080BD6468637023
:106A20005F62696E643A206468637020213D204E85
:106A3000554C4C00646863705F62696E643A206E06
:106A40006574696620213D204E554C4C00000000C5
:106A500010B5846A617A082904D00821A4F80910C5
:106A60000021E18204F12801002202F0B3FFA07AA4
:106A7000FF2801D00130A0720120E08210BD10B5C6
:106A8000044668B94AF29E00C0F2022011F06CF987
:106A90004AF2571040F2BB21C0F202201AF056F918
:106AA000A06A18B10AF005F90020A06210BD00002C
:106AB0002DE9F04F81B04BF6F020C2F200200468BF
:106AC000002C00F0C58047F2504B4FF0010A40F215
:106AD00022454FF004080027C0F2022B4FF47A79C8
:106AE000A66A002E00F0B080707A002800F0AC801A
:106AF000718C69B1328C0132328493B28B4207D1EE
:106B0000204601F0B9F8204600F05AFA9CE000BF98
:106B1000F18B19B10139F1830A041DD0B18B002921
:106B200000F092800139B1830A0440F08D800A2878
:106B300000F28A800AFA00F0284200F085802046A0
:106B400001F0FCF8708B318C401A0228C0F27C8076
:106B500080B24008B08377E00138092800F27480E1
:106B6000DFE800F005727208057272727205A6F80D
:106B70000980F78203222046314600F06DF8002894
:106B80003ED139210222304600F0BEFB218F304633
:106B900000F0B2FC3721042230464FF0040800F028
:106BA000B3FBD9461BF8011B304600F0D3FBB8F10C
:106BB0000108F7D13046214600F004FC304600F0D1
:106BC000BFFCB18AF068F03189B20DF0B7FE41F236
:106BD000B40047F63442C2F20020F1684323C0F209
:106BE0000222006800941FF043F8304600F07EF95E
:106BF000CB464FF00408002740F222454FF47A7943
:106C0000B07A5AFA80F1CAB28A4201D0142011E057
:106C100002FB09F240F2F313B17244F6D351C1F210
:106C2000620113FA82F2A2FB0112C1B214200929F7
:106C300038BF5009718CF082328C891A022903DB2B
:106C400088B24008F08300BF24680CB12FF0B9C0AF
:106C500001B0BDE8F08F0000F0B581B0002845D04C
:106C60000D46002952D00646E868144650B169A086
:106C700011F07AF84AF2571040F21F71C0F2022068
:106C80001AF064F8286950B16CA011F06DF84AF25E
:106C900057104FF4E461C0F202201AF057F80020B8
:106CA0004FF49A7100220DF019FAE860D8B34089C8
:106CB00080084C280DD84AF2A810C0F2022011F02A
:106CC00053F84AF257104FF4E561C0F202201AF06F
:106CD0003DF8032C02D1687A03282FD1A87A20B37B
:106CE00041F2B000C2F20020006825E04AF28D00B7
:106CF000C0F2022011F038F84AF2571040F21D712C
:106D0000C0F202201AF022F8F0207FE055A011F026
:106D10002BF84AF2571040F21E71C0F202201AF00E
:106D200015F8FA2072E0FF2070E0F9F7A5FA41F2B9
:106D3000B001C2F200210860286000E02868E9681C
:106D400040F201120027496829610A80CF7096F845
:106D50003A208A7007F062FF2969E21F022A486020
:106D6000CF608F6008D3042C06D0032C06D1687A3C
:106D700000F0FE00042801D17068C860002008619E
:106D8000486188614FF0100E06F13B0105284FF075
:106D9000000204D896F83A30984238BF0A782B6936
:106DA0000131034401301A770FF011C04FF0400E4B
:106DB0002C2000212A69115401300FF005C84FF032
:106DC000800E6C20002100BF2A69115401300FF0A1
:106DD00005C8286948F26321C6F253314FF0440ECA
:106DE000C0F8EC100020A882F02100BF2A6950549E
:106DF000013001310FF007C035210122284600F093
:106E000083FA2846214600F0A5FA002040B201B0DE
:106E1000F0BD00BF646863705F6372656174655F35
:106E20006D73673A20646863702D3E705F6F757490
:106E3000203D3D204E554C4C0000000064686370BE
:106E40005F6372656174655F6D73673A2064686340
:106E5000702D3E6D73675F6F7574203D3D204E55FC
:106E60004C4C0000646863705F6372656174655FB9
:106E70006D73673A206468637020213D204E554C45
:106E80004C00000010B541F2B804C2F20024207892
:106E900050B90DA010F068FF4AF25710F321C0F26C
:106EA000022019F053FF207801382070010618BF26
:106EB00010BD41F2B404C2F2002420681EF08AFE24
:106EC0000020206010BD00BF646863705F70636263
:106ED0005F726566636F756E7428293A2072656605
:106EE000636F756E74206572726F720010B510B3A7
:106EF0000446C06850B916A010F036FF4AF2571089
:106F000040F26E71C0F2022019F020FF206950B9E2
:106F100019A010F029FF4AF2571040F26F71C0F229
:106F2000022019F013FFE06808B10DF0CDFB00203E
:106F3000C4E9030010BD1AA010F016FF4AF2571062
:106F400040F26D71C0F20220BDE8104019F0FEBEA3
:106F5000646863705F64656C6574655F6D73673AE0
:106F600020646863702D3E705F6F757420213D2032
:106F70004E554C4C00000000646863705F64656CA3
:106F80006574655F6D73673A20646863702D3E6D4C
:106F900073675F6F757420213D204E554C4C000087
:106FA000646863705F64656C6574655F6D73673A90
:106FB000206468637020213D204E554C4C00000039
:106FC0002DE9F04383B0846A0646607A06284FF0C4
:106FD0000000A06203D00621A4F80910E08201227B
:106FE000304621464FF00108FFF736FE8146C8BB08
:106FF00039210222204600F087F9318F204600F027
:107000007BFA372104222046042700F07DF947F25D
:107010005045C0F2022500BF15F8011B204600F0C4
:1070200099F9013FF8D1204600F08AFAA18AE06878
:10703000F03189B20DF082FC41F2B40047F63442DF
:10704000C2F20020E16847F63047C0F20222006831
:107050004323C0F20227CDE900671EF029FE204637
:10706000FFF744FFA17A782058FA81F2D3B2934215
:1070700012D14FF47A77C9B207FA03F340F2F3174B
:10708000A272052917FA83F344F6D357C1F26207B7
:10709000A3FB073738BF7809E082484603B0BDE854
:1070A000F0830000B0B54BF6F020C2F20020046877
:1070B000002C3DD0002500BFA06A002830D0C18A36
:1070C000022903D30139C1822AE000BF012927D157
:1070D000417AC58201390B2922D8DFE801F0062167
:1070E0000D21211E21142121211E807A052811D86D
:1070F000204600F08DFE13E0807A01280DD820464E
:1071000000F09AFA0CE0807A01280DD82046FFF7AB
:107110009FFC05E0204600F0AFFD2046FFF750FF42
:1071200024682CB12FF039C02046FFF7E5FBF7E7C4
:10713000B0BD00002DE9F04182B041F2BC05846A87
:10714000C2F2002541F2C808C2F200280020E97806
:10715000C4E90B0011B1D8F80C006063287910B1B4
:10716000D8F8100001E0606B40086979A06311B1A4
:10717000D8F8140003E0606BC0EBC000C008A97928
:107180006268E0631069A06231B1D8F8180007F0B6
:1071900045FDE062012000E00020E979E07221B1C4
:1071A000D8F81C0007F03AFD20630026012701AC47
:1071B00046F00800295C71B158F8200007F02EFD58
:1071C0000190F0B2214601F021FCF8074FF00106D2
:1071D0004FF00007ECD102B0BDE8F08110B50446D5
:1071E000806A417A0C2904D00C21A0F809100021F2
:1071F000C18247F630412046C0F202210A460B46C2
:107200000CF07DFD2046BDE81040FFF7D9BEB0B5BB
:1072100041F2BC01C2F20021897889B1044641F2F1
:10722000C800C2F20020A56A806807F0F7FC696810
:1072300068620869A8622046BDE8B04000F0E8BD79
:10724000B0BD000070B541F2B805C2F20025287843
:1072500068BB41F2B406C2F20026306848B117A0FC
:1072600010F082FD4AF25710D921C0F2022019F025
:107270006DFD1EF082FC3060F0B1017A47F63044BB
:10728000C0F20224442241F02001017221461EF086
:10729000D1FA3068432221461EF03EFB47F21D71B1
:1072A0003068C0F2002100221EF091FC28780130E5
:1072B0002870002040B270BDFF20FBE76468637057
:1072C0005F696E635F7063625F726566636F756E40
:1072D0007428293A206D656D6F7279206C65616B39
:1072E00000000000816A51B14A7AD31E032B02D3F9
:1072F0002AB10A2A04D100228A7200F09DB970478F
:1073000000228A72FFF75CBE70B50446808A15467B
:107310000E4602440232452A0ED34AF20F10C0F242
:10732000022010F021FD4AF257104FF4AE61C0F276
:10733000022019F00BFDA08A2169421CA282084498
:1073400080F8F060A08A216901440130A08281F8B0
:10735000F05070BDB0B50446808A0D4644280BD36A
:1073600009A010F001FD4AF2571040F27B51C0F223
:10737000022019F0EBFCA08A216901440130A082AF
:1073800081F8F050B0BD00BF646863705F6F7074C7
:10739000696F6E5F627974653A20646863702D3E30
:1073A0006F7074696F6E735F6F75745F6C656E205C
:1073B0003C20444843505F4F5054494F4E535F4C1C
:1073C000454E0000F0B581B04C6B002C3FD0054617
:1073D0002046F9F73AF9D0B30646A88AC0F141072A
:1073E000BE420DD94AF25F00C0F2022010F0BCFC90
:1073F0004AF2571040F29D51C0F2022019F0A6FC4B
:10740000BE4256EA3786B6F5807F05D2F2B20C212D
:107410002846FFF779FF18E04AF25F00C0F2022029
:1074200010F0A2FC4AF2571040F29F51C0F2022025
:1074300019F08CFCF2B20C212846FFF765FF14F816
:10744000011B2846013EFFF785FF002EF7D101B052
:10745000F0BD0000B0B50446808A0D4641280BD32C
:1074600015A010F081FC4AF2571040F28A51C0F288
:10747000022019F06BFCA08A2169421CA2820844F8
:10748000290E80F8F010A08A2169421CA2820844CB
:10749000290C80F8F010A08A2169421CA2820844BD
:1074A000290A80F8F010A08A216901440130A082E5
:1074B00081F8F050B0BD00BF646863705F6F707496
:1074C000696F6E5F6C6F6E673A20646863702D3E03
:1074D0006F7074696F6E735F6F75745F6C656E202B
:1074E0002B2034203C3D20444843505F4F505449AA
:1074F0004F4E535F4C454E00B0B50446808A0D4652
:1075000043280ED34AF2CE00C0F2022010F02CFC29
:107510004AF2571040F28251C0F2022019F016FCD4
:10752000A08A2169421CA2820844290A80F8F0102E
:10753000A08A216901440130A08281F8F050B0BDD9
:1075400010B598B30446006950B920A010F00CFCA7
:107550004AF2571040F28371C0F2022019F0F6FB94
:10756000A08A44280BD324A010F0FEFB4AF2571047
:1075700040F28471C0F2022019F0E8FBA08A216970
:10758000421CA2820844FF2180F8F010A08A432800
:1075900088BF10BD002100BF2269431CA382104494
:1075A00080F8F010A08A4428F6D310BD4AF2AC004F
:1075B000C0F2022010F0D8FB4AF2571040F282715C
:1075C000C0F20220BDE8104019F0C0BB64686370CF
:1075D0005F6F7074696F6E5F747261696C65723A27
:1075E00020646863702D3E6D73675F6F7574202132
:1075F0003D204E554C4C0A00646863705F6F707498
:10760000696F6E5F747261696C65723A2064686359
:10761000702D3E6F7074696F6E735F6F75745F6C01
:10762000656E203C20444843505F4F5054494F4EB4
:10763000535F4C454E0A0000F0B581B0846A0546A0
:10764000607A032804D00320A4F809000020E08217
:10765000032228462146FFF7FFFA002841D13921AD
:1076600002222046FFF750FE4FF410712046FFF72C
:1076700043FF3221042220460426FFF745FEA06A7C
:1076800007F0CCFA01462046FFF7E4FE372104223A
:107690002046FFF739FE47F25047C0F2022700BFED
:1076A00017F8011B2046FFF755FE013EF8D1204692
:1076B000FFF746FFA18AE068F03189B20DF03EF98C
:1076C00041F2B40047F63442C2F20020E168C0F251
:1076D00002224323006800951EF0CAFA2046FFF7F5
:1076E00005FCA17A012050FA81F21420D3B2934212
:1076F00011D14FF47A77C9B27B4340F2F317A272EB
:10770000092917FA83F344F6D357C1F26207A3FBA2
:10771000073738BF7809E08201B0F0BD2DE9F04F9E
:1077200089B042F21C509046C2F200204568AE6A11
:10773000002E00F0A381307A002800F09D8170684F
:10774000D8F8044068B14AF29510C0F2022010F057
:107750000BFB4AF257104FF4D561C0F2022019F02A
:10776000F5FAB8F80A002C28C0F0868120780228A3
:1077700040F0828195F83A00A8B1013805F13B014B
:10778000C0B204F11C02052828BF0520013000BF4B
:1077900013780F789F4240F06F81013801F10101A9
:1077A00002F10102F4D1606807F038FA31688842CA
:1077B00040F06281B8F80A0041F2BC0EC2F2002E1D
:1077C0004FF0000C2C28AEF808C0CEE900CCC0F079
:1077D0005381B8F808704FF0F00B0FF2704100229F
:1077E000D8F8040070600295CDE90468444600BFF3
:1077F00060891FFA8BF5854207D32468ABEB000B39
:10780000002CA7EB0007F3D136E1B8B2854280F037
:107810000A81D4F80490CDE9002103951FFA8BF07A
:1078200019F80020FF2A00F0E380618901308842C6
:1078300001D2484403E02068002823D04068007843
:10784000A2F133030BF1020A082B0DD8CDE90697FC
:10785000DFE803F0051A23291515152E3400042836
:1078600040F0128103223BE0062A08D8DFE802F04C
:10787000042B073207079C000BF1010A00200AEBDA
:10788000000B43E00020DBE7012840F00881F02DE9
:1078900040F03C810022012123E0012840F00A81D0
:1078A000012101221DE0042840F00F81022217E08F
:1078B000042840F015810421042212E0042840F03D
:1078C0001A8105220CE0042840F02881CDE90697B2
:1078D000062205E0032840F22C81CDE90697072215
:1078E000042153460AEB000B1EF80200CDF820C01D
:1078F00028B3618941F2BC0EDDE90468C2F2002EB2
:107900004FF0000C039DDDF81890079F1FFA8BF0D5
:1079100088420DD37F1AABEB010BB8B21FFA8BF183
:10792000814265D22468002C00F09B80D4F804903A
:10793000B8B21FFA8BF18142FFF470AF58E041F208
:10794000BC00C2F2002000EB020841F2C800C2F203
:10795000002000EB82065FFA81FA89465746BAF1A9
:10796000040F28BF04271D469BB2204608A93A46AB
:107970000CF044FE874271D1BAF1050F26D35FEABD
:107980008A705FD1012088F80000089807F046F956
:1079900018F8011F2B462B1D46F8040B00294946F9
:1079A000A9F10401D7D0A4E78207079740F0C98066
:1079B0000822082850EA32830AEB000B002BA4D0DF
:1079C0001F4653463946CDF818908DE7BAF1010F9E
:1079D00007D0BAF1040F40F0BC80089807F01EF9F8
:1079E00001E09DF82000012188F80010306080E758
:1079F0009EF8000095A1009AA8B141F2C8004FF08E
:107A00006C0BC2F20020EC278EF800C00068012841
:107A10003FF4ECAE022810D0032804D14FF06C0BD9
:107A2000EC270122E2E64FF02C0B002A4FF06C0706
:107A30004FF000027FF4DAAE90E04FF02C0B6C2791
:107A40000022D3E640F23E64019810F08DF94AF22C
:107A500057102146C0F2022019F078F9DDE90468D8
:107A60000AE080A010F080F94AF2571040F2546109
:107A7000C0F2022019F06AF90020706040460CF054
:107A800023FE09B0BDE8F08F4AF28400C0F2022064
:107A900010F06AF94AF2571040F20961E8E74AF239
:107AA0007B00C0F2022010F05FF94AF2571040F25A
:107AB0001761DDE74AF27B00C0F2022010F054F9B2
:107AC0004AF2571040F21D61D2E74AF28400C0F238
:107AD000022010F049F94AF2571040F22161C7E73D
:107AE0004AF28400C0F2022010F03EF94AF2571028
:107AF00040F22561BCE74AF28400C0F2022010F097
:107B000033F94AF2571040F22961B1E73BA010F077
:107B10002BF94AF2571040F21961A9E74AF28400A2
:107B2000C0F2022010F020F94AF2571040F2F6514C
:107B30009EE73CA010F018F94AF2571040F2FB51B2
:107B400096E734A010F010F94AF2571040F20161A4
:107B50008EE74FF4C96438A0019075E79EF80100E4
:107B600000283FF489AF41F2C800C2F2002000793A
:107B7000022812D006281DD00528DDE904687FF40C
:107B80007BAF707AC11E032925D2029C2046FFF7E5
:107B9000D1FA2046FEF7B0FE60E7049EDDF81480BF
:107BA000707A062802987FF467AF0021F182FFF710
:107BB0002EFB61E7049EDDF814800298727A052A94
:107BC0003FF65AAF0121914011F03A0F3FF454AF04
:107BD000FFF704FB50E70128029CDDE904687FF40D
:107BE0004BAF2046FFF7A6FA94F84100000701D4F6
:107BF0000298CFE70298FEF72BFF2FE76F766572AA
:107C00006C6F616420696E2066696C652F736E61AC
:107C10006D6500006C656E2025252034203D3D20DB
:107C2000300000006C656E203E3D206465636F642B
:107C3000655F6C656E000000696E76616C6964203A
:107C40006465636F64655F6C656E00006465636F97
:107C500064655F6C656E2025252034203D3D203015
:107C6000000000006E657874207062756620776190
:107C700073206E756C6C0000F0B583B0856A002DC2
:107C800047D00446687A6F6A0297011F022903D31E
:107C9000002840D00A2845D10020A5F80900E88234
:107CA00005F11C002421F8F7E7FD072220462946AC
:107CB000FEF7D2FF064610BB362104222846FFF706
:107CC00023FB384606F0AAFF01462846FFF7C2FB11
:107CD0002846FFF735FCA98AE868F03189B20CF034
:107CE0002DFE41F2B400E968C2F2002002AA43234B
:107CF000009400681DF0BCFF2846FFF7F7F847F630
:107D000030412046C0F202210A460B460BF0F7FF35
:107D100011E0F0260FE005F11C002421F8F7ACFD7E
:107D2000002608E005F11C0024210026A5F80960C2
:107D3000EE82F8F7A1FD70B203B0F0BD2DE9F0417D
:107D400082B0846A0646607A052804D00520A4F82B
:107D500009000020E082032230462146FEF77CFF26
:107D60008046B0BB392102222046FFF7CDFA318F81
:107D70002046FFF7C1FB3721042220460427FFF7E6
:107D8000C3FA47F25045C0F2022500BF15F8011BA7
:107D90002046FFF7DFFA013FF8D120463146FFF7D2
:107DA00011FB2046FFF7CCFBA18AE068F03189B2D5
:107DB0000CF0C4FD41F2B400E168C2F2002004F10D
:107DC00024024323009600681DF052FF2046FFF76F
:107DD0008DF8A17A012050FA81F22820D3B2934283
:107DE00011D14FF4FA67C9B27B4340F2F317A27284
:107DF000092917FA83F344F6D357C1F26207A3FBAC
:107E0000073738BF7809E082404602B0BDE8F0810C
:107E1000F0B583B0846A0546607A012804D0012059
:107E2000A4F809000020E082032228462146FEF73C
:107E300013FF002854D1392102222046FFF764FAAB
:107E4000298F2046FFF758FB3221042220460426C2
:107E5000FFF75AFAA06A06F0E1FE01462046FFF756
:107E6000F9FA362104222046FFF74EFA606A06F03E
:107E7000D5FE01462046FFF7EDFA372104222046C1
:107E8000FFF742FA47F25047C0F2022717F8011BEA
:107E90002046FFF75FFA013EF8D120462946FFF75A
:107EA00091FA2046FFF74CFBA18AE068F03189B2D5
:107EB0000CF044FD41F2B40047F63442C2F2002017
:107EC000E16847F63047C0F2022200684323C0F25F
:107ED0000227CDE900571DF0EBFE2046FFF706F81C
:107EE000A17A012050FA81F27820D3B2934212D1C4
:107EF0004FF47A77C9B207FA03F340F2F317A2728C
:107F0000052917FA83F344F6D357C1F26207A3FB9E
:107F1000073738BF7809E08203B0F0BDB0B560B173
:107F2000044690F84100C00717D133A00FF01CFFA2
:107F30004AF2571040F2D72109E04AF29E00C0F2FF
:107F400002200FF011FF4AF2571040F2D621C0F282
:107F5000022018F0FBFEF0203EE0208FB0F5107FED
:107F600039D3A56A0DB3E86850B11DA00FF0FCFE2F
:107F70004AF257104FF43C71C0F2022018F0E6FEAE
:107F8000686868B14AF29510C0F202200FF0ECFE6A
:107F90004AF2571040F2F121C0F2022018F0D6FE4A
:107FA000287A40B1FEF76EFF05E0402008F084FE1D
:107FB00088B10546A06240212846F8F75DFCFFF72E
:107FC00041F940B9012028722046FEF7F9FF28B197
:107FD000204600F023F8FF2040B2B0BD0020FBE7B0
:107FE0007062756620705F6F7574207761736E279D
:107FF00074206672656564006E65746966206973D5
:10800000206E6F742075702C206F6C6420737479EF
:108010006C6520706F72743F0000000010B5F0B105
:10802000846ADCB1606868B14AF29510C0F202203F
:108030000FF09AFE4AF2571040F24F51C0F2022060
:1080400018F084FE607A18B10020A4F80900E082DC
:10805000207A18B1FEF716FF0020207210BD06A08E
:108060000FF082FE4AF2571040F24251C0F2022055
:10807000BDE8104018F06ABE646863705F73746F87
:10808000703A206E6574696620213D204E554C4C37
:10809000000000002DE9F04F81B0002800F07F8043
:1080A00004464FF48070904689460FF08DFE0028FC
:1080B00075D0074620460BF0DDFF002855D0064658
:1080C0000DF0F0FF00283ED0834636A50BF1040AE0
:1080D0002846514612F01EFC70B333A0514612F0F0
:1080E00019FC48B349F21E713846C0F202212246FB
:1080F000534612F0FDFB9BF80000042805D13846DA
:1081000049464246FFF7C6FF16E038461DF07CFEA2
:1081100038B1B9F1000F0FD149F25B60C0F2022013
:1081200006E0B8F1000F07D049F24D60C0F202201E
:1081300039460FF019FE00BF30460DF0B3FF8346FD
:1081400008B12FF03DC83046FCF7E7F938460EF08D
:10815000D1FF20460EF0B0F9B8B1B9F1000F1ED131
:1081600049F25B60C0F2022013E0B9F1000F06D1C2
:1081700049F25B602146C0F202200FF0F5FD38465F
:1081800001B0BDE8F04F0EF0B5BFB8F1000F06D05A
:1081900006A0214601B0BDE8F04F0FF0E5BD01B0EB
:1081A000BDE8F08F2E0000002E2E000072656D6F6E
:1081B000766564206469726563746F72792027251F
:1081C00073270A002DE9F04F81B000EB001941F24E
:1081D00040188A46C2F2002841F20411044608EB16
:1081E0000910C2F2002100F110060F1D04254FF006
:1081F000000B00BF57F8043C43B13879A04205D1C9
:108200003A6830465146984747F804BC013D07F1AB
:108210000C07EFD108F10F00042100EB091500BF96
:108220003CB110F8052C022A03D12A780378934236
:1082300014D0013900F58870A4F10104F0D1287838
:1082400003280DD841F2F404C2F2002454F82000AF
:108250001DF0C0FC2878002144F82010042028706C
:1082600001B0BDE8F08F00002DE9F041044600EBBD
:10827000001041F24017042CC2F2002707EB001552
:108280000AD33FA00FF070FD4AF2270040F20641EA
:10829000C0F2022018F05AFD2E4616F80A0F0328E5
:1082A00021D8DFE800F034022D3607F10A08042750
:1082B000F7F7E2FF414600BF0A78022A04D182B2F2
:1082C00031F8023C9342F2D0013F01F58871F3D1BD
:1082D00027A1288191ED001F86ED000F2046BDE803
:1082E000F04100F0DFBA2DA00FF03EFD4AF227006A
:1082F00040F24541C0F20220BDE8F04118F026BD31
:10830000284610F80C1F013901700A060CD0BDE890
:10831000F081286820B10138286018BFBDE8F081DD
:1083200000203070BDE8F081294611F80D2F013290
:108330000A70D3B2042B0ED115F80B2F6AB941F293
:108340003812C2F2002252683AB101222A70027039
:1083500000200870C2E70270C0E700212046002517
:10836000FFF730FF3570BDE8F08100BF00BF00BFF0
:1083700002000000000000000100000000000000FA
:10838000617272617920696E646578206F757420FE
:108390006F6620626F756E6473000000756E6B6EA1
:1083A0006F776E20646E735F7461626C6520656EBA
:1083B0007472792073746174653A000070B500EBD3
:1083C000001241F24015C2F20025160105EB02141D
:1083D0000323221D04F80A3F43F68023C0F2090359
:1083E000994251EA3381A9511146FFF7EBFEA85992
:1083F00000B170BD20780328FBD10020207070BD33
:108400002DE9F04F81B092464FF0F00298B10F463F
:1084100089B10446007828B120469946F8F715F945
:10842000FF2801D9F02206E080462046394603F0B5
:1084300009FD20B1002250B201B0BDE8F08F41F239
:10844000401B0426C2F2002B0BF1100515F8060C98
:10845000032807D14FF480722046294608F04EFBCE
:10846000002856D0013E05F58875EFD141F238104D
:10847000C2F200200068002856D041F20410002506
:10848000C2F20020071D05EB05100BEB0010817AEE
:10849000022910D100F110014FF48072204608F03B
:1084A0002DFB40B90420394651F8042CAAB30138F9
:1084B00001F10C01F8D10135042DE4D141F2341061
:1084C0000BF10E02C2F200200021042500230078E7
:1084D00012F8046C032E01D04EB927E01678DBB2F7
:1084E000861BF6B29E4256EA838351EA85850131A6
:1084F00002F588720429EBD1E9B2032900F2AE80BB
:108500000A0152FA85F20BEB0212927A032A0ED07C
:10851000A4E055F80C0C38608CE741F804ACC1F8C5
:1085200000900D71FB2286E7FA2284E70D460423B2
:1085300057F8042C32B1013B07F10C074FF0FF0252
:10854000F6D178E701EB01113D7147F804ACC7F8AB
:1085500000900BEB011B0121CDF800B0B8F1FF0F2B
:108560000BF80A1F0BF106068BF80400304628BFF3
:108570004FF0FF08214642460FF0B8FD41F2F409E2
:1085800041F23414C2F20029C2F200244FF0000A72
:1085900006F808A04E46306830B10AF1010A0436E8
:1085A000BAF1040FF7D13DE02E201DF0FBFA98B38D
:1085B00047F630480446C0F20228F7F75DFE10F493
:1085C0007C4F05D082B2204641461DF033F900E0D1
:1085D000F820C0B2F828F0D0D8B948F2796100226A
:1085E000C0F2002120465FFA8AF81DF0F0FA41F24D
:1085F000F0003460C2F2002041F23414B8F1040FEC
:10860000C2F2002480F800A0009880F80FA020D2C9
:1086100029E020461DF0DEFA41F234140020C2F2B7
:108620000024306041F2F0000022C2F2002000235A
:1086300001784E1CF6B2032E52EA8191CEB259F85F
:1086400026606EB9032B03F10103F2D300990420D5
:10865000C87300208BF8000047F8040CFF22EAE6FC
:1086600001700098C173207801302070E8B2FFF7E4
:10867000FBFD57E7704700002DE9F04F89B01089E6
:108680009246102821D31E4606A90C2200235046EC
:108690000BF0B4FF0C2818D1BDF8180041F24011BE
:1086A000C2F2002101F1100706F0BAFA002500BF5E
:1086B00017F8061C022903D137F8081C81420AD09A
:1086C000013507F58877042DF2D150460BF0FCFFF9
:1086D00009B0BDE8F08FBDF81C0006F0A1FABDF8A6
:1086E0001E108146084606F09BFA9DF91A10B1F15A
:1086F000FF3FEADCB9F1010FE7D1804617F8050C1E
:1087000041F23811C2F2002151F820003168814253
:10871000DBD10C263C46B1B250460CF093FA00284F
:10872000D3D400F0C001C029CFD006F10101B0B10F
:1087300004EB000B461C00BF894689B250460CF082
:1087400081FA0028C1D42178C0B28142BDD1013E56
:108750000134012E09F10101EEDC5C4600E0B14676
:108760000E4689B250460CF06DFA0028ADD404F1E3
:108770000104D0D14FF6FF7B09F1020083B25B45C3
:10878000A3D002A9042250460BF038FF04289CD144
:10879000BDF80A00B0F5807F97D1BDF80800B0F5AC
:1087A000807F92D19DF81B00000759D1B8F1000FCE
:1087B00056D009F106060DF10C090024BAF808009C
:1087C000B1B281424CD2B1B250460CF03BFA002813
:1087D0003FF57BAF00F0C0010136C0290ED0BAF8DA
:1087E000081010FA86F68E42BFF46FAFB1B2504651
:1087F0000CF028FA00283FF568AFE4D1701C83B272
:108800005B453FF462AF0A22504649460BF0F6FE44
:108810000A287FF45AAFBDF80E000B36B0F5807F02
:108820000AD1BDF80C10BDF81400B1F5807F05D158
:10883000B0F5806F02D11EE0BDF8140006F0F0F92B
:1088400010FA86F0B4EB104F7FF43FAFBDF8140080
:1088500006F0E6F9A8F1010806445FEA0841ADD147
:1088600050460BF031FFE8B200210024FFF7AAFCCC
:1088700007F8064C2CE7B3B201A9042250460BF0CE
:10888000BDFE04287FF421AF019847F80C0C504638
:108890000BF01AFF049806F0C1F90146E8B2FFF7A1
:1088A0008DFD15E72DE9F04F85B0044600EB001073
:1088B00041F24011C2F2002101EB0019CA461AF838
:1088C0000B0F02280CD34BA00FF04EFA4AF22700F0
:1088D00040F2FB21C0F2022018F038FA9AF80000AA
:1088E00041F23811C2F2002151F82000002874D062
:1088F00009F110052846F7F7A8FE1230002281B2D0
:10890000002000240BF0EAFB00286ED08346B9F863
:108910000800ADF81240CDF80E40CDF80A4006F040
:108920007FF9ADF8080001208DF80A004FF480703F
:10893000ADF80C0002A90C2258460C260CF0BAF82F
:10894000013D00BF6F1C4FF0000800243D4600BFF2
:10895000287838B12E2805D00134013508F10108F6
:10896000F6E700BFB1B25846E2B20BF0D5FF0136D0
:108970001FFA88F2B3B2584639460CF031F928781C
:1089800056FA84F608B12FF023C8B1B20022584637
:108990000BF0C2FF701C4FF00121019183B201A9BD
:1089A000042258460CF01CF999F80F009AF80010B0
:1089B00041F2F40341F23812C2F20023C2F2002263
:1089C00002EB8102594653F8200035231DF021F9AE
:1089D000054658460BF078FE08E0002120460025A9
:1089E000FFF7F0FB89F80A5000E0FF2568B205B0F8
:1089F000BDE8F08F646E7320736572766572206FC8
:108A00007574206F662061727261790070B50128FB
:108A10001ED804460D46E1B14BF6F0202968C2F29B
:108A20000020066841F23810C2F20020002E40F803
:108A3000241008BF70BD00BF06F142000AF04EF8D6
:108A400021462A460AF0B2FB36680EB12FF00DC05F
:108A500070BD47F6304041F23811C0F20220C2F238
:108A60000021006841F8240070BD0000B0B5002569
:108A7000ECB22046FFF7F8FB032C05F10105F7D314
:108A8000B0BD0000F0B581B00C46890705460AD09C
:108A900011A00FF069F94AF2E14040F29D11C0F2D5
:108AA000022018F053F9A4F11C0618F0C4F9074687
:108AB0003046294608F09AF93046294608F0C2F9AE
:108AC000E868016844F81C1C0660384601B0BDE83F
:108AD000F04018F0E9B900BF6D656D705F667265B2
:108AE000653A206D656D2070726F7065726C7920CB
:108AF000616C69676E6564002DE9F04190460F4630
:108B0000064618F098F9F16805460C6814B320463B
:108B1000314608F06BF92046314608F093F9F068C9
:108B20002168016000202060A007C4E901780AD014
:108B30000BA00FF019F94AF2E14040F24911C0F2DE
:108B4000022018F003F9284618F0AEF904F11C00D1
:108B5000BDE8F081284618F0A7F90020BDE8F081B3
:108B60006D656D705F6D616C6C6F633A206D656DE6
:108B7000702070726F7065726C7920616C69676EBD
:108B80006564000043F60040C4F20000818C21F4CB
:108B9000E061818490F8501009B12FF005C8818CF4
:108BA00041F0200121F0D001818400BF90F85010E5
:108BB00009B12FF005C8818C41F0050121F00A01AF
:108BC000818400BF90F8501009B12FF005C890F8CB
:108BD000201041F0010180F8201000BF90F85010E3
:108BE0000907FBD4017801F0CF010170817841F0D1
:108BF00001018170417801F0FE01417090F8501040
:108C000009B12FF005C84FF40C71A0F8481000BF4F
:108C100090F85010C907FBD1416C052262F3124154
:108C20004164416C022262F30D314164416C62F394
:108C30004B214164416C032241F480714164416CD9
:108C400062F30201416490F84010072201F0FC0138
:108C5000013180F84010818A62F31F318182818A5C
:108C600001F4704101F56A718182817D41F0010159
:108C70008175017841F0010101707047F0B581B054
:108C800004460D4668B949F6AF60C0F202200FF005
:108C90006BF849F6BC604FF4C271C0F2022018F0C4
:108CA00055F80020A0606768606018F0C4F8042FD1
:108CB00007D194F90C10002511F10C0FA8BF2573F2
:108CC00000E0257318F0F0F8E36B7BB1042100227B
:108CD00020469847E36B4BB100210022204698477D
:108CE000E36B1BB1022100222046984704F11406D1
:108CF000304618F07CF918B10021304618F06FF9B1
:108D000004F11806304618F072F918B10021304607
:108D100018F065F9042F42D80120B84010F01A0F5E
:108D20003DD094F83000410700F0FB0084F830009B
:108D300045D4A06B70B949F69560C0F202200FF0DF
:108D400013F849F6BC6040F2B311C0F2022017F0EC
:108D5000FDFFA06B0168057101F11006304618F0A7
:108D600021FA50B917A00EF0FFFF49F6BC604FF48E
:108D7000DB71C0F2022017F0E9FF0020A06318F0B9
:108D80005AF894F90C1011F10C0FA8BF257318F0C4
:108D90008BF8304601B0BDE8F04018F000BAA06B87
:108DA00068B10FA00EF0E0FF49F6BC6040F2BD11C3
:108DB000C0F2022001B0BDE8F04017F0C7BF01B01B
:108DC000F0BD00BF696E61766C6964206F705F638F
:108DD0006F6D706C657465645F73656D0000000095
:108DE000636F6E6E2D3E63757272656E745F6D7328
:108DF00067203D3D204E554C4C000000411EC9B23D
:108E0000EF2901D20C20704747F2D841C0F202216D
:108E1000A1EB80000068704770B582B0846C054695
:108E20002046FFF7FBF82046FDF729FE20460AF012
:108E3000E0FF20460AF02CFF44B94AF6245011A165
:108E4000C0F2022040F2AB120DF078FB0DF10506E6
:108E500004F142010222304611F0D6FD304609F0FD
:108E60003DFE06460AF0BCFD30460EF043F92846AA
:108E70000DF065FD28460DF02BFF20460EF03AF967
:108E800002B070BD6E65746465765F64656C0000E9
:108E90002A2200F001B80000F0B587B00F46054661
:108EA00001205C2114460DF087FB002848D00646BF
:108EB000A8640220A861032228463946A5F84C4040
:108EC000002485F84E4085F850400DF0C4FE3878F7
:108ED00006F13B0286F842000121787886F84300CB
:108EE000062086F83A0040F2DC50308749F61970C7
:108EF000C0F20020B06128460DF05CFD3A7814A164
:108F00007B7806F14C07384611F0F2FC15A0776328
:108F100011F0E0FFC8B145F2A56048F68577C0F2D0
:108F20000220C0F2002706A905AA04ABCDE9017012
:108F300030460694CDE9044400950BF04EF804E069
:108F40000AA00EF011FF6FF0FE04204607B0F0BD3E
:108F500072747468726561645F25303278253032CE
:108F60007800000074637069700000006D616C6CC3
:108F70006F63206E65746966206661696C65640A5A
:108F800000000000F0B581B0456AD5B3044600206A
:108F90008DF80200ADF80000012048210DF00CFB17
:108FA00030B3064616F0EEFB6F4604F14201022292
:108FB000384611F029FD3046394622460AF0B0FA0B
:108FC000204609F0FDFC47F6884094F83A20C0F2AC
:108FD0000220706306F1250004F13B0186F824208D
:108FE0000FF084F860683061E068B061A06870617B
:108FF00028460DF00FFD20B9032128460DF042FD53
:1090000018B1F42040B201B0F0BD95F84C0040F228
:10901000DC5184F841004BF6EC20C2F2002021879D
:109020000068002849F2A170C0F20020606102D1FE
:10903000A86C0AF0D8FEA86C0AF08AFFA86CFEF7AC
:109040006DFFB5F84C00C00502D5A86C0AF04CFFC6
:10905000204609F0B5FC0020D4E7000082B041F2C0
:10906000146443F6B96A43F6E96BC2F2002401AD19
:109070004FF00009C0F2012AC0F2012B0FF288085C
:1090800026A700BF4FF0FF32204629460FF00EF80A
:1090900040B140460EF068FE4FF46E71384617F04E
:1090A00055FEEFE7019890F84E0080B1F7F7FEF813
:1090B000019991F84F6081F84E90F7F7FBF801980D
:1090C000002E5AEA0B810022806C0AF0A7FFF7F706
:1090D000EDF8019981F85090F7F7ECF80198416D9F
:1090E00009B92FF031C8884708B92FF035C80646AE
:1090F0000198816C30460A69904708B92FF013C077
:1091000030460BF0E1FAE9E753686F756C64206E46
:109110006F742068617070656E210A0072742D741E
:1091200068726561642F636F6D706F6E656E7473C6
:109130002F6E65742F6C7769702F706F72742F6546
:10914000746865726E657469662E630010B584B0CC
:1091500041F2146041F24862C2F2002051A1C2F211
:1091600000220823002400940EF064FF58B14AF650
:10917000F4404AF60551C0F20220C0F2022140F24A
:10918000D1320DF0DBF941F268610C20C2F200210E
:109190004FF48062CDE9001249F25D02029041F283
:1091A0008050C2F2002041A1C0F20022002310240E
:1091B000039411F0BFFE58B14AF6F4404AF6055147
:1091C000C0F20220C0F2022140F2D6320DF0B6F910
:1091D00041F28050C2F2002012F042F858B14AF633
:1091E000F4404AF60551C0F20220C0F202214FF4C9
:1091F00076720DF0A3F941F6FC2041F63032C2F24E
:1092000000202BA1C2F200220823002400940EF0BB
:1092100011FF58B14AF6F4404AF60551C0F2022057
:10922000C0F2022140F2E1320DF088F941F65031EE
:109230000C20C2F200214FF48062CDE9001249F205
:10924000BD22029041F66820C2F200201AA1C0F2AD
:10925000002200231024039411F06CFE58B14AF64A
:10926000F4404AF60551C0F20220C0F2022140F259
:10927000E6320DF063F941F66820C2F2002011F0E9
:10928000EFFF044658B14AF6F4404AF60551C0F2E1
:109290000220C0F2022140F2E9320DF04FF92046DF
:1092A00004B010BD6572786D6200000065727800D0
:1092B0006574786D620000006574780082B041F6D4
:1092C000FC244AF64057C2F2002401AD0FF25808C0
:1092D000C0F202271AA600BF4FF0FF3220462946EF
:1092E0000EF0E4FE08B12FF009C80199086830B902
:1092F00040F26D32404639460DF020F90199486838
:1093000030B940F26E32304639460DF017F9019906
:109310000868406A18B1826D49689047019901F167
:1093200008000DF059F9D7E76D73672D3E6E65742F
:10933000696620213D2052545F4E554C4C00000080
:109340006D73672D3E62756620213D2052545F4E3D
:10935000554C4C0070B540F6EC2604460025C2F290
:10936000002600BF307D28B1B068A04202D1284657
:1093700000F0F0F8013518360A2DF3D170BD000069
:109380002DE9F04F81B040F6EC220446C2F20022F3
:109390004FF00A0E02F11203002200264FF0000CDB
:1093A0004FF0000A0A274FF00A0B4FF00A0900BFDE
:1093B0009878FDB20A2D08BF002815D030B32CB123
:1093C00053F80E5CD4F80080A8452DD001280DD1AB
:1093D00053F8125C18888DB11FFA8AF5A8425EEA2C
:1093E000328E50EA858A11E017460FE01888B5B230
:1093F000A8425BEA328B50EA858607E01FFA8CF5BB
:10940000A84259EA328950EA858C00BF01321833EC
:109410000A2ACDD1880704D4C80707D1F8B20A2890
:1094200004D14FF0FF096EE091466CE078B2092854
:1094300006DC40F6EC26FDB2B946C2F200263AE060
:109440004FFA8BF040F6EC260928C2F2002614DC15
:109450005FFA8BF0400050FA8BF056F8300050B1B4
:109460002BA00EF081FC4AF24B2040F26F11C0F2AB
:10947000022017F06BFCD94608E04FFA89F00A2861
:1094800004DB4FFA8EF0F1460928CADC5FFA89F551
:109490000A2D0DD34AF22920C0F202200EF064FCFE
:1094A0004AF24B2040F28111C0F2022017F04EFC2C
:1094B000284600F04FF85FFA89F00A280DD34AF2E7
:1094C0002920C0F202200EF04FFC4AF24B2040F25D
:1094D0008511C0F2022017F039FC05EB450006EBC0
:1094E000C005287D50B110A00EF03EFC4AF24B2082
:1094F00040F28711C0F2022017F028FC0CB120685E
:109500006860002068824FFA89F001B0BDE8F08FF2
:109510006172705F7461626C655B695D2E71203D84
:109520003D204E554C4C00006172705F7461626C5E
:10953000655B695D2E7374617465203D3D20455403
:10954000484152505F53544154455F454D50545922
:10955000000000002DE9F04140F6EC2100EB400056
:10956000C2F2002101EBC00851F8304044B36068FA
:1095700048B916A00EF0F8FB4AF24B209821C0F231
:10958000022017F0E3FB4AF24B2614A5C0F2022694
:109590006068276838B928460EF0E6FB9C21304603
:1095A00017F0D4FB60680BF08FF80920214607F014
:1095B00087FB3C460FB12FF015C80020C8F800000B
:1095C000002088F81400BDE8F08100BF712D3E70C6
:1095D00020213D204E554C4C00000000722D3E7065
:1095E00020213D204E554C4C000000002DE9F04F4D
:1095F00087B0002900F0A680466804463088B0F5A0
:10960000807F40F099803079062840F0958070790D
:10961000042840F091807088082840F08D800D4625
:1096200006F10E0106A804220EF060FD06F11801F5
:1096300005A804220EF05AFDAB46059A06F108096A
:109640005BF8040F00285FEA1F9182425FEA0F90E7
:109650009BF83620084304904FF0010050EA009731
:10966000062A0AD045A00EF07FFB4AF24B2040F2BA
:10967000AB11C0F2022017F069FB0698002844D015
:10968000294602F063F900283FD1069800F0F00067
:10969000E0283AD006A83946FFF772FE002834D4F5
:1096A000C1B240F6EC2A4900C2F2002A51FA80F712
:1096B0000220062249460AEBC70888F8140008F180
:1096C0000C00C8F808500EF011FD5AF837100020B1
:1096D000A8F81200C9B105F13B0AD1E90007C8F8A2
:1096E0000000092007F0ECFA4FF4006000902846D3
:1096F000394652464B4600F0A1FB38460AF0E4FFDB
:10970000D8F8001009B12FF019C0F088B0F5007F2B
:1097100029D0B0F5807F2AD1049840BB05F13B01E8
:10972000022006AACDE9022028464A460B46CDE98A
:1097300000B900F03DFA1AE0204607B0BDE8F04F4E
:109740000AF0C2BF4AF29E00C0F202200EF00CFBEB
:109750004AF24B204FF42271C0F2022007B0BDE85C
:10976000F04F17F0F3BA06A92846FDF765F8204632
:109770000AF0AAFF07B0BDE8F08F00BF6E657469FC
:10978000662D3E6877616464725F6C656E203D3D56
:10979000204554485F4857414444525F4C454E0071
:1097A00070B584B0054616460C4668B94AF29E006C
:1097B000C0F202200EF0D8FA4AF24B2040F21B31E0
:1097C000C0F2022017F0C2FA54B945A00EF0CCFA4C
:1097D0004AF24B204FF44771C0F2022017F0B6FA5C
:1097E0006EB94AF23C20C0F202200EF0BDFA4AF2F5
:1097F0004B2040F21D31C0F2022017F0A7FA30686A
:10980000294602F0A3F820B147F21C53C0F202230C
:1098100015E0306800F0F001E0291CD10123ADF81B
:1098200008305E238DF80A3002AB010E020CC0F343
:1098300006208DF80B008DF80C208DF80D1005F129
:109840003B024FF4006000902846214600F0F6FAF3
:1098500040B204B070BDD5E901124140114208D0B8
:109860004FF6A96182B28A4203D02E4656F80C0FF9
:1098700048B341F6507C40F6EC2EC2F2002CC2F206
:10988000002E9CF8002002EB42010EEBC1010B7D83
:10989000012B02D9496888421AD00EF11402002324
:1098A0001178022903D352F8101C88420DD00133DD
:1098B00018320A2BF4D128463146224604B0BDE8BE
:1098C000704000F087B8FC20C2E7DAB28CF80030B4
:1098D0002846214604B0BDE8704000F007B800BF3C
:1098E0007120213D204E554C4C000000F0B585B054
:1098F00002EB420240F6EC23C2F200230C4603EBDB
:10990000C2060546374617F8142F012A0BD825A0A2
:109910000EF02AFA4AF24B2040F2ED21C0F202206A
:1099200017F014FA3A78022A2ED1708AB0F58E7F99
:1099300010D947F222532A1DC0F20223CDE9002399
:1099400047F21C52301D05F13B014FF0010CC0F2F3
:10995000022210E0B0F5877F16D3301D06F10C020D
:1099600005F13B014FF0010C47F2225E2B1DC0F2C6
:10997000022ECDE9003ECDE9020C28460B4600F050
:1099800017F908B90320387005F13B0206F10C0302
:109990004FF4006000902846214600F04FFA05B0D1
:1099A000F0BD00BF6172705F7461626C655B617273
:1099B000705F6964785D2E7374617465203E3D202C
:1099C0004554484152505F53544154455F535441AC
:1099D000424C45002DE9F04F85B005460E4608681B
:1099E0002946144601F0B2FF20B1F02040B205B084
:1099F000BDE8F08F3168F0200029F7D001F0F001C8
:109A0000E029F3D001213046FFF7BAFC07460028D1
:109A100016D45FFA87FA40F6EC2B4FEA4A00C2F2FE
:109A2000002B50FA87F005F13B080BEBC000814694
:109A300019F8141F31B1002C5BD00490FF2020E0F6
:109A40003846D3E704900AEB4A0047F2225201213C
:109A50000BEBC000C0F2022289F80010434685607B
:109A6000281DCDE9000247F21C52C0F20222CDE9C6
:109A700002612846414600F09BF8002CB6D099F8C8
:109A80000010022913D30AEB4A0041F65071C2F2CA
:109A9000002142460BEBC0000F7000F10C034FF4A5
:109AA000006000902846214600F0C8F99FE7012990
:109AB0009CD14AF24B2637A5C0F20226274600BFAA
:109AC00038897989814209D1386838B128460EF041
:109AD0004BF94FF47B71304617F038F9387B012889
:109AE0001BD13F680FB12FF015C820460AF0BEFF0A
:109AF00021E047F22252281DC0F20222CDE90002E5
:109B000047F21C520121C0F20222CDE9026128462F
:109B10004146434600F04CF869E7398902200022AB
:109B20000AF0DCFA80B3214605460AF0ADFC08B124
:109B3000284627E02C464AF24B210920C0F2022198
:109B400040F2074207F028F9D8B1049F0021C0E98C
:109B500000143D68D5B100212B461A461B6801F15F
:109B600001010BB12FF007C8032910600FD3D5E90D
:109B7000001039600AF0A8FD0920294607F0A0F876
:109B800005E020460AF0A0FDFF202FE73860002006
:109B90002CE700BF6E6F207061636B657420717578
:109BA0006575657320616C6C6F77656421000000DA
:109BB0002DE9F04F81B005461C4690460E4668B927
:109BC0004AF29E00C0F202200EF0CEF84AF24B207C
:109BD0004FF48B61C0F2022017F0B8F802201C216C
:109BE00000220AF07BFA00285BD007464089DDF8A6
:109BF00034901B280AD82DA00EF0B6F84AF24B205C
:109C000040F26441C0F2022017F0A0F84846DDF8A7
:109C10002CB0D7F804A005F003F895F83A10AAF88C
:109C2000060006290DD04AF2E810C0F202200EF01C
:109C30009BF84AF24B2040F26B41C0F2022017F031
:109C400085F80AF10800062221460EF04FFA0AF1C3
:109C50001200062259460EF049FA0AF10E000422BB
:109C60000A990EF043FA0AF1180004220C990EF03A
:109C70003DFA40F200103946C0F20800CAF8000070
:109C800040F20640AAF8040040F60600009028467C
:109C90003246434600F0D2F838460AF015FD00205F
:109CA00000E0FF2040B201B0BDE8F08F636865635B
:109CB0006B207468617420666972737420706275B9
:109CC000662063616E20686F6C64207374727563C4
:109CD00074206574686172705F68647200000000CF
:109CE00080B584B047F2225E00F13B03021DC0F252
:109CF000022ECDE9002E47F21C524FF0010CC0F2AB
:109D00000222CDE9021C1946FFF752FF04B080BDC4
:109D10002DE9F04784B040F6EC2047F22259C2F218
:109D2000002047F21C5500F1140600244FF00108F2
:109D3000C0F20229C0F2022502274FF0040A00BF38
:109D4000307878B136F8021C4A1C26F8022C91B201
:109D50008B084A2B03D8012809D1052907D32046AF
:109D6000FFF7F8FB013418360A2CE9D11AE0012874
:109D700006D0042814D00328F4D186F800A0F1E717
:109D800056F80C0CA6F1100200F13B01031DCDE9C1
:109D900000390B46CDE902282A46FFF709FFE1E723
:109DA0003770DFE704B0BDE8F08770B5044640893E
:109DB0000F2838D360680D4601788689CA0714D009
:109DC000012906D1417881B980785E280DD1102013
:109DD00008E047F21C510622C0F20221F6F7DAFB36
:109DE00018B90820617B08436073B6F5C16F10D0C5
:109DF000082E18D195F84100000714D56FF00D0119
:109E000020460AF0EFFC70B92046294601F0B4FD67
:109E10000CE095F84100000705D56FF00D012046D4
:109E20000AF0E0FC20B120460AF04EFC002070BD94
:109E300020462946FFF7DAFBF8E700002DE9F0435A
:109E400081B005460898994690460C4604F0E8FE15
:109E500006460E2120460AF0C5FC20B16FF0010035
:109E600001B0BDE8F0836768062238464946BE81E6
:109E70000EF03CF9B81D062241460EF037F995F870
:109E80003A00062807D007A00DF06EFF12A04FF48D
:109E9000967116F05BFFAA692846214601B0BDE81D
:109EA000F04310476E657469662D3E68776164649F
:109EB000725F6C656E206D7573742062652036204C
:109EC000666F722065746865726E65745F6F757415
:109ED000707574210000000072742D7468726561E1
:109EE000642F636F6D706F6E656E74732F6E657423
:109EF0002F6C7769702F6C7769702D322E302E336E
:109F00002F7372632F6E657469662F65746865724E
:109F10006E65742E63000000B0B586B005460C4631
:109F200028B90FA013A140F2B9120CF007FB01955C
:109F300001AD029405F1080420460CF07FFB41F6C8
:109F4000FC202946C2F200200EF0B6F820B94FF0EE
:109F5000FF3120460CF092FB002006B0B0BD00BFE0
:109F60006E6574696620213D2052545F4E554C4CFD
:109F70000000000065746865726E657469665F6CE8
:109F8000696E6B6F75747075740000002DE9F04F89
:109F900081B048B3C66904460D46B6F1FF3F07DC01
:109FA00016F049FFE669B6F1FF3F20DD16F07CFFB1
:109FB000072E15D84FF2C4477001C2F20027385857
:109FC00070B116F038FF042D044615D8DFE805F00F
:109FD0000320262A2F0007EB4610418901311BE0A0
:109FE000F6F714FA1021016001B0BDE8F08F002DE2
:109FF0007ED1711EE1617BE040A00DF0B5FE49F617
:10A00000887040F27661C0F2022016F09FFE12E0E6
:10A0100007EB46104189013941810CE007EB4610FE
:10A02000012102E007EB46100021818103E007EBEC
:10A0300046100121C18107EB4610417C002956D012
:10A040004FF24C4B012100F10A0700F10C0A00F11C
:10A050000E05C2F2002BB14000914FF25048C2F2FF
:10A06000002800BFD8F80080B8F1000F3FD0DBF81F
:10A070000090D8F8140078BBB7F90000012809DB7C
:10A08000D8F8080030B10078009901425FEA0F90DB
:10A0900001E000BF002048B9BAF8001031B1D8F88B
:10A0A0000C0040B10078F04000F0010008B92988A8
:10A0B00019B948B910E0288870B1D8F8100058B123
:10A0C00000780099014207D00120C8F8140008F177
:10A0D000180017F064F800BF204616F0E5FE16F0F1
:10A0E000AAFEDBF8001004468945BBD0B5E7204640
:10A0F00001B0BDE8F04F16F0D7BE00BF756E6B6EB5
:10A100006F776E206576656E7400000070B500286C
:10A1100054D0C56904460E46B5F1FF3F07DC16F082
:10A120008AFEE569B5F1FF3F14DD16F0BDFE284655
:10A1300006F090FD002841D0044616F07CFE042E67
:10A1400005460ED8DFE806F00315191B1E006089CE
:10A15000013010E00EB9691EE161BDE8704016F0F3
:10A16000A3BE18A00DF000FE1AA0952116F0EEFD7A
:10A170000AE060890138608106E0012000E00020EB
:10A18000A08101E00120E081606818B9B4F90A00FB
:10A19000012814DB0126A089E1890028284618BF80
:10A1A0000236002918BF043616F07EFE36B104F1DF
:10A1B00014003146BDE8704014F0E0BE70BD0026CA
:10A1C000E9E700BF756E6B6E6F776E206576656E22
:10A1D0007400000072742D7468726561642F636F7F
:10A1E0006D706F6E656E74732F6E65742F73616C16
:10A1F0002F696D706C2F61665F696E65745F6C7737
:10A2000069702E630000000040F234710246C2F211
:10A2100000210846114600F05DB840B14FF6FD51EF
:10A22000018001210022C0E90212C0E90422704726
:10A2300040F23470C2F2002000F06CB840F2347189
:10A240000246C2F200210846114600F0BBB80000E9
:10A2500010B50468042C07DB4268032152F8213052
:10A2600073B101318C42F9D1032CD8BF03242146AC
:10A2700000F008F8B0F1FF3FD8BF4FF0FF3421469F
:10A28000084610BD2DE9F041054600680C4688429D
:10A290001DD80F2C19DC24F00300071D102FA8BFB8
:10A2A00010274FEA8708686841460FF057F860B1F9
:10A2B00029680646B94205DA06EB8100A8EB810160
:10A2C000F6F7DAFAC5E9007601E04FF0FF342046F0
:10A2D000BDE8F081B0B5002918D4054600680C46E9
:10A2E000884213DDFBF7A2FB686850F824000024C5
:10A2F00028B101884FF6FD52914250EA048441F69C
:10A30000A470C2F200200EF07BFC00E00024204686
:10A31000B0BD000070B50546FBF788FB2846FFF787
:10A3200097FF002810D404460120182101260CF0C4
:10A3300043F948B16A6886604FF6FD5101800021FB
:10A34000016142F824000AE009A00DF00DFD0CA007
:10A350000DF00AFD19A00DF007FD4FF0FF3441F696
:10A36000A470C2F200200EF04BFC204670BD00BF6E
:10A370001B5B33316D5B452F4446535D200000006D
:10A38000444653206664206E6577206973206661B9
:10A39000696C65642120436F756C64206E6F742056
:10A3A000666F756E6420616E20656D7074792066CD
:10A3B0006420656E7472792E000000001B5B306DA6
:10A3C0000A000000B0B504460D4640B949F2A32189
:10A3D0001EA0C0F202214FF4A6720CF0AFF8FBF7FA
:10A3E00025FB002D29D42068A84226D9606850F8A2
:10A3F000254014B321884FF6FD5291424FF00001E1
:10A4000040F8251008D049F2A32113A0C0F2022180
:10A4100040F25F120CF092F8A0680138A0600CD1F5
:10A42000206938B1C1680139C16003D10CF062FE06
:10A430000020206120460CF05DFE41F6A470C2F2BF
:10A440000020BDE8B0400EF0DBBB00BF66647420A6
:10A45000213D204E554C4C0066645F736C6F742D2B
:10A460003E6D61676963203D3D204446535F46442D
:10A470005F4D414749430000B0B54FF25840C2F22A
:10A480000020006890F82800800706D442F22400DB
:10A490000021C2F20020017029E042F2A80042F23D
:10A4A0002404C2F20020C2F20024016839B142F251
:10A4B00024008022C2F20020F6F705FA06E047F2F7
:10A4C0006D310020C2F2680120712160204610F039
:10A4D00077FA2518204610F073FAC0F1800128465B
:10A4E00000F0A5FB2046F6F7B0F83E21215242F2DB
:10A4F0002400C2F20020B0BD70B582B04FF25846C1
:10A500000021C2F200268DF80710306840B949F2E8
:10A51000EC2019A1C0F20220A4220CF00FF8306840
:10A52000D0F8144224B30DF107024FF0FF3101239C
:10A5300020460CF052FB012817D00DF1070500BF93
:10A5400030684FF0FF310FF080FB3068D0F8140214
:10A55000A04201D0044658B14FF0FF3101232046FC
:10A560002A460CF03AFB0128EAD19DF8070001E0E9
:10A570004FF0FF3002B070BD66696E73685F67654B
:10A58000746368617200000010B54FF25844C2F263
:10A590000024206840B949F2EC2005A1C0F2022055
:10A5A000C3220BF0CBFF20680FF000FB002010BD92
:10A5B00066696E73685F72785F696E6400000000A0
:10A5C00070B54FF258460546C2F20026316839B9D7
:10A5D00049F2EC201FA1C0F20220D6220BF0AEFF00
:10A5E00028460CF014FA68B304463068D0F8140218
:10A5F00084422DD040F2431120460CF043FA00284B
:10A6000018BF70BD3168D1F8140240B10CF097F951
:10A6100030680021D0F814020CF035FB316801F5E8
:10A62000DF700021512200250EF0A8F830684AF2B0
:10A630008951C0F20021C0E984542046BDE8704031
:10A640000CF021BB08A02946BDE870400DF08CBB82
:10A6500070BD00BF66696E73685F7365745F646523
:10A66000766963650000000066696E73683A20636E
:10A67000616E206E6F742066696E64206465766911
:10A6800063653A2025730A00B0B54FF25845044679
:10A69000C2F20025296841B949F2EC2008A1C0F2B4
:10A6A000022090220BF04AFF296891F8280004F05C
:10A6B000010200F0FD0040EA420081F82800B0BD30
:10A6C00066696E73685F7365745F70726F6D7074C6
:10A6D0005F6D6F646500000070B582B040F63800B1
:10A6E00040F63C02C2F200204BF26461C2F200224A
:10A6F000C0F202214BF62403016001204FF40671E1
:10A70000C0F2022313600BF057FF4FF25846C2F21B
:10A7100000263060F0B14AF28D711420009011A033
:10A72000C0F2002100224FF480530A250195002435
:10A7300010F0A5FA054630680CA1002200230FF0A6
:10A74000F7F90120FFF7A0FF4DB1284610F088FD72
:10A75000002404E007A00DF007FB4FF0FF34204673
:10A7600002B070BD747368656C6C000073687278B9
:10A77000000000006E6F206D656D6F727920666F4E
:10A7800072207368656C6C0A000000004FF2584933
:10A79000C2F20029D9F8000090F82810D0F814224D
:10A7A00041F0010180F8281022B90CF0A3F808B19B
:10A7B000FFF706FFFFF760FE42F2240AC2F2002A0A
:10A7C00050460DF0D1FA49F2EA2601270025C0F2E1
:10A7D000022600BFFFF790FE0028FBD480461B280E
:10A7E000D9F800B002D1CBF82470F3E7DBF82400ED
:10A7F000022808D001281ED1B8F15B0F19D1022020
:10A80000CBF82400E6E7B8F1400FCBF8245026DD62
:10A81000A8F1410003281BD8DFE810F004009101E3
:10A820009A01B201BBF82A00002800F0D881013853
:10A83000B9E1CBF82450B8F17E0F09DCA8F108008B
:10A84000052800F28A80DFE800F04795148C8C140C
:10A85000B8F17F0F40D0B8F1FF0FBBD081E0A8F175
:10A860000800052800F27980DFE800F03684037BD9
:10A870007B03BBF81002BBF82C40002800F0D78007
:10A88000052CC0F0A8800BF5B7750BF5DF785022CA
:10A8900028464146F5F77EFE0028584600F0C8805D
:10A8A0000BF17E04042700BFA4F150005022214682
:10A8B0000DF01CFC013F04F15004F5D100215022A1
:10A8C00028460DF05BFFBBF81022284641460DF0EC
:10A8D0000DFC05240127A5E0BBF8120208B92FF0F2
:10A8E00087C8BBF81012013882B2ABF812020139E6
:10A8F000ABF810128BB2934240F2BF801BFA80F18A
:10A900009A1A01F5DF7001F2BF110DF019FFD9F8A5
:10A910000000B0F81012084480F8BE51D9F80000C9
:10A92000B0F81212084400F5DF71AFA00DF01CFA68
:10A93000D9F80000B0F81012B0F8120288423FF6C1
:10A9400049AF441E30460DF00FFAD9F8000001342B
:10A95000B0F810028442F5D33CE7B8F1000F3FF4A1
:10A9600039AFBBF81022502AC0F092800022ABF819
:10A970001022C0E0BBF8120250B1002430460DF0A6
:10A98000F3F9D9F800B00134BBF812028442F5D3D0
:10A9900049F2CF200BF5DF74C0F202200DF0E4F98C
:10A9A000204606F0A1FA204606F062FEFFF764FD9D
:10A9B00049F200305146C0F2022022460DF0D4F98F
:10A9C000D9F8004004F5DF70F5F73FFEA4F8100257
:10A9D000A4F81202FEE654B104EB84000BF5DF711B
:10A9E00050220BEB00102238F5F7D4FDF8B104EB40
:10A9F00084000BF12E050021502205EB0010ABF86E
:10AA00002A400DF0BBFEBBF82C00BBF810220BF562
:10AA1000DF7100EB800005EB00100DF067FBBBF869
:10AA20002C00441CD9F80000ABF82C4000E058463C
:10AA3000ABF82A4090F82810C90707D049F2CF2078
:10AA4000C0F202200DF090F9D9F80000B0F8101211
:10AA500000F5DF7006F0D2FBFFF70EFD50460DF05B
:10AA600083F9D9F80000002100F5DF7051220DF0C4
:10AA700085FED9F8000000255EE05AA00DF074F9BB
:10AA8000D9F80000B0F81012084480F8BE51A1E6D1
:10AA9000BBF812329A422ED90BEB0301D21A01F203
:10AAA000BF1001F5DF710DF04BFED9F80000B0F8D2
:10AAB0001212084480F8BE81D9F8000090F82810DE
:10AAC000C90709D0B0F81212084400F5DF7148A098
:10AAD0000DF04AF9D9F80000B0F81012B0F812429F
:10AAE0008C421BD230460DF03FF9D9F800000134FA
:10AAF000B0F81012F4E70BEB020080F8BE81D9F831
:10AB0000000090F82810C90708D049F2FD204146FE
:10AB1000C0F202200DF028F9D9F80000B0F81012A8
:10AB2000B0F812320131A0F810128AB2591C502A22
:10AB3000A0F81212FFF44EAEC0F810524AE6BBF86D
:10AB40002A10BBF82C20501E884229DD481C2AE020
:10AB5000BBF81012BBF812028842BFF43BAE584457
:10AB600090F8BE1149F2FD20C0F202200DF0FCF871
:10AB7000D9F80000B0F812120131A0F8121229E63B
:10AB8000BBF8120208B92FF0DBC930460DF0ECF823
:10AB9000D9F80000B0F812120139A0F8121219E623
:10ABA0000AB92FF0E9C981B2ABF82A008900502216
:10ABB00011FA80F10BF5DF700BEB01112E310DF066
:10ABC00095FAD9F8004004F5DF70F5F73EFDA4F8DA
:10ABD0001002A4F81202204615F016FAFAE5ABF8B6
:10ABE0002A50F7E5082008000825732020080000F7
:10ABF00025730000F0B581B00D4606464468002775
:10AC000047600781077416F016F9376016F04CF9A3
:10AC100034B1204635B101B0BDE8F04009F054BD73
:10AC200001B0F0BD01B0BDE8F04006F0D1BDB0B557
:10AC30000D460446FBF706FA3CB140F2BE11204631
:10AC4000C2F200212A460FF0DFFEFBF735FD204659
:10AC5000B0BD00000BA00DF087F800BF4FF481706D
:10AC600001210EF057FB4FF4FA7010F0A9F94FF4E0
:10AC7000817000210EF04EFB4FF4FA7010F0A0F935
:10AC8000ECE700BF0A48656C6C6F2052542D546885
:10AC900072656164210A00002DE9F04186B00E461C
:10ACA000074601202421002209F018FAE0B30446E7
:10ACB000408923280AD81EA00DF056F84AF28B20AE
:10ACC0004FF4B171C0F2022016F040F865687F6859
:10ACD00003201C22287005F1080039466E704FF0E1
:10ACE0000008C5F804800DF001FAF868059038698D
:10ACF000049005A804A901F097F890B1618906466F
:10AD00002846A5F8028000F05CFD6880012005AAB5
:10AD10000021FF23CDE901062046CDF8008000F098
:10AD20001FFF204609F0D0FC06B0BDE8F08100BF4F
:10AD3000636865636B2074686174206669727374FC
:10AD400020706275662063616E20686F6C64206994
:10AD5000636D70206D657373616765002DE9F04761
:10AD600084B042F21C543C23C2F200240646A5687B
:10AD70002A7803EA8207142F02D37089042805D2A7
:10AD8000304604B0BDE8F04709F09EBC706800781A
:10AD900008283FD16069894600F0F001E029EFD032
:10ADA000216800F0D3FD0028EAD130890828E7D3D4
:10ADB000304600F00DFD0028E2D107F110083046C2
:10ADC000414609F00FFD40B330890022384481B27A
:10ADD000022009F083F90028D2D08046408907F18B
:10ADE0000801814262D8D8F8040029463A460DF09D
:10ADF0007DF97942404609F0F5FC002851D02FA09A
:10AE00000CF0B2FF4AF28B20AF21C0F2022015F005
:10AE10009DFF4BE0B0464046B3E7C8F10001304625
:10AE200009F0E0FC50B133A00CF09EFF4AF28B20F9
:10AE3000C021C0F2022015F089FFA1E7B0464046CC
:10AE40003946D8F8046009F0CDFC0028E3D1D8F8E1
:10AE5000045054F8140F4FF6F7710823E860708817
:10AE600054F8042C2A61884253EA93914FF0000A67
:10AE700086F800A008447080FF20287228463946D2
:10AE8000A5F80AA000F09DFC688101200022FF23A4
:10AE9000CDE9010940462146CDF800A000F060FE52
:10AEA000B9E74046314609F0EFFA18B1404609F0DB
:10AEB0000BFC65E7304609F007FCC0E769636D707D
:10AEC0005F696E7075743A206D6F76696E67207277
:10AED0002D3E7061796C6F616420746F2069636DC1
:10AEE0007020686561646572206661696C65640ADA
:10AEF0000000000069636D705F696E7075743A20C0
:10AF0000726573746F72696E67206F726967696EBC
:10AF1000616C20702D3E7061796C6F616420666198
:10AF2000696C65640A00000042F248360025C2F2EE
:10AF3000002600BF56F8250000B180470135042DDA
:10AF4000F8D10FF0BEFE4FF0000508B92FF00FC08A
:10AF5000044600BF2046D4F88C700EF0FDF805467C
:10AF6000012802D120460DF0F7FF0FB12046B84767
:10AF70002DB9E06A0CF0BEF820460DF09DFF0FF0F1
:10AF8000A0FE044608B12FF01BC80025D2E770B51B
:10AF90000446407A0D46022807D0012817D160895F
:10AFA000013880B2A84238BF70BD032D4FF00106B2
:10AFB0004FF0010009D3F5F75FF990FBF5F101FBC4
:10AFC000150080B2002808BF01206081667270BD44
:10AFD00040F6E820E021C2F20020C0F2001101603A
:10AFE00040F6E420C2F2002001F180710160704758
:10AFF000F0B581B043890446072B07D965680F4631
:10B0000028461946164600F0DCFB28B1204601B060
:10B01000BDE8F04009F058BB07F12C01084600BF1D
:10B0200000680028F2D0336842689A42F8D12B7841
:10B03000162B12D0112BE9D140F6E823C2F20023DF
:10B040001B689A426A680FD1A2B1084600680028BE
:10B05000DCD041689142F9D108E0417A0129D5D18B
:10B060004FF400718160D1E7002ACFD06978FFF7F3
:10B070008EFFCBE7687808B90A2068700868002856
:10B08000C4D00668002EC1D069783046FFF77FFF34
:10B090003668F7E770B50C46096801F0F002E02A5F
:10B0A0000BD1054640F6E820C2F20020006881423C
:10B0B00012D14FF4E47425A002E040F2C71415A0A9
:10B0C0000CF052FE4AF2C9202146C0F2022015F0CF
:10B0D0003DFEFA2040B270BD4BF6F020C2F20020D7
:10B0E0000668002EF5D0FA2096F8411089060CD596
:10B0F00025B1296811B172688A4206D130462146CD
:10B1000000F03EF80028E5D100203668002EEBD193
:10B11000E0E700BF69676D705F6A6F696E67726FA5
:10B1200075703A20617474656D707420746F206A54
:10B130006F696E206E6F6E2D6D756C7469636173CF
:10B1400074206164647265737300000069676D70D8
:10B150005F6A6F696E67726F75703A2061747465AB
:10B160006D707420746F206A6F696E20616C6C73EF
:10B17000797374656D732061646472657373000024
:10B1800070B50E46096801F0F002E02A12D10546BA
:10B1900040F6E820C2F200200068814218D14AF24D
:10B1A0008330C0F202200CF0DFFD4AF2C9204FF4D8
:10B1B000F67106E024A00CF0D7FD4AF2C92040F257
:10B1C000EB11C0F2022015F0C1FDFA2040B270BDB3
:10B1D00095F84100800607D42AA00CF0C5FD4AF27C
:10B1E000C92040F2EF11ECE72846314600F088F91B
:10B1F00040B30446407A00BB207B28B9AB6C1BB13E
:10B20000012228463146984716222846214600F05A
:10B21000F1F9F5F731F846F26761C6F2666150FB65
:10B2200001F14A1002EBD17101EB8101401A0104D6
:10B2300008BF0120608101206072207B01302073F3
:10B240000020C3E7FF20C1E769676D705F6A6F691F
:10B250006E67726F75705F6E657469663A206174AF
:10B2600074656D707420746F206A6F696E206E6FE4
:10B270006E2D6D756C7469636173742061646472A2
:10B280006573730069676D705F6A6F696E67726F6F
:10B2900075705F6E657469663A20617474656D706F
:10B2A0007420746F206A6F696E206F6E206E6F6EEF
:10B2B0002D49474D50206E6574696600F0B581B028
:10B2C0000C46096801F0F002E02A0BD1054640F671
:10B2D000E820C2F200200068814213D14FF40A74C2
:10B2E00025A002E040F2272415A00CF03DFD4AF213
:10B2F000C9202146C0F2022015F028FDFA2778B2B5
:10B3000001B0F0BD4BF6F020C2F200200668002E1E
:10B31000F4D0FA2796F8410080060DD525B12868AB
:10B3200010B17168814207D13046214600F040F8E3
:10B33000F9B2002950EA11873668002EEAD1DEE71B
:10B3400069676D705F6C6561766567726F75703A7D
:10B3500020617474656D707420746F206C65617603
:10B3600065206E6F6E2D6D756C74696361737420EA
:10B37000616464726573730069676D705F6C6561A9
:10B38000766567726F75703A20617474656D70745C
:10B3900020746F206C6561766520616C6C737973C5
:10B3A00074656D73206164647265737300000000DE
:10B3B00070B50C46096801F0F002E02A12D105468A
:10B3C00040F6E820C2F200200068814212D14AF221
:10B3D0004830C0F202200CF0C7FC4AF2C92040F20B
:10B3E0004B2112E022A00CF0BFFC4AF2C92040F22F
:10B3F0004A210AE095F8410080060DD42CA00CF0FB
:10B40000B3FC4AF2C92040F24E21C0F2022015F0EE
:10B410009DFCFA2040B270BD05F12C00064600BF2D
:10B420003668002EF5D072688A42F9D1317B012945
:10B4300019D8016829B108460968B142FAD13168C2
:10B440000160307A20B117222846314600F0D2F848
:10B45000AB6C1BB100222846214698470A20314692
:10B4600005F02EFC01E0481E30730020D2E700BF3B
:10B4700069676D705F6C6561766567726F75705F27
:10B480006E657469663A20617474656D70742074B9
:10B490006F206C65617665206E6F6E2D6D756C74B6
:10B4A0006963617374206164647265737300000082
:10B4B00069676D705F6C6561766567726F75705FE7
:10B4C0006E657469663A20617474656D7074207479
:10B4D0006F206C65617665206F6E206E6F6E2D49F2
:10B4E000474D50206E657469660000002C3000BF27
:10B4F000006818B10A6843689342F9D170470000A8
:10B50000F0B581B005460E4655F82C7F4FB1306836
:10B510003C4600BF6168814243D024680CB12FF0E3
:10B5200007C84AF2C9210A20C0F2022140F20112E2
:10B5300005F032FC28B104464FF000001EB131681E
:10B5400002E000242DE00021C4E9011040F6E821CA
:10B55000C2F200212073306809688FB188420DD192
:10B560004AF20730C0F202200CF0FEFB4AF2C9207A
:10B5700040F21311C0F2022015F0E8FB38680EE02B
:10B5800088420AD008A00CF0EFFB4AF2C92040F232
:10B590000D11C0F2022015F0D9FB00202F462060CB
:10B5A0003C60204601B0F0BD69676D705F6C6F6FE5
:10B5B0006B75705F67726F75703A2066697273742D
:10B5C0002067726F7570206D7573742062652061DD
:10B5D0006C6C73797374656D7300000010B5C06A8C
:10B5E00038B104682CB105212046FFF7D0FC24684F
:10B5F000F8E710BD2DE9F04387B01646894680462E
:10B6000000200821002208F069FD002842D00446ED
:10B610004089072867680AD820A00CF0A5FB4AF2E9
:10B62000C92040F20231C0F2022015F08FFB4D46D6
:10B63000162ED8F80400059055F8040F786003D151
:10B64000012089F8080007E006F0FE0016281ED148
:10B6500040F6E425C2F20025082138463E70002657
:10B660007E707E8000F0ADF8788040F294400690C5
:10B67000042006AA0221CDE9006105A90123CDE934
:10B68000032020462A46CDF8088000F07FFA2046A5
:10B6900009F01AF807B0BDE8F08300BF69676D7064
:10B6A0005F73656E643A20636865636B20746861DC
:10B6B0007420666972737420706275662063616EAF
:10B6C00020686F6C64207374727563742069676D91
:10B6D000705F6D736700000010B540F6E821044606
:10B6E000C2F20021FFF70CFF88B1027BA36C4FF080
:10B6F0000201417202F10101017333B140F6E82108
:10B700000122C2F2002120469847002000E0FF20DD
:10B7100040B210BD70B50446C56A4FF00000E0624B
:10B720007DB100BFA36C2E681BB1291D00222046ED
:10B7300098470A20294605F0C3FA35460EB12FF086
:10B740000FC8002070BD0000F0B581B04BF6F020AE
:10B75000C2F2002004680CB340F6E8260227C2F2C9
:10B76000002600BFE56A00BFA5B1688980B1013835
:10B77000688101040CD1687A012809D130686968B0
:10B78000814205D01622204629466F72FFF732FF0C
:10B790002D68E9E724680CB12FF01DC001B0F0BDA1
:10B7A00010B502F037FD0446002808D4204605F005
:10B7B00051FA002100F11802C0E90512C2612046C9
:10B7C00010BD80B505F064F94FF6FF71484080BDAB
:10B7D000F0B581B0E0B104460026002567896068B5
:10B7E000B9B205F055F92844010C11FA80F517F0AB
:10B7F000010028BA18BF050C246818BFC6F101065D
:10B800000CB12FF015C830061CBF28BA050C00E09B
:10B810000025E84380B201B0F0BD00002DE9F043FF
:10B8200081B0089F1B681E0C90463F6816FA83F390
:10B830000646894613FA87F303EB17434FEA13478B
:10B8400017FA83F04FEA104313FA80F7CEB10024C1
:10B8500075897068A9B205F01BF93844010C11FA1A
:10B8600080F715F0010038BA18BF070C366818BF0A
:10B87000C4F101040EB12FF015C820061CBF38BA60
:10B88000070C484603F0CCF93C18404603F0C8F9D1
:10B890002044010C11FA80F000EB1040C04380B24C
:10B8A00001B0BDE8F08303F050B8CB1E012B03D8E4
:10B8B00022F4004202F082BE03F0C9B9B0B50069BB
:10B8C0000D46806A13F022FDF0B1806905F0C2F9DF
:10B8D000E8B104462DB12A681AB104F114002946D2
:10B8E0009047F4F7E3FC616809B9618991B10125DA
:10B8F000A189E289002918BF023512B1043500215F
:10B90000E181F4F7D7FC03E04FF0FF3500E00025BC
:10B910002846B0BD0025EBE710B505F07FF80446DA
:10B9200000280ED4204605F095F901684AF20D1260
:10B93000C0F20022CA63002100F11802C0E905121A
:10B94000C261204610BD002015F0E6B9421C022A53
:10B9500001D20120704791F8412092070AD54A6828
:10B96000824207D042408968114203D1CA438843CA
:10B970009042EED0002070472DE9F04F81B045682D
:10B9800004462A7802F0F00040281CD168888B46D3
:10B990003C2101EA820803F043F9218907468842E5
:10B9A00003D22046394608F0C9FF608940450AD3D2
:10B9B0002089874207D8B8F1130F04D92846414699
:10B9C000FFF7FFFE30B1204608F07EFE002001B0F8
:10B9D000BDE8F08F286942F21C5900F0F002C2F273
:10B9E0000029E02AE968C9E9041014D19BF8410054
:10B9F000800635D509F114015846FFF777FD78B375
:10BA0000D9E904105F4680F0807080F0E0000843C0
:10BA10005FEA0F9033E04BF6F02A0026C2F2002ACC
:10BA20005F4600BF97F84100C00709D0796839B177
:10BA3000D9F81400884221D03946FFF787FFE8B9CA
:10BA4000F00704D199F8140057467F2808D03F68C2
:10BA500001265F4508BFDBF800700FB12FF01FC053
:10BA6000687A0027112809D105EB08004088B0F555
:10BA7000884F5FEA0F905BEA078700E0012070B112
:10BA8000D9F8100058B15946FFF760FF00289AD145
:10BA9000D9F8100000F0F000E0283FF494AF002F38
:10BAA0003FF491AFE8886FF0C00108427FF48BAF9C
:10BAB00028783C21C9E9007B01EA8000A9F80C0044
:10BAC00020465946C9F808500AF0A4F948B10020A8
:10BAD000C9E90400C9E90000C9F80800A9F80C0088
:10BAE00074E7C8F10001204608F07CFE687A05285A
:10BAF0000ADC012811D0022819D109F114022046CC
:10BB00005946FFF775FAE2E706280BD011280ED147
:10BB10002046594619F034FFD9E720465946FFF729
:10BB20001DF9D4E72046594616F04EFACFE7D9F86A
:10BB300014003946FFF70AFF70B9D9F8140000F075
:10BB4000F000E02808D02046414608F04EFE0221D1
:10BB500020466560FFF7A0F8204608F0B5FDB6E77F
:10BB6000B0B586B0DDF830C0DDE90A4E22B109B1CA
:10BB70000D680DB90CF104010025CDE9004ECDE9A9
:10BB800002C5049500F01AF806B0B0BDF0B585B056
:10BB9000DDF838C0DDE90C4EDDE90A651AB109B1FE
:10BBA0000F6807B9211DCDE90065CDE9024ECDF83A
:10BBB00010C000F003F805B0F0BD00002DE9F04F13
:10BBC00083B00446C0899846914601288B460DD023
:10BBD0004AF2BC30C0F202200CF0C6F84AF2C8307B
:10BBE00040F23331C0F2022015F0B0F8B9F1000F85
:10BBF00021D0109E2EB3F51C204625F0030739B244
:10BC000008F0F0FD00283FD14FF6FC700F9905EACF
:10BC1000000A60683246CDF804800AF114080CF07E
:10BC200065FAB8B2B04210D96068AAEB0601304498
:10BC3000F4F700FE0BE060680DF10809006902905E
:10BC40007CE04FF0450A002619E0380411D04FEA95
:10BC50005A010120012988BF4FEA5A000026616875
:10BC600010F001E0B1EC881EF5FE206F1FF007C058
:10BC700000E00026402040EA980ADDF80480142104
:10BC8000204608F0AFFD08B1FE205CE06089CDF8E9
:10BC900000B00D9DDDF830B0132867680AD82CA0DD
:10BCA0000CF062F84AF2C83040F26131C0F2022072
:10BCB00015F04CF8208987F808807D72CDF8048053
:10BCC000D9F80080C7F8108087F800A087F801B085
:10BCD00002F0A6FF42F234558346C2F20025788076
:10BCE0000021F980288802F09BFF0C9A01990D9B96
:10BCF000B88041EA022147F6304201EB0321009B64
:10BD00003144C0F20222002B52EA038251FA8AF136
:10BD10002E8811FA88F101EB184112685944FA6033
:10BD20000144701C11FA82F1288001EB12410B0CC6
:10BD300013FA81F101EB1141C84378810E98214635
:10BD40004A464369984740B203B0BDE8F08F00BF50
:10BD5000636865636B2074686174206669727374CC
:10BD600020706275662063616E20686F6C6420735A
:10BD700074727563742069705F68647200000000FB
:10BD8000B0B586B0DDE90ACE00250C9CCDE900CE29
:10BD9000CDE902450495FFF711FF06B0B0BD0000E4
:10BDA00080B5D0F800E084460EF0F000E02806D11F
:10BDB00042F20850C2F20020006800B180BD4BF68C
:10BDC000F020C2F2002000BF0068A0B190F841301E
:10BDD00003F00502052AF7D142680AB92FF00DC019
:10BDE00082EA0E0281681142E8D09907ECD4C1685A
:10BDF0008E45E9D1E2E70021604602F07BFF002892
:10BE0000DCD14BF6EC20C2F20020006850B190F873
:10BE1000411001F00501052904D14168002950EACB
:10BE2000118080BD002080BD10B5044621B12046A0
:10BE300002F060FF00B110BD2046BDE81040FFF7E2
:10BE4000AFBF00002DE9F04385B00678A6F13002BF
:10BE5000092A00F2968040F21F0C894600224FF01A
:10BE60000108C0F2800C0DF1040E302E0CD10346F7
:10BE700013F8016F06F0DF01582908D110F8026F9E
:10BE80001021012706E000BF0A21002702E0082157
:10BE90000027184601300025A6F13003092B05D8EC
:10BEA00005FB0163A3F1300515E000BF1FB3402E71
:10BEB00014DDA6F16103062B03D3A6F14104052C82
:10BEC0005FD86FF040041A2B38BF6FF0600433194D
:10BED0000A3343EA051510F8016BDDE7A6F1090105
:10BEE000172904D808FA01F111EA0C0F1CD1DEB1B0
:10BEF0002E2E02D045E02E2E0CD1032A41D04EF832
:10BF0000225001320678A6F130010A294FF00001D3
:10BF1000ABD351E0A6F10900172851D8012101FA4D
:10BF200000F010EA0C0F4BD0032A0DD8DFE802F026
:10BF30003B0218270021B1EB156F3DD10198FF2876
:10BF40001FD845EA00652EE01FA00BF00DFF4AF256
:10BF5000054040F20311C0F2022014F0F7FE22E087
:10BF60000021B1EB154F27D101980021FF2823D8DC
:10BF7000029AFF2A20D8000640EA024012E0FF2D74
:10BF800001D9002118E001980021FF2814D8029A55
:10BF9000FF2A9CBF039BFF2B0ED8000640EA0240FD
:10BFA00040EA03200543B9F1000F04D0284602F00F
:10BFB00035FEC9F800000121084605B0BDE8F08350
:10BFC000002EB1D0DDE700BF756E68616E646C65F0
:10BFD0006400000042F20C511022C2F2002100F075
:10BFE00001B800002DE9F04F82B08846006801904A
:10BFF00000200DF1040E4FF0CD090DF1010C4FF0B2
:10C00000000A8B461EF80A70002600BFFBB23C46B1
:10C0100003FB09F73546092B4FEAD72707EB8701C2
:10C02000A4EB4101F4B206F1010641F030010CF835
:10C030000410EBD831060EF80A7013D0012190429B
:10C0400051FA85FE50EAC2865F4600BF86421DD087
:10C05000E9B20130013D1CF8011007F8011B0FF097
:10C060000BC800E05F46904210DABB46BAF1030FFE
:10C070000AF1010A00F101000DF1040E4FF02E014A
:10C080000BF8011BBED10020387001E04FF0000812
:10C09000404602B0BDE8F08FDDF800C0CDF800C02A
:10C0A000FFF7BCBB2DE9F04F87B001285FD00646F3
:10C0B0000F46486871A1F4F733FC83460120BBF1B9
:10C0C000000F50EA10946EA157F824502846F4F758
:10C0D00027FC00284BD06BA12846F4F721FCE8B1DF
:10C0E0006AA12846F4F71CFC8246F0B168A12846F4
:10C0F000F4F716FC032E3ADBC8BB07EB8400052ED1
:10C10000D0F8048040D34AF6E0718068C0F2022182
:10C11000F4F706FC58BB0225032016E04BF6FC2082
:10C120000021C2F20020016023E0042E25DB07EB92
:10C1300084004AF6E071C0F202214068F4F7F0FB97
:10C14000A8B94FF0000801250220204457F820002C
:10C15000F4F7D8F9072E814614D307EB86044DA1D6
:10C1600054F8080CF4F7DCFB002800F0808000F0A5
:10C1700063FD002007B0BDE8F08F01254FF00008F7
:10C1800041F28939012603E00126022541F289396D
:10C190004BF6FC20C2F20020016831B13EA00BF04A
:10C1A000E3FD45A00BF0E0FDE3E7056040F28C10F5
:10C1B0004BF60034C2F20020C2F200240027C0F87F
:10C1C00000908DF8187020680597CDE9037710B1BD
:10C1D0000AF090FF2760B8F1000F03D040460EF040
:10C1E000BBFB2060012EC4DB4AF6D5704AF6CA714B
:10C1F000C0F20220C0F20221BAF1000F50EA018819
:10C200004CF6F1104CF6AD01C0F20020C0F2002156
:10C2100050EA01804CF27D514CF2C922C0F200215B
:10C22000C0F20022BAF1000F51EA0281BBF1000F07
:10C2300050EA0184012503AF4FF064094FF0140A5E
:10C240000D21384642462B460EF082F800224FF46C
:10C25000006338462146CDE900A90EF010FD08B173
:10C260000EF0FEFF013E05F10105E9D181E754F82A
:10C27000040CF4F747F906468AE700BF2D75000065
:10C280002D6800002D2D73746F7000002D73000059
:10C290002D6300002D6D0000506C65617365207387
:10C2A000746F702069706572662066697273746C51
:10C2B000792C2062793A0A006970657266202D2D0A
:10C2C00073746F700A0000002DE9F04F87B04FF4CF
:10C2D00080500BF079FD002800F0128105468AA0FD
:10C2E0004FF4807E294690ED001F1020A1EC101E17
:10C2F00001EE400F0FF007C04BF6FC26C2F20026FD
:10C300003068002800F0F9804AF62D774FF00108D8
:10C310004FF0020AC0F2022792A44FF0010B00BFB7
:10C3200002200121062213F0A9FEB0F1FF3F13DC29
:10C3300038460BF019FD20460BF016FD48F25B4025
:10C34000C0F202200BF010FD4FF47A700EF0DDFC0D
:10C3500030680028E4D1D0E0814640F28C10C2F26F
:10C3600000208DF80DA0008800BA000CADF80E007A
:10C370004BF60030C2F20020006806F0F3FE049095
:10C380001022484603A9F8F715FE013000F0998005
:10C390004AF63D70C0F202200BF0E6FC5EA00BF006
:10C3A000E3FC48F25B40C0F202200BF0DDFC06210A
:10C3B000012204200090484602ABCDF8088013F01B
:10C3C000EDFD0FF063F83168002958D0834600274F
:10C3D000002401950FF05AF88046A0EB0B0A41F2B9
:10C3E0008830824539D30EF039FE4FF47A7B05460A
:10C3F000A7FB0B617D2204FB0B11002330460027B5
:10C40000F4F708F800235246F4F704F844F6D35141
:10C41000C1F2620150FB01F18A1102EBD17606FBF9
:10C420001B044AF63D70C0F202200BF09DFC4AF658
:10C430009C702946C0F2022032464BF6FC26234669
:10C44000019DC2F200260BF08FFC48F25B40C0F267
:10C4500002200BF089FCC34600244FF480520023D5
:10C460004846294613F03CFD20EAE0717F1844F16C
:10C470000004002803D4306808B12FF055C848469E
:10C48000F8F768F84FF4FA600EF03FFC4AF64D708A
:10C49000C0F202200BF068FC28A00BF065FC48F20B
:10C4A0005B40C0F202200BF05FFC4AF62D774FF0A4
:10C4B000010B4FF001084FF0020AC0F2022729A435
:10C4C00046E7BBF1000F0ED038460BF04DFC4AF6A4
:10C4D0005D70C0F202200BF047FC48F25B40C0F2F6
:10C4E00002200BF041FC4846F8F734F84FF47A701C
:10C4F0000EF00BFC4FF0000B2AE728460AF0FAFD7D
:10C5000007B0BDE8F08F00BF000102030405060775
:10C5100008090A0B0C0D0E0F436F6E6E65637420D5
:10C52000746F20697065726620736572766572201B
:10C530007375636365737366756C21004469736317
:10C540006F6E6E65637465642C2069706572662019
:10C55000736572766572207368757420646F776E88
:10C560002100000063726561746520736F636B6501
:10C5700074206661696C6564210000002DE9F04F4C
:10C5800093B04FF480500BF01FFC002800F0108196
:10C5900080460220012100220225002413F06EFDB6
:10C5A000B0F1FF3F40F31681064640F28C10C2F214
:10C5B00000208DF839500EAD0021008808220F941C
:10C5C00000BA000CADF83A0005F108000CF0D6F8FE
:10C5D000102230462946F7F74CFC013000F00A8162
:10C5E0000521304601F042FD013000F005814BF697
:10C5F000FC210320C2F20021079000200890096866
:10C60000002900F0098106F01F00012101FA00F065
:10C610000590701C04900AA84FF47A7A041DCDE9A5
:10C62000024600BF09AD0021042228460CF0A6F8FE
:10C6300005990022099800230843099007A8009053
:10C640000498294613F00EFB002800F0A580102066
:10C65000129030460AA912AAF7F722FB81464AF641
:10C660003D70C0F202200BF07FFB204606F018FD63
:10C67000BDF82A100ABA0146120C74A00BF074FB24
:10C6800048F25B40C0F202200BF06EFB01200690E6
:10C690000621012204200090484606AB13F07EFCE0
:10C6A0000EF0F4FE4BF6FC21C2F2002109680029CD
:10C6B00053D00546002600244FF4805200234846FC
:10C6C000414609F016FD012847DB361844F1000405
:10C6D0000EF0DCFE8346471B41F28830874234D39C
:10C6E0000EF0BCFCA6FB0A517D2204FB0A11444655
:10C6F0008046002328460026F3F78CFE00233A46A6
:10C70000F3F788FE44F6D351C1F2620150FB01F108
:10C710008A1102EBD17505FB1A074AF63D70C0F28B
:10C7200002200BF021FB4AF69C704146C0F2022029
:10C730002A463B46A0460BF017FB48F25B40C0F28E
:10C7400002200BF011FB00245D464BF6FC20C2F2E8
:10C750000020006808B12FF051C84AF64D70C0F2B1
:10C7600002200BF001FB029C204606F099FCBDF86C
:10C770002A100ABA0146120C3DA00BF0F5FA48F255
:10C780005B40C0F202200BF0EFFAB9F1000F039EFC
:10C7900002D44846F7F7DEFE4BF6FC20C2F200203A
:10C7A000006808B12FF0C3C0B6F1FF3F34DC36E0BB
:10C7B0004AF62D70C0F202200BF0D6FA38A00BF02A
:10C7C000D3FA48F25B40C0F2022013B0BDE8F04F4C
:10C7D0000BF0CABA4AF62D70C0F202200BF0C4FA70
:10C7E0002BA00BF0C1FA48F25B40C0F202200BF024
:10C7F000BBFA14E00DA500E010A54AF62D70C0F2BA
:10C8000002200BF0B1FA28460BF0AEFA48F25B407A
:10C81000C0F202200BF0A8FA3046F7F79BFE404624
:10C820000AF068FC13B0BDE8F08F00BF556E61627E
:10C830006C6520746F2062696E6421004C697374AA
:10C84000656E206572726F72210000006E65772040
:10C85000636C69656E7420636F6E6E656374656486
:10C860002066726F6D202825732C20256429000016
:10C87000636C69656E7420646973636F6E6E656363
:10C88000746564202825732C20256429000000008D
:10C89000536F636B6574206572726F7221000000C4
:10C8A0004E6F206D656D6F72792100002DE9F04F9C
:10C8B00087B04FF480500BF087FA002874D0002125
:10C8C0004FF4805204460BF059FF0220022100224F
:10C8D000022613F0D3FBB0F1FF3F68DD054640F2BE
:10C8E0008C10C2F200204BF60031C2F200218DF80C
:10C8F0000D60008800BA000CADF80E00086806F064
:10C9000031FC04904AF63D70C0F202200BF02CFA84
:10C9100031A00BF029FA48F25B40C0F202200BF084
:10C9200023FA4BF6FC2AC2F2002ADAF80000A8B378
:10C9300001274FF47A764FF4706B4FF010080DF129
:10C940000C0900BF0EF0A2FD44F6D351C1F2620102
:10C95000A0FB011291094FF47A3201FB160009BACB
:10C96000616042432146A0EB800370433FFA82F2AC
:10C9700042EAC3620BEA10203BBA23601044A06075
:10C9800040F2BE5200232846CDE9009813F0B9FAD0
:10C99000DAF80000013708B12FF02DC02846F7F76C
:10C9A000D9FD20460AF0A6FB07B0BDE8F08F4AF695
:10C9B0002D70C0F202200BF0D7F94AF6AF70C0F22A
:10C9C00002200BF0D1F948F25B40C0F2022007B020
:10C9D000BDE8F04F0BF0C8B96970657266207564E8
:10C9E00070206D6F64652072756E2E2E2E00000013
:10C9F0002DE9F04F8FB04FF480500BF0E5F900288F
:10CA000000F0E4800390022002210022022600258B
:10CA100013F034FBB0F1FF3F40F3A680044640F230
:10CA20008C10C2F200208DF82D60008800BA000C36
:10CA3000ADF82E0067A006F095FB0C9004ABCDE995
:10CA4000046540F6FF7141F206020820009020467E
:10CA500013F0A4FA013000F09C800BA910222046AC
:10CA6000F7F707FA002800F19C804BF6FC20C2F291
:10CA700000200068002870D04FF000094FF0000B34
:10CA80000EF004FD074600254FF0000A4FF00008A5
:10CA900007A8009006A80190039E4FF4805200233F
:10CAA0002046314609F0D4FC0D2811DB31686FEACD
:10CAB0000902002609BAB1EB09030A4453EA2683A6
:10CAC00088BF92441BEB000B984445F10005894652
:10CAD0000EF0DCFCC61B41F288308642D8D35BEAFC
:10CAE000050032D00EF0BAFA4FF47A720023ABFB95
:10CAF00002714FF47A7B05FB021105467D22384610
:10CB0000F3F788FC00233246F3F784FC44F6D35154
:10CB1000C1F2620150FB01F18A1102EBD17606FBF2
:10CB20001B074AF63D70C0F202200BF01DF92BA046
:10CB3000294632463B46CDE900A80BF015F948F2EC
:10CB40005B40C0F202200BF00FF94BF6FC20C2F262
:10CB50000020006808B12FF06FC803980AF0CAFAE5
:10CB60002046F7F7F7FC31E04AF62D70C0F20220BC
:10CB70000BF0FAF84AF6AF70C0F202200BF0F4F8AE
:10CB800048F25B40C0F202200FB0BDE8F04F0BF05E
:10CB9000EBB84AF62D70C0F202200BF0E5F821A0A8
:10CBA00006E04AF62D70C0F202200BF0DDF815A069
:10CBB0000BF0DAF848F25B40C0F202200BF0D4F838
:10CBC0002046F7F7C7FC03980AF094FA0FB0BDE8C7
:10CBD000F08F00BF302E302E302E300025733A20DB
:10CBE00025642E2530336430204D62707321206C13
:10CBF0006F73743A256420746F74616C3A25640A0B
:10CC00000000000069706572662073657276657257
:10CC10002062696E64206661696C656421206578B4
:10CC200069742100736574736F636B6F7074206631
:10CC300061696C656421000010B54AF65A60C0F263
:10CC400002200BF091F84AF69060C0F202200BF03F
:10CC50008BF849F2CF24C0F2022420460BF084F86E
:10CC60004AF61160C0F202200BF07EF84AF6CD6061
:10CC7000C0F202200BF078F820460BF075F84AF667
:10CC8000ED50C0F202200BF06FF84AF6AA60C0F235
:10CC900002200BF069F820460BF066F84AF6FF50C8
:10CCA000C0F202200BF060F84AF62160C0F20220C8
:10CCB0000BF05AF820460BF057F80AA00BF054F886
:10CCC0004AF60170C0F202200BF04EF809A00BF0FA
:10CCD0004BF811A00BF048F819A0BDE810400BF07C
:10CCE00043B800BF4D697363656C6C616E656F75A9
:10CCF000733A0A0020202D2D73746F70202020209D
:10CD000020202073746F70206970657266207072C5
:10CD10006F6772616D0A000020202D752020202091
:10CD20002020202020202074657374696E672055B0
:10CD300044502070726F746F636F6C0A00000000C3
:10CD400020202D6D203C74696D653E2020202074CC
:10CD50006865206E756D626572206F66206D756CFA
:10CD600074692D7468726561646564200000000058
:10CD700010B504460AF0BEFF60684BF608310201A8
:10CD8000C2F200218A58904204D101EB0010D0E990
:10CD900002108847BDE810400AF0CFBF2DE9F04FE0
:10CDA00091B0092009240CF04FF949F21B530430CB
:10CDB0000C9004A80D9008200F90002010902AA03D
:10CDC000C0F202230C210C228DF838400AF0CCFF6F
:10CDD00049F2CF346FF00B05C0F2022420460AF06E
:10CDE000C3FF0135FAD32AA00AF0BEFF00200FF2DC
:10CDF000C40B32A50CA900F0D3F9109C0390012CB0
:10CE00002ADB9DF838600DF1100800BFD8F80090BB
:10CE1000F3F74CFA19F8041C01F07F0AF3F74AFA09
:10CE2000B24515D1D9F8081058461E2905D847F241
:10CE30005C40C0F2022050F8210099F81070A9F16E
:10CE400010030C210C22CDE9000728460AF08CFFC4
:10CE5000013C08F10408D9D1039808B12FF037C07C
:10CE6000002011B0BDE8F08F252D2A2E2A73202036
:10CE70002020202020202074797065202020202070
:10CE80002020202072656620636F756E740A000092
:10CE9000202D2D2D2D2D2D2D2D2D2D2D2D2D2D2DCF
:10CEA0002D2D2D2D2D202D2D2D2D2D2D2D2D2D2DBF
:10CEB0000A000000556E6B6E6F776E00252D2A2ECE
:10CEC0002A7320252D32307320252D38640A000066
:10CED0002DE9F04F91B0042004240CF0B5F849F28C
:10CEE000266304300C9008200F900020109033A08F
:10CEF000C0F202230C210C228DF8384004AC0D94B2
:10CF00000AF032FF49F2CF356FF00B06C0F202256E
:10CF100028460AF029FF0136FAD331A00AF024FF8F
:10CF200049F2CF2A00200FF2D80BC0F2022A00BF2C
:10CF30000CA900F035F9109E0390012E36DB9DF808
:10CF400038804FF0000900BF54F82950F3F7AEF9CC
:10CF500015F8041C01F07F07F3F7ACF9474521D120
:10CF6000A5F1100355F8080FA842A86814D04FF097
:10CF7000FF37294609680137A942FBD10C210C2251
:10CF8000CDE9000758460AF0EFFE284613F056F8A0
:10CF900050460AF0E9FE05E00C210C2200901EA08C
:10CFA0000AF0E2FE09F10109B145CDD1039808B1BB
:10CFB0002FF043C0002011B0BDE8F08F252D2A2EA0
:10CFC0002A732020202020207365742020202073C5
:10CFD000757370656E64207468726561640A000020
:10CFE00020202D2D2D2D2D2D2D2D2D2D202D2D2D98
:10CFF0002D2D2D2D2D2D2D2D2D2D2D0A0000000038
:10D00000252D2A2E2A7320203078253038782025A7
:10D010003033643A00000000252D2A2E2A73202088
:10D0200030782530387820300A0000002DE9F04FA4
:10D0300081B0F9F707F836A00AF096FE3BA00AF097
:10D0400093FE40F23479C2F20029D9F80000012899
:10D0500053DB49F29B2800243CA54BA64CA70FF2BA
:10D06000381BC0F2022800BFD9F8040050F824A0F1
:10D07000BAF1000F3CD0DAF81000C069002837D0B0
:10D08000284621460AF070FEDAF8100000880428CD
:10D0900007D8DFE800F003090C0F1200404633A167
:10D0A0000EE035A036A10BE040462EA108E0404638
:10D0B00030A105E0404629A102E0404625A100BF7D
:10D0C0000AF052FEDAF81000C16830460AF04CFE51
:10D0D000BAF8001038460AF047FEDAF81000416846
:10D0E00019B158460AF040FE02E02CA00AF03CFEBE
:10D0F000D9F8000001348442B6DB42F2B000C2F23B
:10D1000000200BF07DFD002001B0BDE8F08F00BFD6
:10D110006664207479706520202020726566206D19
:10D12000616769632020706174680A002D2D202DCD
:10D130002D2D2D2D2D20202D2D2D202D2D2D2D2D46
:10D14000202D2D2D2D2D2D0A0000000025326420CC
:10D1500000000000646576696365000075736572A0
:10D1600000000000736F636B6574000066696C6596
:10D170000000000064697200252D382E38732000ED
:10D18000756E6B6E6F776E002533642000000000B3
:10D19000253034782020000025730A000A000000A2
:10D1A000F0B581B00D46C9684FF000042C6129B379
:10D1B0000646287A08B32F68002E57EA0684F3F74C
:10D1C00075F836B114F8041C2A7A01F07F019142F7
:10D1D00011D16968002600BF2468BC4206D0EA6805
:10D1E000013641F8044B9642F6D100E00024F3F7F3
:10D1F00061F82E6102E0F3F75DF80024204601B0EB
:10D20000F0BD00002DE9F04F91B0052005240BF092
:10D210001BFF49F2326304300C9008200F9000206D
:10D22000109038A0C0F202230C210C228DF8384057
:10D2300004AC0D940AF098FD49F2CF356FF00B065F
:10D24000C0F2022528460AF08FFD0136FAD336A037
:10D250000AF08AFD49F2CF2A00200FF2E80BC0F253
:10D26000022A00BF0CA9FFF79BFF109E0390012E1E
:10D2700040DB9DF838804FF0000900BF54F829507A
:10D28000F3F714F815F8041C01F07F07F3F712F810
:10D2900047452BD1A5F1100355F8082FE9894FF028
:10D2A000FF37A889AA4214D02A4600BF1268013766
:10D2B000AA42FBD100910C210C22CDE9010758466E
:10D2C0000AF052FD284612F0B9FE50460AF04CFD15
:10D2D0000CE02A4612680137AA42FBD100910C21CA
:10D2E0000C22CDE901071DA00AF03EFD09F101095C
:10D2F000B145C3D1039808B12FF04DC0002011B043
:10D30000BDE8F08F252D2A2E2A7320656E74727960
:10D310002073697A652073757370656E6420746814
:10D32000726561640A000000202D2D2D2D20202D16
:10D330002D2D2D202D2D2D2D2D2D2D2D2D2D2D2D2A
:10D340002D2D0A00252D2A2E2A7320253034642005
:10D3500020253034642025643A000000252D2A2E33
:10D360002A7320253034642020253034642025643D
:10D370000A0000002DE9F04F91B0072007240BF0C0
:10D3800063FE49F23C5304300C9004A80D90082031
:10D390000F900020109028A0C0F202230C210C2234
:10D3A0008DF838400AF0E0FC49F2CF346FF00B05FD
:10D3B000C0F2022420460AF0D7FC0135FAD32BA094
:10D3C0000AF0D2FC4FF0000A0FF2CC0B50460CA929
:10D3D000FFF7E6FE109C8246012C25DB9DF8389075
:10D3E00004AD00BFD5F80080F2F760FF18F8041C08
:10D3F00001F07F01494511D1A8F11007F2F75AFF5A
:10D4000008F10C060C210C2249CE00905846CDE9BB
:10D4100001633B460AF0A8FC02E000BFF2F74AFFB6
:10D42000013C05F10405DDD1BAF1000FCED1002099
:10D4300011B0BDE8F08F00BF252D2A2E2A732020C1
:10D44000706F6F6C2073697A6520206D617820752C
:10D450007365642073697A6520617661696C6162C5
:10D460006C652073697A650A00000000202D2D2D5F
:10D470002D2D2D2D2D2D2D202D2D2D2D2D2D2D2DE9
:10D480002D2D2D2D2D202D2D2D2D2D2D2D2D2D2DD9
:10D490002D2D2D2D0A000000252D2A2E2A73202542
:10D4A0002D3031306420252D3031336420252D304E
:10D4B00035640A002DE9F04F91B0082008240BF0E4
:10D4C000C3FD49F2305304300C900020109038A076
:10D4D000C0F202230C210C228DF8384004AE0D96C8
:10D4E0000F940AF041FC49F2CF346FF00B05C0F203
:10D4F000022400BF20460AF037FC0135FAD336A0DB
:10D500000AF032FC002400BF20460CA9FFF748FEB9
:10D51000DDF840800446B8F1010F41DB9DF838B0DA
:10D520004FF0000956F829A0F2F7C0FE1AF8041CC3
:10D5300001F07F05F2F7BEFE5D452DD10AF1200511
:10D54000AAF110030120294609680138A942FBD13C
:10D55000DAF81010DAE9062798B14042CDE9001256
:10D560000C210C22CDE9027024A00AF0FDFB284614
:10D5700012F064FD49F2CF20C0F202200AF0F4FB61
:10D580000AE0CDE900120C210C220020039022A019
:10D5900002970AF0E9FB00BF09F10109C145C1D1B9
:10D5A0000CB12FF04FC8002011B0BDE8F08F00BFC4
:10D5B000252D2A2E2A7320626C6F636B20746F7482
:10D5C000616C20667265652073757370656E64208A
:10D5D0007468726561640A00202D2D2D2D20202D88
:10D5E0002D2D2D20202D2D2D2D202D2D2D2D2D2D92
:10D5F0002D2D2D2D2D2D2D2D0A000000252D2A2E0F
:10D600002A732025303464202025303464202025DE
:10D610003034642025643A00252D2A2E2A732025D3
:10D6200030346420202530346420202530346420B8
:10D6300025640A002DE9F04F91B0062006240BF076
:10D6400003FD49F2275304300C9008200F9000206E
:10D65000109037A0C0F202230C210C228DF8384024
:10D6600004AC0D940AF080FB49F2CF356FF00B0645
:10D67000C0F2022528460AF077FB0136FAD334A01F
:10D680000AF072FB49F2CF2A00200FF2DC0BC0F245
:10D69000022A00BF0CA9FFF783FD109E0390012E04
:10D6A0003EDB9DF838804FF0000900BF54F8295048
:10D6B000F2F7FCFD15F8041C01F07F07F2F7FAFD04
:10D6C000474529D1A5F1100355F8081F288A4FF0C6
:10D6D000FF37A94212D0294609680137A942FBD178
:10D6E0000C210C22CDE9000758460AF03DFB2846E4
:10D6F00012F0A4FC50460AF037FB0DE0294600BFAB
:10D7000009680137A942FBD10C210C22CDE90007A1
:10D710001AA00AF029FB00BF09F10109B145C5D1E2
:10D72000039808B12FF04BC0002011B0BDE8F08F76
:10D73000252D2A2E2A7320656E74727920737573D5
:10D7400070656E64207468726561640A0000000090
:10D75000202D2D2D2D20202D2D2D2D2D2D2D2D2D20
:10D760002D2D2D2D2D0A0000252D2A2E2A73202542
:10D77000303464202025643A00000000252D2A2E34
:10D780002A732025303464202025640A000000001C
:10D790002DE9F04F93B0032003240BF055FC49F220
:10D7A0002C6304300E9008201190002012903DA0B0
:10D7B000C0F202230C210C228DF8404006AC0F94DD
:10D7C0000AF0D2FA49F2CF356FF00B06C0F202250B
:10D7D00028460AF0C9FA0136FAD33EA00AF0C4FA84
:10D7E00000200C260EA9FFF7DBFCDDF84880059031
:10D7F000B8F1010F4EDB9DF840904FF0000A00BFDA
:10D8000054F82AB0F2F752FD1BF8041C01F07F0512
:10D81000F2F750FD4D4539D1ABF110035BF8080F1D
:10D820009BF8091058459BF80A20DBF80C004FF0D4
:10D83000FF375D4618D000BF2D6801375D45FBD12D
:10D84000CDE902210C210C2201902CA00096049716
:10D850000AF08AFA584612F0F1FB49F2CF20C0F2E2
:10D8600002200AF081FA11E02D6801375D45FBD1F5
:10D87000019049F21130CDE902210C210C22C0F2B5
:10D880000220009604970AF06FFA00BF0AF1010A1D
:10D89000C245B5D1059808B12FF05DC0002013B086
:10D8A000BDE8F08F252D2A2E2A732020206F776E59
:10D8B00065722020686F6C64207072696F72697481
:10D8C000792073757370656E642074687265616425
:10D8D000200A0000202D2D2D2D2D2D2D2D202D2D1C
:10D8E0002D2D202D2D2D2D2D2D2D2D202D2D2D2D82
:10D8F0002D2D2D2D2D2D2D2D2D2D0A00252D2A2EB2
:10D900002A7320252D382E2A7320253034642025B3
:10D910003864202025303464200000002DE9F04FC9
:10D9200091B0022002240BF08FFB04300C900820F1
:10D930000F900020109037A03DA30C210C228DF8F1
:10D94000384004AC0D940AF00FFA49F2CF356FF06D
:10D950000B06C0F2022500BF28460AF005FA013680
:10D96000FAD336A00AF000FA49F2CF2A00200FF2CB
:10D97000E40BC0F2022A00BF0CA9FFF711FC109EB5
:10D980000390012E3EDB9DF838804FF0000900BF68
:10D9900054F82950F2F78AFC15F8041C01F07F07AF
:10D9A000F2F788FC474529D1A5F1100355F8081F67
:10D9B00028894FF0FF37A94212D02946096801375C
:10D9C000A942FBD10C210C22CDE9000758460AF0F0
:10D9D000CBF9284612F032FB50460AF0C5F90DE0AB
:10D9E000294600BF09680137A942FBD10C210C224E
:10D9F000CDE900071BA00AF0B7F900BF09F1010942
:10DA0000B145C5D1039808B12FF04BC0002011B02B
:10DA1000BDE8F08F252D2A2E2A7320762020207332
:10DA2000757370656E64207468726561640A0000C5
:10DA300073656D6170686F7265000000202D2D2D7B
:10DA4000202D2D2D2D2D2D2D2D2D2D2D2D2D2D0A36
:10DA500000000000252D2A2E2A7320253033642053
:10DA600025643A00252D2A2E2A7320253033642080
:10DA700025640A002DE9F0478CB009F0ABF950A0FD
:10DA80000AF072F94FF2A070C2F2002004689CB351
:10DA90004AF6C0484AF6B54900270DF1200A04AEFF
:10DAA000C0F20228C0F202292046FEF793FA01468E
:10DAB0005046F2F79BFD201DFEF78CFA01463046DA
:10DAC000F2F794FD638BA08BA16A226DCDE9006013
:10DAD0004046CDE90221394652467D1C0AF044F900
:10DAE000606914F0E7F8014648460AF03DF9E46839
:10DAF0002F460CB12FF029C036A00AF035F94FF2AD
:10DB0000B070C2F200200668BEB14AF6B5450021E9
:10DB100035A4C0F2022500BF728B20464F1C0AF0CC
:10DB200023F9706914F0C6F8014628460AF01CF97A
:10DB3000F66839460EB12FF011C830A00AF014F97A
:10DB40004FF2BC70C2F2002004689CB34AF6C04891
:10DB50004AF6B54900270DF1200A04AEC0F20228AA
:10DB6000C0F202292046FEF735FA01465046F2F788
:10DB70003DFD201DFEF72EFA01463046F2F736FD38
:10DB8000638BA08BA16A226DCDE900604046CDE990
:10DB90000221394652467D1C0AF0E6F8606914F00D
:10DBA00089F8014648460AF0DFF8E4682F460CB1D0
:10DBB0002FF029C009F07EFA0CB0BDE8F08700BF55
:10DBC00041637469766520504342207374617465C3
:10DBD000733A0A004C697374656E20504342207397
:10DBE00074617465733A0A00232564206C6F636165
:10DBF0006C20706F727420256420000054494D45DC
:10DC00002D57414954205043422073746174657309
:10DC10003A0A00002DE9F04FB5B0012001240BF0C5
:10DC200013FA04303090082033900020349057A02D
:10DC300058A30A210A228DF8C8400DF1A009CDF899
:10DC4000C4900AF091F849F22F3048F6D763C0F239
:10DC50000220C0F202230C210C220AF085F849F2BE
:10DC6000CF346FF00905C0F2022400BF20460AF04D
:10DC70007BF80135FAD34AA00AF076F849F2CF349E
:10DC80006FF00B05C0F2022420460AF06DF8013552
:10DC9000FAD344A00AF068F8002000BF30A9FFF7CB
:10DCA0007FFA349F0290012F68DB9DF8C8B04FF0D7
:10DCB000000A00BF59F82A40F2F7F8FA14F8041CD9
:10DCC000054601F07F01594528D1A4F110069422A0
:10DCD00003A831460AF00AFA2846F2F7EBFA41A007
:10DCE00031460AF041F894F829000C210C220090EA
:10DCF0003DA033460AF038F894F8280000F00701F8
:10DD00003CA0022912D003293DA00FD861B10329FC
:10DD100008D001290CD143A008E000BF2846F2F743
:10DD2000C9FA27E03CA001E038A000BF0AF01CF8C7
:10DD3000E1694FF0FF300A4612F8013B0130232B16
:10DD4000FAD0256A6422281A294450432269A1EB9B
:10DD50000208B0FBF5F6606AA46C0CF013FECDE986
:10DD6000004049F27430C0F2022041462A46334650
:10DD700009F0FAFF0AF1010ABA459BD1029808B1ED
:10DD80002FF075C0002035B0BDE8F08F252D2A2E6C
:10DD90002A73200072745F7468726561645F740036
:10DDA00020000000202D2D2D20202D2D2D2D2D2D5E
:10DDB0002D202D2D2D2D2D2D2D2D2D2D202D2D2DAD
:10DDC0002D2D2D2D2D2D2D20202D2D2D2D2D2D20AA
:10DDD000202D2D2D2D2D2D2D2D2D2D202D2D2D0AB0
:10DDE0000000000025702000252D2A2E2A732025F2
:10DDF00033642000207265616479202000000000F7
:10DE00002073757370656E640000000020696E6990
:10DE100074202020000000002072756E6E696E670D
:10DE20000000000020636C6F73652020000000007C
:10DE30002DE9F04F91B00A200A240BF005F949F2C0
:10DE4000445304300C9004A80D9008200F9000203B
:10DE5000109039A0C0F202230C210C228DF838401A
:10DE600009F082FF49F2CF346FF00B05C0F20224B3
:10DE7000204609F079FF0135FAD33CA009F074FF80
:10DE800049F2B9350020C0F2022544A40FF21C1A51
:10DE90000CA9FFF785F9DDF840800390B8F1010F78
:10DEA00038DB9DF838900DF1100B00BFDBF80060F7
:10DEB000F2F7FCF916F8041C01F07F0149451DD169
:10DEC000A6F11007F2F7F6F9D6E906030C210C22A9
:10DED000CDE9000328463B4609F046FF16F8030C3F
:10DEE000C00754EA0A8009F03FFF16F8030C8007C8
:10DEF00008D449F29A30C0F2022004E0F2F7DAF9CD
:10DF000003E000BF2DA009F02FFFB8F101080BF1CD
:10DF1000040BCBD1039808B12FF047C00DF0B6FA2F
:10DF2000014649F2A430C0F2022009F01DFF002092
:10DF300011B0BDE8F08F00BF252D2A2E2A732020B6
:10DF4000706572696F64696320202074696D656F04
:10DF50007574202020206163746976617465642083
:10DF6000202020206D6F64650A000000202D2D2DDB
:10DF70002D2D2D2D2D2D2D202D2D2D2D2D2D2D2DDE
:10DF80002D2D202D2D2D2D2D2D2D2D2D2D2D202DDB
:10DF90002D2D2D2D2D2D2D2D0A0000006465616382
:10DFA00074697661746564200000000061637469BF
:10DFB000766174656420202000000000706572693D
:10DFC0006F6469630A0000002DE9F0418CB008F02D
:10DFD00001FF19A009F0C8FE4FF65000C2F2002060
:10DFE00004681CB3002508AE04AF0FF2640800BF3C
:10DFF0002046FDF7EFFF01463046F2F7F7FA201D05
:10E00000FDF7E8FF01463846F2F7F0FA227CA18AD4
:10E01000608A0291CDE9000740462946334609F05F
:10E02000A3FEE46801350CB12FF01FC009F042F8DF
:10E030000CB0BDE8F08100BF41637469766520557E
:10E04000445020504342207374617465733A0A004F
:10E050002325642025642025733A2564203C3D3D1A
:10E060003E2025733A2564200A00000010B50C46B6
:10E07000F8F7A0F92146BDE8104011F059BB0000A7
:10E080002DE9F04FD7B00446054640B940F2BE1026
:10E09000C2F200200CF060FC0546002866D051AEAC
:10E0A0003046FCF7BAF84FF4803230462946F7F78D
:10E0B000F7FC18B12FA009F057FE53E032A0294613
:10E0C00009F052FE10AE00214FF4827230460AF081
:10E0D00055FB55980188022941D1371D0DF5A278CD
:10E0E000E9460FF2B40B00BFC069C369BBB34FF47C
:10E0F0008272404631469847012830DB0021402299
:10E1000048460AF03BFB28463946F8F79FF930B3FA
:10E1100049468246F7F70AFE10B1584639460FE0E5
:10E1200021A0394609F020FEBDF8060000F4704039
:10E13000B0F5804F02D120A021A101E005991CA0DB
:10E1400009F012FE504608F0D5FF00214FF482720C
:10E1500030460AF013FB559801880229C4D051A813
:10E16000F7F7ECFB14B9284608F0C4FF57B0BDE838
:10E17000F08F00BF4E6F207375636820646972650D
:10E1800063746F72790A00004469726563746F7218
:10E19000792025733A0A00004241442066696C6583
:10E1A0003A2025730A000000252D3230730000004C
:10E1B000252D32356C750A00252D3235730A000085
:10E1C0003C4449523E000000B0B515460C46FCF7F1
:10E1D0001BF838B16DB1022D07D0012D12D100F11D
:10E1E0000C0104E06FF00F000EE0016924310968B2
:10E1F0000C44002C06D42146F7F73EFCB0F1FF3F5B
:10E2000006DC01E06FF004000CF02CF84FF0FF3456
:10E210002046B0BD2DE9F04788B00C4601460728DE
:10E220004FF00000ADF8160021D84FF2C447480166
:10E23000C2F200273858D0B1154690F8302007EBCD
:10E24000411A920703D5BAF90A10002960DD07A91F
:10E2500003F02CFB80B1DAF80010096801F0F0013E
:10E26000102953D110F10F0149D1052458E0F2F7DC
:10E27000CDF81021016058E0079858B942A009F084
:10E2800073FD49F6887040F20D21C0F2022012F0B1
:10E290005DFD07980121F5F7B3FD064601303BD03F
:10E2A000082E0AD33CA009F05FFD49F6887040F2C1
:10E2B0001521C0F2022012F049FD07EB461912F0B9
:10E2C000BAFD0799B9F80A308A8BD2431A44A9F8E3
:10E2D0000A20CE6112F0E8FD002C51D0079806A963
:10E2E0000DF11602002303F097FD20B38046079836
:10E2F00003F06CFC01214846FCF77CFC4046FAF731
:10E300007DFD8AF8100080B104460BE0662407E02A
:10E31000F2F77CF81221ADE7079803F057FC1E24B2
:10E320008AF81040F2F772F804604FF0FF3630467A
:10E3300008B0BDE8F08755B91DA009F015FD49F6F4
:10E34000887040F23221C0F2022012F0FFFCBDF8CA
:10E3500016004FF40471ADF8041000F061FC2A6857
:10E36000ADF80600112A069802904FF00000CDE9A2
:10E37000030001D310222A6001A9204609F0B6FE4D
:10E3800000208AF81000D2E76E6577636F6E6E200A
:10E39000213D204E554C4C00696E76616C696420BD
:10E3A000736F636B657420696E64657800000000AC
:10E3B000616464722076616C6964206275742061A6
:10E3C0006464726C656E204E554C4C00B0B582B0E2
:10E3D000072823D84FF2C4434501C2F200235D59F8
:10E3E000E5B103EB4015102A08BF5FEA81701DD02C
:10E3F00017A009F0B9FC49F6887040F25B21C0F221
:10E40000022012F0A3FC6FF00F00FAF7F7FC28745B
:10E4100040B10446F1F7FAFF046003E0F1F7F6FFBC
:10E42000102101604FF0FF3002B0B0BD48780228E3
:10E43000DED148884968019100F0F2FB0246286865
:10E4400001A903F01DFB0028DFD100202874EBE7B1
:10E450006C7769705F62696E643A20696E76616C90
:10E460006964206164647265737300002DE9F0478C
:10E4700082B007283BD84FF2C4414201C2F20021CA
:10E480008A58A2B3126801EB401402F0F00008268B
:10E4900010284FF25C40C2F200205FEA1F98051D71
:10E4A00000270DF10409EA4655F8040CA0420DD1ED
:10E4B000D5E90001CDE90001206801234946524613
:10E4C00045F8047CC5E9007703F070FD013E05F1D5
:10E4D0000C05E9D1206803F079FB88B1FAF78EFCCE
:10E4E000207440B10546F1F791FF056003E0F1F7B4
:10E4F0008DFF102101604FF0FF3002B0BDE8F087C2
:10E5000020464146FCF776FB0020F6E7B0B582B026
:10E5100007281CD84FF2C4454301C2F20025EB582E
:10E52000ABB14C7805EB4015CCB1880708BF102A79
:10E5300019D01AA009F018FC49F688704FF42E7112
:10E54000C0F2022012F002FC6FF00F0018E0F1F7A9
:10E550005DFF102101604FF0FF3002B0B0BD1846E2
:10E5600003F050FB0BE0022CE3D14888496801918D
:10E5700000F056FB0246286801A903F0EDFA48B105
:10E58000FAF73CFC00282874E5D00446F1F73EFF7A
:10E590000460E0E700202874DFE700BF6C77697053
:10E5A0005F636F6E6E6563743A20696E76616C6945
:10E5B00064206164647265737300000010B50728FD
:10E5C00015D84FF2C44C4301C2F2002C5CF8033062
:10E5D0006BB1042912D0032914D193F830100CEB3D
:10E5E000401201F0020188020021117410BDF1F700
:10E5F0000DFF102101604FF0FF3010BD6FF400617E
:10E600000A4207D00CEB40102D240474F1F7FEFEF3
:10E610000460F0E793F830E0022101EA92240EF062
:10E62000FD020CEB4011101983F830000020087433
:10E6300010BD000010B548B1014600BF0C20CC69E8
:10E6400002F03EFB21460CB12FF009C010BD0000C6
:10E650002DE9F04782B0002B41D01C460546084307
:10E660004FF00000186001D1C82039E0164632B1E1
:10E670006FF002007268024201D0CC2030E051B14C
:10E680000846F1F73FFF8146A0F5803010F5803F46
:10E6900003D8C92024E04FF000094DB116B13078FD
:10E6A000400710D401A9284603F01AFCB8B910E0BD
:10E6B00016B13078C0071AD17F204FF00008C0F2A1
:10E6C0000010019017E001A92846FDF7BBFB0028C8
:10E6D000CAD02846F1F7B9FFB0F5807F03D9CA2028
:10E6E00002B0BDE8F087804600F1310A05E04FF046
:10E6F0000008CDF804804FF0300A1BA10C204FF425
:10E70000B67202F049FB60B351460746F2F7B4F81F
:10E71000BA464FF404702AF8200F0198CAF8040092
:10E720001FFA89F000F07CFAAAF802004FF002000C
:10E730004AF81C0C1EB1D6E90201C7E9020155B125
:10E7400007F1300029464246B86109F0CFFCB869AC
:10E75000002100F808101020C7E9040A00202760F3
:10E76000BEE7CB20BCE700BF72742D746872656190
:10E77000642F636F6D706F6E656E74732F6E65744A
:10E780002F6C7769702F6C7769702D322E302E3395
:10E790002F7372632F6170692F6E657464622E63CC
:10E7A000000000002DE9F04186B007281BD84FF289
:10E7B000C44804464001C2F2002858F8000090B155
:10E7C00016460D4601A90DF1020203F025FBA0B18A
:10E7D000FAF714FB08EB4411087440B10446F1F752
:10E7E00015FE046003E0F1F711FE102101604FF007
:10E7F000FF37384606B0BDE8F081BDF802004FF49F
:10E800000471ADF8081000F00BFA32680027112AE5
:10E81000ADF80A0001980390CDE9047701D31022E6
:10E82000326002A9284609F061FC08EB4410077425
:10E83000DFE7F0B581B06946044603F051FB38B11B
:10E8400042F24030D221C2F200200160002028E0D4
:10E8500042F2545042F25C66C2F20020C2F200263C
:10E8600042F258550099C2F2002501600027C6E91E
:10E8700000074FF4807228462146F2F724F842F24E
:10E88000405042F23C51C2F20020C2F2002102226A
:10E8900085F800710F600423C0E9005100F1080100
:10E8A0004CC101B0F0BD2DE9F04782B0DDE90A9717
:10E8B00001AE002F56EA0784B9F1000F09D00546D2
:10E8C00000284FF00000C9F800001CBF8A4600294C
:10E8D00006D1052020604FF0FF3002B0BDE8F08780
:10E8E0001746002AF5D028461E46F1F7AEFE8046B0
:10E8F0001430B04201D90220ECE7F81C20F00307E5
:10E90000284607F10806314603F0EAFA08B1D2209A
:10E91000E0E707F1100429462046424609F0E6FBED
:10E920003946002004F808000222C7E900600423E9
:10E9300041F80C0FCAE900410AF108018CC1C9F87D
:10E9400000A0CAE70023FFF72DBF0123FFF72ABF6E
:10E950002DE9F041072840D80E464FF2C441154634
:10E960004201C2F200218A58002A36D01C46002BF0
:10E9700001EB401839D0069F002F36D042F23850B4
:10E98000C2F2002012F038FBD8F80000002833D083
:10E99000002E33D0062E46D040F6FF718E4240F056
:10E9A00006811F2D4FF0630640F35C8041F20201A7
:10E9B000691A082900F29F80DFE811F00900FA00C7
:10E9C000FA00A800AD00C000DB00FA00E9003968D9
:10E9D0000429C0F0EA80806A14E1F1F717FD1021E4
:10E9E00001604FF0FF30BDE8F081152488F8104039
:10E9F000F1F70CFD0460F4E71026D9E0691E6326E8
:10EA0000062900F2D580DFE801F00434D3D33E4E6E
:10EA10005B0039680429C0F0C8808068002800F0D5
:10EA2000C480407AEEE039680429C0F0BE80816875
:10EA3000002900F0BA80006800F0F000102840F0D3
:10EA4000B6804869012800F0B080681E042800F2F2
:10EA5000AE80DFE800F003BEC1C4CE00887FC0F303
:10EA60008010CFE0022D36D0042D46D0082D44D0A2
:10EA70009EE039680429C0F098808068002800F082
:10EA80009480807ABEE03968002900F08E80816829
:10EA9000002900F08A80006800F0F000202840F093
:10EAA0008680087F91E0396804297ED38168002937
:10EAB0007BD0006800F0F000202878D18869A1E0C0
:10EAC0003968002971D0806800286ED0007C00076A
:10EAD0007AD4002079E03968042966D38168002956
:10EAE00063D0006800F0F000102860D14869012868
:10EAF0006DD0002086E0202D5AD13968042954D3E6
:10EB00008068002851D0007A28407BE039680829C5
:10EB10004BD3006A03E03968082946D3406A44F6BB
:10EB2000D351C1F26201A0FB011291094FF47A7234
:10EB300001FB120021605043606064E039680429E1
:10EB400033D3464616F8105F7A2D18BF002D0AD130
:10EB500090F90C00FAF752F9002830704CD00546B5
:10EB6000F1F754FC0560E8B2FF2808BF4FF0FF3012
:10EB700043E03968042918D3006800F0F001102937
:10EB800025D020293DD040293CD103203AE03968E6
:10EB900004290AD3816841B1006800F0F000202800
:10EBA00005D1087C00F001002CE0052600E063267A
:10EBB00042F23850C2F2002012F084FA88F8106055
:10EBC000F1F724FC06600CE7012020701BE0012017
:10EBD00018E0D1F8940015E0D1F8940001E0D1F8E4
:10EBE000980044F6D351C1F26201A0FB01018809EB
:10EBF00008E0D1F89C0005E0002020600020307083
:10EC000001E00220206042F23850C2F2002012F0EF
:10EC100059FA002088F81000BDE8F08100BA70476A
:10EC200040BA704780B512F041F902F044F802F0A2
:10EC300071F804F0ABFF16F0A2FE13F0C4F9FCF774
:10EC4000C7F9F9F717FDBDE8804012F073BB70B546
:10EC500007282FD84FF2C44314464201C2F20023C2
:10EC60009A583AB346F27E65C4F20405A94203EB12
:10EC7000401526D046F27F60C8F20400814228D1B8
:10EC800094B312F0D8F82968CE6A12F00DF96968C9
:10EC900026EAE670206021B32A68126802F0F002CA
:10ECA000102A18BF096809892A89891A10FA81F07F
:10ECB000206016E0F1F7AAFB102101604FF0FF3051
:10ECC00070BD44B1206830B192F8300040F00200CD
:10ECD00005E02D2409E092F8300000F0FD0082F8F4
:10ECE00030000020287470BD05242C74F1F78EFBD1
:10ECF0000460E3E74FF00000B1B14BF6F022C2F23E
:10ED00000022126882B100BF92F8410000F00500B5
:10ED1000052804D1506810B10B68834205D01268F1
:10ED20000AB12FF00FC80020704710467047B0B5E9
:10ED300007281DD84FF2C4434201C2F200239A585B
:10ED4000B2B103EB4015104621EAE171FF2928BF5B
:10ED5000FF2103F06DF990B12968096801F0F00115
:10ED600010290FD1FAF74AF8287428B104460BE0AD
:10ED7000F1F74CFB102101604FF0FF30B0BD0020D7
:10ED80002874B0BD66242C74F1F740FB0460F3E7EF
:10ED900010B50168044691F90C0010F10C0F01DA6E
:10EDA000207110E0FA202071886860B1096801F0D4
:10EDB000F001102918D020291BD0402903D1A168C7
:10EDC00007F015F8ECE7206868B112F034F8216814
:10EDD00091F90C2012F10C0F01DB22790A73BDE8C6
:10EDE000104012F061B810BDA289A16812F092FC27
:10EDF000D6E7A289A16816F01DFDD1E7B0B504469B
:10EE00000068816881B1016801F0F00110290BD11F
:10EE1000217A4268032901D0022A05D0032A03D0AF
:10EE2000012A11D1FB2000E0F520207112F003F837
:10EE3000216891F90C2012F10C0F01DB22790A7381
:10EE4000BDE8B04012F030B8C90702D002F00CFFA4
:10EE50002068816B09B9416B71B149F6F760C0F266
:10EE6000022008F081FF49F6BC6040F21C71C0F23C
:10EE7000022011F06BFF20680421416000218463AF
:10EE800000F036F898B32068406804280DD049F6A1
:10EE90006360C0F2022008F067FF49F6BC6040F2F0
:10EEA0002171C0F2022011F051FF42F23855C2F236
:10EEB0000025284612F006F920680021103011F0D4
:10EEC000BCFF284612F098F82068406878B149F6EF
:10EED0006360C0F2022008F047FF49F6BC6040F2D0
:10EEE0002571C0F20220BDE8B04011F02FBFB0BDC7
:10EEF0002DE9F04F81B00446884650B99BA008F038
:10EF000033FF49F6BC6040F24331C0F2022011F0F9
:10EF10001DFF206800F0F00010280AD097A008F02C
:10EF200023FF49F6BC604FF45171C0F2022011F08A
:10EF30000DFF606804280AD098A008F015FF49F674
:10EF4000BC6040F24531C0F2022011F0FFFEA06823
:10EF500050B99BA008F008FF49F6BC6040F246316A
:10EF6000C0F2022011F0F2FEA06B70B949F6956074
:10EF7000C0F2022008F0F8FE49F6BC6040F24731CA
:10EF8000C0F2022011F0E2FEA06B007AA76803280D
:10EF900000F0010A00F002091BD0BAF1000F0FD1F6
:10EFA000B9F1000F02D0B87FC00612D4BB465BF89F
:10EFB000140F01281CD10021384612F0DCFA2BE096
:10EFC00078690828ECD8012101FA00F010F4B07F2C
:10EFD000E6D000213846002512F099FBBB465BF8CD
:10EFE000140F012805D10021384612F0C4FA24E09C
:10EFF0000125BAF1000F07D00021384615F020F99D
:10F000000021384612F0B7FAB9F1000F03D0002101
:10F01000384615F037FB3DB1384651464A4615F0A3
:10F020005DFB064601250DE000210022384614F064
:10F03000D9F80021384612F04DFF384612F0E0FBB7
:10F0400006460025701C0BD0A06B002E01680671CF
:10F0500001F110074FF00000A063606071D149E03A
:10F06000266A002ED8BF44F6206612F02EF8A16B57
:10F07000CA68801AB0425FEAAF922A432FD0B042EA
:10F0800057DADBF8000001280AD152A008F06CFE24
:10F0900049F6BC6040F2E331C0F2022011F056FEA6
:10F0A000B9F1000F06D04FF627713846C0F20121A2
:10F0B00015F0E8FA44F69B510122C0F201213846CE
:10F0C00014F090F848F67D413846C0F2002112F065
:10F0D00001FF3846214612F01AFBFF2042E0384675
:10F0E00012F046FAA06B016801F1100700210171CE
:10F0F000A16361603DB9E36B0020A0601BB10421F6
:10F10000002220469847BAF1000F05D0E36B1BB1EF
:10F110000021002220469847B9F1000F07D0E36B89
:10F120002BB10221002220460026984709E0002644
:10F1300007E00868FF2600F110070E710020A063A9
:10F14000606011F078FE94F90C1011F10C0FA8BF5B
:10F15000267311F0A9FEB8F1000F02D0384612F064
:10F160001EF8002040B201B0BDE8F08F696E7661F4
:10F170006C696420636F6E6E0000000074686973D0
:10F1800020697320666F7220746370206E657463EB
:10F190006F6E6E73206F6E6C79000000636F6E6E21
:10F1A000206D75737420626520696E2073746174BC
:10F1B00065204E4554434F4E4E5F434C4F534500E0
:10F1C00070636220616C726561647920636C6F7337
:10F1D00065640000436C6F73696E672061206C6921
:10F1E0007374656E20706362206D6179206E6F7438
:10F1F000206661696C210000B0B50168044688682A
:10F2000060B10A6802F0F002102A09D0202A0DD05D
:10F21000402A10D1A16806F0F3FD59E0F12057E033
:10F220004868A8B1032852D1F72051E0A289A1680B
:10F2300016F072FB4CE033A008F096FD49F6BC6076
:10F2400040F2F241C0F2022011F080FDFA203FE0CE
:10F25000084610F0B4FE2068A2894FF21D33A16861
:10F260008068C0F2002312F0D1FB207188BB2068B7
:10F2700090F830108A074FF0030242603BD442F20C
:10F28000385501F0FB01C2F2002580F8301084638C
:10F29000284611F017FF20680021103011F0CDFD35
:10F2A000284611F0A9FE20684068032829D149F6B4
:10F2B0006360C0F2022008F057FD49F6BC6040F2DE
:10F2C000E941C0F20220BDE8B04011F03FBDF62098
:10F2D00020712068002808BFB0BD11F0ACFD216886
:10F2E00091F90C2012F10C0F01DB22790A73BDE8B1
:10F2F000B04011F0D9BD41F0040180F83010FB207E
:10F30000E6E7B0BD496E76616C6964206E65746332
:10F310006F6E6E207479706500000000F0B581B0EA
:10F32000B0B104464068164603280AD033A008F05E
:10F330001BFD49F6BC604FF49361C0F2022011F04E
:10F3400005FDA06B30B10168067101F1100514E0F4
:10F35000FA204FE094F8300040070DD42FA008F0B9
:10F3600003FD49F6BC6040F29A41C0F2022011F060
:10F37000EDFCA06B0028E6D100253EB9206800F026
:10F38000F000102802D1204610F019FE94F8300049
:10F39000002D5FEA0F9100F004065FEA1F92002E35
:10F3A00051EA028100F0FB0084F8300051B92BA033
:10F3B00008F0DAFC49F6BC6040F2A741C0F2022036
:10F3C00011F0C4FC0027A763676011F034FD94F9C5
:10F3D0000C1011F10C0FA8BF277311F065FDE36B42
:10F3E0001BB1022100222046984716B9284611F089
:10F3F000D6FE002040B201B0F0BD00BF636F6E6E5C
:10F400002D3E7374617465203D3D204E4554434F3D
:10F410004E4E5F434F4E4E454354000028636F6E7F
:10F420006E2D3E63757272656E745F6D7367202119
:10F430003D204E554C4C29207C7C20636F6E6E2DF8
:10F440003E696E5F6E6F6E5F626C6F636B696E6755
:10F450005F636F6E6E65637400000000626C6F63C3
:10F460006B696E6720636F6E6E6563742073746181
:10F470007465206572726F7200000000B0B50446BA
:10F4800000684568EDB1006800F0F00010280AD06F
:10F4900054A008F069FC49F6BC6040F20141C0F29A
:10F4A000022011F053FC032D03D0022D06D1206859
:10F4B00007E0206890F83010490702D4FB20207143
:10F4C00079E00021217102F0CFFB206881680029DA
:10F4D00066D0026802F0F002102A07D0202A56D027
:10F4E000402A59D1084606F031FD55E0816B09B933
:10F4F000416B71B149F6F760C0F2022008F034FCAC
:10F5000049F6BC6040F23541C0F2022011F01EFC09
:10F510002068042141600321217200218463FFF7E8
:10F52000E7FC00285CD02068406804280DD049F62C
:10F530006360C0F2022008F017FC49F6BC6040F29C
:10F540003B41C0F2022011F001FC42F23855C2F2F8
:10F550000025284611F0B6FD20680021103011F07A
:10F560006CFC284611F048FD20684068C0B349F69D
:10F570006360C0F2022008F0F7FB49F6BC6040F27D
:10F580003F41C0F20220BDE8B04011F0DFBB0022D5
:10F590004A62806816F01EFB2068002181602068A6
:10F5A000C36B43B10021002298472068C36B13B19D
:10F5B0000221002298472068103011F0F3FD78B145
:10F5C000206868B111F037FC216891F90C2012F124
:10F5D0000C0F01DB22790A73BDE8B04011F064BC66
:10F5E000B0BD00BF6E6574636F6E6E20737461741E
:10F5F00065206572726F7200B0B5044600680168DC
:10F6000001F0F00120290AD1806816F0B0F92068D5
:10F6100025464FF0000105F8041F20B9B0BD25466E
:10F62000FA2005F8040F11F006FC216891F90C206E
:10F6300012F10C0F01DB2A780A73BDE8B04011F01B
:10F6400033BCD06829B10023037050680968016099
:10F6500001E0FA210170906811F0A1BD10B50446D7
:10F6600000688168E1B3227C002A08BF0431036886
:10F67000D4F808C00A6803F0F0011029CCF8002083
:10F680004FF00002227109D020290CD0402910D15E
:10F69000217C29B38068E168007C27E0217C8068B8
:10F6A000D9B11A3020E0217C806881B1E168408ABC
:10F6B0001CE016A008F058FB49F6BC6040F2DD6182
:10F6C000C0F2022011F042FB206880B910BD017C1D
:10F6D000490705D5E168808A08E04169012902D817
:10F6E000F520207103E01C30E1680088088011F0EB
:10F6F000A2FB216891F90C2012F10C0F01DB227999
:10F700000A73BDE8104011F0CFBB00BF696E76618F
:10F710006C6964206E6574636F6E6E5F747970657A
:10F720000000000010B582B004464FF2436200684A
:10F73000C0F200226168002300932346F8F760FEC0
:10F74000E1680870E0680078FB2801D102B010BDC4
:10F75000A06802B0BDE8104011F021BD10B504460C
:10F76000006890F90C1011F10D0F01DC217115E00A
:10F77000816861B1006800F0F000202809D120699B
:10F780000028D4E9021006D0FBF798FD05E0F5202B
:10F7900003E0FA2001E0FBF77DFC2071206868B1EE
:10F7A00011F049FB216891F90C2012F10C0F01DBDB
:10F7B00022790A73BDE8104011F076BB10BDB0B5D8
:10F7C00082B00168044691F90C0010F10C0F13DBB4
:10F7D000F5202071886880B10A6802F0F002102AD2
:10F7E00007D14968022906D039B9416999B1FA208F
:10F7F00002E0F02000E00020207111F01CFB2168E5
:10F8000091F90C2012F10C0F01DB22790A7311F02F
:10F810004BFB02B0B0BD0DF10702FF2113F026F83B
:10F82000B8B105462068143011F0E1FB38B120680A
:10F83000143011F03CFB2068143011F0CDFB21682E
:10F840000020207101F1180011F0D1FB28B12079BE
:10F8500009E09DF8070020711EE020680A21183099
:10F8600011F04AFB2071000606D0284611F0C8FFAF
:10F870002068002181600FE02068022285604260DC
:10F880002168886811F043FF206843F61B51C0F2DD
:10F890000021806811F06FFE20680028ADD1B8E724
:10F8A00010B50446006800212171816800293ED10D
:10F8B000006800F0F000102813D020281CD0402849
:10F8C00033D1217A002006F03BFB21688860226852
:10F8D000906828B346F21511C0F2012106F033FBFF
:10F8E0001EE0002013F080F821688860206881689D
:10F8F000B1B110F064FB13E0002016F053F9216859
:10F9000088602268906858B11168222902D10121CB
:10F910000174906846F2FD21C0F2012116F057F9FA
:10F920002068806818B9FF2000E0FA20207111F0EB
:10F9300082FA216891F90C2012F10C0F01DB227977
:10F940000A73BDE8104011F0AFBA0000F0B581B005
:10F950000446006800212171816899B1006800F0B7
:10F96000F00010280ED1A6684FF6FF772068BE423F
:10F9700056EA37858068294614F0A8FC761BF5D135
:10F98000206870B111F057FA216891F90C2012F13A
:10F990000C0F01DB22790A7301B0BDE8F04011F0D1
:10F9A00083BA01B0F0BD10B50168044691F90C00AE
:10F9B00010F10C0F01DA207113E0F5202071886836
:10F9C00078B1096801F0F00120291BD0402908D145
:10F9D000A1680A46096852F8083FF3B106F0D0FA68
:10F9E000E9E7206868B111F026FA216891F90C2046
:10F9F00012F10C0F01DB22790A73BDE8104011F0FF
:10FA000053BA10BDA3681A4652F8081F0029196896
:10FA100006D09B8916F0FDF8CDE706F0AEFACAE7EE
:10FA200016F0EFF8C7E70000B0B50446006890F99B
:10FA30000C1011F10C0F09DB016801F0F001102925
:10FA400003D1416889B1FB2100E0FA21217111F055
:10FA5000F2F9216891F90C2012F10C0F01DB2279E7
:10FA60000A73BDE8B04011F01FBA8168002960D068
:10FA7000816B00294FF00101416001D1406B68B1F9
:10FA800049F6F760C0F2022008F06EF949F6BC6052
:10FA900040F28361C0F2022011F058F9E06850B9D9
:10FAA00025A008F061F949F6BC6040F28461C0F21B
:10FAB000022011F04BF920680021C0E90D1400214B
:10FAC00000F044F8A0B32068406801280DD049F642
:10FAD0006360C0F2022008F047F949F6BC6040F2CA
:10FAE0008961C0F2022011F031F942F23855C2F2B8
:10FAF0000025284611F0E6FA20680021103011F0A8
:10FB00009CF9284611F078FA2068406801280FD146
:10FB100049F66360C0F2022008F026F949F6BC609D
:10FB200040F28D61C0F20220BDE8B04011F00EB984
:10FB3000B0BDF5218AE700BF6D73672D3E6D736719
:10FB40002E772E6C656E20213D2030002DE9F04F80
:10FB500081B00546884668B949F6AF60C0F2022018
:10FB600008F002F949F6BC6040F2E351C0F202200D
:10FB700011F0ECF8686801280AD08AA008F0F4F8BF
:10FB800049F6BC6040F2E451C0F2022011F0DEF808
:10FB9000A86B68B949F69560C0F2022008F0E4F855
:10FBA00049F6BC6040F2E551C0F2022011F0CEF8F7
:10FBB000A86850B983A008F0D7F849F6BC6040F2B5
:10FBC000E651C0F2022011F0C1F8AA6B696BD0684F
:10FBD00081420BD381A008F0C7F849F6BC604FF40E
:10FBE000BD61C0F2022011F0B1F8AA6B147C95F847
:10FBF000300000F0020004F004014018286A5FEAB7
:10FC00000F9938B111F061FAAA6B296A5369C01AC9
:10FC1000884248DA6B6BD2F80CC0ACEB03074FF6A6
:10FC2000FF76A8684FF0000E44F00201BEEB174FBC
:10FC300051EA1484B74257EA3686B0F86470926885
:10FC4000B74254EA218B57EA368AB74205D299F077
:10FC5000010102D167B3A346BA4613FA8AF1D71855
:10FC600061450ED949F66A60C0F2022008F07CF8BE
:10FC700049F6BC6040F21361C0F2022011F066F850
:10FC8000A8681FFA8AF239465B4615F07FF80646E7
:10FC90000130C0B2012830D8B9F1000F1BD0A86BD9
:10FCA000D0F80CC007E0686B002874D0D06040E04A
:10FCB0004FF0000AF9261FFA8AF294450BD9EB6B34
:10FCC00013B103212846984795F8300040F0100002
:10FCD00085F8300011E0A86841F20302B0F8641022
:10FCE000914203D3B0F866000B2806D3EB6B23B127
:10FCF0001FFA8AF2032128469847F0B2FF281AD04B
:10FD000048BBD5E90D1011FA8AF16963C2689142C6
:10FD10005FEA1F9242EA0904012C08BFC160A8688B
:10FD200012F0E8FE064610F10C0F14DB301D12D065
:10FD3000ACB3002612E0A86812F0DCFE064610F113
:10FD40000C0F08DB301D06D0B9F1000F27D0A86BCF
:10FD50000021F92601E0A86B0021C160A86B0468AE
:10FD600006710020C5E90D00686011F064F895F98E
:10FD70000C1011F10C0FA8BF2E7311F095F8B8F10B
:10FD8000000F03D004F1100011F009FA002040B276
:10FD900001B0BDE8F08F0020D060F926DEE7FF203B
:10FDA000F5E700BF636F6E6E2D3E7374617465205E
:10FDB0003D3D204E4554434F4E4E5F5752495445AA
:10FDC00000000000636F6E6E2D3E7063622E7463E0
:10FDD0007020213D204E554C4C000000636F6E6E2C
:10FDE0002D3E77726974655F6F6666736574203C3B
:10FDF00020636F6E6E2D3E63757272656E745F6DFB
:10FE000073672D3E6D73672E772E6C656E00000054
:10FE100080B5FDF72FFEBDE88040FEF7D5B80000A5
:10FE20002DE9F04794B044F6D3594FF47A75C1F2F6
:10FE300062099246A3FB09760F46B409064604FB05
:10FE4000153303FB05F0CDE911404FF00000CDE97B
:10FE500006003EB94AF62F5148A0C0F20221DD2229
:10FE600006F06CFBDDF870803FB94AF62F5145A0D3
:10FE7000C0F20221DE2206F061FBB8F1000F07D1CB
:10FE80004AF62F5141A0C0F20221DF2206F056FBB4
:10FE900008AC00212022204608F070FC07AB0021AE
:10FEA00038462246FEF7D4FB28B16FF0FE04204608
:10FEB00014B0BDE8F0870798042200F1140106A8E9
:10FEC00008F014F9069805AC011D0422204608F03C
:10FED0000DF90798FEF7AEFB2046FCF77BF810A95A
:10FEE000FBF7B0FF0028E0D010A90422404608F03C
:10FEF000FDF802200321012200F090FD0028D4D457
:10FF000007464FF4047001903069029001A9102255
:10FF10003846FEF75BFA11AB40F6FF7141F206027C
:10FF200008200090384600F09FFB10A93846524642
:10FF300000F0BEF810B16FF074041AE00BF0A6FAEE
:10FF4000054613A9384600F06DF80028F3D406469C
:10FF50000BF09CFA401B4FF47A7148430024A8F838
:10FF60000460A0FB090188091399A8F80610C8F8D5
:10FF700008003846FEF77AFA99E700BF6E657469A3
:10FF800066000000686F73740000000070696E679F
:10FF90005F7265737000000070B51C46164605461A
:10FFA00039B136B12CB1686C3246234603F0A7FE56
:10FFB0000DE011B1686C03F04AFF1EB1686C314668
:10FFC00003F0B5FF1CB1686C214603F02FFF002041
:10FFD00070BD80B5406C03F006FF002080BDB0B559
:10FFE0000C46054603F0CBF8012C686C02D1F7F7FC
:10FFF00095FF01E0F8F712F80020B0BD80B5084683
:020000040201F7
:100000001146F8F703FD002080BD80B5406C03F079
:10001000F0FE002080BD80B5406C03F099FF002009
:1000200080BD00002DE9F04F99B0054609AE884625
:100030001020089040220023284631460DF1200967
:1000400004ACCDE9004900F0CBF8074601282ADBD3
:100050004BF6884B4AF6AF7AC2F2002BCDF80C80F3
:100060001C2F10D39DF8240000F00F0006EB800039
:100070008188514507D1B0F80680BBF80000FEF733
:10008000CFFD80450BD04022002328463146CDE9E4
:10009000004900F0A5F807460028E1DC03E00399D9
:1000A0009DF82C000860384619B0BDE8F08F0000BC
:1000B0002DE9F04387B002F108048946B4F5803F8A
:1000C000804606DB30A007F04FFE35A0522110F02D
:1000D0003DFE204607F078FE002846D0074608215E
:1000E0006FF00700002239804BF68841C2F20021F0
:1000F00010FA84F6A5B2CAF6AF720B88C7F80220D0
:10010000581C088080B2FEF78BFDF88076B11AA1EA
:1001100091ED001F102107F1080006F001E000BF7B
:10012000A0EC101E01EE410F1FF007C03846294613
:10013000FBF747FB78804FF40470ADF80C00D9F85A
:1001400000000490102003A90023CDE900104046D0
:100150003946224600F0D4F90546384606F0CAFF73
:10016000281B18BF6FF0050000E0FF2040B207B069
:10017000BDE8F08300BF00BF0001020304050607CD
:1001800008090A0B0C0D0E0F70696E675F73697AB0
:100190006520697320746F6F20626967000000003A
:1001A00072742D7468726561642F636F6D706F6E09
:1001B000656E74732F6E65742F6C7769702F6C7712
:1001C00069702D322E302E332F7372632F61707051
:1001D000732F70696E672F70696E672E6300000061
:1001E0002DE9F04F8FB0072805914FF000010E91D7
:1001F00000F2FF804FF2C44116464201C2F20021D4
:100200008A58002A00F0F580DDE9187201EB4018E9
:1002100008F10400069003F008000190002F5FEA47
:100220000F90002A5FEA0F91002408F10A0202925F
:1002300008F10802079203F00102049208400390BB
:100240000698006810B10E9030E000BF019828B900
:10025000D8F8000090F83010890707D50298B0F957
:1002600000000128C0F2D780D8F80000016801F032
:10027000F001102903D10EA902F0C8F802E00EA97E
:1002800001F0A6FF0746002840F0BA800E9858B942
:100290006EA007F069FD49F688704FF45071C0F206
:1002A000022010F053FD0E9806990860D8F800104F
:1002B000096801F0F00110290EA951EA00800799A0
:1002C0000B88D0F80090B9F80800C01A1FFA80FB1C
:1002D0005E4550EA868705981FFA87FA0119484655
:1002E000524604F08BF9D8F8000014FA87F400683D
:1002F00000F0F00010281DD156450AD256A007F094
:1003000033FD49F688704FF45771C0F2022010F0A7
:100310001DFDB6EB0A060CD099F80D00C00709D1F7
:10032000049838B90298B0F90000002802DD0125D0
:1003300038E00026039890B3D8F80000016801F077
:10034000F00110290AD10CAD002329460DF1360227
:1003500001F062FDBDF8360006E000BF0E9901F124
:1003600008058889ADF836004FF40471ADF8201007
:10037000FEF756FC9DF82010199AADF82200286867
:10038000126809908A424FF00000CDE90A0002D9B4
:1003900019980A460160189808A907F0A7FE049862
:1003A000D0BB0025D8F80000006800F0F00010284D
:1003B0000BD1D34509D9079B069A0E98198810606E
:1003C0003944198045B32FF0C3C8102807980699FF
:1003D0004FF000024FF0000702800E980A6002D131
:1003E00004F072F901E001F0F3F90E97A5B12FF0D6
:1003F000D9C8F0F70BF8102101604FF0FF340EE080
:100400008CB117F10F0007D1D8F8000000210022AD
:10041000F9F7BCFD00E0ACB1002088F810002046E0
:100420000FB0BDE8F08F3846F8F7E8FC88F8100008
:1004300018B10446EFF7EAFF046017F10F005FEA16
:100440000FA4ECE7EFF7E2FF1221D5E76275662013
:10045000213D204E554C4C00696E76616C696420DC
:10046000636F70796C656E2C206C656E20776F758C
:100470006C6420756E646572666C6F7700000000B6
:10048000F0B583B007282BD84FF2C447044640018B
:10049000C2F20027385818B3056805F0F005102D92
:1004A00026D10225042605EAD30506EA53030026D1
:1004B0002B440296013302AE009601F0FDFF054683
:1004C000F8F79CFC07EB4411087418B10446EFF7E9
:1004D0009DFF04600298002D18BF4FF0FF3005E02B
:1004E000EFF794FF102101604FF0FF3003B0F0BD33
:1004F0000020CDE90000204600F002F8F6E70000F9
:100500002DE9F04784B0072816D84FF2C4470646B5
:100510004001C2F20027385870B10068154600F05B
:10052000F0000C46102811D1304621462A4604B06E
:10053000BDE8F047FFF7A4BFEFF768FF10210160A7
:100540004FF0FF35284604B0BDE8F087B5F5803F91
:10055000DDE90C9A0AD333A007F006FC49F688704F
:1005600040F29441C0F2022010F0F0FB07EB461875
:10057000B9F1000F08BFBAF1000F1DD0BAF1100F8A
:1005800008BF5FEA89703DD02FA007F0EDFB49F668
:10059000887040F29941C0F2022010F0D7FB6FF052
:1005A0000F00F8F72BFC002888F81000C8D004468C
:1005B000EFF72CFF0460C3E70020CDE900000290B4
:1005C000ADB2ADF80C00684621462A4601F038F974
:1005D000044628B9D8F80000694601F033FF044604
:1005E000684601F007F92046F8F708FC88F8100083
:1005F00018B10646EFF70AFF0660002C18BF4FF04F
:10060000FF359FE799F801000228BDD10020CDE910
:100610000000B9F80200D9F804100291FEF700FBBF
:10062000CEE700BF6C7769705F73656E64746F3A74
:100630002073697A65206D7573742066697420690A
:100640006E207531365F74006C7769705F73656E0C
:1006500064746F3A20696E76616C696420616464C9
:100660007265737300000000F0B583B0072835D8B9
:100670000E464FF2C44115464201C2F200218A588B
:1006800062B31C4601EB40176BB342F23850C2F222
:10069000002010F0B1FC386858B308995EB3062EFC
:1006A0005CD040F6FF72964240F0FD8041F20202BB
:1006B0006326AA1A082A00F27380DFE812F0090004
:1006C000F500F5008A009B00F500F500F500AC0090
:1006D0000429C0F0E680216881624CE1EFF796FEC4
:1006E00010210160EAE015243C74EFF78FFE0460EE
:1006F000E4E01026D8E06A1E062A00F2D480DFE883
:1007000002F09CA30404AAB5C1000829C0F0C98066
:100710008168002900F0C580006800F0F000202802
:1007200040F0C180D4E90001032DCDE9010140F082
:10073000C9804FF25C420823C2F200221668002EE4
:1007400000F0F380013B02F10C02F7D142F2385085
:10075000C2F2002010F0B6FC0626ABE00429C0F07F
:10076000A0808168002900F09C80006800F0F00003
:10077000102840F098804869012800F09280681E97
:10078000042800F29080DFE800F003BCBEC5CC0076
:100790002268887F002A00F0EB8040F04000E9E00A
:1007A0002A1F1C2A00F28080012303FA02F211237F
:1007B000C1F200031A4277D0042972D3806800285E
:1007C0006FD02268017A002A0CBFA9432943017225
:1007D000D1E0082965D344F6D353D4E90012C1F21D
:1007E0006203A2FB03234FF47A72514301EB93118E
:1007F0000162C0E0082954D344F6D353D4E900126F
:10080000C1F26203A2FB03234FF47A72514301EB5E
:1008100093114162AFE0042943D38168002940D09D
:10082000006800F0F00020283DD12268087C002AF2
:1008300000F0878040F0010085E0042931D3806812
:1008400078B32168417296E004292AD3806840B3C6
:10085000216881728FE021B3816811B3006800F0D4
:10086000F00020281FD12078087784E0042918D3CD
:100870008168B1B1006800F0F000202813D1206831
:10088000886178E069B1816859B1006800F0F000D2
:10089000202808D12278087C002A4FD040F0080098
:1008A00051E0052600E0632642F23850C2F20020F3
:1008B00010F008FC3E74EFF7A9FD06604FF0FF3022
:1008C00003B0F0BD02A801A9FAF7F8FC39680446A4
:1008D000D9B34FF25C400299C2F2002008220830DE
:1008E000019B50F8086CBE4206D150F8046C8E4251
:1008F00002D106689E4247D0013A00F10C00F0D1C7
:1009000027E0206803E020684FF47A725043C1F872
:10091000940030E020684FF47A725043C1F8980098
:1009200029E02068C1F89C0025E0C2E9007101A916
:10093000906002A8FAF7AEFB04460AE000F0F70068
:1009400001E000F0FE00087415E0EFF75FFD1021F4
:10095000016042F23850C2F2002010F0B3FB07F100
:10096000100114B16A260E70A5E700200870A7E7F1
:1009700000F0BF00887742F23850C2F2002010F039
:10098000A1FB002038749BE7002140E90211DFE75A
:1009900070B507282FD84FF2C44604464001C2F272
:1009A0000026305838B3026802F0F002102A27D12E
:1009B000032929D24FF6F87240F20013C0F2FF0269
:1009C000C0F2010302EAC1014FF00112CA40CB405C
:1009D000D1B2DAB201F066FD0546F8F70FFA06EB80
:1009E0004411087418B10446EFF710FD0460002D9F
:1009F0005FEA0FA070BDEFF709FD102101600AE06A
:100A000006EB4410662402E006EB4410052404744F
:100A1000EFF7FCFC04604FF0FF3070BD10B501290A
:100A20000AD002290CD0032924D1D1B249F68D7203
:100A3000C0F2002240200DE049F68D72102006E041
:100A4000882A49F68D724FF0200050EA1090C0F2CB
:100A50000022002101F01CFB044638B10021204691
:100A6000F3F7CEF9411C09D0E06110BDEFF7CEFCE1
:100A7000702109E0EFF7CAFC052105E0204601F0EE
:100A8000A5F8EFF7C3FC1E2101604FF0FF3010BD49
:100A900010B5012900F001044FF0000306DB2CB172
:100AA00010F8012B01394FEA022C01E04FF0000C45
:100AB000CA1E52EA238202290ADB0132012303EB18
:100AC000520E002330F8022B023913440FF007C0F6
:100AD000012901D1007800E0002040EA0C00002C40
:100AE00018444FEA104111FA80F04FEA104111FA10
:100AF00080F001BA18BF080C80B210BDB0B500BFBD
:100B000011F801EB10F801CBF4450BD04CF02005A7
:100B1000A5F16103192B4FF001030BD84EF020040F
:100B2000A54207D1541E0023944203D2BCF1000F0A
:100B30002246E5D11846B0BDF0B589B042F26467EF
:100B4000C2F200273878012804D13BA007F00CF945
:100B5000002435E0F8F7FAFA4BF6EC200021C2F257
:100B6000002000220023016017A1684608F0E0FF82
:100B700048B117A007F0F8F81CA0472110F0E6F8DC
:100B80004FF0FF341CE045F22D606D46C0F20220AC
:100B9000294614F0DFFC4FF0FF3128464FF0FF34B8
:100BA00009F053F80646284608F05EFF46B91BA038
:100BB000022100220323002407F0D6F80120387018
:100BC000204609B0F0BD00BF646F6E6500000000F4
:100BD0004661696C656420746F2063726561746539
:100BE0002073656D6170686F7265000072742D749A
:100BF00068726561642F636F6D706F6E656E74737C
:100C00002F6E65742F6C7769702F706F72742F73ED
:100C100079735F617263682E630000006C774950DE
:100C20002D25642E25642E256420696E6974696102
:100C30006C697A6564210A006C7769702073797336
:100C400074656D20616C726561647920696E697488
:100C50002E0A0000072801D9002070474FF2C44235
:100C600001464001C2F200221058002818BF02EBD2
:100C70004110704780B5F9F7EDFF002080BD0000FE
:100C8000B0B54BF210644BF2E850C0F20224C0F24F
:100C90000220A04209D24BF2E855C0F2022500BF63
:100CA00055F8040B8047A542FAD3BDE8B040FFF7E2
:100CB000E1BF06F01FBA704707F086B87047000022
:100CC00080B50F280AD2B1B147F6D452C0F2022241
:100CD00052F82000BDE88040F7F7D4BE06A007F028
:100CE00043F84AF2E14040F2DB11C0F20220BDE8D5
:100CF000804010F02BB880BD6D656D705F667265C9
:100D0000653A2074797065203C204D454D505F4D0B
:100D100041580000B0B547F6D4540F25C0F2022464
:100D200054F8040B00F004F8013DF9D1B0BD000007
:100D300080B5C188C26800294FF00001116008BF6A
:100D400080BD8168002203314FF0CD3C21F00301CA
:100D5000D0F80CE00132DEF800300B60CEF8001065
:100D6000C1F818C0C1F814C0C1F810C0C1F80CC057
:100D700083880B44C3F828C0C3F824C0C3F820C03C
:100D8000C3F81CC0B0F806E083881944724501F12D
:100D90002C01DDD380BD000080B50F2809D247F6B5
:100DA000D453C0F2022353F82000BDE88040F7F787
:100DB000A3BE06A006F0D8FF4AF2E14040F2871138
:100DC000C0F202200FF0C2FF002080BD6D656D7083
:100DD0005F6D616C6C6F633A2074797065203C20A4
:100DE0004D454D505F4D4158000000002DE9F04346
:100DF000A1B00C46898847F27C284AF2E1490844B0
:100E0000102700F11C05C0F2022801AEC0F2022931
:100E10002878CD280ED0802230464146EFF7D0FC0E
:100E200021683046EFF77BFC06F09EFF8A2148469A
:100E30000FF08CFF013F05F10105E9D121B0BDE8BC
:100E4000F08300002DE9F043A1B047F2FC284AF2FC
:100E5000E1490C4600F10C051027C0F2022801AE52
:100E6000C0F202292878CD280ED080223046414693
:100E7000EFF7A6FC21683046EFF751FC06F074FF4F
:100E8000A52148460FF062FF013F05F10105E9D1B8
:100E900021B0BDE8F08370B50546F9F7C9F90446FD
:100EA000013014D02046F9F7AFF940222946C0F2AC
:100EB00001020646F4F7F4FDB0F1FF3F0ADD3046CB
:100EC000F4F73CFD2046F9F7B9F9002070BD6FF04A
:100ED000050004E005462046F9F7B0F9284609F078
:100EE000C1F94FF0FF3070BD2DE9F04F81B082465F
:100EF000007880B1504609F063FDA0B100EB0A0113
:100F0000013100BF11F8012C202A09D00138A1F1CC
:100F10000101F7D107E001B0BDE8F04F00F058BB88
:100F2000084600F051F840F63C0940F63800C2F29D
:100F30000029C2F20020D9F800600468B44240D20F
:100F40004BF2EF180025C0F202284FF0000B00BF53
:100F500050462768EFF779FB024650463946EFF7CF
:100F600093FB00BB25B93846EFF76FFB0546BB4640
:100F70009BF80010584659B158463A4613783BB191
:100F8000994205D110F8011F013209B12FF00BC0B1
:100F9000A0EB0B003946A84250EAB585404606F062
:100FA000E3FED9F800601034B442D1D3BBF1000F96
:100FB00007D0504659462A4601B0BDE8F04F09F027
:100FC00023BD01B0BDE8F08F2DE9F04F91B00028AE
:100FD00000F0F88080464FF4807006F0F5FE00289F
:100FE00000F0F080814698F800002F2803D10020FF
:100FF00089F8000012E04FF480714846F9F717FEB7
:10100000484609F0DDFC484410F8010C2F2805D0B3
:101010004846EFF71AFB2F2129F8001008F10100CC
:10102000002100BF10F8012C2F2A50EA018100F1A5
:1010300001000AB12FF00BC0A9F1010010F8012F37
:101040000AB12FF005C8002958EA0187474509D0A1
:10105000A7EB080E414600BF11F8012B00F8012B49
:101060000FF007C000210170484603F003F8002884
:1010700000F08C803C78064605F014F8002C00F057
:101080008B80002800F0988000254FF0000B00BFF7
:10109000041D384609F094FC024638462146EFF715
:1010A000F3FAE8B93DB9204609F08AFC05464846FE
:1010B0002146EFF79BFA2178204659B14A4600BFF6
:1010C00013783BB1994205D110F8011F013209B1E3
:1010D0002FF00BC0001B0BF1010BA84250EA358525
:1010E000304604F0DFFF08B12FF02FC0002D63D091
:1010F000BBF1020F1EDB304605F0C9F9304604F0A3
:10110000D1FFB8B14BF2EF1AC0F2022A041D3846E3
:1011100009F056FC024638462146EFF7B5FA18B9F1
:101120005046214606F020FE304604F0BBFF08B1D1
:101130002FF015C0384649462A4606F0D7FFBBF1C6
:10114000010F4FF00000785536D101AC4021204608
:10115000EFF792FB404621460FF0ECFD60BBBDF877
:101160000A0000F47040B0F5804F08D0B0F5204F71
:1011700022D1404602F07EFFF0B1F3F7CEF94046AF
:10118000EFF763FA2F2128F8001015E0484611B058
:10119000BDE8F04F05F0AEBF70B14BF2EF14C0F2F6
:1011A000022400BF011D204606F0DEFD304604F09B
:1011B00079FF08B12FF00BC03046F3F7AEF948467F
:1011C00005F098FF11B0BDE8F08F000070B502285F
:1011D0004FF000040FDB15466AB12C6854B14E681D
:1011E00068683146EFF79CFB28B155F80C4F0CB1FD
:1011F0002FF00BC00024204670BD00002DE9F04701
:101200008AB051B10D4604462078202801D0092823
:1012100007D1013D04F10104F6D100200AB0BDE878
:10122000F087002120462A460378092B18BF202B7F
:1012300006D0013A01F1010100F10100F4D1294683
:10124000002900F07F80204600F074F9002879D052
:10125000E8468146002128224046002607F08EFA03
:101260004FF0000A00202146A84250EA858200BFC4
:101270000B78202B01D0092B07D1824204D001F832
:10128000016B0130F4E700BF1046BAF10A0F3DD2FE
:10129000A84250D2222B1BD14A1C48F82A204F7852
:1012A000431C00BFAB425FEA2F91222F18D0AB4204
:1012B00016D25C2F07D1114611F8017F222F51EA77
:1012C000028208BF831C12F8017F18460133E9E748
:1012D000A84250EA858248F82A100AF1010A0BE078
:1012E0000AF1010A51B302F8016B023011460AE01B
:1012F000824223D0013101300B78092B18BF202BFB
:10130000F6D1A8421AD2A842AED317E019A006F02F
:101310002BFD6F460FF27C08564600BF57F8041BA2
:10132000404606F021FD013EF8D149F2CF20C0F23F
:10133000022006F019FDBAF1000F03D069465046AD
:10134000C8476BE72046294600F032F800283FF4F2
:1013500064AF2046017841F02001202901D00130FE
:10136000F8E7002101700CA0214606F0FDFC4FF0CB
:10137000FF3053E7546F6F206D616E7920617267A3
:10138000732021205765206F6E6C79205573653A64
:101390000A0000002573200025733A20636F6D6DED
:1013A000616E64206E6F7420666F756E642E0A0025
:1013B0002DE9F04782B0B9B3054621EAE170002675
:1013C0002946024606E000BF002A00F0A68001364A
:1013D000013A01310B78092B18BF202BF4D106F10B
:1013E000200006F0F1FC002800F08C8029463246EF
:1013F000074606F07BFE0020B85549A13846EFF7B6
:10140000B7F828B947A13846EFF7B2F800287CD0E2
:1014100000210022384602F00EFE002807D40446C0
:10142000384605F067FE15E06FF0FE0072E006F149
:101430001F013DA238463346009508F089FF002180
:101440000022384602F0F7FD0446384605F052FE09
:10145000002C5DD4802006F0B7FC00284FD08246D7
:101460000DF107010122204604F006FE01283ED1BD
:101470000AF101080DF107064FF000099DF8070079
:101480000D2818BF0A282BD0012745468AF80000EE
:1014900001222046314604F0EFFD01280CD19DF8D1
:1014A00007000A2818BF0D2806D0013705F8010BE0
:1014B000802FEDD1802701E085F800905046394615
:1014C0000278092A01D0202A04D1013900F1010053
:1014D000F6D101E0232A03D050463946FFF78EFEAD
:1014E00001222046314604F0C7FD0128C6D020461F
:1014F000F2F7FAFF504605F0FDFD00200AE0204615
:10150000F2F7F2FF6FF0050004E0384605F0F2FD57
:101510004FF0FF3002B0BDE8F08706465FE700BF3E
:101520002E7368002E5348002F62696E2F252E2AD5
:10153000730000002DE9F04140F63C0240F638030C
:10154000C2F20022C2F2002315681F68AF420DD21A
:101550000C4680463E68414630462246EFF794F8F6
:1015600008B9305D28B11037AF42F3D30020BDE891
:10157000F081F868BDE8F0812DE9F0412021804636
:10158000EEF7ECFF10B1A0EB080503E04046EFF7E3
:101590005CF8054640F63C0040F63801C2F20020F7
:1015A000C2F2002104680F68A7420AD23E68414691
:1015B00030462A46EFF768F808B9705D20B1103759
:1015C000F2E70020BDE8F081B868BDE8F0810000D6
:1015D00070B511A006F0C8FB40F63C0540F6380097
:1015E000C2F20025C2F20020296806688E420BD2A2
:1015F00049F20534C0F20224F6E80412204606F04F
:10160000B3FB28688642F7D349F2CF20C0F202200C
:1016100006F0AAFB002070BD52542D54687265611B
:1016200064207368656C6C20636F6D6D616E6473AC
:101630003A0A0000B0B5B8B104780546ACB12D2C1B
:1016400014BF2B2C15F8014F64B1EEF7D7FE0068DC
:10165000691C00BF025D202A06D111F8014B0CB1B4
:101660002FF009C0012400E000242046B0BD000096
:101670002DE9F047054601300024002710F8011C31
:10168000202901D039B908E0017841F02001202952
:101690001CBF013704460130F0E727B32846FFF7A7
:1016A0006BFF0546002875D02868002872D0012FEE
:1016B00029D0002F6ED149F205340835C0F202243A
:1016C00055F8041C2A68204606F04EFB68680C3565
:1016D00008B12FF00BC849F2CF20C0F20220BDE8BC
:1016E000F04706F041BB2846EEF7AFFF0646284616
:1016F0003146FFF71FFF00284CD1701910F8010C7C
:101700002028CBD046E02046EEF79FFF4BF2EF19A2
:1017100080464FF0000AC0F2022900276E68214679
:1017200030464246EEF7B0FFF8B927B93046EEF73B
:101730008CFF0746B2469AF80010504661B15046F9
:10174000324600BF13783BB1994205D110F8011F12
:10175000013209B12FF00BC0A0EB0A003146B842AC
:1017600050EAB787484606F0FFFA55F80C0F08B163
:101770002FF02DC049F2CF20C0F2022006F0F4FA7B
:10178000BAF1000F06D0204651463A46BDE8F04770
:10179000EFF799B8BDE8F087B0B580B1016871B1D5
:1017A00000F1080506A400BF55F8041C2A6820466D
:1017B00006F0DAFA68680C3508B12FF00BC8B0BD36
:1017C00020202020252D313673202D2025730A005E
:1017D00070B110B50446006820B102F075FF00201A
:1017E000C4E9000005202146BDE81040FFF768BAB3
:1017F0007047000010B540B10446006808B102F01F
:1018000063FF0020C4E9000010BD06A006F0ACFA9A
:1018100049F64E708121C0F20220BDE810400FF061
:1018200095BA00BF6E65746275665F667265653AEB
:1018300020696E76616C6964206275660000000044
:10184000F0B581B0A0B10446006815460E4608B157
:1018500002F03AFF002000210222002702F03EFCA5
:10186000206088B1466005814581606000200DE000
:1018700008A006F079FA49F64E709521C0F20220D0
:101880000FF064FAF02001E06760FF2040B201B081
:10189000F0BD00BF6E65746275665F7265663A2062
:1018A000696E76616C6964206275660070B582B09D
:1018B00061B30D46044600284FF0000008602DD0AB
:1018C00094F90C0010F10C0F34DB04F118063046CB
:1018D0000FF08DFB00283FD0626A01A930460FF05F
:1018E00065FA013029D0E36B019E304623B1012116
:1018F00000222046984701984BF6D021C2F20021E1
:1019000088421CD0EEB100202E6013E01BA006F030
:101910002BFA49F6EF5040F28D1106E00FA006F0C9
:1019200023FA49F6EF5040F28F11C0F202200FF077
:101930000DFAF02040B202B070BDFD20FAE7F320AE
:10194000F8E70FF078FA94F90C1011F10C0F01DBA5
:10195000F12121730FF0A8FAF120EBE76E657463B3
:101960006F6E6E5F6163636570743A20696E766155
:101970006C696420636F6E6E000000006E657463B6
:101980006F6E6E5F6163636570743A20696E766135
:101990006C696420706F696E7465720000000000ED
:1019A000F0B581B00D4649F6BC610646C0F2022191
:1019B000062040F28D22FFF7EFF94FF0000170B3DF
:1019C0000446017306F0F000A16001212660402862
:1019D00018BF202810D104F1140630460FF08CFAFD
:1019E000C8B904F11000002100270FF093FBD0B11B
:1019F00030460FF05CFA0EE0102801D10A21EAE728
:101A000015A006F0B1F949F6BC604FF42A71C0F296
:101A100002200FF09BF906202146FFF751F9002420
:101A2000204601B0F0BD04F118000FF0D5FA06A071
:101A30006760C4E90D7790ED001F84ED071FE56333
:101A4000E76284F83070EBE7FFFFFFFF0000000063
:101A500000000000002000006E6574636F6E6E5F12
:101A6000616C6C6F633A20756E646566696E65645F
:101A7000206E6574636F6E6E5F7479706500000030
:101A800080B586B0B8B147F630430029C0F20223D2
:101A900053EA01810090ADF80C2000F110024EF6DF
:101AA00091500291C0F20020694613F00BFE68B914
:101AB0009DF804000AE007A006F056F949F6EF5039
:101AC000FF21C0F202200FF041F9F02040B206B031
:101AD00080BD00BF6E6574636F6E6E5F62696E6419
:101AE0003A20696E76616C696420636F6E6E0000E7
:101AF00010B586B098B1044600908DF808100FF02C
:101B0000E4FA03904EF6FD5004F11002C0F20020FA
:101B1000694613F0D7FD70B99DF804000BE007A0EB
:101B200006F022F949F6EF504FF44A71C0F2022054
:101B30000FF00CF9F02040B206B010BD6E65746372
:101B40006F6E6E5F636C6F73653A20696E76616C61
:101B5000696420636F6E6E0080B586B0B8B147F6D9
:101B600030430029C0F2022353EA01810090ADF80E
:101B70000C2000F110024FF2F9100291C0F2002087
:101B8000694613F09FFD70B99DF804000BE007A0B3
:101B900006F0EAF849F6EF5040F22B11C0F20220AD
:101BA0000FF0D4F8F02040B206B080BD6E657463CB
:101BB0006F6E6E5F636F6E6E6563743A20696E76EA
:101BC000616C696420636F6E6E00000010B586B0B2
:101BD000A0B1044600900FF078FA03904FF27D40D8
:101BE00004F11002C0F20020694613F06BFD30B919
:101BF0009DF8040018B9204600F098F8002040B283
