:020000040200F8
:10000000006A02222934000269140002AF030002D0
:100010004114000241140002411400024114000284
:100020000000000000000000000000004114000279
:100030004114000200000000E70200029D340002AB
:1000400069F301026DF401021DF40102E3F2010201
:1000500007080102033A0102773A0102ED3A010270
:100060008539010275380102E9380102BDD9000263
:1000700057F60102A3F701028FD70002000000002B
:100080000000000000000000000000000000000070
:100090000000000000000000000000000000000060
:1000A0000000000000000000000000000000000050
:1000B0000000000000000000000000000000000040
:1000C0000000000000000000000000000000000030
:1000D0000000000000000000000000000000000020
:1000E0000000000000000000000000000000000010
:1000F0000000000000000000000000000000000000
:1001000000000000000000000000000000000000EF
:1001100000000000000000000000000000000000DF
:1001200000000000000000000000000000000000CF
:1001300000000000000000000000000000000000BF
:1001400000000000000000000000000000000000AF
:10015000000000000000000000000000000000009F
:10016000000000000000000000000000000000008F
:10017000000000000000000000000000000000007F
:10018000000000000000000000000000000000006F
:10019000000000000000000000000000000000005F
:1001A000000000000000000000000000000000004F
:1001B000000000000000000000000000000000003F
:1001C00000F002F800F067F80AA090E8000C824402
:1001D0008344AAF10107DA4501D100F05CF8AFF2DF
:1001E000090EBAE80F0013F0010F18BFFB1A43F015
:1001F00001031847E8470200284802000A4410F8A3
:10020000014B14F00F0508BF10F8015B240908BF6B
:1002100010F8014B6D1E05D010F8013B6D1E01F862
:10022000013BF9D1641E03D0641E01F8015BFBD1D0
:100230009142E4D370470000103A24BF78C878C1D7
:10024000FAD8520724BF30C830C144BF04680C60DC
:10025000704700000023002400250026103A28BF24
:1002600078C1FBD8520728BF30C148BF0B60704728
:100270001FB520F0ADF800F097FC0400002000212D
:1002800020F090F8401C606000F0E8FE1FBD10B543
:1002900000F04DFF10BDDFF810D0FFF7E9FF01F0CF
:1002A000CAF801F04DF80000004A022203B4FFF73B
:1002B000EEFF03BC04F052FEEFF3108072B67047FD
:1002C00080F310887047484A1368012B04D04FF020
:1002D00001031360454A1060454A116045484FF0DC
:1002E000805101607047EFF3108272B63E4801689A
:1002F00079B34FF0000101603C48016891B1EFF320
:1003000009811EF0100F08BF21ED108B21E9F00FBD
:100310004FF000041EF0100F08BF012441F8044DF7
:100320000068016000B503F064FA5DF804EB304941
:100330000968096808C9B1E8F00F002B18BFB1ECD3
:10034000108B81F309884EF0100E002B18BF2EF091
:10035000100E82F310884EF0040E70472449086096
:10036000EFF3148222F0040282F314881F494FF045
:10037000000008601C494FF0010008601E481F493A
:10038000D0F8002041EA020101601A484FF0805184
:1003900001601B480068006800BF80F3088861B6F0
:1003A00062B6BFF34F8FBFF36F8F704700BFEFF39D
:1003B00008801EF0040F01D0EFF3098020E9F00F50
:1003C00040F804ED40F804ED1EF0040F02D080F375
:1003D000098801E080F3088800B51AF06DFC5DF82B
:1003E00004EB4EF0040E70473C080222780602220D
:1003F0008406022204ED00E020ED00E00000FFFF93
:1004000008ED00E07047000010B500F0CDFB001DC6
:1004100010BD00BF91FF010053EA020C00F069809B
:100420002DE9F04B4FF00006002B1FBFB3FA83F508
:1004300003FA05F424FA05F65E4012BF1643B2FA39
:1004400082F502FA05F4C5F120051EBF22FA05FC6B
:1004500044EA0C04203556EA044C4FEA144418BF11
:10046000641C4FF000084FF00009904271EB030C40
:1004700039D3002919BFB1FA81F701FA07F6B0FAAA
:1004800080F700FA07F6C7F120071EBF20FA07FC25
:1004900046EA0C062037B6FBF4FCA7EB0507103F35
:1004A00007F01F0BCBF120062CFA06F60CFA0BFB1B
:1004B00044BFB3460026202FA4BF5E464FF0000B7A
:1004C0005BEA060C08BF4FF0010B19EB0B0948EB78
:1004D0000608ABFB027C06FB02CC0BFB03CCC01B6B
:1004E00071EB0C01C1E70B46024641464846BDE8A8
:1004F000F08B13B5084318BF4FF0FF300146AFF340
:100500000080BDE81C40704770B5064600F050FB07
:100510000468054630460A22002100F04DFB2C609D
:1005200070BD00002DE9F041044616460D464769AE
:10053000007B80072ED0384604F021FD50BB3EB32F
:10054000012E02D0022E25D104E0204600F06CFBE3
:1005500005441DE0384604F006FDE168002841F03E
:100560001001E16005DA204600F080FB0120BDE8C3
:10057000F081C9030BD56268E16A914200D8114647
:10058000A26911442269891A814200DD08460544A6
:10059000002D01DA0220EAE7E16A6068E268814240
:1005A00006D29103E06203D522F4003141F010023B
:1005B000A6690027AE4213DCE16A814201D90B46ED
:1005C00000E0034603EB060C2369ACEB030CAC45DF
:1005D00006DD814201D98C4600E084469C4505D168
:1005E000A760276042F02000A5620DE0AD1BE66920
:1005F000AE1B8142A66000D90846C01A281A2060A6
:100600005819606022F0200003490840E060002093
:1006100084F84870ABE70000BFCFD7FF2DE9F04169
:100620000C461646070047D0104600F06FF82078B9
:10063000611C61280AD0722802D077283CD102E0E0
:100640000125002405E00225042402E0082448F2E4
:10065000020511F8010B2B2806D0622809D011F8E9
:10066000010C74280AD00BE045F0030544F00204A5
:10067000EFE745F0040544F00104EAE744F0100414
:100680003846214604F07FFC411C15D00021316121
:1006900071604FF40071F560F1617061200704D55D
:1006A000304602220021FFF73DFF306D40F001008F
:1006B00030653046BDE8F0810020FBE72DE9F041D0
:1006C0000D460646104C206DC10704D0410804D0E9
:1006D00020F00104F7E722460EE0542012F02FFF2D
:1006E00007000ED0206D47F001010843542120651A
:1006F000384600F0C5F93A4629463046BDE8F04193
:100700008CE70020D6E7000000E001222DE9F04749
:1007100004464FF0FF380026C568D4E90497A807BF
:1007200018D0204600F0E2FA384604F011FC002808
:1007300000DA4646280502D548460FF07FFE4C21D8
:10074000204600F09DF9206D20F001002065304624
:10075000BDE8F0874046FBE7401ECAB210F8011F13
:100760008A4202D00029F9D10020704730B50546F1
:100770000B462A4613F8014B12F8010B08B1A042B0
:10078000F8D01CB1002802D06D1CF1E7284630BD1E
:1007900040EA010310B59B070FD1042A0DD310C8FE
:1007A00008C9121F9C42F8D020BA19BA884201D950
:1007B000012010BD4FF0FF3010BD1AB1D30703D098
:1007C000521C07E0002010BD10F8013B11F8014B4E
:1007D0001B1B07D110F8013B11F8014B1B1B01D16A
:1007E000921EF1D1184610BD40EA0103024630B511
:1007F0009B0710D14FF0013400E008C208C91D1B4F
:100800009D4315EAC41FF8D013F0FF0102F8011B45
:100810000DD01B0AF8E711F8013B002B02F8013B51
:1008200005D011F8013B002B02F8013BF3D130BD9C
:100830000022CBB210F8011B994200D1421E0029C0
:10084000F8D11046704710B5431C02E010F8011BA8
:1008500071B18107FAD14FF0013202C88C1A8C4372
:1008600014EAC211F9D0C01A0A0603D0C01E10BD86
:10087000C01A10BD0A0401D0801E10BD0902FCD0B0
:10088000401E10BDCBB22AB101788B4203D0401C70
:10089000521EF9D10020704740EA010370B59B0752
:1008A0002ED14FF00136042A2AD308C810C99D1B47
:1008B0009D43121F15EAC61517D0D8B2E1B2401AEF
:1008C00050EA056110D198B2A1B2401A50EA054130
:1008D0000AD123F07F4024F07F41401A50EA0521DD
:1008E00002D1180EA0EB146070BDA342DBD018BA81
:1008F00021BA884201D9012070BD4FF0FF3070BD90
:100900000AB9002070BD10F8013B11F8014B63B12A
:10091000A3420AD1521E08D010F8013B11F8014B36
:100920001BB1A34201D1521EEDD1181B70BD032A89
:1009300040F2308010F0030C00F0158011F8013BFC
:10094000BCF1020F624498BF11F801CB00F8013BE3
:1009500038BF11F8013BA2F1040298BF00F801CBA7
:1009600038BF00F8013B11F0030300F02580083A7E
:10097000C0F0088051F8043B083A51F804CBA0E8D5
:100980000810F5E7121D5CBF51F8043B40F8043B2A
:10099000AFF30080D20724BF11F8013B11F801CB5F
:1009A00048BF11F8012B24BF00F8013B00F801CB30
:1009B00048BF00F8012B704710B5203AC0F00B80FB
:1009C000B1E81850A0E81850B1E81850A0E8185045
:1009D000203ABFF4F5AF5FEA027C24BFB1E81850BB
:1009E000A0E8185044BF18C918C0BDE810405FEA1D
:1009F000827C24BF51F8043B40F8043B08BF704799
:100A0000D20728BF31F8023B48BF11F8012B28BF9D
:100A100020F8023B48BF00F8012B704702F0FF03AB
:100A200043EA032242EA024200F00AB802F0FF035E
:100A300043EA032242EA024200F024B84FF00002E7
:100A40000429C0F0128010F0030C00F01B80CCF1E0
:100A5000040CBCF1020F18BF00F8012BA8BF20F84E
:100A6000022BA1EB0C0100F00DB85FEAC17C24BFA2
:100A700000F8012B00F8012B48BF00F8012B70474C
:100A80004FF0000200B5134694469646203922BF27
:100A9000A0E80C50A0E80C50B1F12001BFF4F7AF72
:100AA000090728BFA0E80C5048BF0CC05DF804EB54
:100AB000890028BF40F8042B08BF704748BF20F8C2
:100AC000022B11F0804F18BF00F8012B704710B5B2
:100AD000044610F0030F08BF11F0030F40F015801B
:100AE0004FF0013E121FC0F20E8051F8043BA3EB01
:100AF0000E0C2CEA030C1CEACE1C08BF40F8043B89
:100B0000F0D0A1F1040102F10402521E08DB11F839
:100B1000013B00F8013B002BF7D11146FFF78EFF98
:100B2000204610BD0000000030B44FF0013C50F8EA
:100B3000042B51F8043BCCFA52F4D51A20D1FCB95D
:100B400050F8042B51F8043BCCFA52F4D51A17D1C3
:100B5000B4B950F8042B51F8043BCCFA52F4D51A2E
:100B60000ED16CB950F8042B51F8043BCCFA52F476
:100B7000D51A05D1002CDAD030BC4FF000007047F8
:100B800029BAB1FA81F111F01801D1F120008440A5
:100B9000F2D1CA40CB4012F0FF0213F0FF0330BC89
:100BA000D01A704770470000004870471CE10122CE
:100BB00000487047FCE001222DE9F04791460F46BE
:100BC00080460446002614F8015B2DB1FFF71CFC9B
:100BD0000068405DC007F6D12B2D02D02D2D18D016
:100BE000641E4A463946204600F0C4F827B13968E9
:100BF000A14201D1C7F800804FF0020471050BD566
:100C00004042002803DDFFF7D3FF0460A007BDE8E2
:100C1000F08746F48066E4E70028F8DAFFF7C8FFBB
:100C200004606FF00040F2E710B50146C26890071B
:100C300003D0900607D5886A0AE0FFF7B9FF0121C3
:100C40000160881E10BD8B69486818440B69C01A82
:100C500091F848301BB191F84910401A10BD1103AA
:100C6000FCD50028FADD401E10BD0000C16821F44B
:100C7000001141F08001C160002181600160704776
:100C80002DE9F74F15460C464FF0FF3B3848D76823
:100C9000D2F814A0074209D05046A96904F00CFA12
:100CA000002819DB3248C0430740EF604FF000498D
:100CB0006FF000484C4501D3464600E026460099B7
:100CC0003B465046324604F0FEF9A96920F0004246
:100CD000B21A1144A96128B12846FFF7C7FF584648
:100CE000BDE8FE8FA41BE5D10020F9E770B50446EE
:100CF0000569C06A6168884200D80846E16821F445
:100D00002011E160C90312D5A84208D02246411B38
:100D10002846FFF7B5FF10B14FF0FF3070BD00203F
:100D2000E562C4E90150E06820F48030E060002012
:100D300070BD10B50446C06820F02000E060A16AD4
:100D4000A06988420DD02046FFF7D0FFE06820F46C
:100D5000405040F01000E060A06AA0612069E062AD
:100D6000606044F24001E0688843E06010BD00002C
:100D7000100002002DE9F05F824615468B460027E1
:100D80000AF10104B9460078302801D09DB113E082
:100D900014F8010B0127782803D0582801D045B159
:100DA0000AE00DB1102D07D1002714F8010B102512
:100DB00002E0082500E00A250026B0460EE005FB0B
:100DC000080005FB06F101271FFA80F801EB104629
:100DD000B6F5803F00D3B94614F8010B294600F060
:100DE000D9F90028EBDABBF1000F05D00FB1641E72
:100DF00000E05446CBF80040B9F1000F06D0FFF7F1
:100E0000D7FE02210160C81EBDE8F09F48EA0640F7
:100E1000FAE770B50D4601461446D36850692A4674
:100E200004F0F0F8002807DA411C07D0E16820F050
:100E3000004041F48041E160281A70BD2046FFF770
:100E400015FF4FF0FF3070BDC1680022026021F431
:100E5000805141F0400111F4C06FC16001D0826047
:100E6000704702694168891AC269891A81607047AE
:100E70002DE9F05F04468946C06840F4800010F414
:100E8000C06FE06008D0204600F03EFA20680028DD
:100E900002DD401E206033E0E068010312D520F43B
:100EA0000020E060810606D4E26A61688A4200D8C8
:100EB0000A46511A216040F40010E06094F82500C1
:100EC000BDE8F09F20F40010E060800602D52046C7
:100ED000FFF72FFFE06842F281014FF0FF3A014037
:100EE000012903D02046FFF7C1FEB0E021680026AB
:100EF00000290ADAC94340F480502160C4E9026045
:100F00006068411C61600078DAE744F24001084201
:100F10000CD020F4A04040F040002660E060216941
:100F20006068401AE169401AA06090E0216991B9B7
:100F3000C00310D4E06912F002FB2061B0B1E06898
:100F400040F4006010F4407FE06002D140F4807013
:100F5000E06020696060E068D4F814B0C1061AD57A
:100F6000C0030ED52046FFF7C1FE14E004F12400B3
:100F700020610120E061E06820F4407040F480606E
:100F8000E6E721696068401AA1690144584604F007
:100F900093F80028A6DBE068C0032BD56168E06AFF
:100FA000884200D808462169451AE069471B1CD0D1
:100FB0002046D4F81880FFF799FE08EB0501584643
:100FC000C4F8188004F078F800288BDBE068B9F1E9
:100FD000000F40F40030E06002D0A0692844A06116
:100FE000E1692069C91B45180DE02046FFF77EFE28
:100FF000E769F5E725696168D4E90607491BE562F9
:1010000008446560A061E068B9F1000F20F01000AD
:1010100040F48050C4E9026005D02069E06260605D
:101020006FF001004CE7224639462846FFF7F1FEF3
:10103000411C0CD02918E16258B1401E2060681C88
:101040006060E06840F40030E060287838E750469F
:1010500036E765602046FFF7F7FEF8E710B542482F
:101060005421FFF70DFD41485421FFF709FD404889
:101070005421FFF705FD3F493B483C4A3F4B086080
:101080003D490A603A491960531C0365481C1065C4
:10109000012008653B48344A39A17844FFF7BEFA7D
:1010A00020B9384878440A3800F053F937482F4AB5
:1010B00035A17844FFF7B2FA20B9344878440A38A9
:1010C00000F047F932482A4A2FA17844FFF7A6FAE0
:1010D00020B92F4878440A3800F03BF940232248D1
:1010E000DC000021224600F063F820B12548784456
:1010F000543800F02EF91D4822464023002100F00C
:1011000057F820B121487844543800F022F91848A3
:1011100022461023002100F04BF8002806D01C487E
:101120007844BDE81040563800F013B910BD10489F
:1011300070B5006D20F001040B48FFF7E7FA0B488B
:10114000FFF7E4FA0A48FFF7E1FA09E0206D20F022
:1011500001052046FFF7DAFA20460FF06FF92C461A
:10116000002CF3D170BD000000E0012254E0012208
:10117000A8E0012214DC012218DC01221CDC01227F
:101180007200000019F401007700000007F401006C
:10119000E2F301003A2800D2303820F02002412A40
:1011A00001D3A2F13700884201D34FF0FF307047DE
:1011B00070B5C468A50713D0650211D4B2F5807F5D
:1011C00009D0B2F5007F06D0B2F5806F08D10123B7
:1011D00000F1240106E05D1E6FF07F46B54201D3A9
:1011E000012070BD0161C361416024F4706111434D
:1011F000C160002070BD2DE9FF5F1C468B4607468D
:10120000080061D000250299284626680BFB01F9E9
:101210005EE0002E5EDCE06948453FDABAF1000F7F
:101220003CD0207B800601D5A06A04E0A1696068FB
:1012300008442169401A2246A9EB05018046384638
:10124000FFF7E7FD002812DD8044A8F10101074403
:10125000A161226917F8011C00260544117021695B
:10126000491CE1626160E16841F40031E160411CC8
:1012700003D010B1207B400640D52046FFF7E4FDA7
:10128000C4F8188020696060E062E068266020F49D
:101290000030E060E0694042A06013E0484501DAB8
:1012A000012100E000212046FFF7E2FD411C08D0AB
:1012B000811C0CD02668002809DB6D1C07F8010B87
:1012C0001CE02660B5FBFBF004B0BDE8F09F0120F8
:1012D000824613E0A9EB0500B046B04200DA804632
:1012E000384642466168FFF722FB6168A6EB0806B4
:1012F000474401EB0800C4E9006045444D4588DBE4
:1013000026600298E0E7000070B5054640F202262C
:101310000A4C0FE094F85000C00708D0AC4206D049
:10132000E06836EA000002D1204600F019F8206D8E
:1013300020F00104002CEDD170BD000000E001227E
:1013400010B50446AFF300802046BDE81040FEF71C
:10135000ADBF10B500F03CF8BDE8104000F032B869
:1013600070B50446C068810713D0800601D5A56A10
:1013700004E0A169606808442169451A2046FFF726
:10138000B5FC0022064629462046FFF7CBF830463A
:1013900070BD002070BD70B510B1BDE87040DFE7D2
:1013A0000025074C6E1E07E02046FFF7D9FF00B16D
:1013B0003546206D20F00104002CF5D1284670BD83
:1013C00000E00122002801D003F0C8BD70470000F2
:1013D00010B5014602A000F015F8012010BD000074
:1013E00053494752545245443A20526564697265E4
:1013F00063743A2063616E2774206F70656E3A20C3
:101400000000000070B505460C460A2000E06D1C87
:1014100004F008F835B128780028F8D102E0641CFF
:1014200004F000F814B120780028F8D1BDE870402D
:101430000A2003F0F7BF80B51DF03EFF002080BDFD
:1014400000BE704710B504461AF03CF92068032826
:1014500005D140F65C00C2F2022018F0D9FEBDE8CA
:1014600010401AF052B90000F0B581B04CF20015EE
:101470004FF6A027C4F200050024C2F201272888F5
:10148000298C084086B200BF26FA04F0C00703D0BA
:10149000396809B12046884701340437102CF3D14C
:1014A0002E8200BF288C3042FCD101B0F0BD00007C
:1014B000B0B542F22404C820C4F220040121002562
:1014C000257100F082F82570207808B12FF005C052
:1014D000207840F00200207020788007FCD40020A3
:1014E00004F8020C14F8020C08B12FF005C84FF0F4
:1014F000030E002004F11C0111F8102002F07F02FD
:1015000001F8102011F91020002AFBD401300FF04F
:101510000DC8012000F00BF84EF64C410120C4F23A
:10152000010100220A70BDE8B04000F027B880B584
:10153000EFF31081012282F310884FF65032C2F28D
:10154000012232F810308BB940F26C5C4EF2FA3E58
:10155000C0F2022CC4F2010E3CF810C0BEF80030FC
:1015600043EA0C0343F42543AEF8003032F8103060
:10157000013322F8103081F3108880BDEFF3108121
:10158000012282F310884FF65032C2F2012232F863
:10159000103023B132F81030013B22F8103032F80D
:1015A00010207AB94EF2FA3240F26C5CC4F20102B9
:1015B000C0F2022C13883CF8100043F4254323EAC0
:1015C0000000108081F3108870474EF268124CF6CC
:1015D0000023C2F20122C3F69A3341434FF47A7CCE
:1015E0001268B3FBF2F2A1FB0C3010B9B3FBF2F0BE
:1015F00004E0B1FBF2F0A0FB0C0119B908B104F052
:101600004BB870474FF0FF3004F046B870470228DF
:1016100018BF704740F6A440C0F2022041684FF660
:101620001C30C2F2012000F07BBDB0B5014640681D
:101630004AF6800C00224068C4F2000C03784CF893
:1016400023208B681A778369C3B143684EF28015F3
:1016500003F01F0C5B09CEF200054FF0010E0EFAED
:101660000CF445F823404FF60C63BFF34F8FBFF3E4
:101670006F8F4068C2F2012343F8202000200A60E7
:10168000B0BD41684AF6800CC4F2000C00234968E2
:101690000A784CF82230826813770A7849694CF846
:1016A0002210816800204B7770478168002001225A
:1016B0000A77704780684FF480628A604FF4803206
:1016C0000A60028AC3684B6000238068B3EB923FD4
:1016D00080B2C86002D14FF6FF708860002070476A
:1016E0002DE9F0410D46496804464AF200080978A0
:1016F000C4F200084560012608EB8110A06043F2A7
:101700000000EFF31087C4F2200086F31088016810
:1017100021F480010160006896200121FFF755FF48
:1017200087F3108888F800682968204617F062FA65
:1017300044F243110020C4F24D412160BDE8F08124
:1017400010B5044617F056FAA168002001220A7766
:1017500010BD0620704780B582B0019100924168AB
:101760004AF6800CC4F2000C4FF0000E49680A786B
:101770004CF822E0826882F81CE00A7849694CF84B
:101780002210816881F81DE0019911B101998268E8
:101790001160009911B100998268516081680C2232
:1017A000B1F810C0BCF5804F38BF08228B50012221
:1017B000816800200A7702B080BD8268090100209C
:1017C0000131517770478168002000224A777047C5
:1017D00043F200101302C4F23400C358DB071AD1DD
:1017E0006FF0FF03C358DB0515D400EB0220032282
:1017F00000295FEA0F9C08BF0122036A23F002035D
:101800001A430262C0F804C0C160016841F00101DE
:1018100001600020704740F2EE3070472DE9F04F34
:1018200081B043F208088246C4F22008002707600E
:101830000120EFF3108480F31088D8F800000D46E3
:1018400020F01000C8F8000043F20449D8F8000066
:1018500043F2000B96200121C4F23409C4F2340B88
:10186000FFF7B3FE84F310884023DBF8000040F458
:101870008030CBF80000D5F8A400296C0329D0E90A
:10188000042008BF4FF4825300F03F00002A08BF35
:1018900003F580731844C9F84C00286DD5F8A410DE
:1018A000002818BF4FF4BC70CBF8E403C9F80070EF
:1018B000D1E90032581C886840F24C51C0F2022134
:1018C00012D02F6B2FB9D9F8187047F01007C9F84C
:1018D000187051F823301F6847F002071F60EB8D26
:1018E0006FF3DF23C9F81430531C10D0EB6B2BB906
:1018F000D9F8083043F01003C9F8083051F8222015
:10190000136813606A8F6FF3DF22C9F80420421C4A
:101910001ED0EA6C12B90122C9F8242051F8200027
:10192000016841F007010160A88D698D6FF3DF2028
:101930006FF3DF2141EA0040C9F81C00288FE98ECF
:101940006FF3DF206FF3DF2141EA0040C9F80C009C
:10195000A88E298D4FF6EC236FF3DF20C2F201230E
:101960006FF3DF2141EA0040CBF804004FF0011093
:10197000CBF80800A88D698D01306FF3DF216FF37C
:10198000DF2041EA0040CBF81000288FE98E0130BB
:101990006FF3DF216FF3DF2041EA0040CBF80C004A
:1019A00095F8550095F8561095F85420000240EA35
:1019B00001404FF6E4211044CBF81400C2F201219B
:1019C000A88D6A8D08804FF6E821C2F20121288F88
:1019D0001A80002208804FF6F021C2F20121E88E21
:1019E000088005F16C01284617F0DEF905F11400B6
:1019F00005F17C01012217F0D7F9D5E9100182A287
:101A000095F868707CA4AB6C52F82020002F54F835
:101A100020704FEA024215D0D5F8A440A669022EE4
:101A20000ED104F11C0EA46A9EE84050360346EA2B
:101A30000C2646EA0E162643324342F4001201E019
:101A400042F480123E034FF08054012948F2800195
:101A500008BF44EA0736012BC0F2800108BF46F0F8
:101A6000807603284FF4007008BF06F50076CBF8A7
:101A7000C463CBF8D423CBF8C8034FF00220CBF8D3
:101A8000CC03CBF8D0134FF6F422D5E92701CAE9ED
:101A90000101288FE98EC2F20122CAF80C50C2F867
:101AA00000A008440130DBF8501260F30A01CBF8C3
:101AB0005012DAF80C00D0F8A400C16A07C9126805
:101AC0009047054698B10120EFF3108480F3108809
:101AD0000121D8F8000040F01000C8F80000D8F844
:101AE00000009620FFF771FD84F3108880E0062047
:101AF000C9F83C000720C9F84000DAF80C304EF273
:101B000000104CF200314FF60C62D3F89070CEF218
:101B10000000002FC4F20001C2F201221FD493F88A
:101B20008C30C61901241B0186F8003342F827A027
:101B300051F8273023F4803341F8273051F827300B
:101B40007B0907F01F07BFF35F8F00EB830604FAE2
:101B500007F7C6F8807140F82370DAF80C30D3F834
:101B60009470002F1FD493F88D30C61901241B01E7
:101B700086F8003342F827A051F8273023F4803349
:101B800041F8273051F827307B0907F01F07BFF3D2
:101B90005F8F00EB830604FA07F7C6F8807140F800
:101BA0002370DAF80C30D3F89870002F1DD493F816
:101BB0008E30C6191B0186F8003342F827A007F0C3
:101BC0001F0351F8272022F4803241F8272051F8D2
:101BD000271079090127BFF35F8F00EB810207FA15
:101BE00003F3C2F8803140F821300120CAF8000028
:101BF000284601B0BDE8F08F0000000001000000A1
:101C000002000000030000000000000001000000CE
:101C1000020000000000000010B50446C068D0F8C3
:101C2000A400C06A816800688968884743F200019F
:101C3000C4F234010A6842F480720A600A6842F011
:101C400001020A60D1F8402442F00102C1F84024A8
:101C50000221216010BD844641610020CCE906329A
:101C60007047B0B543684EF2801E4FF60C6CCEF252
:101C7000000E59691B6A0029C2F2012C0ED44A09D0
:101C800001F01F04012505FA04F44EF82240BFF3C9
:101C90004F8FBFF36F8F00224CF82120996B0029E2
:101CA0000ED44A0901F01F04012505FA04F44EF888
:101CB0002240BFF34F8FBFF36F8F00224CF82120DB
:101CC000D96B00290ED44A0901F01F03012404FA3C
:101CD00003F34EF82230BFF34F8FBFF36F8F002214
:101CE0004CF82120816800220260C3688B60816803
:101CF00000204A63B0BD81684FF000420A618168EC
:101D00004A6181688A61002281684A628168002094
:101D10008A6270472DE9F04383B01646044602F00C
:101D20000309002001904FF0FF3000906A462046E2
:101D3000334688460EF07EFEA268156B019FAFB950
:101D40000421300758BF0221B007009802F14C026D
:101D500003D4494402EB810107E042F8210041F03D
:101D60000101A26802EB81014C31086070060CD4BD
:101D7000022E39460FD139466FB16A4601232046FB
:101D800041460EF057FE019905E0A068016C41F450
:101D900080010164394625F44030B9F1010F18BFC4
:101DA00040EA074525F04072A368B9F1000F4FF0F3
:101DB000000018BF42EA01651D6303B0BDE8F0836F
:101DC00080B54168D0F808E0096AD1E904C38A699E
:101DD00043F00043CEF8143042F0004283689A6129
:101DE0004CF00043826813618268CB695362826859
:101DF0000020096A916280BDF0B58068426E0132B0
:101E00008A60D0F82CC04EF22000C4F201000268B3
:101E1000007942EA000300F00F001B0702F00F03F5
:101E200008D44EF26812C2F20122126802FA00F0DF
:101E3000D8401BE000F0070E032707FA0EF44EF21D
:101E4000681EC2F2012E0125082838BF05FA00F4E9
:101E500002F00700DEF8006007FA00F006FB04F766
:101E6000120758BF05FA03F0B7FBF0F0CCF3C352EA
:101E7000012320FA02F20020C1E90032F0BD2DE971
:101E8000F04782B00D46097C814642F200030729E3
:101E90005FEA9F9202614F46287CC4F2320301221E
:101EA0000024D5F820A04FF0004803EB002047F8AD
:101EB000080F02FA01F0786047F8045CA869F8603E
:101EC000E86978613C61EFF3108682F31088287C22
:101ED00043F21001C4F2200128FA00F00A6822EA55
:101EE00000000860086896200121FFF76EFB86F36A
:101EF00010884FF42541386801603868C46238683A
:101F0000C463386884642868A968032838684FEA7D
:101F1000C1516A6808BF01F58031C1623868C0F8F4
:101F200010803868C0F814803868C0F818803868A5
:101F30004462386884623868DAF82410C16138680D
:101F4000DAF828100162511E3868816638684166E7
:101F50004FF0FF302968DAF844800129019400909D
:101F60000DD029B968684FF0FF3101EB500006E051
:101F7000E9686A46002348460EF05CFD009839681F
:101F80004865396888652968042903D33968C865B4
:101F900039680866DAF844000028019837D19AF8C1
:101FA0000010B1B12A68DAF80410022A03D0032A1B
:101FB00003D1032205E0092203E00922002908BF1A
:101FC00006220B0143EA8111114441EA080141F460
:101FD00080789AF80810D1B12A68DAF80C10022A31
:101FE00004D0032A05D14FF4403208E04FF4102208
:101FF00005E04FF41022002908BF4FF4C0220B0562
:1020000043EA8151114441EA080141F0807839687E
:1020100000228A633968C1F88820DAF8441031B99F
:10202000DAE90B12490341EA427148EA01083968CA
:102030004FF4AA020A642968012904D139680022F0
:10204000CA6439680A65D9E90212CA60D9F8081069
:10205000C1F834800104D9F8082041EA0060C11CAD
:10206000013011634A46D9F808100863697C686931
:1020700016F0ECFF9AF83410DAF838004A4616F0F9
:10208000E5FF9AF83510DAF83C004A4616F0DEFF14
:1020900045F254010020C0F24701C9F8001002B017
:1020A000BDE8F08783684A1E9A6643681B684BB98F
:1020B000D0F808C04FF0FF3303EB5101CCF85410B7
:1020C000836899658168CB6ADB0707D14A664FF45C
:1020D000AA0281680A64D0E90210C8600020704733
:1020E000014682680020C968D16070470146826855
:1020F0000020C968516070478268D06A00F0010012
:1021000048600020926C0A60704701468268002097
:10211000C968916070470146002000220A6070473C
:1021200080B545F25422C5F24F020260084616F00F
:10213000B9FF002080BD70B586B001A8049003A847
:1021400014460D46CDE901210126ADF80C6003F0DF
:10215000A7FA4FF65830EFF31081C2F2012086F350
:10216000108802683AB940F614520023C4F24002C3
:1021700013704023137002680132026081F31088EB
:10218000E10340F600014FEA1522C4F2400101D4F8
:10219000EBB20CE001EB8216EBB256F8235025F4BB
:1021A000803546F8235024F4803546F8235001EB5F
:1021B0008211012241F82340EFF3108182F310884D
:1021C000026812B10268013A0260006838B940F64C
:1021D00014500022C4F2400002708022027081F389
:1021E0001088002006B070BD4FF4FF50042300EAB1
:1021F000D100C4F24003C9B2C0580023CFF6FF7328
:1022000043EA104020FA01F1002001F001011160C1
:10221000704780B5C8B24FF0010C531E0CFA00F0A5
:1022200050EA138E4FF4FF5C0C230CEAD101C4F288
:102230004003012A18BF0020012A41EA030CCA58B2
:1022400008D180B24FF6FF7141EA0E41104300EA17
:10225000010205E042EA0E41CFF6FF7001EA0002FA
:102260000020CCF8002080BD6FF03F00CBB200EA28
:10227000910040F6000100EB8300C4F24001415898
:102280000020C1F340011160704780B55FFA81FE04
:10229000012000FA0EF0002A83B24FF4FF5040F202
:1022A00008024FF4803C00EAD101C4F240024FF032
:1022B000000008BF0CFA0EF38B5080BD80B50846B5
:1022C00016F0F0FE002080BD80B54FF4FF5040F2C4
:1022D000000C00EAD101C4F2400C03EA020E62EAEB
:1022E000030251F80C004EEA000E002002EA0E0232
:1022F00041F80C2080BD4FF4FF5000EAD1000421CA
:10230000C4F2400141580020090C1180704723EAB3
:10231000020C4FF4FF501A400C2300EAD101C4F222
:102320004003002042EA0C42CA5070474FF4FF506D
:10233000042300EAD101C4F240030020C9581180EF
:10234000704723EA020C4FF4FF501A40082300EABA
:10235000D101C4F24003002042EA0C42CA50704747
:102360002DE9F04146F204158046C4F234050BF025
:10237000B9FBD8F80C10286820F0010028604FF64F
:10238000E0200322C2F201200260497BD5F81C2222
:10239000C2F3C0628A421CBF0268002AF6D100253F
:1023A0000560D8F80CC00126DCF874104A6802F009
:1023B0001F0354094EF2801206FA03F3CEF2000214
:1023C00042F824304FF60C63BFF34F8FBFF36F8F8B
:1023D0004C68CF68C2F20123780907F01F0743F861
:1023E000245006FA07F742F82070BFF34F8FBFF36F
:1023F0006F8FC8684F697C0943F8205007F01F00B1
:1024000006FA00F042F82400BFF34F8FBFF36F8F3E
:102410004869CF697C0943F8205007F01F0006FA8D
:1024200000F042F82400BFF34F8FBFF36F8FC869ED
:102430004F6A7C0943F8205007F01F0006FA00F0AD
:1024400042F82400BFF34F8FBFF36F8F486ACF6A03
:102450007C0943F8205007F01F0006FA00F042F80C
:102460002400BFF34F8FBFF36F8FC86A43F820502B
:10247000DCF80000006816F077FE43F20800C8F8A8
:102480000050C4F22000EFF3108486F31088016836
:1024900041F480610160006896200121FFF795F802
:1024A00084F310880020BDE8F081F0B546F2C050FA
:1024B0004FF65022C4F23400CFF6FF728358DB0788
:1024C00014D18258D20611D491F800C04A6802F0A3
:1024D0000F058C89092D00EBCC1303F5E07307D3AE
:1024E0005FFA84FE250A4FF0807710E00820F0BDE7
:1024F00034B10D69012C95F800E006D1002702E007
:1025000000274FF0000E002501E06D78002702F053
:102510003F024EEA05250CF003048E6845EA0242AC
:1025200006F0400542EA84523A4306F0030742EAC5
:10253000C54206F0200542EA87621A606A0436073F
:1025400002F180724FF0140608BF6A04002D08BF24
:102550006A04002F4FF0807708BF1026C3E901728C
:10256000BCF1000F5FEA1F978A59DA6007600978AB
:1025700001295FEA1F9101640020F0BD2DE9F041BF
:1025800088B043F25042C4F234021268520601D4B9
:102590001E204AE10D464FF6E0284FF6046104463E
:1025A000C2F20128C2F201210020C8F80000087020
:1025B000E560EFF31086012080F3108843F20800F5
:1025C000C4F22000016821F4806101600068962057
:1025D0000121FEF7FAFF86F310882968D1E900018E
:1025E00016F0D8FD002840F0208146F20017C4F212
:1025F0003407386840F480703860386940F0010072
:10260000386100BF786900F01F001F28FAD1E87A0E
:10261000013840F440703860287BB96821F0FF0130
:102620000844B86095F82C00298D2A6B95F8343051
:1026300002F00F0241EA004095F8351040EA0250DE
:1026400095F8362040EA437040EA817040EAC27053
:1026500038626868D0E90021090480683FFA81F196
:1026600062F38B0141EA0060C7F814026868C06831
:102670006FF39F20C7F81802E869C7F81001286AAD
:10268000C7F81401686AC7F818012869C7F8E0019B
:102690006869C7F8E401A869C7F8E80128460BF0A3
:1026A000C7F96E6F306BC7F80801706BC7F8080286
:1026B000B06BC7F82802F06BC7F8180346F2D45085
:1026C000316CC4F234004160716C416440F210110D
:1026D000C7F60951016001640B204EF20751C0F2A8
:1026E000D000C5F2F771C7F81403C7F80411002031
:1026F000A061D5E91B01C4E90401304621460BF075
:10270000B7F906F1080021460BF0B2F906F1100006
:1027100021460BF0ADF906F1180021460BF0A8F99F
:1027200006F1200021460BF0A3F906F1280021460E
:102730000BF09EF944F644100322C4F6505020607A
:10274000E068396841F4807139600121C8F80010EF
:10275000417B002908BF01227A60407BD7F8201214
:10276000C1F3806181421CBFD8F800100229F5D165
:102770000220C8F8000095F83700A96B95F83C20B6
:102780000023C003C7F6FF7361F3154062F397504F
:10279000C7F8200395F84410286CAA6C6FF31F301B
:1027A00003EA024240EAC1301043C7F82803D5E9E2
:1027B00013016FF35F3061F31C40C7F82C0395F8E9
:1027C0005800E96D6A6D03EA01416FF31F3242EA76
:1027D000C0300843C7F83003D5E918016FF35F3004
:1027E00061F31C40C7F83403A86E43F6FC7101EA9C
:1027F0008000C7F80403A069062100916169039174
:1028000050B10DF1100C90E88E008CE88E009DE820
:102810008E0080E88E0000E0684621698847A06944
:1028200010B104AF8ECF8EC0002008B0BDE8F0819B
:1028300010B588B0044680694FF0070100916169C6
:10284000039150B10DF1100E90E80E108EE80E10AD
:102850009DE80E1080E80E1000E068462169884768
:10286000A06928B10DF1100C9CE80E1080E80E1044
:1028700046F200404FF61041C4F23400CFF6FF712B
:102880004258D2071DD14158C9061AD4E1680A7AC4
:102890004B7A897A120242EA432242EA81210131CB
:1028A00001604FF60461C2F2012100BF0269120704
:1028B00003D40A780AB92FF007C801200870002055
:1028C00000E0082008B010BD4FF6F05046F220227C
:1028D000CFF6FF70C4F234021058086010684860E8
:1028E000002053688B609360704780B50BF0FAF856
:1028F000002080BD10B511F0020C024606D0107900
:1029000000285FEA1F904FEA007E01E04FF0000EC2
:10291000137950794CEA030C01F0010343EA0004F7
:102920000028704608BF40F08070002B936850EA82
:102930001E8E43EA010046F20C139060C4F2340389
:10294000BCF1000F5FEA0F91002054711171C3F8C0
:1029500000E010BD70B511F00203024601D1002065
:1029600001E010794007002B53795FEA1F9C11F0BA
:10297000010E157906465FEA1F94002B18BF46F03A
:102980000076BEF1000F50EA0680002B5FEA0F933D
:10299000002D5FEA0F96234053710CEA060346F2BE
:1029A0000C16C4F23406137130600020936823EAD9
:1029B0000101916070BD00002DE9F04F81B00A78EF
:1029C0004FF0010C40F21F2304460CFA02F748F2C4
:1029D00000001F42C4F235005FEA0F9300EB0220B3
:1029E000A278206218012070886B606222F00300D8
:1029F000D1E90F38421CA2704A680D46002AE362F2
:102A0000E1614FF00002A26202D140F00200A0702A
:102A10004EF20019E96ACEF200094A0909F1800074
:102A200001F01F034CF2003A95F828B00CFA03F3BA
:102A300040F82230C4F2000A01F00F03BFF34F8FB9
:102A4000BFF36F8F5AF821201F1F09F540734EF610
:102A5000185E22F480324AF82120CEF2000E5E1871
:102A60005AF82120002948BF07EB0E064FEA0B1247
:102A70004FF60C6B3270C2F2012B6A6902F01F062E
:102A80002F7C4BF8214051090CFA06F6002A40F839
:102A9000216002F00F06BFF34F8FBFF36F8F5AF81C
:102AA000221021F480314AF82210A6F1040103EB30
:102AB000020648BF01EB0E065AF8221039013170A8
:102AC000E9694BF822404A0901F01F072E7E0CFAF3
:102AD00007F740F8227001F00F07BFF34F8FBFF3E5
:102AE0006F8F5AF82120002922F480324AF82120E1
:102AF000A7F1040203EB010748BF02EB0E075AF8E7
:102B0000212032013A706A6A4BF82140510902F0E3
:102B10001F0795F820600CFA07F740F8217002F0C3
:102B20000F01BFF34F8FBFF36F8F5AF822000439A4
:102B300020F480304AF8220013445AF82200002A78
:102B400048BF01EB0E03300118704BF82240EFF341
:102B500010868CF3108828784FF0004121FA00F09D
:102B600043F20401C4F220010A6822EA000008606E
:102B7000086896200121FEF728FD86F310884FF49F
:102B80008061206A4FF440738160286C6968EA684C
:102B900003EA0121D0E900C762F38E31C66907F06C
:102BA000010306F001020CF0030741EAC333266A71
:102BB00043EA4252237842EA076241F20007C0F238
:102BC0001007C168002B08BF4FF480573A44726168
:102BD000026822F00103022B07D14FF60471022A8A
:102BE000CFF6007108BF203100E00968226A4FF477
:102BF000407711618169AB68826801F00301022BA3
:102C000002F0010208BF4FF48077002B18BF39444F
:102C1000236A41EA02713031D9600021226A916150
:102C20002278B2B1226A48F20003C0F280035362F4
:102C3000E2692378276A126C013B12697E6A1A40A6
:102C400003F00F0302F00F0246EA036343EA024275
:102C50007A6290F82520036A90F8240003F00103BB
:102C600002F01F0260F30C23206A43EA024202636F
:102C70001022206AC4E90511C4E90311C9F60752FC
:102C8000D8F81410A16082660120216A0867E16902
:102C90004A6953095AF8221021F480314AF8221067
:102CA0005AF8221009F5C07102F01F02BFF35F8FBE
:102CB00000FA02F241F8232049F82320E269D26A9F
:102CC0005AF8223023F480334AF822305AF822305E
:102CD000530902F01F02BFF35F8F00FA02F241F8BE
:102CE000232049F82320E269D2695AF8223023F4DC
:102CF00080334AF822305AF82230530902F01F027A
:102D0000BFF35F8F00FA02F241F8232049F8232035
:102D1000E269526A5AF8223023F480334AF82230AA
:102D20005AF82230530902F01F02BFF35F8F904020
:102D300041F8230049F8230040F21141206AC0F213
:102D400001018160206A00BF017FC907FCD044F601
:102D500042110020C5F24331616001B0BDE8F08F3F
:102D60008446C0F840120020CCE991327047B0B5DB
:102D7000426804464EF2801E4FF60C6C536ACEF247
:102D8000000E0020002BC2F2012C20600ED45A0944
:102D900003F01F01012505FA01F14EF82210BFF3DF
:102DA0004F8FBFF36F8F4CF823006268D36A002BFC
:102DB0000FD4580903F01F01012202FA01F14EF865
:102DC0002010BFF34F8FBFF36F8F00204CF823000C
:102DD0006268906A00280ED4410900F01F020123A6
:102DE00003FA02F24EF82120BFF34F8FBFF36F8F2B
:102DF00000214CF8201000210022204616F0D6FABF
:102E00006068806881680068096A88470020B0BDF2
:102E100070B50446406AC06B00F48140802807D139
:102E200094F8220038B1207B40B149F6454525E0B1
:102E300049F6424522E049F644451FE094F8200057
:102E40000B4608B1D61805E06068D1188069434385
:102E500000FB01F6202120461A4616F07BFA0546B3
:102E600060B9721E2121204616F074FA054628B971
:102E7000262100222046002516F098FA284670BD2B
:102E8000062070472DE9F04F85B00446406A0022C5
:102E9000012384F82220C0F8C021606A0D4641F663
:102EA0008021C0F8C0312023606AC0F2060183642B
:102EB000606A8266606AC0F8B021606AC0F8CC219E
:102EC000606AC0F8E021204616F0CAFA002840F0F7
:102ED0003581606A4CF2E001016501204FF47A719E
:102EE000FEF773FB00210022204616F033FA00287B
:102EF00040F0248108214FF4D572204616F02AFABA
:102F0000142801D1142019E149F64741626A884228
:102F1000906918BFB0F5D57F24D148F2000640F67D
:102F20000677C4F2FF0600BF37210022204616F0C4
:102F300011FA002840F0028169212046324616F03D
:102F400009FA002840F0FA80606A8069B0F1FF3F1A
:102F500002DD013FE8D105E0C0F3807084F8200075
:102F60000120A060274657F8080FFF2802D149F634
:102F70004040E3E002210022204616F0EBF9002851
:102F800040F0DC80606803210078861C2046320413
:102F900016F0E0F9002840F0D180606A8069A168ED
:102FA00000294FF0090118BF060C4FEA06482046D9
:102FB000424616F0CFF9002840F0C080606A81696F
:102FC0000191016A0291816A0391006B0490BDF83E
:102FD0001100D4F808B09DF81390DDF805A05FEA61
:102FE000903EDDF80930DDF80D10009118BFBBF1FF
:102FF000000F36D1009A1946D4465CEADF7140EAE8
:103000000941104650EA8F410CF007014FF0040CC3
:1030100040EA93300CFA01FC6FF31F3002F00F010D
:1030200000F10109012009FB0CFC00FA01F14CF24E
:103030000009490AC0F2FF390CFB01F129EA030338
:10304000002B51EA1383BBF1000F53EA0181BEF15B
:10305000000F51EA0381616104BFCAF3C650013019
:1030600008E0BEF1010F04D14FF4806000EB832033
:1030700060610120E06107212046424616F06AF9AE
:1030800000285BD1009847F640084004C0F27D1844
:1030900031D504F140030121402220464FF0400A7F
:1030A00016F09DFA08BB606A4FF000094FF6F17206
:1030B0000621C0F81090C8F2FF02606AC0F84CA068
:1030C000204616F073F948F2A0620221C0F2010214
:1030D000204616F0C7FA40B994F8500000F00F00EF
:1030E0000F2808BF4FF064094846002804BF4FF27C
:1030F0008008C0F2FA282046414616F0B1F9E8B936
:10310000606810218269204616F024F9B0B9204683
:10311000314616F0D9F888B96068016A29B1616A48
:10312000896BC943C9B2C90921738069A0610DB116
:10313000CFCFCFC5012084F82200002005B0BDE824
:10314000F08F2DE9F04381B00C4689684FF00009FB
:10315000054649680968C1F80090A1688A68D1E904
:103160000001126890470646002840F096804FF410
:1031700013712846FDF784FC42F200012078C4F266
:1031800025014FF0010801F58061002804BF42F2DB
:103190000001C4F2250169626C60EFF3108788F3C7
:1031A0001088207843F20801C4F22001C0F10C001D
:1031B00008FA00F00A6822EA000008600868962011
:1031C0000121FEF702FA87F3108840F21D32686A87
:1031D0004EF2001ECEF2000E4EF6145CC0F838908F
:1031E000CEF2000C686AC0F8C091686AC0F8C0816D
:1031F0006868696AC069012808BF40F205320A643C
:10320000616AE06801EB0E0701F00F0307F54077F4
:10321000002948BF03EB0C0794F834202369C5E963
:103220009009C5F84832100138704FF60C60C2F2B0
:10323000012040F821504CF20030C4F2000050F858
:10324000212022F4803240F8212050F82100480942
:1032500001F01F01BFF35F8F0EEB800208FA01F14E
:10326000C2F880112A464EF8201094F83610E06A11
:1032700016F0C9F894F83510A06A2A4616F0C3F87B
:1032800094F83710206B2A4616F0BDF844F6490032
:1032900085F82290C5F244302860304601B0BDE880
:1032A000F08370B582B00446406AC06B00F4814080
:1032B000802821D194F8220008B360681D46164684
:1032C0000B4682692046294616F089F9C8B960681C
:1032D00094F820108269002910464FF0110118BFA0
:1032E00001207043012D51EA919300902046294618
:1032F00016F019F9002004E049F6424001E049F6D1
:10330000444002B070BD06207047062070474268F6
:10331000D269012A04D1426A926BC2F3401200E0E2
:1033200001228A7090F82220406A0A70C06B00F473
:10333000814080285FEA0F9200204A7070472DE993
:10334000F04F81B00446406AC76B07F48147802F75
:1033500008D10F4694F8221039B1217B41B149F6CA
:10336000454059E049F6424056E049F6444053E0B2
:10337000616892461D464FF0020B8A68D1F81880AA
:1033800052681668416C41F440714164606A48EAD1
:1033900007018907C0F8B0B115D004F140093946DA
:1033A00048464246FDF7C3FAC6F804900120C4E936
:1033B0000D50002007EB0801C4E90BB1C4F83C80B4
:1033C000CAF6300002E04FF0284077603060616A52
:1033D00060686031B16008F10301B5818908F1814D
:1033E000806807C852680968904700284FF01800A5
:1033F00012D1616894F820308A69002B114618BFF9
:10340000012101FB0AF1012D50EA90930091204621
:10341000294616F088F8002001B0BDE8F08F06209C
:10342000704706207047000000F086F8FEF703F8AA
:10343000FEE7000010B50AF045FA0FA018F07CF97D
:10344000002443F29D60C6F62004C0F202204FF033
:10345000F0721023214618F06FF90CA018F06CF9E7
:1034600040F668000BA1C2F202204FF0F073224632
:1034700018F0EEFB002010BD1B5B306D5B442F6429
:1034800072765F736472616D5D2000001B5B306D4E
:103490000A000000736472616D00000080B518F0CE
:1034A00011F91BF0FDFABDE8804018F02EB94EF27C
:1034B0002401C4F201018878097801F00F010A297A
:1034C00011D009291DD0082929D140F6B811C2F21E
:1034D000022151F820004AF6AB21CAF6AA21A0FB2E
:1034E0000101480822E040F6B811C2F2022151F869
:1034F00020004AF6AB21CAF6AA21A0FB0101C808A8
:1035000014E040F6B811C2F2022151F820004AF648
:10351000AB21CAF6AA21A0FB0101880806E040F60B
:10352000B812C2F2022252F82000C8404EF26811CE
:10353000C2F20121086070472DE9F04184B04EF6D7
:10354000085440F20120CEF20004C0F20E0040F216
:1035500000070026E0604FF47000BFF34F8FBFF309
:103560006F8FC4F880000020C0F200272760FEF7AC
:103570004EF801F07DFF01200125FEF748F838687C
:1035800042F6B811A0F5005080F30A884EF2000010
:10359000C0F20001C2F20120FDF772FA40F2000011
:1035A00044F62C314DF6E472C2F20020C0F2022142
:1035B000C0F20102FDF700FA42F6203342F6203154
:1035C000C0F20423C0F2042142F6203842F6203033
:1035D000C91AC0F20428C0F2042040F20007C9084A
:1035E000C0F20007A0EB080C41F009C000BF00BF0B
:1035F000F3E80201E7E802010FF007C040F2000122
:1036000040F20003C2F20001C2F2000340F20007E0
:103610004FEADC02C2F20007581A42F007C800BFA6
:10362000F8E80223E7E802230FF007C0C008374696
:1036300040F007C000BF00BFE1E802670FF005C01F
:10364000BFF34F8F40F2C01840F2C010BFF36F8F2E
:10365000C4F84862C0F20028C0F20020BFF34F8FC8
:10366000A0EB0800BFF36F8F8110012908DB4746EC
:10367000C8BF851057F8040B40448047013DF9D17D
:10368000FFF715FFFDF714FF0320FDF750FF4FF084
:10369000100E40F63050C4F2400000BF20F8046B1A
:1036A0000FF005C00320FDF769FF40F6002240F649
:1036B0000020C2F20222C2F202200121203A61F36C
:1036C0000400009061F3040201924DF200204DF2DB
:1036D0000022C6F60F00C6F60F0261F30400029046
:1036E000A2F120004FF0020E61F304000390D4F821
:1036F000B800442161F30700C4F8B800002268460E
:10370000202100BF00EBC20350F832705B6801EB70
:103710005316B6EB571F05D9C4F89020C4F894701F
:10372000C4F8983001220FF013C8BFF35F8F052053
:10373000C4F88C00E06940F48030E061BFF34F8F43
:10374000BFF36F8FE068C0032AD40020E067BFF3A7
:103750004F8FA16FC1F34E30C1F3C902C908531C8A
:103760008E0743F6E07200BF43F001E002EA401723
:10377000314600BF41EA070501F14041C4F8585203
:103780000FF009C00028A0F10100EDD1BFF34F8F69
:10379000E06840F48030E060BFF34F8FBFF36F8F7D
:1037A0004EF21014C4F20104D4F8C80210B1D4F8D7
:1037B000C80213E0207888B10120FDF7B8FE00BFF1
:1037C000207800F0C0008028FAD10020207000BFCF
:1037D00020783F28FCD80120FDF7D0FE0220FDF71D
:1037E00016FF01F043FF002004B0BDE8F04101F0F6
:1037F0003BBF80B582B01AF039FFC06A01900198D2
:1038000080F30B8802B080BD4EF60C500422CEF23D
:103810000000C0F2FA52BFF34F8F016801F4E0617B
:1038200011430160BFF34F8F00BFFDE790FAA0F195
:103830000028B1FA81F150EA01907047B0B5054611
:103840001AF014FF90B1044609A017F075FF0DA0FF
:1038500021462A4617F070FF0FA017F06DFF0121D7
:1038600000222046BDE8B0401AF0B8BCB0BD00BF91
:103870001B5B33336D5B572F7374646C69625D201F
:10388000000000007468726561643A2573206578F1
:1038900069743A25642100001B5B306D0A0000004A
:1038A00080B542F20250C0F2022017F045FF05A099
:1038B00017F042FF42F2FC40C0F20220BDE8804017
:1038C00017F03ABF43616E6E6F742066696E6420B4
:1038D00061205254432064657669636521000000CD
:1038E00070B54EF22003C4F20103D3F800E01B7957
:1038F0004EEA030C03F00F035FEA0C720EF00F0C9C
:1039000008D44EF26812C2F2012212689A4022FADA
:103910000CF219E003F00702032404FA02F2012575
:10392000082B0EF0070638BF05FA03F24EF26813B3
:10393000B440C2F201231B685A435FEA0E7358BFBA
:1039400005FA0CF4B2FBF4F24CF60023C240C3F6C5
:103950009A33A1FB03C100236046FCF75DFD70BDF7
:1039600070B54EF22003C4F20103D3F800E01B79D6
:103970004EEA030C03F00F035FEA0C720EF00F0C1B
:1039800008D44EF26812C2F2012212689A4022FA5A
:103990000CF219E003F00702032404FA02F20125F5
:1039A000082B0EF0070638BF05FA03F24EF2681333
:1039B000B440C2F201231B685A435FEA0E7358BF3A
:1039C00005FA0CF4B2FBF4F222FA00F04CF60022F5
:1039D000A0FB0101C3F69A320023FCF71DFD70BD68
:1039E000F0B581B00C46054617F0BAFFC8B90720FC
:1039F00019F0ECF8064628B90BA011A140F21532D7
:103A000016F0B8FB56F8047FB74209D0A7F11000B2
:103A1000A84203D0214617F0A3FF10B93F68F3E78F
:103A2000002001B0F0BD00BF696E666F726D6174F9
:103A3000696F6E20213D2052545F4E554C4C000062
:103A40005F6D656D686561705F616C6C6F630000D0
:103A500018F028B8F0B581B01546074601B30C46FA
:103A60002DB354F8140C21462A4618F04BF906469B
:103A700008BB38462946FFF7B3FFD8B10646A4F184
:103A8000180054F8101C081A21461838A84250EAA9
:103A90003582304617F016FF204618F003F80AE08A
:103AA0003846294601B0BDE8F040FFF799BF2046EF
:103AB00017F0F8FF0026304601B0F0BD70B58CB0AD
:103AC0000D460446684600213022002618F042FACE
:103AD0004FF0070000901DB168680604012000E067
:103AE00000200690694603222046019611F0B4F8A2
:103AF0000CB070BDB0B5022803DCBDE8B04000F0EA
:103B000001B905460C46496858A01AF01FFAD8B109
:103B1000616857A01AF01AFA18B3616856A01AF033
:103B200015FA50B3616856A01AF010FA0028E4D1D3
:103B3000032DE2D9A06812F059F80028A06860D0DF
:103B4000FCF7E2FC054662E0A06819F0E5F8B0F188
:103B5000FF3FA16874DD024667A0BDE8B04017F0E2
:103B6000EBBD032DC9D9A06812F040F80028A06869
:103B700020D0FCF7C9FC054622E0A06812F036F818
:103B80000028A06803D0FCF7BFFC054605E019F04B
:103B9000C3F80546B0F1FF3F51DD284619F0FEF8A5
:103BA000012801D141A000E03CA02946BDE8B04079
:103BB00017F0C2BD19F0B0F80546B0F1FF3F3EDD89
:103BC000E1683EA01AF0C2F9B8B1E1683DA01AF070
:103BD000BDF9A0B1E1683DA01AF0B8F9E8B3E16819
:103BE0003EA01AF0B3F9D0B3E16840A01AF0AEF9E4
:103BF00000287FF482AF042132E0002130E001216F
:103C00002EE019F089F80546B0F1FF3F17DDE168B5
:103C10001DA01AF09BF9D0B1E1681DA01AF096F929
:103C2000A8B1E1681BA01AF091F930B1E1681AA0BF
:103C30001AF08CF900287FF460AF002108E0A16839
:103C400042F69300C0F2022017F076FD55E70121FD
:103C50002846BDE8B04019F0C1B8022100E00321B8
:103C60002846BDE8B04019F077B800BF6E756D000A
:103C70006D6F646500000000726561640000000003
:103C80007772697465000000686967680000000069
:103C90006F6E00006C6F77006F66660070696E5B18
:103CA00025645D203D206C6F770A000070696E5BB3
:103CB00025645D203D20686967680A006F7574702F
:103CC00075740000696E707574000000696E70751F
:103CD000745F70756C6C757000000000696E7075B3
:103CE000745F70756C6C646F776E00006F757470C4
:103CF00075745F6F640000002573203A2025640A04
:103D00000000000080B542F6AC00C0F2022017F0BF
:103D100013FD42F64110C0F2022017F00DFD42F6ED
:103D2000BF00C0F2022017F007FD42F6B610C0F245
:103D3000022017F001FD42F61210C0F2022017F027
:103D4000FBFC0BA017F0F8FC42F67210C0F2022048
:103D500017F0F2FC10A017F0EFFC1BA017F0ECFC22
:103D600021A017F0E9FC23A0BDE8804018F0D4BFE3
:103D700020202020202020202020202020202065FE
:103D80002E672E204D5348203E70696E207265616B
:103D900064204750494F0A00202020202020202066
:103DA00020202020202020652E672E204D534820E3
:103DB0003E70696E207772697465204750494F20C4
:103DC000686967680A000000202020202068656C70
:103DD000703A2020202020746869732068656C7018
:103DE000206C6973740A00004750494F20652E67A4
:103DF0002E3A000020000000B0B50446154638B940
:103E000042F6E51008A1C0F20220372216F0B2F9FE
:103E10003DB1A06C2A7929680368204698470020A4
:103E2000B0BD6FF0FE00B0BD5F70696E5F636F6E16
:103E300074726F6C0000000070B505461E46144693
:103E400038B942F6E5100AA1C0F20220162216F097
:103E500091F94FF000004CB1082E18BF70BDA86C4E
:103E600021688268284690472071082070BD00BFF5
:103E70005F70696E5F7265616400000070B5044632
:103E80001E46154638B942F6E5100AA1C0F20220D6
:103E9000262216F06FF94FF000004DB1082E18BF22
:103EA00070BDA06C2A79296843682046984708208D
:103EB00070BD00BF5F70696E5F77726974650000E6
:103EC00041F60563994205D041F60463994205D154
:103ED000012000E00020506100207047836C1B68C7
:103EE000002BF9D018472DE9F04186B06D460F46FA
:103EF0000646281D14211C469046FCF7C1FD002FE4
:103F000000D57F42B06C0097036853B16A4641F612
:103F100003613046984708B1002402E00298C8F8CF
:103F20000000204606B0BDE8F0812DE9F04186B0E2
:103F30006E460F460546301D14211C469046FCF780
:103F40009FFD002F00D57F42A86C009703688BB1BE
:103F50006A4641F603612846984750B9A86CD8F8DC
:103F6000001002916A46036841F6026128469847AC
:103F700000B10024204606B0BDE8F0812DE9F04FE5
:103F800085B00446174689460393049258B943F610
:103F90001A6043F6C071C0F20220C0F2022140F65E
:103FA0007A2216F0E7F8204618F020FE05280BD0FC
:103FB00044F20F0043F6C071C0F20220C0F20221A9
:103FC00040F67B2216F0D6F8002F6FD017F044F899
:103FD0000646FCF771F9804616F0C7FA98B143F629
:103FE000C07543F6B750C0F20225C0F20220294640
:103FF00017F0A2FB43F2AD7040F67E22C0F2022021
:10400000294616F0B7F8012E13D143F6C07543F6D2
:104010009250C0F20225C0F20220294617F08CFB14
:1040200043F2AD7040F67E22C0F20220294616F01F
:10403000A1F8FCF741F982461AF018FB98B943F64B
:10404000C07542F60900C0F20225C0F202202946DE
:1040500017F072FB43F2AD7040F67E22C0F20220F0
:10406000294616F087F8FCF727F9054617F041FBBB
:1040700098B143F6C07642F2E270C0F20226C0F276
:104080000220314617F058FB43F2AD7040F67E2215
:10409000C0F20220314616F06DF82846FCF710F900
:1040A0005046FCF70DF94046FCF70AF91AF0DEFA23
:1040B00040F21C710646C2F20221096809B120468D
:1040C0008847FCF7F9F8E18C054631B92FB9284645
:1040D000FCF7F6F86FF07407B4E079B320464FF0C0
:1040E000000C013950F82C2F30F8027C50F80C3CB1
:1040F00030F8086C20F8061C53F82730C9F8003057
:104100007B1C9BB2B3425CEA2793824220F8023CBC
:1041100000F08C80A2F11800C2F81CC01AF05FFAFF
:104120002846FCF7CDF840F21870C2F20220016870
:1041300009B12046884719F023F882E0CDF80490B1
:1041400004F1180B06F118094FF0000806F15C00A5
:10415000029000BF002F6FF00A00706376D096F8CF
:10416000380094F80DA0400705D4304603991AF0A2
:10417000DFFB002871D1BAF1000F15D0BAF1010FA1
:1041800058461BD1006858450ED090F8211096F87B
:1041900039208A42F6D24168F161C0F80490C1F832
:1041A0000090B06115E000BFE069F061C4F81C90B8
:1041B000C0F80090C6F818B00BE000BF43F2AD7035
:1041C00043F66A61B622C0F20220C0F2022115F065
:1041D000D1FF049801280BDB1AF05CFC029F80469B
:1041E0000021384604AA1AF0F3FC38461AF00AFEF9
:1041F0002846FCF765F818F0C3FF776B17BBFCF790
:104200005BF8049F0546012F09DB1AF043FCA0EB85
:1042100008080498A0EB080020EAE0770497E18CF6
:1042200009B92FF069C8DDF8049057E72846FCF774
:1042300047F840F21870C2F20220016809B1204626
:1042400088470027384605B0BDE8F08F2846FCF7C0
:1042500037F86FF074077763F4E707462846FCF7F2
:104260002FF8EFE72DE9F04F85B004461746894651
:104270000393049258B943F61A6043F64771C0F2AB
:104280000220C0F2022140F6561215F073FF2046BC
:1042900018F0ACFC05280BD044F20F0043F6477130
:1042A000C0F20220C0F2022140F6571215F062FF60
:1042B000002F6FD016F0D0FE0646FBF7FDFF8046BC
:1042C00016F053F998B143F6477543F6B750C0F26C
:1042D0000225C0F20220294617F02EFA43F2AD70F3
:1042E00040F65A12C0F20220294615F043FF012E73
:1042F00013D143F6477543F69250C0F20225C0F23F
:104300000220294617F018FA43F2AD7040F65A120F
:10431000C0F20220294615F02DFFFBF7CDFF8246A3
:104320001AF0A4F998B943F6477542F60900C0F2AD
:104330000225C0F20220294617F0FEF943F2AD70C3
:1043400040F65A12C0F20220294615F013FFFBF77F
:10435000B3FF054617F0CDF998B143F6477642F220
:10436000E270C0F20226C0F20220314617F0E4F9F2
:1043700043F2AD7040F65A12C0F20220314615F0F9
:10438000F9FE2846FBF79CFF5046FBF799FF404695
:10439000FBF796FF1AF06AF940F214710646C2F272
:1043A0000221096809B120468847FBF785FFA28CE6
:1043B0000546E18C914208BF002F00F08B809142AE
:1043C00077D1CDF8049004F12C0B06F118094FF0C9
:1043D000000806F15C000290002F6FF00A00706385
:1043E00078D096F8380094F80DA0400706D43046EF
:1043F00003991AF09DFA002840F08B80BAF1000F63
:1044000016D0BAF1010F58461CD100BF00685845BC
:104410000ED090F8211096F839208A42F6D24168E1
:10442000F161C0F80490C1F80090B06115E000BFE0
:10443000206BF061C4F83090C0F80090C6F818B056
:104440000BE000BF43F2AD7043F66A61B622C0F2E2
:104450000220C0F2022115F08DFE049801280BDB2A
:104460001AF018FB029F80460021384604AA1AF071
:10447000AFFB38461AF0C6FC2846FBF721FF18F0C0
:104480007FFE776B5FBBFBF717FF049F0546012F8D
:1044900009DB1AF0FFFAA0EB08080498A0EB08006B
:1044A00020EAE0770497A28CE18C914294D0DDF869
:1044B0000490238D276A581C80B247F823909042BD
:1044C00001F1010082B24FF0000151EA23918242D2
:1044D000218508D02846FBF7F3FE6FF02207384607
:1044E00005B0BDE8F08F54F8181FA142E0810BD051
:1044F000A1F118000027CF611AF071F82846FBF7E8
:10450000DFFE18F03DFEEAE72846FBF7D9FE00275C
:10451000E5E707462846FBF7D3FEE0E72DE9F04F35
:1045200081B090468B460446009116F095FD0746F3
:10453000FBF7C2FE814616F018F898B143F697656E
:1045400043F6B750C0F20225C0F20220294617F008
:10455000F3F843F2AD7040F29F42C0F202202946C8
:1045600015F008FE012F13D143F6976543F69250DC
:10457000C0F20225C0F20220294617F0DDF843F20E
:10458000AD7040F29F42C0F20220294615F0F2FDC4
:10459000FBF792FE07461AF069F898B943F697655B
:1045A00042F60900C0F20225C0F20220294617F0A7
:1045B000C3F843F2AD7040F29F42C0F20220294698
:1045C00015F0D8FDFBF778FE054617F092F898B184
:1045D00043F6976642F2E270C0F20226C0F2022071
:1045E000314617F0A9F843F2AD7040F29F42C0F295
:1045F0000220314615F0BEFD2846FBF761FE384625
:10460000FBF75EFE4846FBF75BFE5CB943F648608D
:1046100043F69761C0F20220C0F2022140F2A242AA
:1046200015F0A8FD204618F0E1FA03280BD043F658
:10463000CC7043F69761C0F20220C0F2022140F232
:10464000A34215F097FD1AF011F80646FBF734FE69
:1046500040F21C718246C2F20221096809B120466B
:104660008847606A0021B042716311D0D0B1BBF1BC
:10467000000F4CD096F83800657B96F839904007CB
:104680002ED4304641461AF053F948B3074641E06C
:1046900094F82200FF281FD15046FBF711FE6FF05F
:1046A00022078BE094F82010666240F2FF10A4F815
:1046B0002100FF2907D096F83900814203D2304605
:1046C000424600F0F7FD214656F8400F41F8280F0A
:1046D000416031604E6065E0013084F8220061E0A5
:1046E00004F11807D5B1012D20D138460068B84231
:1046F00014D090F8211096F839208A42F6D24168F9
:1047000006F11802F16142600A60B06119E06FF0D1
:10471000740777635046FBF7D3FD4FE0E06906F17D
:104720001801F061E1610160B7610AE043F2AD7028
:1047300043F66A61C0F20220C0F20221B62215F0EF
:1047400019FD94F82100B46481450AD2606A84F8A6
:10475000219090F83910894503D20222494600F091
:10476000A9FDBBF1010F09DB06F15C056A460021DA
:1047700028461AF02DFA28461AF044FB5046FBF75B
:104780009FFD18F0FDFCFBF797FD716B824649B168
:10479000606AB8B196F8391090F839208A425FEA19
:1047A0000F9110E05046FBF78BFD40F21870C2F2FB
:1047B0000220016809B1204688470027384601B029
:1047C000BDE8F08F01213A68BA4202D092F8212068
:1047D00000E0FF2284F82120D1B9024652F8403F80
:1047E00012F8061C93420CD013F8087CC9B213F8D7
:1047F000075C1B68BD4255EA3787B94251EA3781E9
:10480000F0E790F83920914202D0022200F052FDE8
:104810005046FBF755FD706B0021B16480EAE072F1
:10482000C2EBE077CAE700002DE9F04782B004460A
:1048300090460E46019158B943F6286043F68A61C6
:10484000C0F20220C0F2022140F2FD1215F092FCEB
:10485000204618F0CBF902280BD043F6A66043F6A9
:104860008A61C0F20220C0F202214FF4FF7215F0FB
:1048700081FC40F21C70C2F20220016809B120469E
:104880008847208C002871D1002E6FD016F0E4FBF1
:104890000546FBF711FD814615F067FE98B143F61A
:1048A0008A6743F6B750C0F20227C0F202203946A9
:1048B00016F042FF43F2AD7040F20322C0F2022034
:1048C000394615F057FC012D13D143F68A6543F69E
:1048D0009250C0F20225C0F20220294616F02CFFA9
:1048E00043F2AD7040F20322C0F20220294615F0D7
:1048F00041FCFBF7E1FC824619F0B8FE98B943F69B
:104900008A6742F60900C0F20227C0F20220394647
:1049100016F012FF43F2AD7040F20322C0F2022003
:10492000394615F027FCFBF7C7FC074616F0E1FEF9
:1049300098B143F68A6542F2E270C0F20225C0F2F5
:104940000220294616F0F8FE43F2AD7040F2032231
:10495000C0F20220294615F00DFC3846FBF7B0FCEA
:104960005046FBF7ADFC4846FBF7AAFCFBF7A4FC5E
:10497000218C074689B1481E20843846FBF7A0FCED
:1049800040F21870C2F20220016809B1204688473F
:104990000025284602B0BDE8F08786B319F066FE10
:1049A000064690F8380094F80D9040076FF00A0022
:1049B000706309D43046414619F0BAFF20B105466C
:1049C0003846FBF77DFCE4E7B9F1000F04F118006D
:1049D0001BD0B9F1010F20D1014600BF0968814207
:1049E00013D091F8212096F839309342F6D24868D6
:1049F00006F11802F0614A600260B16118E03846C1
:104A0000FBF75EFC6FF07405C3E7E16906F118027D
:104A1000F161E2610A60B0610AE043F2AD7043F611
:104A20006A61C0F20220C0F20221B62215F0A2FB98
:104A30000198012809DB06F15C0501AA002128463E
:104A40001AF0C6F828461AF0DDF93846FBF738FCAC
:104A500018F096FB756B002D9BD191E710B582B0D5
:104A600043F2FD60C0F2022015F0EDFD04461EA0E9
:104A7000214616F061FE7CB9002010F057FB1AF0B9
:104A8000CBFD4FF0FF3010F051FB43F2FD60C0F260
:104A9000022015F0D8FD20B343F2FD6018A1C0F24A
:104AA000022018A200230024009407F059FE43F2CC
:104AB000E46115A2C0F20221002851EA028019A186
:104AC0001EA251EA028416F037FE204616F034FE8C
:104AD00042F2FC40C0F2022002B0BDE8104016F0E5
:104AE0002BBE02B010BD00BF72745F64657669634F
:104AF000655F66696E64202578200D0A000000005D
:104B00002F000000656C6D001B5B33336D5B572F0E
:104B10006170702E66696C6573797374656D5D2064
:104B20000000000073642063617264206D6F756E15
:104B30007420746F20272F27000000007364206307
:104B4000617264206D6F756E7420746F20272F273B
:104B5000206661696C656421000000002DE9F04168
:104B600006461C46904658B942F2E46043F27D6125
:104B7000C0F20220C0F2022140F28F1215F0FAFAC0
:104B8000BCB316B1B8F1000F0BD143F20E5043F293
:104B90007D61C0F20220C0F202214FF4CA7215F00A
:104BA000E9FAF08BB76DC00432D5354635F8510FB0
:104BB000A97840EA0140C0F38F00A0421CD243F222
:104BC000FD40C0F2022016F0B7FDA87822462988E1
:104BD00041EA00403146C0F38F0343F2DC50C0F29B
:104BE000022016F0A9FD42F2FC40C0F2022016F0AD
:104BF000A3FD0020BDE8F081384618F0ADF9A042D1
:104C000006D207F110004FF0FF31BC8315F052FBC4
:104C1000FBF752FB064638464146224618F0BAF9E1
:104C200004463046FBF74CFB2046BDE8F08100000F
:104C30002DE9F04F81B0DBB31D469146834618B194
:104C4000B9F1000F18D10BE042F2E46043F2855154
:104C5000C0F20220C0F2022140F2FF1215F08AFADF
:104C600043F20E5043F28551C0F20220C0F20221FD
:104C700040F2012215F07EFADBF85C80B8F1000FFB
:104C80000BD143F25E5043F28551C0F20220C0F2D4
:104C900002214FF4017215F06DFA19F0E7FC48B1EA
:104CA000BBF81E00400605D4D8F8140001280AD12C
:104CB000002504E058464A462B4600F015F92846E0
:104CC00001B0BDE8F08F08F1180A00260120C8F8ED
:104CD0001400009509EB0604404621462A4618F0C8
:104CE000CBF9DBF848100246C8F810004FF48043B7
:104CF0000F6958462146B847D8F810004FF0FF31E9
:104D000006442D1A504615F0D5FA0DB12FF01FC0EC
:104D1000009D0020C8F81400D1E7F0B581B0054629
:104D20001C46164658B942F2E46043F2A251C0F262
:104D30000220C0F202214FF4E67215F01BFA24B3F0
:104D400005B15EB943F20E5043F2A251C0F2022007
:104D5000C0F202214FF4E87215F00CFAEF6D5FB962
:104D600043F25E5043F2A251C0F20220C0F202218F
:104D70004FF4E97215F0FEF919F078FC38B1E88BC0
:104D8000400604D47869012809D1002404E02846AB
:104D90003246234600F0A8F8204601B0F0BDA86CCA
:104DA000012179614FF48043D0F810C02846314684
:104DB0002246E047044607F118004FF0FF3115F096
:104DC00079FAE9E72DE9F04182B004461D4616461E
:104DD00058B942F2E46043F2C051C0F20220C0F27E
:104DE00002214FF40F7215F0C5F9F5B104B15EB9A7
:104DF00043F20E5043F2C051C0F20220C0F2022131
:104E00004FF4107215F0B6F9E76DFBF755FA7969B2
:104E1000804661B1384631462A4618F02DF90446DD
:104E20004046FBF74DFA20461CE000201AE0012026
:104E30007861384631462A4618F01EF90546404644
:104E4000FBF73EFA0020019001A9384618F05CFDFE
:104E5000A16C024638614FF400430F690199204666
:104E6000B847284602B0BDE8F0810000F0B581B037
:104E700005461C461646A8B943F26D6742F2E46047
:104E8000C0F20227C0F2022040F23512394615F076
:104E900071F943F239504FF49C72C0F20220394646
:104EA00015F068F9CCB12746A86CC1682846884738
:104EB000411C14D006F8010BE98B11F0400F5FEA9A
:104EC0001F910A285FEA0F9008430128A7F101000B
:104ED00006D1012F0746E7D102E0002000E0384666
:104EE000201A01B0F0BD0000F0B581B004461D46A7
:104EF0001646A8B943F28D6742F2E460C0F2022779
:104F0000C0F202204FF4B172394615F033F943F282
:104F1000395040F26512C0F20220394615F02AF9E4
:104F20009DB12F46E08B400607D530780A2804D182
:104F3000A06C0D21826820469047A06C16F8011BDA
:104F4000826820469047013FECD1284601B0F0BD71
:104F5000032801DA0020704700F0BABF80B5FEF7E1
:104F60006DFC00BFFEE7022801DA0020704780B523
:104F700090B069460BF064FA059810B080BD032824
:104F80005FEA2F907047B0B50D4640F2B741C0F2CE
:104F900002210446FBF7C8FDD0B140F2BD412046D6
:104FA000C0F20221FBF7C0FDA0B140F2B0412046A3
:104FB000C0F20221FBF7B8FD70B1A80705F00400AC
:104FC0000CD490B9280740F2414101EAE07111E0A8
:104FD0000020B0BD0120B0BD0220B0BD40B940F2FC
:104FE0004241280758BF022104E040F2412101E07C
:104FF00040F242210022204613F0D2F940EAE0704C
:10500000B0BD000010B530B11446421E022A0FD2C6
:105010004FF0FF3010BD0BA016F08EFB10A012A1B8
:1050200014A216F089FB22A016F086FB002010BD0A
:10503000224614F0AFFF0146201A002948BF002085
:1050400010BD00BF1B5B33336D5B572F61726D6CFE
:105050006962632E73797363616C6C735D20000009
:1050600025733A20257300005F7379735F72656161
:1050700064000000506C6561736520656E61626C50
:10508000652052545F5553494E475F504F5349581E
:105090005F465320616E642052545F5553494E471A
:1050A0005F504F5349585F535444494F000000002C
:1050B0001B5B306D0A000000022801DA00207047F7
:1050C00000220EF0F7B970B50646013801281446E3
:1050D0000D4609D815F02AFAA0B14FF0FF312A4643
:1050E000234615F045FC0DE076B1304629462246B0
:1050F0001BF041F9002805D4054630460BF0B6F9FF
:10510000601B70BD002070BD4FF0FF3070BDB0B5AA
:1051100040F26860C2F202200468FBF7CDF8054651
:10512000204618F055F904F15C0019F0C7FD012084
:1051300084F83800204619F0E9F82846FBF7C0F853
:10514000BDE8B04018F01CB870B582B004469C466B
:10515000089D1830DDE90636C4E9060004F1240094
:10516000236380E80610232160461A4616F0F2FEFB
:10517000D4E90B1245F20F130A44606AA16A043A9B
:10518000C0F2002316F030FA202E206204D319A0BA
:1051900021A1C62214F0EEFF45F2292284F83A60DC
:1051A00084F83960002104F14000C4E90F10C4E91B
:1051B000110104F15C00E16484F85010C4E9155554
:1051C000C0F20022616384F83810C4E92311234639
:1051D000CDE90011214619F0CBFD40F22C70C2F24E
:1051E0000220016821B1204602B0BDE870400847A6
:1051F00002B070BD7072696F72697479203C205280
:10520000545F5448524541445F5052494F524954AB
:10521000595F4D41580000005F7468726561645FBA
:10522000696E697400000000B0B5044650B944F2DC
:10523000CB1044F20E31C0F20220C0F202218B22C8
:1052400014F098FF94F8380040070AD444F2F8109C
:1052500044F20E31C0F20220C0F202218C2214F07E
:1052600089FF204617F0C2FC01280AD044F23A20F8
:1052700044F20E31C0F20220C0F202218D2214F05D
:1052800079FFFBF719F82146E36905466FF07400D2
:1052900051F8182F606320465360E369E1611A609A
:1052A000096018F041F82846FBF70AF8BDE8B0405D
:1052B00017F066BF2DE9F04F81B014468DF803104A
:1052C0000DF103020221054618F088FF10B101B06C
:1052D000BDE8F08F4FF0FF0B0DF1020A95F8380092
:1052E0004007F4D5AF6C002FF1D0384617F07EFCA4
:1052F0000328ECD12E4697F80D908DF802B056F8A1
:10530000180F716896F82020416071680860500796
:10531000C6E9006605D42846214619F009FB002895
:10532000D5D1B9F1000F07F1180813D0B9F1010F69
:10533000404617D1006840450CD090F8211095F8F0
:1053400039208A42F6D24168E96146600E60A86160
:1053500013E000BFF869E861FE610660C5F81880D7
:105360000BE000BF43F2AD7043F66A61B622C0F2B3
:105370000220C0F2022114F0FDFED8F800004045E2
:1053800002D090F8210000E0FF207D6A87F821001C
:10539000294695F83A0051F8402F00BF8A420DD0B7
:1053A00012F8083CC0B212F8077C12689F4257EA14
:1053B0003383984250EA3380F0E700BF95F8391004
:1053C0008DF8020088423FF482AF022128465246FF
:1053D00018F004FF00283FF481AF78E74EF258241C
:1053E0004FF6FE75C2F20124C7F6FF75FAF764FFA7
:1053F0002168A1420AD04E69FAF762FF19F04AFB10
:10540000301AA8420BD818F08CFF08E0FAF758FFC2
:1054100019F02CF9022119F08BFA17F0B1FE18F0EF
:1054200003FDE3E7C1B201A016F086B925630000D1
:10543000F0B581B0A9B10E460546086D496D01FB76
:1054400000F777B1384616F0A7F950B10446B16CB1
:105450007B0A2846224614F0B3FD18B1204615F009
:10546000A5FB0024204601B0F0BD000000000000B4
:105470002DE9F0414EF2FA384CF20016C4F2010860
:10548000C4F201064AF20350A8F800000120B080DF
:10549000B08808B12FF005C06BA0012131806EA14A
:1054A00090ED001F40F6B8104EF60147C2F2022000
:1054B0004EF600444EF22005C4F2010780ED001FB5
:1054C00091ED001F43F6000180ED041FC4F20104BA
:1054D000C1F69C41C4F20105C0E908118162FDF7E3
:1054E000E6FF4FF650601621CFF6FF7021540920D9
:1054F00085F88200207818B93878800700F09E80FF
:10550000207840B901202070C8200121FCF75DF807
:1055100020780128FCD10020387020700020A87469
:10552000287F0007FCD54FF43C50288540F211112C
:10553000E985002185F82A10288140F23110A885DC
:10554000A97200BF287F8006FCD542F232370420C2
:10555000C3F2121730772F6001242C710526AE712B
:10556000FDF7A5FF96200121FCF72FF800202871F8
:105570002F60FDF79CFF96200121FCF726F8AE7105
:10558000FDF795FF2C7485F8324085F8334095F887
:10559000540040F0400085F8540000BF95F95400D5
:1055A000B0F1FF3FFADC062085F84C00472085F873
:1055B0005400072085F8540095F954000028FBD4C6
:1055C00095F8350040F0400085F8350095F9350034
:1055D000B0F1FF3FFADC022085F83400C52085F8E1
:1055E000350095F8350000F0BF0085F8350000BFA4
:1055F00095F935000028FBD495F83F0040F04000B5
:1056000085F83F0095F93F00B0F1FF3FFADC01203B
:1056100085F83E00CA2085F83F0095F83F0000F06D
:10562000BF0085F83F0000BF95F93F000028FBD47C
:105630004FF42540A8F80000BDE8F0814FF47A70DF
:10564000FBF7E4FF6AE700BF006CDC0200127A009F
:1056500000800000002D31010080000000389C1CFB
:1056600000389C1C001C4E0E7047000080B54FF0A7
:10567000600E4CF2003040F62431C4F20000C0F25B
:10568000022100BF0A6802B10260043004310FF049
:1056900007C880BD0000000001380028FCD1704719
:1056A0002DE9F04F81B00446008800285DD04EF609
:1056B0004C4B0025C4F2010B4FF0010A42F24008A6
:1056C00000272BA6C4F220086068326800EBC501F1
:1056D000496891423ED150F835009BF8001000F027
:1056E000B8500AFA07F9B0F1807F09EA010015D134
:1056F00058B90120FBF71BFF9BF8000040EA0900A6
:105700008BF800000120FBF739FF98F90000002812
:1057100020D498F8000040F0800015E058B1012036
:10572000FBF705FF9BF8000020EA09008BF800005A
:105730000120FBF723FF98F90000B0F1FF3F09DCDF
:1057400098F8000000F07F0088F80000C8200121D0
:10575000FBF73BFF013708F10208032F06F10406AF
:10576000B2D1208801358542A8D301B0BDE8F08FC1
:1057700002040000030400000404000070B59CB0A3
:1057800016AD0446284609F0E6FE002228462146CA
:1057900006F0B8FB002828D40DF10704002151229F
:1057A0002046002616F0D6FB1A98C069C3682BB3B2
:1057B00016AD00BF5022284621469847B0F1FF3F62
:1057C00018DDD8B1265414F0B1FE00215123224631
:1057D00015F0CEF800215122204616F0BBFB1A9896
:1057E000C069C36853B12FF01BC809A0214615F04A
:1057F000A3FF09E0179840F08060179003A015F010
:105800009BFF16A806F0C0FA1CB070BD0A0000008D
:105810004F70656E202573206661696C65640A00AF
:1058200010B538B30446FBF70EF8B0F5807F1AD8F0
:105830000020214607F07CF8A8B1044606F0CEFE11
:10584000204612F0CCFD10B300F05BFB4DF6E46097
:105850004FF48072C2F20120214618F0E1FB20468D
:1058600015F0A4F90FE06FF01A0018F059FA4FF094
:10587000FF3010BD06F0B2FE4DF6E46107A0C2F2A3
:10588000012115F059FF07F089F9002010BD2046CD
:1058900015F08CF907F082F9E9E700BF25730A00DB
:1058A00070B504460020E0704FF0FF306063204682
:1058B0000FF0D9FD08B1042070BD94F83800B4F899
:1058C00036524AF65526E838032854D8022852D0D2
:1058D000B54207D104F18A0029A10822FAF758FF3E
:1058E000002846D0B4F84300B0F5007F43D145F21C
:1058F000555101EA5001401A43F2333101EA900256
:105900000840104400EB101000F4706100F00F002C
:1059100000EB112001282ED894F8450058B35521EA
:1059200001EA5001401A332101EA900100F03300EE
:10593000084400EB101000F00F0001281BD8B4F849
:105940004600C0B194F848000138012813D8B4F8D3
:10595000490080B1B4F84B007F2807D894F85A006A
:1059600094F85B10000440EA016020B1B4F84E00E6
:1059700008B1002070BD0220B54250EA009070BD11
:105980004641543332202020000000002DE9F0472A
:105990008EB007460020CDE90400CDE9020057B9DA
:1059A00043F2301043F27A11C0F20220C0F2022119
:1059B000252214F0DFFB4FF40070D7F8448015F077
:1059C000EBFE4EF2542A4FF00005C2F2012AC8B194
:1059D0000646002101233846324614F0F1FA88B316
:1059E000044643F23F00C0F2022015F0A5FE0FF27C
:1059F0003C40214615F0A0FE42F2FC40C0F20220DD
:105A000015F09AFE4FF00009484615F0CFF8002037
:105A100015F0CCF8039815F0C9F8002015F0C6F879
:105A20004EF27C10CAF80050C2F2012005602846F0
:105A300015F0BCF8DAF8000015F0B8F800200EB048
:105A4000BDE8F0870023304642464FF000090CF0D5
:105A5000ADFA0446304615F0A9F8002CD4D00FF268
:105A6000D8300FF2E031012C50EA01810FF2DC3026
:105A700015F062FE05AA03AB012138460CF072F95D
:105A80000028DDF81490BFD0D9F8201004AA02AB8A
:105A900038460CF067F9049DB9F1000F18BF002DCE
:105AA00000F0A981686AD9F81C102A6AD9F8183060
:105AB000484083EA0201084301D1002725E043F270
:105AC0003F04C0F20224204615F036FEE5A015F092
:105AD00033FE42F2FC46C0F20226304615F02CFEA0
:105AE000204615F029FE43F2D810D9F81820D9F82D
:105AF0001C30C0F20220296A6F6ACDE9001715F048
:105B00001BFE304615F018FE0127E869D9F824106D
:105B1000AA69D9F82030484083EA0201084328D016
:105B200043F23F04C0F20224204615F005FE43F282
:105B30004010C0F2022015F0FFFD42F2FC46C0F218
:105B40000226304615F0F8FD204615F0F5FD43F22B
:105B5000D810D9F82020D9F82430C0F20220A96941
:105B6000EC69CDE9001415F0E7FD304615F0E4FDD1
:105B70000137E86AD9F82C10AA6AD9F828304840C9
:105B800083EA0201084325D043F23F04C0F2022415
:105B9000204615F0D1FDC0A015F0CEFD42F2FC4626
:105BA000C0F20226304615F0C7FD204615F0C4FDB0
:105BB00043F2D810D9F82820D9F82C30C0F20220AE
:105BC000A96AEC6ACDE9001415F0B6FD304615F06F
:105BD000B3FD0137686BD9F834102A6BD9F830302F
:105BE000484083EA0201084328D043F23F04C0F250
:105BF0000224204615F0A0FD43F24D00C0F2022021
:105C000015F09AFD42F2FC46C0F20226304615F02D
:105C100093FD204615F090FD43F2D810D9F83020BE
:105C2000D9F83430C0F20220296B6C6BCDE9001436
:105C300015F082FD304615F07FFD01370AA806A950
:105C4000102299ED381E80ED001F95ED381E81ED74
:105C5000001F15F025FE90B143F23F00C0F2022074
:105C600015F06AFD43F26F00C0F2022015F064FDEA
:105C700042F2FC40C0F2022015F05EFD0137286DB3
:105C8000D9F85010814215D043F23F00C0F20220F3
:105C900015F052FD43F22920D9F850102A6DC0F2B8
:105CA000022015F049FD42F2FC40C0F2022015F03E
:105CB00043FD0137686DD9F85410814215D043F285
:105CC0003F00C0F2022015F037FD43F29E20D9F8C4
:105CD00054106A6DC0F2022015F02EFD42F2FC4015
:105CE000C0F2022015F028FD0137A86DD9F8581030
:105CF000A8F10106814215D043F23F00C0F2022014
:105D000015F01AFD43F25D20D9F85810AA6DC0F2C3
:105D1000022015F011FD42F2FC40C0F2022015F005
:105D20000BFD0137D9F82000D9F824107040084342
:105D300025D043F23F04C0F20224204615F0FCFCBB
:105D400043F2C000C0F2022015F0F6FC42F2FC481B
:105D5000C0F20228404615F0EFFC204615F0ECFC9E
:105D600043F2D810D9F82020D9F82430C0F202200C
:105D7000009615F0E1FC404615F0DEFC0137A869FD
:105D8000E9697040084301D11FBB34E043F23F048E
:105D9000C0F20224204615F0CFFC43F28B00C0F283
:105DA000022015F0C9FC42F2FC47C0F20227384637
:105DB00015F0C2FC204615F0BFFC43F2D810AA69CA
:105DC000EB69C0F20220009615F0B6FC384615F0DB
:105DD000B3FC43F23F00C0F2022015F0ADFC43F2E9
:105DE0000510C0F2022015F0A7FC42F2FC40C0F200
:105DF000022015F0A1FC4EF27C140398C2F201249B
:105E0000CAF800002846C4F8009014F0CFFE0298AB
:105E100014F0CCFE2568002D3FF409AEDAF800003E
:105E200000283FF404AE012009E600BF73746174DA
:105E300075733A256400000070726F74656374694D
:105E4000766500006879627269640000446576696D
:105E50006365206861732061202573204D42520ADA
:105E6000000000004750543A5072696D6172792009
:105E7000686561646572204C424120213D20416C7F
:105E8000742E2068656164657220616C7465726E41
:105E90006174655F6C6261004750543A6669727361
:105EA000745F757361626C655F6C62617320646FAF
:105EB0006E2774206D617463682E000080B502A0A7
:105EC00015F03AFC002080BD1B5B324A1B5B48008A
:105ED000B0B5054609F036FB58B105F055FF04464C
:105EE000284609F049FBB4F1FF3FC4BF0020B0BD14
:105EF00001E06FF00F04204617F012FF4FF0FF3063
:105F0000B0BDB0B50546006809F01CFB70B105F0E6
:105F10003BFF0446286809F02FFB284614F046FE94
:105F2000B4F1FF3FC4BF0020B0BD01E06FF00F042B
:105F3000204617F0F5FE4FF0FF30B0BDB0B5012898
:105F400006D109A015F0F8FB0DA015F0F5FB09E04E
:105F5000022807DB441E0D1D55F8040BFFF70EFC4D
:105F6000013CF9D10020B0BD55736167653A2063EB
:105F70006174205B46494C455D2E2E2E0A000000C0
:105F8000436F6E636174656E6174652046494C456C
:105F90002873290A0000000010B502280AD0012841
:105FA00011D143F6FD104DF6E461C0F20220C2F2B9
:105FB000012106E048680C46FFF732FC18B1616821
:105FC00002A015F0B9FB002010BD00BF4E6F20737A
:105FD000756368206469726563746F72793A20250D
:105FE000730A000080B5032804D1D1E9010100F053
:105FF0009FFD05E003A015F09FFB08A015F09CFB9A
:10600000002080BD55736167653A20637020534F4F
:106010005552434520444553540A0000436F70795C
:1060200020534F5552434520746F20444553542EFE
:106030000A00000010B502280CD14C680BA12046C4
:10604000FAF772FD50B10BA12046FAF76DFD28B1A9
:10605000204600E004A004F0C9FE02E006A015F00E
:106060006BFB002010BD00BF2F0000002D2D6865C8
:106070006C7000002D6800006466205B70617468BD
:106080005D0A0000B0B503280C4607D002281BD1DA
:1060900043F6FD106168C0F202201BE0A06840F2E8
:1060A0004241002212F07CF9002811D464680546B0
:1060B0002046FAF7C8FB0246284621461AF05BF94B
:1060C0002846FFF705FF07E00AA015F035FB03E0BF
:1060D000A16802A015F030FB0020B0BD6F70656EA6
:1060E0002066696C653A2573206661696C65642178
:1060F0000A00000055736167653A206563686F2088
:1061000022737472696E6722205B66696C656E61CA
:106110006D655D0A0000000080B50CF0CDFB00202D
:1061200080BD000080B5022819D14DF6F042022052
:10613000C2F201220FF026FB411E092909D8DFE82F
:1061400001F0051C1F2225282B2E34310CF034FFC2
:1061500011E0B0F5807F02D10CF00AFA0BE014A038
:1061600015F0EAFA18A015F0E7FA4DF6F040C2F281
:1061700001200FF0EDFD002080BD0CF071FEFAE76C
:106180000CF0A8FDF7E70CF045F9F4E70CF0DCFAA9
:10619000F1E70CF0F1FCEEE70CF08EFBEBE70CF016
:1061A0002BFCE8E70DF016F8E5E70CF099F8E2E7CC
:1061B00055736167653A206C697374205B6F707406
:1061C000696F6E735D0A00005B6F7074696F6E7348
:1061D0005D3A0A0080B5012804D14DF6E460C2F2B0
:1061E000012000E048680DF0C1F8002080BD0000EB
:1061F00080B5012806D106A015F09EFA0DA015F075
:106200009BFA03E0486800210DF0CEFC002080BD21
:1062100055736167653A206D6B646972205B4F50FE
:1062200054494F4E5D204449524543544F52590AF8
:106230000000000043726561746520746865204445
:1062400049524543544F52592C2069662074686561
:106250007920646F206E6F7420616C72656164795F
:106260002065786973742E0A0000000010B50428B8
:106270000C4604D0022811D161680CA006E06068C9
:1062800009A1FAF751FC60B9D4E9020106F0CAF994
:10629000014630B106A015F04FFA02E00AA015F051
:1062A0004BFA002010BD00BF2D740000656C6D001E
:1062B0006D6B6673206661696C65642C2072657312
:1062C000756C743D25640A0055736167653A206DED
:1062D0006B6673205B2D7420747970655D20646536
:1062E000766963650A000000F0B581B004280F46A6
:1062F00023D0032831D001283BD143F66C50C0F2A3
:10630000022015F019FA46A015F016FA4FF6A81556
:1063100043F61F54C2F20125C0F2022405F14006E3
:106320006B682BB1A8682A680168204615F004FA4A
:106330001035B542F4D3002437E0D7E901642EA02C
:10634000FD6831462A46234615F0F6F933A1284662
:10635000FAF7EAFB88B1002011E0D7E9014520A057
:106360002946224615F0E8F900200023002100917B
:1063700008E04FF0FF340EA015E0786800260023F7
:106380000090304621462A4606F0EAF943F6A84135
:1063900043F6B242C0F20221C0F20222002851EAC2
:1063A00002805FEA0FA415F0C7F9204601B0F0BDE6
:1063B00055736167653A206D6F756E74203C646536
:1063C000766963653E203C6D6F756E74706F696EA3
:1063D000743E203C6673747970653E2E0A0000009E
:1063E0006D6F756E742028257329206F6E746F2071
:1063F0002573202E2E2E20006D6F756E742064651F
:106400007669636520257328257329206F6E746F64
:10641000202573202E2E2E20000000006E667300B3
:106420002D2D2D2D2D2D2D2D2D2D20202D2D2D2DB6
:106430002D2D20202D2D2D2D2D2D2D2D2D2D0A00F6
:1064400070B582B0032835D10C46496841A0A268D6
:1064500015F072F9A0684FF48031002211F0A0FF0E
:1064600000282ED4FFF734FD4FF4807015F094F916
:10647000002841D066680546304617F0ADFD6168DA
:106480003044884207D000BF02782F2A03D0013859
:106490008842F9D1084643F68C52A368C0F2022222
:1064A000FF210090284617F0B1FC6068294613F0E0
:1064B000FEFD18E013A015F03FF918A015F03CF907
:1064C00017E0A0680021002211F06AFF002804D420
:1064D000FFF7FEFCA06819F0E1FED4E901052946AA
:1064E00013F0E5FD2DB1A068854202D0284614F0D6
:1064F0005DFB002002B070BD19A015F01DF96FF012
:106500000500F7E755736167653A206D7620534FB4
:106510005552434520444553540A000052656E616C
:106520006D6520534F5552434520746F20444553A9
:10653000542C206F72206D6F766520534F55524357
:106540004528732920746F204449524543544F52C3
:10655000592E0A002573203D3E2025730A000000B5
:106560006F7574206F66206D656D6F72790A00001B
:1065700080B50CF021FD002080BD80B543F6FD10F4
:106580004DF6E461C0F20220C2F2012115F0D4F808
:10659000002080BD2DE9F04F91B0012809D143F6CC
:1065A000DD40C0F2022015F0C7F85CA015F0C4F879
:1065B00079E00E4656F8042F13782D2B18D1551C70
:1065C00000222D2100270023C9B2712906DC2D29C4
:1065D0000BD0662910D1012207E000BF722903D039
:1065E00076295DD1012300E0012715F8011BEBE7B7
:1065F00000220027002303E0002951D10138314651
:10660000022850DBA0F1010801F1040901AC4FEAB6
:10661000026AD5B20FF2980BDEB21806009000BFE6
:10662000D9F80000214619F0FDFB38B1BAF1000F8E
:1066300030D1D9F8001058462AE000BFBDF80A0052
:10664000410412D400B2B0F1FF3F23DCD9F80000BE
:1066500019F024FEA0B1BAF1000F1BD143F6C940D6
:10666000D9F80010C0F2022012E0D9F800102FB1C2
:1066700008462946324606F075FF0BE018A007E0F1
:10668000009838B143F6BB40D9F80010C0F20220A0
:1066900015F052F8B8F1010809F10409C0D102E07F
:1066A00018A015F049F8002011B0BDE8F08F00BF28
:1066B00063616E6E6F742072656D6F76652027253D
:1066C00073273A204E6F20737563682066696C6586
:1066D000206F72206469726563746F72790A0000BA
:1066E00063616E6E6F742072656D6F76652027250D
:1066F00073273A2049732061206469726563746F5F
:1067000072790A004572726F723A20426164206F9A
:106710007074696F6E3A2025630A000052656D6FD0
:1067200076652028756E6C696E6B2920746865200B
:1067300046494C452873292E0A0000002DE9F041F6
:1067400082B00C4601284FF000018DF807100CDDD7
:10675000022804F1040003D100264FF00A0820E0CB
:10676000006846A117F0F2FB50B143F6FA40C0F2C0
:10677000022014F0E1FF4FF0FF3002B0BDE8F081DD
:10678000A06801782B2906D10130F9F7BDFE064635
:106790004FF0000803E0F9F7B7FE8046002604F149
:1067A0000C000068002111F0FBFD002830D40DF131
:1067B00007010122044613F0EDFB0027012811DB3D
:1067C0000DF107059DF80700002F08BF01270A28D3
:1067D0004FF001022046294657EA179713F0DAFBDB
:1067E0000028EFDC26A0394614F0A6FF26B1B742F8
:1067F00004D3B81B00F1010847450BD243F63150D2
:10680000C0F2022014F098FF2046FFF761FBB2E7C8
:106810002CA0AEE721A0414614F08EFF00210022FB
:1068200020460CF047FE0DF107010122204613F02F
:10683000B1FB012819DBA7EB080700260DF10705BE
:106840000FF27808BE4204D39DF80710404614F0BA
:1068500073FF9DF80700012229460A28204656EAC0
:10686000169613F097FB0028ECDC15A014F064FFDB
:106870002046FFF72DFB00207FE700BF2D6E0000B4
:106880000A546F74616C204E756D626572206F667C
:10689000206C696E65733A25640A00005265717553
:1068A00069726564204E756D626572206F66206C3A
:1068B000696E65733A25640A0000000025630000D4
:1068C0000A00000046696C6520646F65736E27746A
:1068D0002065786973740A0010B5022815D14C68D8
:1068E00015A0214614F028FF204606F05DF9014668
:1068F00043F6B24043F6A842C0F20220C0F20222A0
:10690000002950EA4280CC1702E04FF0FF3402A089
:1069100014F012FF204610BD55736167653A20756B
:106920006E6D6F756E74203C6D6F756E74706F69EF
:106930006E743E2E0A000000756E6D6F756E7420C9
:106940002573202E2E2E20002DE9F04182B0054621
:10695000406A0C46D1F82880C16B01F4814180293E
:1069600010D04BF2BF46CFF6B37600BF013640D20F
:1069700001200121FAF729FE686AC16B01F4814107
:106980008029F3D100218163686AC163A962686AC2
:10699000016C41F0040121F001010164686A4FF4C7
:1069A000F9414164686AA1888160686AE188C160D0
:1069B000A06900F030011029216829D100F00F00F2
:1069C000421E41F40060072A206004D850A050F80D
:1069D000220008432060B8F1000F10D0D8F8101042
:1069E00001F00701022907D0012908D120F48050C5
:1069F00004E06FF0740083E040F480502060D8F829
:106A00000410022903D340F4C041216000E0014694
:106A1000686A0160A86A01900198000216D40427F0
:106A200047F66016B8F1000FCFF6FE7608BF0127D3
:106A3000019838422FD101364BD201200121FAF7BB
:106A4000C4FDA86A019001980002F1D56FF0FE0024
:106A500020620198800344D5A06910F0050F40D052
:106A600000F00F000328686A37D1016B826A0902BF
:106A700041EA1261A160816A026A090241EA126177
:106A8000E160016A8269090241EA1261216180695B
:106A90000002606123E0A069002100F00F00216284
:106AA0000328686A2FD1016B826A090241EA1261E8
:106AB000A160816A026A090241EA1261E160016A29
:106AC0008269090241EA1261216180690002606104
:106AD0001BE06FF07400206210E08069A06000206D
:106AE00020620198400202D56FF074002062019884
:106AF000000303D56FF07400C8F80C006FF0FE00BF
:106B000002B0BDE8F0818069A0600020F8E700BF16
:106B1000000C0000000D0000000E0000000F00003F
:106B2000000F0000000C0000000C0000000C000032
:106B300070B590B00D466946044605F029FBB0F1EA
:106B4000FF3F17DDBDF80600012100F47040B0F5ED
:106B5000804F51EA01966946284605F019FB002846
:106B60000ED4BDF8060000F47040B0F5804F06D199
:106B7000043605E034A0214614F0DEFD46E0083678
:106B800006F00900092803D124A014F0D5FD3DE04A
:106B9000B00706F004000CD488B916F00C0F03D12E
:106BA000002128460DF000F82046294600F058F84C
:106BB0002CE0C0B92046294600F0FCF826E02F2141
:106BC0002046F9F735FE002854EA0091284605F0E2
:106BD000AFFEE8B1002105460CF0E6FF204629464D
:106BE00000F03EF80FE02F212046F9F721FE0028A3
:106BF00054EA0091284605F09BFE48B10546204620
:106C0000294600F0D7F8284613F0D0FF10B070BD29
:106C100043F60C10C0F20220B7E700BF6370206695
:106C200061696C642C2063702064697220746F2029
:106C300066696C65206973206E6F74207065726D73
:106C40006974746564210A00636F707920666169F4
:106C50006C65642C206261642025730A00000000CA
:106C60002DE9F04FD7B08046894668464FF4803210
:106C7000414605F047F900286BD416AE00214FF4C9
:106C80008272304615F066F904980188022975D1A0
:106C9000371D6C463CA500BFC069C369002B6DD091
:106CA0004FF48272204631469847012866DB032262
:106CB00038462946F9F76CFD00283FD038882E2841
:106CC0003CD04046394605F033FE002846D0834686
:106CD0004846394605F02CFE002846D04E460DF1B8
:106CE0001809824600214022484615F033F95846DB
:106CF000494605F04DFA28B124A0394614F01CFD90
:106D0000B1461AE0BDF81E0000F47040B0F5804FA7
:106D100008D1002150460CF047FF58465146FFF776
:106D20009FFF03E05846514600F044F85846B146EC
:106D300013F03CFF504613F039FF16AE00214FF41C
:106D40008272304615F006F9049801880229A3D012
:106D500014E014A0414614F0EFFC12E043F6FC00EE
:106D6000C0F2022014F0E8FC08E043F6FC00C0F298
:106D7000022014F0E1FC584613F018FF684605F0B5
:106D800003F857B0BDE8F08F2E2E00006F70656ECF
:106D90002066696C653A202573206661696C6564BC
:106DA0000A0000006F70656E202573206661696CB3
:106DB00065640A00F0B58DB006464FF480500D466C
:106DC00014F0EAFCD0B301AF0446384608F0C3FB28
:106DD00000223846314605F095F8B0F1FF3F36DD28
:106DE00007AE304608F0B7FB40F241223046294654
:106DF00005F088F8002830D401AD07AE0598C069C9
:106E0000C368CBB34FF48052284621469847B0F16F
:106E1000FF3F2DDD074678B30B98C06903692BB19E
:106E2000304621463A469847014601E06FF02C0172
:106E3000B942E3D016A014F07FFC1DE043F60C101D
:106E4000C0F202200DB0BDE8F04014F075BC204641
:106E500013F0ACFE1CA0314607E0204613F0A6FE5E
:106E600001A804F091FF13A0294614F065FC0CE082
:106E7000029840F08060029001A804F085FF07A806
:106E800004F082FF204613F091FE0DB0F0BD00BF6C
:106E900057726974652066696C652064617461204D
:106EA0006661696C65642C206572726E6F3D256445
:106EB0000A000000577269746520257320666169B5
:106EC0006C65640A0000000052656164202573202F
:106ED0006661696C65640A002DE9F04F81B08846EF
:106EE0000646D0F800A039B13046414609F02BFBE8
:106EF00002280FD2012557E0DAF814401CB1DAF865
:106F00001C0084420ED3D14659F8180F00284AD0ED
:106F100001242FE00546013024D0DAF81C00444655
:106F2000854241D3D14659F8181FE1B3444521D1D8
:106F300008F101010222814252EA2897304639467F
:106F400009F001FB054601302ED075B1012D2BD083
:106F5000DAF8140002280CD3DAF81C10884250EA40
:106F6000388407E04FF0FF351EE044463D4607BB3E
:106F700000E044464FF0020B274600BFDAF81C0041
:106F8000791C81425BEA279701D3022C0BD3304650
:106F9000394609F0D8FA0546013005D045B1012D32
:106FA00002D0A742EAD10025284601B0BDE8F08F03
:106FB0003D464FF0FF325046294611F05BFBB8F1D9
:106FC000000F05D020B9504641462A4611F052FB29
:106FD00020B10121012851EA11B5E5E7DAF81C00DA
:106FE000CAF81450811EDAF81800884202D8013815
:106FF000C9F800009AF8040040F001008AF8040083
:10700000D2E700002DE9F04F87B091468B4606AAE3
:1070100001211E460746012406F03EFB002840F0F1
:10702000C3800825DDF818804FF63F400097CDF863
:10703000109000BFE9B2B8FBF1F1814203D36D00BB
:107040002906F7D1FF254FF4007130460196F9F774
:10705000F5FCB8F1400FC0F09A8048F21F503F2372
:10706000C5F2EB104FF0000AA8FB0001480903909D
:10707000E8B20290019800F2CD1200BFDBF8005098
:1070800044460398642D18BF05FB00F4652D54EAAF
:107090003584A8EB0309E51854EA3984454559EAD3
:1070A0008485002D73D044F20510190CC0F21040F5
:1070B00002F8051CA3FB00461C0A02F8064C190E38
:1070C0009C1B02F8041C02F8073CCDF814B006EB38
:1070D00054042E0A610902F8026CC346DDF80880E8
:1070E000A1EB811602F8035C03EB06092B445F1E3B
:1070F000B1FBF8F1A7FB00EC4FEA154602F8016C72
:1071000001FB08F6A7EB0C004FEA15651570C6EBFE
:1071100054160CEB5000049D02F80B5C09F10105BC
:107120004FEA50144FF0C00C02F80E6C0CEA9106B6
:1071300045EA0605B4FBF8F602F80C1CA4EB84142F
:1071400006FB08F1274402F80D5C4FF00005C1EB87
:10715000501007F10101D846DDF814B045F10005E3
:1071600002F80A0C0CEA9600BAF1020F40EA01009C
:1071700002F8090C02F8086C09D845B10AF1010AB5
:1071800098450BF1040B02F110023FF677AF01991D
:107190004AF6552000220123A1F8FE01009806F0CE
:1071A000E4FA00285FEA0F94204607B0BDE8F08FAC
:1071B0000CF0C5B910460CF0C2B9000002F01F0077
:1071C0001844B0F1200158BF0021012B16DB80B517
:1071D000C94308440121BFF34F8F01EB501E4EF607
:1071E0007070CEF2000000BF026020320FF005C0C8
:1071F000BFF34F8FBFF36F8FBDE880400120704712
:1072000010B500F0CDF8EFF31084012080F3108862
:1072100043F20800C4F22000016841F0400101601F
:10722000006896200121FAF7D0F984F31088012034
:1072300010BD80B5084611461A46F9F778FB0120C3
:1072400080BD01295FEA1F900A295FEA1F91084368
:10725000704709F0F3B8104609F0F0B80A2908D0D1
:10726000012909D144F20000C4F2340000EB82008D
:1072700000E00430006870470020704744F2C0020C
:1072800040F20841C4F23402C0F202212E231360FE
:107290004EF20B420978CEF20002090111704FF64E
:1072A0000C61C2F20121C8624CF22C30C4F2000021
:1072B000016821F48031016000684EF200104FF443
:1072C0000061CEF20000BFF35F8FC0F88011016053
:1072D00001207047084670470846704701207047F4
:1072E00070B54FF2245443F20805C2F20124C4F2EF
:1072F0002005012001216060EFF3108680F31088E3
:10730000286820F04000286028689620FAF75DF988
:1073100086F310882046FFF7B1FF80B90120EFF314
:10732000108480F310880121286840F04000286014
:1073300028689620FAF749F984F31088002420463B
:1073400070BD0120704700004FF60C31C2F20121E0
:10735000086800BF28B922B1501C086818BF013A5C
:10736000F8E70868002200285FEA0F900A6070477B
:107370000A2913D0012918BF704744F2000C322AA1
:10738000C4F2340C07D1416829B153F8041BCCF87E
:10739000C810036070474CF8223070474360704754
:1073A0004EF280104FF40061CEF200002C220160FA
:1073B00044F2C001BFF34F8FBFF36F8FC4F23401AB
:1073C00001200A607047F0B581B0B1F936700C4603
:1073D000B1F934001546266B411EB94214DC80B267
:1073E00001221030A08601B28800314601F02CFE47
:1073F000B4F93410064620638F4205DAC91B06EB48
:1074000087008900F9F73CFB06EB870046F8275018
:10741000791CE18601B0F0BDF0B581B00646856902
:1074200014200F4600F078FF044600284FF00000BB
:107430002AD0C4E9027007EB870196F8680089003A
:10744000C00703D1304600F044FF02E0084600F0D8
:1074500063FF01466060A0B10027276196F86800CD
:10746000C00717D1D6F88400C2060FD4800711D503
:10747000A068042100EB800082002846FFF79AFEF6
:1074800007E0204600F001FF002404E02846FFF753
:1074900023FF20612760204601B0F0BD2DE9F04FA9
:1074A0008BB0446A994604F5B6768B460746056B61
:1074B00043CE149BDDF86480B0F5006F09EB0B0040
:1074C000A8BF28F00808884203EB02009246CDF8D6
:1074D00028B0C8BFA1EB090BB042C8BFA6EB030A96
:1074E000002D5FEA0F9018F4807F5FEA1F91D4F8B7
:1074F000783108920840E17D012803F010060990D8
:1075000040D194F80E012970A87094F8D5006870E5
:10751000D4F8FC006860D4F80001A860D4F82C010D
:10752000E860D4F838012861D4F83401686104F1C6
:10753000E800D4F8EC10A961D4F8F010E961D4E9BE
:107540003D12C5E9081290FD000F85ED280FD4F813
:10755000A800D4F82411D4E94F23C5E90B236963AB
:10756000D4F85811A963D4F85C11E963686594ED07
:10757000261F85ED111FD4E92C01C5E91701002054
:10758000069000E006910321384602F0ADFB002191
:107590000022384602F0E6FB079606BBD4F87801D5
:1075A000CDF8149020F030000F282AD8DFE810F032
:1075B00010002D003A002D002D002E013A002D0064
:1075C0002D0010001000100010001000100010001E
:1075D000D4E95A01149A484401FB02092FE008F04B
:1075E0000F013846D4F8686102F0E5FCD4E95B236A
:1075F000D4E95D01CDE900013846314602F0C4FB13
:107600002FE0A0F1410102290AD2D4F86C011499AB
:107610004843D4F8681101EB490101EB40090EE041
:1076200040280AD1D4F86C0114994843D4F8681161
:1076300001EB890101EB800901E04FF0000908F03E
:107640000F01384602F0B7FCD4F86C21D4F8780169
:10765000CDE900A0384649465B4602F095FBDDF8CF
:1076600014904FEA08604FF07F4101EAE0705FEA52
:10767000886108F0A001159B58BF4FF07F40A039EA
:1076800018BF4FF07F415FEAC86208F0400203D4A0
:1076900032B96FF07F4206E0002AA26801D102E011
:1076A000A2681043E268C4F8580194F80E01169ECF
:1076B000112B41EA0201C4F85C1140F0050084F886
:1076C0000E0108D30A9998B20905CE469B46B1FB34
:1076D000F0F14B0804E09B46CE464FF48031002386
:1076E000112E4FF0000C09DBDDF820A0B1464FEA67
:1076F0000A52B6B2B2FBF6F6720805E0B1464FF494
:1077000080360022DDF820A018F400700A9818BF17
:10771000C3EB004351EA01B018F4806118BFC2EB1B
:107720000A4256EA06B15FEA487648BFA3F500432D
:107730005FEA0876DDF85C8048BFA2F50042079E4C
:10774000002E149E18BF03EB0E4318BF02EB064237
:10775000189ECDE900200491384641463246CDE9D5
:1077600002CC02F008FC3846214642463346CDE9B9
:1077700000B902F014F8099800283FD028786978F9
:10778000E075AA786868C4F8FC00A868C4F800012D
:10779000E868C4F82C012869C4F838016869C4F89D
:1077A000340104F1E80084F80E2184F8D510A969A9
:1077B000C4F8EC10E969C4F8F010D5E90812C4E97E
:1077C0003D1205F12C0295FD280F80ED000F07CA30
:1077D0006B6DC4E94F01C4F82421A86BC4F85801AB
:1077E000E86BC4F85C01C4F8A83095ED111F84ED76
:1077F000261FD5E91701C4E92C0103E03846069994
:1078000002F072FA00200BB0BDE8F08F97F882000A
:10781000800603D4092087F8C601F4E71020C0F2DF
:107820000400C4F82C01012084F8E900D0E600002F
:10783000F0B581B00446006890F86810C9071FD100
:10784000D4E902678569B7420CD000BFB8687A688E
:10785000042100EB800083002846FFF7AFFC3F685F
:10786000B742F3D1B068E169401A7268042100EBB5
:1078700080008300284601B0BDE8F040FFF79EBCC1
:1078800001B0F0BDD0F84C11027C437C090A6FF0C6
:107890007F4C01FB02C201FB03C190F80E3102F0E4
:1078A0007F4201F07F41C0E9542103F0FD0180F8DF
:1078B0000E117047B0B5D0F84C116FF07F4ED0E983
:1078C0005625090A4FEA126C2C0E0CFB01E304FB4F
:1078D00001E162F3170390F80E2165F31701C0E987
:1078E000583102F0FB0180F80E11B0BDB0B590F830
:1078F000E8100446D0F8F000CA07A0F1010505D051
:10790000284601F0FCFA94F8E8100546D4F8F40093
:107910008907A0F1010003D4D4F8EC10484306E035
:1079200001F0EDFAD4F8EC10484301F0E8FA6FF3F7
:10793000DF2545EAC020C4F83801B0BD10B50446C3
:1079400000F014F80020002184F8C61110BD10B515
:10795000B1F934000C46012804DB81B2206B8900A8
:10796000F9F78EF80020E08610BD00002DE9F04FF9
:1079700085B004460D46B0F872A041F2000894F8B4
:107980006810B0F87600B4F87460B4F97870C0F29A
:107990004018C906ADF80CA0ADF81000ADF80E60A7
:1079A000ADF8127031D4616C03292EDC042292FBF5
:1079B000F1F9216C91FBF9F202FB191129BBE16B82
:1079C00021F003028A4220D1E16C21F003028A42B5
:1079D0001BD1BAF10F0F18D802B2481EB0EB221F0C
:1079E00013D1A06C0292072856D8DFE800F0046794
:1079F000875787877477280E05F07F4141EA004159
:107A000041EA002040EA156578E0204600F0FEFEDD
:107A1000D4E96E02192300F10801013AC4F8B81143
:107A200003604560C4F8BC2105DCD4F8C0112046D1
:107A30008847D4E96E1201F10800013AC4F8B80190
:107A40004FF000030B604B60C4F8BC2105DCD4F898
:107A5000C01120468847D4E96E02616D013A41EABF
:107A6000080100F10803C4F8B8314FF001030360C6
:107A70004160C4F8BC2103DCD4F8C011204688471B
:107A800003A90022204603F07CF8204600F0BEFE49
:107A9000002005B0BDE8F08F41282FD14FF4704091
:107AA0004FF4706100EA1540F02201EA153102EA54
:107AB00015220844C5F3031110440AE04FF478403E
:107AC0004FF4FC6100EA152001EA55110844C5F3A2
:107AD000C401084410E04FEA35650FE04FF47040F0
:107AE00005F0F00100EA15204FF4706241EA1571CB
:107AF00002EA15120844104400EB0045204600F04D
:107B000085FED4E96E12192301F10800013AC4F888
:107B1000B8010B604D60C4F8BC2105DCD4F8C0117D
:107B200020468847D4E96E0200F10801013AC4F802
:107B3000B8114FF0000303604360C4F8BC2105DCBA
:107B4000D4F8C01120468847D4E96E1230B20190B3
:107B500002980126A0EB0A0B01F10800013AC4F8D3
:107B6000B8014FF0010308F500150B604D60C4F833
:107B7000BC2106DCD4F8C011204688470126D4E990
:107B80006E02216CDDF8048006EB2B16A7EB0807CC
:107B900091FBF9F1013A4FF01F0505608BB200F13E
:107BA0000801C4F8B8114360C4F8BC2105DCD4F85E
:107BB000C01120468847D4E96E124FF6FF703B0390
:107BC000013AC4F8BC2123EA0000B6FBF9F300F542
:107BD000803040EA030001F10803C4F8B8314FF0E7
:107BE0001E030B60486003DCD4F8C01120468847B0
:107BF000606C042819D0022832D001287FF445AFE8
:107C0000D4E90F014FEA2817D4E96E2300EB1A10CC
:107C100001FB070002F10801C4F8B8112021C2E9F4
:107C20000010022BA3F1010033E0216C4FEA28126F
:107C30006FF00300514300EA9A00E26BD4E96E371B
:107C4000104400EB810003F10801C4F8B8112021B1
:107C50001960791E5860C4F8BC113FF716AF1CE0DC
:107C6000206C4FEA28114FEA1A124843E16BD4F80E
:107C7000B83101EB4201D4F8BC2101EB400003F123
:107C80000801C4F8B8112021C3E90010022AA2F1AA
:107C90000100C4F8BC01BFF6F8AED4F8C01120460C
:107CA0008847F2E670B5B0F97630B1F900409C42F1
:107CB00011DCB0F978E0B1F9022072450BDCB0F9C3
:107CC0007260B1F904C0B44505DBB0F97450B1F984
:107CD0000600A84201DA002070BDB442B8BF0E8091
:107CE000AA42B8BF4D809C45C8BF8B8070454FF0FD
:107CF0000100C8BFA1F806E070BD2DE9F04184463F
:107D0000DDF818E0C06C21EAE177DCF8504005B2FC
:107D100026B201389D4253EAC083013C76455EEAB3
:107D2000C48122EAE2724FEA034EBD424FEA0148A3
:107D300057EAC080964252EAC48221EAE871000103
:107D400023EAEE73ACF872001001ACF8740018016D
:107D5000ACF876000801ACF87800002000218CF81F
:107D6000C611BDE8F0810000B0B50446806920B1BD
:107D7000204600F087F8054600E000254FF6F82180
:107D8000C2F20121F9B108460968A142FAD121687D
:107D90000160E1690020206239B100BF204600F097
:107DA00023FAE16909B12FF007C8E06F08B100F0CC
:107DB0006CFA206B08B100F068FA002020632046BE
:107DC00000F063FA00E002252846B0BD2DE9F0413D
:107DD00082B08046006890F86810C90727D1D8E9BA
:107DE00002678569B74214D0002400BF386818B113
:107DF000F96809B100690860D7E901203969009480
:107E000000EB800083002846FFF713FA3F68B74273
:107E1000ECD1B068D8F81C10401A7268316900EBD8
:107E200080008300002000902846FFF702FA02B08D
:107E3000BDE8F08170B5416904460068C1B14A6887
:107E40007AB18569002600BF086850F8262022B163
:107E500004212846FFF7FFF9616948680136864228
:107E6000F2D3086800F011FA606900F00EFA02E03F
:107E7000616800F091F9206B18B1BDE8704000F026
:107E800004BA70BDB0B50446806930B3E06F30B15C
:107E90000168002208680260204600F07DF9D4E9FC
:107EA00004150020C4E9040011B1204600F0EFF9E8
:107EB0001DB12046294600F0EAF9D4F8B4010025A6
:107EC000C4E90155E560656300F0DFF9A069C4E924
:107ED0006D5502F03FFFA56100E0002084F8C60167
:107EE000B0BD00002DE9F0410C4685694FF0000857
:107EF000276817F0803F05D0B7F1803F32D10434B6
:107F0000F6E700BFFEB262682846314602F02AFF5B
:107F1000202E02D1284602F055FFC7F30726A2689B
:107F20002846314602F01EFF202E02D1284602F0DC
:107F300049FFC7F30746E2682846314602F012FFC0
:107F4000202E02D1284602F03DFF3E0E226928462F
:107F5000314602F007FF202E02D1284602F032FF00
:107F60001434C5E7380414D4380221D4B7F1FF3FE4
:107F7000FEB241DDFF2EC2D1C7F30728B8F1040FCE
:107F800002D0B8F1020F5BD12846043402F01AFF88
:107F9000AEE7FEB2322E53D062682846314602F078
:107FA000E1FE202E02D1284602F00CFF08349FE7A4
:107FB000FEB2C7F30727FF2E08D1022F41D1284672
:107FC000043402F0FFFE4FF0020891E76268284691
:107FD000314602F0C7FE202E02D1284602F0F2FE02
:107FE000A2682846394602F0BDFE202F02D128465D
:107FF00002F0E8FE0C347BE762682846314602F066
:10800000B1FE202E02D1284602F0DCFEC7F307267F
:10801000A2682846314602F0A5FE202E02D128464D
:1080200002F0D0FEC7F30746E2682846314602F068
:1080300099FE202E02D1284602F0C4FE103457E7E4
:1080400047463846BDE8F081F0B581B00D46496A33
:108050000446C668C56011B11221122020E0686D87
:1080600001276F6270B9606E082803D10121204694
:1080700001F03FFD204600F00AFC0122204629467F
:1080800000F048FF0022204629466F65002702F0D5
:108090006FFE94F8C7116F62E66084F8C77148B24A
:1080A00084F8C61101B0F0BD38B110B5044602F035
:1080B0002FFE002084F8C60110BD0220704700008A
:1080C0002DE9F04182B08046DDE908C00728C8E903
:1080D0000F12C8F84800C8E9133C0ED80FF20A0185
:1080E00001EB80020121DFE800F02104100C2525BE
:1080F000141A02214FF4801018E0402805D04128BE
:1081000018D102214FF4401010E004214FF4001068
:108110000CE040F200100421C0F2200006E040F222
:1081200000100221C0F2200000F58010C8F85400B1
:10813000C8F84410D8F81C00D8B1D8F8541000BFC3
:10814000D0F82C41D0F84461D0E947250A430768AC
:10815000224342EA0502D0E94F5442EA050242EACC
:10816000040242EA0602C0F8242138460FB12FF07B
:1081700019C8581EACF101010FB2002103B2002250
:10818000404600970024FFF7B8FD002088F8C6415C
:1081900002B0BDE8F0810000F0B581B009B30C4633
:1081A0000546866995F8680027462468C0077968FF
:1081B00004D1284600F049F803E000BF084600F06B
:1081C00064F83A693AB195F88400800703D5042130
:1081D0003046FFF740F8384600F057F80CB12FF062
:1081E0001FC801B0F0BD0000B0B50446006A884267
:1081F00025D00D4604F11C0119B308460968A942AF
:10820000FAD129680160606AA84201D1206A6062DF
:10821000E06AA84201D1206AE062A06AA84201D1C6
:10822000206AA062D5F8080120B1FFF712F80020FB
:10823000C5F80801284600F028F8002002E00720D1
:1082400000E0032084F8C601B0BDB0B50C46054679
:1082500000F064FBD5F884100546CA0706D1C806AD
:1082600008D42046BDE8B040FEF7F3BF04212846FD
:10827000224606E028462146FFF72EF80421024652
:108280002846BDE8B040FEF7E6BFFEF7E2BFB0B556
:108290000D46496A044609B1122017E02069A84238
:1082A00013D06069A84210D0E068A84201D1A0684C
:1082B000E0602846FFF7BEFDA86B08B1FFF7E5FFB9
:1082C0002846FFF7E2FF002000E0132084F8C601F3
:1082D000B0BDB0B50C46054600F020FBD5F88410C3
:1082E0000546CA0706D1C8060BD42046BDE8B040F3
:1082F000FEF75EBF042128462246BDE8B040FEF7E7
:1083000059BF042128462246FEF754FF014628465D
:10831000BDE8B040FEF7DEBFFEF74ABF10B5044629
:108320008068006830B92068216AFFF775F848B1A5
:10833000A16808600021C160D0E901122161E261F9
:10834000A06010BD2068152180F8C71110BD000085
:10835000F0B581B0C76F0C4605464FF0000048618C
:108360000D60AFB3386860602020FFF7D5FF606113
:1083700060B30646B8688000FFF7CEFF306028B3D0
:10838000D7E901237360D5F8881072615143B16059
:1083900043F009C0002000223368985004320FF0E7
:1083A00005C8306801EB8101F060A8698A000421EA
:1083B000FEF700FF316808603068006830B1306156
:1083C00070687169C6E90610606806E0002634E04E
:1083D00028461146FFF720F860604FF00006E06085
:1083E00058B3A060D0E90110C4E906601020A0864F
:1083F00040202161C4E90A66FFF78EFF2063E0B1E7
:10840000616909B1096808E095F8841011F0120F4C
:10841000616801D00D690DB904310D68B4F93410EB
:10842000012903DB89B28900F8F72AFB00202146E5
:108430002A46E086FEF7C7FF0126304601B0F0BDB0
:1084400080B51821F8F71CFB80BD2DE9F0470E46DA
:10845000B1F91410B2F90070DDF820C0B2F90220B1
:10846000B6F91650CF1BD6F80090AA1AD6E9011516
:108470004F439A4602FB05720546C9F3C000043318
:1084800000EB22125FEAC96048BFA2F5803248F2D1
:10849000010019F0040818BF121AD5F8B871BCF120
:1084A000000F384640F8083BC5F8B8014BD04FF0F4
:1084B000000CD5F8BC31ACEB82145A1E7C60C5F8B8
:1084C000BC2106DCD5F8C011284688477168D5E97B
:1084D0006E028F0100F10801013A0AF10A03C5F8A2
:1084E000B81103604760C5F8BC2105DCD5F8C011A0
:1084F00028468847D5E96E12B068013A0AF11003A0
:108500004FEA801001F10807C5F8B8710B604860A8
:10851000C5F8BC2103DCD5F8C0112846884740F2D5
:108520000120B8F1000F4FEA5A014FF4003208BFA2
:10853000012002FA01F100FA0AF05FEA496248BF3D
:108540000843BDE8F087D5F8BC315242013B7A6060
:10855000C5F8BC3106DCD5F8C011284688477168DB
:10856000D5E96E0300F10802013B0AF10A07C5F8DC
:10857000B82107604160C5F8BC3105DCD5F8C011F1
:1085800028468847D5E96E23022B0AF11000B1680E
:1085900002F10807C5F8B871C2E90001A3F10100B2
:1085A000C5F8BC01B7DBBAE72DE9F04381B04D7ED9
:1085B0000F461E469046E9078146089C0CD1A80745
:1085C00042D53D4615F8340FC00727D1042E78D880
:1085D00024F40004023637E0394611F81C0FC007B6
:1085E00005D1042E6DD824F400040236E7E7052EE9
:1085F00067D804F080700090484642463346FFF743
:1086000024FF397F20437D7E013649066FF4400107
:1086100058BF6FF4000101EA0004D0E7052E50D8DE
:1086200004F0807000904846294642463346FFF7E2
:108630000CFF29786FF4400220430136490658BFE9
:108640006FF4000202EA0004B87D81071DD5797E2F
:1086500049071AD5394611F84C2FD20705D1042EF7
:108660002FD824F4000402360FE0052E29D804F098
:1086700080700090484642463346FFF7E6FE40EAE7
:108680000401B87D21F400040136400719D5787E35
:10869000000716D517F8640FC00704D1042E98BF41
:1086A00024F400040DE0052E0BD804F08070009037
:1086B0004846394642463346FFF7C7FE204320F47A
:1086C0000004204601B0BDE8F083B0B5044602F0D6
:1086D000F9FA0028A06152D004F5BC703B21F8F7EC
:1086E000ADF9E56F6DB1D4F888102046FEF794FE21
:1086F0002860D4F888102046FEF78EFE29680860AE
:108700000160D4F8881020460A4600F001FAD4F837
:108710008810206120460A4600F0FAF921690125F7
:10872000606169B360B3C4E901014FF40070E160B6
:1087300000256563FFF7F0FD49F65D024021C0F2B8
:108740000022C4E96D00C4E96F12A0690A2184F80F
:10875000C951FEF776FD98B1A0690A210022FF23D6
:108760000025FEF705FEA0690A210022FEF776FD2E
:10877000FF2805D10025012084F8C90100E0052566
:10878000284684F8C651B0BDB0B5044601F066F87D
:10879000E0688269032A2BD80169DFE802F002074A
:1087A000162040F2FF2241F8042B20E048F200039B
:1087B0000A68C0F2800363F31F2242F400420A6099
:1087C00040F2FF228A600C3111E00022C8F28002E0
:1087D000120C4A8040F2FF22CA60103107E080226A
:1087E000CA70036940F2FF220A6103F114010161BA
:1087F000C16900250139C0E90651012901D800F0FD
:10880000C1F9002084F8C651B0BD0000B0B50446DF
:1088100001F024F8E0688269032A2BD80169DFE8B7
:1088200002F00207162040F2FF4241F8042B20E03C
:1088300048F200030A68C0F2800363F31F2242F487
:1088400000420A6040F2FF428A600C3111E00022CF
:10885000C8F28002120C4A8040F2FF42CA60103116
:1088600007E08022CA70036940F2FF420A6103F107
:1088700014010161C16900250139C0E906510129CE
:1088800001D800F07FF9002084F8C651B0BDB0B522
:108890000446C06F00B1B0BDE568D5E90F01814263
:1088A000F9D049F6F111D4F8C001C0F20021884294
:1088B0001CD0204600F0D2FF204600F08FFF20465B
:1088C00000F0CCFFE06F0028E86BC4F8BC0123D1B6
:1088D000E16804F5DA7E01F1440C0864096D9CE856
:1088E0000C108EE80C10C4F8C01115E005F144031B
:1088F00004F5DA7CD4F8BC0128640FCB8CE80F00B7
:10890000204600F0ABFF204600F068FF204600F054
:10891000A5FFE86BC4F8BC012864B0BD806970474E
:10892000F0B581B00446006890F86810C90725D1F9
:10893000D4E902678569B74212D000BF386818B120
:10894000F96809B100690860B8683A69042100EB68
:10895000800083002846FEF731FC3F68B742EDD126
:10896000B068E169401A3269042100EB800083009D
:10897000284601B0BDE8F040FEF720BC01B0F0BDD4
:10898000F0B581B004464FF4BE70FFF7C5FC054654
:10899000002800F0848087FF5F0085ED100F6FF0E6
:1089A0007F4043A2C5E902004FF07F40C5E9540073
:1089B00092ED001F42A205F1D406D4F880100027E2
:1089C000090140F20801C2F2400192ED003F58BF98
:1089D0004FF480013EA2C5F82011636D85ED4A3F3A
:1089E00092ED003F3EA2C5F84C011020A88243EA58
:1089F000010085ED443F92ED003F3DA240F4002090
:108A000040F4B050C5F824014020C5F8D80005F165
:108A10001C0085ED160F042185ED313F92ED003FDE
:108A200086ED002F86ED380F80EF50006C6085F8E2
:108A3000E91085ED4F1FC5E93F77C5E94177FFF79D
:108A4000FFFC05F13400FFF7FBFC05F14C00FFF7DC
:108A5000F7FC05F16400FFF7F3FC05F17C00FFF77C
:108A6000EFFC05F19400FFF7EBFC05F1AC00FFF71C
:108A7000E7FC23A10C2085F8E8004FF0FF30C5F893
:108A8000380191ED001FC5E937702046294686ED73
:108A9000100F01F0C1FFE0692860E56100E00127E7
:108AA00084F8C671284601B0F0BD00BF00BF00BF0A
:108AB00001000000000000000000000000000000B5
:108AC00000000000000008000000010000C00300DA
:108AD00000000100AA0000000000010000160000D4
:108AE000AA000000040000000000000010000000C8
:108AF0000100000002000000010000000100000071
:108B0000010000000300000003000000030000005B
:108B1000F0B581B050B305460F46032921D3164660
:108B2000022A1ED95820FFF7F7FBE0B104460020C7
:108B300021463A46A0632846FFF70AFCD0B1E86F09
:108B400040B94FF40070FFF7E7FBA06390B14020FD
:108B5000C4E90F000020C4E90860606585F8C6011B
:108B600005E00D2000E0012085F8C6010024204624
:108B700001B0F0BD012085F8C6012046FFF785FB56
:108B8000F4E700002DE9F04782B0456904465DB185
:108B9000E069A969002837D0012940F0CD8020681C
:108BA0000121D0F8188066E0206948F23201C8F24D
:108BB0008001016000212569A06845F8041FC56097
:108BC00040F2FF30686005F108002061E069A161B2
:108BD0000138E0612046FFF7A1FB206890F8C7014B
:108BE00000286AD0A16920690329A0F10C02226142
:108BF00000F29D80DFE801F00275869140F2FF31BE
:108C000040F80C1C083891E020680229D0F8188040
:108C100031D3A768D5F810A0B8687E68FB6800EB70
:108C20008001206906EB81020AEB81091BB1C3F8C0
:108C300000900023FB6090420DD28900021D314458
:108C4000914251EA8281C2431144802221F0030102
:108C50000431F7F7EBFEB8685146324600EB80006E
:108C60008300102000904046FEF7E3FAA869C5F89B
:108C700010900138ADE0EA69022A17D3EE68A768C0
:108C8000511EE96156F8040F50B9A868042100EBA1
:108C9000800082004046FEF78DFA002830604ED0FA
:108CA000F96871B108600020F8604CE0012A02BF49
:108CB0000129152180F8C7118CE0A0684068286060
:108CC0003AE0216948F23202C8F280020A60A168E3
:108CD000226942F8040FCA60101D20610020A061C3
:108CE00031E048F2000250F80C1CC0F2800262F33E
:108CF0001F2141F4004140F80C1C40F2FF3140F8C4
:108D0000041C13E00021C8F28001090C20F80A1CA1
:108D100040F2FF3140F8041B08E0802100F8091CF4
:108D2000226940F2FF31416002F11400206100200D
:108D3000A061E0690138E06102B0BDE8F087206819
:108D4000012180F8C711A16903292BD82069DFE828
:108D500001F00207162040F2FF3140F8041B20E02A
:108D600048F200020168C0F2800262F31F2141F460
:108D70000041016040F2FF3181600C3011E00021C0
:108D8000C8F28001090C418040F2FF31C16010300F
:108D900007E08021C170226940F2FF31016102F1D8
:108DA00014002061A0680021A161E1698268013995
:108DB000E161296902EB820342689B001020009068
:108DC0004046FEF736FA306820B1EE603068286120
:108DD0006869A861204602B0BDE8F047FFF79EBA77
:108DE00070B505464FF4EA70FFF796FA044600287E
:108DF0004FD029A0A5660026A4F8C66190ED001FFB
:108E00002046C4E9066684ED121FFFF7B9FDC4E9E8
:108E100008006906A062E0624FF0000002D47020F2
:108E2000FFF77AFA206304F13400142184F8C66154
:108E300084F8C461F7F724FE01206066201D142128
:108E4000F7F71EFE3320C4F88800042015F0040F45
:108E500050EA1090A4F87860E6662907C4E91C6619
:108E600040F2271148BF00F00100C4E9170604F1E1
:108E70008C00C4E91F6684F8C861F7F701FE4FF65D
:108E8000F8210820C2F2012184F8C5010868206099
:108E90000C60204670BD00BF020000000000000012
:108EA0000000000000002000B0B58469032C20D829
:108EB00040F2000C0169C8F2800C0CF500434FF041
:108EC000020EFF22DFE804F01A0E02084FF0030E34
:108ED0004FF6FF72634605E04FF0040E4FF000437B
:108EE0006FF07F420D682A401A430A6001EB8E0141
:108EF000016100218161C1690139C161B0BD40EAF0
:108F0000500040EA900040EA101040EA102040EA89
:108F100010407047F0B581B00546086816460C460B
:108F200000F09CFCA16903292BD82069DFE801F03F
:108F30000207162040F2FF3140F8041B20E048F2FF
:108F400000020168C0F2800262F31F2141F4004177
:108F5000016040F2FF3181600C3011E00021C8F265
:108F60008001090C418040F2FF31C160103007E000
:108F70008021C170226940F2FF31016102F11400C9
:108F800020610020A061E86FE1690028A1F10100E3
:108F9000E06114D1A168086878B1A26A0132A262C6
:108FA0003C2A0CD10F460146006808B12FF007C0DB
:108FB0002068FFF7F1F8002038600020A0626069A7
:108FC00090B14EB32068FFF7A9FCA268E1690027C1
:108FD000936852685B1A616903EB830309699B001C
:108FE0000097FEF726F911E0D5F88400810705D433
:108FF000C00607D42046FEF71BFC06E02046FEF71D
:10900000E5FE02E02046FFF78BFC2EB1204600F083
:1090100004FC0020606215E00020E0612046FFF7BC
:10902000B1FD6169A068E06009B108690AE095F8DE
:10903000841011F0120F04D00069002808BF2069C5
:1090400000E0206901B0F0BDF0B581B00C46E0B1A0
:10905000054620461646FEF741F9E0B10746A8420C
:109060001AD82846FEF7A4F8A8B1054676B1042F11
:109070000CD34FEA970E2846214600BF51F8042B27
:1090800040F8042B0FF007C000E000252046FEF753
:10909000E0F82C4600E00024204601B0F0BD2DE9A8
:1090A000F04F83B00C9E0446002E4FF0000000F0FD
:1090B00089828A460D990129C0F28482951922F08D
:1090C0000F00ADF8040023F00F00ADF80600681E95
:1090D0005E1820F00F00ADF80800701E20F00F00A1
:1090E000ADF80A0001A920469B461746FEF7DAFDB7
:1090F00048B3A5F11000A6F110010FFA80F920463F
:109100000FFA81F8514600F073FF9AF8D500C107B5
:109110001BD110F0020048EA0B025FEA1F9112F027
:109120000F0F5FEA1F9249EA07031B0718BF0028C9
:1091300041EA020140F01B81002900F0958101AA5B
:109140000023002014E200203CE2BDF904000426C4
:10915000C11BDAF810014143D4E96E73013BC4F836
:10916000BC313E6000EB111207F10801C4F8B811E0
:109170007A6007DCD4F8C01120468847DAF810017D
:10918000D4E96E1301F10802013BC4F8B8214FF095
:109190000A070F604860C4F8BC3105DCD4F8C01180
:1091A00020468847D4E96E2302F10800013BC4F849
:1091B000B8014FF010014FF0000711605760C4F87C
:1091C000BC3105DCD4F8C01120468847D4E96E03D1
:1091D000BDF90410DAF81021013B4FF00506A9EBA8
:1091E0000101066002FB01F1C4F8BC3102EB11176A
:1091F00000F10801C4F8B811476007DCD4F8C011C9
:1092000020468847DAF81021D4E96E13504201F164
:109210000802013BC4F8B8214FF00B070F6048600B
:10922000C4F8BC3105DCD4F8C01120468847D4E925
:109230006E2302F10800013BC4F8B8014FF01101A0
:109240004FF0000711605760C4F8BC3105DCD4F85A
:10925000C01120468847D4E96E03BDF90610DAF83C
:109260001021013B4FF00607A1EB0B01076002FB49
:1092700001F1C4F8BC3102EB111200F10801C4F88D
:10928000B811426005DCD4F8C01120468847D4E903
:109290006E1301F10802013BC4F8B8214FF00C0035
:1092A0004FF0000708604F60C4F8BC3105DCD4F80B
:1092B000C01120468847D4E96E23DAF8101102F174
:1092C0000800013BC4F8B8014FF012071760516065
:1092D000C4F8BC3107DCD4F8C01120468847DAF85E
:1092E0001011D4E96E03BDF90620A8EB02024A432F
:1092F00001EB121700F10801072202605A1EC4F8A0
:10930000B8114760C4F8BC2105DCD4F8C011204670
:109310008847D4E96E1201F10800013AC4F8B80197
:109320004FF00D034FF000070B604F60C4F8BC21F5
:1093300005DCD4F8C01120468847D4E96E02DAF87B
:109340001011013AC1F1000100F10803C4F8B8316D
:109350004FF0130303604160C4F8BC2103DCD4F870
:10936000C0112046884701AA04230F2000E1BDF95F
:1093700004004FF4803200294FF00406A0EB0700F0
:1093800002EB0033D4E96E7207F10800A2F101018B
:10939000C4F8B801C4F8BC11C7E9006300F0158136
:1093A000012A05DCD4F8C01120468847D4E96E01B3
:1093B00000F108020139C4F8B8214FF00A034FF454
:1093C000803703604760C4F8BC1105DCD4F8C011D5
:1093D00020468847D4E96E2102F10800102313606B
:1093E0004B1EC4F8B8014FF000075760C4F8BC31F9
:1093F00005DCD4F8C01120468847D4E96E03BDF9D6
:1094000004104FF48032A9EB010102EB013700F1A7
:109410000801052202605A1EC4F8B8114760C4F85A
:10942000BC2105DCD4F8C01120468847D4E96E126F
:1094300001F108000027013AC4F8B8014FF00B030E
:10944000CFF6FF770B604F60C4F8BC2105DCD4F881
:10945000C01120468847D4E96E0200F10801C4F823
:10946000B8111121002376E0BDF906004FF48031D8
:10947000D4E96E320427A0EB0B00013A1F60C4F858
:10948000BC2101EB003103F10800C4F8B8015960B8
:1094900005DCD4F8C01120468847D4E96E0200F1FB
:1094A0000801013AC4F8B8114FF00A034FF0000761
:1094B00003604760C4F8BC2105DCD4F8C011204625
:1094C0008847D4E96E1201F108004FF48036013A62
:1094D000C4F8B8014FF010030B604E60C4F8BC2113
:1094E00005DCD4F8C01120468847D4E96E02BDF9E6
:1094F0000610013A4FF005070760A8EB0101C4F818
:10950000BC2106EB013300F10801C4F8B811436037
:1095100005DCD4F8C01120468847D4E96E1201F169
:109520000800013AC4F8B8014FF00B034FF00007F0
:109530000B604F60C4F8BC2105DCD4F8C011204694
:109540008847D4E96E02002300F10801C4F8B8117D
:109550001121CFF6FF730160511E4360C4F8BC11A6
:1095600003DCD4F8C0112046884701AA0223032057
:10957000009020465146FFF717F801AF064600233A
:10958000204651463A46002500F0DDFF00232046E4
:1095900051463A4601F0A4F8D4E96E01013900F1D0
:1095A0000802C4F8B82105604660C4F8BC1103DCA9
:1095B000D4F8C0112046884701A90022204601F0B6
:1095C000E0FA012003B0BDE8F08F012A05DCD4F8F1
:1095D000C01120468847D4E96E0100F10802013924
:1095E000C4F8B8214FF00A034FF480370360476096
:1095F000C4F8BC1105DCD4F8C01120468847D4E972
:109600006E2102F10800102313604B1EC4F8B8014C
:109610004FF000075760C4F8BC3105DCD4F8C01126
:1096200020468847D4E96E03BDF904104FF4803218
:10963000013B4FF00507A9EB01010760C4F8BC31FD
:1096400002EB013200F10801C4F8B811426005DCF8
:10965000D4F8C01120468847D4E96E13002701F1E1
:109660000802CFF6FF77013BC4F8B8214FF00B009A
:1096700008604F60C4F8BC3105DCD4F8C011204646
:109680008847D4E96E2302F1080011211160591EA8
:10969000C4F8B8014FF000065660C4F8BC1105DCF0
:1096A000D4F8C01120468847D4E96E01BDF90620E0
:1096B0004FF48033A2EB0B0203EB023600F10802F9
:1096C000062303604B1EC4F8B8214660C4F8BC31C1
:1096D00005DCD4F8C01120468847D4E96E2302F196
:1096E0000801013BC4F8B8114FF00C004FF0000620
:1096F00010605660C4F8BC3105DCD4F8C0112046B7
:109700008847D4E96E1301F1080012224FF4803625
:109710000A605A1EC4F8B8014E60C4F8BC2105DCCA
:10972000D4F8C01120468847D4E96E02BDF906106E
:10973000013AC4F8BC21A8EB010106EB013300F1AA
:109740000801C4F8B8114FF007060660436005DC55
:10975000D4F8C01120468847D4E96E1201F1080000
:10976000013AC4F8B8014FF00D034FF000060B604A
:109770004E60C4F8BC2105DCD4F8C01120468847EF
:10978000D4E96E0200F10801C4F8B8111321016098
:10979000511E4760C4F8BC117FF7E1ADE3E580B529
:1097A00082B0DDE904CECDE900CEFFF778FC02B04F
:1097B00080BDC16F01B17047C16801F1440CD0F8A0
:1097C000BC210A64096D9CE80C10C0F8B421C0F8F3
:1097D000B831C0F8BCC1C0F8C0117047C16F01B149
:1097E0007047C16800F5DA7C9CE80C108B64C1F806
:1097F0004CC0D1E90FC34A64ACEB030CD0F8C021D4
:109800000A65896B00F5DA7001EBCC0249F6F11CB0
:10981000C0F2002C80E80E10704710B504460068B6
:1098200090F86810890604D400F5BC703B21F7F766
:1098300005F961696068C4E9020039B1D1E9002C19
:10984000CA604B69C1E9063C12680A61D0E901109F
:1098500021610021C4E90610E16210BD2DE9F04F3D
:1098600081B08046C56890F86800D8E96D618A1BB0
:1098700080064FEAE207286848D4B142AC6943D079
:109880004FF0010C012F57EA8C8740F2745B00F116
:109890008C0900F5BC7A2869C0F2022B296891F87E
:1098A000C71189BB31681BF80120002A72680AD0F1
:1098B0001AF801301BB159F82130934220D00AF830
:1098C00001C049F8212000EB84030155611C5A6056
:1098D00011F00304E96A01F10101E96210D1E969BB
:1098E00028690139143001294FF000042861E96129
:1098F00006D82846AC61FFF745F94FF0010C2869FE
:10990000013F06F10806C9D1AC6108E090F8C72113
:10991000A869EB6A002A03EB0702EA6207D0D8F8CD
:10992000B4014021C8E96E0101B0BDE8F08FF8B183
:10993000B142F4D0296900BFF6E802230A5401EBD2
:1099400080020130013F00F00300536018BF00287F
:10995000F2D10028E3D10020A861E8692969013823
:10996000143101282961E86102D82846FFF70AF975
:10997000BC0823D0286890F8C701F8B92869316875
:109980000170B168417031698170B169C1707168ED
:109990004160F16881607169C160F1690161E869E4
:1099A00029690138143101282961E86102D8284663
:1099B000FFF7E8F8013C06F12006DBD117F00300C1
:1099C000ADD000BF296891F8C7110029A7D1A969B6
:1099D0002A693368746802EB8107535401310138F6
:1099E00006F108067C6001F00301A961EAD196E75F
:1099F00070B5C56804460122D5E90E163001FFF79F
:109A000023FB50B17200D5E90F31C3EB4606A863C2
:109A100093423144C5E90F2109D12046FEF737FFB3
:109A2000E068D4F8B411006CC4E96E1070BDE06851
:109A3000D4E96D13D4F8BC21591A806B3244C4F8B0
:109A4000BC210144C4E96D0170BD70B50D460446EA
:109A5000FFF704FFE06FD8B1E668AE4218D0706D32
:109A6000B0B93046FFF720FA306948F23201C8F247
:109A70008001002201603069B16840F8042FC8609D
:109A800004303061B261002220463146FFF742FACD
:109A900005B9A568696A00206865E560606319B169
:109AA00068622846FFF7B9FE686908B1006808E0F7
:109AB00094F8840010F0120F686801D006690EB99E
:109AC0000430066820462946FDF741FF2046294616
:109AD0003246FDF778FC94F86800800604D404F55B
:109AE000BC703B21F6F7AAFF0020002184F8C611C4
:109AF00070BDE0B1B0B50446406E0D46884223D03B
:109B0000082D18BF082814D1616A0828656691F8E5
:109B10000E2142F0010081F80E0102D12046FFF72C
:109B200048FE082D10D12046FFF758FE0CE0022019
:109B300070472046FEF7ABFE606A656690F80E112E
:109B400041F0010180F80E11002084F8C601B0BD7B
:109B50008446406A827C90F80E318A4243F00102CA
:109B600080F80E2103D043F0070280F80E21827D99
:109B70008174D20702D00906C0F84C1100200021E0
:109B80008CF8C61170478446406A827D90F80E3189
:109B90008A4243F0010280F80E2103D043F007020D
:109BA00080F80E21CA07817502D14FF07F4101E094
:109BB000817C0906C0F84C11002000218CF8C611E8
:109BC00070470246406A90F8D53039B143F002013F
:109BD00080F8D5100021C0F828110DE04FF4FC41A9
:109BE000C0F828114FF48031C0F8101103F0FC01C7
:109BF00080F8D510102181820020002182F8C61142
:109C000070470000B0B5D0F824E003299EF80EC1DB
:109C10004CF001038EF80E310CD8032A0AD80FF24B
:109C2000580C5CF82110DFE802F0020C070A41F43E
:109C3000805106E010211BE041F4806101E041F415
:109C4000A051DEF82C21436DDEF820C1DEF83C5136
:109C50001A43DEF8403142EA0C02DEF844412A435E
:109C6000CEF81C111A4322431143CEF824110021CF
:109C700080F8C6110846B0BD0008000000000000D2
:109C800000020000000A000010B5DDF80CC05FEA19
:109C9000CC6E04D590F882E05FEA0E6E17D55FEACD
:109CA0008C6E04D590F882E05FEA8E6E0FD52CF0B2
:109CB000300EAEF10D0EBEF1020F0CD8D0F880E0E0
:109CC0005FEACE3407D40EF0FE04092C03D8092134
:109CD00080F8C61106E0406A029C00F5B47080E886
:109CE0001E100021084610BD0246406A032990F864
:109CF0000E31C17543F0010380F80E3114D8DFE84E
:109D000001F00202070D90F8D51001F0F30109E00F
:109D100090F8D51001F0F301043103E090F8D5106C
:109D200041F00C0180F8D5100020002182F8C61106
:109D300070470246406A0023022980F8D6104FF08F
:109D4000000108BF032380F80F31002082F8C611FC
:109D500070470246406A80F8D7100020002182F840
:109D6000C611704780B58646406A0903120390F811
:109D70000EC1C0E93F1200218EF8C6114CF001035C
:109D800080F80E31002080BD2DE9F0418046406A08
:109D900000F1EC0EDDE9065490F80EC1C0F8F810A1
:109DA0008EE82C0014F010034CF0010680F80E61D0
:109DB0004FF0000180F8EA1003D098F882100906ED
:109DC00014D514F0200E03D098F8822092060DD5F9
:109DD00024F03002A2F10D06022E09D8D8F88040F6
:109DE000E60305D404F0FE060A2E01D20920BEE0E7
:109DF0003F2A0EDC0F2A00F28880DFE802F00823F9
:109E0000122010262E376E3B754750575C65002692
:109E100038E0402A05D0412A11D0422A75D11026B7
:109E20005CE00325402A55EA05954FF40026C0F86A
:109E30002C61042680F8E96080F8EB5065E04FF46F
:109E400040264BE04FF4802648E098F88260B60642
:109E5000CCD51026C0F2040614E01026C0F2040689
:109E600006F58026C0F82C6104263AE01026C0F2E0
:109E70000C0633E098F88260B606B7D51026C0F21B
:109E800004061036C0F82C6101262AE098F882609A
:109E9000B6067FF5ABAF1026C0F20C060EE098F8C0
:109EA0008260B6067FF5A2AF302611E01026C0F220
:109EB0000406203620E02026C0F208061036C0F83E
:109EC0002C6140F201461BE01026C0F20C06203641
:109ED000C0F82C6140F6010612E02026C0F82C6183
:109EE000022680F8E9600EE098F88260B6067FF5F9
:109EF0007DAF2026C0F20806C0F82C6140F2012692
:109F0000A0F8E960012680F8EB600BB9002305E0BA
:109F100090F8EB304FF0414606EB8373052AD8F8F2
:109F20005420D0E94765C0F83C31D0F84041D0F822
:109F30002C1124F0007442EA060204F1007757EA7B
:109F400004841143D0F84421BEF1000F57EA14876E
:109F50002943C0F84071114319433943C0F8241113
:109F60004CF0110180F80E11FDF7C0FC002088F8BC
:109F7000C601BDE8F0812DE9F041456A84460DF146
:109F8000200EDDE9067695F80E01A5F8A8109EE8EA
:109F9000104140F0110085F80E010020A5F8AA201C
:109FA000C5E926640021C5E92837C5E92C8E8CF85F
:109FB000C611BDE8F08110B50446406A4FF4703315
:109FC00090F80E2142F0010280F80E2103EA81325E
:109FD00001F00F0182F44042C0F8342180F8E8100B
:109FE000FDF784FC0020002184F8C61110BD00009C
:109FF0002DE9F04381B00D460446416B95F80E0102
:10A00000A94208BF10F0010100F09A82297E656321
:10A0100000F0FE0085F80E01012919D1E97CD5F880
:10A02000240120F44000C5F824010806D4E96E128A
:10A03000013A01F10803C4F8B8314FF01A030B607C
:10A040004860C4F8BC2103DCD4F8C011204688471E
:10A05000E87D032800F27482D5F82461DFE800F07F
:10A06000023060B7A868D5F84C1146F080770843F5
:10A07000D4E96E12013A01F10803C4F8B8314FF087
:10A0800019030B604860C4F8BC2103DCD4F8C0118C
:10A090002046884740F2C811A06DC3F2F00170401D
:10A0A000084202D02046FEF7B1FBD4E96E01A76555
:10A0B00000F10802C4F8B8210122C0E90027ECE051
:10A0C000A868D5F84C110843D4E96E12013A01F1A1
:10A0D0000803C4F8B8314FF019030B604860C4F8A6
:10A0E000BC2103DCD4F8C01120468847287E012813
:10A0F000E86840F0A280E97C40EA0160D4E96E1291
:10A10000022A01F10803C4F8B8314FF01A03C1E97B
:10A110000030A2F10100C4F8BC01C0F29F80A1E0B0
:10A1200095F80E01800702D52846FDF7ABFBD5F860
:10A130005001A968D4E96E321927014303F10800E0
:10A14000013AC4F8B8011F605960C4F8BC2105DCAD
:10A15000D4F8C01120468847D4E96E02D5F85411CE
:10A16000EB68013A4FF01A0743EA010300F10801D6
:10A17000C4F8B81107604360C4F8BC2105DCD4F80A
:10A18000C01120468847D4E96E12013AD5F814016F
:10A1900001F10803C4F8B8314FF01D030B604860AB
:10A1A000C4F8BC2103DCD4F8C01120468847D5F898
:10A1B0003001A16D40F2C8123043C3F2F0024140B9
:10A1C00040F08070114240F0010557D159E095F8F8
:10A1D0000E01400702D52846FDF76CFBD4E96E124C
:10A1E000013AD5F8600101F10803C4F8B8314FF025
:10A1F00019030B604860C4F8BC2103DCD4F8C0111B
:10A2000020468847287E0128D5F8640153D1E97C8F
:10A2100020F07F4040EA0160D4E96E12022A01F189
:10A220000803C4F8B8314FF01A03C1E90030A2F1B5
:10A230000100C4F8BC014CDB4FE0D5F84C110843D9
:10A24000D4E96E12013A01F10803C4F8B8314FF0B5
:10A250001A030B604860C4F8BC2103DCD4F8C011B9
:10A260002046884740F2C811A06DC3F2F00170404B
:10A2700046F08072084242F4005502D02046FEF7B4
:10A28000C5FAD4F8B801A565D4F8BC1100F10802EC
:10A29000C4F8B8210122026045600229A1F1010041
:10A2A000C4F8BC0180F24C81D4F8C011204601B042
:10A2B000BDE8F0430847D4E96E12013A01F1080302
:10A2C000C4F8B8314FF01A030B604860C4F8BC21E1
:10A2D00003DCD4F8C01120468847D5F83C01C10101
:10A2E00002D494F8C41121B12046FEF74DFAD5F8F6
:10A2F0003C01D4E96E32C0F3006084F8C40103F17C
:10A300000800013AD5F8F810C4F8B8014FF02F074B
:10A310001F605960C4F8BC2105DCD4F8C011204688
:10A320008847D4E96E0200F10801013AD5F8EC3013
:10A33000C4F8B8114FF02D0707604360C4F8BC2182
:10A3400005DCD4F8C01120468847D4E96E1201F12B
:10A350000800013AD5F83831C4F8B8014FF02E079B
:10A360000F604B60C4F8BC2105DCD4F8C011204656
:10A370008847D4E96E0295F80D11013A00F10803FF
:10A38000C4F8B8314FF0390303604160C4F8BC2110
:10A3900003DCD4F8C01120468847D4F8800081023D
:10A3A00040F18880C0014FF48076D5F8080158BF8D
:10A3B000102618B1A16B814206D108E0D5F804112E
:10A3C00029B1A26B8A4202D0012185F80C1195F8BF
:10A3D0000C1100296ED090B3D4E96E0105F5847894
:10A3E000013900F10802C4F8B8214FF037024FF0EC
:10A3F000000302604360C4F8BC1103DCD4F8C01150
:10A400002046884700274FF0380900BFD8F80000E1
:10A41000D4E96E12013AC05901F10803C4F8B83109
:10A42000C1F800904860C4F8BC2103DCD4F8C01126
:10A4300020468847013E07F10407E7D134E0D5F80C
:10A440000401B8B3D4E96E0105F58278013900F151
:10A450000802C4F8B8214FF037024FF00003026041
:10A460004360C4F8BC1103DCD4F8C011204688470F
:10A4700000274FF0380900BFD8F80000D4E96E1269
:10A48000013AC05901F10803C4F8B831C1F800908D
:10A490004860C4F8BC2103DCD4F8C01120468847CA
:10A4A000013E07F10407E7D1002085F80C01D8F838
:10A4B0000000A06394F88300800718D5D5F8440104
:10A4C000B0F1806F13D1D4E96E12013AD5F848018A
:10A4D00001F10803C4F8B8314FF03A030B6048604B
:10A4E000C4F8BC2103DCD4F8C01120468847D5F855
:10A4F0002401D5F83411D5E94F230843D5F8441188
:10A50000104340F2C8121843C3F2F0020843A16D91
:10A5100040F002054140114202D02046FEF776F994
:10A52000D4E96E01A565013900F10802C4F8B8212B
:10A530004FF0010202604560C4F8BC117FF7B4AE71
:10A5400001B0BDE8F083B0B50D46C97D022940F0E9
:10A55000C6800446E86FB5F9901000F0200083B182
:10A5600008BBB2F90000B2F90620B5F99230091A19
:10A570009A1AD5E920C30CFB01F102FB0311091162
:10A5800023E0002866D1B2F90000B5F99230B2F9A3
:10A590000220091A9A1AD5E920C30CFB01F102FB2B
:10A5A0000311091162E0B2F90200B2F90620B5F90F
:10A5B0009230801AC218D5E920C30CFB01F102FBCE
:10A5C0000311D5F8882002EB2111D4E96E03C1F103
:10A5D000000E00F10801013BC4F8B8114FF024024D
:10A5E0000260C0F804E0C4F8BC3107DCD4F8C01144
:10A5F00020468847D5F880C0D4E96E1301F10802DF
:10A60000013BC4F8B8214FF025000860C1F804C030
:10A61000C4F8BC3105DCD4F8C01120468847D4E921
:10A620006E23D5F88400022BC0F1000002F108016E
:10A63000C4F8B8114FF02601C2E90010A3F10100DF
:10A64000C4F8BC01A8BFB0BDD4F8C0112046BDE815
:10A65000B0400847B5F99220D5E920C30CFB01F1C1
:10A6600003FB0211D5F8882002EB2111D4E96E0317
:10A67000C1F1000E00F10801013BC4F8B8114FF020
:10A6800024020260C0F804E0C4F8BC3107DCD4F84E
:10A69000C01120468847D5F880C0D4E96E1301F177
:10A6A0000802013BC4F8B8214FF025000860C1F84A
:10A6B00004C0C4F8BC3105DCD4F8C011204688477A
:10A6C000D4E96E2302F10801C4F8B8112621116003
:10A6D000591ED5F884005060C4F8BC11B4DDB0BD7B
:10A6E0002DE9F04F83B00D46C97D032940F09081DC
:10A6F0000446B5F9A800B2F90010B5F9AAB0D5E939
:10A7000026CA002BA0EB0101D5E928E00290D5E98B
:10A710002C600CFB01F8D4F8B87106FB01F9D5F8F0
:10A72000FC6007F10801D5F80031019300F0BE800C
:10A73000B2F90620C4F8B811ABEB020202FB0A839F
:10A7400000FB029A24223A60A6EB2310D4F8BC3115
:10A75000013B70447860C4F8BC3107DCD4F8C01108
:10A7600020468847D5F898C0D4E96E13019801F1C6
:10A770000802A0EB2A16013BC4F8B8214FF02500CF
:10A780000860C1F804C0C4F8BC3105DCD4F8C011BD
:10A7900020468847D4E96E23029826213718D5F839
:10A7A0009C00464202F108001160591EC4F8B8012D
:10A7B0005660C4F8BC1105DCD4F8C01120468847A7
:10A7C000D4E96E01D5F8EC203B14D5E92C8902FBC5
:10A7D00003F600F10802272303604B1EC4F8B821DA
:10A7E0004660C4F8BC3105DCD4F8C0112046884767
:10A7F000D4E96E2302F10801013BB8B2C4F8B811E4
:10A800004FF0280717605060C4F8BC3105DCD4F85D
:10A81000C01120468847D4E96E134FEA2840D5F886
:10A82000EC20C9F1000902FB00F601F10800013B30
:10A83000C4F8B8014FF029070F604E60C4F8BC316E
:10A8400007DCD4F8C01120468847D5F8EC20D4E9BD
:10A850006E034FEA294102FB01F700F108012A22A9
:10A8600002605A1EC4F8B8114760C4F8BC2105DC68
:10A87000D4F8C01120468847D4E96E12022AC8EAEB
:10A88000094001F10803C4F8B8314FF02B03C1E9C6
:10A890000030A2F10100C4F8BC0180F2B980D4F804
:10A8A000C011204603B0BDE8F04F0847B2F90220BE
:10A8B000C4F8B811ABEB020202FB0A8300FB029A58
:10A8C00024223A60A6EB2310D4F8BC31013B70443B
:10A8D0007860C4F8BC3107DCD4F8C0112046884742
:10A8E000D5F898C0D4E96E13019801F10802A0EBE5
:10A8F0002A16013BC4F8B8214FF025000860C1F8C2
:10A9000004C0C4F8BC3105DCD4F8C0112046884727
:10A91000D4E96E2302982621064402F10800116052
:10A92000591ED5F89C70C4F8B8015760C4F8BC1122
:10A9300005DCD4F8C01120468847D4E96E01D5F86B
:10A94000EC203314D5E92C8902FB03F700F108024F
:10A95000272303604B1EC4F8B8214760C4F8BC31FC
:10A9600005DCD4F8C01120468847D4E96E2302F1F3
:10A970000801013BB0B2C4F8B8114FF028071760C6
:10A980005060C4F8BC3105DCD4F8C01120468847BB
:10A99000D4E96E134FEA2840D5F8EC2002FB00F70B
:10A9A00001F10800013BC4F8B8014FF029060E6020
:10A9B0004F60C4F8BC3107DCD4F8C011204688478A
:10A9C000D5F8EC20D4E96E034FEA294102FB01F7E8
:10A9D00000F108012A2202605A1EC4F8B81147602B
:10A9E000C4F8BC2105DCD4F8C01120468847D4E95E
:10A9F0006E12013AC8EA094001F10803C4F8B831FF
:10AA00004FF02B030B604860C4F8BC217FF747AFC1
:10AA100003B0BDE8F08F0000F0B591F8E400013814
:10AA200006280AD8DFE800F0040C1013181D2200D5
:10AA30004FF0FF0E4FF0FF0C1CE04FF0000E12E045
:10AA400091F8DCE0F44615E04FF0FF0C06E04FF023
:10AA5000000C4FF0FF0E0DE091F8DCC04FF0000E3F
:10AA600008E091F8DCE04FF0000C03E091F8DCE046
:10AA700091F8E0C091F8E53070466246072B1FD888
:10AA80001A46DFE803F01C04070B0D101418FF230F
:10AA9000FF2214E091F8DD301A4610E0FF2204E0B6
:10AAA0000022FF230BE091F8DD20002307E091F85E
:10AAB000DD30002203E091F8DD3091F8E120184606
:10AAC00091F8E65004461346072D1FD82B46DFE8C1
:10AAD00005F01C04070B0D101418FF25FF2314E0CC
:10AAE00091F8DE502B4610E0FF2304E00023FF2501
:10AAF0000BE091F8DE30002507E091F8DE500023EE
:10AB000003E091F8DE5091F8E2302C4691F8E750DE
:10AB100027461E46072D1FD82E46DFE805F01C04E9
:10AB2000070B0D101418FF25FF2614E091F8DF50D5
:10AB30002E4610E0FF2604E00026FF250BE091F8EA
:10AB4000DF60002507E091F8DF50002603E091F870
:10AB5000DF5091F8E3602F461204000442EA0C62D1
:10AB600040EA0E6042EA032291F80E3140EA0420E6
:10AB700032443844C1E9560243F0040081F80E0122
:10AB8000F0BD2DE9F0410D460446B1F90000B1F9E0
:10AB90000410B5F90230B5F90670081AB4F840107F
:10ABA000FF1A4FEA201841EA0242D4E96E3103F15C
:10ABB00008000139C4F8B8014FF01F061E605A6042
:10ABC000C4F8BC1105DCD4F8C01120468847D4E98C
:10ABD0006E014FF6FF723B030139C4F8BC1123EA42
:10ABE000020200F108034244C4F8B83102F1011234
:10ABF0004FF01E030360426003DCD4F8C01120460E
:10AC00008847606C04281BD0022835D0012831D138
:10AC1000B5F90000B5F90210D4E90F23D4E96E7636
:10AC2000091102EB201003FB010007F10801C4F831
:10AC3000B8112021C7E90010022EA6F1010036E06C
:10AC4000B5F90200226CB5F900100011D4E96E3795
:10AC500009115043E26B02EB810101EB800003F12B
:10AC60000801C4F8B81120211960791E5860C4F891
:10AC7000BC1121DDBDE8F081B5F90200226CB5F907
:10AC80000010D4F8B831001109115043E26B02EB07
:10AC90004101D4F8BC2101EB400003F10801C4F8E4
:10ACA000B8112021C3E90010022AA2F10100C4F862
:10ACB000BC01A8BFBDE8F081D4F8C0112046BDE8B2
:10ACC000F041084770B504460846FCF709FB054605
:10ACD000E0B10121012228460126FCF7BFFA41011B
:10ACE000C4F8800048BF84F8C861800303D4A06E14
:10ACF00040F00100A066E36D012131222846FCF7F7
:10AD000037FB2846FCF71DFBC4F88400284670BDBD
:10AD1000B0B5054690F86800C007AC6912D100BF15
:10AD2000012100222046FCF799FA000711D595F879
:10AD300068008007F4D40421C8222046FCF704FBF5
:10AD4000EEE700BF012100222046FCF787FA8007CA
:10AD5000F8D1B0BD80B5FCF753FA01285FEA0F9037
:10AD6000400080BD8C46012113466246FCF700BBC3
:10AD7000B0B5044690F868000B6BC00710D1D3F84B
:10AD800000C0BCF1000F1BD094F8C9010121322290
:10AD90000028A06908BF6346BDE8B040FCF7E8BAE8
:10ADA0002AB119682046BDE8B040FDF79BB80D1DDB
:10ADB0002D682DB169682046FDF794F80328F7D176
:10ADC000B0BD000010B50446012100222046FCF76A
:10ADD00045FAC007F8D110BD80B540F2E840C0F296
:10ADE000022001F057FE002080BD000070B586B043
:10ADF00002A901F0A9FE38B10FF00FFF2D3013D1D9
:10AE000026A010F099FC15E0DDF808C0DDF810E090
:10AE1000AEFB0C43B4F5801073F1000054EA9F239D
:10AE20000BD2002200211FE00FF0F7FE014614A014
:10AE300010F082FC4FF0FF3020E0012000261D467C
:10AE4000224654EA9F25F107014608D1104650EAF0
:10AE50001F53012618434FF002002B46F0D16FF329
:10AE60009F2202EB8200420A15A0CDE900EC50F8C7
:10AE7000213016A0214610F05FFC002006B070BD06
:10AE8000737461746673206661696C65643A2065E9
:10AE900072726E6F3D25642E0A00000054686520B2
:10AEA00066756E6374696F6E206973206E6F7420AF
:10AEB000696D706C656D656E7465642E0A000000C6
:10AEC0002E390202313902022B3902026469736B96
:10AED00020667265653A2025642E2564202573203E
:10AEE0005B20256420626C6F636B2C2025642062DC
:10AEF000797465732070657220626C6F636B205D7E
:10AF00000A000000B0B5044650B943F2C17043F2E4
:10AF1000FB71C0F20220C0F202216F220FF02AF969
:10AF20002069C16800290CDC43F2947043F2FB7184
:10AF3000C0F20220C0F2022170220FF01BF920693A
:10AF4000C168012901DD0020B0BD0188022905D1B9
:10AF500041680A782F2A01D14978B9B1856A55B973
:10AF600043F2AF7043F2FB71C0F20220C0F2022143
:10AF700085220FF0FFF828460FF0FDFA10B16FF0B0
:10AF80000B00B0BD216900208862B0BD846A54B94D
:10AF900043F2D17043F2FB71C0F20220C0F20221F1
:10AFA0007C220FF0E7F820460FF000FECBE7000010
:10AFB0002DE9F04381B0006915460C46866A46B912
:10AFC00043F2D17022A1C0F2022040F259120FF0D8
:10AFD000D1F8B5F5827F02D26FF0040034E04CF274
:10AFE000FD000127CFF60F400434A5FB000100252A
:10AFF0004FF00C084FF48279080A012888BF0F0A25
:10B00000B088F1882844884218D231680C2251F85F
:10B01000201088691E284FF0080008BF042004F89B
:10B02000040C204604F8038C24F8029C12F0F8FF6C
:10B03000013504F58274AF42E2D13D46B08805EB9C
:10B0400085112844B080880001B0BDE8F08300BFBE
:10B050006466735F6465766963655F66735F676581
:10B060007464656E74730000F0B581B006461446D2
:10B070000D4650B943F2C17043F62301C0F20220DD
:10B08000C0F202212F220FF075F83069876A5FB98C
:10B0900043F2AF7043F62301C0F20220C0F2022156
:10B0A00033220FF067F83069406801782F2901D109
:10B0B000407838B138462946224601B0BDE8F04014
:10B0C0000FF094BA6FF02C0001B0F0BD0020704773
:10B0D000F0B581B004460069C16800290CDC43F278
:10B0E000947043F63701C0F20220C0F20221982288
:10B0F0000FF040F82069C168022902DB0020E060FF
:10B1000021E0406801782F2904D1417811B9A17953
:10B11000C9071AD101300FF096FA60B10321054634
:10B120000FF094FA08B12D3008D12069042185620E
:10B130000180002007E06FF0190004E02069002181
:10B1400081626FF00B0001B0F0BD0FF04FFC0920E1
:10B1500011F03CFD054638B943F637011CA0C0F29A
:10B160000221AD220FF006F82E1D4FF0FF37042507
:10B17000304600BF00680137B04205F10405F9D13F
:10B180000FF0F4FC284610F007FB0546E0B10FF085
:10B190002DFC05F10800286030680021B042A9802C
:10B1A000EF800FD0B9B2002249B12B68A0F110078F
:10B1B00001399F5004320068B042F5D102E00AA084
:10B1C00010F0BAFA0FF0D2FC20698562B1E700BF37
:10B1D000696E666F726D6174696F6E20213D2052D9
:10B1E000545F4E554C4C00007761726E696E673A41
:10B1F00020546865726520617265206E65776C7990
:10B200002061646465642064657669636573207495
:10B2100068617420617265206E6F74206469737058
:10B220006C6179656421000000207047F0B581B041
:10B23000044615460E4650B943F2C17043F2E87118
:10B24000C0F20220C0F2022145220EF093FF2069D5
:10B25000876A5FB943F2AF7043F2E871C0F202202F
:10B26000C0F2022149220EF085FF20694068017872
:10B270002F2901D1407848B1E168384632462B4643
:10B280000FF0B7FAE1680144E16001E06FF02C00D3
:10B2900001B0F0BD10B5087814462F2801D14878C8
:10B2A000C0B1481C0FF0CFF950B1806900210F28C0
:10B2B000216008DC98B1012817D146F2B61016E0DB
:10B2C0006FF0080010BD10280CD01E280DD144F2DC
:10B2D000B6100CE00020206044F2FF1007E042F2BC
:10B2E000B61004E041F2B61001E048F2B610E0807A
:10B2F00000206061206210BD03A090ED001F0020BF
:10B3000081ED001F704700BF000200000000020036
:10B31000000002000000020000207047F0B581B07C
:10B32000044615460E4650B943F2C17043F60F016C
:10B33000C0F20220C0F202215A220EF01BFF206947
:10B34000876A5FB943F2AF7043F60F01C0F2022083
:10B35000C0F202215E220EF00DFF206940680178E4
:10B360002F2901D1407848B1E168384632462B4652
:10B370000FF0FEFAE1680144E16001E06FF02C009B
:10B3800001B0F0BDB0B504460069C16800290DDC0C
:10B3900043F2947043F6B001C0F20220C0F20221E1
:10B3A00040F2D7120EF0E6FE2069C168012901DDE6
:10B3B0000020B0BD008888B1022825D164695CB93D
:10B3C00043F6A10043F6B001C0F20220C0F2022110
:10B3D0004FF4F1720EF0CEFE002511E064695CB905
:10B3E00043F6930043F6B001C0F20220C0F20221FE
:10B3F00040F2EB120EF0BEFE204602F0D3FB0546F3
:10B4000020460FF0D3FB00E000252846BDE8B04001
:10B4100002F0A0BB10B5446944B943F6930007A1FC
:10B42000C0F2022040F24F220EF0A4FE204603F0AC
:10B430002CFEBDE8104002F08DBB00BF6466735F58
:10B44000656C6D5F666C7573680000002DE9F04FE8
:10B45000C7B0D0F814A00546BAF1000F16460C4646
:10B4600008D143F6A1002BA1C0F2022040F28522B0
:10B470000EF080FE4CF2FD00CFF60F40A6FB00015F
:10B48000080A00EB80105FEA800B02D16FF0040025
:10B490003CE00DF10409009509F11607043400257C
:10B4A0004FF48278002600BF5046494603F088FCDE
:10B4B00000BB9DF81A10E9B19DF80C00C0064FF0D2
:10B4C000040058BF082004F8040C384612F084FD2C
:10B4D00004F8030C4FF480722046394624F8028C9D
:10B4E00012F09EFD05F5827501365D4504F5827406
:10B4F000DAD30020009B3EB106EB8611DA688800A3
:10B5000002EB8101D96001E002F024FB47B0BDE805
:10B51000F08F00BF6466735F656C6D5F6765746410
:10B52000656E747300000000B0B5A1F10C03022B2E
:10B5300001D20020B0BD15460022C5F2542291422E
:10B5400013D1446944B943F693000EA1C0F202201E
:10B550004FF400720EF00EFEE068296865698142C2
:10B5600006D9204602F0BCFB06E06FF02C00B0BD0F
:10B570002046616103F0E7FD6561BDE8B04002F07F
:10B58000E9BA00BF6466735F656C6D5F696F637471
:10B590006C00000070B5044600690D460088022862
:10B5A00015D080BB66695EB943F6930043F6BE01D1
:10B5B000C0F20220C0F2022140F25E220EF0DAFD5B
:10B5C0003046294602F08CFBF0B9756918E06669CF
:10B5D0005EB943F6A10043F6BE01C0F20220C0F2FC
:10B5E000022140F26E220EF0C5FD4CF2FD00CFF6B6
:10B5F0000F40A5FB00013046090A03F0E9FC18B929
:10B600002846E56070BD0020BDE8704002F0A2BA97
:10B610002DE9F04F85B0044600208DF8120043F666
:10B620003020ADF810004FF4007010F0B5F800288D
:10B6300000F07E8082461CB34FF660160027012082
:10B64000C2F2012656F82750A5421FD0C0074FF07E
:10B6500001074FF00000F5D10027012056F8271010
:10B66000D9B1C0074FF001074FF00000F6D133A069
:10B6700010F062F850460FF099FA6FF0220059E08E
:10B6800050460FF093FA6FF0040053E04FF00008BB
:10B6900047F030008DF8100015E04FF40E7010F0F8
:10B6A0007BF8002841D080460321204646F82740F9
:10B6B0000EF0CCFF47F030008DF81000FAB204A96C
:10B6C000404603F0A7F8E9460021102248464FF013
:10B6D000000B10F03FFC0F208DF8000004A84FF481
:10B6E00000734946524602F017FD814650460FF05E
:10B6F0005DFAA5420CD040460FF058FAFAB204A900
:10B70000002003F087F8204646F827B00EF033FFFC
:10B71000B9F1000F07D013A0494610F00DF84846C4
:10B7200002F018FA06E0002004E050460FF03EFA5E
:10B730006FF0050005B0BDE8F08F00BF736F727247
:10B74000792C207468657265206973206E6F207390
:10B750007061636520746F20646F206D6B66732168
:10B76000200A0000666F726D6174206572726F72DC
:10B770002C20726573756C743D25640A000000000E
:10B780002DE9F04389B04FF660160546002443F6D4
:10B790003020ADF80C000120C2F201268DF80E40D9
:10B7A00056F8241041B1C0074FF001044FF00000DB
:10B7B000F6D16FF008045EE044F030008DF80C0024
:10B7C000286804AA40F2012146F824000EF00EFF7A
:10B7D00060B90698B0F5007F08D943F65000C0F272
:10B7E00002200FF0A9FF6FF0040444E04FF40E7044
:10B7F0000FF0D2FFB0B103A90122814603F00AF88D
:10B800000746A8B103A900200122002503F002F891
:10B81000484646F824500FF0C9F9384602F09AF924
:10B82000044628E0002046F824006FF0050422E0DA
:10B8300013A201A80821234612F0E8FA30200FF0E5
:10B84000ABFF30B101A9804603F065F960B107464E
:10B85000D8E703A900200122002502F0DBFF46F80B
:10B8600024506FF0050403E0C5F80C900024C14695
:10B8700048460FF09BF9204609B0BDE8F08300BFB1
:10B8800025643A2F00000000F0B581B0044600693D
:10B89000C168856900290ADC43F2947049A1C0F2AD
:10B8A000022040F257120EF065FC2069C16802299F
:10B8B00008DB0088022802D1A079C00752D00020FE
:10B8C000E06079E0002D4DD0E86802F027F900280B
:10B8D00048D406464FF480700FF05EFF002869D010
:10B8E0000546206943F6D0024FF480714068C0F2EB
:10B8F000022200902846334612F088FA6768F8035F
:10B9000033D44FF40B700FF047FF00284FD01021B5
:10B9100003220646082001EA9701BB0708BF01225F
:10B9200000EA971011440422084402EA5711421811
:10B930003046294602F0B2FF074628460FF036F996
:10B9400067BB2269F16800206661516210806279EC
:10B9500052077269E2602FD5304602F0C1F9706972
:10B96000E0602CE06FF0080026E0780609D5284654
:10B9700002F00FFB28B1064628460FF017F93046B3
:10B9800010E030200FF008FF88B12946064603F08A
:10B99000C2F8074628460FF009F97FB130460FF08C
:10B9A00005F9384601B0BDE8F04002F0D3B82846AA
:10B9B0000FF0FCF86FF0050001B0F0BD66610020EB
:10B9C000FAE700BF6466735F656C6D5F6F70656EEC
:10B9D00000000000F0B581B004460069008802282C
:10B9E00002D16FF01B0019E0656916460F4645B994
:10B9F00043F693000AA1C0F2022040F226220EF084
:10BA0000B9FB6B4628463946324603F0DFF86969D0
:10BA1000E16010B102F09EF800E0009801B0F0BDC6
:10BA20006466735F656C6D5F726561640000000041
:10BA3000F0B581B0C06814460D4602F06FF80028DA
:10BA40001ED407464FF480700FF0A6FED8B143F61F
:10BA5000D0024FF48071C0F202223B4606460095A8
:10BA600012F0D4F93046214603F0EDF90446304691
:10BA70000FF09CF8204601B0BDE8F04002F06AB833
:10BA80006FF0080001E06FF0050001B0F0BD2DE996
:10BA9000F04FD3B0C668904630460D4602F03EF8EF
:10BAA00000283FD404464FF480700FF075FEE0B3D9
:10BAB00043F6D0024FF48071C0F2022223460746BB
:10BAC000009512F0A3F90DA9384603F09EFA054639
:10BAD00038460FF06BF8002D51D19DF83C20002026
:10BAE000C8F8000044F2FF10D1064CF26D115CBFA3
:10BAF00048F2B610CFF6FF70D30718BF0840A8F879
:10BB000006000D99C8F81410920670894FEA402279
:10BB1000C8F830200ED559B10139490AB1FBF0F10E
:10BB2000013106E06FF008002CE06FF0050029E01D
:10BB300000214843C8F83400BDF83A00BDF8386029
:10BB40003E2101EA400AC0F345174FEAD02902A876
:10BB500000212C2206F01F0BC6F3431410F0FAF953
:10BB60005020CDE9049B00EB56200790601E069004
:10BB700002A8CDE902A714F0E3F9C8F8200028468E
:10BB800001F0E8FF53B0BDE8F08F0000B0B584B01D
:10BB900005460C4640B943F6D60119A0C0F2022171
:10BBA0004FF499720EF0E6FA44B943F6D60118A0A4
:10BBB000C0F2022140F233120EF0DCFAE86802AD66
:10BBC000039017A243780421284612F01FF901A917
:10BBD00003AA284601F0FCFF10B101F0BBFF0CE006
:10BBE0000398019AC16940890239414350434FF497
:10BBF0000072A0600020C4E9002104B0B0BD00BF05
:10BC0000667320213D2052545F4E554C4C0000007D
:10BC100062756620213D2052545F4E554C4C000009
:10BC200025643A0070B582B0C0680C4601F076FF1A
:10BC300000281DD405464FF480700FF0ADFDD0B143
:10BC400043F6D0024FF48071C0F202222B46064622
:10BC5000009412F0DBF8304603F0E7FA0446304671
:10BC60000EF0A4FF204602B0BDE8704001F072BFA4
:10BC70006FF0080001E06FF0050002B070BD000039
:10BC80002DE9F04182B0044600208DF8060043F60D
:10BC90003020D4F80C80ADF80400B8F1000F04D1C6
:10BCA00018A01CA1B6220EF065FA4FF660172068A6
:10BCB00000250121C2F2012757F82520824208D031
:10BCC000C9074FF001054FF00001F5D16FF00806EC
:10BCD00014E045F030008DF8040001A90020002296
:10BCE000002602F097FD18B101F034FF064605E08A
:10BCF0004046E66047F825600EF058FF304602B037
:10BD0000BDE8F08166617420213D2052545F4E559C
:10BD10004C4C00006466735F656C6D5F756E6D6F93
:10BD2000756E7400F0B581B0044600690088022881
:10BD300002D16FF01B001CE0656916460F4645B93D
:10BD400043F693000CA1C0F2022040F23D220EF017
:10BD500011FA6B4628463946324603F0D5FA226975
:10BD6000E9686B69E360516210B101F0F3FE00E035
:10BD7000009801B0F0BD00BF6466735F656C6D5FD5
:10BD8000777269746500000070B5B8B106468068C6
:10BD9000012816D14FF22C504FF0FF31C2F2012092
:10BDA00010F0E4FD3569E86801280CDBE9694968B1
:10BDB00061B1304688470446E86808E06FF00C043B
:10BDC00027E0002425E06FF00C041CE0002401288B
:10BDD00019D12A460023336152F8100F516841608F
:10BDE0005168086052F8081C52F80C0CC2E9002295
:10BDF000884203D008460EF0D9FE68680EF0D6FEE1
:10BE000028460EF0D3FE4FF22C50C2F2012010F063
:10BE1000B9FC204670BD20B10169C969496919B1F1
:10BE200008476FF0040070476FF02C00704750B166
:10BE3000D0F810C0BCF80030022B04D1DCF81C3064
:10BE4000DB691BB118476FF0040070476FF02C00DE
:10BE5000704770B50146002000F06AFD4FF22C5586
:10BE60000446C2F201254FF0FF31284610F07EFD56
:10BE70000021204600F0DCFE002828465FEA0F96ED
:10BE800010F080FC20460EF091FE304670BD0000A0
:10BE900010B54FF668146FF01600C2F2012400BF0F
:10BEA00010F1170105D14FF0FF31204610F05EFD73
:10BEB000F6E700B910BD43F2AD7004A1C0F2022054
:10BEC0008C22BDE810400EF055B900BF6466735F68
:10BED00066696C655F6C6F636B00000010B558B1EC
:10BEE00004460069C06982694AB12046904700282B
:10BEF00048BF10BDE06010BD6FF0040010BD6FF0D2
:10BF00002C0010BD2DE9F04381B0002841D004463B
:10BF10000020164600F00CFD002800F0A180074626
:10BF20004FF22C50C2F201204FF0FF3110F01EFDF5
:10BF30006946384600F07CFE70B30546C0680130A3
:10BF4000E8600020C4E903054FF22C50C2F2012042
:10BF500010F018FC38460EF029FEE869016820460A
:10BF600066608847B0F1FF3F41DD6068F10340F053
:10BF70008071616005D52169022240F040706060E7
:10BF80000A804FF22C50C2F2012010F0FBFB002778
:10BF900068E06FF0040765E0384600F067FA0028B3
:10BFA00049D0804601202C214FF001090EF020F9E4
:10BFB00000284CD00546D8F80800C5F80C90C5F804
:10BFC00018808168E9610021298029620079C00711
:10BFD000384651D1D8F80400394600F0C8FD002891
:10BFE00044D0D8F80400394600F0C1FD42E00746CD
:10BFF000E8680138E86017D12A4652F8103F5068C7
:10C00000586052E90301566888423360C2E9002251
:10C0100003D008460EF0CAFD68680EF0C7FD002088
:10C02000206128460EF0C2FD4FF22C50C2F20120D2
:10C0300010F0A8FB16E04FF22C50C2F2012010F0D5
:10C04000A1FB38460EF0B2FD6FF008070AE04FF290
:10C050002C50C2F2012010F095FB38460EF0A6FDE0
:10C060006FF00507384601B0BDE8F08343F62910AC
:10C07000C0F2022011F07CFFE969C5E901070968F7
:10C0800059B100980022C4E903252A46036842F802
:10C09000103F02605A60686161E74FF22C50C2F2B3
:10C0A000012010F06FFBD5E90101884203D008465A
:10C0B0000EF07CFD68680EF079FD28460EF076FDE6
:10C0C0006FF02C07CEE710B578B104460069C0695F
:10C0D000C3686BB120469847B0F1FF3FC8BF10BDA1
:10C0E000616841F08061616010BD6FF0040010BDB7
:10C0F0006FF02C0010BD2DE9F0410D4601460020E7
:10C1000000F016FC38B10446FFF7A3FE30B16FF023
:10C110001606254635E06FF0080635E00020294672
:10C1200000F006FC60B10546204600F09FF9064687
:10C13000284600F09BF9864205D06FF018061DE0F6
:10C140006FF00806E5E7B068476A7FB10079C0077D
:10C150000FD17068214600F00AFD804670682946BC
:10C1600000F005FD02463046414605E06FF02C0622
:10C1700004E0304621462A46B847064620460EF0DF
:10C1800015FD28460EF012FD3046BDE8F081000096
:10C1900070B50D460146002000F0CAFBC8B1044648
:10C1A00000F064F9C0B106468068036A53B30079B1
:10C1B000C0073CD17068214600F0D9FC43F6291134
:10C1C000B268C0F20221002851EA0081136A3046A9
:10C1D0002FE04FF0FF3532E043F61B10C0F2022093
:10C1E0000FF0AAFA23A021460FF0A6FA42F2FC4073
:10C1F000C0F202200FF0A0FA20460EF0D7FC6FF03C
:10C2000008051CE020460EF0D1FC43F61B10C0F2DE
:10C2100002200FF091FA0BA00FF08EFA42F2FC40D0
:10C22000C0F202200FF088FA6FF02C0507E03046CC
:10C2300021462A469847054620460EF0B7FC284678
:10C2400070BD00BF7468652066696C65737973742E
:10C25000656D206469646E277420696D706C656D0E
:10C26000656E7420746869732066756E6374696F97
:10C270006E00000063616E27742066696E64206D35
:10C280006F756E7465642066696C65737973746527
:10C290006D206F6E207468697320706174683A2530
:10C2A0007300000070B50146002000F041FB48B16A
:10C2B0000446FFF7CEFD48B16FF0160520460EF09C
:10C2C00075FC01E06FF00405284670BD204600F0C3
:10C2D000CDF898B105468068C26992B10079C0076F
:10C2E00012D16868214600F042FCA968CE6978B195
:10C2F0006868214600F03BFC01460DE06FF0080540
:10C30000DCE76FF02C05D9E728462146904705E089
:10C3100043F62911C0F202212846B0470546CDE771
:10C3200020B10369DB691B691BB118476FF004007A
:10C3300070476FF02C00704710B5044600F04EF9BE
:10C340004FF6A810C2F2012000F14001826812B13C
:10C350000268A24204D010308842F7D3002400E0E3
:10C36000446800F01BFC204610BD000070B5044678
:10C3700015460E4638B943F6341127A0C0F2022103
:10C38000A6220DF0F7FE3EB943F6341126A0C0F206
:10C390000221A7220DF0EEFE06EB051090F8BE116B
:10C3A00041F08001802920D100F5DF700179E1B1F1
:10C3B0002170817A0289C37A42EA014141EA03622B
:10C3C0006260C068A0604A021AA029460FF0B4F962
:10C3D000A068C20A0CD0410D10D043F2E9106FF3EF
:10C3E0009F22C0F202201CA311E06FF00B0070BD71
:10C3F00041081BA01CA20FF09FF90AE0C0F34906F8
:10C4000043F2E910C0F2022014A3114632460FF0A5
:10C4100093F9002070BD00BF7061727420213D202F
:10C420004E554C4C0000000062756620213D204EA8
:10C43000554C4C00666F756E6420706172745B259C
:10C44000645D2C20626567696E3A2025642C207338
:10C45000697A653A2000000047420A004D420A000E
:10C4600025642573000000004B420A002DE9F047C7
:10C47000814620B91BA01DA156220DF07BFE00F0C5
:10C48000ADF84FF6A8154FF0000AC2F201254FF0A3
:10C49000000805F1400400BF6F68DFB1A868C8B1AB
:10C4A0003846F4F7D0F9504514D306463846494685
:10C4B0003246F4F7F1F968B9022E08D34846F4F78A
:10C4C000C2F9B04203D919F806002F2802D1A846B4
:10C4D000B24600BF1035A542DED300F05FFB4046F8
:10C4E000BDE8F08770617468000000006466735FE7
:10C4F00066696C6573797374656D5F6C6F6F6B756E
:10C5000070000000F0B581B04FF65C15C2F2012555
:10C510002878012803D12CA00FF00EF941E000F09B
:10C52000B3FB4FF698100021C2F201201022002622
:10C530000FF010FD4FF6A8100021C2F2012040229A
:10C540000FF008FD4EF274100021C2F20120082203
:10C550000FF000FD4FF6702013A1C2F2012001225E
:10C56000012710F0E1F84FF6681011A1C2F2012086
:10C57000012210F0D9F84DF6E4640021C2F2012442
:10C580004FF4807220460FF0E5FC2F202070FEF75C
:10C5900023FC09A10AA200200023009600F0E0F885
:10C5A0002F70002001B0F0BD66736C6F636B0000EC
:10C5B00066646C6F636B00002F646576000000009A
:10C5C000646576667300000064667320616C726552
:10C5D00061647920696E69742E0A000010B54FF607
:10C5E00070246FF01600C2F2012400BF10F1170191
:10C5F00005D14FF0FF31204610F0B8F9F6E700B949
:10C6000010BD43F2AD7004A1C0F202207D22BDE84E
:10C6100010400DF0AFBD00BF6466735F6C6F636B5D
:10C62000000000002DE9F0410E4641B304463046BB
:10C630000EF009F818B38046FFF7D0FF4FF69817B1
:10C640000425C2F2012700BF386848B106683046A9
:10C65000F4F7F9F8024630462146F4F71DF930B3F5
:10C66000013D07F10407EFD100F098FA43F61B10E3
:10C67000C0F202200FF060F82AA021460BE06FF014
:10C68000190011F04DFB43F61B10C0F202200FF011
:10C6900053F82CA031460FF04FF842F2FC40C0F2A4
:10C6A00002200FF049F84FF0FF30BDE8F08100F0B4
:10C6B00075FA3868426922B140462146BDE8F0412A
:10C6C000104743F61B10C0F202200FF035F807A008
:10C6D00021460FF031F842F2FC40C0F202200FF088
:10C6E0002BF86FF02C0011F01BFBDCE75468652081
:10C6F00066696C652073797374656D2028257329CC
:10C70000206D6B66732066756E6374696F6E20773B
:10C710006173206E6F7420696D706C656D656E74E9
:10C720000000000046696C652073797374656D20A4
:10C730002825732920776173206E6F7420666F75CA
:10C740006E642E0044657669636520282573292070
:10C75000776173206E6F7420666F756E64000000E1
:10C760002DE9F04F87B09A461746894620B10DF063
:10C770006AFF834610B97BE04FF0000BFFF72EFFF6
:10C780004FF69814C2F2012404F11006206848B153
:10C7900005682846F4F757F8024628463946F4F764
:10C7A0007BF810B10434B442F0D300F0F7F9B4428E
:10C7B0005ED0206800285ED0C06800285BD00020D2
:10C7C000494600F0B5F8002876D049A10646F4F7AE
:10C7D000ABF9A0B147A13046F4F7A6F978B101ADA5
:10C7E000284602F0B8FE4FF4803228463146FFF763
:10C7F00089FBB0F1FF3F5CDD01A8FFF7C5FA0096A9
:10C80000FFF7ECFE4FF6A8180025C2F2012808F148
:10C81000400600BFD8F8080030B1D8F804004946F7
:10C82000F4F782F918B929E0002D58EA058508F1D6
:10C830001008B045EED335B3009E6E602068C5F891
:10C8400000B0C5E9020700F0A9F9BBF1000F04D060
:10C85000286803210DF0FAFEE8BB20685146109AC3
:10C86000C36828469847B0F1FF3F2EDD002029E03D
:10C870006FF0190022E06FF02C001FE06FF0040051
:10C8800011F04EFA13E06FF0220011F049FA43F66E
:10C890001B10C0F202200EF04FFF18A039460EF018
:10C8A0004BFF42F2FC40C0F202200EF045FF009E1A
:10C8B00018E030460EF07AF96FF01A0011F030FAF5
:10C8C0004FF0FF3007B0BDE8F08FBBF1000F02D092
:10C8D00028680DF050FEFFF781FE00211022284647
:10C8E0000FF038FB00F05AF930460EF05FF9E7E739
:10C8F0002F0000002F646576000000005468657208
:10C9000065206973206E6F20737061636520746F9A
:10C91000206D6F756E7420746869732066696C652C
:10C920002073797374656D20282573292E0000000B
:10C93000F0B581B00D46044629B94AA04EA140F297
:10C9400086220DF017FC28784DF6E461C2F2012131
:10C95000002C51EA04862F2805D1284611F008FB47
:10C960000746E8B97AE03046F3F76DFF04462846FB
:10C97000F3F769FF204402300EF00EFF00286DD05F
:10C9800007463046F3F75FFF04462846F3F75BFFA0
:10C9900020443EA2811C38463346009511F036FAF9
:10C9A0003B782F2039463C46224600BF2E2B2ED105
:10C9B00053782F2B06D1013212F8013F2F2BFBD0D9
:10C9C000F4E700BF13B32E2B21D1144614F8023F15
:10C9D00033B12F2B1BD1941C14F8013F2F2BFBD00C
:10C9E000CA1B012A03D111F8012C2F2A02D00139C8
:10C9F000B94230D30A4600BF11469742D4D20A4604
:10CA000012F8016D2F2EF7D1CEE700BF01320139A8
:10CA1000531C144613F8012C72B12F2A04D001F8CC
:10CA2000012F01330134F5E7487000BF14F8013FCE
:10CA30002F2BFBD00231B7E7B9424FF0000048700E
:10CA400004D008782F2801D100200870387830B938
:10CA50002F20388003E038460EF0A8F8002738462B
:10CA600001B0F0BD66696C656E616D6520213D2089
:10CA70004E554C4C000000006466735F6E6F726D23
:10CA8000616C697A655F70617468000025732F2599
:10CA900073000000F0B581B00446FFF79FFD4FF62C
:10CAA00098160025C2F2012606F11007306828B159
:10CAB00000682168F4F738F818B909E0002D56EA43
:10CAC00005850436BE42F1D33DB12C6000241AE046
:10CAD0006FF0170011F024F99DB96FF0220011F0EA
:10CAE0001FF943F61B10C0F202200EF025FE21684C
:10CAF00007A00EF021FE42F2FC40C0F202200EF030
:10CB00001BFE4FF0FF3400F049F8204601B0F0BDA5
:10CB10005468657265206973206E6F20737061635D
:10CB20006520746F2072656769737465722074681C
:10CB300069732066696C652073797374656D20284C
:10CB40002573292E0000000010B50C46FFF78EFC5F
:10CB500030B181688A691AB12146BDE8104010479A
:10CB60006FF02C0011F0DCF84FF0FF3010BDB0B5C5
:10CB70000C46F3F768FE05462046F3F764FE85424F
:10CB800001D10020B0BD605D62192F285FEA0F90CF
:10CB9000002D5FEA0F910840101AB0BD4FF67020CB
:10CBA000C2F201200FF0EEBD70B501460020FFF784
:10CBB000BFFEC0B10446FFF711FD4FF6A815C2F243
:10CBC000012505F1400600BF686818B12146F3F75A
:10CBD000ABFF80B11035B542F6D3FFF7DFFF20463B
:10CBE0000DF0E4FF03E06FF01A0011F099F84FF038
:10CBF000FF36304670BDA86801690029EDD028468F
:10CC000088470028E9D4286808B10DF0B4FC6868AA
:10CC100008B10DF0CBFF00211022284600260FF0AE
:10CC200099F9FFF7BBFF20460DF0C0FFE1E70000D8
:10CC300070B50446007868B1631C0022832600BFEB
:10CC400002FB060213F8010B08B12FF007C802F02F
:10CC50007F0000E000204FF22C52C2F2012202EBD2
:10CC6000C00555F8306F41B10D6006E056F8081C5C
:10CC7000204611F06BF920B13668AE42F6D10020A3
:10CC800070BDA6F1100070BD10B54FF22C5416A166
:10CC9000C2F20124012220460FF046FD0EA04FF003
:10CCA000200E042190ED001F302000BFA3EF50257F
:10CCB00023EE442F23EE402F22EF524121EE410F6D
:10CCC00012EE102A82FC003F82FC203F0FF013C0BE
:10CCD00010BD00BF00BF00BF000000000100000049
:10CCE00002000000030000006466735F6D6772005D
:10CCF0002DE9F04381B00D46044613F0F5F808B174
:10CD0000012056E0E069811EA81E884204D266898F
:10CD1000216B00FB061802E066894FF0000804F161
:10CD200038054FF400712846C4F83480F3F7A8FEA4
:10CD300077023F2E88BF4FF40047B7F5007F0AD92E
:10CD400040F20149384602F057FDA0B94F454FEA7D
:10CD50005707F7D8668900273EB300BF607808EB15
:10CD600007020123294600F000FDF0B96089013770
:10CD70008742F3D319E039460646F3F75FFE608930
:10CD800078B17D0A002700BF607808EB07023146C2
:10CD90002B4600F0EAFC28B960892F448742F3D380
:10CDA00000E00027304602F029FD608987425FEAF3
:10CDB0000F9001B0BDE8F0832DE9F04F85B0002160
:10CDC0000446D0F8009000F081FB10B105B0BDE83A
:10CDD000F08F40F2894B4FF0FF3504F120064FF001
:10CDE000FF08C0F2022B4FF00B0AE562FF2004900F
:10CDF000A169484608F037FB0028E7D1E769387891
:10CE0000002800F0A280FA7AE52802F03F01A17123
:10CE100003D012070CD50F290AD0E5624FF0FF08A6
:10CE20000021204600F096F80028E1D0CEE700BFB0
:10CE30000F290BD194F82B104906F1D4410626D4C2
:10CE40005FFA88F18842E9D1049925E05FEA086039
:10CE500011D14AF001E00021384600BFC9B210F8F4
:10CE6000013B4A0842EAC11119440FF009C8C8B28F
:10CE7000049981426BD094F82B00C007CDD10B22CE
:10CE800038463146F3F784FC0028C6D15FE0797B51
:10CE900000F0BF082069E062787B04918142BDD137
:10CEA000788B0028BAD138784FF00D0A0196012608
:10CEB00000F03F00D9F80C1000FB0AF00291A0F13D
:10CEC0000D0500BF9BF80000395A8EB1FF2D26D802
:10CED00008460E4602F0D6FC0299039031F8151070
:10CEE000084602F0CFFC0399814218D1013504E0D5
:10CEF0004FF6FF70814212D10026BAF1010A0BF100
:10CF0000010BDFD138784FF00B0A400613D596B1EC
:10CF1000029830F8150070B14FF0FF080DE040F2B4
:10CF2000894B4FF0FF084FF0FF35019EC0F2022BF6
:10CF30004FF00B0A74E7A8F1010840F2894B4FF05B
:10CF4000FF35019EC0F2022B6AE704203EE7002075
:10CF50003CE700002DE9F04381B00446006900F190
:10CF60002007B7F5001F02D30020A0610EE0A069E2
:10CF700060B13D46D4F800906FF35F2555B109EBE1
:10CF8000050027613830E061002000E0042001B096
:10CF9000BDE8F0830E46616900F10100A06191B126
:10CFA000B9F80A004FF6FF72C0F21F02104400F5F4
:10CFB000C00010EA572FE2D1204603F0C4FA02283D
:10CFC00007D20220E3E7B9F80800B0EB571FCBD92E
:10CFD000D5E78046013027D0D9F81C0080450DD216
:10CFE000811EA8F10200C4F81480884214D2B9F856
:10CFF0000A10D9F8302000FB01200EE0002EB3D03B
:10D0000061692046F9F768FF80460130032806D29F
:10D0100008A151F82000BAE70020A061AFE7484618
:10D020004146FFF765FE08B10120B0E7D9F81C00C2
:10D03000D6E700BF0100000007000000020000006A
:10D040002DE9F04F81B0D0F818800446B8F1000FF8
:10D0500073D040F28947D4F800904FF0FF0BC0F234
:10D06000022741464FF0FF0A484608F0FCF9002825
:10D0700064D1E069017800295FD0C27A2E2902F0DC
:10D080003F03A37118BFE5290CD14FF0FF0A00211F
:10D090002046FFF75FFF002850D1A1690029E3D1A6
:10D0A00051E000BF02F01F02082AEED00F2B50D132
:10D0B0004A0604D45FFA8AF29142E6D105E090F87C
:10D0C0000DB001F0BF0A2169E162417B8B45DCD1E3
:10D0D000418B0029D9D101780D23D9F80CC0012545
:10D0E00001F0BF01BE465943A1F10D063978415AFE
:10D0F00045B1FF2E1DD8721C2CF8161016460D4691
:10D1000005E000BF4FF6FF72914212D10025013BAE
:10D1100007F10107EAD10078774640064FF000009A
:10D1200004D51DB1FF2EB0D82CF81600AAF1010AC3
:10D13000ADE74FF0FF0A7746A9E704200021A1617F
:10D1400001B0BDE8F08FB8F1000F4FF00000F7D14B
:10D15000F4E75FEA0A610FD14FF00B0E002100BF28
:10D16000C9B210F8013B4A0842EAC11119440FF054
:10D1700009C8C8B2834502D04FF0FF30E0620020FA
:10D18000DEE700002DE9F04F8BB090F82B7017F020
:10D19000A00F01D0062045E1044650F8206B059011
:10D1A0000B25F06830F8021B013509B12FF007C0DC
:10D1B000059BB14604961A89D3E900010690ADF8A3
:10D1C0002020987AFA0707918DF8220040F0AB8072
:10D1D0004EF64F40C4F6C460A5FB00018808B907AD
:10D1E0004FF0010151EA50980021204600F06EF9FD
:10D1F000002800F01A81042800F01381002840F074
:10D200001181B8F1010874D02069A0EB48112046C3
:10D2100000F05CF9002840F005814FF00B0E4FF054
:10D22000000A05985FFA8AF110F8013B4A0842EAC1
:10D23000C11101EB030A0FF00BC840F2894B4FF606
:10D24000FF75C0F2022B4FF0010900BFA169304603
:10D2500008F009F9002840F0E580E069D6F80CC034
:10D260005FFA88F10F22A0F80B200D225143002213
:10D27000002780F80DA0A1F10D034283561C0BEB93
:10D2800002013246049E00BFBFB2AF4208D111F87E
:10D29000017B01320E2AC5534FF6FF77F4D119E016
:10D2A0003CF81360A6460C78591C33040B4655EA2B
:10D2B00006870D2A06537446E0D1BAB2049EAA42EC
:10D2C00008D03CF811100029414608BF48F0400141
:10D2D00002E000BF48F0400101700021204686F8BE
:10D2E0000390FFF737FE002840F09C80B8F101085A
:10D2F000ACD1A169304608F0B6F8002840F0928021
:10D30000E0692021F3F79AFBE0690B220599F3F716
:10D310000EFB94F82B00E16900F01800087301205F
:10D32000F07000207EE041F22109019709AF4FF033
:10D33000010A4FF01008C0F20109402084F82B00C8
:10D34000F81D0390029400BF0B22059806A9D6F899
:10D350000CB0F3F7ECFABAF1050F514617D9BBF848
:10D360000000514698B100BF48F001E000F0010212
:10D37000400842EA4102090448BF82EA0902114614
:10D380000FF00DC03BF8020F08B12FF013C80720B3
:10D390000624039B01F00F0202F13006392E88BFEC
:10D3A00002F137060138224603F8016905D00F293A
:10D3B0004FEA1111A2F10104ECD84FF07E0119706F
:10D3C0004FF0000170B1059B029C00BF1E78202E1B
:10D3D00009D0013A01F1010103F10103F6D101463F
:10D3E00001E000BF029CC1F1080E049E059A1144A1
:10D3F000072803D83A5C013001E000BF202201F881
:10D40000012B0FF00BC82046FFF7D6FC30B90AF10C
:10D41000010ABAF1640F7FF497AF02E0BAF1640F2A
:10D420001ED107200BB0BDE8F08F0025A16948464A
:10D4300008F019F800287FF4DEAEE0690078E528EE
:10D4400018BF002804D10135454502D1D9E600BFF7
:10D45000002501212046FFF77DFD0028E6D0CAE621
:10D460000428DFD1019FD4F8009084F82B70AFE638
:10D470002DE9F0410446C16A481C2568266905D09B
:10D48000204600F023F808B1BDE8F0814FF0E50830
:10D49000012700BFA169284607F0E5FF68B9E069E8
:10D4A00080F80080EF702069B0420BD20021204646
:10D4B000FFF750FD08B92FF013C8042808BF022059
:10D4C000BDE8F0810020BDE8F0810000F0B581B03A
:10D4D0001F22CFF6E072114202D0022001B0F0BD4F
:10D4E0000D46816804460668056169B17089B5EB2F
:10D4F000402F16D2F069821E881E904221D2728976
:10D50000336B00FB02301DE03078032802D3F16A50
:10D510000029EBD13089B0EB551FDED9F06A00212C
:10D5200010E04702204603F00EF80146013017D004
:10D530000229D2D3F0698142CFD2ED1BBD42F1D294
:10D54000D9E700200028C4E90510C6D000EB55201B
:10D550006FF35F2571193831C4E906010020BDE77A
:10D560000120BBE72DE9F04F81B0002800F07F805B
:10D5700004464FF48070904689460EF00DF900285D
:10D5800075D0074620460AF02AFF002855D00646E7
:10D590000CF02EFD00283ED0834636A50BF1040A80
:10D5A0002846514610F0D2FC70B333A0514610F01B
:10D5B000CDFC48B343F68C513846C0F202212246D6
:10D5C000534610F0B0FC9BF80000042805D1384603
:10D5D00049464246FFF7C6FF16E0384612F05EFEA7
:10D5E00038B1B9F1000F0FD143F6C940C0F20220A3
:10D5F00006E0B8F1000F07D043F6BB40C0F20220AE
:10D6000039460EF099F800BF30460CF0F1FC834625
:10D6100008B12FF03DC83046F8F773FC38460DF0DE
:10D62000C5FA20460CF065FDB8B1B9F1000F1ED166
:10D6300043F6C940C0F2022013E0B9F1000F06D151
:10D6400043F6C9402146C0F202200EF075F8384674
:10D6500001B0BDE8F04F0DF0A9BAB8F1000F06D047
:10D6600006A0214601B0BDE8F04F0EF065B801B04C
:10D67000BDE8F08F2E0000002E2E000072656D6F49
:10D68000766564206469726563746F7279202725FA
:10D6900073270A000020704770B584B04FF66013FE
:10D6A000C2F2012353F82050FDB1042946D80FF2ED
:10D6B00008001446DFE801F003081B2A3C0040F292
:10D6C00002210022284637E06E4600211022304613
:10D6D0000EF040FC40F20121284632460CF086FF55
:10D6E000DDE900102160084328D1012027E06E46C3
:10D6F0000021102230460EF02DFC40F20121284678
:10D7000032460CF073FF0298208017E06E4600212D
:10D71000102230460EF01EFC40F20121284632460F
:10D720000CF064FFDDE90201B1FBF0F0206005E0E0
:10D7300040F20321284622460CF058FF002004B096
:10D7400070BD10B54FF6601C1C46C2F2012C0B4692
:10D7500011461A465CF8200023460DF04AF8A04214
:10D760005FEA0F9010BD0020704710B54FF6601CA7
:10D770001C46C2F2012C0B4611461A465CF82000EA
:10D7800023460DF0F5F8A0425FEA0F9010BD10B5EA
:10D7900082B040F2FC714CF2C022EFF3038001EA48
:10D7A00080004FF60C61C4F20002C2F20121014474
:10D7B000835823F480338350805851F8404C60687C
:10D7C0004068D0E90610019001A88847A068C168A8
:10D7D00009B10121017702B010BD0020704700009F
:10D7E00070B586B0154612681AB16FF0040006B025
:10D7F00070BDA1F5F0510329F7D8446C0FF2040075
:10D80000DFE801F002060E28E06CF4F76FFC02E09E
:10D81000E06CF4F77AFC002818BF6FF0FE00E6E732
:10D820006946204600F030F80028E0D1D5E9011023
:10D83000019A814251EA3085914212D0606D806830
:10D84000F6F78EF80146E06CF4F72CFC48B16FF067
:10D85000FE00CCE72046294606B0BDE8704000F047
:10D8600013B8606D29468068F6F77AF80546E06CD3
:10D8700000222946F4F74EFA0646E06C01222946BA
:10D88000F4F748FA3043C7E7B0B584B00C46054614
:10D89000C06C01A9F4F7B0FA10B16FF0FE000FE010
:10D8A000696DD1E90201F6F71BF8696DA06088681F
:10D8B0000399F6F715F8696D6060087C2060002018
:10D8C00004B0B0BD43F60040C4F20000818C21F4E6
:10D8D000E061818490F8501009B12FF005C8818C67
:10D8E00041F0200121F0D001818400BF90F8501058
:10D8F00009B12FF005C8818C41F0050121F00A0122
:10D90000818400BF90F8501009B12FF005C890F83D
:10D91000201041F0010180F8201000BF90F8501055
:10D920000907FBD4017801F0CF010170817841F043
:10D9300001018170417801F0FE01417090F85010B2
:10D9400009B12FF005C84FF40C71A0F8481000BFC2
:10D9500090F85010C907FBD1416C052262F31241C7
:10D960004164416C022262F30D314164416C62F307
:10D970004B214164416C032241F480714164416C4C
:10D9800062F30201416490F84010072201F0FC01AB
:10D99000013180F84010818A62F31F318182818ACF
:10D9A00001F4704101F56A718182817D41F00101CC
:10D9B0008175017841F001010170704744F2000166
:10D9C000EFF30380C4F234016FF35F2010380A686C
:10D9D00092064FF02E02C1F8C0201BD54FF60C6204
:10D9E000C2F2012252F82020536863B1D2F800C07D
:10D9F000DCF800303BB1DCF80030C1F8C830116809
:10DA00000431116006E04FF60C31C2F201210A68C0
:10DA100001320A604CF20031C4F2000151F82020BA
:10DA200022F4803241F8202051F820007047000095
:10DA300046F21011C4F234010A6842F480320A60DE
:10DA4000C07A6FF0FF0202EB402000BF4A6802F488
:10DA500003428242FAD1086820F4803008600868E6
:10DA600020F00100086000BF4868C006FCD1704784
:10DA700010B54EF2001C4268CEF2000C90F800E0A7
:10DA800002EB0C004EF6145402F00F03CEF2000429
:10DA900000F54070002A48BF18194FEA0E130370B2
:10DAA0004FF60C600123C2F2012040F822104CF224
:10DAB0000030C4F2000050F8221021F4803140F808
:10DAC000221050F82200500902F01F02BFF35F8FAE
:10DAD0000CEB800103FA02F2C1F880214CF82020FF
:10DAE00010BD000046F20040C4F23400016949074D
:10DAF00058BF7047016841F0020101604FF60461B0
:10DB0000C2F201210269920703D40A780AB12FF008
:10DB100007C800220A700169416170474EF25C112A
:10DB2000C2F201210A68496882425FEA0F9381428A
:10DB3000194618BF4FF0FF31824253EA0180704707
:10DB400080B540F22C60C0F20220FEF7A3FF002057
:10DB500080BD00000E2803D803A151F820007047B3
:10DB60004FF0FF30704700BF00000000F4FFFFFFE0
:10DB7000F4FFFFFFF4FFFFFFF7FFFFFFF7FFFFFFDB
:10DB8000FBFFFFFFDBFFFFFFE8FFFFFFE8FFFFFFFB
:10DB9000DBFFFFFFFFFFFFFFFFFFFFFFF7FFFFFFC1
:10DBA000FBFFFFFF10B582B0044601F06EFA60B9CA
:10DBB00001A9204612F0B6FB38B901990020206077
:10DBC00019B1086901F032FE002002B010BD00005A
:10DBD0002DE9F04F87B016468846069006A805A99D
:10DBE000002207F00DFB0746DDF814B050B1BBF181
:10DBF000000F6AD00F2F64D80120B84010F4184FDE
:10DC000063D15EE0C6F800B0DBF81C60DBF81800FA
:10DC1000B11E884219D99BF80000012819D10226AB
:10DC2000002501AFCDF804B03846314602F08BFC38
:10DC300020B1411C51D0012801D14AE00135DBF867
:10DC40001C0001368642EFD330E0C8F80000002700
:10DC500037E0DBF828900BF1380A0025002400BFDC
:10DC600044B95846494607F0FEFBA0BB9BF80000AC
:10DC700009F1010902280AEB040103D109880222F3
:10DC80000BE000BF8A78CB784F781202097842EA1D
:10DC900003423A4462F31B21042200295FEA1F91E8
:10DCA0001444013E0D446FF35F24D9D1C8F80050ED
:10DCB000CBF818509BF80400002740F001008BF8C7
:10DCC0000400DBF8100001F0B1FD384607B0BDE8F4
:10DCD000F08F02278BE7074689E7012787E70000D7
:10DCE0002DE9F04F81B00D466946044612F01AFB4B
:10DCF000064608B9667C6EB1009F002F00F02381B4
:10DD00000F2E00F21D810120B04010F4184F40F09A
:10DD10001A8115E1A26AF2B1681C29D0E068A84214
:10DD200050EA35806061002800F0F1805368411EA0
:10DD30007BB127684E0A0C327F89B6FBF7F700BF2C
:10DD40009F42C0F0BD80FF1A52F8083B0BB12FF084
:10DD500009C80022B7E0E168A94238D2207C8007D8
:10DD600036D5A146002159F8140FC9F8001039E042
:10DD70009346A0684FF002065BF8048B08B3DDF809
:10DD80000090824602360027054600BF20462946FD
:10DD900002F0D9FB012840F2BE80411C00F0BE8099
:10DDA000691C013705468842F0D0464504D80BF17E
:10DDB0000801CBE9007A8B46D9F81C108842E0D3E1
:10DDC000A26A4645166040F2C2801126A0E02946AC
:10DDD000A14600294FF000080D4659F8140FC9F864
:10DDE00000804CD0009F79894FEA412638B1013834
:10DDF000691EB0FBF6F2B1FBF6F1914205D2A168C3
:10DE0000002900F09080A16104E071420840606147
:10DE10002D1AA16989B3B5421AD9207C626980079D
:10DE200002EB06006061204603D402F08CFB014641
:10DE300003E0F9F751F80146F8B1481C7CD00229FB
:10DE40007CD3F869814279D2AD1BA161B542E4D897
:10DE5000D9F80000EA052844C9F800000DD0F86997
:10DE6000821E881E904269D279893A6B00FB01209C
:10DE7000002863D000EB552801E04FF00008E1686E
:10DE80006069884204D9217CE06041F0400121743E
:10DE9000C0053CD0E269904539D094F91000009F4C
:10DEA000B0F1FF3F57DD787804F12C0101234246A1
:10DEB0000126FFF746FC002841D1C4F81C8026E06B
:10DEC00052F8042C3A44009FA261FB699E1E931EE7
:10DED000B34233D27A893E6B03FB026373B3C0054E
:10DEE00015D0501EE26900EA5120C51895420ED0A7
:10DEF00094F91000B0F1FF3F3DDD787804F12C017A
:10DF000001232A460126FFF71CFCC0B9E561002663
:10DF1000009FAFB917E0009F022601E0009F012695
:10DF200066746FB90FE000212046F8F7D5FF01288D
:10DF300004D0014601301CD1012600E0022666749F
:10DF4000386901F073FC304601B0BDE8F08F00265F
:10DF5000CBF80060DCE7787804F12C01012301267E
:10DF6000FFF703FC0028EAD1207C00F07F0020743A
:10DF700099E7A16047E7787804F12C010123012695
:10DF8000FFF7F3FB0028DAD1207C00F07F0020743B
:10DF9000B3E72DE9F04F93B0129012A801A9022225
:10DFA00007F02EF9019C20B10746002C40F0848038
:10DFB00089E04FF40070069401F01EFC002800F088
:10DFC00086800546E060129906A802F07BF80746B5
:10DFD000002808BF0827042F6BD102A80021029453
:10DFE0000027F8F779FF0028064608BF0727012811
:10DFF00008BF0227013008BF012702F006FB002FEF
:10E0000052D1804620463146FEF772FE0746002870
:10E010004AD1277821464FEA184A4FEA186B032F56
:10E020004FEA16294FF02E0001F8380F42F2200077
:10E03000A4F841004FF02030C4F83D00C4F8390086
:10E040004FF0100084F8430084F84E804FEA182007
:10E05000009084F84F0084F850A084F851B084F800
:10E06000526084F8539005D1300C84F84C00300E87
:10E0700084F84D0004F158002022F2F758FC2E20BD
:10E0800084F85900032F0898A4F8720005D1010CF8
:10E0900084F86C10000E84F86D000120E07006A872
:10E0A000FFF770F80746D0B102A8002231460BF006
:10E0B000C7FF284601F0A2FB0F2F0CD80120B84063
:10E0C00010F4184F07D0384613B0BDE8F08F002C7D
:10E0D0004FF01107F7D0206901F0A8FBF3E70D9886
:10E0E000009980F81680C17580F818A080F819B0E2
:10E0F000867680F81B902178032903D1310C0175B5
:10E10000310E41751021C1720120E070204611F0DE
:10E1100097FE0746CDE700002DE9F04F95B014902B
:10E1200014A8984617460D4602F034FB002822D466
:10E130004EF25C11C2F2012151F8201009B1002207
:10E140000A705FFA80F90FF288614846002D51EAA3
:10E150000585FFF79FFAC1070FD140070FD4686804
:10E16000139078B913AA03214846FFF795FA40B1F6
:10E170000120139006E00B2590E003258EE00A2590
:10E180008CE01398411E0022B2EBD13F15D14FF025
:10E19000553101EA5001401A4FF0333101EA900144
:10E1A00020F0CC3008444FF0013100EB101020F08B
:10E1B000F0304843000E022801D3012013906B7801
:10E1C000581E022828BF0123D5E90204411E020778
:10E1D0004FF4007250EA0280B1F5004FA4F1010142
:10E1E00050EA3286B4F1807F5FEA8F9B0C425FEA8F
:10E1F0001F915FEA582040D095F800A00D910F9331
:10E200000B905FB10020129012AA0121484601250F
:10E21000FFF742FA00283B4640D117E040F2FF10DA
:10E2200028EA000001F0E8FA38B300211291CDF895
:10E2300038B0B346064612AA012148460125FFF729
:10E240002BFA33465E46DDF838B020BB0AF00F02E9
:10E250000797072A129F4FF0000A049605D8402F0F
:10E2600022BF3F3F12974FF03F0A7F2F07D80798F2
:10E2700000284FF00E0511D10DE011250EE0594692
:10E2800002F0030BBBF1020F0CD012F0010009D118
:10E290000798132510B9184601F0B0FA284615B0B2
:10E2A000BDE8F08F0D9803930840610A802928BFCC
:10E2B0008021002851EA1085009202F002000290AD
:10E2C00002F0A3F9139A129E531E524208920222A0
:10E2D000BBF1020F52EA129438440190300B0590C2
:10E2E0000499700CDDF83CC00909069109930A965F
:10E2F000CDF838A0E7B2AE46032F29D1BEF1000F0A
:10E30000F34610D144F21A454FF0010B0624C0F237
:10E31000022500BF2F88874205D8013C4FEA4B0BEE
:10E3200005F10205F6D1B6FBFBF40A22CFF200029A
:10E33000A5184FF6FF72CFF20002954240F2AC8072
:10E3400040F20722002302EB8407032420252AE061
:10E35000BEF1000FF34605990FD144F20C474FF080
:10E36000010B0625C0F202273B88994205D3013DE7
:10E370004FEA4B0B07F10207F6D1B6FBFBF3032282
:10E3800003EB4305013502EB550740F6F572012515
:10E3900093424FF0040288BF02EB430754EA85849E
:10E3A00007F2FF17069B7A0AAA440D93534402FB17
:10E3B0000C37099B089EE4B23B440C943340032C79
:10E3C000A3EB07040BD0B4FBFCF303FB1C43002BB3
:10E3D0005FEA0F93E41AB4FBFCF422441C460E9B44
:10E3E000C3EB0B130A9E3B449E420D9B54D3254422
:10E3F0000F9F2B4402FB0733F31AB3FBFBF10C9B7B
:10E40000032B11D14FF6F577B9420DD8BEF1000FAD
:10E41000DDF838A040D1BBF1010F4FEA5B054FF0AA
:10E4200003043FF667AF37E0022B3CD14FF6F6739B
:10E43000994222D34FEA4B07BEF1000F5FEA1F93C8
:10E44000412F5FEA2F9402227546234052EA12942C
:10E4500018BF4FEA4B05DDF838A07FF44BAF029AA6
:10E460000AB12FF0B9C8BEF1000F15D1812F4FF0BE
:10E4700002043D46FFF43EAF0EE040F6F5739942CC
:10E480001DD8BEF1000FDDF838A005D14FEA4B05CD
:10E490000224812DFFF42EAF07980E250028039B40
:10E4A0007FF4FCAEF7E6012B5FEA1F97079E08D1C9
:10E4B00040F6F670039B814204D3002ED9E6002774
:10E4C000079E039B069103F1130040F2ED11CDE985
:10E4D0000872F2F7B3FAC2A10B220398F2F727FAF7
:10E4E0000C9B039AD91E4FF40070A2F80B004FEA60
:10E4F0001520D073049850EA11800A9F0F99117467
:10E500005074000A390C90744FEA172082F80DB04D
:10E51000957309D082F8207082F8210082F82210C9
:10E52000380E82F8230001E0D774107598A0019985
:10E53000099F154690ED001F82ED180FF8204FEA55
:10E54000114E50750E9810770020A2F81D00D0775C
:10E55000080A032B4FEA11633A464FEA172C21D1E0
:10E560008FA7079E85F8431085F8440097ED001F9C
:10E5700085EDAC0E100CA2A185F845E085F846307B
:10E5800085F8242085F825C085F82600100E85F82A
:10E590002700802085F84000292085F8420005F1F9
:10E5A000470013E085F8271085F82800802085F8BB
:10E5B0002400292085F8260005F12B008BA185F881
:10E5C00029E085F82A30AA7585F817C01322F2F7DA
:10E5D000AEF94AF65520A5F8FE0101234846294622
:10E5E0000E9AFFF7C2F818B1002E4FF0010556E75A
:10E5F0000C9804EB0A0703283FD1DDF838A0039DEF
:10E600000AF10602012348462946FFF7AEF8281D05
:10E610004FF4FD71F2F712FA65A005F5F2710AF1F7
:10E620000702012390ED001F65A085ED000F90ED1E
:10E63000001F81ED000F0698013885F8E801010AF6
:10E6400085F8E911010C85F8EA11000E85F8EB0157
:10E65000022085F8EC01002085F8EE014AF65520ED
:10E66000A5F8FE0148462946FFF77FF80AF10102A6
:10E67000012348462946FFF778F840F2FF10039C33
:10E6800028EA00012046F2F7D9F90F98002841D076
:10E69000089804F1010A01380E900026F825214659
:10E6A0000C98B84603280D700AD14FF0FF30AAF835
:10E6B0000800CAF80400CAF800000F20C87205E07C
:10E6C0004FF6FF70A1F801000E98C870099D0B98D5
:10E6D00042460C46854255EA308748463B46FFF79E
:10E6E00044F880B94FF400712046F2F7A7F9ED1B0A
:10E6F000B8442146EBD10F980136F8258642DDE972
:10E700000C03CFD10AE007980125002823467FF4A7
:10E71000C5ADC0E52146DDE90C03B84603285BEA38
:10E7200003840B9DAC4254EA3587484642463B463B
:10E73000FFF71BF8F0B9E41BB8440399F2D1009835
:10E7400007281AD8129801220C9B0021022B08BF1F
:10E750000422B1EB104F18BF0622032B08BF0C2276
:10E76000CDE9100110A94846039BF8F74BFC20B1F6
:10E7700005460AE00798002837E7002100224846AE
:10E78000FEF78AFF00285FEA0F95079886E600BF2C
:10E790003F00000000000000FF000000000000003B
:10E7A0000200000000000000010000000600000060
:10E7B0005200000052000000610000004100000013
:10E7C00072000000720000004100000061000000C3
:10E7D0000700000000000000000000000000000032
:10E7E000EBFE904D53444F53352E30004E4F204E8C
:10E7F000414D45202020204641542020202020004B
:10E800004E4F204E414D452020202046415433326A
:10E81000202020002DE9F04184B00546039001A896
:10E820001446CDE9011101F0B5FF00282CD44EF2B9
:10E830005C180646C2F2012858F820702FB13869DA
:10E8400000F0D2FF10B3002038703DB129460020FF
:10E8500001F8100BF0B200F0ADFFB8B148F8265047
:10E86000B4B102A803A9002206F0CAFC0399044629
:10E8700079B10F2C04D80120A04010F4184F08D112
:10E88000086900F0D3FF04E00B2402E0022400E05A
:10E890000024204604B0BDE8F08100002DE9F04FCF
:10E8A0008FB00E91A8B302F03F0B82460EA801A9CB
:10E8B0005A4606F0A5FC06460028DDF8049040F014
:10E8C00015814FF40070CDF8089000F095FF10B35B
:10E8D0008046C9F80C000E9902A801F0F3FB9DF9DF
:10E8E00033100622B1F1FF3FC8BF0022002852EAD0
:10E8F00000861BF01C0F15D02EB3042E03D102A8E6
:10E90000FEF740FC0646002E40F0ED804BF0080B71
:10E9100026E00926FBE0B9F1000F4FF0110640F0A8
:10E92000F280F4E0002840F0DE80002900F1DB8076
:10E930009DF80E00C1060DD45FEA8B7152D510F020
:10E94000010005D14EE09DF80E0010F0110F03D02C
:10E950000726C8E00426C6E05FEA4B7000F1C080DD
:10E960005FEA0B703ED501F050FE0999020A030CD4
:10E97000070E8873CA730B744F748875CA750B764B
:10E980004F7699F800004C8B032805D1087D4A7D0D
:10E99000120642EA004004442020C8720020488346
:10E9A00099F80020032A08BF8882C8614FF001004F
:10E9B00089F80300B4B102A800222146D9F83450E6
:10E9C0000BF03EFB0646002840F08D804846294665
:10E9D00006F049FD06460028A4F10100C9F814001C
:10E9E00040F08180D9F834000999CAE908010BF098
:10E9F000080299F800004C8B03284BEAC20005D1AD
:10EA00000A7D4B7D1B0643EA02421444CAF80840C3
:10EA10000AF12C05CF69CAF80C700021CAF8281039
:10EA2000CAF80090B9F806208AF810008AF8111088
:10EA3000CAF81C10CAF814104FF400712846AAF83E
:10EA40000420F2F71DF85FEA8B6044D5002F42D016
:10EA5000CAF81470B9F80A00B7EB402F1DD900218D
:10EA600000954502A1EB402B5046214601F06BFD7D
:10EA7000044602285FEA2F904600601C08BF01266A
:10EA8000A7EB050026B90BEB07010746A942EBD817
:10EA9000009DCAF8184036BB02E0CAF81840384654
:10EAA000C10518D0D9F81C108A1EA11E914219D296
:10EAB000B9F80A20D9F8303001FB023191B101EBED
:10EAC0005022CAF81C2099F801000123294601268A
:10EAD000FEF737FE38B9404600F090FE002608E009
:10EAE000082600E00226404600F088FE0020CAF812
:10EAF0000000B9F1000F0AD00F2E04D80120B04059
:10EB000010F4184F03D1D9F8100000F08FFE3046F2
:10EB10000FB0BDE8F08FF0B583B0029160B104464C
:10EB200002A801A90022002606F06AFB019F28B175
:10EB300005462660E7BB45E0092543E04FF4007039
:10EB4000276000F059FE98B10646F8600299204609
:10EB500001F0B8FA054610BB94F92B00002817D431
:10EB6000A079C00608D4304600F048FE05251DE017
:10EB70004FF011051FBB25E0E1693A78488B032A65
:10EB800005D10A7D497D090641EA02410844A06099
:10EB9000F8880021A0802046FEF798FC0546304604
:10EBA00000F02CFE5DB1042D08BF0525002020607B
:10EBB0000F2D04D80120A84010F4184F02D1386955
:10EBC00000F034FE284603B0F0BD00002DE9F04F00
:10EBD00083B004460E460020186002A920469A46DB
:10EBE000154611F09FFB074608B9677C7FB1DDF839
:10EBF00008B0BBF1000F00F0DA800F2F00F2D380D5
:10EC00000120B84010F4184F40F0D180CBE0207CB8
:10EC1000C00707D1DDF808B00727BBF1000F40F0AF
:10EC2000C280C4E0E1686069091ADDF808B0A94251
:10EC300051EA3588B8F1000F00F0A48004F12C07E8
:10EC4000019700BF01466FF35F2151B1C1F500701C
:10EC50003944404550EA388530462A46F1F767FE88
:10EC60005EE0BBF80A10013901EA50250DB1A06938
:10EC700023E098B1A26A9AB15168002900F08F8010
:10EC80002368400A0C325B89B0FBF3F088420CD356
:10EC9000401A52F8081B0029F8D179E0A06807E073
:10ECA000A169204601F04FFC02E052F8041C084420
:10ECB00001286DD9411C7ED0A061DBF81C10023800
:10ECC000023988426BD2BBF80A10DBF8302000FB17
:10ECD0000120002863D05FEA582700EB05092DD0FA
:10ECE000EA199BF801008A424A4688BF4F1B314609
:10ECF0003B46FEF726FD002853D194F91000B0F1F1
:10ED0000FF3F0BDCE069A0EB0900B84206D206EB3E
:10ED100040204FF400720199F1F709FE7D02019F36
:10ED2000DAF80000B8EB05082844CAF8000060696A
:10ED30002E44284460617FF485AF23E0E2694A45B0
:10ED400019D094F91000B0F1FF3F0BDC9BF80100E3
:10ED5000012301990127FEF708FD18BB207C00F074
:10ED60007F0020749BF80100012301994A46012786
:10ED7000FEF7E7FCB0B96169019F6FF35F21C4F84A
:10ED80001C9063E7BBF1000F4FF000070BD10EE0C2
:10ED9000BBF1000F4FF00207677404D107E00227B0
:10EDA00000E001276774DBF8100000F03FFD3846F3
:10EDB00003B0BDE8F08FBBF1000F4FF00107EBE7A8
:10EDC000F0B581B00E466946054611F0ABFA04462F
:10EDD00058B1009830B10F2C31D80121A14011F465
:10EDE000184F2CD0204601B0F0BDF6B14FF40070A2
:10EDF00000F002FD0746002800981CD0C760284696
:10EE0000FEF71EF9011F50EA118454B92846314615
:10EE100001F01CFC00212846FEF79CF8011F50EA77
:10EE20001184384600F0EAFCD3E700212846FEF7BB
:10EE30004DFB0446CDE700284FF01104D2D0006905
:10EE400000F0F4FCCEE72DE9F043A1B0CDE91F10AE
:10EE50001FA801F09FFC20A806A9022206F0D0F905
:10EE6000069C20B10646002C40F0A380ABE04FF496
:10EE70000070139400F0C0FC002867D00546E060E5
:10EE8000209913A801F01EF99DF8771011F0A00148
:10EE900040EA010218BF0621002851EA0086002A34
:10EEA00040F084801A980DF1040800F10C0114223E
:10EEB00090F80B904046F1F73AFD13AB0DF11C0CA6
:10EEC00019AF0FCB8CE80F000DF1340C17980B9095
:10EED00018980C90CFCF8CE8CF001F9907A801F0AD
:10EEE000F1F804280BD0064600285FD115980826B3
:10EEF000099981425AD117980B99814256D107A896
:10EF0000FEF740F90646002850D10E9E08F1010197
:10EF100006F10D001322F1F70AFD202020EA490036
:10EF200040EA0900F0720120E070F07AC00603D5D3
:10EF3000099F1598B8420DD113A8FEF799FA064615
:10EF4000A0BB204610F07CFF06462FE04FF01106D4
:10EF5000B4BB38E02178708B032905D1317D727DF7
:10EF6000120642EA01410844E16902380239884246
:10EF70001BD26189226B00FB0121B1B1204606F052
:10EF800072FA064690B994F859002E28D4D1207808
:10EF9000A4F87270032805D1380C84F86C00380E80
:10EFA00084F86D000120E070C6E70226284600F0D4
:10EFB00025FC0F2E04D80120B04010F4184F02D1C8
:10EFC000206900F033FC304621B0BDE8F08300003A
:10EFD000B0B50C4600210546FEF778FA002C014634
:10EFE0004FF0020010D479B95CB100BF2846FEF79B
:10EFF00027F840B900212846FDF7ACFF18B9013CBD
:10F00000F4D10020B0BD0220B0BD70B58EB00D4669
:10F010000D900DA801A9002206F0F2F8044688B967
:10F020004FF4007000F0E8FB06460028019815D068
:10F03000C6600D9901A801F045F80446B0B130460C
:10F0400000F0DCFB019830B10F2C0BD80121A1405E
:10F0500011F4184F06D020460EB070BD00284FF0B6
:10F060001104F8D0006900F0E1FBF4E79DF92F00EE
:10F07000B0F1FF3F06DD002DE1D001A8294601F0E7
:10F08000E5FADCE710202872D9E7F0B581B06946CF
:10F09000054611F047F90646002845D1287C41066F
:10F0A00001D4002640E040B2009CB0F1FF3F09DDF2
:10F0B00001F0ABFA0746296A204606F0D4F978B188
:10F0C000064632E0607805F12C01EA690123012649
:10F0D000FEF74BFB88BB287C00F07F002874E7E735
:10F0E000686AC17A41F02001C1722A68A968418327
:10F0F0001278032A03D10A0C0275090E4175E968DA
:10F10000C1618775390AC175390C0176390E4176AE
:10F11000002141820120E070204610F091FE297C00
:10F12000064601F0BF002874009C4CB10F2E04D895
:10F130000120B04010F4184F02D1206900F076FB96
:10F14000304601B0F0BD70B582B001A9044611F09F
:10F15000E9F8054608B9657C5DB1019830B10F2D1D
:10F160004FD80121A94011F4184F4AD0284602B0C7
:10F1700070BD207C800702D4019807253FE0E1683C
:10F180006069884239D290B1A169204601F0DBF96B
:10F19000014601305FEA1F95012908BF02257DB1B4
:10F1A000207C6169E16040F04000207418E0A168B3
:10F1B0000022204600260AF043FF0546A66008E02C
:10F1C0000198C06981420ED2A26920460AF038FF38
:10F1D0000546207C6169E16040F04001217445B141
:10F1E00001986574BAE7207C6169E16040F04001F4
:10F1F000217440B2B0F1FF3F07DD019800250028DF
:10F20000B4D0006900F012FBB0E7019804F12C01C2
:10F21000E269012340780125FEF7A7FA0028DFD133
:10F22000207C00F07F002074E7E7F0B59BB01A90D7
:10F230001AA801A9022205F0E3FF019C10B10646BD
:10F240008CB917E04FF400700E9400F0D5FAA0B11D
:10F250000546E0601A990EA800F034FF0646A0B1FA
:10F26000284600F0CBFA0F2E0BD80120B04010F446
:10F27000184F06D030461BB0F0BD002C4FF01106E1
:10F28000F8D0206900F0D2FAF4E79DF96300002875
:10F2900023D49DF83E00C10721D1159922784F8BC8
:10F2A000032A05D10A7D497D090641EA02410F443E
:10F2B000C00616D40EA8FEF7DBF8064630B92FB10B
:10F2C0000EA8002239460AF0BBFE0646002EC7D122
:10F2D000204610F0B5FD0646C2E70626C0E7072621
:10F2E000BEE702A8002102940497FEF7EFF8064655
:10F2F0000028B5D102A8FDF7A3FE0646002808BFE6
:10F300000726042EACD1D5E72DE9F04F83B0044693
:10F310000E460020186002A920469A46154611F0B4
:10F3200001F8074608B9677C7FB1DDF808B0BBF18A
:10F33000000F00F0F1800F2F00F2EA800120B840AA
:10F3400010F4184F40F0E880E2E0207C800707D4FA
:10F35000DDF808B00727BBF1000F40F0D980DBE0F3
:10F360006069DDF808B0C143A94255EA20A8B8F1A8
:10F37000000F00F0BF8004F12C09CDF8049000BF0D
:10F3800001466FF35F2179B1C1F50070404550EA45
:10F39000388509EB010031462A46F1F7C8FA207C8E
:10F3A00040F08000207479E0BBF80A10013901EACE
:10F3B00050256DBBA0B1A26AB2B15168002900F01E
:10F3C000BB802368400A0C325B89B0FBF3F000BFBE
:10F3D00088420ED3401A52F8081B0029F8D189E060
:10F3E000A06848B9002100E0A1692046F7F774FD44
:10F3F00002E052F8041C0844411C00F091800028EF
:10F4000078D0012800F09180A168A06101B9A060C6
:10F4100094F91000B0F1FF3F0CDC9BF80100E269A9
:10F4200001234946FEF7A1F900286FD1207C00F0A6
:10F430007F002074DBF81C00A169821E881E9042A8
:10F4400062D2BBF80A10DBF8302000FB0120002854
:10F450005AD05FEA582700EB050934D0EA199BF827
:10F4600001008A424A4688BF4F1B31463B46FEF7A1
:10F470007CF900284AD1E069A0EB0900DDF804908E
:10F48000B8420AD206EB40214FF400724846F1F729
:10F490004EFA207C00F07F0020747D02DAF8000034
:10F4A000A8EB05082844CAF80000E1686069284410
:10F4B0002E44884250EA8181B8F1000F6061E1601A
:10F4C0007FF45EAF16E0E06948450BD0E068616903
:10F4D000814207D29BF80100012301994A46FEF7B9
:10F4E00030F998B96169C4F81C906FF35F21DDF8B9
:10F4F000049049E7207CBBF1000F4FF0000740F07B
:10F500004000207404D107E0022700E0012767745F
:10F51000DBF8100000F08AF9384603B0BDE8F08F40
:10F52000BBF1000F4FF0010703E0BBF1000F4FF0FC
:10F5300002076774ECD1EFE7207C002740F0400021
:10F540002074E5E74EF274110246C2F2012108462A
:10F55000114600F05DB840B14FF6FD510180012128
:10F560000022C0E90212C0E9042270474EF2741072
:10F57000C2F2012000F06CB84EF274110246C2F2E1
:10F5800001210846114600F0BBB8000010B5046820
:10F59000042C07DB4268032152F8213073B101319A
:10F5A0008C42F9D1032CD8BF0324214600F008F87F
:10F5B000B0F1FF3FD8BF4FF0FF342146084610BDE1
:10F5C0002DE9F041054600680C4688421DD80F2CF5
:10F5D00019DC24F00300071D102FA8BF10274FEAE5
:10F5E0008708686841460DF07DFC60B129680646D1
:10F5F000B94205DA06EB8100A8EB8101F1F740FA88
:10F60000C5E9007601E04FF0FF342046BDE8F08107
:10F61000B0B5002918D4054600680C46884213DDB1
:10F62000FCF736FC686850F82400002428B10188F3
:10F630004FF6FD52914250EA04844FF66810C2F230
:10F6400001200DF09FF800E000242046B0BD00002E
:10F6500070B50546FCF71CFC2846FFF797FF00280D
:10F6600010D404460120182101260AF0C1FD48B13A
:10F670006A6886604FF6FD5101800021016142F801
:10F6800024000AE009A00CF057F80CA00CF054F884
:10F6900019A00CF051F84FF0FF344FF66810C2F289
:10F6A00001200DF06FF8204670BD00BF1B5B3331A9
:10F6B0006D5B452F4446535D2000000044465320B7
:10F6C0006664206E6577206973206661696C656485
:10F6D0002120436F756C64206E6F7420666F756EA9
:10F6E0006420616E20656D70747920666420656E9B
:10F6F0007472792E000000001B5B306D0A00000060
:10F70000B0B504460D4640B943F6ED011EA0C0F267
:10F7100002214FF4A6720AF02DFDFCF7B9FB002D73
:10F7200029D42068A84226D9606850F8254014B32F
:10F7300021884FF6FD5291424FF0000140F825100C
:10F7400008D043F6ED0113A0C0F2022140F25F128F
:10F750000AF010FDA0680138A0600CD1206938B112
:10F76000C1680139C16003D10BF020FA002020618B
:10F7700020460BF01BFA4FF66810C2F20120BDE8DC
:10F78000B0400CF0FFBF00BF66647420213D204EE6
:10F79000554C4C0066645F736C6F742D3E6D6167F1
:10F7A0006963203D3D204446535F46445F4D4147D9
:10F7B00049430000B0B582B06D460C46034608A22E
:10F7C000082128460EF022FB012128460CF099FE64
:10F7D00010B12060012000E0002002B0B0BD00BFE9
:10F7E000666174256400000020B180B50CF0C0FE95
:10F7F000BDE88040012070470BF0CEBF0BF0D6B9BA
:10F800008028024610D3FF284FF000020CD840F2A7
:10F81000B513994208D144F2D661C0F2022101EB3E
:10F8200040006FF0FF01425A104670470CF0AABF2B
:10F8300080B540F6B8310DF099F800285FEA1F90C6
:10F8400080BD00007F2801D8024619E00022B2EBFB
:10F85000104F15D140F2B513994211D144F2D6623E
:10F860000021C0F2022200BF1388834205D001317B
:10F8700002328029F8D1002202E001F18000C2B2F8
:10F8800090B270470021B1EB104F18BF704710B510
:10F8900041F67D54B0F5805F38BF6124844203D9BE
:10F8A00080B2BDE810407047012344F22842B0F511
:10F8B000805F44F2E44E38BF40F21A33C0F20222B5
:10F8C000C0F2022E02F1040C54FA83F238BF0EF19A
:10F8D000040C824215D8DAB299B2B1F5807F28BF04
:10F8E00000223CF81240002CDAD08442D8D80CEB2D
:10F8F000420202F1040C5388DAB254FA83F18142D5
:10F90000EAD91A0A082ACBD8DFE802F005090E1056
:10F91000121416181A00001B3CF81000C0E7011B57
:10F9200001F00101401ABBE71038B9E72038B7E70A
:10F930003038B5E71A38B3E70830B1E75038AFE7E9
:10F94000A0F5E350ACE7B0B540F65800C2F2022093
:10F95000006890F82800800706D44FF6E8100021D0
:10F96000C2F20120017029E04FF66C204FF6E81436
:10F97000C2F20120C2F20124016839B14FF6E81049
:10F980008022C2F20120F1F7A2F806E047F26D31C1
:10F990000020C2F268012071216020460EF01CFB9D
:10F9A000251820460EF018FBC0F18001284600F013
:10F9B00018FF2046F0F747FF3E2121524FF6E8108E
:10F9C000C2F20120B0BD000070B582B040F658060A
:10F9D0000021C2F202268DF80710306840B943F6C4
:10F9E000531019A1C0F20220A4220AF0C3FB306810
:10F9F000D0F8144224B30DF107024FF0FF31012378
:10FA000020460AF0F6FE012817D00DF1070500BFC9
:10FA100030684FF0FF310DF07AFE3068D0F81402F4
:10FA2000A04201D0044658B14FF0FF3101232046D7
:10FA30002A460AF0DEFE0128EAD19DF8070001E01F
:10FA40004FF0FF3002B070BD66696E73685F676526
:10FA5000746368617200000010B540F65804C2F289
:10FA60000224206840B943F6531005A1C0F20220D9
:10FA7000C3220AF07FFB20680DF0FAFD002010BDC4
:10FA800066696E73685F72785F696E64000000007B
:10FA900070B540F658060546C2F20226316839B9FB
:10FAA00043F653101FA1C0F20220D6220AF062FBD7
:10FAB00028460AF0C8FD68B304463068D0F814023E
:10FAC00084422DD040F2431120460AF0BFFD0028A9
:10FAD00018BF70BD3168D1F8140240B10AF04BFD77
:10FAE00030680021D0F814020AF0D9FE316801F51F
:10FAF000DF700021512200250CF02CFA30684FF6FF
:10FB00005921C0F20021C0E984542046BDE870406C
:10FB10000AF0C5BE08A02946BDE870400BF00CBE37
:10FB200070BD00BF66696E73685F7365745F6465FE
:10FB3000766963650000000066696E73683A206349
:10FB4000616E206E6F742066696E642064657669EC
:10FB500063653A2025730A00B0B540F6580504469F
:10FB6000C2F20225296841B943F6531008A1C0F238
:10FB7000022090220AF0FEFA296891F8280004F089
:10FB8000010200F0FD0040EA420081F82800B0BD0B
:10FB900066696E73685F7365745F70726F6D7074A1
:10FBA0005F6D6F646500000070B582B04EF2642036
:10FBB0004EF26822C2F2012044F65C01C2F2012238
:10FBC000C0F2022144F6DC13016001204FF40671FB
:10FBD000C0F2022313600AF00BFB40F65806C2F293
:10FBE00002263060F0B14FF65D411420009011A064
:10FBF000C0F2002100224FF480530A250195002411
:10FC00000EF049FB054630680CA1002200230DF0E0
:10FC1000F1FC0120FFF7A0FF4DB128460EF028FEB1
:10FC2000002404E007A00BF087FD4FF0FF342046CE
:10FC300002B070BD747368656C6C00007368727894
:10FC4000000000006E6F206D656D6F727920666F29
:10FC500072207368656C6C0A0000000040F6580959
:10FC6000C2F20229D9F8000090F82810D0F8142226
:10FC700041F0010180F8281022B90AF057FC08B1C0
:10FC8000FFF706FFFFF75FFE4FF6E81AC2F2012A00
:10FC900050460BF051FD43F6511601270025C0F2E6
:10FCA000022600BFFFF790FE0028FBD480461B28E9
:10FCB000D9F800B002D1CBF82470F3E7DBF82400C8
:10FCC000022808D001281ED1B8F15B0F19D10220FB
:10FCD000CBF82400E6E7B8F1400FCBF8245026DD3E
:10FCE000A8F1410003281BD8DFE810F004009101BF
:10FCF0009A01B201BBF82A00002800F0D88101382F
:10FD0000B9E1CBF82450B8F17E0F09DCA8F1080066
:10FD1000052800F28A80DFE800F04795148C8C14E7
:10FD2000B8F17F0F40D0B8F1FF0FBBD081E0A8F150
:10FD30000800052800F27980DFE800F03684037BB4
:10FD40007B03BBF81002BBF82C40002800F0D780E2
:10FD5000052CC0F0A8800BF5B7750BF5DF785022A5
:10FD600028464146F0F714FD0028584600F0C880A8
:10FD70000BF17E04042700BFA4F15000502221465D
:10FD80000BF0A0FD013F04F15004F5D100215022F9
:10FD900028460CF0DFF8BBF81022284641460BF04D
:10FDA00091FD05240127A5E0BBF8120208B92FF048
:10FDB00087C8BBF81012013882B2ABF812020139C1
:10FDC000ABF810128BB2934240F2BF801BFA80F165
:10FDD0009A1A01F5DF7001F2BF110CF09DF8D9F805
:10FDE0000000B0F81012084480F8BE51D9F80000A5
:10FDF000B0F81212084400F5DF71AFA00BF09CFCC4
:10FE0000D9F80000B0F81012B0F8120288423FF69C
:10FE100049AF441E30460BF08FFCD9F80000013486
:10FE2000B0F810028442F5D33CE7B8F1000F3FF47C
:10FE300039AFBBF81022502AC0F092800022ABF8F4
:10FE40001022C0E0BBF8120250B1002430460BF083
:10FE500073FCD9F800B00134BBF812028442F5D328
:10FE600043F619100BF5DF74C0F202200BF064FCAE
:10FE7000204605F015FB204605F0D6FEFFF763FD92
:10FE800043F667105146C0F2022022460BF054FCA4
:10FE9000D9F8004004F5DF70F0F7D5FCA4F81002A3
:10FEA000A4F81202FEE654B104EB84000BF5DF71F6
:10FEB00050220BEB00102238F0F76AFCF8B104EB8B
:10FEC00084000BF12E050021502205EB0010ABF849
:10FED0002A400CF03FF8BBF82C00BBF810220BF5C1
:10FEE000DF7100EB800005EB00100BF0EBFCBBF8C2
:10FEF0002C00441CD9F80000ABF82C4000E0584618
:10FF0000ABF82A4090F82810C90707D043F619101B
:10FF1000C0F202200BF010FCD9F80000B0F810126B
:10FF200000F5DF7005F046FCFFF70DFD50460BF0C5
:10FF300003FCD9F80000002100F5DF7051220CF01D
:10FF400009F8D9F8000000255EE05AA00BF0F4FB98
:10FF5000D9F80000B0F81012084480F8BE51A1E6AC
:10FF6000BBF812329A422ED90BEB0301D21A01F2DE
:10FF7000BF1001F5DF710BF0CFFFD9F80000B0F82A
:10FF80001212084480F8BE81D9F8000090F82810B9
:10FF9000C90709D0B0F81212084400F5DF7148A073
:10FFA0000BF0CAFBD9F80000B0F81012B0F81242FA
:10FFB0008C421BD230460BF0BFFBD9F80000013455
:10FFC000B0F81012F4E70BEB020080F8BE81D9F80C
:10FFD000000090F82810C90708D043F66410414685
:10FFE000C0F202200BF0A8FBD9F80000B0F8101204
:10FFF000B0F812320131A0F810128AB2591C502AFE
:020000040201F7
:10000000A0F81212FFF44EAEC0F810524AE6BBF848
:100010002A10BBF82C20501E884229DD481C2AE0FB
:10002000BBF81012BBF812028842BFF43BAE584432
:1000300090F8BE1143F66410C0F202200BF07CFB76
:10004000D9F80000B0F812120131A0F8121229E616
:10005000BBF8120208B92FF0DBC930460BF06CFB7D
:10006000D9F80000B0F812120139A0F8121219E6FE
:100070000AB92FF0E9C981B2ABF82A0089005022F1
:1000800011FA80F10BF5DF700BEB01112E310BF043
:1000900019FCD9F8004004F5DF70F0F7D4FBA4F8A0
:1000A0001002A4F8120220460FF082FEFAE5ABF827
:1000B0002A50F7E5082008000825732020080000D2
:1000C000257300002DE9F04F89B00D468046D0F829
:1000D000009000BF28785C2801D02F2801D101357D
:1000E000F8E74FF0000AC8F808A02878202809D2BD
:1000F0000021802088F82B00404609B0BDE8F04F71
:10010000FDF7E4B9D9F80C4008F1200B09F13801EA
:100110000791013500270894C0B240F2B511FFF7EE
:100120006FFB0646000400F06F81B1B220292ED388
:100130005C2918BF2F291BD07F290BD80922BAA010
:10014000F0F7A0FB00284FF0060040F05E81FE2F84
:1001500003D95AE1FE2F00F2578124F8026B0137D0
:1001600015F8010B08B12FF029C80420089C13E0F2
:10017000089C00BF28785C2801D02F2802D10135C7
:10018000F8E700BF20285FEA2F90800001E00420FC
:10019000089C002F00F0368104EB47037A1E991E5D
:1001A00033F8026C2E2E01D0202E08D1013FA3F18E
:1001B0000203A1F10201A2F10102F1D122E1CDF885
:1001C00018B0A3F800A0CDE903984FF0FF392346FB
:1001D000264600BF33F8026B09F10109202EF9D041
:1001E00040F003032E2E53EA0080B9F1000F53EACA
:1001F000108A00BFB84693463FB131F80209A8F112
:100200000107ABF101022E28F4D106984FF0080E39
:100210000124002300274FF0000C4FF02031C0F8DC
:100220000710C0E90011AEF10100059008984AF0EE
:10023000030100EB4902ABEB090009F1010900BF22
:100240001688202E03D02E2E08D1002876D0023218
:10025000013809F101098A46F2E700BF002E00F0DB
:10026000838000285FEA1F91774569D2002867D014
:10027000802ECDE9017E31D340F2B5113046CDF864
:1002800000C027461C46FFF7DDFA0646000610D4DC
:10029000B6F5807F23463C46DDF808E019D3059883
:1002A000DDF800C0019981422AD34AF0030A77465B
:1002B000BCE740F2094106F07F00C0F202214AF09B
:1002C000020A23463C460E5CDDF800C0DDF808E07B
:1002D00003E04AF0020ADDF800C0019F66B1072280
:1002E00054A0314600936746F0F7CCFADDF808E0F9
:1002F000BC46DDE9003760B14AF0030A5F2617E02B
:1003000004984AF0020A08444F1C310A80F8201071
:100310000EE0A6F14100A6F1610180B21A2888B270
:1003200038BF43F0020319289CBF43F00103203E6D
:1003300004983844013780F8206077E70121C146EE
:100340005FEACC704AF003000DD100295AEA108A06
:10035000C14509D89B004FF00B0E00244FF0010C53
:100360000827C1465FE78246DDF818B0DDF8108047
:100370009BF80000E52802D105208BF80000E0077B
:100380004AF0020218BF9B0003F0030103F00C00C7
:10039000032952EA0A810C2852EA0180082101EA65
:1003A0004301820763F3041158BF084388F82B0008
:1003B0004046FCF701FD98F82B1048BB48072FD4A6
:1003C00098F80600C0062DD5D8F8100007996FF3ED
:1003D0005F20DDF80C90014499F80020488B032A37
:1003E00005D10A7D497D090641EA02410844C8F861
:1003F0000800D8F8001028784FF0000ACC6808B13F
:100400002FF079C900202080062009B0BDE8F08FC8
:100410000428FAD1042011F0040F50EA1090F4E7F8
:100420000020F2E70520F0E72A3A3C3E7C223F7F9D
:10043000000000002B2C3B3D5B5D00000AF0B6BBCA
:1004400010B50C46FFF77EF868B100692146806858
:10045000FBF79EFEB0F1FF3FC8BF10BD0DF060FC82
:100460004FF0FF3010BD6FF00F00F7E780B5FFF7DA
:1004700069F818B1BDE88040FBF7CDBC6FF00F0004
:100480000DF04EFC4FF0FF3080BD2DE9F04F87B0EE
:100490004FF22057BDF84490C2F20127BDF840A0AA
:1004A00006461C46154638684FF4F0724FF4F07358
:1004B0004FF0010B4FF4B478CDE9008BF7F700FE55
:1004C00040F25C613868C2F202210968F9F7BDFAAE
:1004D0003868002100224FF4F073CDF800804FF00F
:1004E0000008F7F70AFC386831462A462B46CDE962
:1004F000004BF9F7C9FB290122014FEA0A133868BA
:100500004FEA09161BB212B2CDE9022309B2CDE9B6
:10051000008100232946224636B2CDE90468F6F769
:10052000BDFF40F25C613868C2F202210022096816
:10053000F7F78AFD386807B0BDE8F04FF7F7B4BDAC
:10054000006809F007B8F0B581B0022931D3056819
:100550000C46E86988422CD9287803282CD0022838
:1005600044D0012825D104EB5407A86A00EB572199
:10057000284604F078FF00283FD17E1C6FF35F27E8
:10058000E81990F83870A86A00EB5621284604F064
:100590006AFF90BB6FF35F26E20705EB060090F859
:1005A000380047EA002108466FF31F3018BF0809DA
:1005B00000E0012001B0F0BDA86A00EBD41128468C
:1005C00004F051FFC8B904F07F0005EB800090F8FB
:1005D0003A1090F83B2090F83930090290F8380032
:1005E00041EA0241194461F31B20E3E7A86A00EBEA
:1005F0001421284604F037FF10B14FF0FF30D9E73F
:10060000E0B205EB4000008FD4E780B58CB000204D
:100610000FF08CFC0B900BA8694600F035F9DDE972
:1006200004104FF0C042013102EB4060039A40EAEF
:100630004150DDE9013140EA0240009A40EAC12020
:1006400040EA431040EA52000CB080BD2DE9F0476B
:100650000546D0F8008000208875A869002800F0C1
:100660009580E86A0C4601303ED04FF00009002624
:10067000D8F80C00002100EB460000BF0F460188AF
:1006800059B306F101063FB9B1F5584F04D3B1F59E
:10069000604F00F10200F1D304EB090241EA074088
:1006A00040F2B51102F1160AFFF7CCF8B0F5807FE1
:1006B00008D329F00101FE296AD0010A0AF8011BBA
:1006C000022106E00021B9F1FF0F18BF002805D074
:1006D00001218AF800008944CAE749462046002FD4
:1006E00008BF08440021817500202E2100273E46C6
:1006F0003A460B2F98BF0B26964213D0EB69571C36
:100700009B5C3A46202BF7D0052B08BFE523092F29
:1007100004D10B289EBF22180130517222180130DB
:100720005372E4E7211800224A72A17D19BBC0B1BF
:1007300004F116010020082211F80D3C2E2B0BD0DD
:1007400093B1A3F14107192F07D8EF693F7B1742F7
:1007500018BF203301E000BF102201F8013B013037
:10076000EAE73F20A0750120211800208875E9697B
:10077000097B01B96072E869C17A01F03F01217219
:10078000C1692160C18AE180008BA080BDE8F0874B
:100790000021A3E780B5D0F800C0BCF1000F1AD04B
:1007A0000223624612F8011B013B202901D33A299A
:1007B000F8D13A2912D19CF800E04FF0FF31AEF1A8
:1007C000300CBCF1090F0AD84BB9BEF1310F9CBFF8
:1007D0000260614603E04FF0FF3100E0002108466F
:1007E00080BDB0B50D460446FBF7F8FE3CB14DF6B2
:1007F000E4612046C2F201212A460DF011FCFCF70B
:10080000CDF92046B0BD80B582B04FF6F4204FF64A
:100810001831C2F20120C2F2012100680A680132D7
:100820000A60096831B94FF610310022C2F2012185
:10083000C1E900224DF684510122C2F201210A7061
:100840004A70416829B1806801906846032200928D
:10085000884743F24840C4F23400016841F0010186
:1008600001604CF2C021EFF303806FF35F20C4F20C
:10087000000151F8202022F4803241F8202051F864
:10088000200002B080BD00002DE9F041002800F0FA
:1008900089808846002900F08580054600212C22A9
:1008A000404600260BF056FB44F2075C2868CCF269
:1008B0002E2C48F68907A0FB0C234FF4C87E1A0C97
:1008C00040F2A3235A43A0EBC21048F68902C8F6AF
:1008D0008802A0FB0223C3F34F127A435F093C0155
:1008E000510DA4EB531309016424A1EB5251A0EB69
:1008F0008302C8F800204BF2C532A7EB8101C9F290
:10090000A21242F29343A0FB020288B2C8F804008C
:10091000D00AC8F808002868A0FB0C01042048F29F
:100920001F5CC5F2EB1C00EB114082B25A43A0EBF6
:1009300012439BB25B0803EB124240F2B27392087F
:10094000A2EBC2020244080C91B2C8F8181040F29F
:10095000B17100BF06F2B27212F00307024613D162
:10096000A3FB0C05E8096D0900FB0EF06543A0F23E
:10097000B270A5F2B275B5425FEA1F95B0425FEA68
:100980000F90284001280AD140F26D10101A03F18F
:10099000010301F1010106F10106DBDA08E04FF481
:1009A000B770F3E715200DF0BBF94FF000083EE0FB
:1009B00006F14500C8F81400C8F81C200FB1012149
:1009C0001DE0A1FB0C0164234809C90958434FF4F9
:1009D000C8735943A0F2B170A1F2B171B0425FEA9D
:1009E0001F90B1425FEA0F9108424FF0010106D11A
:1009F0003B2A04DB4FF0010050EA1091013A40F22B
:100A00009640C0F2022000F116030B20B3F90070EB
:100A1000BA4205DA0138A3F10203F7D1002700201A
:100A2000D21B1144C8E903100020C8F8200040463A
:100A3000BDE8F08110B5D0F808E0DEF868C00CF130
:100A4000010C21B18C4502D9481E106010BD8C45A7
:100A50005FEA9F9C0029DEF834105FEA0F9440683B
:100A6000DB0718BF090C11F0100F01F00C01006832
:100A70005FEA1F9304295FEA1F91032853EA8180EC
:100A800044EA0001012906D180F0010050EA0C007F
:100A900001D0032000E00220506010BD2DE9F04F8E
:100AA00089B0044601208021012609F0A1FB00281D
:100AB00000F0DA802368054603F134070DF10A0AD5
:100AC00087CF484302FB07F1420A4F0AB2EB512F8E
:100AD00043F2280238BF470AC0F202220F215046D3
:100AE000AF670027C5E9167700970DF08FF9012150
:100AF000002250460CF0ABFC4CF295112866C0F277
:100B00000121A9634CF299116E62C0F20121E963DF
:100B10004CF245012C60C0F2012129644CF29D1178
:100B20004FF40078C0F2012169644CF28141C5F8AC
:100B30007080C0F20121A9644CF2490105F10C005A
:100B4000C0F20121E964D4E90F2321685200C5E90C
:100B50001A2703226B672D6509F089FE4DF6E84BD5
:100B600043F22C09C2F2012BC0F202290027DBF864
:100B7000000045F8040FCBF800504560C5F804B0FC
:100B80000DF11A050120802109F032FB002800F048
:100B900080800646206800F13403006C0ECB514380
:100BA00058434A0A430AB2EB502F204638BF4B0A3B
:100BB00006F154013A46B36700F098F800067BD17D
:100BC0002368092128464A4600970DF01FF943F291
:100BD000280223680F215046C0F2022201370097F5
:100BE0000DF014F90121002250460CF030FC0121D7
:100BF00071624CF295113066C0F20121B1634CF282
:100C000099113460C0F20121F1634CF24501C6F83C
:100C10007080C0F2012131644CF29D1106F10C008C
:100C2000C0F2012171644CF281410022C0F2012125
:100C3000B1644CF24901C0F20121F164216C716789
:100C4000F16DC6E91A1203222946366509F00FFE36
:100C5000DBF8000046F8040F802FCBF800604660F8
:100C6000C6F804B08ED12AE042F6FD70C0F2022030
:100C70000AF062FD43F20C00C0F202200AF05CFDB3
:100C800042F2FC40C0F202200AF056FD4FF0FF3065
:100C900018E042F6FD70C0F202200AF04DFD43F26A
:100CA0000C00C0F202200AF047FD42F2FC40C0F204
:100CB00002200AF041FD02E0304609F077FF00F023
:100CC00004F8002009B0BDE8F08F80B54EF2542042
:100CD000C2F20120006809F069FF4EF27C10C2F2F6
:100CE00001200068BDE8804009F060BF2DE9F043B5
:100CF0008BB04EF254280646C2F2012815468946AA
:100D0000D8F8000000EBC21756B943F2301043F296
:100D10007A11C0F20220C0F20221252209F02AFA3B
:100D200007A803A9102297ED001E80ED001F746C28
:100D30000026CDE90366CDE905660AF0B1FD68B18C
:100D4000601E396A7A6A411A76EB020106D3B96AE3
:100D5000FA6A401A4FF00000904104D24FF0FF3081
:100D60000BB0BDE8F083D8F8000000EBC510026AB4
:100D7000816A8F1A436AC66A781CC9E9012013A0E8
:100D8000CDE9001629460AF0D7FCD9F80800C20AB6
:100D900009D0410D0DD043F2E9106FF39F22C0F24C
:100DA000022019A30EE0410819A01BA20AF0C4FCFE
:100DB0000AE0C0F3490643F2E910C0F2022013A38F
:100DC000114632460AF0B8FC0020C9E7666F756E1E
:100DD0006420706172745B25645D2C2062656769B4
:100DE0006E28736563746F72293A2025642C206520
:100DF0006E6428736563746F72293A256420736981
:100E00007A653A200000000047420A004D420A007D
:100E100025642573000000004B420A00B0B544F27F
:100E2000E634C0F2022420460AF086FC1FA00AF035
:100E300083FC20460AF080FC43F2FD60C0F20220F1
:100E400009F001FCD8B943F2FD64C0F2022400BFEE
:100E5000204609F0F8FB05464FF4817001210BF0A4
:100E6000BDFFC8200DF0B4FB4FF4817000210BF0E2
:100E7000B5FFC8200DF0ACFB0DB92FF017C813A0BB
:100E800005F028FE044640B915A00AF055FC18A04C
:100E90000AF052FC1AA00AF04FFC204606F062FB52
:100EA0002046BDE8B04007F01DB900BF5468697323
:100EB000206973206D6970692D322E30696E636808
:100EC000206E65732064656D6F0A00006E65732F78
:100ED00053757065724D6172792E6E6573000000F6
:100EE0001B5B33316D5B452F6D61696E5D200000CA
:100EF0006E6573206C6F6164206572726F720000A2
:100F00001B5B306D0A0000004FF694760025C2F29C
:100F1000012600BF56F8250000B180470135042D99
:100F2000F8D10DF0DAF94FF0000508B92FF00FC035
:100F3000044600BF2046D4F88C700BF0CFFE054667
:100F4000012802D120460BF0C9FD0FB12046B84759
:100F50002DB9E06A09F02AFE20460BF06FFD0DF076
:100F6000BCF9044608B12FF01BC80025D2E70000E9
:100F70002DE9F04194B0044690F83000019100074B
:100F800009D501AA0021204603F0C0FF064600282B
:100F900040F083800199204603F0A2FDD0B10546C0
:100FA0000020CDE90200204603F048FC45F08041D6
:100FB00003AA204603F0F6F8064600286DD1206B00
:100FC00001070BD50121204603F0BFFF28B10646DB
:100FD00000255FE06FF0FE065FE0206B04A90007CC
:100FE00003D4204603F020F902E0204603F0D0FAB3
:100FF0000646002851D1AC200AF0CEFB00285FD075
:101000000021AC22054600260AF0A4FF05F10800E5
:1010100004A91022A5F84C600127C5E900470AF091
:1010200051FC94F83000000716D40DF1200800217F
:10103000302240466E680AF08DFF0320089030048D
:1010400009900322204641460E9703F005FE00BB9F
:101050000221204603F0BAFE05F11801284603F0EC
:1010600023FBB0B9284603F063FC90B994F8300034
:10107000000703D4284603F02EFD50B902A92846E4
:1010800002F0BCFD28B9029F2846394602F028FE2E
:1010900040B30646284609F089FD42F6FD70C0F2CD
:1010A00002200AF049FB52A00AF046FB42F2FC4043
:1010B000C0F202200AF040FB304614B0BDE8F081D7
:1010C00042F6FD70C0F202200AF036FB43A00AF09F
:1010D00033FB42F2FC40C0F202200AF02DFB6FF01D
:1010E0000506DAE7B5F84E00810707D49DF80F1022
:1010F000490603D540F00200A5F84E0028463946BF
:1011000002F070FE10B1064627A405E0284603F061
:101110000DF8A0B106462BA442F6FD70C0F20220E5
:101120000AF00AFB20460AF007FB42F2FC40C0F23C
:1011300002200AF001FB384609F038FDAAE7D5F88D
:10114000A800A8B10DF12008282108F108002E6898
:10115000EFF796FC40F201110620C0F22131CDE9F3
:10116000080102200E9003223046414603F074FD30
:101170003846E56009F01AFD204603F0D6FBE0682A
:101180000AF021FF0546204603F0CAFB002D4FF070
:10119000000691D0E0680AF025FFE06809F006FD3E
:1011A000E6602E4679E700BF6D6D632073656C6560
:1011B0006374206275737769647468206661696C12
:1011C000000000006D6D632073656C6563742074AE
:1011D000696D696E67206661696C00006D616C6C99
:1011E0006F632063617264206661696C65642100CD
:1011F000696E6974204D4D4320636172642066619D
:10120000696C656421000000F0B585B0044690F873
:101210003000009100070CD5204603F00FFB6A4612
:101220000021204603F072FE0646002840F084802C
:101230000099080615D543F28830C0F202200AF062
:101240007BFA43F2AB30C0F202200AF075FA42F2A8
:10125000FC40C0F202200AF06FFA009820F08001F2
:101260000091204603F03CFCE8B10546204603F01F
:10127000E5FA2046294603F00FFD00284FF0000252
:1012800008BF45F080452046294603F0A1FC0646EC
:10129000002851D194F8300001A9000706D4204657
:1012A00002F0C2FF05E06FF0FE0645E0204603F0C5
:1012B0006FF9064600283FD1AC200AF06DFA38B32A
:1012C0000021AC2205460AF045FE0120A5F84C009D
:1012D00005F1080001A910222C600AF0F3FA94F835
:1012E0003000000709D4291D204603F035F90646D1
:1012F00050B90221204603F069FD05F11801284686
:1013000003F0D2F90646D0B1284609F04FFC13E0AD
:1013100042F6FD70C0F202200AF00EFA43F2973056
:10132000C0F202200AF008FA42F2FC40C0F20220A9
:101330000AF002FA6FF00506304605B0F0BDA86964
:10134000810F85F85410012965D0002940F03081C3
:10135000A9A1EA69030C85F855302B6AA0EE102B81
:1013600091ED003F010A85F85610110DC2F3034CB0
:1013700092006E6A42EA9372A5F858106FF31F321A
:10138000C3F3C233C6F3826185F86410C6F3835198
:1013900085F86510C6F34051F6B240F23C572A6614
:1013A00085F85F3085F86610710801320233C0F3AA
:1013B000C346C0F202279A40C0F302430FF2482E00
:1013C000BF5D02FA0CF25EF82330B9FFC2237B4303
:1013D0004CF6CD47CCF6CC4785F867100933012190
:1013E000920AEA63C0F307226426A3FB073722FFB1
:1013F000400480EF512001FA0CF1296402FB06F150
:1014000000EF520185ED5B0F85F85AC085F8570053
:101410002986F90846E0B5F84E106FA3EA6985F809
:10142000570041F00201A5F84E10010C85F8551047
:10143000010A85F85610110DA5F85810698CA0EE18
:10144000102B93ED003F68A3B9FFC22341EA02418C
:10145000C2F3003222FF400493ED003F6FF39F512F
:1014600085F85E206B6A2966C3F3826285F8642082
:10147000C3F3835285F86520C3F3405285F8662094
:10148000DAB24FF4007303EB4121520885F867206C
:101490004A00C5E90F13002100EF520185ED5A0FF4
:1014A0006A64298640F23C5700F00702C0F3C3008B
:1014B000C0F202275CA3385C53F822205043C5E9F0
:1014C0000D1043F28830C0F202200AF035F9E96BC2
:1014D0005DA00AF031F942F2FC40C0F202200AF0AD
:1014E0002BF994F83000000706D4284603F0F3FAED
:1014F000064600287FF408AF05F12801284603F0CE
:101500005AF9064600287FF4FFAEA86AC0F30361CB
:1015100085F85010C0F3034085F8510094F830006E
:10152000000707D50121204603F00FFD06460028DD
:101530007FF4EAAE284603F021FD064600287FF43A
:10154000E3AEB5F84E006821C007204608BF382139
:10155000695803F04BFC94F83000C0070FD095F8A1
:10156000510040070BD50221284602F0CDFE064669
:1015700000287FF4C9AE0221204603F02FFC20464C
:10158000E56003F0D2F9E0680AF01DFD054620464B
:1015900003F0C6F9002D4FF000063FF4CDAEE06831
:1015A0000AF020FDE06809F001FBE6602E46C3E684
:1015B00042F6FD70C0F202200AF0BEF895F8541011
:1015C00027A00AF0B9F842F2FC40C0F202200AF06B
:1015D000B3F86FF0FE0697E6100000000F00000061
:1015E0000E0000000D0000000F00000001000000D0
:1015F00001000000010000000F0000000E000000CC
:101600000D0000000C000000010000000A000000B6
:1016100064000000E803000010270000A08601001D
:1016200040420F008096980010270000A08601001D
:1016300040420F008096980000000000000000006B
:101640000000000000000000534420636172642029
:101650006361706163697479202564204B422E00B8
:10166000756E7265636F676E69736564204353447A
:101670002073747275637475726520766572736910
:101680006F6E2025642100002DE9F04F87B00446DD
:101690000D4648B943F20A400FF24461C0F20220FD
:1016A00040F2C63208F066FD680611D043F24030C1
:1016B000C0F202200AF040F80FF230600AF03CF865
:1016C00042F2FC40C0F202200AF036F825F07F0515
:1016D000280611D543F24030C0F202200AF02CF85F
:1016E0000FF234600AF028F842F2FC40C0F2022007
:1016F0000AF022F825F080052046294603F0F0F98B
:1017000018B3014603AA20460EF080F9064688B3B6
:1017100042F6FD70C0F202200AF00EF843F2B44027
:101720003146C0F202200AF007F842F2FC40C0F253
:1017300002200AF001F8002E4FF0000500F04F8261
:10174000E06809F033FAE56001E06FF0FE0642F66A
:10175000FD70C0F2022009F0EFFF43F27340C0F2C7
:10176000022009F0E9FF42F2FC40C0F2022009F039
:10177000E3FF35E294F83000000706D5A16C20465F
:1017800003F0E3FB06460028C2D1AC20039E0AF01A
:1017900003F800286CD00021AC220546C6F3027A7B
:1017A00000260AF0D7FB0220A5F84C00242085F87B
:1017B0006CA02C60E56009F0EFFF0028C5F8800000
:1017C0006BD0002124220AF0C5FBD5F8800005600B
:1017D000206BD5F8801002070E720CD4291D20460C
:1017E00002F0BAFE0646002840F080800221204622
:1017F00003F0ECFA206B000705D4284603F06BF9E0
:101800000646002872D105F16D0000210422002651
:101810000AF0A0FBD5F88000002100238DF81260AB
:10182000027A00680DF11207CDE900760EF064F837
:10183000064600285AD19DF8120000F00F08B8F1B2
:10184000040F3FD342F6FD70C0F2022009F074FF8E
:1018500043F233404146C0F2022009F06DFF42F2EC
:10186000FC40C0F2022009F067FF6FF0FE063DE089
:1018700042F6FD70C0F2022009F05EFF43F289409B
:10188000C0F2022009F058FF42F2FC40C0F20220F0
:1018900009F052FF6FF005063AE742F6FD70C0F21C
:1018A000022009F049FF43F25A40C0F2022009F039
:1018B00043FF42F2FC40C0F2022009F03DFF6FF00E
:1018C000050625E0D5F88010000985F86D0008238D
:1018D0000A7A0868002100278DF813700DF11306AD
:1018E000CDE900670EF008F80646C0B1E1680029AE
:1018F0003FF40EAFD1F8800050B10DF08DFFE068DD
:10190000D0F8800009F052F9E0680021C0F880109A
:10191000E06800283FF4FCAE09F048F9F8E69DF9CC
:101920001300C1B28A0705D595F86F2042F0020274
:1019300085F86F20490605D595F86F1041F04001F4
:1019400085F86F10B0F1FF3F0BDC95F86F0095F84C
:10195000701040F0800085F86F0041F0010085F8BC
:101960007000B8F1000F3DD0D5F88000002112239F
:101970000027027A00688DF8147005AECDE9006783
:101980000DF0BAFF06460028B0D19DF81400C0073C
:1019900005D095F8700040F0040085F87000B8F1AB
:1019A000020F1FD3D5F88000002113230027027AED
:1019B00000688DF815700DF11506CDE900670DF082
:1019C0009BFF064658B99DF8150010F0010006D09F
:1019D00095F8700040F0080085F8700002E0002ED5
:1019E0007FF484AFD5F880000EF066F80646002834
:1019F0007FF47CAF286890F83000800604D595F815
:101A00007000000700F1F080B5F84E00C00701D16A
:101A1000E96F08E028684FF28001C0F2FA2180697E
:101A2000884250EA3181204603F0E0F9286890F8B6
:101A30003000C00734D095F86F00400603D595F804
:101A40007000C0072CD0D5F88000002107234FF08C
:101A50000008027A00688DF8188006AFCDE900789A
:101A60000DF04AFF064600287FF440AFD5F88010FD
:101A70009DF8180007230DF119070A7A40F00200BB
:101A80008DF8190008680121CDE900780DF034FFC8
:101A9000064600287FF42AAF2868022103F09EF949
:101AA000BAF1000F5CD04FF480780027242009F0B1
:101AB00073FE002800F0E280002124228146029774
:101AC00001370AF047FAC9F8005089F80870D5F8CC
:101AD00080B000238DF8163000219BF80820DBF839
:101AE00000000DF11606CDE9006343460DF004FF3A
:101AF000002840F0AA809DF8160000F00F000F2883
:101B000017D199F808009BF8082000214FF0000C2D
:101B100000028DF817C0431CDBF800000DF117061A
:101B2000CDE9006C0DF0E8FE002840F08E809DF8B5
:101B3000170089F8090048460DF0BEFF002840F064
:101B40008480B9F80C0010B9686FC9F80A000298CF
:101B5000BA4508F5807805EB8000C0F88490A5D1DF
:101B60000C2009F019FE00287DD04DF6C8614DF615
:101B7000D068C2F20121C2F20128034605600A685A
:101B8000D8F80060464543F8042F53600B6081602D
:101B900025D04FF6FF7756F8040CC2685188B94239
:101BA00003D0B5F87430994216D195F86C1099B1FC
:101BB000928801240123BA4206D005EB8404D4F8AC
:101BC0008040A489A24204D00133DCB28C42F2D915
:101BD00002E041682846884736684645DBD1002642
:101BE000304607B0BDE8F08FD5F880000021132300
:101BF0004FF00008027A00688DF81A800DF11A077C
